{
  "_format": "hh-sol-artifact-1",
  "contractName": "BridgeSepolia",
  "sourceName": "contracts/BridgeSepolia.sol",
  "abi": [
    {
      "inputs": [
        {
          "internalType": "address",
          "name": "_wrappedToken",
          "type": "address"
        }
      ],
      "stateMutability": "nonpayable",
      "type": "constructor"
    },
    {
      "inputs": [],
      "name": "AccessControlBadConfirmation",
      "type": "error"
    },
    {
      "inputs": [
        {
          "internalType": "address",
          "name": "account",
          "type": "address"
        },
        {
          "internalType": "bytes32",
          "name": "neededRole",
          "type": "bytes32"
        }
      ],
      "name": "AccessControlUnauthorizedAccount",
      "type": "error"
    },
    {
      "inputs": [],
      "name": "ReentrancyGuardReentrantCall",
      "type": "error"
    },
    {
      "anonymous": false,
      "inputs": [
        {
          "indexed": true,
          "internalType": "address",
          "name": "token",
          "type": "address"
        },
        {
          "indexed": true,
          "internalType": "address",
          "name": "from",
          "type": "address"
        },
        {
          "indexed": false,
          "internalType": "uint256",
          "name": "amount",
          "type": "uint256"
        },
        {
          "indexed": false,
          "internalType": "uint256",
          "name": "nonce",
          "type": "uint256"
        },
        {
          "indexed": false,
          "internalType": "bytes32",
          "name": "transferId",
          "type": "bytes32"
        }
      ],
      "name": "Burned",
      "type": "event"
    },
    {
      "anonymous": false,
      "inputs": [
        {
          "indexed": false,
          "internalType": "bytes32",
          "name": "newRoot",
          "type": "bytes32"
        }
      ],
      "name": "MerkleRootUpdated",
      "type": "event"
    },
    {
      "anonymous": false,
      "inputs": [
        {
          "indexed": true,
          "internalType": "address",
          "name": "token",
          "type": "address"
        },
        {
          "indexed": true,
          "internalType": "address",
          "name": "to",
          "type": "address"
        },
        {
          "indexed": false,
          "internalType": "uint256",
          "name": "amount",
          "type": "uint256"
        },
        {
          "indexed": false,
          "internalType": "bytes32",
          "name": "transferId",
          "type": "bytes32"
        }
      ],
      "name": "Released",
      "type": "event"
    },
    {
      "anonymous": false,
      "inputs": [
        {
          "indexed": true,
          "internalType": "bytes32",
          "name": "role",
          "type": "bytes32"
        },
        {
          "indexed": true,
          "internalType": "bytes32",
          "name": "previousAdminRole",
          "type": "bytes32"
        },
        {
          "indexed": true,
          "internalType": "bytes32",
          "name": "newAdminRole",
          "type": "bytes32"
        }
      ],
      "name": "RoleAdminChanged",
      "type": "event"
    },
    {
      "anonymous": false,
      "inputs": [
        {
          "indexed": true,
          "internalType": "bytes32",
          "name": "role",
          "type": "bytes32"
        },
        {
          "indexed": true,
          "internalType": "address",
          "name": "account",
          "type": "address"
        },
        {
          "indexed": true,
          "internalType": "address",
          "name": "sender",
          "type": "address"
        }
      ],
      "name": "RoleGranted",
      "type": "event"
    },
    {
      "anonymous": false,
      "inputs": [
        {
          "indexed": true,
          "internalType": "bytes32",
          "name": "role",
          "type": "bytes32"
        },
        {
          "indexed": true,
          "internalType": "address",
          "name": "account",
          "type": "address"
        },
        {
          "indexed": true,
          "internalType": "address",
          "name": "sender",
          "type": "address"
        }
      ],
      "name": "RoleRevoked",
      "type": "event"
    },
    {
      "inputs": [],
      "name": "DEFAULT_ADMIN_ROLE",
      "outputs": [
        {
          "internalType": "bytes32",
          "name": "",
          "type": "bytes32"
        }
      ],
      "stateMutability": "view",
      "type": "function"
    },
    {
      "inputs": [],
      "name": "RELAYER_ROLE",
      "outputs": [
        {
          "internalType": "bytes32",
          "name": "",
          "type": "bytes32"
        }
      ],
      "stateMutability": "view",
      "type": "function"
    },
    {
      "inputs": [
        {
          "internalType": "address",
          "name": "relayer",
          "type": "address"
        }
      ],
      "name": "addRelayer",
      "outputs": [],
      "stateMutability": "nonpayable",
      "type": "function"
    },
    {
      "inputs": [
        {
          "internalType": "uint256",
          "name": "amount",
          "type": "uint256"
        }
      ],
      "name": "burn",
      "outputs": [],
      "stateMutability": "nonpayable",
      "type": "function"
    },
    {
      "inputs": [
        {
          "internalType": "bytes32",
          "name": "role",
          "type": "bytes32"
        }
      ],
      "name": "getRoleAdmin",
      "outputs": [
        {
          "internalType": "bytes32",
          "name": "",
          "type": "bytes32"
        }
      ],
      "stateMutability": "view",
      "type": "function"
    },
    {
      "inputs": [
        {
          "internalType": "bytes32",
          "name": "role",
          "type": "bytes32"
        },
        {
          "internalType": "address",
          "name": "account",
          "type": "address"
        }
      ],
      "name": "grantRole",
      "outputs": [],
      "stateMutability": "nonpayable",
      "type": "function"
    },
    {
      "inputs": [
        {
          "internalType": "bytes32",
          "name": "role",
          "type": "bytes32"
        },
        {
          "internalType": "address",
          "name": "account",
          "type": "address"
        }
      ],
      "name": "hasRole",
      "outputs": [
        {
          "internalType": "bool",
          "name": "",
          "type": "bool"
        }
      ],
      "stateMutability": "view",
      "type": "function"
    },
    {
      "inputs": [],
      "name": "merkleRoot",
      "outputs": [
        {
          "internalType": "bytes32",
          "name": "",
          "type": "bytes32"
        }
      ],
      "stateMutability": "view",
      "type": "function"
    },
    {
      "inputs": [],
      "name": "nonce",
      "outputs": [
        {
          "internalType": "uint256",
          "name": "",
          "type": "uint256"
        }
      ],
      "stateMutability": "view",
      "type": "function"
    },
    {
      "inputs": [
        {
          "internalType": "bytes32",
          "name": "",
          "type": "bytes32"
        }
      ],
      "name": "processedTransfers",
      "outputs": [
        {
          "internalType": "bool",
          "name": "",
          "type": "bool"
        }
      ],
      "stateMutability": "view",
      "type": "function"
    },
    {
      "inputs": [
        {
          "internalType": "address",
          "name": "user",
          "type": "address"
        },
        {
          "internalType": "uint256",
          "name": "amount",
          "type": "uint256"
        },
        {
          "internalType": "bytes32[]",
          "name": "merkleProof",
          "type": "bytes32[]"
        },
        {
          "internalType": "bytes32",
          "name": "transferId",
          "type": "bytes32"
        }
      ],
      "name": "release",
      "outputs": [],
      "stateMutability": "nonpayable",
      "type": "function"
    },
    {
      "inputs": [],
      "name": "remoteBridge",
      "outputs": [
        {
          "internalType": "address",
          "name": "",
          "type": "address"
        }
      ],
      "stateMutability": "view",
      "type": "function"
    },
    {
      "inputs": [
        {
          "internalType": "address",
          "name": "relayer",
          "type": "address"
        }
      ],
      "name": "removeRelayer",
      "outputs": [],
      "stateMutability": "nonpayable",
      "type": "function"
    },
    {
      "inputs": [
        {
          "internalType": "bytes32",
          "name": "role",
          "type": "bytes32"
        },
        {
          "internalType": "address",
          "name": "callerConfirmation",
          "type": "address"
        }
      ],
      "name": "renounceRole",
      "outputs": [],
      "stateMutability": "nonpayable",
      "type": "function"
    },
    {
      "inputs": [
        {
          "internalType": "bytes32",
          "name": "role",
          "type": "bytes32"
        },
        {
          "internalType": "address",
          "name": "account",
          "type": "address"
        }
      ],
      "name": "revokeRole",
      "outputs": [],
      "stateMutability": "nonpayable",
      "type": "function"
    },
    {
      "inputs": [
        {
          "internalType": "address",
          "name": "_remoteBridge",
          "type": "address"
        }
      ],
      "name": "setRemoteBridge",
      "outputs": [],
      "stateMutability": "nonpayable",
      "type": "function"
    },
    {
      "inputs": [
        {
          "internalType": "bytes4",
          "name": "interfaceId",
          "type": "bytes4"
        }
      ],
      "name": "supportsInterface",
      "outputs": [
        {
          "internalType": "bool",
          "name": "",
          "type": "bool"
        }
      ],
      "stateMutability": "view",
      "type": "function"
    },
    {
      "inputs": [
        {
          "internalType": "bytes32",
          "name": "newRoot",
          "type": "bytes32"
        }
      ],
      "name": "updateMerkleRoot",
      "outputs": [],
      "stateMutability": "nonpayable",
      "type": "function"
    },
    {
      "inputs": [],
      "name": "wrappedToken",
      "outputs": [
        {
          "internalType": "contract IERC20Mintable",
          "name": "",
          "type": "address"
        }
      ],
      "stateMutability": "view",
      "type": "function"
    }
  ],
  "bytecode": "0x60806040523480156200001157600080fd5b5060405162001c3638038062001c368339818101604052810190620000379190620002ae565b6001808190555080600260006101000a81548173ffffffffffffffffffffffffffffffffffffffff021916908373ffffffffffffffffffffffffffffffffffffffff160217905550620000946000801b33620000cf60201b60201c565b50620000c77fe2b7fb3b832174769106daebcfd6d1970523240dda11281102db9363b83b0dc433620000cf60201b60201c565b5050620002e0565b6000620000e38383620001d260201b60201c565b620001c757600160008085815260200190815260200160002060000160008473ffffffffffffffffffffffffffffffffffffffff1673ffffffffffffffffffffffffffffffffffffffff16815260200190815260200160002060006101000a81548160ff021916908315150217905550620001636200023c60201b60201c565b73ffffffffffffffffffffffffffffffffffffffff168273ffffffffffffffffffffffffffffffffffffffff16847f2f8788117e7eff1d82e926ec794901d17c78024a50270940304540a733656f0d60405160405180910390a460019050620001cc565b600090505b92915050565b600080600084815260200190815260200160002060000160008373ffffffffffffffffffffffffffffffffffffffff1673ffffffffffffffffffffffffffffffffffffffff16815260200190815260200160002060009054906101000a900460ff16905092915050565b600033905090565b600080fd5b600073ffffffffffffffffffffffffffffffffffffffff82169050919050565b6000620002768262000249565b9050919050565b620002888162000269565b81146200029457600080fd5b50565b600081519050620002a8816200027d565b92915050565b600060208284031215620002c757620002c662000244565b5b6000620002d78482850162000297565b91505092915050565b61194680620002f06000396000f3fe608060405234801561001057600080fd5b50600436106101215760003560e01c806360f0a5ac116100ad578063affed0e011610071578063affed0e0146102f2578063c97123bb14610310578063d547741f1461032e578063dd39f00d1461034a578063dd910d751461036657610121565b806360f0a5ac1461024c57806391d1485414610268578063926d7d7f14610298578063996c6cc3146102b6578063a217fddf146102d457610121565b80632f2ff15d116100f45780632f2ff15d146101c057806336568abe146101dc57806342966c68146101f85780634783f0ef14610214578063606c8ffd1461023057610121565b806301ffc9a71461012657806316ce814914610156578063248a9ca3146101725780632eb4a7ab146101a2575b600080fd5b610140600480360381019061013b919061108a565b610396565b60405161014d91906110d2565b60405180910390f35b610170600480360381019061016b919061114b565b610410565b005b61018c600480360381019061018791906111ae565b610462565b60405161019991906111ea565b60405180910390f35b6101aa610481565b6040516101b791906111ea565b60405180910390f35b6101da60048036038101906101d59190611205565b610487565b005b6101f660048036038101906101f19190611205565b6104a9565b005b610212600480360381019061020d919061127b565b610524565b005b61022e600480360381019061022991906111ae565b6107c1565b005b61024a6004803603810190610245919061130d565b61082d565b005b6102666004803603810190610261919061114b565b610ad1565b005b610282600480360381019061027d9190611205565b610b0c565b60405161028f91906110d2565b60405180910390f35b6102a0610b76565b6040516102ad91906111ea565b60405180910390f35b6102be610b9a565b6040516102cb91906113f4565b60405180910390f35b6102dc610bc0565b6040516102e991906111ea565b60405180910390f35b6102fa610bc7565b604051610307919061141e565b60405180910390f35b610318610bcd565b6040516103259190611448565b60405180910390f35b61034860048036038101906103439190611205565b610bf3565b005b610364600480360381019061035f919061114b565b610c15565b005b610380600480360381019061037b91906111ae565b610c50565b60405161038d91906110d2565b60405180910390f35b60007f7965db0b000000000000000000000000000000000000000000000000000000007bffffffffffffffffffffffffffffffffffffffffffffffffffffffff1916827bffffffffffffffffffffffffffffffffffffffffffffffffffffffff19161480610409575061040882610c70565b5b9050919050565b6000801b61041d81610cda565b81600360006101000a81548173ffffffffffffffffffffffffffffffffffffffff021916908373ffffffffffffffffffffffffffffffffffffffff1602179055505050565b6000806000838152602001908152602001600020600101549050919050565b60045481565b61049082610462565b61049981610cda565b6104a38383610cee565b50505050565b6104b1610ddf565b73ffffffffffffffffffffffffffffffffffffffff168173ffffffffffffffffffffffffffffffffffffffff1614610515576040517f6697b23200000000000000000000000000000000000000000000000000000000815260040160405180910390fd5b61051f8282610de7565b505050565b61052c610ed9565b6000811161056f576040517f08c379a0000000000000000000000000000000000000000000000000000000008152600401610566906114c0565b60405180910390fd5b600660008154809291906105829061150f565b9190505550600260009054906101000a900473ffffffffffffffffffffffffffffffffffffffff1673ffffffffffffffffffffffffffffffffffffffff166323b872dd3330846040518463ffffffff1660e01b81526004016105e693929190611557565b6020604051808303816000875af1158015610605573d6000803e3d6000fd5b505050506040513d601f19601f8201168201806040525081019061062991906115ba565b610668576040517f08c379a000000000000000000000000000000000000000000000000000000000815260040161065f90611633565b60405180910390fd5b600260009054906101000a900473ffffffffffffffffffffffffffffffffffffffff1673ffffffffffffffffffffffffffffffffffffffff16639dc29fac30836040518363ffffffff1660e01b81526004016106c5929190611653565b600060405180830381600087803b1580156106df57600080fd5b505af11580156106f3573d6000803e3d6000fd5b5050505060003382600654604051602001610710939291906116e5565b6040516020818303038152906040528051906020012090503373ffffffffffffffffffffffffffffffffffffffff16600260009054906101000a900473ffffffffffffffffffffffffffffffffffffffff1673ffffffffffffffffffffffffffffffffffffffff167f1a38dd711da918b1612d50ecc45d125feeb50bc8131bfb9247604d98923f492084600654856040516107ad93929190611722565b60405180910390a3506107be610f1f565b50565b7fe2b7fb3b832174769106daebcfd6d1970523240dda11281102db9363b83b0dc46107eb81610cda565b816004819055507f90004c04698bc3322499a575ed3752dd4abf33e0a7294c06a787a0fe01bea9418260405161082191906111ea565b60405180910390a15050565b610835610ed9565b7fe2b7fb3b832174769106daebcfd6d1970523240dda11281102db9363b83b0dc461085f81610cda565b6005600083815260200190815260200160002060009054906101000a900460ff16156108c0576040517f08c379a00000000000000000000000000000000000000000000000000000000081526004016108b7906117a5565b60405180910390fd5b60008686846040516020016108d7939291906117e6565b60405160208183030381529060405280519060200120905061093d858580806020026020016040519081016040528093929190818152602001838360200280828437600081840152601f19601f8201169050808301925050505050505060045483610f28565b61097c576040517f08c379a00000000000000000000000000000000000000000000000000000000081526004016109739061186f565b60405180910390fd5b60016005600085815260200190815260200160002060006101000a81548160ff021916908315150217905550600260009054906101000a900473ffffffffffffffffffffffffffffffffffffffff1673ffffffffffffffffffffffffffffffffffffffff166340c10f1988886040518363ffffffff1660e01b8152600401610a05929190611653565b600060405180830381600087803b158015610a1f57600080fd5b505af1158015610a33573d6000803e3d6000fd5b505050508673ffffffffffffffffffffffffffffffffffffffff16600260009054906101000a900473ffffffffffffffffffffffffffffffffffffffff1673ffffffffffffffffffffffffffffffffffffffff167fa665ffb445611e4a69ea6bd353374f390a656906ea2da3245a8aae47a360a6cc8886604051610ab892919061188f565b60405180910390a35050610aca610f1f565b5050505050565b6000801b610ade81610cda565b610b087fe2b7fb3b832174769106daebcfd6d1970523240dda11281102db9363b83b0dc483610bf3565b5050565b600080600084815260200190815260200160002060000160008373ffffffffffffffffffffffffffffffffffffffff1673ffffffffffffffffffffffffffffffffffffffff16815260200190815260200160002060009054906101000a900460ff16905092915050565b7fe2b7fb3b832174769106daebcfd6d1970523240dda11281102db9363b83b0dc481565b600260009054906101000a900473ffffffffffffffffffffffffffffffffffffffff1681565b6000801b81565b60065481565b600360009054906101000a900473ffffffffffffffffffffffffffffffffffffffff1681565b610bfc82610462565b610c0581610cda565b610c0f8383610de7565b50505050565b6000801b610c2281610cda565b610c4c7fe2b7fb3b832174769106daebcfd6d1970523240dda11281102db9363b83b0dc483610487565b5050565b60056020528060005260406000206000915054906101000a900460ff1681565b60007f01ffc9a7000000000000000000000000000000000000000000000000000000007bffffffffffffffffffffffffffffffffffffffffffffffffffffffff1916827bffffffffffffffffffffffffffffffffffffffffffffffffffffffff1916149050919050565b610ceb81610ce6610ddf565b610f3f565b50565b6000610cfa8383610b0c565b610dd457600160008085815260200190815260200160002060000160008473ffffffffffffffffffffffffffffffffffffffff1673ffffffffffffffffffffffffffffffffffffffff16815260200190815260200160002060006101000a81548160ff021916908315150217905550610d71610ddf565b73ffffffffffffffffffffffffffffffffffffffff168273ffffffffffffffffffffffffffffffffffffffff16847f2f8788117e7eff1d82e926ec794901d17c78024a50270940304540a733656f0d60405160405180910390a460019050610dd9565b600090505b92915050565b600033905090565b6000610df38383610b0c565b15610ece57600080600085815260200190815260200160002060000160008473ffffffffffffffffffffffffffffffffffffffff1673ffffffffffffffffffffffffffffffffffffffff16815260200190815260200160002060006101000a81548160ff021916908315150217905550610e6b610ddf565b73ffffffffffffffffffffffffffffffffffffffff168273ffffffffffffffffffffffffffffffffffffffff16847ff6391f5c32d9c69d2a47ea670b442974b53935d1edc7fd64eb21e047a839171b60405160405180910390a460019050610ed3565b600090505b92915050565b600260015403610f15576040517f3ee5aeb500000000000000000000000000000000000000000000000000000000815260040160405180910390fd5b6002600181905550565b60018081905550565b600082610f358584610f90565b1490509392505050565b610f498282610b0c565b610f8c5780826040517fe2517d3f000000000000000000000000000000000000000000000000000000008152600401610f839291906118b8565b60405180910390fd5b5050565b60008082905060005b8451811015610fdb57610fc682868381518110610fb957610fb86118e1565b5b6020026020010151610fe6565b91508080610fd39061150f565b915050610f99565b508091505092915050565b6000818310610ffe57610ff98284611011565b611009565b6110088383611011565b5b905092915050565b600082600052816020526040600020905092915050565b600080fd5b600080fd5b60007fffffffff0000000000000000000000000000000000000000000000000000000082169050919050565b61106781611032565b811461107257600080fd5b50565b6000813590506110848161105e565b92915050565b6000602082840312156110a05761109f611028565b5b60006110ae84828501611075565b91505092915050565b60008115159050919050565b6110cc816110b7565b82525050565b60006020820190506110e760008301846110c3565b92915050565b600073ffffffffffffffffffffffffffffffffffffffff82169050919050565b6000611118826110ed565b9050919050565b6111288161110d565b811461113357600080fd5b50565b6000813590506111458161111f565b92915050565b60006020828403121561116157611160611028565b5b600061116f84828501611136565b91505092915050565b6000819050919050565b61118b81611178565b811461119657600080fd5b50565b6000813590506111a881611182565b92915050565b6000602082840312156111c4576111c3611028565b5b60006111d284828501611199565b91505092915050565b6111e481611178565b82525050565b60006020820190506111ff60008301846111db565b92915050565b6000806040838503121561121c5761121b611028565b5b600061122a85828601611199565b925050602061123b85828601611136565b9150509250929050565b6000819050919050565b61125881611245565b811461126357600080fd5b50565b6000813590506112758161124f565b92915050565b60006020828403121561129157611290611028565b5b600061129f84828501611266565b91505092915050565b600080fd5b600080fd5b600080fd5b60008083601f8401126112cd576112cc6112a8565b5b8235905067ffffffffffffffff8111156112ea576112e96112ad565b5b602083019150836020820283011115611306576113056112b2565b5b9250929050565b60008060008060006080868803121561132957611328611028565b5b600061133788828901611136565b955050602061134888828901611266565b945050604086013567ffffffffffffffff8111156113695761136861102d565b5b611375888289016112b7565b9350935050606061138888828901611199565b9150509295509295909350565b6000819050919050565b60006113ba6113b56113b0846110ed565b611395565b6110ed565b9050919050565b60006113cc8261139f565b9050919050565b60006113de826113c1565b9050919050565b6113ee816113d3565b82525050565b600060208201905061140960008301846113e5565b92915050565b61141881611245565b82525050565b6000602082019050611433600083018461140f565b92915050565b6114428161110d565b82525050565b600060208201905061145d6000830184611439565b92915050565b600082825260208201905092915050565b7f416d6f756e74206d7573742062652067726561746572207468616e2030000000600082015250565b60006114aa601d83611463565b91506114b582611474565b602082019050919050565b600060208201905081810360008301526114d98161149d565b9050919050565b7f4e487b7100000000000000000000000000000000000000000000000000000000600052601160045260246000fd5b600061151a82611245565b91507fffffffffffffffffffffffffffffffffffffffffffffffffffffffffffffffff820361154c5761154b6114e0565b5b600182019050919050565b600060608201905061156c6000830186611439565b6115796020830185611439565b611586604083018461140f565b949350505050565b611597816110b7565b81146115a257600080fd5b50565b6000815190506115b48161158e565b92915050565b6000602082840312156115d0576115cf611028565b5b60006115de848285016115a5565b91505092915050565b7f5472616e73666572206661696c65640000000000000000000000000000000000600082015250565b600061161d600f83611463565b9150611628826115e7565b602082019050919050565b6000602082019050818103600083015261164c81611610565b9050919050565b60006040820190506116686000830185611439565b611675602083018461140f565b9392505050565b60008160601b9050919050565b60006116948261167c565b9050919050565b60006116a682611689565b9050919050565b6116be6116b98261110d565b61169b565b82525050565b6000819050919050565b6116df6116da82611245565b6116c4565b82525050565b60006116f182866116ad565b60148201915061170182856116ce565b60208201915061171182846116ce565b602082019150819050949350505050565b6000606082019050611737600083018661140f565b611744602083018561140f565b61175160408301846111db565b949350505050565b7f5472616e7366657220616c72656164792070726f636573736564000000000000600082015250565b600061178f601a83611463565b915061179a82611759565b602082019050919050565b600060208201905081810360008301526117be81611782565b9050919050565b6000819050919050565b6117e06117db82611178565b6117c5565b82525050565b60006117f282866116ad565b60148201915061180282856116ce565b60208201915061181282846117cf565b602082019150819050949350505050565b7f496e76616c6964206d65726b6c652070726f6f66000000000000000000000000600082015250565b6000611859601483611463565b915061186482611823565b602082019050919050565b600060208201905081810360008301526118888161184c565b9050919050565b60006040820190506118a4600083018561140f565b6118b160208301846111db565b9392505050565b60006040820190506118cd6000830185611439565b6118da60208301846111db565b9392505050565b7f4e487b7100000000000000000000000000000000000000000000000000000000600052603260045260246000fdfea264697066735822122001eaf1a96c0c3347bc8715e1ad002429b7a01ca4604d74eefa4e3057a2d8b47964736f6c63430008140033",
  "linkReferences": {},
  "deployedLinkReferences": {}
}