{
  "_format": "hh-sol-artifact-1",
  "contractName": "BridgeAmoyNFTV2",
  "sourceName": "contracts/BridgeAmoyNFTV2.sol",
  "abi": [
    {
      "inputs": [
        {
          "internalType": "address",
          "name": "_nft",
          "type": "address"
        },
        {
          "internalType": "address",
          "name": "_relayerManager",
          "type": "address"
        },
        {
          "internalType": "address",
          "name": "admin",
          "type": "address"
        }
      ],
      "stateMutability": "nonpayable",
      "type": "constructor"
    },
    {
      "inputs": [],
      "name": "AccessControlBadConfirmation",
      "type": "error"
    },
    {
      "inputs": [
        {
          "internalType": "address",
          "name": "account",
          "type": "address"
        },
        {
          "internalType": "bytes32",
          "name": "neededRole",
          "type": "bytes32"
        }
      ],
      "name": "AccessControlUnauthorizedAccount",
      "type": "error"
    },
    {
      "inputs": [],
      "name": "EnforcedPause",
      "type": "error"
    },
    {
      "inputs": [],
      "name": "ExpectedPause",
      "type": "error"
    },
    {
      "inputs": [],
      "name": "ReentrancyGuardReentrantCall",
      "type": "error"
    },
    {
      "anonymous": false,
      "inputs": [
        {
          "indexed": true,
          "internalType": "bytes32",
          "name": "requestId",
          "type": "bytes32"
        },
        {
          "indexed": true,
          "internalType": "address",
          "name": "user",
          "type": "address"
        },
        {
          "indexed": true,
          "internalType": "address",
          "name": "recipient",
          "type": "address"
        },
        {
          "indexed": false,
          "internalType": "uint256",
          "name": "tokenId",
          "type": "uint256"
        }
      ],
      "name": "LockRequested",
      "type": "event"
    },
    {
      "anonymous": false,
      "inputs": [
        {
          "indexed": false,
          "internalType": "address",
          "name": "account",
          "type": "address"
        }
      ],
      "name": "Paused",
      "type": "event"
    },
    {
      "anonymous": false,
      "inputs": [
        {
          "indexed": true,
          "internalType": "bytes32",
          "name": "role",
          "type": "bytes32"
        },
        {
          "indexed": true,
          "internalType": "bytes32",
          "name": "previousAdminRole",
          "type": "bytes32"
        },
        {
          "indexed": true,
          "internalType": "bytes32",
          "name": "newAdminRole",
          "type": "bytes32"
        }
      ],
      "name": "RoleAdminChanged",
      "type": "event"
    },
    {
      "anonymous": false,
      "inputs": [
        {
          "indexed": true,
          "internalType": "bytes32",
          "name": "role",
          "type": "bytes32"
        },
        {
          "indexed": true,
          "internalType": "address",
          "name": "account",
          "type": "address"
        },
        {
          "indexed": true,
          "internalType": "address",
          "name": "sender",
          "type": "address"
        }
      ],
      "name": "RoleGranted",
      "type": "event"
    },
    {
      "anonymous": false,
      "inputs": [
        {
          "indexed": true,
          "internalType": "bytes32",
          "name": "role",
          "type": "bytes32"
        },
        {
          "indexed": true,
          "internalType": "address",
          "name": "account",
          "type": "address"
        },
        {
          "indexed": true,
          "internalType": "address",
          "name": "sender",
          "type": "address"
        }
      ],
      "name": "RoleRevoked",
      "type": "event"
    },
    {
      "anonymous": false,
      "inputs": [
        {
          "indexed": true,
          "internalType": "bytes32",
          "name": "requestId",
          "type": "bytes32"
        },
        {
          "indexed": true,
          "internalType": "address",
          "name": "executor",
          "type": "address"
        },
        {
          "indexed": false,
          "internalType": "bool",
          "name": "success",
          "type": "bool"
        }
      ],
      "name": "TransferProcessed",
      "type": "event"
    },
    {
      "anonymous": false,
      "inputs": [
        {
          "indexed": false,
          "internalType": "address",
          "name": "account",
          "type": "address"
        }
      ],
      "name": "Unpaused",
      "type": "event"
    },
    {
      "inputs": [],
      "name": "ADMIN_ROLE",
      "outputs": [
        {
          "internalType": "bytes32",
          "name": "",
          "type": "bytes32"
        }
      ],
      "stateMutability": "view",
      "type": "function"
    },
    {
      "inputs": [],
      "name": "DEFAULT_ADMIN_ROLE",
      "outputs": [
        {
          "internalType": "bytes32",
          "name": "",
          "type": "bytes32"
        }
      ],
      "stateMutability": "view",
      "type": "function"
    },
    {
      "inputs": [],
      "name": "OPERATOR_ROLE",
      "outputs": [
        {
          "internalType": "bytes32",
          "name": "",
          "type": "bytes32"
        }
      ],
      "stateMutability": "view",
      "type": "function"
    },
    {
      "inputs": [],
      "name": "PAUSER_ROLE",
      "outputs": [
        {
          "internalType": "bytes32",
          "name": "",
          "type": "bytes32"
        }
      ],
      "stateMutability": "view",
      "type": "function"
    },
    {
      "inputs": [
        {
          "internalType": "uint256",
          "name": "",
          "type": "uint256"
        }
      ],
      "name": "bridgedTokens",
      "outputs": [
        {
          "internalType": "bool",
          "name": "",
          "type": "bool"
        }
      ],
      "stateMutability": "view",
      "type": "function"
    },
    {
      "inputs": [
        {
          "internalType": "uint256",
          "name": "tokenId",
          "type": "uint256"
        },
        {
          "internalType": "address",
          "name": "to",
          "type": "address"
        }
      ],
      "name": "emergencyWithdraw",
      "outputs": [],
      "stateMutability": "nonpayable",
      "type": "function"
    },
    {
      "inputs": [
        {
          "internalType": "bytes32",
          "name": "role",
          "type": "bytes32"
        }
      ],
      "name": "getRoleAdmin",
      "outputs": [
        {
          "internalType": "bytes32",
          "name": "",
          "type": "bytes32"
        }
      ],
      "stateMutability": "view",
      "type": "function"
    },
    {
      "inputs": [
        {
          "internalType": "bytes32",
          "name": "role",
          "type": "bytes32"
        },
        {
          "internalType": "address",
          "name": "account",
          "type": "address"
        }
      ],
      "name": "grantRole",
      "outputs": [],
      "stateMutability": "nonpayable",
      "type": "function"
    },
    {
      "inputs": [
        {
          "internalType": "bytes32",
          "name": "role",
          "type": "bytes32"
        },
        {
          "internalType": "address",
          "name": "account",
          "type": "address"
        }
      ],
      "name": "hasRole",
      "outputs": [
        {
          "internalType": "bool",
          "name": "",
          "type": "bool"
        }
      ],
      "stateMutability": "view",
      "type": "function"
    },
    {
      "inputs": [
        {
          "internalType": "uint256",
          "name": "tokenId",
          "type": "uint256"
        },
        {
          "internalType": "address",
          "name": "recipient",
          "type": "address"
        }
      ],
      "name": "lockWithRelay",
      "outputs": [],
      "stateMutability": "nonpayable",
      "type": "function"
    },
    {
      "inputs": [],
      "name": "nft",
      "outputs": [
        {
          "internalType": "contract IAmoyNFT",
          "name": "",
          "type": "address"
        }
      ],
      "stateMutability": "view",
      "type": "function"
    },
    {
      "inputs": [],
      "name": "pause",
      "outputs": [],
      "stateMutability": "nonpayable",
      "type": "function"
    },
    {
      "inputs": [],
      "name": "paused",
      "outputs": [
        {
          "internalType": "bool",
          "name": "",
          "type": "bool"
        }
      ],
      "stateMutability": "view",
      "type": "function"
    },
    {
      "inputs": [
        {
          "internalType": "bytes32",
          "name": "",
          "type": "bytes32"
        }
      ],
      "name": "processedRequests",
      "outputs": [
        {
          "internalType": "bool",
          "name": "",
          "type": "bool"
        }
      ],
      "stateMutability": "view",
      "type": "function"
    },
    {
      "inputs": [],
      "name": "relayerManager",
      "outputs": [
        {
          "internalType": "contract INFTRelayerManager",
          "name": "",
          "type": "address"
        }
      ],
      "stateMutability": "view",
      "type": "function"
    },
    {
      "inputs": [
        {
          "internalType": "bytes32",
          "name": "role",
          "type": "bytes32"
        },
        {
          "internalType": "address",
          "name": "callerConfirmation",
          "type": "address"
        }
      ],
      "name": "renounceRole",
      "outputs": [],
      "stateMutability": "nonpayable",
      "type": "function"
    },
    {
      "inputs": [
        {
          "internalType": "bytes32",
          "name": "role",
          "type": "bytes32"
        },
        {
          "internalType": "address",
          "name": "account",
          "type": "address"
        }
      ],
      "name": "revokeRole",
      "outputs": [],
      "stateMutability": "nonpayable",
      "type": "function"
    },
    {
      "inputs": [
        {
          "internalType": "bytes4",
          "name": "interfaceId",
          "type": "bytes4"
        }
      ],
      "name": "supportsInterface",
      "outputs": [
        {
          "internalType": "bool",
          "name": "",
          "type": "bool"
        }
      ],
      "stateMutability": "view",
      "type": "function"
    },
    {
      "inputs": [
        {
          "internalType": "bytes32",
          "name": "requestId",
          "type": "bytes32"
        },
        {
          "internalType": "address",
          "name": "recipient",
          "type": "address"
        },
        {
          "internalType": "uint256",
          "name": "tokenId",
          "type": "uint256"
        },
        {
          "internalType": "bytes32[]",
          "name": "relayerProof",
          "type": "bytes32[]"
        }
      ],
      "name": "unlock",
      "outputs": [],
      "stateMutability": "nonpayable",
      "type": "function"
    },
    {
      "inputs": [],
      "name": "unpause",
      "outputs": [],
      "stateMutability": "nonpayable",
      "type": "function"
    }
  ],
  "bytecode": "0x60806040523480156200001157600080fd5b50604051620022fb380380620022fb833981810160405281019062000037919062000372565b600180819055506000600260006101000a81548160ff02191690831515021790555082600260016101000a81548173ffffffffffffffffffffffffffffffffffffffff021916908373ffffffffffffffffffffffffffffffffffffffff16021790555081600360006101000a81548173ffffffffffffffffffffffffffffffffffffffff021916908373ffffffffffffffffffffffffffffffffffffffff160217905550620000f06000801b826200019360201b60201c565b50620001237fa49807205ce4d355092ef5a8a18f56e8913cf4a201fbe287825b095693c21775826200019360201b60201c565b50620001567f97667070c54ef182b0f5858b034beac1b6f3089aa2d3188bb1e8929f4fa9b929826200019360201b60201c565b50620001897f65d7a28e3265b37a6474929f336521b332c1681b933f6cb9f3376673440d862a826200019360201b60201c565b50505050620003ce565b6000620001a783836200029660201b60201c565b6200028b57600160008085815260200190815260200160002060000160008473ffffffffffffffffffffffffffffffffffffffff1673ffffffffffffffffffffffffffffffffffffffff16815260200190815260200160002060006101000a81548160ff021916908315150217905550620002276200030060201b60201c565b73ffffffffffffffffffffffffffffffffffffffff168273ffffffffffffffffffffffffffffffffffffffff16847f2f8788117e7eff1d82e926ec794901d17c78024a50270940304540a733656f0d60405160405180910390a46001905062000290565b600090505b92915050565b600080600084815260200190815260200160002060000160008373ffffffffffffffffffffffffffffffffffffffff1673ffffffffffffffffffffffffffffffffffffffff16815260200190815260200160002060009054906101000a900460ff16905092915050565b600033905090565b600080fd5b600073ffffffffffffffffffffffffffffffffffffffff82169050919050565b60006200033a826200030d565b9050919050565b6200034c816200032d565b81146200035857600080fd5b50565b6000815190506200036c8162000341565b92915050565b6000806000606084860312156200038e576200038d62000308565b5b60006200039e868287016200035b565b9350506020620003b1868287016200035b565b9250506040620003c4868287016200035b565b9150509250925092565b611f1d80620003de6000396000f3fe608060405234801561001057600080fd5b506004361061012c5760003560e01c80638456cb59116100ad578063c71d36b311610071578063c71d36b314610309578063ce0fa5a914610327578063d547741f14610357578063e63ab1e914610373578063f5b541a6146103915761012c565b80638456cb591461026557806391d148541461026f5780639c33ee1e1461029f578063a217fddf146102bb578063c409b8f9146102d95761012c565b806336568abe116100f457806336568abe146101e55780633f4ba83a1461020157806347ccca021461020b5780635c975abb1461022957806375b238fc146102475761012c565b806301ffc9a71461013157806307751d4b14610161578063248a9ca31461017d5780632f2ff15d146101ad5780632f940c70146101c9575b600080fd5b61014b60048036038101906101469190611534565b6103af565b604051610158919061157c565b60405180910390f35b61017b6004803603810190610176919061162b565b610429565b005b610197600480360381019061019291906116a1565b6108f8565b6040516101a491906116dd565b60405180910390f35b6101c760048036038101906101c291906116f8565b610917565b005b6101e360048036038101906101de919061162b565b610939565b005b6101ff60048036038101906101fa91906116f8565b610a94565b005b610209610b0f565b005b610213610b44565b6040516102209190611797565b60405180910390f35b610231610b6a565b60405161023e919061157c565b60405180910390f35b61024f610b81565b60405161025c91906116dd565b60405180910390f35b61026d610ba5565b005b610289600480360381019061028491906116f8565b610bda565b604051610296919061157c565b60405180910390f35b6102b960048036038101906102b49190611817565b610c44565b005b6102c3610fab565b6040516102d091906116dd565b60405180910390f35b6102f360048036038101906102ee919061189f565b610fb2565b604051610300919061157c565b60405180910390f35b610311610fd2565b60405161031e91906118ed565b60405180910390f35b610341600480360381019061033c91906116a1565b610ff8565b60405161034e919061157c565b60405180910390f35b610371600480360381019061036c91906116f8565b611018565b005b61037b61103a565b60405161038891906116dd565b60405180910390f35b61039961105e565b6040516103a691906116dd565b60405180910390f35b60007f7965db0b000000000000000000000000000000000000000000000000000000007bffffffffffffffffffffffffffffffffffffffffffffffffffffffff1916827bffffffffffffffffffffffffffffffffffffffffffffffffffffffff19161480610422575061042182611082565b5b9050919050565b6104316110ec565b610439611132565b6005600083815260200190815260200160002060009054906101000a900460ff161561049a576040517f08c379a000000000000000000000000000000000000000000000000000000000815260040161049190611965565b60405180910390fd5b600073ffffffffffffffffffffffffffffffffffffffff168173ffffffffffffffffffffffffffffffffffffffff1603610509576040517f08c379a0000000000000000000000000000000000000000000000000000000008152600401610500906119d1565b60405180910390fd5b3373ffffffffffffffffffffffffffffffffffffffff16600260019054906101000a900473ffffffffffffffffffffffffffffffffffffffff1673ffffffffffffffffffffffffffffffffffffffff16636352211e846040518263ffffffff1660e01b815260040161057b9190611a00565b602060405180830381865afa158015610598573d6000803e3d6000fd5b505050506040513d601f19601f820116820180604052508101906105bc9190611a30565b73ffffffffffffffffffffffffffffffffffffffff1614610612576040517f08c379a000000000000000000000000000000000000000000000000000000000815260040161060990611aa9565b60405180910390fd5b3073ffffffffffffffffffffffffffffffffffffffff16600260019054906101000a900473ffffffffffffffffffffffffffffffffffffffff1673ffffffffffffffffffffffffffffffffffffffff1663081812fc846040518263ffffffff1660e01b81526004016106849190611a00565b602060405180830381865afa1580156106a1573d6000803e3d6000fd5b505050506040513d601f19601f820116820180604052508101906106c59190611a30565b73ffffffffffffffffffffffffffffffffffffffff161461071b576040517f08c379a000000000000000000000000000000000000000000000000000000000815260040161071290611b15565b60405180910390fd5b600260019054906101000a900473ffffffffffffffffffffffffffffffffffffffff1673ffffffffffffffffffffffffffffffffffffffff166323b872dd3330856040518463ffffffff1660e01b815260040161077a93929190611b44565b600060405180830381600087803b15801561079457600080fd5b505af11580156107a8573d6000803e3d6000fd5b5050505060016005600084815260200190815260200160002060006101000a81548160ff0219169083151502179055506000600360009054906101000a900473ffffffffffffffffffffffffffffffffffffffff1673ffffffffffffffffffffffffffffffffffffffff16635f08320c338486424662aa36a76040518763ffffffff1660e01b815260040161084296959493929190611bb6565b602060405180830381865afa15801561085f573d6000803e3d6000fd5b505050506040513d601f19601f820116820180604052508101906108839190611c2c565b90508173ffffffffffffffffffffffffffffffffffffffff163373ffffffffffffffffffffffffffffffffffffffff16827ff1992c8013635e041f43112c0802a6b10c6240ebae0ee501dbbf66b664f55afc866040516108e39190611a00565b60405180910390a4506108f4611173565b5050565b6000806000838152602001908152602001600020600101549050919050565b610920826108f8565b6109298161117c565b6109338383611190565b50505050565b7fa49807205ce4d355092ef5a8a18f56e8913cf4a201fbe287825b095693c217756109638161117c565b600073ffffffffffffffffffffffffffffffffffffffff168273ffffffffffffffffffffffffffffffffffffffff16036109d2576040517f08c379a00000000000000000000000000000000000000000000000000000000081526004016109c9906119d1565b60405180910390fd5b600260019054906101000a900473ffffffffffffffffffffffffffffffffffffffff1673ffffffffffffffffffffffffffffffffffffffff166323b872dd3084866040518463ffffffff1660e01b8152600401610a3193929190611b44565b600060405180830381600087803b158015610a4b57600080fd5b505af1158015610a5f573d6000803e3d6000fd5b5050505060006005600085815260200190815260200160002060006101000a81548160ff021916908315150217905550505050565b610a9c611281565b73ffffffffffffffffffffffffffffffffffffffff168173ffffffffffffffffffffffffffffffffffffffff1614610b00576040517f6697b23200000000000000000000000000000000000000000000000000000000815260040160405180910390fd5b610b0a8282611289565b505050565b7f65d7a28e3265b37a6474929f336521b332c1681b933f6cb9f3376673440d862a610b398161117c565b610b4161137b565b50565b600260019054906101000a900473ffffffffffffffffffffffffffffffffffffffff1681565b6000600260009054906101000a900460ff16905090565b7fa49807205ce4d355092ef5a8a18f56e8913cf4a201fbe287825b095693c2177581565b7f65d7a28e3265b37a6474929f336521b332c1681b933f6cb9f3376673440d862a610bcf8161117c565b610bd76113de565b50565b600080600084815260200190815260200160002060000160008373ffffffffffffffffffffffffffffffffffffffff1673ffffffffffffffffffffffffffffffffffffffff16815260200190815260200160002060009054906101000a900460ff16905092915050565b610c4c6110ec565b610c54611132565b600360009054906101000a900473ffffffffffffffffffffffffffffffffffffffff1673ffffffffffffffffffffffffffffffffffffffff16631d0e2d393384846040518463ffffffff1660e01b8152600401610cb393929190611cd4565b602060405180830381865afa158015610cd0573d6000803e3d6000fd5b505050506040513d601f19601f82011682018060405250810190610cf49190611d32565b610d33576040517f08c379a0000000000000000000000000000000000000000000000000000000008152600401610d2a90611dab565b60405180910390fd5b6004600086815260200190815260200160002060009054906101000a900460ff1615610d94576040517f08c379a0000000000000000000000000000000000000000000000000000000008152600401610d8b90611e17565b60405180910390fd5b600073ffffffffffffffffffffffffffffffffffffffff168473ffffffffffffffffffffffffffffffffffffffff1603610e03576040517f08c379a0000000000000000000000000000000000000000000000000000000008152600401610dfa906119d1565b60405180910390fd5b6005600084815260200190815260200160002060009054906101000a900460ff16610e63576040517f08c379a0000000000000000000000000000000000000000000000000000000008152600401610e5a90611e83565b60405180910390fd5b60016004600087815260200190815260200160002060006101000a81548160ff02191690831515021790555060006005600085815260200190815260200160002060006101000a81548160ff021916908315150217905550600260019054906101000a900473ffffffffffffffffffffffffffffffffffffffff1673ffffffffffffffffffffffffffffffffffffffff166323b872dd3086866040518463ffffffff1660e01b8152600401610f1a93929190611b44565b600060405180830381600087803b158015610f3457600080fd5b505af1158015610f48573d6000803e3d6000fd5b505050503373ffffffffffffffffffffffffffffffffffffffff16857fda9d29c0150c0268dd4e85262a981fd351a812a9f7058ac6606c0c18661be7ab6001604051610f94919061157c565b60405180910390a3610fa4611173565b5050505050565b6000801b81565b60056020528060005260406000206000915054906101000a900460ff1681565b600360009054906101000a900473ffffffffffffffffffffffffffffffffffffffff1681565b60046020528060005260406000206000915054906101000a900460ff1681565b611021826108f8565b61102a8161117c565b6110348383611289565b50505050565b7f65d7a28e3265b37a6474929f336521b332c1681b933f6cb9f3376673440d862a81565b7f97667070c54ef182b0f5858b034beac1b6f3089aa2d3188bb1e8929f4fa9b92981565b60007f01ffc9a7000000000000000000000000000000000000000000000000000000007bffffffffffffffffffffffffffffffffffffffffffffffffffffffff1916827bffffffffffffffffffffffffffffffffffffffffffffffffffffffff1916149050919050565b600260015403611128576040517f3ee5aeb500000000000000000000000000000000000000000000000000000000815260040160405180910390fd5b6002600181905550565b61113a610b6a565b15611171576040517fd93c066500000000000000000000000000000000000000000000000000000000815260040160405180910390fd5b565b60018081905550565b61118d81611188611281565b611441565b50565b600061119c8383610bda565b61127657600160008085815260200190815260200160002060000160008473ffffffffffffffffffffffffffffffffffffffff1673ffffffffffffffffffffffffffffffffffffffff16815260200190815260200160002060006101000a81548160ff021916908315150217905550611213611281565b73ffffffffffffffffffffffffffffffffffffffff168273ffffffffffffffffffffffffffffffffffffffff16847f2f8788117e7eff1d82e926ec794901d17c78024a50270940304540a733656f0d60405160405180910390a46001905061127b565b600090505b92915050565b600033905090565b60006112958383610bda565b1561137057600080600085815260200190815260200160002060000160008473ffffffffffffffffffffffffffffffffffffffff1673ffffffffffffffffffffffffffffffffffffffff16815260200190815260200160002060006101000a81548160ff02191690831515021790555061130d611281565b73ffffffffffffffffffffffffffffffffffffffff168273ffffffffffffffffffffffffffffffffffffffff16847ff6391f5c32d9c69d2a47ea670b442974b53935d1edc7fd64eb21e047a839171b60405160405180910390a460019050611375565b600090505b92915050565b611383611492565b6000600260006101000a81548160ff0219169083151502179055507f5db9ee0a495bf2e6ff9c91a7834c1ba4fdd244a5e8aa4e537bd38aeae4b073aa6113c7611281565b6040516113d49190611ea3565b60405180910390a1565b6113e6611132565b6001600260006101000a81548160ff0219169083151502179055507f62e78cea01bee320cd4e420270b5ea74000d11b0c9f74754ebdbfc544b05a25861142a611281565b6040516114379190611ea3565b60405180910390a1565b61144b8282610bda565b61148e5780826040517fe2517d3f000000000000000000000000000000000000000000000000000000008152600401611485929190611ebe565b60405180910390fd5b5050565b61149a610b6a565b6114d0576040517f8dfc202b00000000000000000000000000000000000000000000000000000000815260040160405180910390fd5b565b600080fd5b600080fd5b60007fffffffff0000000000000000000000000000000000000000000000000000000082169050919050565b611511816114dc565b811461151c57600080fd5b50565b60008135905061152e81611508565b92915050565b60006020828403121561154a576115496114d2565b5b60006115588482850161151f565b91505092915050565b60008115159050919050565b61157681611561565b82525050565b6000602082019050611591600083018461156d565b92915050565b6000819050919050565b6115aa81611597565b81146115b557600080fd5b50565b6000813590506115c7816115a1565b92915050565b600073ffffffffffffffffffffffffffffffffffffffff82169050919050565b60006115f8826115cd565b9050919050565b611608816115ed565b811461161357600080fd5b50565b600081359050611625816115ff565b92915050565b60008060408385031215611642576116416114d2565b5b6000611650858286016115b8565b925050602061166185828601611616565b9150509250929050565b6000819050919050565b61167e8161166b565b811461168957600080fd5b50565b60008135905061169b81611675565b92915050565b6000602082840312156116b7576116b66114d2565b5b60006116c58482850161168c565b91505092915050565b6116d78161166b565b82525050565b60006020820190506116f260008301846116ce565b92915050565b6000806040838503121561170f5761170e6114d2565b5b600061171d8582860161168c565b925050602061172e85828601611616565b9150509250929050565b6000819050919050565b600061175d611758611753846115cd565b611738565b6115cd565b9050919050565b600061176f82611742565b9050919050565b600061178182611764565b9050919050565b61179181611776565b82525050565b60006020820190506117ac6000830184611788565b92915050565b600080fd5b600080fd5b600080fd5b60008083601f8401126117d7576117d66117b2565b5b8235905067ffffffffffffffff8111156117f4576117f36117b7565b5b6020830191508360208202830111156118105761180f6117bc565b5b9250929050565b600080600080600060808688031215611833576118326114d2565b5b60006118418882890161168c565b955050602061185288828901611616565b9450506040611863888289016115b8565b935050606086013567ffffffffffffffff811115611884576118836114d7565b5b611890888289016117c1565b92509250509295509295909350565b6000602082840312156118b5576118b46114d2565b5b60006118c3848285016115b8565b91505092915050565b60006118d782611764565b9050919050565b6118e7816118cc565b82525050565b600060208201905061190260008301846118de565b92915050565b600082825260208201905092915050565b7f546f6b656e20616c726561647920627269646765640000000000000000000000600082015250565b600061194f601583611908565b915061195a82611919565b602082019050919050565b6000602082019050818103600083015261197e81611942565b9050919050565b7f496e76616c696420726563697069656e74000000000000000000000000000000600082015250565b60006119bb601183611908565b91506119c682611985565b602082019050919050565b600060208201905081810360008301526119ea816119ae565b9050919050565b6119fa81611597565b82525050565b6000602082019050611a1560008301846119f1565b92915050565b600081519050611a2a816115ff565b92915050565b600060208284031215611a4657611a456114d2565b5b6000611a5484828501611a1b565b91505092915050565b7f4e6f7420746f6b656e206f776e65720000000000000000000000000000000000600082015250565b6000611a93600f83611908565b9150611a9e82611a5d565b602082019050919050565b60006020820190508181036000830152611ac281611a86565b9050919050565b7f427269646765206e6f7420617070726f76656400000000000000000000000000600082015250565b6000611aff601383611908565b9150611b0a82611ac9565b602082019050919050565b60006020820190508181036000830152611b2e81611af2565b9050919050565b611b3e816115ed565b82525050565b6000606082019050611b596000830186611b35565b611b666020830185611b35565b611b7360408301846119f1565b949350505050565b6000819050919050565b6000611ba0611b9b611b9684611b7b565b611738565b611597565b9050919050565b611bb081611b85565b82525050565b600060c082019050611bcb6000830189611b35565b611bd86020830188611b35565b611be560408301876119f1565b611bf260608301866119f1565b611bff60808301856119f1565b611c0c60a0830184611ba7565b979650505050505050565b600081519050611c2681611675565b92915050565b600060208284031215611c4257611c416114d2565b5b6000611c5084828501611c17565b91505092915050565b600082825260208201905092915050565b600080fd5b82818337505050565b6000611c848385611c59565b93507f07ffffffffffffffffffffffffffffffffffffffffffffffffffffffffffffff831115611cb757611cb6611c6a565b5b602083029250611cc8838584611c6f565b82840190509392505050565b6000604082019050611ce96000830186611b35565b8181036020830152611cfc818486611c78565b9050949350505050565b611d0f81611561565b8114611d1a57600080fd5b50565b600081519050611d2c81611d06565b92915050565b600060208284031215611d4857611d476114d2565b5b6000611d5684828501611d1d565b91505092915050565b7f496e76616c69642072656c617965720000000000000000000000000000000000600082015250565b6000611d95600f83611908565b9150611da082611d5f565b602082019050919050565b60006020820190508181036000830152611dc481611d88565b9050919050565b7f5265717565737420616c72656164792070726f63657373656400000000000000600082015250565b6000611e01601983611908565b9150611e0c82611dcb565b602082019050919050565b60006020820190508181036000830152611e3081611df4565b9050919050565b7f546f6b656e206e6f742062726964676564000000000000000000000000000000600082015250565b6000611e6d601183611908565b9150611e7882611e37565b602082019050919050565b60006020820190508181036000830152611e9c81611e60565b9050919050565b6000602082019050611eb86000830184611b35565b92915050565b6000604082019050611ed36000830185611b35565b611ee060208301846116ce565b939250505056fea2646970667358221220cadefc5d442981e55a1b57cdf16c9af197a6d053e6ecc2b89eb4d033387a905864736f6c63430008140033",
  "linkReferences": {},
  "deployedLinkReferences": {}
}