{
  "_format": "hh-sol-artifact-1",
  "contractName": "TestNFTs",
  "sourceName": "contracts/TestNFTs.sol",
  "abi": [
    {
      "inputs": [],
      "stateMutability": "nonpayable",
      "type": "constructor"
    },
    {
      "inputs": [
        {
          "internalType": "address",
          "name": "sender",
          "type": "address"
        },
        {
          "internalType": "uint256",
          "name": "tokenId",
          "type": "uint256"
        },
        {
          "internalType": "address",
          "name": "owner",
          "type": "address"
        }
      ],
      "name": "ERC721IncorrectOwner",
      "type": "error"
    },
    {
      "inputs": [
        {
          "internalType": "address",
          "name": "operator",
          "type": "address"
        },
        {
          "internalType": "uint256",
          "name": "tokenId",
          "type": "uint256"
        }
      ],
      "name": "ERC721InsufficientApproval",
      "type": "error"
    },
    {
      "inputs": [
        {
          "internalType": "address",
          "name": "approver",
          "type": "address"
        }
      ],
      "name": "ERC721InvalidApprover",
      "type": "error"
    },
    {
      "inputs": [
        {
          "internalType": "address",
          "name": "operator",
          "type": "address"
        }
      ],
      "name": "ERC721InvalidOperator",
      "type": "error"
    },
    {
      "inputs": [
        {
          "internalType": "address",
          "name": "owner",
          "type": "address"
        }
      ],
      "name": "ERC721InvalidOwner",
      "type": "error"
    },
    {
      "inputs": [
        {
          "internalType": "address",
          "name": "receiver",
          "type": "address"
        }
      ],
      "name": "ERC721InvalidReceiver",
      "type": "error"
    },
    {
      "inputs": [
        {
          "internalType": "address",
          "name": "sender",
          "type": "address"
        }
      ],
      "name": "ERC721InvalidSender",
      "type": "error"
    },
    {
      "inputs": [
        {
          "internalType": "uint256",
          "name": "tokenId",
          "type": "uint256"
        }
      ],
      "name": "ERC721NonexistentToken",
      "type": "error"
    },
    {
      "inputs": [
        {
          "internalType": "address",
          "name": "owner",
          "type": "address"
        }
      ],
      "name": "OwnableInvalidOwner",
      "type": "error"
    },
    {
      "inputs": [
        {
          "internalType": "address",
          "name": "account",
          "type": "address"
        }
      ],
      "name": "OwnableUnauthorizedAccount",
      "type": "error"
    },
    {
      "anonymous": false,
      "inputs": [
        {
          "indexed": true,
          "internalType": "address",
          "name": "owner",
          "type": "address"
        },
        {
          "indexed": true,
          "internalType": "address",
          "name": "approved",
          "type": "address"
        },
        {
          "indexed": true,
          "internalType": "uint256",
          "name": "tokenId",
          "type": "uint256"
        }
      ],
      "name": "Approval",
      "type": "event"
    },
    {
      "anonymous": false,
      "inputs": [
        {
          "indexed": true,
          "internalType": "address",
          "name": "owner",
          "type": "address"
        },
        {
          "indexed": true,
          "internalType": "address",
          "name": "operator",
          "type": "address"
        },
        {
          "indexed": false,
          "internalType": "bool",
          "name": "approved",
          "type": "bool"
        }
      ],
      "name": "ApprovalForAll",
      "type": "event"
    },
    {
      "anonymous": false,
      "inputs": [
        {
          "indexed": false,
          "internalType": "uint256",
          "name": "_fromTokenId",
          "type": "uint256"
        },
        {
          "indexed": false,
          "internalType": "uint256",
          "name": "_toTokenId",
          "type": "uint256"
        }
      ],
      "name": "BatchMetadataUpdate",
      "type": "event"
    },
    {
      "anonymous": false,
      "inputs": [
        {
          "indexed": false,
          "internalType": "uint256",
          "name": "_tokenId",
          "type": "uint256"
        }
      ],
      "name": "MetadataUpdate",
      "type": "event"
    },
    {
      "anonymous": false,
      "inputs": [
        {
          "indexed": true,
          "internalType": "address",
          "name": "previousOwner",
          "type": "address"
        },
        {
          "indexed": true,
          "internalType": "address",
          "name": "newOwner",
          "type": "address"
        }
      ],
      "name": "OwnershipTransferred",
      "type": "event"
    },
    {
      "anonymous": false,
      "inputs": [
        {
          "indexed": true,
          "internalType": "address",
          "name": "from",
          "type": "address"
        },
        {
          "indexed": true,
          "internalType": "address",
          "name": "to",
          "type": "address"
        },
        {
          "indexed": true,
          "internalType": "uint256",
          "name": "tokenId",
          "type": "uint256"
        }
      ],
      "name": "Transfer",
      "type": "event"
    },
    {
      "inputs": [
        {
          "internalType": "address",
          "name": "to",
          "type": "address"
        },
        {
          "internalType": "uint256",
          "name": "tokenId",
          "type": "uint256"
        }
      ],
      "name": "approve",
      "outputs": [],
      "stateMutability": "nonpayable",
      "type": "function"
    },
    {
      "inputs": [
        {
          "internalType": "address",
          "name": "owner",
          "type": "address"
        }
      ],
      "name": "balanceOf",
      "outputs": [
        {
          "internalType": "uint256",
          "name": "",
          "type": "uint256"
        }
      ],
      "stateMutability": "view",
      "type": "function"
    },
    {
      "inputs": [
        {
          "internalType": "uint256",
          "name": "tokenId",
          "type": "uint256"
        }
      ],
      "name": "getApproved",
      "outputs": [
        {
          "internalType": "address",
          "name": "",
          "type": "address"
        }
      ],
      "stateMutability": "view",
      "type": "function"
    },
    {
      "inputs": [
        {
          "internalType": "address",
          "name": "owner",
          "type": "address"
        },
        {
          "internalType": "address",
          "name": "operator",
          "type": "address"
        }
      ],
      "name": "isApprovedForAll",
      "outputs": [
        {
          "internalType": "bool",
          "name": "",
          "type": "bool"
        }
      ],
      "stateMutability": "view",
      "type": "function"
    },
    {
      "inputs": [],
      "name": "name",
      "outputs": [
        {
          "internalType": "string",
          "name": "",
          "type": "string"
        }
      ],
      "stateMutability": "view",
      "type": "function"
    },
    {
      "inputs": [],
      "name": "owner",
      "outputs": [
        {
          "internalType": "address",
          "name": "",
          "type": "address"
        }
      ],
      "stateMutability": "view",
      "type": "function"
    },
    {
      "inputs": [
        {
          "internalType": "uint256",
          "name": "tokenId",
          "type": "uint256"
        }
      ],
      "name": "ownerOf",
      "outputs": [
        {
          "internalType": "address",
          "name": "",
          "type": "address"
        }
      ],
      "stateMutability": "view",
      "type": "function"
    },
    {
      "inputs": [],
      "name": "renounceOwnership",
      "outputs": [],
      "stateMutability": "nonpayable",
      "type": "function"
    },
    {
      "inputs": [
        {
          "internalType": "address",
          "name": "to",
          "type": "address"
        },
        {
          "internalType": "string",
          "name": "uri",
          "type": "string"
        }
      ],
      "name": "safeMint",
      "outputs": [
        {
          "internalType": "uint256",
          "name": "",
          "type": "uint256"
        }
      ],
      "stateMutability": "nonpayable",
      "type": "function"
    },
    {
      "inputs": [
        {
          "internalType": "address",
          "name": "from",
          "type": "address"
        },
        {
          "internalType": "address",
          "name": "to",
          "type": "address"
        },
        {
          "internalType": "uint256",
          "name": "tokenId",
          "type": "uint256"
        }
      ],
      "name": "safeTransferFrom",
      "outputs": [],
      "stateMutability": "nonpayable",
      "type": "function"
    },
    {
      "inputs": [
        {
          "internalType": "address",
          "name": "from",
          "type": "address"
        },
        {
          "internalType": "address",
          "name": "to",
          "type": "address"
        },
        {
          "internalType": "uint256",
          "name": "tokenId",
          "type": "uint256"
        },
        {
          "internalType": "bytes",
          "name": "data",
          "type": "bytes"
        }
      ],
      "name": "safeTransferFrom",
      "outputs": [],
      "stateMutability": "nonpayable",
      "type": "function"
    },
    {
      "inputs": [
        {
          "internalType": "address",
          "name": "operator",
          "type": "address"
        },
        {
          "internalType": "bool",
          "name": "approved",
          "type": "bool"
        }
      ],
      "name": "setApprovalForAll",
      "outputs": [],
      "stateMutability": "nonpayable",
      "type": "function"
    },
    {
      "inputs": [
        {
          "internalType": "string",
          "name": "baseURI",
          "type": "string"
        }
      ],
      "name": "setBaseURI",
      "outputs": [],
      "stateMutability": "nonpayable",
      "type": "function"
    },
    {
      "inputs": [
        {
          "internalType": "bytes4",
          "name": "interfaceId",
          "type": "bytes4"
        }
      ],
      "name": "supportsInterface",
      "outputs": [
        {
          "internalType": "bool",
          "name": "",
          "type": "bool"
        }
      ],
      "stateMutability": "view",
      "type": "function"
    },
    {
      "inputs": [],
      "name": "symbol",
      "outputs": [
        {
          "internalType": "string",
          "name": "",
          "type": "string"
        }
      ],
      "stateMutability": "view",
      "type": "function"
    },
    {
      "inputs": [
        {
          "internalType": "uint256",
          "name": "tokenId",
          "type": "uint256"
        }
      ],
      "name": "tokenURI",
      "outputs": [
        {
          "internalType": "string",
          "name": "",
          "type": "string"
        }
      ],
      "stateMutability": "view",
      "type": "function"
    },
    {
      "inputs": [
        {
          "internalType": "address",
          "name": "from",
          "type": "address"
        },
        {
          "internalType": "address",
          "name": "to",
          "type": "address"
        },
        {
          "internalType": "uint256",
          "name": "tokenId",
          "type": "uint256"
        }
      ],
      "name": "transferFrom",
      "outputs": [],
      "stateMutability": "nonpayable",
      "type": "function"
    },
    {
      "inputs": [
        {
          "internalType": "address",
          "name": "newOwner",
          "type": "address"
        }
      ],
      "name": "transferOwnership",
      "outputs": [],
      "stateMutability": "nonpayable",
      "type": "function"
    }
  ],
  "bytecode": "0x60806040523480156200001157600080fd5b50336040518060400160405280600981526020017f54657374204e46547300000000000000000000000000000000000000000000008152506040518060400160405280600481526020017f544e46540000000000000000000000000000000000000000000000000000000081525081600090816200009091906200133c565b508060019081620000a291906200133c565b505050600073ffffffffffffffffffffffffffffffffffffffff168173ffffffffffffffffffffffffffffffffffffffff16036200011a5760006040517f1e4fbdf700000000000000000000000000000000000000000000000000000000815260040162000111919062001468565b60405180910390fd5b6200012b816200019a60201b60201c565b5060005b600381101562000193576200017c336200014f836200026060201b60201c565b60405160200162000161919062001543565b6040516020818303038152906040526200033f60201b60201c565b5080806200018a9062001598565b9150506200012f565b50620017c5565b6000600760009054906101000a900473ffffffffffffffffffffffffffffffffffffffff16905081600760006101000a81548173ffffffffffffffffffffffffffffffffffffffff021916908373ffffffffffffffffffffffffffffffffffffffff1602179055508173ffffffffffffffffffffffffffffffffffffffff168173ffffffffffffffffffffffffffffffffffffffff167f8be0079c531659141344cd1fd0a4f28419497f9722a3daafe3b4186f6b6457e060405160405180910390a35050565b6060600060016200027784620003a060201b60201c565b01905060008167ffffffffffffffff811115620002995762000298620010cd565b5b6040519080825280601f01601f191660200182016040528015620002cc5781602001600182028036833780820191505090505b509050600082602001820190505b60011562000334578080600190039150507f3031323334353637383961626364656600000000000000000000000000000000600a86061a8153600a8581620003275762000326620015e5565b5b04945060008503620002da575b819350505050919050565b6000620003516200050c60201b60201c565b60086000815480929190620003669062001598565b919050555060006008549050620003848482620005ae60201b60201c565b620003968184620005d460201b60201c565b8091505092915050565b600080600090507a184f03e93ff9f4daa797ed6e38ed64bf6a1f010000000000000000831062000402577a184f03e93ff9f4daa797ed6e38ed64bf6a1f0100000000000000008381620003f857620003f7620015e5565b5b0492506040810190505b6d04ee2d6d415b85acef8100000000831062000443576d04ee2d6d415b85acef81000000008381620004395762000438620015e5565b5b0492506020810190505b662386f26fc1000083106200047657662386f26fc1000083816200046c576200046b620015e5565b5b0492506010810190505b6305f5e1008310620004a3576305f5e1008381620004995762000498620015e5565b5b0492506008810190505b6127108310620004cc576127108381620004c257620004c1620015e5565b5b0492506004810190505b60648310620004f35760648381620004e957620004e8620015e5565b5b0492506002810190505b600a831062000503576001810190505b80915050919050565b6200051c6200063460201b60201c565b73ffffffffffffffffffffffffffffffffffffffff16620005426200063c60201b60201c565b73ffffffffffffffffffffffffffffffffffffffff1614620005ac576200056e6200063460201b60201c565b6040517f118cdaa7000000000000000000000000000000000000000000000000000000008152600401620005a3919062001468565b60405180910390fd5b565b620005d08282604051806020016040528060008152506200066660201b60201c565b5050565b80600660008481526020019081526020016000209081620005f691906200133c565b507ff8e1a15aba9398e019f0b49df1a4fde98ee17ae345cb5f6b5e2c27f5033e8ce78260405162000628919062001625565b60405180910390a15050565b600033905090565b6000600760009054906101000a900473ffffffffffffffffffffffffffffffffffffffff16905090565b620006788383620006a260201b60201c565b6200069d6200068c6200063460201b60201c565b6000858585620007a960201b60201c565b505050565b600073ffffffffffffffffffffffffffffffffffffffff168273ffffffffffffffffffffffffffffffffffffffff1603620007175760006040517f64a0ae920000000000000000000000000000000000000000000000000000000081526004016200070e919062001468565b60405180910390fd5b60006200072d838360006200096960201b60201c565b9050600073ffffffffffffffffffffffffffffffffffffffff168173ffffffffffffffffffffffffffffffffffffffff1614620007a45760006040517f73c6ac6e0000000000000000000000000000000000000000000000000000000081526004016200079b919062001468565b60405180910390fd5b505050565b60008373ffffffffffffffffffffffffffffffffffffffff163b111562000962578273ffffffffffffffffffffffffffffffffffffffff1663150b7a02868685856040518563ffffffff1660e01b81526004016200080b9493929190620016b0565b6020604051808303816000875af19250505080156200084a57506040513d601f19601f8201168201806040525081019062000847919062001766565b60015b620008d4573d80600081146200087d576040519150601f19603f3d011682016040523d82523d6000602084013e62000882565b606091505b506000815103620008cc57836040517f64a0ae92000000000000000000000000000000000000000000000000000000008152600401620008c3919062001468565b60405180910390fd5b805181602001fd5b63150b7a0260e01b7bffffffffffffffffffffffffffffffffffffffffffffffffffffffff1916817bffffffffffffffffffffffffffffffffffffffffffffffffffffffff1916146200096057836040517f64a0ae9200000000000000000000000000000000000000000000000000000000815260040162000957919062001468565b60405180910390fd5b505b5050505050565b6000806200097d8462000b9e60201b60201c565b9050600073ffffffffffffffffffffffffffffffffffffffff168373ffffffffffffffffffffffffffffffffffffffff1614620009c857620009c781848662000bdb60201b60201c565b5b600073ffffffffffffffffffffffffffffffffffffffff168173ffffffffffffffffffffffffffffffffffffffff161462000a625762000a1360008560008062000cad60201b60201c565b6001600360008373ffffffffffffffffffffffffffffffffffffffff1673ffffffffffffffffffffffffffffffffffffffff168152602001908152602001600020600082825403925050819055505b600073ffffffffffffffffffffffffffffffffffffffff168573ffffffffffffffffffffffffffffffffffffffff161462000ae6576001600360008773ffffffffffffffffffffffffffffffffffffffff1673ffffffffffffffffffffffffffffffffffffffff168152602001908152602001600020600082825401925050819055505b846002600086815260200190815260200160002060006101000a81548173ffffffffffffffffffffffffffffffffffffffff021916908373ffffffffffffffffffffffffffffffffffffffff160217905550838573ffffffffffffffffffffffffffffffffffffffff168273ffffffffffffffffffffffffffffffffffffffff167fddf252ad1be2c89b69c2b068fc378daa952ba7f163c4a11628f55a4df523b3ef60405160405180910390a4809150509392505050565b60006002600083815260200190815260200160002060009054906101000a900473ffffffffffffffffffffffffffffffffffffffff169050919050565b62000bee83838362000e8a60201b60201c565b62000ca857600073ffffffffffffffffffffffffffffffffffffffff168373ffffffffffffffffffffffffffffffffffffffff160362000c6757806040517f7e27328900000000000000000000000000000000000000000000000000000000815260040162000c5e919062001625565b60405180910390fd5b81816040517f177e802f00000000000000000000000000000000000000000000000000000000815260040162000c9f92919062001798565b60405180910390fd5b505050565b808062000ce75750600073ffffffffffffffffffffffffffffffffffffffff168273ffffffffffffffffffffffffffffffffffffffff1614155b1562000e3257600062000d008462000f5e60201b60201c565b9050600073ffffffffffffffffffffffffffffffffffffffff168373ffffffffffffffffffffffffffffffffffffffff161415801562000d6c57508273ffffffffffffffffffffffffffffffffffffffff168173ffffffffffffffffffffffffffffffffffffffff1614155b801562000d88575062000d86818462000ff160201b60201c565b155b1562000dcd57826040517fa9fbf51f00000000000000000000000000000000000000000000000000000000815260040162000dc4919062001468565b60405180910390fd5b811562000e3057838573ffffffffffffffffffffffffffffffffffffffff168273ffffffffffffffffffffffffffffffffffffffff167f8c5be1e5ebec7d5bd14f71427d1e84f3dd0314c0f7b2291e5b200ac8c7c3b92560405160405180910390a45b505b836004600085815260200190815260200160002060006101000a81548173ffffffffffffffffffffffffffffffffffffffff021916908373ffffffffffffffffffffffffffffffffffffffff16021790555050505050565b60008073ffffffffffffffffffffffffffffffffffffffff168373ffffffffffffffffffffffffffffffffffffffff161415801562000f5557508273ffffffffffffffffffffffffffffffffffffffff168473ffffffffffffffffffffffffffffffffffffffff16148062000f0d575062000f0c848462000ff160201b60201c565b5b8062000f5457508273ffffffffffffffffffffffffffffffffffffffff1662000f3c836200108560201b60201c565b73ffffffffffffffffffffffffffffffffffffffff16145b5b90509392505050565b60008062000f728362000b9e60201b60201c565b9050600073ffffffffffffffffffffffffffffffffffffffff168173ffffffffffffffffffffffffffffffffffffffff160362000fe857826040517f7e27328900000000000000000000000000000000000000000000000000000000815260040162000fdf919062001625565b60405180910390fd5b80915050919050565b6000600560008473ffffffffffffffffffffffffffffffffffffffff1673ffffffffffffffffffffffffffffffffffffffff16815260200190815260200160002060008373ffffffffffffffffffffffffffffffffffffffff1673ffffffffffffffffffffffffffffffffffffffff16815260200190815260200160002060009054906101000a900460ff16905092915050565b60006004600083815260200190815260200160002060009054906101000a900473ffffffffffffffffffffffffffffffffffffffff169050919050565b600081519050919050565b7f4e487b7100000000000000000000000000000000000000000000000000000000600052604160045260246000fd5b7f4e487b7100000000000000000000000000000000000000000000000000000000600052602260045260246000fd5b600060028204905060018216806200114457607f821691505b6020821081036200115a5762001159620010fc565b5b50919050565b60008190508160005260206000209050919050565b60006020601f8301049050919050565b600082821b905092915050565b600060088302620011c47fffffffffffffffffffffffffffffffffffffffffffffffffffffffffffffffff8262001185565b620011d0868362001185565b95508019841693508086168417925050509392505050565b6000819050919050565b6000819050919050565b60006200121d620012176200121184620011e8565b620011f2565b620011e8565b9050919050565b6000819050919050565b6200123983620011fc565b62001251620012488262001224565b84845462001192565b825550505050565b600090565b6200126862001259565b620012758184846200122e565b505050565b5b818110156200129d57620012916000826200125e565b6001810190506200127b565b5050565b601f821115620012ec57620012b68162001160565b620012c18462001175565b81016020851015620012d1578190505b620012e9620012e08562001175565b8301826200127a565b50505b505050565b600082821c905092915050565b60006200131160001984600802620012f1565b1980831691505092915050565b60006200132c8383620012fe565b9150826002028217905092915050565b6200134782620010c2565b67ffffffffffffffff811115620013635762001362620010cd565b5b6200136f82546200112b565b6200137c828285620012a1565b600060209050601f831160018114620013b457600084156200139f578287015190505b620013ab85826200131e565b8655506200141b565b601f198416620013c48662001160565b60005b82811015620013ee57848901518255600182019150602085019450602081019050620013c7565b868310156200140e57848901516200140a601f891682620012fe565b8355505b6001600288020188555050505b505050505050565b600073ffffffffffffffffffffffffffffffffffffffff82169050919050565b6000620014508262001423565b9050919050565b620014628162001443565b82525050565b60006020820190506200147f600083018462001457565b92915050565b600081905092915050565b7f697066733a2f2f516d546573742f000000000000000000000000000000000000600082015250565b6000620014c8600e8362001485565b9150620014d58262001490565b600e82019050919050565b60005b8381101562001500578082015181840152602081019050620014e3565b60008484015250505050565b60006200151982620010c2565b62001525818562001485565b935062001537818560208601620014e0565b80840191505092915050565b60006200155082620014b9565b91506200155e82846200150c565b915081905092915050565b7f4e487b7100000000000000000000000000000000000000000000000000000000600052601160045260246000fd5b6000620015a582620011e8565b91507fffffffffffffffffffffffffffffffffffffffffffffffffffffffffffffffff8203620015da57620015d962001569565b5b600182019050919050565b7f4e487b7100000000000000000000000000000000000000000000000000000000600052601260045260246000fd5b6200161f81620011e8565b82525050565b60006020820190506200163c600083018462001614565b92915050565b600081519050919050565b600082825260208201905092915050565b6000601f19601f8301169050919050565b60006200167c8262001642565b6200168881856200164d565b93506200169a818560208601620014e0565b620016a5816200165e565b840191505092915050565b6000608082019050620016c7600083018762001457565b620016d6602083018662001457565b620016e5604083018562001614565b8181036060830152620016f981846200166f565b905095945050505050565b600080fd5b60007fffffffff0000000000000000000000000000000000000000000000000000000082169050919050565b620017408162001709565b81146200174c57600080fd5b50565b600081519050620017608162001735565b92915050565b6000602082840312156200177f576200177e62001704565b5b60006200178f848285016200174f565b91505092915050565b6000604082019050620017af600083018562001457565b620017be602083018462001614565b9392505050565b6127ad80620017d56000396000f3fe608060405234801561001057600080fd5b50600436106101165760003560e01c8063715018a6116100a2578063b88d4fde11610071578063b88d4fde146102cb578063c87b56dd146102e7578063d204c45e14610317578063e985e9c514610347578063f2fde38b1461037757610116565b8063715018a6146102695780638da5cb5b1461027357806395d89b4114610291578063a22cb465146102af57610116565b806323b872dd116100e957806323b872dd146101b557806342842e0e146101d157806355f804b3146101ed5780636352211e1461020957806370a082311461023957610116565b806301ffc9a71461011b57806306fdde031461014b578063081812fc14610169578063095ea7b314610199575b600080fd5b61013560048036038101906101309190611bbc565b610393565b6040516101429190611c04565b60405180910390f35b6101536103a5565b6040516101609190611caf565b60405180910390f35b610183600480360381019061017e9190611d07565b610437565b6040516101909190611d75565b60405180910390f35b6101b360048036038101906101ae9190611dbc565b610453565b005b6101cf60048036038101906101ca9190611dfc565b610469565b005b6101eb60048036038101906101e69190611dfc565b61056b565b005b61020760048036038101906102029190611f84565b61058b565b005b610223600480360381019061021e9190611d07565b6105a6565b6040516102309190611d75565b60405180910390f35b610253600480360381019061024e9190611fcd565b6105b8565b6040516102609190612009565b60405180910390f35b610271610672565b005b61027b610686565b6040516102889190611d75565b60405180910390f35b6102996106b0565b6040516102a69190611caf565b60405180910390f35b6102c960048036038101906102c49190612050565b610742565b005b6102e560048036038101906102e09190612131565b610758565b005b61030160048036038101906102fc9190611d07565b61077d565b60405161030e9190611caf565b60405180910390f35b610331600480360381019061032c91906121b4565b61078f565b60405161033e9190612009565b60405180910390f35b610361600480360381019061035c9190612210565b6107d6565b60405161036e9190611c04565b60405180910390f35b610391600480360381019061038c9190611fcd565b61086a565b005b600061039e826108f0565b9050919050565b6060600080546103b49061227f565b80601f01602080910402602001604051908101604052809291908181526020018280546103e09061227f565b801561042d5780601f106104025761010080835404028352916020019161042d565b820191906000526020600020905b81548152906001019060200180831161041057829003601f168201915b5050505050905090565b600061044282610951565b5061044c826109d9565b9050919050565b6104658282610460610a16565b610a1e565b5050565b600073ffffffffffffffffffffffffffffffffffffffff168273ffffffffffffffffffffffffffffffffffffffff16036104db5760006040517f64a0ae920000000000000000000000000000000000000000000000000000000081526004016104d29190611d75565b60405180910390fd5b60006104ef83836104ea610a16565b610a30565b90508373ffffffffffffffffffffffffffffffffffffffff168173ffffffffffffffffffffffffffffffffffffffff1614610565578382826040517f64283d7b00000000000000000000000000000000000000000000000000000000815260040161055c939291906122b0565b60405180910390fd5b50505050565b61058683838360405180602001604052806000815250610758565b505050565b610593610c4a565b80600990816105a29190612493565b5050565b60006105b182610951565b9050919050565b60008073ffffffffffffffffffffffffffffffffffffffff168273ffffffffffffffffffffffffffffffffffffffff160361062b5760006040517f89c62b640000000000000000000000000000000000000000000000000000000081526004016106229190611d75565b60405180910390fd5b600360008373ffffffffffffffffffffffffffffffffffffffff1673ffffffffffffffffffffffffffffffffffffffff168152602001908152602001600020549050919050565b61067a610c4a565b6106846000610cd1565b565b6000600760009054906101000a900473ffffffffffffffffffffffffffffffffffffffff16905090565b6060600180546106bf9061227f565b80601f01602080910402602001604051908101604052809291908181526020018280546106eb9061227f565b80156107385780601f1061070d57610100808354040283529160200191610738565b820191906000526020600020905b81548152906001019060200180831161071b57829003601f168201915b5050505050905090565b61075461074d610a16565b8383610d97565b5050565b610763848484610469565b61077761076e610a16565b85858585610f06565b50505050565b6060610788826110b7565b9050919050565b6000610799610c4a565b600860008154809291906107ac90612594565b9190505550600060085490506107c284826111ca565b6107cc81846111e8565b8091505092915050565b6000600560008473ffffffffffffffffffffffffffffffffffffffff1673ffffffffffffffffffffffffffffffffffffffff16815260200190815260200160002060008373ffffffffffffffffffffffffffffffffffffffff1673ffffffffffffffffffffffffffffffffffffffff16815260200190815260200160002060009054906101000a900460ff16905092915050565b610872610c4a565b600073ffffffffffffffffffffffffffffffffffffffff168173ffffffffffffffffffffffffffffffffffffffff16036108e45760006040517f1e4fbdf70000000000000000000000000000000000000000000000000000000081526004016108db9190611d75565b60405180910390fd5b6108ed81610cd1565b50565b6000634906490660e01b7bffffffffffffffffffffffffffffffffffffffffffffffffffffffff1916827bffffffffffffffffffffffffffffffffffffffffffffffffffffffff1916148061094a575061094982611244565b5b9050919050565b60008061095d83611326565b9050600073ffffffffffffffffffffffffffffffffffffffff168173ffffffffffffffffffffffffffffffffffffffff16036109d057826040517f7e2732890000000000000000000000000000000000000000000000000000000081526004016109c79190612009565b60405180910390fd5b80915050919050565b60006004600083815260200190815260200160002060009054906101000a900473ffffffffffffffffffffffffffffffffffffffff169050919050565b600033905090565b610a2b8383836001611363565b505050565b600080610a3c84611326565b9050600073ffffffffffffffffffffffffffffffffffffffff168373ffffffffffffffffffffffffffffffffffffffff1614610a7e57610a7d818486611528565b5b600073ffffffffffffffffffffffffffffffffffffffff168173ffffffffffffffffffffffffffffffffffffffff1614610b0f57610ac0600085600080611363565b6001600360008373ffffffffffffffffffffffffffffffffffffffff1673ffffffffffffffffffffffffffffffffffffffff168152602001908152602001600020600082825403925050819055505b600073ffffffffffffffffffffffffffffffffffffffff168573ffffffffffffffffffffffffffffffffffffffff1614610b92576001600360008773ffffffffffffffffffffffffffffffffffffffff1673ffffffffffffffffffffffffffffffffffffffff168152602001908152602001600020600082825401925050819055505b846002600086815260200190815260200160002060006101000a81548173ffffffffffffffffffffffffffffffffffffffff021916908373ffffffffffffffffffffffffffffffffffffffff160217905550838573ffffffffffffffffffffffffffffffffffffffff168273ffffffffffffffffffffffffffffffffffffffff167fddf252ad1be2c89b69c2b068fc378daa952ba7f163c4a11628f55a4df523b3ef60405160405180910390a4809150509392505050565b610c52610a16565b73ffffffffffffffffffffffffffffffffffffffff16610c70610686565b73ffffffffffffffffffffffffffffffffffffffff1614610ccf57610c93610a16565b6040517f118cdaa7000000000000000000000000000000000000000000000000000000008152600401610cc69190611d75565b60405180910390fd5b565b6000600760009054906101000a900473ffffffffffffffffffffffffffffffffffffffff16905081600760006101000a81548173ffffffffffffffffffffffffffffffffffffffff021916908373ffffffffffffffffffffffffffffffffffffffff1602179055508173ffffffffffffffffffffffffffffffffffffffff168173ffffffffffffffffffffffffffffffffffffffff167f8be0079c531659141344cd1fd0a4f28419497f9722a3daafe3b4186f6b6457e060405160405180910390a35050565b600073ffffffffffffffffffffffffffffffffffffffff168273ffffffffffffffffffffffffffffffffffffffff1603610e0857816040517f5b08ba18000000000000000000000000000000000000000000000000000000008152600401610dff9190611d75565b60405180910390fd5b80600560008573ffffffffffffffffffffffffffffffffffffffff1673ffffffffffffffffffffffffffffffffffffffff16815260200190815260200160002060008473ffffffffffffffffffffffffffffffffffffffff1673ffffffffffffffffffffffffffffffffffffffff16815260200190815260200160002060006101000a81548160ff0219169083151502179055508173ffffffffffffffffffffffffffffffffffffffff168373ffffffffffffffffffffffffffffffffffffffff167f17307eab39ab6107e8899845ad3d59bd9653f200f220920489ca2b5937696c3183604051610ef99190611c04565b60405180910390a3505050565b60008373ffffffffffffffffffffffffffffffffffffffff163b11156110b0578273ffffffffffffffffffffffffffffffffffffffff1663150b7a02868685856040518563ffffffff1660e01b8152600401610f659493929190612631565b6020604051808303816000875af1925050508015610fa157506040513d601f19601f82011682018060405250810190610f9e9190612692565b60015b611025573d8060008114610fd1576040519150601f19603f3d011682016040523d82523d6000602084013e610fd6565b606091505b50600081510361101d57836040517f64a0ae920000000000000000000000000000000000000000000000000000000081526004016110149190611d75565b60405180910390fd5b805181602001fd5b63150b7a0260e01b7bffffffffffffffffffffffffffffffffffffffffffffffffffffffff1916817bffffffffffffffffffffffffffffffffffffffffffffffffffffffff1916146110ae57836040517f64a0ae920000000000000000000000000000000000000000000000000000000081526004016110a59190611d75565b60405180910390fd5b505b5050505050565b60606110c282610951565b5060006006600084815260200190815260200160002080546110e39061227f565b80601f016020809104026020016040519081016040528092919081815260200182805461110f9061227f565b801561115c5780601f106111315761010080835404028352916020019161115c565b820191906000526020600020905b81548152906001019060200180831161113f57829003601f168201915b50505050509050600061116d6115ec565b905060008151036111825781925050506111c5565b6000825111156111b757808260405160200161119f9291906126fb565b604051602081830303815290604052925050506111c5565b6111c08461167e565b925050505b919050565b6111e48282604051806020016040528060008152506116e7565b5050565b806006600084815260200190815260200160002090816112089190612493565b507ff8e1a15aba9398e019f0b49df1a4fde98ee17ae345cb5f6b5e2c27f5033e8ce7826040516112389190612009565b60405180910390a15050565b60007f80ac58cd000000000000000000000000000000000000000000000000000000007bffffffffffffffffffffffffffffffffffffffffffffffffffffffff1916827bffffffffffffffffffffffffffffffffffffffffffffffffffffffff1916148061130f57507f5b5e139f000000000000000000000000000000000000000000000000000000007bffffffffffffffffffffffffffffffffffffffffffffffffffffffff1916827bffffffffffffffffffffffffffffffffffffffffffffffffffffffff1916145b8061131f575061131e8261170b565b5b9050919050565b60006002600083815260200190815260200160002060009054906101000a900473ffffffffffffffffffffffffffffffffffffffff169050919050565b808061139c5750600073ffffffffffffffffffffffffffffffffffffffff168273ffffffffffffffffffffffffffffffffffffffff1614155b156114d05760006113ac84610951565b9050600073ffffffffffffffffffffffffffffffffffffffff168373ffffffffffffffffffffffffffffffffffffffff161415801561141757508273ffffffffffffffffffffffffffffffffffffffff168173ffffffffffffffffffffffffffffffffffffffff1614155b801561142a575061142881846107d6565b155b1561146c57826040517fa9fbf51f0000000000000000000000000000000000000000000000000000000081526004016114639190611d75565b60405180910390fd5b81156114ce57838573ffffffffffffffffffffffffffffffffffffffff168273ffffffffffffffffffffffffffffffffffffffff167f8c5be1e5ebec7d5bd14f71427d1e84f3dd0314c0f7b2291e5b200ac8c7c3b92560405160405180910390a45b505b836004600085815260200190815260200160002060006101000a81548173ffffffffffffffffffffffffffffffffffffffff021916908373ffffffffffffffffffffffffffffffffffffffff16021790555050505050565b611533838383611775565b6115e757600073ffffffffffffffffffffffffffffffffffffffff168373ffffffffffffffffffffffffffffffffffffffff16036115a857806040517f7e27328900000000000000000000000000000000000000000000000000000000815260040161159f9190612009565b60405180910390fd5b81816040517f177e802f0000000000000000000000000000000000000000000000000000000081526004016115de92919061271f565b60405180910390fd5b505050565b6060600980546115fb9061227f565b80601f01602080910402602001604051908101604052809291908181526020018280546116279061227f565b80156116745780601f1061164957610100808354040283529160200191611674565b820191906000526020600020905b81548152906001019060200180831161165757829003601f168201915b5050505050905090565b606061168982610951565b5060006116946115ec565b905060008151116116b457604051806020016040528060008152506116df565b806116be84611836565b6040516020016116cf9291906126fb565b6040516020818303038152906040525b915050919050565b6116f18383611904565b6117066116fc610a16565b6000858585610f06565b505050565b60007f01ffc9a7000000000000000000000000000000000000000000000000000000007bffffffffffffffffffffffffffffffffffffffffffffffffffffffff1916827bffffffffffffffffffffffffffffffffffffffffffffffffffffffff1916149050919050565b60008073ffffffffffffffffffffffffffffffffffffffff168373ffffffffffffffffffffffffffffffffffffffff161415801561182d57508273ffffffffffffffffffffffffffffffffffffffff168473ffffffffffffffffffffffffffffffffffffffff1614806117ee57506117ed84846107d6565b5b8061182c57508273ffffffffffffffffffffffffffffffffffffffff16611814836109d9565b73ffffffffffffffffffffffffffffffffffffffff16145b5b90509392505050565b606060006001611845846119fd565b01905060008167ffffffffffffffff81111561186457611863611e59565b5b6040519080825280601f01601f1916602001820160405280156118965781602001600182028036833780820191505090505b509050600082602001820190505b6001156118f9578080600190039150507f3031323334353637383961626364656600000000000000000000000000000000600a86061a8153600a85816118ed576118ec612748565b5b049450600085036118a4575b819350505050919050565b600073ffffffffffffffffffffffffffffffffffffffff168273ffffffffffffffffffffffffffffffffffffffff16036119765760006040517f64a0ae9200000000000000000000000000000000000000000000000000000000815260040161196d9190611d75565b60405180910390fd5b600061198483836000610a30565b9050600073ffffffffffffffffffffffffffffffffffffffff168173ffffffffffffffffffffffffffffffffffffffff16146119f85760006040517f73c6ac6e0000000000000000000000000000000000000000000000000000000081526004016119ef9190611d75565b60405180910390fd5b505050565b600080600090507a184f03e93ff9f4daa797ed6e38ed64bf6a1f0100000000000000008310611a5b577a184f03e93ff9f4daa797ed6e38ed64bf6a1f0100000000000000008381611a5157611a50612748565b5b0492506040810190505b6d04ee2d6d415b85acef81000000008310611a98576d04ee2d6d415b85acef81000000008381611a8e57611a8d612748565b5b0492506020810190505b662386f26fc100008310611ac757662386f26fc100008381611abd57611abc612748565b5b0492506010810190505b6305f5e1008310611af0576305f5e1008381611ae657611ae5612748565b5b0492506008810190505b6127108310611b15576127108381611b0b57611b0a612748565b5b0492506004810190505b60648310611b385760648381611b2e57611b2d612748565b5b0492506002810190505b600a8310611b47576001810190505b80915050919050565b6000604051905090565b600080fd5b600080fd5b60007fffffffff0000000000000000000000000000000000000000000000000000000082169050919050565b611b9981611b64565b8114611ba457600080fd5b50565b600081359050611bb681611b90565b92915050565b600060208284031215611bd257611bd1611b5a565b5b6000611be084828501611ba7565b91505092915050565b60008115159050919050565b611bfe81611be9565b82525050565b6000602082019050611c196000830184611bf5565b92915050565b600081519050919050565b600082825260208201905092915050565b60005b83811015611c59578082015181840152602081019050611c3e565b60008484015250505050565b6000601f19601f8301169050919050565b6000611c8182611c1f565b611c8b8185611c2a565b9350611c9b818560208601611c3b565b611ca481611c65565b840191505092915050565b60006020820190508181036000830152611cc98184611c76565b905092915050565b6000819050919050565b611ce481611cd1565b8114611cef57600080fd5b50565b600081359050611d0181611cdb565b92915050565b600060208284031215611d1d57611d1c611b5a565b5b6000611d2b84828501611cf2565b91505092915050565b600073ffffffffffffffffffffffffffffffffffffffff82169050919050565b6000611d5f82611d34565b9050919050565b611d6f81611d54565b82525050565b6000602082019050611d8a6000830184611d66565b92915050565b611d9981611d54565b8114611da457600080fd5b50565b600081359050611db681611d90565b92915050565b60008060408385031215611dd357611dd2611b5a565b5b6000611de185828601611da7565b9250506020611df285828601611cf2565b9150509250929050565b600080600060608486031215611e1557611e14611b5a565b5b6000611e2386828701611da7565b9350506020611e3486828701611da7565b9250506040611e4586828701611cf2565b9150509250925092565b600080fd5b600080fd5b7f4e487b7100000000000000000000000000000000000000000000000000000000600052604160045260246000fd5b611e9182611c65565b810181811067ffffffffffffffff82111715611eb057611eaf611e59565b5b80604052505050565b6000611ec3611b50565b9050611ecf8282611e88565b919050565b600067ffffffffffffffff821115611eef57611eee611e59565b5b611ef882611c65565b9050602081019050919050565b82818337600083830152505050565b6000611f27611f2284611ed4565b611eb9565b905082815260208101848484011115611f4357611f42611e54565b5b611f4e848285611f05565b509392505050565b600082601f830112611f6b57611f6a611e4f565b5b8135611f7b848260208601611f14565b91505092915050565b600060208284031215611f9a57611f99611b5a565b5b600082013567ffffffffffffffff811115611fb857611fb7611b5f565b5b611fc484828501611f56565b91505092915050565b600060208284031215611fe357611fe2611b5a565b5b6000611ff184828501611da7565b91505092915050565b61200381611cd1565b82525050565b600060208201905061201e6000830184611ffa565b92915050565b61202d81611be9565b811461203857600080fd5b50565b60008135905061204a81612024565b92915050565b6000806040838503121561206757612066611b5a565b5b600061207585828601611da7565b92505060206120868582860161203b565b9150509250929050565b600067ffffffffffffffff8211156120ab576120aa611e59565b5b6120b482611c65565b9050602081019050919050565b60006120d46120cf84612090565b611eb9565b9050828152602081018484840111156120f0576120ef611e54565b5b6120fb848285611f05565b509392505050565b600082601f83011261211857612117611e4f565b5b81356121288482602086016120c1565b91505092915050565b6000806000806080858703121561214b5761214a611b5a565b5b600061215987828801611da7565b945050602061216a87828801611da7565b935050604061217b87828801611cf2565b925050606085013567ffffffffffffffff81111561219c5761219b611b5f565b5b6121a887828801612103565b91505092959194509250565b600080604083850312156121cb576121ca611b5a565b5b60006121d985828601611da7565b925050602083013567ffffffffffffffff8111156121fa576121f9611b5f565b5b61220685828601611f56565b9150509250929050565b6000806040838503121561222757612226611b5a565b5b600061223585828601611da7565b925050602061224685828601611da7565b9150509250929050565b7f4e487b7100000000000000000000000000000000000000000000000000000000600052602260045260246000fd5b6000600282049050600182168061229757607f821691505b6020821081036122aa576122a9612250565b5b50919050565b60006060820190506122c56000830186611d66565b6122d26020830185611ffa565b6122df6040830184611d66565b949350505050565b60008190508160005260206000209050919050565b60006020601f8301049050919050565b600082821b905092915050565b6000600883026123497fffffffffffffffffffffffffffffffffffffffffffffffffffffffffffffffff8261230c565b612353868361230c565b95508019841693508086168417925050509392505050565b6000819050919050565b600061239061238b61238684611cd1565b61236b565b611cd1565b9050919050565b6000819050919050565b6123aa83612375565b6123be6123b682612397565b848454612319565b825550505050565b600090565b6123d36123c6565b6123de8184846123a1565b505050565b5b81811015612402576123f76000826123cb565b6001810190506123e4565b5050565b601f82111561244757612418816122e7565b612421846122fc565b81016020851015612430578190505b61244461243c856122fc565b8301826123e3565b50505b505050565b600082821c905092915050565b600061246a6000198460080261244c565b1980831691505092915050565b60006124838383612459565b9150826002028217905092915050565b61249c82611c1f565b67ffffffffffffffff8111156124b5576124b4611e59565b5b6124bf825461227f565b6124ca828285612406565b600060209050601f8311600181146124fd57600084156124eb578287015190505b6124f58582612477565b86555061255d565b601f19841661250b866122e7565b60005b828110156125335784890151825560018201915060208501945060208101905061250e565b86831015612550578489015161254c601f891682612459565b8355505b6001600288020188555050505b505050505050565b7f4e487b7100000000000000000000000000000000000000000000000000000000600052601160045260246000fd5b600061259f82611cd1565b91507fffffffffffffffffffffffffffffffffffffffffffffffffffffffffffffffff82036125d1576125d0612565565b5b600182019050919050565b600081519050919050565b600082825260208201905092915050565b6000612603826125dc565b61260d81856125e7565b935061261d818560208601611c3b565b61262681611c65565b840191505092915050565b60006080820190506126466000830187611d66565b6126536020830186611d66565b6126606040830185611ffa565b818103606083015261267281846125f8565b905095945050505050565b60008151905061268c81611b90565b92915050565b6000602082840312156126a8576126a7611b5a565b5b60006126b68482850161267d565b91505092915050565b600081905092915050565b60006126d582611c1f565b6126df81856126bf565b93506126ef818560208601611c3b565b80840191505092915050565b600061270782856126ca565b915061271382846126ca565b91508190509392505050565b60006040820190506127346000830185611d66565b6127416020830184611ffa565b9392505050565b7f4e487b7100000000000000000000000000000000000000000000000000000000600052601260045260246000fdfea2646970667358221220e802ad9a6237392ddd1b9dc15684018a959c952c1aabb27bd7ca62c159adca2964736f6c63430008140033",
  "linkReferences": {},
  "deployedLinkReferences": {}
}