{
  "_format": "hh-sol-artifact-1",
  "contractName": "Token",
  "sourceName": "contracts/Token.sol",
  "abi": [
    {
      "inputs": [
        {
          "internalType": "string",
          "name": "name",
          "type": "string"
        },
        {
          "internalType": "string",
          "name": "symbol",
          "type": "string"
        },
        {
          "internalType": "uint256",
          "name": "initialSupply",
          "type": "uint256"
        }
      ],
      "stateMutability": "nonpayable",
      "type": "constructor"
    },
    {
      "inputs": [],
      "name": "AccessControlBadConfirmation",
      "type": "error"
    },
    {
      "inputs": [
        {
          "internalType": "address",
          "name": "account",
          "type": "address"
        },
        {
          "internalType": "bytes32",
          "name": "neededRole",
          "type": "bytes32"
        }
      ],
      "name": "AccessControlUnauthorizedAccount",
      "type": "error"
    },
    {
      "inputs": [
        {
          "internalType": "address",
          "name": "spender",
          "type": "address"
        },
        {
          "internalType": "uint256",
          "name": "allowance",
          "type": "uint256"
        },
        {
          "internalType": "uint256",
          "name": "needed",
          "type": "uint256"
        }
      ],
      "name": "ERC20InsufficientAllowance",
      "type": "error"
    },
    {
      "inputs": [
        {
          "internalType": "address",
          "name": "sender",
          "type": "address"
        },
        {
          "internalType": "uint256",
          "name": "balance",
          "type": "uint256"
        },
        {
          "internalType": "uint256",
          "name": "needed",
          "type": "uint256"
        }
      ],
      "name": "ERC20InsufficientBalance",
      "type": "error"
    },
    {
      "inputs": [
        {
          "internalType": "address",
          "name": "approver",
          "type": "address"
        }
      ],
      "name": "ERC20InvalidApprover",
      "type": "error"
    },
    {
      "inputs": [
        {
          "internalType": "address",
          "name": "receiver",
          "type": "address"
        }
      ],
      "name": "ERC20InvalidReceiver",
      "type": "error"
    },
    {
      "inputs": [
        {
          "internalType": "address",
          "name": "sender",
          "type": "address"
        }
      ],
      "name": "ERC20InvalidSender",
      "type": "error"
    },
    {
      "inputs": [
        {
          "internalType": "address",
          "name": "spender",
          "type": "address"
        }
      ],
      "name": "ERC20InvalidSpender",
      "type": "error"
    },
    {
      "inputs": [],
      "name": "EnforcedPause",
      "type": "error"
    },
    {
      "inputs": [],
      "name": "ExpectedPause",
      "type": "error"
    },
    {
      "anonymous": false,
      "inputs": [
        {
          "indexed": true,
          "internalType": "address",
          "name": "owner",
          "type": "address"
        },
        {
          "indexed": true,
          "internalType": "address",
          "name": "spender",
          "type": "address"
        },
        {
          "indexed": false,
          "internalType": "uint256",
          "name": "value",
          "type": "uint256"
        }
      ],
      "name": "Approval",
      "type": "event"
    },
    {
      "anonymous": false,
      "inputs": [
        {
          "indexed": false,
          "internalType": "address",
          "name": "account",
          "type": "address"
        }
      ],
      "name": "Paused",
      "type": "event"
    },
    {
      "anonymous": false,
      "inputs": [
        {
          "indexed": true,
          "internalType": "bytes32",
          "name": "role",
          "type": "bytes32"
        },
        {
          "indexed": true,
          "internalType": "bytes32",
          "name": "previousAdminRole",
          "type": "bytes32"
        },
        {
          "indexed": true,
          "internalType": "bytes32",
          "name": "newAdminRole",
          "type": "bytes32"
        }
      ],
      "name": "RoleAdminChanged",
      "type": "event"
    },
    {
      "anonymous": false,
      "inputs": [
        {
          "indexed": true,
          "internalType": "bytes32",
          "name": "role",
          "type": "bytes32"
        },
        {
          "indexed": true,
          "internalType": "address",
          "name": "account",
          "type": "address"
        },
        {
          "indexed": true,
          "internalType": "address",
          "name": "sender",
          "type": "address"
        }
      ],
      "name": "RoleGranted",
      "type": "event"
    },
    {
      "anonymous": false,
      "inputs": [
        {
          "indexed": true,
          "internalType": "bytes32",
          "name": "role",
          "type": "bytes32"
        },
        {
          "indexed": true,
          "internalType": "address",
          "name": "account",
          "type": "address"
        },
        {
          "indexed": true,
          "internalType": "address",
          "name": "sender",
          "type": "address"
        }
      ],
      "name": "RoleRevoked",
      "type": "event"
    },
    {
      "anonymous": false,
      "inputs": [
        {
          "indexed": true,
          "internalType": "address",
          "name": "from",
          "type": "address"
        },
        {
          "indexed": false,
          "internalType": "uint256",
          "name": "amount",
          "type": "uint256"
        }
      ],
      "name": "TokensBurned",
      "type": "event"
    },
    {
      "anonymous": false,
      "inputs": [
        {
          "indexed": true,
          "internalType": "address",
          "name": "to",
          "type": "address"
        },
        {
          "indexed": false,
          "internalType": "uint256",
          "name": "amount",
          "type": "uint256"
        }
      ],
      "name": "TokensMinted",
      "type": "event"
    },
    {
      "anonymous": false,
      "inputs": [
        {
          "indexed": true,
          "internalType": "address",
          "name": "from",
          "type": "address"
        },
        {
          "indexed": true,
          "internalType": "address",
          "name": "to",
          "type": "address"
        },
        {
          "indexed": false,
          "internalType": "uint256",
          "name": "value",
          "type": "uint256"
        }
      ],
      "name": "Transfer",
      "type": "event"
    },
    {
      "anonymous": false,
      "inputs": [
        {
          "indexed": false,
          "internalType": "address",
          "name": "account",
          "type": "address"
        }
      ],
      "name": "Unpaused",
      "type": "event"
    },
    {
      "inputs": [],
      "name": "BURNER_ROLE",
      "outputs": [
        {
          "internalType": "bytes32",
          "name": "",
          "type": "bytes32"
        }
      ],
      "stateMutability": "view",
      "type": "function"
    },
    {
      "inputs": [],
      "name": "DEFAULT_ADMIN_ROLE",
      "outputs": [
        {
          "internalType": "bytes32",
          "name": "",
          "type": "bytes32"
        }
      ],
      "stateMutability": "view",
      "type": "function"
    },
    {
      "inputs": [],
      "name": "MINTER_ROLE",
      "outputs": [
        {
          "internalType": "bytes32",
          "name": "",
          "type": "bytes32"
        }
      ],
      "stateMutability": "view",
      "type": "function"
    },
    {
      "inputs": [],
      "name": "PAUSER_ROLE",
      "outputs": [
        {
          "internalType": "bytes32",
          "name": "",
          "type": "bytes32"
        }
      ],
      "stateMutability": "view",
      "type": "function"
    },
    {
      "inputs": [
        {
          "internalType": "address",
          "name": "owner",
          "type": "address"
        },
        {
          "internalType": "address",
          "name": "spender",
          "type": "address"
        }
      ],
      "name": "allowance",
      "outputs": [
        {
          "internalType": "uint256",
          "name": "",
          "type": "uint256"
        }
      ],
      "stateMutability": "view",
      "type": "function"
    },
    {
      "inputs": [
        {
          "internalType": "address",
          "name": "spender",
          "type": "address"
        },
        {
          "internalType": "uint256",
          "name": "value",
          "type": "uint256"
        }
      ],
      "name": "approve",
      "outputs": [
        {
          "internalType": "bool",
          "name": "",
          "type": "bool"
        }
      ],
      "stateMutability": "nonpayable",
      "type": "function"
    },
    {
      "inputs": [
        {
          "internalType": "address",
          "name": "account",
          "type": "address"
        }
      ],
      "name": "balanceOf",
      "outputs": [
        {
          "internalType": "uint256",
          "name": "",
          "type": "uint256"
        }
      ],
      "stateMutability": "view",
      "type": "function"
    },
    {
      "inputs": [
        {
          "internalType": "address",
          "name": "from",
          "type": "address"
        },
        {
          "internalType": "uint256",
          "name": "amount",
          "type": "uint256"
        }
      ],
      "name": "burn",
      "outputs": [],
      "stateMutability": "nonpayable",
      "type": "function"
    },
    {
      "inputs": [],
      "name": "decimals",
      "outputs": [
        {
          "internalType": "uint8",
          "name": "",
          "type": "uint8"
        }
      ],
      "stateMutability": "view",
      "type": "function"
    },
    {
      "inputs": [
        {
          "internalType": "bytes32",
          "name": "role",
          "type": "bytes32"
        }
      ],
      "name": "getRoleAdmin",
      "outputs": [
        {
          "internalType": "bytes32",
          "name": "",
          "type": "bytes32"
        }
      ],
      "stateMutability": "view",
      "type": "function"
    },
    {
      "inputs": [
        {
          "internalType": "bytes32",
          "name": "role",
          "type": "bytes32"
        },
        {
          "internalType": "address",
          "name": "account",
          "type": "address"
        }
      ],
      "name": "grantRole",
      "outputs": [],
      "stateMutability": "nonpayable",
      "type": "function"
    },
    {
      "inputs": [
        {
          "internalType": "bytes32",
          "name": "role",
          "type": "bytes32"
        },
        {
          "internalType": "address",
          "name": "account",
          "type": "address"
        }
      ],
      "name": "hasRole",
      "outputs": [
        {
          "internalType": "bool",
          "name": "",
          "type": "bool"
        }
      ],
      "stateMutability": "view",
      "type": "function"
    },
    {
      "inputs": [
        {
          "internalType": "address",
          "name": "to",
          "type": "address"
        },
        {
          "internalType": "uint256",
          "name": "amount",
          "type": "uint256"
        }
      ],
      "name": "mint",
      "outputs": [],
      "stateMutability": "nonpayable",
      "type": "function"
    },
    {
      "inputs": [],
      "name": "name",
      "outputs": [
        {
          "internalType": "string",
          "name": "",
          "type": "string"
        }
      ],
      "stateMutability": "view",
      "type": "function"
    },
    {
      "inputs": [],
      "name": "pause",
      "outputs": [],
      "stateMutability": "nonpayable",
      "type": "function"
    },
    {
      "inputs": [],
      "name": "paused",
      "outputs": [
        {
          "internalType": "bool",
          "name": "",
          "type": "bool"
        }
      ],
      "stateMutability": "view",
      "type": "function"
    },
    {
      "inputs": [
        {
          "internalType": "bytes32",
          "name": "role",
          "type": "bytes32"
        },
        {
          "internalType": "address",
          "name": "callerConfirmation",
          "type": "address"
        }
      ],
      "name": "renounceRole",
      "outputs": [],
      "stateMutability": "nonpayable",
      "type": "function"
    },
    {
      "inputs": [
        {
          "internalType": "bytes32",
          "name": "role",
          "type": "bytes32"
        },
        {
          "internalType": "address",
          "name": "account",
          "type": "address"
        }
      ],
      "name": "revokeRole",
      "outputs": [],
      "stateMutability": "nonpayable",
      "type": "function"
    },
    {
      "inputs": [
        {
          "internalType": "bytes4",
          "name": "interfaceId",
          "type": "bytes4"
        }
      ],
      "name": "supportsInterface",
      "outputs": [
        {
          "internalType": "bool",
          "name": "",
          "type": "bool"
        }
      ],
      "stateMutability": "view",
      "type": "function"
    },
    {
      "inputs": [],
      "name": "symbol",
      "outputs": [
        {
          "internalType": "string",
          "name": "",
          "type": "string"
        }
      ],
      "stateMutability": "view",
      "type": "function"
    },
    {
      "inputs": [],
      "name": "totalSupply",
      "outputs": [
        {
          "internalType": "uint256",
          "name": "",
          "type": "uint256"
        }
      ],
      "stateMutability": "view",
      "type": "function"
    },
    {
      "inputs": [
        {
          "internalType": "address",
          "name": "to",
          "type": "address"
        },
        {
          "internalType": "uint256",
          "name": "value",
          "type": "uint256"
        }
      ],
      "name": "transfer",
      "outputs": [
        {
          "internalType": "bool",
          "name": "",
          "type": "bool"
        }
      ],
      "stateMutability": "nonpayable",
      "type": "function"
    },
    {
      "inputs": [
        {
          "internalType": "address",
          "name": "from",
          "type": "address"
        },
        {
          "internalType": "address",
          "name": "to",
          "type": "address"
        },
        {
          "internalType": "uint256",
          "name": "value",
          "type": "uint256"
        }
      ],
      "name": "transferFrom",
      "outputs": [
        {
          "internalType": "bool",
          "name": "",
          "type": "bool"
        }
      ],
      "stateMutability": "nonpayable",
      "type": "function"
    },
    {
      "inputs": [],
      "name": "unpause",
      "outputs": [],
      "stateMutability": "nonpayable",
      "type": "function"
    }
  ],
  "bytecode": "0x60806040523480156200001157600080fd5b50604051620029c2380380620029c2833981810160405281019062000037919062000779565b828281600390816200004a919062000a54565b5080600490816200005c919062000a54565b5050506000600660006101000a81548160ff0219169083151502179055506200008f6000801b336200016e60201b60201c565b50620000c27f9f2df0fed2c77648de5860a4cc508cd0818c85b8b8a1ab4ceeef8d981c8956a6336200016e60201b60201c565b50620000f57f3c11d16cbaffd01df69ce1c404f6340ee057498f5f00246190ea54220576a848336200016e60201b60201c565b50620001287f65d7a28e3265b37a6474929f336521b332c1681b933f6cb9f3376673440d862a336200016e60201b60201c565b5062000165336200013e6200027260201b60201c565b600a6200014c919062000ccb565b8362000159919062000d1c565b6200027b60201b60201c565b50505062000e6f565b60006200018283836200030860201b60201c565b620002675760016005600085815260200190815260200160002060000160008473ffffffffffffffffffffffffffffffffffffffff1673ffffffffffffffffffffffffffffffffffffffff16815260200190815260200160002060006101000a81548160ff021916908315150217905550620002036200037360201b60201c565b73ffffffffffffffffffffffffffffffffffffffff168273ffffffffffffffffffffffffffffffffffffffff16847f2f8788117e7eff1d82e926ec794901d17c78024a50270940304540a733656f0d60405160405180910390a4600190506200026c565b600090505b92915050565b60006012905090565b600073ffffffffffffffffffffffffffffffffffffffff168273ffffffffffffffffffffffffffffffffffffffff1603620002f05760006040517fec442f05000000000000000000000000000000000000000000000000000000008152600401620002e7919062000dac565b60405180910390fd5b62000304600083836200037b60201b60201c565b5050565b60006005600084815260200190815260200160002060000160008373ffffffffffffffffffffffffffffffffffffffff1673ffffffffffffffffffffffffffffffffffffffff16815260200190815260200160002060009054906101000a900460ff16905092915050565b600033905090565b600073ffffffffffffffffffffffffffffffffffffffff168373ffffffffffffffffffffffffffffffffffffffff1603620003d1578060026000828254620003c4919062000dc9565b92505081905550620004a7565b60008060008573ffffffffffffffffffffffffffffffffffffffff1673ffffffffffffffffffffffffffffffffffffffff1681526020019081526020016000205490508181101562000460578381836040517fe450d38c000000000000000000000000000000000000000000000000000000008152600401620004579392919062000e15565b60405180910390fd5b8181036000808673ffffffffffffffffffffffffffffffffffffffff1673ffffffffffffffffffffffffffffffffffffffff16815260200190815260200160002081905550505b600073ffffffffffffffffffffffffffffffffffffffff168273ffffffffffffffffffffffffffffffffffffffff1603620004f257806002600082825403925050819055506200053f565b806000808473ffffffffffffffffffffffffffffffffffffffff1673ffffffffffffffffffffffffffffffffffffffff168152602001908152602001600020600082825401925050819055505b8173ffffffffffffffffffffffffffffffffffffffff168373ffffffffffffffffffffffffffffffffffffffff167fddf252ad1be2c89b69c2b068fc378daa952ba7f163c4a11628f55a4df523b3ef836040516200059e919062000e52565b60405180910390a3505050565b6000604051905090565b600080fd5b600080fd5b600080fd5b600080fd5b6000601f19601f8301169050919050565b7f4e487b7100000000000000000000000000000000000000000000000000000000600052604160045260246000fd5b6200061482620005c9565b810181811067ffffffffffffffff82111715620006365762000635620005da565b5b80604052505050565b60006200064b620005ab565b905062000659828262000609565b919050565b600067ffffffffffffffff8211156200067c576200067b620005da565b5b6200068782620005c9565b9050602081019050919050565b60005b83811015620006b457808201518184015260208101905062000697565b60008484015250505050565b6000620006d7620006d1846200065e565b6200063f565b905082815260208101848484011115620006f657620006f5620005c4565b5b6200070384828562000694565b509392505050565b600082601f830112620007235762000722620005bf565b5b815162000735848260208601620006c0565b91505092915050565b6000819050919050565b62000753816200073e565b81146200075f57600080fd5b50565b600081519050620007738162000748565b92915050565b600080600060608486031215620007955762000794620005b5565b5b600084015167ffffffffffffffff811115620007b657620007b5620005ba565b5b620007c4868287016200070b565b935050602084015167ffffffffffffffff811115620007e857620007e7620005ba565b5b620007f6868287016200070b565b9250506040620008098682870162000762565b9150509250925092565b600081519050919050565b7f4e487b7100000000000000000000000000000000000000000000000000000000600052602260045260246000fd5b600060028204905060018216806200086657607f821691505b6020821081036200087c576200087b6200081e565b5b50919050565b60008190508160005260206000209050919050565b60006020601f8301049050919050565b600082821b905092915050565b600060088302620008e67fffffffffffffffffffffffffffffffffffffffffffffffffffffffffffffffff82620008a7565b620008f28683620008a7565b95508019841693508086168417925050509392505050565b6000819050919050565b6000620009356200092f62000929846200073e565b6200090a565b6200073e565b9050919050565b6000819050919050565b620009518362000914565b6200096962000960826200093c565b848454620008b4565b825550505050565b600090565b6200098062000971565b6200098d81848462000946565b505050565b5b81811015620009b557620009a960008262000976565b60018101905062000993565b5050565b601f82111562000a0457620009ce8162000882565b620009d98462000897565b81016020851015620009e9578190505b62000a01620009f88562000897565b83018262000992565b50505b505050565b600082821c905092915050565b600062000a296000198460080262000a09565b1980831691505092915050565b600062000a44838362000a16565b9150826002028217905092915050565b62000a5f8262000813565b67ffffffffffffffff81111562000a7b5762000a7a620005da565b5b62000a8782546200084d565b62000a94828285620009b9565b600060209050601f83116001811462000acc576000841562000ab7578287015190505b62000ac3858262000a36565b86555062000b33565b601f19841662000adc8662000882565b60005b8281101562000b065784890151825560018201915060208501945060208101905062000adf565b8683101562000b26578489015162000b22601f89168262000a16565b8355505b6001600288020188555050505b505050505050565b7f4e487b7100000000000000000000000000000000000000000000000000000000600052601160045260246000fd5b60008160011c9050919050565b6000808291508390505b600185111562000bc95780860481111562000ba15762000ba062000b3b565b5b600185161562000bb15780820291505b808102905062000bc18562000b6a565b945062000b81565b94509492505050565b60008262000be4576001905062000cb7565b8162000bf4576000905062000cb7565b816001811462000c0d576002811462000c185762000c4e565b600191505062000cb7565b60ff84111562000c2d5762000c2c62000b3b565b5b8360020a91508482111562000c475762000c4662000b3b565b5b5062000cb7565b5060208310610133831016604e8410600b841016171562000c885782820a90508381111562000c825762000c8162000b3b565b5b62000cb7565b62000c97848484600162000b77565b9250905081840481111562000cb15762000cb062000b3b565b5b81810290505b9392505050565b600060ff82169050919050565b600062000cd8826200073e565b915062000ce58362000cbe565b925062000d147fffffffffffffffffffffffffffffffffffffffffffffffffffffffffffffffff848462000bd2565b905092915050565b600062000d29826200073e565b915062000d36836200073e565b925082820262000d46816200073e565b9150828204841483151762000d605762000d5f62000b3b565b5b5092915050565b600073ffffffffffffffffffffffffffffffffffffffff82169050919050565b600062000d948262000d67565b9050919050565b62000da68162000d87565b82525050565b600060208201905062000dc3600083018462000d9b565b92915050565b600062000dd6826200073e565b915062000de3836200073e565b925082820190508082111562000dfe5762000dfd62000b3b565b5b92915050565b62000e0f816200073e565b82525050565b600060608201905062000e2c600083018662000d9b565b62000e3b602083018562000e04565b62000e4a604083018462000e04565b949350505050565b600060208201905062000e69600083018462000e04565b92915050565b611b438062000e7f6000396000f3fe608060405234801561001057600080fd5b50600436106101585760003560e01c80635c975abb116100c3578063a217fddf1161007c578063a217fddf146103b5578063a9059cbb146103d3578063d539139314610403578063d547741f14610421578063dd62ed3e1461043d578063e63ab1e91461046d57610158565b80635c975abb146102f357806370a08231146103115780638456cb591461034157806391d148541461034b57806395d89b411461037b5780639dc29fac1461039957610158565b8063282c51f311610115578063282c51f3146102595780632f2ff15d14610277578063313ce5671461029357806336568abe146102b15780633f4ba83a146102cd57806340c10f19146102d757610158565b806301ffc9a71461015d57806306fdde031461018d578063095ea7b3146101ab57806318160ddd146101db57806323b872dd146101f9578063248a9ca314610229575b600080fd5b610177600480360381019061017291906115e9565b61048b565b6040516101849190611631565b60405180910390f35b61019561049d565b6040516101a291906116dc565b60405180910390f35b6101c560048036038101906101c09190611792565b61052f565b6040516101d29190611631565b60405180910390f35b6101e3610552565b6040516101f091906117e1565b60405180910390f35b610213600480360381019061020e91906117fc565b61055c565b6040516102209190611631565b60405180910390f35b610243600480360381019061023e9190611885565b61058b565b60405161025091906118c1565b60405180910390f35b6102616105ab565b60405161026e91906118c1565b60405180910390f35b610291600480360381019061028c91906118dc565b6105cf565b005b61029b6105f1565b6040516102a89190611938565b60405180910390f35b6102cb60048036038101906102c691906118dc565b6105fa565b005b6102d5610675565b005b6102f160048036038101906102ec9190611792565b6106aa565b005b6102fb610739565b6040516103089190611631565b60405180910390f35b61032b60048036038101906103269190611953565b610750565b60405161033891906117e1565b60405180910390f35b610349610798565b005b610365600480360381019061036091906118dc565b6107cd565b6040516103729190611631565b60405180910390f35b610383610838565b60405161039091906116dc565b60405180910390f35b6103b360048036038101906103ae9190611792565b6108ca565b005b6103bd610959565b6040516103ca91906118c1565b60405180910390f35b6103ed60048036038101906103e89190611792565b610960565b6040516103fa9190611631565b60405180910390f35b61040b610983565b60405161041891906118c1565b60405180910390f35b61043b600480360381019061043691906118dc565b6109a7565b005b61045760048036038101906104529190611980565b6109c9565b60405161046491906117e1565b60405180910390f35b610475610a50565b60405161048291906118c1565b60405180910390f35b600061049682610a74565b9050919050565b6060600380546104ac906119ef565b80601f01602080910402602001604051908101604052809291908181526020018280546104d8906119ef565b80156105255780601f106104fa57610100808354040283529160200191610525565b820191906000526020600020905b81548152906001019060200180831161050857829003601f168201915b5050505050905090565b60008061053a610aee565b9050610547818585610af6565b600191505092915050565b6000600254905090565b600080610567610aee565b9050610574858285610b08565b61057f858585610b9d565b60019150509392505050565b600060056000838152602001908152602001600020600101549050919050565b7f3c11d16cbaffd01df69ce1c404f6340ee057498f5f00246190ea54220576a84881565b6105d88261058b565b6105e181610c91565b6105eb8383610ca5565b50505050565b60006012905090565b610602610aee565b73ffffffffffffffffffffffffffffffffffffffff168173ffffffffffffffffffffffffffffffffffffffff1614610666576040517f6697b23200000000000000000000000000000000000000000000000000000000815260040160405180910390fd5b6106708282610d97565b505050565b7f65d7a28e3265b37a6474929f336521b332c1681b933f6cb9f3376673440d862a61069f81610c91565b6106a7610e8a565b50565b7f9f2df0fed2c77648de5860a4cc508cd0818c85b8b8a1ab4ceeef8d981c8956a66106d481610c91565b6106dc610eed565b6106e68383610f2e565b8273ffffffffffffffffffffffffffffffffffffffff167f3f2c9d57c068687834f0de942a9babb9e5acab57d516d3480a3c16ee165a42738360405161072c91906117e1565b60405180910390a2505050565b6000600660009054906101000a900460ff16905090565b60008060008373ffffffffffffffffffffffffffffffffffffffff1673ffffffffffffffffffffffffffffffffffffffff168152602001908152602001600020549050919050565b7f65d7a28e3265b37a6474929f336521b332c1681b933f6cb9f3376673440d862a6107c281610c91565b6107ca610fb0565b50565b60006005600084815260200190815260200160002060000160008373ffffffffffffffffffffffffffffffffffffffff1673ffffffffffffffffffffffffffffffffffffffff16815260200190815260200160002060009054906101000a900460ff16905092915050565b606060048054610847906119ef565b80601f0160208091040260200160405190810160405280929190818152602001828054610873906119ef565b80156108c05780601f10610895576101008083540402835291602001916108c0565b820191906000526020600020905b8154815290600101906020018083116108a357829003601f168201915b5050505050905090565b7f3c11d16cbaffd01df69ce1c404f6340ee057498f5f00246190ea54220576a8486108f481610c91565b6108fc610eed565b6109068383611013565b8273ffffffffffffffffffffffffffffffffffffffff167ffd38818f5291bf0bb3a2a48aadc06ba8757865d1dabd804585338aab3009dcb68360405161094c91906117e1565b60405180910390a2505050565b6000801b81565b60008061096b610aee565b9050610978818585610b9d565b600191505092915050565b7f9f2df0fed2c77648de5860a4cc508cd0818c85b8b8a1ab4ceeef8d981c8956a681565b6109b08261058b565b6109b981610c91565b6109c38383610d97565b50505050565b6000600160008473ffffffffffffffffffffffffffffffffffffffff1673ffffffffffffffffffffffffffffffffffffffff16815260200190815260200160002060008373ffffffffffffffffffffffffffffffffffffffff1673ffffffffffffffffffffffffffffffffffffffff16815260200190815260200160002054905092915050565b7f65d7a28e3265b37a6474929f336521b332c1681b933f6cb9f3376673440d862a81565b60007f7965db0b000000000000000000000000000000000000000000000000000000007bffffffffffffffffffffffffffffffffffffffffffffffffffffffff1916827bffffffffffffffffffffffffffffffffffffffffffffffffffffffff19161480610ae75750610ae682611095565b5b9050919050565b600033905090565b610b0383838360016110ff565b505050565b6000610b1484846109c9565b90507fffffffffffffffffffffffffffffffffffffffffffffffffffffffffffffffff811015610b975781811015610b87578281836040517ffb8f41b2000000000000000000000000000000000000000000000000000000008152600401610b7e93929190611a2f565b60405180910390fd5b610b96848484840360006110ff565b5b50505050565b600073ffffffffffffffffffffffffffffffffffffffff168373ffffffffffffffffffffffffffffffffffffffff1603610c0f5760006040517f96c6fd1e000000000000000000000000000000000000000000000000000000008152600401610c069190611a66565b60405180910390fd5b600073ffffffffffffffffffffffffffffffffffffffff168273ffffffffffffffffffffffffffffffffffffffff1603610c815760006040517fec442f05000000000000000000000000000000000000000000000000000000008152600401610c789190611a66565b60405180910390fd5b610c8c8383836112d6565b505050565b610ca281610c9d610aee565b6114fb565b50565b6000610cb183836107cd565b610d8c5760016005600085815260200190815260200160002060000160008473ffffffffffffffffffffffffffffffffffffffff1673ffffffffffffffffffffffffffffffffffffffff16815260200190815260200160002060006101000a81548160ff021916908315150217905550610d29610aee565b73ffffffffffffffffffffffffffffffffffffffff168273ffffffffffffffffffffffffffffffffffffffff16847f2f8788117e7eff1d82e926ec794901d17c78024a50270940304540a733656f0d60405160405180910390a460019050610d91565b600090505b92915050565b6000610da383836107cd565b15610e7f5760006005600085815260200190815260200160002060000160008473ffffffffffffffffffffffffffffffffffffffff1673ffffffffffffffffffffffffffffffffffffffff16815260200190815260200160002060006101000a81548160ff021916908315150217905550610e1c610aee565b73ffffffffffffffffffffffffffffffffffffffff168273ffffffffffffffffffffffffffffffffffffffff16847ff6391f5c32d9c69d2a47ea670b442974b53935d1edc7fd64eb21e047a839171b60405160405180910390a460019050610e84565b600090505b92915050565b610e9261154c565b6000600660006101000a81548160ff0219169083151502179055507f5db9ee0a495bf2e6ff9c91a7834c1ba4fdd244a5e8aa4e537bd38aeae4b073aa610ed6610aee565b604051610ee39190611a66565b60405180910390a1565b610ef5610739565b15610f2c576040517fd93c066500000000000000000000000000000000000000000000000000000000815260040160405180910390fd5b565b600073ffffffffffffffffffffffffffffffffffffffff168273ffffffffffffffffffffffffffffffffffffffff1603610fa05760006040517fec442f05000000000000000000000000000000000000000000000000000000008152600401610f979190611a66565b60405180910390fd5b610fac600083836112d6565b5050565b610fb8610eed565b6001600660006101000a81548160ff0219169083151502179055507f62e78cea01bee320cd4e420270b5ea74000d11b0c9f74754ebdbfc544b05a258610ffc610aee565b6040516110099190611a66565b60405180910390a1565b600073ffffffffffffffffffffffffffffffffffffffff168273ffffffffffffffffffffffffffffffffffffffff16036110855760006040517f96c6fd1e00000000000000000000000000000000000000000000000000000000815260040161107c9190611a66565b60405180910390fd5b611091826000836112d6565b5050565b60007f01ffc9a7000000000000000000000000000000000000000000000000000000007bffffffffffffffffffffffffffffffffffffffffffffffffffffffff1916827bffffffffffffffffffffffffffffffffffffffffffffffffffffffff1916149050919050565b600073ffffffffffffffffffffffffffffffffffffffff168473ffffffffffffffffffffffffffffffffffffffff16036111715760006040517fe602df050000000000000000000000000000000000000000000000000000000081526004016111689190611a66565b60405180910390fd5b600073ffffffffffffffffffffffffffffffffffffffff168373ffffffffffffffffffffffffffffffffffffffff16036111e35760006040517f94280d620000000000000000000000000000000000000000000000000000000081526004016111da9190611a66565b60405180910390fd5b81600160008673ffffffffffffffffffffffffffffffffffffffff1673ffffffffffffffffffffffffffffffffffffffff16815260200190815260200160002060008573ffffffffffffffffffffffffffffffffffffffff1673ffffffffffffffffffffffffffffffffffffffff1681526020019081526020016000208190555080156112d0578273ffffffffffffffffffffffffffffffffffffffff168473ffffffffffffffffffffffffffffffffffffffff167f8c5be1e5ebec7d5bd14f71427d1e84f3dd0314c0f7b2291e5b200ac8c7c3b925846040516112c791906117e1565b60405180910390a35b50505050565b600073ffffffffffffffffffffffffffffffffffffffff168373ffffffffffffffffffffffffffffffffffffffff160361132857806002600082825461131c9190611ab0565b925050819055506113fb565b60008060008573ffffffffffffffffffffffffffffffffffffffff1673ffffffffffffffffffffffffffffffffffffffff168152602001908152602001600020549050818110156113b4578381836040517fe450d38c0000000000000000000000000000000000000000000000000000000081526004016113ab93929190611a2f565b60405180910390fd5b8181036000808673ffffffffffffffffffffffffffffffffffffffff1673ffffffffffffffffffffffffffffffffffffffff16815260200190815260200160002081905550505b600073ffffffffffffffffffffffffffffffffffffffff168273ffffffffffffffffffffffffffffffffffffffff16036114445780600260008282540392505081905550611491565b806000808473ffffffffffffffffffffffffffffffffffffffff1673ffffffffffffffffffffffffffffffffffffffff168152602001908152602001600020600082825401925050819055505b8173ffffffffffffffffffffffffffffffffffffffff168373ffffffffffffffffffffffffffffffffffffffff167fddf252ad1be2c89b69c2b068fc378daa952ba7f163c4a11628f55a4df523b3ef836040516114ee91906117e1565b60405180910390a3505050565b61150582826107cd565b6115485780826040517fe2517d3f00000000000000000000000000000000000000000000000000000000815260040161153f929190611ae4565b60405180910390fd5b5050565b611554610739565b61158a576040517f8dfc202b00000000000000000000000000000000000000000000000000000000815260040160405180910390fd5b565b600080fd5b60007fffffffff0000000000000000000000000000000000000000000000000000000082169050919050565b6115c681611591565b81146115d157600080fd5b50565b6000813590506115e3816115bd565b92915050565b6000602082840312156115ff576115fe61158c565b5b600061160d848285016115d4565b91505092915050565b60008115159050919050565b61162b81611616565b82525050565b60006020820190506116466000830184611622565b92915050565b600081519050919050565b600082825260208201905092915050565b60005b8381101561168657808201518184015260208101905061166b565b60008484015250505050565b6000601f19601f8301169050919050565b60006116ae8261164c565b6116b88185611657565b93506116c8818560208601611668565b6116d181611692565b840191505092915050565b600060208201905081810360008301526116f681846116a3565b905092915050565b600073ffffffffffffffffffffffffffffffffffffffff82169050919050565b6000611729826116fe565b9050919050565b6117398161171e565b811461174457600080fd5b50565b60008135905061175681611730565b92915050565b6000819050919050565b61176f8161175c565b811461177a57600080fd5b50565b60008135905061178c81611766565b92915050565b600080604083850312156117a9576117a861158c565b5b60006117b785828601611747565b92505060206117c88582860161177d565b9150509250929050565b6117db8161175c565b82525050565b60006020820190506117f660008301846117d2565b92915050565b6000806000606084860312156118155761181461158c565b5b600061182386828701611747565b935050602061183486828701611747565b92505060406118458682870161177d565b9150509250925092565b6000819050919050565b6118628161184f565b811461186d57600080fd5b50565b60008135905061187f81611859565b92915050565b60006020828403121561189b5761189a61158c565b5b60006118a984828501611870565b91505092915050565b6118bb8161184f565b82525050565b60006020820190506118d660008301846118b2565b92915050565b600080604083850312156118f3576118f261158c565b5b600061190185828601611870565b925050602061191285828601611747565b9150509250929050565b600060ff82169050919050565b6119328161191c565b82525050565b600060208201905061194d6000830184611929565b92915050565b6000602082840312156119695761196861158c565b5b600061197784828501611747565b91505092915050565b600080604083850312156119975761199661158c565b5b60006119a585828601611747565b92505060206119b685828601611747565b9150509250929050565b7f4e487b7100000000000000000000000000000000000000000000000000000000600052602260045260246000fd5b60006002820490506001821680611a0757607f821691505b602082108103611a1a57611a196119c0565b5b50919050565b611a298161171e565b82525050565b6000606082019050611a446000830186611a20565b611a5160208301856117d2565b611a5e60408301846117d2565b949350505050565b6000602082019050611a7b6000830184611a20565b92915050565b7f4e487b7100000000000000000000000000000000000000000000000000000000600052601160045260246000fd5b6000611abb8261175c565b9150611ac68361175c565b9250828201905080821115611ade57611add611a81565b5b92915050565b6000604082019050611af96000830185611a20565b611b0660208301846118b2565b939250505056fea2646970667358221220e21a97ada4a46c5c2ee9a0b2500218a1180be760fe02c95286b648b9b503194a64736f6c63430008140033",
  "linkReferences": {},
  "deployedLinkReferences": {}
}