{
  "_format": "hh-sol-artifact-1",
  "contractName": "BridgeSepoliaV2",
  "sourceName": "contracts/BridgeSepoliaV2.sol",
  "abi": [
    {
      "inputs": [
        {
          "internalType": "address",
          "name": "_wrappedToken",
          "type": "address"
        },
        {
          "internalType": "address",
          "name": "_relayerManager",
          "type": "address"
        },
        {
          "internalType": "address",
          "name": "admin",
          "type": "address"
        },
        {
          "internalType": "uint256",
          "name": "_minTransferAmount",
          "type": "uint256"
        },
        {
          "internalType": "uint256",
          "name": "_maxTransferAmount",
          "type": "uint256"
        }
      ],
      "stateMutability": "nonpayable",
      "type": "constructor"
    },
    {
      "inputs": [],
      "name": "AccessControlBadConfirmation",
      "type": "error"
    },
    {
      "inputs": [
        {
          "internalType": "address",
          "name": "account",
          "type": "address"
        },
        {
          "internalType": "bytes32",
          "name": "neededRole",
          "type": "bytes32"
        }
      ],
      "name": "AccessControlUnauthorizedAccount",
      "type": "error"
    },
    {
      "inputs": [],
      "name": "EnforcedPause",
      "type": "error"
    },
    {
      "inputs": [],
      "name": "ExpectedPause",
      "type": "error"
    },
    {
      "inputs": [],
      "name": "ReentrancyGuardReentrantCall",
      "type": "error"
    },
    {
      "anonymous": false,
      "inputs": [
        {
          "indexed": false,
          "internalType": "uint256",
          "name": "newMinAmount",
          "type": "uint256"
        },
        {
          "indexed": false,
          "internalType": "uint256",
          "name": "newMaxAmount",
          "type": "uint256"
        }
      ],
      "name": "BridgeLimitsUpdated",
      "type": "event"
    },
    {
      "anonymous": false,
      "inputs": [
        {
          "indexed": false,
          "internalType": "address",
          "name": "account",
          "type": "address"
        }
      ],
      "name": "Paused",
      "type": "event"
    },
    {
      "anonymous": false,
      "inputs": [
        {
          "indexed": true,
          "internalType": "bytes32",
          "name": "requestId",
          "type": "bytes32"
        },
        {
          "indexed": true,
          "internalType": "address",
          "name": "recipient",
          "type": "address"
        },
        {
          "indexed": false,
          "internalType": "uint256",
          "name": "amount",
          "type": "uint256"
        }
      ],
      "name": "ReleaseRequested",
      "type": "event"
    },
    {
      "anonymous": false,
      "inputs": [
        {
          "indexed": true,
          "internalType": "bytes32",
          "name": "role",
          "type": "bytes32"
        },
        {
          "indexed": true,
          "internalType": "bytes32",
          "name": "previousAdminRole",
          "type": "bytes32"
        },
        {
          "indexed": true,
          "internalType": "bytes32",
          "name": "newAdminRole",
          "type": "bytes32"
        }
      ],
      "name": "RoleAdminChanged",
      "type": "event"
    },
    {
      "anonymous": false,
      "inputs": [
        {
          "indexed": true,
          "internalType": "bytes32",
          "name": "role",
          "type": "bytes32"
        },
        {
          "indexed": true,
          "internalType": "address",
          "name": "account",
          "type": "address"
        },
        {
          "indexed": true,
          "internalType": "address",
          "name": "sender",
          "type": "address"
        }
      ],
      "name": "RoleGranted",
      "type": "event"
    },
    {
      "anonymous": false,
      "inputs": [
        {
          "indexed": true,
          "internalType": "bytes32",
          "name": "role",
          "type": "bytes32"
        },
        {
          "indexed": true,
          "internalType": "address",
          "name": "account",
          "type": "address"
        },
        {
          "indexed": true,
          "internalType": "address",
          "name": "sender",
          "type": "address"
        }
      ],
      "name": "RoleRevoked",
      "type": "event"
    },
    {
      "anonymous": false,
      "inputs": [
        {
          "indexed": true,
          "internalType": "bytes32",
          "name": "requestId",
          "type": "bytes32"
        },
        {
          "indexed": true,
          "internalType": "address",
          "name": "executor",
          "type": "address"
        },
        {
          "indexed": false,
          "internalType": "bool",
          "name": "success",
          "type": "bool"
        }
      ],
      "name": "TransferProcessed",
      "type": "event"
    },
    {
      "anonymous": false,
      "inputs": [
        {
          "indexed": false,
          "internalType": "address",
          "name": "account",
          "type": "address"
        }
      ],
      "name": "Unpaused",
      "type": "event"
    },
    {
      "inputs": [],
      "name": "ADMIN_ROLE",
      "outputs": [
        {
          "internalType": "bytes32",
          "name": "",
          "type": "bytes32"
        }
      ],
      "stateMutability": "view",
      "type": "function"
    },
    {
      "inputs": [],
      "name": "DEFAULT_ADMIN_ROLE",
      "outputs": [
        {
          "internalType": "bytes32",
          "name": "",
          "type": "bytes32"
        }
      ],
      "stateMutability": "view",
      "type": "function"
    },
    {
      "inputs": [],
      "name": "OPERATOR_ROLE",
      "outputs": [
        {
          "internalType": "bytes32",
          "name": "",
          "type": "bytes32"
        }
      ],
      "stateMutability": "view",
      "type": "function"
    },
    {
      "inputs": [],
      "name": "PAUSER_ROLE",
      "outputs": [
        {
          "internalType": "bytes32",
          "name": "",
          "type": "bytes32"
        }
      ],
      "stateMutability": "view",
      "type": "function"
    },
    {
      "inputs": [
        {
          "internalType": "uint256",
          "name": "amount",
          "type": "uint256"
        },
        {
          "internalType": "address",
          "name": "recipient",
          "type": "address"
        }
      ],
      "name": "burnWithRelay",
      "outputs": [],
      "stateMutability": "nonpayable",
      "type": "function"
    },
    {
      "inputs": [
        {
          "internalType": "address",
          "name": "token_",
          "type": "address"
        },
        {
          "internalType": "address",
          "name": "to",
          "type": "address"
        },
        {
          "internalType": "uint256",
          "name": "amount",
          "type": "uint256"
        }
      ],
      "name": "emergencyWithdraw",
      "outputs": [],
      "stateMutability": "nonpayable",
      "type": "function"
    },
    {
      "inputs": [
        {
          "internalType": "bytes32",
          "name": "role",
          "type": "bytes32"
        }
      ],
      "name": "getRoleAdmin",
      "outputs": [
        {
          "internalType": "bytes32",
          "name": "",
          "type": "bytes32"
        }
      ],
      "stateMutability": "view",
      "type": "function"
    },
    {
      "inputs": [
        {
          "internalType": "bytes32",
          "name": "role",
          "type": "bytes32"
        },
        {
          "internalType": "address",
          "name": "account",
          "type": "address"
        }
      ],
      "name": "grantRole",
      "outputs": [],
      "stateMutability": "nonpayable",
      "type": "function"
    },
    {
      "inputs": [
        {
          "internalType": "bytes32",
          "name": "role",
          "type": "bytes32"
        },
        {
          "internalType": "address",
          "name": "account",
          "type": "address"
        }
      ],
      "name": "hasRole",
      "outputs": [
        {
          "internalType": "bool",
          "name": "",
          "type": "bool"
        }
      ],
      "stateMutability": "view",
      "type": "function"
    },
    {
      "inputs": [],
      "name": "maxTransferAmount",
      "outputs": [
        {
          "internalType": "uint256",
          "name": "",
          "type": "uint256"
        }
      ],
      "stateMutability": "view",
      "type": "function"
    },
    {
      "inputs": [],
      "name": "minTransferAmount",
      "outputs": [
        {
          "internalType": "uint256",
          "name": "",
          "type": "uint256"
        }
      ],
      "stateMutability": "view",
      "type": "function"
    },
    {
      "inputs": [],
      "name": "pause",
      "outputs": [],
      "stateMutability": "nonpayable",
      "type": "function"
    },
    {
      "inputs": [],
      "name": "paused",
      "outputs": [
        {
          "internalType": "bool",
          "name": "",
          "type": "bool"
        }
      ],
      "stateMutability": "view",
      "type": "function"
    },
    {
      "inputs": [
        {
          "internalType": "bytes32",
          "name": "",
          "type": "bytes32"
        }
      ],
      "name": "processedRequests",
      "outputs": [
        {
          "internalType": "bool",
          "name": "",
          "type": "bool"
        }
      ],
      "stateMutability": "view",
      "type": "function"
    },
    {
      "inputs": [],
      "name": "relayerManager",
      "outputs": [
        {
          "internalType": "contract IRelayerManager",
          "name": "",
          "type": "address"
        }
      ],
      "stateMutability": "view",
      "type": "function"
    },
    {
      "inputs": [
        {
          "internalType": "bytes32",
          "name": "requestId",
          "type": "bytes32"
        },
        {
          "internalType": "address",
          "name": "recipient",
          "type": "address"
        },
        {
          "internalType": "uint256",
          "name": "amount",
          "type": "uint256"
        },
        {
          "internalType": "bytes32[]",
          "name": "relayerProof",
          "type": "bytes32[]"
        }
      ],
      "name": "release",
      "outputs": [],
      "stateMutability": "nonpayable",
      "type": "function"
    },
    {
      "inputs": [
        {
          "internalType": "bytes32",
          "name": "role",
          "type": "bytes32"
        },
        {
          "internalType": "address",
          "name": "callerConfirmation",
          "type": "address"
        }
      ],
      "name": "renounceRole",
      "outputs": [],
      "stateMutability": "nonpayable",
      "type": "function"
    },
    {
      "inputs": [
        {
          "internalType": "bytes32",
          "name": "role",
          "type": "bytes32"
        },
        {
          "internalType": "address",
          "name": "account",
          "type": "address"
        }
      ],
      "name": "revokeRole",
      "outputs": [],
      "stateMutability": "nonpayable",
      "type": "function"
    },
    {
      "inputs": [
        {
          "internalType": "bytes4",
          "name": "interfaceId",
          "type": "bytes4"
        }
      ],
      "name": "supportsInterface",
      "outputs": [
        {
          "internalType": "bool",
          "name": "",
          "type": "bool"
        }
      ],
      "stateMutability": "view",
      "type": "function"
    },
    {
      "inputs": [],
      "name": "unpause",
      "outputs": [],
      "stateMutability": "nonpayable",
      "type": "function"
    },
    {
      "inputs": [
        {
          "internalType": "uint256",
          "name": "_minAmount",
          "type": "uint256"
        },
        {
          "internalType": "uint256",
          "name": "_maxAmount",
          "type": "uint256"
        }
      ],
      "name": "updateTransferLimits",
      "outputs": [],
      "stateMutability": "nonpayable",
      "type": "function"
    },
    {
      "inputs": [],
      "name": "wrappedToken",
      "outputs": [
        {
          "internalType": "contract ISepoliaToken",
          "name": "",
          "type": "address"
        }
      ],
      "stateMutability": "view",
      "type": "function"
    }
  ],
  "bytecode": "0x60806040523480156200001157600080fd5b506040516200233d3803806200233d8339818101604052810190620000379190620003bd565b600180819055506000600260006101000a81548160ff02191690831515021790555084600260016101000a81548173ffffffffffffffffffffffffffffffffffffffff021916908373ffffffffffffffffffffffffffffffffffffffff16021790555083600360006101000a81548173ffffffffffffffffffffffffffffffffffffffff021916908373ffffffffffffffffffffffffffffffffffffffff1602179055508160068190555080600581905550620000fe6000801b84620001a360201b60201c565b50620001317fa49807205ce4d355092ef5a8a18f56e8913cf4a201fbe287825b095693c2177584620001a360201b60201c565b50620001647f97667070c54ef182b0f5858b034beac1b6f3089aa2d3188bb1e8929f4fa9b92984620001a360201b60201c565b50620001977f65d7a28e3265b37a6474929f336521b332c1681b933f6cb9f3376673440d862a84620001a360201b60201c565b50505050505062000445565b6000620001b78383620002a660201b60201c565b6200029b57600160008085815260200190815260200160002060000160008473ffffffffffffffffffffffffffffffffffffffff1673ffffffffffffffffffffffffffffffffffffffff16815260200190815260200160002060006101000a81548160ff021916908315150217905550620002376200031060201b60201c565b73ffffffffffffffffffffffffffffffffffffffff168273ffffffffffffffffffffffffffffffffffffffff16847f2f8788117e7eff1d82e926ec794901d17c78024a50270940304540a733656f0d60405160405180910390a460019050620002a0565b600090505b92915050565b600080600084815260200190815260200160002060000160008373ffffffffffffffffffffffffffffffffffffffff1673ffffffffffffffffffffffffffffffffffffffff16815260200190815260200160002060009054906101000a900460ff16905092915050565b600033905090565b600080fd5b600073ffffffffffffffffffffffffffffffffffffffff82169050919050565b60006200034a826200031d565b9050919050565b6200035c816200033d565b81146200036857600080fd5b50565b6000815190506200037c8162000351565b92915050565b6000819050919050565b620003978162000382565b8114620003a357600080fd5b50565b600081519050620003b7816200038c565b92915050565b600080600080600060a08688031215620003dc57620003db62000318565b5b6000620003ec888289016200036b565b9550506020620003ff888289016200036b565b945050604062000412888289016200036b565b93505060606200042588828901620003a6565b92505060806200043888828901620003a6565b9150509295509295909350565b611ee880620004556000396000f3fe608060405234801561001057600080fd5b50600436106101425760003560e01c8063996c6cc3116100b8578063cfbc3cfd1161007c578063cfbc3cfd14610341578063d547741f1461035d578063e63ab1e914610379578063e63ea40814610397578063f5b541a6146103b3578063fb325fa7146103d157610142565b8063996c6cc314610299578063a217fddf146102b7578063a9e75723146102d5578063c71d36b3146102f3578063ce0fa5a91461031157610142565b806343c6e0641161010a57806343c6e064146101e95780635c975abb14610205578063688414311461022357806375b238fc146102415780638456cb591461025f57806391d148541461026957610142565b806301ffc9a714610147578063248a9ca3146101775780632f2ff15d146101a757806336568abe146101c35780633f4ba83a146101df575b600080fd5b610161600480360381019061015c9190611489565b6103ed565b60405161016e91906114d1565b60405180910390f35b610191600480360381019061018c9190611522565b610467565b60405161019e919061155e565b60405180910390f35b6101c160048036038101906101bc91906115d7565b610486565b005b6101dd60048036038101906101d891906115d7565b6104a8565b005b6101e7610523565b005b61020360048036038101906101fe919061164d565b610558565b005b61020d6108da565b60405161021a91906114d1565b60405180910390f35b61022b6108f1565b604051610238919061169c565b60405180910390f35b6102496108f7565b604051610256919061155e565b60405180910390f35b61026761091b565b005b610283600480360381019061027e91906115d7565b610950565b60405161029091906114d1565b60405180910390f35b6102a16109ba565b6040516102ae9190611716565b60405180910390f35b6102bf6109e0565b6040516102cc919061155e565b60405180910390f35b6102dd6109e7565b6040516102ea919061169c565b60405180910390f35b6102fb6109ed565b6040516103089190611752565b60405180910390f35b61032b60048036038101906103269190611522565b610a13565b60405161033891906114d1565b60405180910390f35b61035b6004803603810190610356919061176d565b610a33565b005b610377600480360381019061037291906115d7565b610aec565b005b610381610b0e565b60405161038e919061155e565b60405180910390f35b6103b160048036038101906103ac91906117ad565b610b32565b005b6103bb610c50565b6040516103c8919061155e565b60405180910390f35b6103eb60048036038101906103e69190611865565b610c74565b005b60007f7965db0b000000000000000000000000000000000000000000000000000000007bffffffffffffffffffffffffffffffffffffffffffffffffffffffff1916827bffffffffffffffffffffffffffffffffffffffffffffffffffffffff19161480610460575061045f82610fd7565b5b9050919050565b6000806000838152602001908152602001600020600101549050919050565b61048f82610467565b61049881611041565b6104a28383611055565b50505050565b6104b0611146565b73ffffffffffffffffffffffffffffffffffffffff168173ffffffffffffffffffffffffffffffffffffffff1614610514576040517f6697b23200000000000000000000000000000000000000000000000000000000815260040160405180910390fd5b61051e828261114e565b505050565b7f65d7a28e3265b37a6474929f336521b332c1681b933f6cb9f3376673440d862a61054d81611041565b610555611240565b50565b6105606112a3565b6105686112e9565b6006548210156105ad576040517f08c379a00000000000000000000000000000000000000000000000000000000081526004016105a49061194a565b60405180910390fd5b6005548211156105f2576040517f08c379a00000000000000000000000000000000000000000000000000000000081526004016105e9906119b6565b60405180910390fd5b600073ffffffffffffffffffffffffffffffffffffffff168173ffffffffffffffffffffffffffffffffffffffff1603610661576040517f08c379a000000000000000000000000000000000000000000000000000000000815260040161065890611a22565b60405180910390fd5b600260019054906101000a900473ffffffffffffffffffffffffffffffffffffffff1673ffffffffffffffffffffffffffffffffffffffff166323b872dd3330856040518463ffffffff1660e01b81526004016106c093929190611a51565b6020604051808303816000875af11580156106df573d6000803e3d6000fd5b505050506040513d601f19601f820116820180604052508101906107039190611ab4565b610742576040517f08c379a000000000000000000000000000000000000000000000000000000000815260040161073990611b2d565b60405180910390fd5b6000600360009054906101000a900473ffffffffffffffffffffffffffffffffffffffff1673ffffffffffffffffffffffffffffffffffffffff16635f08320c338486424662066eed6040518763ffffffff1660e01b81526004016107ac96959493929190611b88565b602060405180830381865afa1580156107c9573d6000803e3d6000fd5b505050506040513d601f19601f820116820180604052508101906107ed9190611bfe565b9050600260019054906101000a900473ffffffffffffffffffffffffffffffffffffffff1673ffffffffffffffffffffffffffffffffffffffff16639dc29fac30856040518363ffffffff1660e01b815260040161084c929190611c2b565b600060405180830381600087803b15801561086657600080fd5b505af115801561087a573d6000803e3d6000fd5b505050508173ffffffffffffffffffffffffffffffffffffffff16817f1c4142cebc677646ced713656a34f7378b35750eae979994c975aef17287ac68856040516108c5919061169c565b60405180910390a3506108d661132a565b5050565b6000600260009054906101000a900460ff16905090565b60065481565b7fa49807205ce4d355092ef5a8a18f56e8913cf4a201fbe287825b095693c2177581565b7f65d7a28e3265b37a6474929f336521b332c1681b933f6cb9f3376673440d862a61094581611041565b61094d611333565b50565b600080600084815260200190815260200160002060000160008373ffffffffffffffffffffffffffffffffffffffff1673ffffffffffffffffffffffffffffffffffffffff16815260200190815260200160002060009054906101000a900460ff16905092915050565b600260019054906101000a900473ffffffffffffffffffffffffffffffffffffffff1681565b6000801b81565b60055481565b600360009054906101000a900473ffffffffffffffffffffffffffffffffffffffff1681565b60046020528060005260406000206000915054906101000a900460ff1681565b7fa49807205ce4d355092ef5a8a18f56e8913cf4a201fbe287825b095693c21775610a5d81611041565b81831115610aa0576040517f08c379a0000000000000000000000000000000000000000000000000000000008152600401610a9790611ca0565b60405180910390fd5b82600681905550816005819055507fcfc62648bfe6689bfdf06f50d3233f77d9e91b33d62e0b52350865779cd831518383604051610adf929190611cc0565b60405180910390a1505050565b610af582610467565b610afe81611041565b610b08838361114e565b50505050565b7f65d7a28e3265b37a6474929f336521b332c1681b933f6cb9f3376673440d862a81565b7fa49807205ce4d355092ef5a8a18f56e8913cf4a201fbe287825b095693c21775610b5c81611041565b600073ffffffffffffffffffffffffffffffffffffffff168373ffffffffffffffffffffffffffffffffffffffff1603610bcb576040517f08c379a0000000000000000000000000000000000000000000000000000000008152600401610bc290611a22565b60405180910390fd5b8373ffffffffffffffffffffffffffffffffffffffff1663a9059cbb84846040518363ffffffff1660e01b8152600401610c06929190611c2b565b6020604051808303816000875af1158015610c25573d6000803e3d6000fd5b505050506040513d601f19601f82011682018060405250810190610c499190611ab4565b5050505050565b7f97667070c54ef182b0f5858b034beac1b6f3089aa2d3188bb1e8929f4fa9b92981565b610c7c6112a3565b610c846112e9565b600360009054906101000a900473ffffffffffffffffffffffffffffffffffffffff1673ffffffffffffffffffffffffffffffffffffffff16631d0e2d393384846040518463ffffffff1660e01b8152600401610ce393929190611d64565b602060405180830381865afa158015610d00573d6000803e3d6000fd5b505050506040513d601f19601f82011682018060405250810190610d249190611ab4565b610d63576040517f08c379a0000000000000000000000000000000000000000000000000000000008152600401610d5a90611de2565b60405180910390fd5b6004600086815260200190815260200160002060009054906101000a900460ff1615610dc4576040517f08c379a0000000000000000000000000000000000000000000000000000000008152600401610dbb90611e4e565b60405180910390fd5b600073ffffffffffffffffffffffffffffffffffffffff168473ffffffffffffffffffffffffffffffffffffffff1603610e33576040517f08c379a0000000000000000000000000000000000000000000000000000000008152600401610e2a90611a22565b60405180910390fd5b600654831015610e78576040517f08c379a0000000000000000000000000000000000000000000000000000000008152600401610e6f9061194a565b60405180910390fd5b600554831115610ebd576040517f08c379a0000000000000000000000000000000000000000000000000000000008152600401610eb4906119b6565b60405180910390fd5b60016004600087815260200190815260200160002060006101000a81548160ff021916908315150217905550600260019054906101000a900473ffffffffffffffffffffffffffffffffffffffff1673ffffffffffffffffffffffffffffffffffffffff166340c10f1985856040518363ffffffff1660e01b8152600401610f46929190611c2b565b600060405180830381600087803b158015610f6057600080fd5b505af1158015610f74573d6000803e3d6000fd5b505050503373ffffffffffffffffffffffffffffffffffffffff16857fda9d29c0150c0268dd4e85262a981fd351a812a9f7058ac6606c0c18661be7ab6001604051610fc091906114d1565b60405180910390a3610fd061132a565b5050505050565b60007f01ffc9a7000000000000000000000000000000000000000000000000000000007bffffffffffffffffffffffffffffffffffffffffffffffffffffffff1916827bffffffffffffffffffffffffffffffffffffffffffffffffffffffff1916149050919050565b6110528161104d611146565b611396565b50565b60006110618383610950565b61113b57600160008085815260200190815260200160002060000160008473ffffffffffffffffffffffffffffffffffffffff1673ffffffffffffffffffffffffffffffffffffffff16815260200190815260200160002060006101000a81548160ff0219169083151502179055506110d8611146565b73ffffffffffffffffffffffffffffffffffffffff168273ffffffffffffffffffffffffffffffffffffffff16847f2f8788117e7eff1d82e926ec794901d17c78024a50270940304540a733656f0d60405160405180910390a460019050611140565b600090505b92915050565b600033905090565b600061115a8383610950565b1561123557600080600085815260200190815260200160002060000160008473ffffffffffffffffffffffffffffffffffffffff1673ffffffffffffffffffffffffffffffffffffffff16815260200190815260200160002060006101000a81548160ff0219169083151502179055506111d2611146565b73ffffffffffffffffffffffffffffffffffffffff168273ffffffffffffffffffffffffffffffffffffffff16847ff6391f5c32d9c69d2a47ea670b442974b53935d1edc7fd64eb21e047a839171b60405160405180910390a46001905061123a565b600090505b92915050565b6112486113e7565b6000600260006101000a81548160ff0219169083151502179055507f5db9ee0a495bf2e6ff9c91a7834c1ba4fdd244a5e8aa4e537bd38aeae4b073aa61128c611146565b6040516112999190611e6e565b60405180910390a1565b6002600154036112df576040517f3ee5aeb500000000000000000000000000000000000000000000000000000000815260040160405180910390fd5b6002600181905550565b6112f16108da565b15611328576040517fd93c066500000000000000000000000000000000000000000000000000000000815260040160405180910390fd5b565b60018081905550565b61133b6112e9565b6001600260006101000a81548160ff0219169083151502179055507f62e78cea01bee320cd4e420270b5ea74000d11b0c9f74754ebdbfc544b05a25861137f611146565b60405161138c9190611e6e565b60405180910390a1565b6113a08282610950565b6113e35780826040517fe2517d3f0000000000000000000000000000000000000000000000000000000081526004016113da929190611e89565b60405180910390fd5b5050565b6113ef6108da565b611425576040517f8dfc202b00000000000000000000000000000000000000000000000000000000815260040160405180910390fd5b565b600080fd5b600080fd5b60007fffffffff0000000000000000000000000000000000000000000000000000000082169050919050565b61146681611431565b811461147157600080fd5b50565b6000813590506114838161145d565b92915050565b60006020828403121561149f5761149e611427565b5b60006114ad84828501611474565b91505092915050565b60008115159050919050565b6114cb816114b6565b82525050565b60006020820190506114e660008301846114c2565b92915050565b6000819050919050565b6114ff816114ec565b811461150a57600080fd5b50565b60008135905061151c816114f6565b92915050565b60006020828403121561153857611537611427565b5b60006115468482850161150d565b91505092915050565b611558816114ec565b82525050565b6000602082019050611573600083018461154f565b92915050565b600073ffffffffffffffffffffffffffffffffffffffff82169050919050565b60006115a482611579565b9050919050565b6115b481611599565b81146115bf57600080fd5b50565b6000813590506115d1816115ab565b92915050565b600080604083850312156115ee576115ed611427565b5b60006115fc8582860161150d565b925050602061160d858286016115c2565b9150509250929050565b6000819050919050565b61162a81611617565b811461163557600080fd5b50565b60008135905061164781611621565b92915050565b6000806040838503121561166457611663611427565b5b600061167285828601611638565b9250506020611683858286016115c2565b9150509250929050565b61169681611617565b82525050565b60006020820190506116b1600083018461168d565b92915050565b6000819050919050565b60006116dc6116d76116d284611579565b6116b7565b611579565b9050919050565b60006116ee826116c1565b9050919050565b6000611700826116e3565b9050919050565b611710816116f5565b82525050565b600060208201905061172b6000830184611707565b92915050565b600061173c826116e3565b9050919050565b61174c81611731565b82525050565b60006020820190506117676000830184611743565b92915050565b6000806040838503121561178457611783611427565b5b600061179285828601611638565b92505060206117a385828601611638565b9150509250929050565b6000806000606084860312156117c6576117c5611427565b5b60006117d4868287016115c2565b93505060206117e5868287016115c2565b92505060406117f686828701611638565b9150509250925092565b600080fd5b600080fd5b600080fd5b60008083601f84011261182557611824611800565b5b8235905067ffffffffffffffff81111561184257611841611805565b5b60208301915083602082028301111561185e5761185d61180a565b5b9250929050565b60008060008060006080868803121561188157611880611427565b5b600061188f8882890161150d565b95505060206118a0888289016115c2565b94505060406118b188828901611638565b935050606086013567ffffffffffffffff8111156118d2576118d161142c565b5b6118de8882890161180f565b92509250509295509295909350565b600082825260208201905092915050565b7f416d6f756e742062656c6f77206d696e696d756d000000000000000000000000600082015250565b60006119346014836118ed565b915061193f826118fe565b602082019050919050565b6000602082019050818103600083015261196381611927565b9050919050565b7f416d6f756e742061626f7665206d6178696d756d000000000000000000000000600082015250565b60006119a06014836118ed565b91506119ab8261196a565b602082019050919050565b600060208201905081810360008301526119cf81611993565b9050919050565b7f496e76616c696420726563697069656e74000000000000000000000000000000600082015250565b6000611a0c6011836118ed565b9150611a17826119d6565b602082019050919050565b60006020820190508181036000830152611a3b816119ff565b9050919050565b611a4b81611599565b82525050565b6000606082019050611a666000830186611a42565b611a736020830185611a42565b611a80604083018461168d565b949350505050565b611a91816114b6565b8114611a9c57600080fd5b50565b600081519050611aae81611a88565b92915050565b600060208284031215611aca57611ac9611427565b5b6000611ad884828501611a9f565b91505092915050565b7f5472616e73666572206661696c65640000000000000000000000000000000000600082015250565b6000611b17600f836118ed565b9150611b2282611ae1565b602082019050919050565b60006020820190508181036000830152611b4681611b0a565b9050919050565b6000819050919050565b6000611b72611b6d611b6884611b4d565b6116b7565b611617565b9050919050565b611b8281611b57565b82525050565b600060c082019050611b9d6000830189611a42565b611baa6020830188611a42565b611bb7604083018761168d565b611bc4606083018661168d565b611bd1608083018561168d565b611bde60a0830184611b79565b979650505050505050565b600081519050611bf8816114f6565b92915050565b600060208284031215611c1457611c13611427565b5b6000611c2284828501611be9565b91505092915050565b6000604082019050611c406000830185611a42565b611c4d602083018461168d565b9392505050565b7f496e76616c6964206c696d697473000000000000000000000000000000000000600082015250565b6000611c8a600e836118ed565b9150611c9582611c54565b602082019050919050565b60006020820190508181036000830152611cb981611c7d565b9050919050565b6000604082019050611cd5600083018561168d565b611ce2602083018461168d565b9392505050565b600082825260208201905092915050565b600080fd5b82818337505050565b6000611d148385611ce9565b93507f07ffffffffffffffffffffffffffffffffffffffffffffffffffffffffffffff831115611d4757611d46611cfa565b5b602083029250611d58838584611cff565b82840190509392505050565b6000604082019050611d796000830186611a42565b8181036020830152611d8c818486611d08565b9050949350505050565b7f496e76616c69642072656c617965720000000000000000000000000000000000600082015250565b6000611dcc600f836118ed565b9150611dd782611d96565b602082019050919050565b60006020820190508181036000830152611dfb81611dbf565b9050919050565b7f5265717565737420616c72656164792070726f63657373656400000000000000600082015250565b6000611e386019836118ed565b9150611e4382611e02565b602082019050919050565b60006020820190508181036000830152611e6781611e2b565b9050919050565b6000602082019050611e836000830184611a42565b92915050565b6000604082019050611e9e6000830185611a42565b611eab602083018461154f565b939250505056fea2646970667358221220712f7970a4dadfc3562843e9cfa5ad5b95f3008436870b5aca97c109a6069eba64736f6c63430008140033",
  "linkReferences": {},
  "deployedLinkReferences": {}
}