{
  "_format": "hh-sol-artifact-1",
  "contractName": "BridgeSepoliaNFTV2",
  "sourceName": "contracts/BridgeSepoliaNFTV2.sol",
  "abi": [
    {
      "inputs": [
        {
          "internalType": "address",
          "name": "_wrappedNFT",
          "type": "address"
        },
        {
          "internalType": "address",
          "name": "_relayerManager",
          "type": "address"
        },
        {
          "internalType": "address",
          "name": "owner",
          "type": "address"
        }
      ],
      "stateMutability": "nonpayable",
      "type": "constructor"
    },
    {
      "inputs": [
        {
          "internalType": "address",
          "name": "owner",
          "type": "address"
        }
      ],
      "name": "OwnableInvalidOwner",
      "type": "error"
    },
    {
      "inputs": [
        {
          "internalType": "address",
          "name": "account",
          "type": "address"
        }
      ],
      "name": "OwnableUnauthorizedAccount",
      "type": "error"
    },
    {
      "inputs": [],
      "name": "ReentrancyGuardReentrantCall",
      "type": "error"
    },
    {
      "anonymous": false,
      "inputs": [
        {
          "indexed": true,
          "internalType": "address",
          "name": "previousOwner",
          "type": "address"
        },
        {
          "indexed": true,
          "internalType": "address",
          "name": "newOwner",
          "type": "address"
        }
      ],
      "name": "OwnershipTransferred",
      "type": "event"
    },
    {
      "anonymous": false,
      "inputs": [
        {
          "indexed": true,
          "internalType": "bytes32",
          "name": "requestId",
          "type": "bytes32"
        },
        {
          "indexed": true,
          "internalType": "address",
          "name": "recipient",
          "type": "address"
        },
        {
          "indexed": false,
          "internalType": "uint256",
          "name": "tokenId",
          "type": "uint256"
        }
      ],
      "name": "ReleaseRequested",
      "type": "event"
    },
    {
      "inputs": [
        {
          "internalType": "uint256",
          "name": "tokenId",
          "type": "uint256"
        },
        {
          "internalType": "address",
          "name": "recipient",
          "type": "address"
        }
      ],
      "name": "burnWithRelay",
      "outputs": [],
      "stateMutability": "nonpayable",
      "type": "function"
    },
    {
      "inputs": [],
      "name": "owner",
      "outputs": [
        {
          "internalType": "address",
          "name": "",
          "type": "address"
        }
      ],
      "stateMutability": "view",
      "type": "function"
    },
    {
      "inputs": [
        {
          "internalType": "bytes32",
          "name": "",
          "type": "bytes32"
        }
      ],
      "name": "processedRequests",
      "outputs": [
        {
          "internalType": "bool",
          "name": "",
          "type": "bool"
        }
      ],
      "stateMutability": "view",
      "type": "function"
    },
    {
      "inputs": [],
      "name": "relayerManager",
      "outputs": [
        {
          "internalType": "contract INFTRelayerManager",
          "name": "",
          "type": "address"
        }
      ],
      "stateMutability": "view",
      "type": "function"
    },
    {
      "inputs": [
        {
          "internalType": "bytes32",
          "name": "requestId",
          "type": "bytes32"
        },
        {
          "internalType": "address",
          "name": "recipient",
          "type": "address"
        },
        {
          "internalType": "uint256",
          "name": "tokenId",
          "type": "uint256"
        },
        {
          "internalType": "bytes32[]",
          "name": "relayerProof",
          "type": "bytes32[]"
        }
      ],
      "name": "release",
      "outputs": [],
      "stateMutability": "nonpayable",
      "type": "function"
    },
    {
      "inputs": [],
      "name": "renounceOwnership",
      "outputs": [],
      "stateMutability": "nonpayable",
      "type": "function"
    },
    {
      "inputs": [
        {
          "internalType": "address",
          "name": "newOwner",
          "type": "address"
        }
      ],
      "name": "transferOwnership",
      "outputs": [],
      "stateMutability": "nonpayable",
      "type": "function"
    },
    {
      "inputs": [],
      "name": "wrappedNFT",
      "outputs": [
        {
          "internalType": "contract ISepoliaNFT",
          "name": "",
          "type": "address"
        }
      ],
      "stateMutability": "view",
      "type": "function"
    }
  ],
  "bytecode": "0x60806040523480156200001157600080fd5b50604051620015023803806200150283398181016040528101906200003791906200027f565b80600073ffffffffffffffffffffffffffffffffffffffff168173ffffffffffffffffffffffffffffffffffffffff1603620000ad5760006040517f1e4fbdf7000000000000000000000000000000000000000000000000000000008152600401620000a49190620002ec565b60405180910390fd5b620000be816200015160201b60201c565b506001808190555082600260006101000a81548173ffffffffffffffffffffffffffffffffffffffff021916908373ffffffffffffffffffffffffffffffffffffffff16021790555081600360006101000a81548173ffffffffffffffffffffffffffffffffffffffff021916908373ffffffffffffffffffffffffffffffffffffffff16021790555050505062000309565b60008060009054906101000a900473ffffffffffffffffffffffffffffffffffffffff169050816000806101000a81548173ffffffffffffffffffffffffffffffffffffffff021916908373ffffffffffffffffffffffffffffffffffffffff1602179055508173ffffffffffffffffffffffffffffffffffffffff168173ffffffffffffffffffffffffffffffffffffffff167f8be0079c531659141344cd1fd0a4f28419497f9722a3daafe3b4186f6b6457e060405160405180910390a35050565b600080fd5b600073ffffffffffffffffffffffffffffffffffffffff82169050919050565b600062000247826200021a565b9050919050565b62000259816200023a565b81146200026557600080fd5b50565b60008151905062000279816200024e565b92915050565b6000806000606084860312156200029b576200029a62000215565b5b6000620002ab8682870162000268565b9350506020620002be8682870162000268565b9250506040620002d18682870162000268565b9150509250925092565b620002e6816200023a565b82525050565b6000602082019050620003036000830184620002db565b92915050565b6111e980620003196000396000f3fe608060405234801561001057600080fd5b50600436106100885760003560e01c8063c71d36b31161005b578063c71d36b3146100ef578063ce0fa5a91461010d578063f2fde38b1461013d578063fb325fa71461015957610088565b8063436e66aa1461008d57806343c6e064146100ab578063715018a6146100c75780638da5cb5b146100d1575b600080fd5b610095610175565b6040516100a29190610a87565b60405180910390f35b6100c560048036038101906100c09190610b20565b61019b565b005b6100cf61054b565b005b6100d961055f565b6040516100e69190610b6f565b60405180910390f35b6100f7610588565b6040516101049190610bab565b60405180910390f35b61012760048036038101906101229190610bfc565b6105ae565b6040516101349190610c44565b60405180910390f35b61015760048036038101906101529190610c5f565b6105ce565b005b610173600480360381019061016e9190610cf1565b610654565b005b600260009054906101000a900473ffffffffffffffffffffffffffffffffffffffff1681565b6101a3610866565b3373ffffffffffffffffffffffffffffffffffffffff16600260009054906101000a900473ffffffffffffffffffffffffffffffffffffffff1673ffffffffffffffffffffffffffffffffffffffff16636352211e846040518263ffffffff1660e01b81526004016102159190610d88565b602060405180830381865afa158015610232573d6000803e3d6000fd5b505050506040513d601f19601f820116820180604052508101906102569190610db8565b73ffffffffffffffffffffffffffffffffffffffff16146102ac576040517f08c379a00000000000000000000000000000000000000000000000000000000081526004016102a390610e42565b60405180910390fd5b3073ffffffffffffffffffffffffffffffffffffffff16600260009054906101000a900473ffffffffffffffffffffffffffffffffffffffff1673ffffffffffffffffffffffffffffffffffffffff1663081812fc846040518263ffffffff1660e01b815260040161031e9190610d88565b602060405180830381865afa15801561033b573d6000803e3d6000fd5b505050506040513d601f19601f8201168201806040525081019061035f9190610db8565b73ffffffffffffffffffffffffffffffffffffffff16146103b5576040517f08c379a00000000000000000000000000000000000000000000000000000000081526004016103ac90610eae565b60405180910390fd5b6000600360009054906101000a900473ffffffffffffffffffffffffffffffffffffffff1673ffffffffffffffffffffffffffffffffffffffff16635f08320c338486424662066eed6040518763ffffffff1660e01b815260040161041f96959493929190610f09565b602060405180830381865afa15801561043c573d6000803e3d6000fd5b505050506040513d601f19601f820116820180604052508101906104609190610f7f565b9050600260009054906101000a900473ffffffffffffffffffffffffffffffffffffffff1673ffffffffffffffffffffffffffffffffffffffff166342966c68846040518263ffffffff1660e01b81526004016104bd9190610d88565b600060405180830381600087803b1580156104d757600080fd5b505af11580156104eb573d6000803e3d6000fd5b505050508173ffffffffffffffffffffffffffffffffffffffff16817f1c4142cebc677646ced713656a34f7378b35750eae979994c975aef17287ac68856040516105369190610d88565b60405180910390a3506105476108ac565b5050565b6105536108b5565b61055d600061093c565b565b60008060009054906101000a900473ffffffffffffffffffffffffffffffffffffffff16905090565b600360009054906101000a900473ffffffffffffffffffffffffffffffffffffffff1681565b60046020528060005260406000206000915054906101000a900460ff1681565b6105d66108b5565b600073ffffffffffffffffffffffffffffffffffffffff168173ffffffffffffffffffffffffffffffffffffffff16036106485760006040517f1e4fbdf700000000000000000000000000000000000000000000000000000000815260040161063f9190610b6f565b60405180910390fd5b6106518161093c565b50565b61065c610866565b600360009054906101000a900473ffffffffffffffffffffffffffffffffffffffff1673ffffffffffffffffffffffffffffffffffffffff16631d0e2d393384846040518463ffffffff1660e01b81526004016106bb93929190611027565b602060405180830381865afa1580156106d8573d6000803e3d6000fd5b505050506040513d601f19601f820116820180604052508101906106fc9190611085565b61073b576040517f08c379a0000000000000000000000000000000000000000000000000000000008152600401610732906110fe565b60405180910390fd5b6004600086815260200190815260200160002060009054906101000a900460ff161561079c576040517f08c379a00000000000000000000000000000000000000000000000000000000081526004016107939061116a565b60405180910390fd5b60016004600087815260200190815260200160002060006101000a81548160ff021916908315150217905550600260009054906101000a900473ffffffffffffffffffffffffffffffffffffffff1673ffffffffffffffffffffffffffffffffffffffff166340c10f1985856040518363ffffffff1660e01b815260040161082592919061118a565b600060405180830381600087803b15801561083f57600080fd5b505af1158015610853573d6000803e3d6000fd5b5050505061085f6108ac565b5050505050565b6002600154036108a2576040517f3ee5aeb500000000000000000000000000000000000000000000000000000000815260040160405180910390fd5b6002600181905550565b60018081905550565b6108bd610a00565b73ffffffffffffffffffffffffffffffffffffffff166108db61055f565b73ffffffffffffffffffffffffffffffffffffffff161461093a576108fe610a00565b6040517f118cdaa70000000000000000000000000000000000000000000000000000000081526004016109319190610b6f565b60405180910390fd5b565b60008060009054906101000a900473ffffffffffffffffffffffffffffffffffffffff169050816000806101000a81548173ffffffffffffffffffffffffffffffffffffffff021916908373ffffffffffffffffffffffffffffffffffffffff1602179055508173ffffffffffffffffffffffffffffffffffffffff168173ffffffffffffffffffffffffffffffffffffffff167f8be0079c531659141344cd1fd0a4f28419497f9722a3daafe3b4186f6b6457e060405160405180910390a35050565b600033905090565b600073ffffffffffffffffffffffffffffffffffffffff82169050919050565b6000819050919050565b6000610a4d610a48610a4384610a08565b610a28565b610a08565b9050919050565b6000610a5f82610a32565b9050919050565b6000610a7182610a54565b9050919050565b610a8181610a66565b82525050565b6000602082019050610a9c6000830184610a78565b92915050565b600080fd5b600080fd5b6000819050919050565b610abf81610aac565b8114610aca57600080fd5b50565b600081359050610adc81610ab6565b92915050565b6000610aed82610a08565b9050919050565b610afd81610ae2565b8114610b0857600080fd5b50565b600081359050610b1a81610af4565b92915050565b60008060408385031215610b3757610b36610aa2565b5b6000610b4585828601610acd565b9250506020610b5685828601610b0b565b9150509250929050565b610b6981610ae2565b82525050565b6000602082019050610b846000830184610b60565b92915050565b6000610b9582610a54565b9050919050565b610ba581610b8a565b82525050565b6000602082019050610bc06000830184610b9c565b92915050565b6000819050919050565b610bd981610bc6565b8114610be457600080fd5b50565b600081359050610bf681610bd0565b92915050565b600060208284031215610c1257610c11610aa2565b5b6000610c2084828501610be7565b91505092915050565b60008115159050919050565b610c3e81610c29565b82525050565b6000602082019050610c596000830184610c35565b92915050565b600060208284031215610c7557610c74610aa2565b5b6000610c8384828501610b0b565b91505092915050565b600080fd5b600080fd5b600080fd5b60008083601f840112610cb157610cb0610c8c565b5b8235905067ffffffffffffffff811115610cce57610ccd610c91565b5b602083019150836020820283011115610cea57610ce9610c96565b5b9250929050565b600080600080600060808688031215610d0d57610d0c610aa2565b5b6000610d1b88828901610be7565b9550506020610d2c88828901610b0b565b9450506040610d3d88828901610acd565b935050606086013567ffffffffffffffff811115610d5e57610d5d610aa7565b5b610d6a88828901610c9b565b92509250509295509295909350565b610d8281610aac565b82525050565b6000602082019050610d9d6000830184610d79565b92915050565b600081519050610db281610af4565b92915050565b600060208284031215610dce57610dcd610aa2565b5b6000610ddc84828501610da3565b91505092915050565b600082825260208201905092915050565b7f4e6f7420746f6b656e206f776e65720000000000000000000000000000000000600082015250565b6000610e2c600f83610de5565b9150610e3782610df6565b602082019050919050565b60006020820190508181036000830152610e5b81610e1f565b9050919050565b7f427269646765206e6f7420617070726f76656400000000000000000000000000600082015250565b6000610e98601383610de5565b9150610ea382610e62565b602082019050919050565b60006020820190508181036000830152610ec781610e8b565b9050919050565b6000819050919050565b6000610ef3610eee610ee984610ece565b610a28565b610aac565b9050919050565b610f0381610ed8565b82525050565b600060c082019050610f1e6000830189610b60565b610f2b6020830188610b60565b610f386040830187610d79565b610f456060830186610d79565b610f526080830185610d79565b610f5f60a0830184610efa565b979650505050505050565b600081519050610f7981610bd0565b92915050565b600060208284031215610f9557610f94610aa2565b5b6000610fa384828501610f6a565b91505092915050565b600082825260208201905092915050565b600080fd5b82818337505050565b6000610fd78385610fac565b93507f07ffffffffffffffffffffffffffffffffffffffffffffffffffffffffffffff83111561100a57611009610fbd565b5b60208302925061101b838584610fc2565b82840190509392505050565b600060408201905061103c6000830186610b60565b818103602083015261104f818486610fcb565b9050949350505050565b61106281610c29565b811461106d57600080fd5b50565b60008151905061107f81611059565b92915050565b60006020828403121561109b5761109a610aa2565b5b60006110a984828501611070565b91505092915050565b7f496e76616c69642072656c617965720000000000000000000000000000000000600082015250565b60006110e8600f83610de5565b91506110f3826110b2565b602082019050919050565b60006020820190508181036000830152611117816110db565b9050919050565b7f5265717565737420616c72656164792070726f63657373656400000000000000600082015250565b6000611154601983610de5565b915061115f8261111e565b602082019050919050565b6000602082019050818103600083015261118381611147565b9050919050565b600060408201905061119f6000830185610b60565b6111ac6020830184610d79565b939250505056fea2646970667358221220f8dab72263bec4aa171e4bd912a68aa3c1ed5601251f24148a16758c738fadf064736f6c63430008140033",
  "linkReferences": {},
  "deployedLinkReferences": {}
}