{
  "_format": "hh-sol-artifact-1",
  "contractName": "BridgeAmoy",
  "sourceName": "contracts/BridgeAmoy.sol",
  "abi": [
    {
      "inputs": [
        {
          "internalType": "address",
          "name": "_token",
          "type": "address"
        },
        {
          "internalType": "address",
          "name": "_relayer",
          "type": "address"
        }
      ],
      "stateMutability": "nonpayable",
      "type": "constructor"
    },
    {
      "inputs": [],
      "name": "AccessControlBadConfirmation",
      "type": "error"
    },
    {
      "inputs": [
        {
          "internalType": "address",
          "name": "account",
          "type": "address"
        },
        {
          "internalType": "bytes32",
          "name": "neededRole",
          "type": "bytes32"
        }
      ],
      "name": "AccessControlUnauthorizedAccount",
      "type": "error"
    },
    {
      "inputs": [],
      "name": "ReentrancyGuardReentrantCall",
      "type": "error"
    },
    {
      "anonymous": false,
      "inputs": [
        {
          "indexed": true,
          "internalType": "address",
          "name": "token",
          "type": "address"
        },
        {
          "indexed": true,
          "internalType": "address",
          "name": "from",
          "type": "address"
        },
        {
          "indexed": false,
          "internalType": "uint256",
          "name": "amount",
          "type": "uint256"
        },
        {
          "indexed": false,
          "internalType": "uint256",
          "name": "nonce",
          "type": "uint256"
        },
        {
          "indexed": false,
          "internalType": "bytes32",
          "name": "transferId",
          "type": "bytes32"
        }
      ],
      "name": "Locked",
      "type": "event"
    },
    {
      "anonymous": false,
      "inputs": [
        {
          "indexed": false,
          "internalType": "bytes32",
          "name": "newRoot",
          "type": "bytes32"
        }
      ],
      "name": "MerkleRootUpdated",
      "type": "event"
    },
    {
      "anonymous": false,
      "inputs": [
        {
          "indexed": true,
          "internalType": "bytes32",
          "name": "role",
          "type": "bytes32"
        },
        {
          "indexed": true,
          "internalType": "bytes32",
          "name": "previousAdminRole",
          "type": "bytes32"
        },
        {
          "indexed": true,
          "internalType": "bytes32",
          "name": "newAdminRole",
          "type": "bytes32"
        }
      ],
      "name": "RoleAdminChanged",
      "type": "event"
    },
    {
      "anonymous": false,
      "inputs": [
        {
          "indexed": true,
          "internalType": "bytes32",
          "name": "role",
          "type": "bytes32"
        },
        {
          "indexed": true,
          "internalType": "address",
          "name": "account",
          "type": "address"
        },
        {
          "indexed": true,
          "internalType": "address",
          "name": "sender",
          "type": "address"
        }
      ],
      "name": "RoleGranted",
      "type": "event"
    },
    {
      "anonymous": false,
      "inputs": [
        {
          "indexed": true,
          "internalType": "bytes32",
          "name": "role",
          "type": "bytes32"
        },
        {
          "indexed": true,
          "internalType": "address",
          "name": "account",
          "type": "address"
        },
        {
          "indexed": true,
          "internalType": "address",
          "name": "sender",
          "type": "address"
        }
      ],
      "name": "RoleRevoked",
      "type": "event"
    },
    {
      "anonymous": false,
      "inputs": [
        {
          "indexed": true,
          "internalType": "address",
          "name": "token",
          "type": "address"
        },
        {
          "indexed": true,
          "internalType": "address",
          "name": "to",
          "type": "address"
        },
        {
          "indexed": false,
          "internalType": "uint256",
          "name": "amount",
          "type": "uint256"
        },
        {
          "indexed": false,
          "internalType": "bytes32",
          "name": "transferId",
          "type": "bytes32"
        }
      ],
      "name": "Unlocked",
      "type": "event"
    },
    {
      "inputs": [],
      "name": "DEFAULT_ADMIN_ROLE",
      "outputs": [
        {
          "internalType": "bytes32",
          "name": "",
          "type": "bytes32"
        }
      ],
      "stateMutability": "view",
      "type": "function"
    },
    {
      "inputs": [],
      "name": "RELAYER_ROLE",
      "outputs": [
        {
          "internalType": "bytes32",
          "name": "",
          "type": "bytes32"
        }
      ],
      "stateMutability": "view",
      "type": "function"
    },
    {
      "inputs": [
        {
          "internalType": "address",
          "name": "_relayerAddress",
          "type": "address"
        }
      ],
      "name": "addRelayer",
      "outputs": [],
      "stateMutability": "nonpayable",
      "type": "function"
    },
    {
      "inputs": [],
      "name": "getContractState",
      "outputs": [
        {
          "internalType": "uint256",
          "name": "bridgeBalance",
          "type": "uint256"
        },
        {
          "internalType": "uint256",
          "name": "userBalance",
          "type": "uint256"
        },
        {
          "internalType": "uint256",
          "name": "userAllowance",
          "type": "uint256"
        },
        {
          "internalType": "bool",
          "name": "hasRelayerRole",
          "type": "bool"
        }
      ],
      "stateMutability": "view",
      "type": "function"
    },
    {
      "inputs": [
        {
          "internalType": "bytes32",
          "name": "role",
          "type": "bytes32"
        }
      ],
      "name": "getRoleAdmin",
      "outputs": [
        {
          "internalType": "bytes32",
          "name": "",
          "type": "bytes32"
        }
      ],
      "stateMutability": "view",
      "type": "function"
    },
    {
      "inputs": [
        {
          "internalType": "bytes32",
          "name": "role",
          "type": "bytes32"
        },
        {
          "internalType": "address",
          "name": "account",
          "type": "address"
        }
      ],
      "name": "grantRole",
      "outputs": [],
      "stateMutability": "nonpayable",
      "type": "function"
    },
    {
      "inputs": [
        {
          "internalType": "bytes32",
          "name": "role",
          "type": "bytes32"
        },
        {
          "internalType": "address",
          "name": "account",
          "type": "address"
        }
      ],
      "name": "hasRole",
      "outputs": [
        {
          "internalType": "bool",
          "name": "",
          "type": "bool"
        }
      ],
      "stateMutability": "view",
      "type": "function"
    },
    {
      "inputs": [
        {
          "internalType": "uint256",
          "name": "amount",
          "type": "uint256"
        }
      ],
      "name": "lock",
      "outputs": [],
      "stateMutability": "nonpayable",
      "type": "function"
    },
    {
      "inputs": [],
      "name": "merkleRoot",
      "outputs": [
        {
          "internalType": "bytes32",
          "name": "",
          "type": "bytes32"
        }
      ],
      "stateMutability": "view",
      "type": "function"
    },
    {
      "inputs": [],
      "name": "nonce",
      "outputs": [
        {
          "internalType": "uint256",
          "name": "",
          "type": "uint256"
        }
      ],
      "stateMutability": "view",
      "type": "function"
    },
    {
      "inputs": [
        {
          "internalType": "bytes32",
          "name": "",
          "type": "bytes32"
        }
      ],
      "name": "processedTransfers",
      "outputs": [
        {
          "internalType": "bool",
          "name": "",
          "type": "bool"
        }
      ],
      "stateMutability": "view",
      "type": "function"
    },
    {
      "inputs": [],
      "name": "relayer",
      "outputs": [
        {
          "internalType": "contract DecentralizedRelayer",
          "name": "",
          "type": "address"
        }
      ],
      "stateMutability": "view",
      "type": "function"
    },
    {
      "inputs": [],
      "name": "remoteBridge",
      "outputs": [
        {
          "internalType": "address",
          "name": "",
          "type": "address"
        }
      ],
      "stateMutability": "view",
      "type": "function"
    },
    {
      "inputs": [
        {
          "internalType": "address",
          "name": "_relayerAddress",
          "type": "address"
        }
      ],
      "name": "removeRelayer",
      "outputs": [],
      "stateMutability": "nonpayable",
      "type": "function"
    },
    {
      "inputs": [
        {
          "internalType": "bytes32",
          "name": "role",
          "type": "bytes32"
        },
        {
          "internalType": "address",
          "name": "callerConfirmation",
          "type": "address"
        }
      ],
      "name": "renounceRole",
      "outputs": [],
      "stateMutability": "nonpayable",
      "type": "function"
    },
    {
      "inputs": [
        {
          "internalType": "bytes32",
          "name": "role",
          "type": "bytes32"
        },
        {
          "internalType": "address",
          "name": "account",
          "type": "address"
        }
      ],
      "name": "revokeRole",
      "outputs": [],
      "stateMutability": "nonpayable",
      "type": "function"
    },
    {
      "inputs": [
        {
          "internalType": "address",
          "name": "_remoteBridge",
          "type": "address"
        }
      ],
      "name": "setRemoteBridge",
      "outputs": [],
      "stateMutability": "nonpayable",
      "type": "function"
    },
    {
      "inputs": [
        {
          "internalType": "bytes4",
          "name": "interfaceId",
          "type": "bytes4"
        }
      ],
      "name": "supportsInterface",
      "outputs": [
        {
          "internalType": "bool",
          "name": "",
          "type": "bool"
        }
      ],
      "stateMutability": "view",
      "type": "function"
    },
    {
      "inputs": [],
      "name": "token",
      "outputs": [
        {
          "internalType": "contract IERC20Mintable",
          "name": "",
          "type": "address"
        }
      ],
      "stateMutability": "view",
      "type": "function"
    },
    {
      "inputs": [
        {
          "internalType": "address",
          "name": "user",
          "type": "address"
        },
        {
          "internalType": "uint256",
          "name": "amount",
          "type": "uint256"
        },
        {
          "internalType": "bytes32[]",
          "name": "merkleProof",
          "type": "bytes32[]"
        },
        {
          "internalType": "bytes32",
          "name": "transferId",
          "type": "bytes32"
        }
      ],
      "name": "unlock",
      "outputs": [],
      "stateMutability": "nonpayable",
      "type": "function"
    },
    {
      "inputs": [
        {
          "internalType": "bytes32",
          "name": "newRoot",
          "type": "bytes32"
        }
      ],
      "name": "updateMerkleRoot",
      "outputs": [],
      "stateMutability": "nonpayable",
      "type": "function"
    }
  ],
  "bytecode": "0x60806040523480156200001157600080fd5b5060405162002903380380620029038339818101604052810190620000379190620002bd565b6001808190555081600360006101000a81548173ffffffffffffffffffffffffffffffffffffffff021916908373ffffffffffffffffffffffffffffffffffffffff16021790555080600260006101000a81548173ffffffffffffffffffffffffffffffffffffffff021916908373ffffffffffffffffffffffffffffffffffffffff160217905550620000d56000801b33620000de60201b60201c565b50505062000304565b6000620000f28383620001e160201b60201c565b620001d657600160008085815260200190815260200160002060000160008473ffffffffffffffffffffffffffffffffffffffff1673ffffffffffffffffffffffffffffffffffffffff16815260200190815260200160002060006101000a81548160ff021916908315150217905550620001726200024b60201b60201c565b73ffffffffffffffffffffffffffffffffffffffff168273ffffffffffffffffffffffffffffffffffffffff16847f2f8788117e7eff1d82e926ec794901d17c78024a50270940304540a733656f0d60405160405180910390a460019050620001db565b600090505b92915050565b600080600084815260200190815260200160002060000160008373ffffffffffffffffffffffffffffffffffffffff1673ffffffffffffffffffffffffffffffffffffffff16815260200190815260200160002060009054906101000a900460ff16905092915050565b600033905090565b600080fd5b600073ffffffffffffffffffffffffffffffffffffffff82169050919050565b6000620002858262000258565b9050919050565b620002978162000278565b8114620002a357600080fd5b50565b600081519050620002b7816200028c565b92915050565b60008060408385031215620002d757620002d662000253565b5b6000620002e785828601620002a6565b9250506020620002fa85828601620002a6565b9150509250929050565b6125ef80620003146000396000f3fe608060405234801561001057600080fd5b50600436106101375760003560e01c806391d14854116100b8578063d547741f1161007c578063d547741f1461032d578063dd39f00d14610349578063dd46706414610365578063dd910d7514610381578063de3c05c9146103b1578063fc0c546a146103cd57610137565b806391d1485414610285578063926d7d7f146102b5578063a217fddf146102d3578063affed0e0146102f1578063c97123bb1461030f57610137565b806336568abe116100ff57806336568abe146101f25780634783f0ef1461020e57806360f0a5ac1461022a5780637f4e4849146102465780638406c0791461026757610137565b806301ffc9a71461013c57806316ce81491461016c578063248a9ca3146101885780632eb4a7ab146101b85780632f2ff15d146101d6575b600080fd5b610156600480360381019061015191906117a0565b6103eb565b60405161016391906117e8565b60405180910390f35b61018660048036038101906101819190611861565b610465565b005b6101a2600480360381019061019d91906118c4565b6104b7565b6040516101af9190611900565b60405180910390f35b6101c06104d6565b6040516101cd9190611900565b60405180910390f35b6101f060048036038101906101eb919061191b565b6104dc565b005b61020c6004803603810190610207919061191b565b6104fe565b005b610228600480360381019061022391906118c4565b610579565b005b610244600480360381019061023f9190611861565b6105e5565b005b61024e610620565b60405161025e9493929190611974565b60405180910390f35b61026f6108c8565b60405161027c9190611a18565b60405180910390f35b61029f600480360381019061029a919061191b565b6108ee565b6040516102ac91906117e8565b60405180910390f35b6102bd610958565b6040516102ca9190611900565b60405180910390f35b6102db61097c565b6040516102e89190611900565b60405180910390f35b6102f9610983565b6040516103069190611a33565b60405180910390f35b610317610989565b6040516103249190611a5d565b60405180910390f35b6103476004803603810190610342919061191b565b6109af565b005b610363600480360381019061035e9190611861565b6109d1565b005b61037f600480360381019061037a9190611aa4565b610a0c565b005b61039b600480360381019061039691906118c4565b611042565b6040516103a891906117e8565b60405180910390f35b6103cb60048036038101906103c69190611b36565b611062565b005b6103d5611356565b6040516103e29190611bdf565b60405180910390f35b60007f7965db0b000000000000000000000000000000000000000000000000000000007bffffffffffffffffffffffffffffffffffffffffffffffffffffffff1916827bffffffffffffffffffffffffffffffffffffffffffffffffffffffff1916148061045e575061045d8261137c565b5b9050919050565b6000801b610472816113e6565b81600460006101000a81548173ffffffffffffffffffffffffffffffffffffffff021916908373ffffffffffffffffffffffffffffffffffffffff1602179055505050565b6000806000838152602001908152602001600020600101549050919050565b60055481565b6104e5826104b7565b6104ee816113e6565b6104f883836113fa565b50505050565b6105066114eb565b73ffffffffffffffffffffffffffffffffffffffff168173ffffffffffffffffffffffffffffffffffffffff161461056a576040517f6697b23200000000000000000000000000000000000000000000000000000000815260040160405180910390fd5b61057482826114f3565b505050565b7fe2b7fb3b832174769106daebcfd6d1970523240dda11281102db9363b83b0dc46105a3816113e6565b816005819055507f90004c04698bc3322499a575ed3752dd4abf33e0a7294c06a787a0fe01bea941826040516105d99190611900565b60405180910390a15050565b6000801b6105f2816113e6565b61061c7fe2b7fb3b832174769106daebcfd6d1970523240dda11281102db9363b83b0dc4836109af565b5050565b600080600080600360009054906101000a900473ffffffffffffffffffffffffffffffffffffffff1673ffffffffffffffffffffffffffffffffffffffff166370a08231306040518263ffffffff1660e01b81526004016106819190611a5d565b602060405180830381865afa15801561069e573d6000803e3d6000fd5b505050506040513d601f19601f820116820180604052508101906106c29190611c0f565b9350600360009054906101000a900473ffffffffffffffffffffffffffffffffffffffff1673ffffffffffffffffffffffffffffffffffffffff166370a08231336040518263ffffffff1660e01b815260040161071f9190611a5d565b602060405180830381865afa15801561073c573d6000803e3d6000fd5b505050506040513d601f19601f820116820180604052508101906107609190611c0f565b9250600360009054906101000a900473ffffffffffffffffffffffffffffffffffffffff1673ffffffffffffffffffffffffffffffffffffffff1663dd62ed3e33306040518363ffffffff1660e01b81526004016107bf929190611c3c565b602060405180830381865afa1580156107dc573d6000803e3d6000fd5b505050506040513d601f19601f820116820180604052508101906108009190611c0f565b9150600260009054906101000a900473ffffffffffffffffffffffffffffffffffffffff1673ffffffffffffffffffffffffffffffffffffffff166391d148547fe2b7fb3b832174769106daebcfd6d1970523240dda11281102db9363b83b0dc4306040518363ffffffff1660e01b815260040161087f929190611c65565b602060405180830381865afa15801561089c573d6000803e3d6000fd5b505050506040513d601f19601f820116820180604052508101906108c09190611cba565b905090919293565b600260009054906101000a900473ffffffffffffffffffffffffffffffffffffffff1681565b600080600084815260200190815260200160002060000160008373ffffffffffffffffffffffffffffffffffffffff1673ffffffffffffffffffffffffffffffffffffffff16815260200190815260200160002060009054906101000a900460ff16905092915050565b7fe2b7fb3b832174769106daebcfd6d1970523240dda11281102db9363b83b0dc481565b6000801b81565b60075481565b600460009054906101000a900473ffffffffffffffffffffffffffffffffffffffff1681565b6109b8826104b7565b6109c1816113e6565b6109cb83836114f3565b50505050565b6000801b6109de816113e6565b610a087fe2b7fb3b832174769106daebcfd6d1970523240dda11281102db9363b83b0dc4836104dc565b5050565b610a146115e5565b60008111610a57576040517f08c379a0000000000000000000000000000000000000000000000000000000008152600401610a4e90611d44565b60405180910390fd5b600260009054906101000a900473ffffffffffffffffffffffffffffffffffffffff1673ffffffffffffffffffffffffffffffffffffffff166391d148547fe2b7fb3b832174769106daebcfd6d1970523240dda11281102db9363b83b0dc4306040518363ffffffff1660e01b8152600401610ad4929190611c65565b602060405180830381865afa158015610af1573d6000803e3d6000fd5b505050506040513d601f19601f82011682018060405250810190610b159190611cba565b610b54576040517f08c379a0000000000000000000000000000000000000000000000000000000008152600401610b4b90611db0565b60405180910390fd5b6000600754905060076000815480929190610b6e90611dff565b919050555081600360009054906101000a900473ffffffffffffffffffffffffffffffffffffffff1673ffffffffffffffffffffffffffffffffffffffff166370a08231336040518263ffffffff1660e01b8152600401610bcf9190611a5d565b602060405180830381865afa158015610bec573d6000803e3d6000fd5b505050506040513d601f19601f82011682018060405250810190610c109190611c0f565b1015610c51576040517f08c379a0000000000000000000000000000000000000000000000000000000008152600401610c4890611e93565b60405180910390fd5b81600360009054906101000a900473ffffffffffffffffffffffffffffffffffffffff1673ffffffffffffffffffffffffffffffffffffffff1663dd62ed3e33306040518363ffffffff1660e01b8152600401610caf929190611c3c565b602060405180830381865afa158015610ccc573d6000803e3d6000fd5b505050506040513d601f19601f82011682018060405250810190610cf09190611c0f565b1015610d31576040517f08c379a0000000000000000000000000000000000000000000000000000000008152600401610d2890611eff565b60405180910390fd5b6000600360009054906101000a900473ffffffffffffffffffffffffffffffffffffffff1673ffffffffffffffffffffffffffffffffffffffff166323b872dd3330866040518463ffffffff1660e01b8152600401610d9293929190611f1f565b6020604051808303816000875af1158015610db1573d6000803e3d6000fd5b505050506040513d601f19601f82011682018060405250810190610dd59190611cba565b905080610e17576040517f08c379a0000000000000000000000000000000000000000000000000000000008152600401610e0e90611fa2565b60405180910390fd5b600033848442604051602001610e30949392919061202b565b604051602081830303815290604052805190602001209050600260009054906101000a900473ffffffffffffffffffffffffffffffffffffffff1673ffffffffffffffffffffffffffffffffffffffff16631d123a088233877f23366271c99639e877e0560a02e14308f9f7f5fd7be2e15d8d8a340d5dcfce837f9d105ec2b3a71164bdc42eebbf8e0e1c903958c98fe340dda292ca00ad7c74836040518663ffffffff1660e01b8152600401610eeb959493929190612079565b600060405180830381600087803b158015610f0557600080fd5b505af1925050508015610f16575060015b610fa957610f226120d9565b806308c379a003610f9d5750610f3661216c565b80610f415750610f9f565b80604051602001610f5291906122b9565b6040516020818303038152906040526040517f08c379a0000000000000000000000000000000000000000000000000000000008152600401610f949190612314565b60405180910390fd5b505b3d6000803e3d6000fd5b3373ffffffffffffffffffffffffffffffffffffffff16600360009054906101000a900473ffffffffffffffffffffffffffffffffffffffff1673ffffffffffffffffffffffffffffffffffffffff167f7aa78006cc7a7618c8491857405853f301af6f51619f45603c6bb6cc9688668b86868560405161102c93929190612336565b60405180910390a350505061103f61162b565b50565b60066020528060005260406000206000915054906101000a900460ff1681565b61106a6115e5565b7fe2b7fb3b832174769106daebcfd6d1970523240dda11281102db9363b83b0dc4611094816113e6565b6006600083815260200190815260200160002060009054906101000a900460ff16156110f5576040517f08c379a00000000000000000000000000000000000000000000000000000000081526004016110ec906123b9565b60405180910390fd5b600086868460405160200161110c939291906123fa565b604051602081830303815290604052805190602001209050611172858580806020026020016040519081016040528093929190818152602001838360200280828437600081840152601f19601f8201169050808301925050505050505060055483611634565b6111b1576040517f08c379a00000000000000000000000000000000000000000000000000000000081526004016111a890612483565b60405180910390fd5b60016006600085815260200190815260200160002060006101000a81548160ff021916908315150217905550600360009054906101000a900473ffffffffffffffffffffffffffffffffffffffff1673ffffffffffffffffffffffffffffffffffffffff1663a9059cbb88886040518363ffffffff1660e01b815260040161123a9291906124a3565b6020604051808303816000875af1158015611259573d6000803e3d6000fd5b505050506040513d601f19601f8201168201806040525081019061127d9190611cba565b6112bc576040517f08c379a00000000000000000000000000000000000000000000000000000000081526004016112b390612518565b60405180910390fd5b8673ffffffffffffffffffffffffffffffffffffffff16600360009054906101000a900473ffffffffffffffffffffffffffffffffffffffff1673ffffffffffffffffffffffffffffffffffffffff167f8693b829bd514d88ff8c6c3d1fd02defcec4c851ab076e687ea3ddee6bc3f4ea888660405161133d929190612538565b60405180910390a3505061134f61162b565b5050505050565b600360009054906101000a900473ffffffffffffffffffffffffffffffffffffffff1681565b60007f01ffc9a7000000000000000000000000000000000000000000000000000000007bffffffffffffffffffffffffffffffffffffffffffffffffffffffff1916827bffffffffffffffffffffffffffffffffffffffffffffffffffffffff1916149050919050565b6113f7816113f26114eb565b61164b565b50565b600061140683836108ee565b6114e057600160008085815260200190815260200160002060000160008473ffffffffffffffffffffffffffffffffffffffff1673ffffffffffffffffffffffffffffffffffffffff16815260200190815260200160002060006101000a81548160ff02191690831515021790555061147d6114eb565b73ffffffffffffffffffffffffffffffffffffffff168273ffffffffffffffffffffffffffffffffffffffff16847f2f8788117e7eff1d82e926ec794901d17c78024a50270940304540a733656f0d60405160405180910390a4600190506114e5565b600090505b92915050565b600033905090565b60006114ff83836108ee565b156115da57600080600085815260200190815260200160002060000160008473ffffffffffffffffffffffffffffffffffffffff1673ffffffffffffffffffffffffffffffffffffffff16815260200190815260200160002060006101000a81548160ff0219169083151502179055506115776114eb565b73ffffffffffffffffffffffffffffffffffffffff168273ffffffffffffffffffffffffffffffffffffffff16847ff6391f5c32d9c69d2a47ea670b442974b53935d1edc7fd64eb21e047a839171b60405160405180910390a4600190506115df565b600090505b92915050565b600260015403611621576040517f3ee5aeb500000000000000000000000000000000000000000000000000000000815260040160405180910390fd5b6002600181905550565b60018081905550565b600082611641858461169c565b1490509392505050565b61165582826108ee565b6116985780826040517fe2517d3f00000000000000000000000000000000000000000000000000000000815260040161168f929190612561565b60405180910390fd5b5050565b60008082905060005b84518110156116e7576116d2828683815181106116c5576116c461258a565b5b60200260200101516116f2565b915080806116df90611dff565b9150506116a5565b508091505092915050565b600081831061170a57611705828461171d565b611715565b611714838361171d565b5b905092915050565b600082600052816020526040600020905092915050565b6000604051905090565b600080fd5b600080fd5b60007fffffffff0000000000000000000000000000000000000000000000000000000082169050919050565b61177d81611748565b811461178857600080fd5b50565b60008135905061179a81611774565b92915050565b6000602082840312156117b6576117b561173e565b5b60006117c48482850161178b565b91505092915050565b60008115159050919050565b6117e2816117cd565b82525050565b60006020820190506117fd60008301846117d9565b92915050565b600073ffffffffffffffffffffffffffffffffffffffff82169050919050565b600061182e82611803565b9050919050565b61183e81611823565b811461184957600080fd5b50565b60008135905061185b81611835565b92915050565b6000602082840312156118775761187661173e565b5b60006118858482850161184c565b91505092915050565b6000819050919050565b6118a18161188e565b81146118ac57600080fd5b50565b6000813590506118be81611898565b92915050565b6000602082840312156118da576118d961173e565b5b60006118e8848285016118af565b91505092915050565b6118fa8161188e565b82525050565b600060208201905061191560008301846118f1565b92915050565b600080604083850312156119325761193161173e565b5b6000611940858286016118af565b92505060206119518582860161184c565b9150509250929050565b6000819050919050565b61196e8161195b565b82525050565b60006080820190506119896000830187611965565b6119966020830186611965565b6119a36040830185611965565b6119b060608301846117d9565b95945050505050565b6000819050919050565b60006119de6119d96119d484611803565b6119b9565b611803565b9050919050565b60006119f0826119c3565b9050919050565b6000611a02826119e5565b9050919050565b611a12816119f7565b82525050565b6000602082019050611a2d6000830184611a09565b92915050565b6000602082019050611a486000830184611965565b92915050565b611a5781611823565b82525050565b6000602082019050611a726000830184611a4e565b92915050565b611a818161195b565b8114611a8c57600080fd5b50565b600081359050611a9e81611a78565b92915050565b600060208284031215611aba57611ab961173e565b5b6000611ac884828501611a8f565b91505092915050565b600080fd5b600080fd5b600080fd5b60008083601f840112611af657611af5611ad1565b5b8235905067ffffffffffffffff811115611b1357611b12611ad6565b5b602083019150836020820283011115611b2f57611b2e611adb565b5b9250929050565b600080600080600060808688031215611b5257611b5161173e565b5b6000611b608882890161184c565b9550506020611b7188828901611a8f565b945050604086013567ffffffffffffffff811115611b9257611b91611743565b5b611b9e88828901611ae0565b93509350506060611bb1888289016118af565b9150509295509295909350565b6000611bc9826119e5565b9050919050565b611bd981611bbe565b82525050565b6000602082019050611bf46000830184611bd0565b92915050565b600081519050611c0981611a78565b92915050565b600060208284031215611c2557611c2461173e565b5b6000611c3384828501611bfa565b91505092915050565b6000604082019050611c516000830185611a4e565b611c5e6020830184611a4e565b9392505050565b6000604082019050611c7a60008301856118f1565b611c876020830184611a4e565b9392505050565b611c97816117cd565b8114611ca257600080fd5b50565b600081519050611cb481611c8e565b92915050565b600060208284031215611cd057611ccf61173e565b5b6000611cde84828501611ca5565b91505092915050565b600082825260208201905092915050565b7f416d6f756e74206d7573742062652067726561746572207468616e2030000000600082015250565b6000611d2e601d83611ce7565b9150611d3982611cf8565b602082019050919050565b60006020820190508181036000830152611d5d81611d21565b9050919050565b7f427269646765206d75737420686176652052454c415945525f524f4c45000000600082015250565b6000611d9a601d83611ce7565b9150611da582611d64565b602082019050919050565b60006020820190508181036000830152611dc981611d8d565b9050919050565b7f4e487b7100000000000000000000000000000000000000000000000000000000600052601160045260246000fd5b6000611e0a8261195b565b91507fffffffffffffffffffffffffffffffffffffffffffffffffffffffffffffffff8203611e3c57611e3b611dd0565b5b600182019050919050565b7f496e73756666696369656e7420746f6b656e2062616c616e6365000000000000600082015250565b6000611e7d601a83611ce7565b9150611e8882611e47565b602082019050919050565b60006020820190508181036000830152611eac81611e70565b9050919050565b7f496e73756666696369656e7420746f6b656e20616c6c6f77616e636500000000600082015250565b6000611ee9601c83611ce7565b9150611ef482611eb3565b602082019050919050565b60006020820190508181036000830152611f1881611edc565b9050919050565b6000606082019050611f346000830186611a4e565b611f416020830185611a4e565b611f4e6040830184611965565b949350505050565b7f546f6b656e207472616e73666572206661696c65640000000000000000000000600082015250565b6000611f8c601583611ce7565b9150611f9782611f56565b602082019050919050565b60006020820190508181036000830152611fbb81611f7f565b9050919050565b60008160601b9050919050565b6000611fda82611fc2565b9050919050565b6000611fec82611fcf565b9050919050565b612004611fff82611823565b611fe1565b82525050565b6000819050919050565b6120256120208261195b565b61200a565b82525050565b60006120378287611ff3565b6014820191506120478286612014565b6020820191506120578285612014565b6020820191506120678284612014565b60208201915081905095945050505050565b600060a08201905061208e60008301886118f1565b61209b6020830187611a4e565b6120a86040830186611965565b6120b560608301856118f1565b6120c260808301846118f1565b9695505050505050565b60008160e01c9050919050565b600060033d11156120f85760046000803e6120f56000516120cc565b90505b90565b6000601f19601f8301169050919050565b7f4e487b7100000000000000000000000000000000000000000000000000000000600052604160045260246000fd5b612144826120fb565b810181811067ffffffffffffffff821117156121635761216261210c565b5b80604052505050565b600060443d106121f95761217e611734565b60043d036004823e80513d602482011167ffffffffffffffff821117156121a65750506121f9565b808201805167ffffffffffffffff8111156121c457505050506121f9565b80602083010160043d0385018111156121e15750505050506121f9565b6121f08260200185018661213b565b82955050505050505b90565b600081905092915050565b7f52656c617965722072657175657374206661696c65643a200000000000000000600082015250565b600061223d6018836121fc565b915061224882612207565b601882019050919050565b600081519050919050565b60005b8381101561227c578082015181840152602081019050612261565b60008484015250505050565b600061229382612253565b61229d81856121fc565b93506122ad81856020860161225e565b80840191505092915050565b60006122c482612230565b91506122d08284612288565b915081905092915050565b60006122e682612253565b6122f08185611ce7565b935061230081856020860161225e565b612309816120fb565b840191505092915050565b6000602082019050818103600083015261232e81846122db565b905092915050565b600060608201905061234b6000830186611965565b6123586020830185611965565b61236560408301846118f1565b949350505050565b7f5472616e7366657220616c72656164792070726f636573736564000000000000600082015250565b60006123a3601a83611ce7565b91506123ae8261236d565b602082019050919050565b600060208201905081810360008301526123d281612396565b9050919050565b6000819050919050565b6123f46123ef8261188e565b6123d9565b82525050565b60006124068286611ff3565b6014820191506124168285612014565b60208201915061242682846123e3565b602082019150819050949350505050565b7f496e76616c6964206d65726b6c652070726f6f66000000000000000000000000600082015250565b600061246d601483611ce7565b915061247882612437565b602082019050919050565b6000602082019050818103600083015261249c81612460565b9050919050565b60006040820190506124b86000830185611a4e565b6124c56020830184611965565b9392505050565b7f5472616e73666572206661696c65640000000000000000000000000000000000600082015250565b6000612502600f83611ce7565b915061250d826124cc565b602082019050919050565b60006020820190508181036000830152612531816124f5565b9050919050565b600060408201905061254d6000830185611965565b61255a60208301846118f1565b9392505050565b60006040820190506125766000830185611a4e565b61258360208301846118f1565b9392505050565b7f4e487b7100000000000000000000000000000000000000000000000000000000600052603260045260246000fdfea264697066735822122094ceb13e06b7521145b897b3123aaea6f5450ce07e54d7d6595ad4c28a322f1664736f6c63430008140033",
  "linkReferences": {},
  "deployedLinkReferences": {}
}