{
  "contractName": "BridgeAmoyNFT",
  "abi": [
    {
      "inputs": [
        {
          "internalType": "address",
          "name": "_nativeNFT",
          "type": "address"
        },
        {
          "internalType": "address",
          "name": "owner",
          "type": "address"
        }
      ],
      "stateMutability": "nonpayable",
      "type": "constructor"
    },
    {
      "inputs": [
        {
          "internalType": "address",
          "name": "owner",
          "type": "address"
        }
      ],
      "name": "OwnableInvalidOwner",
      "type": "error"
    },
    {
      "inputs": [
        {
          "internalType": "address",
          "name": "account",
          "type": "address"
        }
      ],
      "name": "OwnableUnauthorizedAccount",
      "type": "error"
    },
    {
      "anonymous": false,
      "inputs": [
        {
          "indexed": true,
          "internalType": "address",
          "name": "user",
          "type": "address"
        },
        {
          "indexed": false,
          "internalType": "uint256",
          "name": "tokenId",
          "type": "uint256"
        }
      ],
      "name": "Locked",
      "type": "event"
    },
    {
      "anonymous": false,
      "inputs": [
        {
          "indexed": true,
          "internalType": "address",
          "name": "to",
          "type": "address"
        },
        {
          "indexed": false,
          "internalType": "uint256",
          "name": "tokenId",
          "type": "uint256"
        }
      ],
      "name": "Minted",
      "type": "event"
    },
    {
      "anonymous": false,
      "inputs": [
        {
          "indexed": true,
          "internalType": "address",
          "name": "previousOwner",
          "type": "address"
        },
        {
          "indexed": true,
          "internalType": "address",
          "name": "newOwner",
          "type": "address"
        }
      ],
      "name": "OwnershipTransferred",
      "type": "event"
    },
    {
      "anonymous": false,
      "inputs": [
        {
          "indexed": true,
          "internalType": "address",
          "name": "user",
          "type": "address"
        },
        {
          "indexed": false,
          "internalType": "uint256",
          "name": "tokenId",
          "type": "uint256"
        }
      ],
      "name": "Unlocked",
      "type": "event"
    },
    {
      "inputs": [
        {
          "internalType": "uint256",
          "name": "",
          "type": "uint256"
        }
      ],
      "name": "lockedTokens",
      "outputs": [
        {
          "internalType": "bool",
          "name": "",
          "type": "bool"
        }
      ],
      "stateMutability": "view",
      "type": "function"
    },
    {
      "inputs": [],
      "name": "nativeNFT",
      "outputs": [
        {
          "internalType": "contract IERC721Mintable",
          "name": "",
          "type": "address"
        }
      ],
      "stateMutability": "view",
      "type": "function"
    },
    {
      "inputs": [],
      "name": "owner",
      "outputs": [
        {
          "internalType": "address",
          "name": "",
          "type": "address"
        }
      ],
      "stateMutability": "view",
      "type": "function"
    },
    {
      "inputs": [],
      "name": "remoteBridge",
      "outputs": [
        {
          "internalType": "address",
          "name": "",
          "type": "address"
        }
      ],
      "stateMutability": "view",
      "type": "function"
    },
    {
      "inputs": [],
      "name": "renounceOwnership",
      "outputs": [],
      "stateMutability": "nonpayable",
      "type": "function"
    },
    {
      "inputs": [
        {
          "internalType": "address",
          "name": "newOwner",
          "type": "address"
        }
      ],
      "name": "transferOwnership",
      "outputs": [],
      "stateMutability": "nonpayable",
      "type": "function"
    },
    {
      "inputs": [
        {
          "internalType": "address",
          "name": "_remoteBridge",
          "type": "address"
        }
      ],
      "name": "setRemoteBridge",
      "outputs": [],
      "stateMutability": "nonpayable",
      "type": "function"
    },
    {
      "inputs": [
        {
          "internalType": "address",
          "name": "to",
          "type": "address"
        }
      ],
      "name": "mint",
      "outputs": [
        {
          "internalType": "uint256",
          "name": "",
          "type": "uint256"
        }
      ],
      "stateMutability": "nonpayable",
      "type": "function"
    },
    {
      "inputs": [
        {
          "internalType": "uint256",
          "name": "tokenId",
          "type": "uint256"
        }
      ],
      "name": "lock",
      "outputs": [],
      "stateMutability": "nonpayable",
      "type": "function"
    },
    {
      "inputs": [
        {
          "internalType": "address",
          "name": "user",
          "type": "address"
        },
        {
          "internalType": "uint256",
          "name": "tokenId",
          "type": "uint256"
        }
      ],
      "name": "unlock",
      "outputs": [],
      "stateMutability": "nonpayable",
      "type": "function"
    }
  ],
  "bytecode": "0x608060405234801562000010575f80fd5b50604051620010593803806200105983398181016040528101906200003691906200022a565b805f73ffffffffffffffffffffffffffffffffffffffff168173ffffffffffffffffffffffffffffffffffffffff1603620000aa575f6040517f1e4fbdf7000000000000000000000000000000000000000000000000000000008152600401620000a1919062000280565b60405180910390fd5b620000bb816200010460201b60201c565b508160015f6101000a81548173ffffffffffffffffffffffffffffffffffffffff021916908373ffffffffffffffffffffffffffffffffffffffff16021790555050506200029b565b5f805f9054906101000a900473ffffffffffffffffffffffffffffffffffffffff169050815f806101000a81548173ffffffffffffffffffffffffffffffffffffffff021916908373ffffffffffffffffffffffffffffffffffffffff1602179055508173ffffffffffffffffffffffffffffffffffffffff168173ffffffffffffffffffffffffffffffffffffffff167f8be0079c531659141344cd1fd0a4f28419497f9722a3daafe3b4186f6b6457e060405160405180910390a35050565b5f80fd5b5f73ffffffffffffffffffffffffffffffffffffffff82169050919050565b5f620001f482620001c9565b9050919050565b6200020681620001e8565b811462000211575f80fd5b50565b5f815190506200022481620001fb565b92915050565b5f8060408385031215620002435762000242620001c5565b5b5f620002528582860162000214565b9250506020620002658582860162000214565b9150509250929050565b6200027a81620001e8565b82525050565b5f602082019050620002955f8301846200026f565b92915050565b610db080620002a95f395ff3fe608060405234801561000f575f80fd5b506004361061009c575f3560e01c80638f38ed10116100645780638f38ed1014610130578063c97123bb1461014e578063dcec32941461016c578063dd4670641461019c578063f2fde38b146101b85761009c565b806316ce8149146100a05780636a627842146100bc578063715018a6146100ec5780637eee288d146100f65780638da5cb5b14610112575b5f80fd5b6100ba60048036038101906100b591906109c1565b6101d4565b005b6100d660048036038101906100d191906109c1565b61021f565b6040516100e39190610a04565b60405180910390f35b6100f461031c565b005b610110600480360381019061010b9190610a47565b61032f565b005b61011a610499565b6040516101279190610a94565b60405180910390f35b6101386104c0565b6040516101459190610b08565b60405180910390f35b6101566104e5565b6040516101639190610a94565b60405180910390f35b61018660048036038101906101819190610b21565b61050a565b6040516101939190610b66565b60405180910390f35b6101b660048036038101906101b19190610b21565b610527565b005b6101d260048036038101906101cd91906109c1565b610790565b005b6101dc610814565b8060025f6101000a81548173ffffffffffffffffffffffffffffffffffffffff021916908373ffffffffffffffffffffffffffffffffffffffff16021790555050565b5f610228610814565b5f60015f9054906101000a900473ffffffffffffffffffffffffffffffffffffffff1673ffffffffffffffffffffffffffffffffffffffff16636a627842846040518263ffffffff1660e01b81526004016102839190610a94565b6020604051808303815f875af115801561029f573d5f803e3d5ffd5b505050506040513d601f19601f820116820180604052508101906102c39190610b93565b90508273ffffffffffffffffffffffffffffffffffffffff167f30385c845b448a36257a6a1716e6ad2e1bc2cbe333cde1e69fe849ad6511adfe8260405161030b9190610a04565b60405180910390a280915050919050565b610324610814565b61032d5f61089b565b565b610337610814565b60035f8281526020019081526020015f205f9054906101000a900460ff16610394576040517f08c379a000000000000000000000000000000000000000000000000000000000815260040161038b90610c18565b60405180910390fd5b5f60035f8381526020019081526020015f205f6101000a81548160ff02191690831515021790555060015f9054906101000a900473ffffffffffffffffffffffffffffffffffffffff1673ffffffffffffffffffffffffffffffffffffffff166323b872dd3084846040518463ffffffff1660e01b815260040161041a93929190610c36565b5f604051808303815f87803b158015610431575f80fd5b505af1158015610443573d5f803e3d5ffd5b505050508173ffffffffffffffffffffffffffffffffffffffff167f0f0bc5b519ddefdd8e5f9e6423433aa2b869738de2ae34d58ebc796fc749fa0d8260405161048d9190610a04565b60405180910390a25050565b5f805f9054906101000a900473ffffffffffffffffffffffffffffffffffffffff16905090565b60015f9054906101000a900473ffffffffffffffffffffffffffffffffffffffff1681565b60025f9054906101000a900473ffffffffffffffffffffffffffffffffffffffff1681565b6003602052805f5260405f205f915054906101000a900460ff1681565b60035f8281526020019081526020015f205f9054906101000a900460ff1615610585576040517f08c379a000000000000000000000000000000000000000000000000000000000815260040161057c90610cb5565b60405180910390fd5b3373ffffffffffffffffffffffffffffffffffffffff1660015f9054906101000a900473ffffffffffffffffffffffffffffffffffffffff1673ffffffffffffffffffffffffffffffffffffffff16636352211e836040518263ffffffff1660e01b81526004016105f69190610a04565b602060405180830381865afa158015610611573d5f803e3d5ffd5b505050506040513d601f19601f820116820180604052508101906106359190610ce7565b73ffffffffffffffffffffffffffffffffffffffff161461068b576040517f08c379a000000000000000000000000000000000000000000000000000000000815260040161068290610d5c565b60405180910390fd5b60015f9054906101000a900473ffffffffffffffffffffffffffffffffffffffff1673ffffffffffffffffffffffffffffffffffffffff166323b872dd3330846040518463ffffffff1660e01b81526004016106e993929190610c36565b5f604051808303815f87803b158015610700575f80fd5b505af1158015610712573d5f803e3d5ffd5b50505050600160035f8381526020019081526020015f205f6101000a81548160ff0219169083151502179055503373ffffffffffffffffffffffffffffffffffffffff167f9f1ec8c880f76798e7b793325d625e9b60e4082a553c98f42b6cda368dd60008826040516107859190610a04565b60405180910390a250565b610798610814565b5f73ffffffffffffffffffffffffffffffffffffffff168173ffffffffffffffffffffffffffffffffffffffff1603610808575f6040517f1e4fbdf70000000000000000000000000000000000000000000000000000000081526004016107ff9190610a94565b60405180910390fd5b6108118161089b565b50565b61081c61095c565b73ffffffffffffffffffffffffffffffffffffffff1661083a610499565b73ffffffffffffffffffffffffffffffffffffffff16146108995761085d61095c565b6040517f118cdaa70000000000000000000000000000000000000000000000000000000081526004016108909190610a94565b60405180910390fd5b565b5f805f9054906101000a900473ffffffffffffffffffffffffffffffffffffffff169050815f806101000a81548173ffffffffffffffffffffffffffffffffffffffff021916908373ffffffffffffffffffffffffffffffffffffffff1602179055508173ffffffffffffffffffffffffffffffffffffffff168173ffffffffffffffffffffffffffffffffffffffff167f8be0079c531659141344cd1fd0a4f28419497f9722a3daafe3b4186f6b6457e060405160405180910390a35050565b5f33905090565b5f80fd5b5f73ffffffffffffffffffffffffffffffffffffffff82169050919050565b5f61099082610967565b9050919050565b6109a081610986565b81146109aa575f80fd5b50565b5f813590506109bb81610997565b92915050565b5f602082840312156109d6576109d5610963565b5b5f6109e3848285016109ad565b91505092915050565b5f819050919050565b6109fe816109ec565b82525050565b5f602082019050610a175f8301846109f5565b92915050565b610a26816109ec565b8114610a30575f80fd5b50565b5f81359050610a4181610a1d565b92915050565b5f8060408385031215610a5d57610a5c610963565b5b5f610a6a858286016109ad565b9250506020610a7b85828601610a33565b9150509250929050565b610a8e81610986565b82525050565b5f602082019050610aa75f830184610a85565b92915050565b5f819050919050565b5f610ad0610acb610ac684610967565b610aad565b610967565b9050919050565b5f610ae182610ab6565b9050919050565b5f610af282610ad7565b9050919050565b610b0281610ae8565b82525050565b5f602082019050610b1b5f830184610af9565b92915050565b5f60208284031215610b3657610b35610963565b5b5f610b4384828501610a33565b91505092915050565b5f8115159050919050565b610b6081610b4c565b82525050565b5f602082019050610b795f830184610b57565b92915050565b5f81519050610b8d81610a1d565b92915050565b5f60208284031215610ba857610ba7610963565b5b5f610bb584828501610b7f565b91505092915050565b5f82825260208201905092915050565b7f546f6b656e206e6f74206c6f636b6564000000000000000000000000000000005f82015250565b5f610c02601083610bbe565b9150610c0d82610bce565b602082019050919050565b5f6020820190508181035f830152610c2f81610bf6565b9050919050565b5f606082019050610c495f830186610a85565b610c566020830185610a85565b610c6360408301846109f5565b949350505050565b7f546f6b656e20616c7265616479206c6f636b65640000000000000000000000005f82015250565b5f610c9f601483610bbe565b9150610caa82610c6b565b602082019050919050565b5f6020820190508181035f830152610ccc81610c93565b9050919050565b5f81519050610ce181610997565b92915050565b5f60208284031215610cfc57610cfb610963565b5b5f610d0984828501610cd3565b91505092915050565b7f4e6f7420746f6b656e206f776e657200000000000000000000000000000000005f82015250565b5f610d46600f83610bbe565b9150610d5182610d12565b602082019050919050565b5f6020820190508181035f830152610d7381610d3a565b905091905056fea2646970667358221220eae2e56b6d76b6df062ca43be1d9252d5e9c0069c37438ae1aa4ac874df337a264736f6c63430008140033",
  "immutableReferences": {},
  "source": "// BridgeAmoyNFT.sol\r\n// SPDX-License-Identifier: MIT\r\npragma solidity ^0.8.20;\r\n\r\nimport \"@openzeppelin/contracts/token/ERC721/IERC721.sol\";\r\nimport \"@openzeppelin/contracts/access/Ownable.sol\";\r\n\r\ninterface IERC721Mintable is IERC721 {\r\n    function mint(address to) external returns (uint256);\r\n    function burn(uint256 tokenId) external;\r\n}\r\n\r\ncontract BridgeAmoyNFT is Ownable {\r\n    IERC721Mintable public nativeNFT;\r\n    address public remoteBridge;\r\n    \r\n    mapping(uint256 => bool) public lockedTokens;\r\n\r\n    event Locked(address indexed user, uint256 tokenId);\r\n    event Unlocked(address indexed user, uint256 tokenId);\r\n    event Minted(address indexed to, uint256 tokenId);\r\n\r\n    constructor(address _nativeNFT, address owner) Ownable(owner) {\r\n        nativeNFT = IERC721Mintable(_nativeNFT);\r\n    }\r\n\r\n    function setRemoteBridge(address _remoteBridge) external onlyOwner {\r\n        remoteBridge = _remoteBridge;\r\n    }\r\n\r\n    // Added mint function to create new NFTs\r\n    function mint(address to) external onlyOwner returns (uint256) {\r\n        uint256 tokenId = nativeNFT.mint(to);\r\n        emit Minted(to, tokenId);\r\n        return tokenId;\r\n    }\r\n\r\n    // Lock NFT on the source chain\r\n    function lock(uint256 tokenId) external {\r\n        require(!lockedTokens[tokenId], \"Token already locked\");\r\n        require(nativeNFT.ownerOf(tokenId) == msg.sender, \"Not token owner\");\r\n        \r\n        nativeNFT.transferFrom(msg.sender, address(this), tokenId);\r\n        lockedTokens[tokenId] = true;\r\n        emit Locked(msg.sender, tokenId);\r\n    }\r\n\r\n    // Unlock NFT on the source chain\r\n    function unlock(address user, uint256 tokenId) external onlyOwner {\r\n        require(lockedTokens[tokenId], \"Token not locked\");\r\n        lockedTokens[tokenId] = false;\r\n        nativeNFT.transferFrom(address(this), user, tokenId);\r\n        emit Unlocked(user, tokenId);\r\n    }\r\n}",
  "sourcePath": "C:\\Users\\chanm\\Desktop\\HackIITK\\main\\iitkcyberhack\\ChallengeRound2\\cross-chain-bridge\\contracts\\BridgeAmoyNFT.sol",
  "compiler": {
    "name": "solc",
    "version": "0.8.20+commit.a1b79de6.Emscripten.clang"
  },
  "schemaVersion": "3.4.16",
  "updatedAt": "2025-02-09T20:07:17.910Z",
  "networkType": "ethereum",
  "devdoc": {
    "errors": {
      "OwnableInvalidOwner(address)": [
        {
          "details": "The owner is not a valid owner account. (eg. `address(0)`)"
        }
      ],
      "OwnableUnauthorizedAccount(address)": [
        {
          "details": "The caller account is not authorized to perform an operation."
        }
      ]
    },
    "kind": "dev",
    "methods": {
      "owner()": {
        "details": "Returns the address of the current owner."
      },
      "renounceOwnership()": {
        "details": "Leaves the contract without owner. It will not be possible to call `onlyOwner` functions. Can only be called by the current owner. NOTE: Renouncing ownership will leave the contract without an owner, thereby disabling any functionality that is only available to the owner."
      },
      "transferOwnership(address)": {
        "details": "Transfers ownership of the contract to a new account (`newOwner`). Can only be called by the current owner."
      }
    },
    "version": 1
  },
  "userdoc": {
    "kind": "user",
    "methods": {},
    "version": 1
  }
}