{
  "contractName": "BridgeAmoy",
  "abi": [
    {
      "inputs": [
        {
          "internalType": "address",
          "name": "_token",
          "type": "address"
        },
        {
          "internalType": "address",
          "name": "owner",
          "type": "address"
        }
      ],
      "stateMutability": "nonpayable",
      "type": "constructor"
    },
    {
      "inputs": [
        {
          "internalType": "address",
          "name": "owner",
          "type": "address"
        }
      ],
      "name": "OwnableInvalidOwner",
      "type": "error"
    },
    {
      "inputs": [
        {
          "internalType": "address",
          "name": "account",
          "type": "address"
        }
      ],
      "name": "OwnableUnauthorizedAccount",
      "type": "error"
    },
    {
      "anonymous": false,
      "inputs": [
        {
          "indexed": true,
          "internalType": "address",
          "name": "user",
          "type": "address"
        },
        {
          "indexed": false,
          "internalType": "uint256",
          "name": "amount",
          "type": "uint256"
        }
      ],
      "name": "Locked",
      "type": "event"
    },
    {
      "anonymous": false,
      "inputs": [
        {
          "indexed": true,
          "internalType": "address",
          "name": "previousOwner",
          "type": "address"
        },
        {
          "indexed": true,
          "internalType": "address",
          "name": "newOwner",
          "type": "address"
        }
      ],
      "name": "OwnershipTransferred",
      "type": "event"
    },
    {
      "anonymous": false,
      "inputs": [
        {
          "indexed": true,
          "internalType": "address",
          "name": "user",
          "type": "address"
        },
        {
          "indexed": false,
          "internalType": "uint256",
          "name": "amount",
          "type": "uint256"
        }
      ],
      "name": "Unlocked",
      "type": "event"
    },
    {
      "inputs": [],
      "name": "owner",
      "outputs": [
        {
          "internalType": "address",
          "name": "",
          "type": "address"
        }
      ],
      "stateMutability": "view",
      "type": "function"
    },
    {
      "inputs": [],
      "name": "remoteBridge",
      "outputs": [
        {
          "internalType": "address",
          "name": "",
          "type": "address"
        }
      ],
      "stateMutability": "view",
      "type": "function"
    },
    {
      "inputs": [],
      "name": "renounceOwnership",
      "outputs": [],
      "stateMutability": "nonpayable",
      "type": "function"
    },
    {
      "inputs": [],
      "name": "token",
      "outputs": [
        {
          "internalType": "contract IERC20Mintable",
          "name": "",
          "type": "address"
        }
      ],
      "stateMutability": "view",
      "type": "function"
    },
    {
      "inputs": [
        {
          "internalType": "address",
          "name": "newOwner",
          "type": "address"
        }
      ],
      "name": "transferOwnership",
      "outputs": [],
      "stateMutability": "nonpayable",
      "type": "function"
    },
    {
      "inputs": [
        {
          "internalType": "address",
          "name": "_remoteBridge",
          "type": "address"
        }
      ],
      "name": "setRemoteBridge",
      "outputs": [],
      "stateMutability": "nonpayable",
      "type": "function"
    },
    {
      "inputs": [
        {
          "internalType": "uint256",
          "name": "amount",
          "type": "uint256"
        }
      ],
      "name": "lock",
      "outputs": [],
      "stateMutability": "nonpayable",
      "type": "function"
    },
    {
      "inputs": [
        {
          "internalType": "address",
          "name": "user",
          "type": "address"
        },
        {
          "internalType": "uint256",
          "name": "amount",
          "type": "uint256"
        }
      ],
      "name": "unlock",
      "outputs": [],
      "stateMutability": "nonpayable",
      "type": "function"
    }
  ],
  "bytecode": "0x608060405234801562000010575f80fd5b5060405162000c5f38038062000c5f83398181016040528101906200003691906200022a565b805f73ffffffffffffffffffffffffffffffffffffffff168173ffffffffffffffffffffffffffffffffffffffff1603620000aa575f6040517f1e4fbdf7000000000000000000000000000000000000000000000000000000008152600401620000a1919062000280565b60405180910390fd5b620000bb816200010460201b60201c565b508160015f6101000a81548173ffffffffffffffffffffffffffffffffffffffff021916908373ffffffffffffffffffffffffffffffffffffffff16021790555050506200029b565b5f805f9054906101000a900473ffffffffffffffffffffffffffffffffffffffff169050815f806101000a81548173ffffffffffffffffffffffffffffffffffffffff021916908373ffffffffffffffffffffffffffffffffffffffff1602179055508173ffffffffffffffffffffffffffffffffffffffff168173ffffffffffffffffffffffffffffffffffffffff167f8be0079c531659141344cd1fd0a4f28419497f9722a3daafe3b4186f6b6457e060405160405180910390a35050565b5f80fd5b5f73ffffffffffffffffffffffffffffffffffffffff82169050919050565b5f620001f482620001c9565b9050919050565b6200020681620001e8565b811462000211575f80fd5b50565b5f815190506200022481620001fb565b92915050565b5f8060408385031215620002435762000242620001c5565b5b5f620002528582860162000214565b9250506020620002658582860162000214565b9150509250929050565b6200027a81620001e8565b82525050565b5f602082019050620002955f8301846200026f565b92915050565b6109b680620002a95f395ff3fe608060405234801561000f575f80fd5b5060043610610086575f3560e01c8063c97123bb11610059578063c97123bb146100ea578063dd46706414610108578063f2fde38b14610124578063fc0c546a1461014057610086565b806316ce81491461008a578063715018a6146100a65780637eee288d146100b05780638da5cb5b146100cc575b5f80fd5b6100a4600480360381019061009f91906106c1565b61015e565b005b6100ae6101a9565b005b6100ca60048036038101906100c5919061071f565b6101bc565b005b6100d46102f1565b6040516100e1919061076c565b60405180910390f35b6100f2610318565b6040516100ff919061076c565b60405180910390f35b610122600480360381019061011d9190610785565b61033d565b005b61013e600480360381019061013991906106c1565b61046b565b005b6101486104ef565b604051610155919061080b565b60405180910390f35b610166610514565b8060025f6101000a81548173ffffffffffffffffffffffffffffffffffffffff021916908373ffffffffffffffffffffffffffffffffffffffff16021790555050565b6101b1610514565b6101ba5f61059b565b565b6101c4610514565b60015f9054906101000a900473ffffffffffffffffffffffffffffffffffffffff1673ffffffffffffffffffffffffffffffffffffffff1663a9059cbb83836040518363ffffffff1660e01b8152600401610220929190610833565b6020604051808303815f875af115801561023c573d5f803e3d5ffd5b505050506040513d601f19601f82011682018060405250810190610260919061088f565b61029f576040517f08c379a000000000000000000000000000000000000000000000000000000000815260040161029690610914565b60405180910390fd5b8173ffffffffffffffffffffffffffffffffffffffff167f0f0bc5b519ddefdd8e5f9e6423433aa2b869738de2ae34d58ebc796fc749fa0d826040516102e59190610932565b60405180910390a25050565b5f805f9054906101000a900473ffffffffffffffffffffffffffffffffffffffff16905090565b60025f9054906101000a900473ffffffffffffffffffffffffffffffffffffffff1681565b60015f9054906101000a900473ffffffffffffffffffffffffffffffffffffffff1673ffffffffffffffffffffffffffffffffffffffff166323b872dd3330846040518463ffffffff1660e01b815260040161039b9392919061094b565b6020604051808303815f875af11580156103b7573d5f803e3d5ffd5b505050506040513d601f19601f820116820180604052508101906103db919061088f565b61041a576040517f08c379a000000000000000000000000000000000000000000000000000000000815260040161041190610914565b60405180910390fd5b3373ffffffffffffffffffffffffffffffffffffffff167f9f1ec8c880f76798e7b793325d625e9b60e4082a553c98f42b6cda368dd60008826040516104609190610932565b60405180910390a250565b610473610514565b5f73ffffffffffffffffffffffffffffffffffffffff168173ffffffffffffffffffffffffffffffffffffffff16036104e3575f6040517f1e4fbdf70000000000000000000000000000000000000000000000000000000081526004016104da919061076c565b60405180910390fd5b6104ec8161059b565b50565b60015f9054906101000a900473ffffffffffffffffffffffffffffffffffffffff1681565b61051c61065c565b73ffffffffffffffffffffffffffffffffffffffff1661053a6102f1565b73ffffffffffffffffffffffffffffffffffffffff16146105995761055d61065c565b6040517f118cdaa7000000000000000000000000000000000000000000000000000000008152600401610590919061076c565b60405180910390fd5b565b5f805f9054906101000a900473ffffffffffffffffffffffffffffffffffffffff169050815f806101000a81548173ffffffffffffffffffffffffffffffffffffffff021916908373ffffffffffffffffffffffffffffffffffffffff1602179055508173ffffffffffffffffffffffffffffffffffffffff168173ffffffffffffffffffffffffffffffffffffffff167f8be0079c531659141344cd1fd0a4f28419497f9722a3daafe3b4186f6b6457e060405160405180910390a35050565b5f33905090565b5f80fd5b5f73ffffffffffffffffffffffffffffffffffffffff82169050919050565b5f61069082610667565b9050919050565b6106a081610686565b81146106aa575f80fd5b50565b5f813590506106bb81610697565b92915050565b5f602082840312156106d6576106d5610663565b5b5f6106e3848285016106ad565b91505092915050565b5f819050919050565b6106fe816106ec565b8114610708575f80fd5b50565b5f81359050610719816106f5565b92915050565b5f806040838503121561073557610734610663565b5b5f610742858286016106ad565b92505060206107538582860161070b565b9150509250929050565b61076681610686565b82525050565b5f60208201905061077f5f83018461075d565b92915050565b5f6020828403121561079a57610799610663565b5b5f6107a78482850161070b565b91505092915050565b5f819050919050565b5f6107d36107ce6107c984610667565b6107b0565b610667565b9050919050565b5f6107e4826107b9565b9050919050565b5f6107f5826107da565b9050919050565b610805816107eb565b82525050565b5f60208201905061081e5f8301846107fc565b92915050565b61082d816106ec565b82525050565b5f6040820190506108465f83018561075d565b6108536020830184610824565b9392505050565b5f8115159050919050565b61086e8161085a565b8114610878575f80fd5b50565b5f8151905061088981610865565b92915050565b5f602082840312156108a4576108a3610663565b5b5f6108b18482850161087b565b91505092915050565b5f82825260208201905092915050565b7f5472616e73666572206661696c656400000000000000000000000000000000005f82015250565b5f6108fe600f836108ba565b9150610909826108ca565b602082019050919050565b5f6020820190508181035f83015261092b816108f2565b9050919050565b5f6020820190506109455f830184610824565b92915050565b5f60608201905061095e5f83018661075d565b61096b602083018561075d565b6109786040830184610824565b94935050505056fea2646970667358221220d846a009ca353e1861dc68c197295d9a875b9abe5ebf3e08de68de3f24886e3764736f6c63430008140033",
  "immutableReferences": {},
  "source": "// SPDX-License-Identifier: MIT\r\npragma solidity ^0.8.20;\r\n\r\nimport \"@openzeppelin/contracts/token/ERC20/IERC20.sol\";\r\nimport \"@openzeppelin/contracts/access/Ownable.sol\";\r\n\r\ninterface IERC20Mintable is IERC20 {\r\n    function mint(address to, uint256 amount) external;\r\n}\r\n\r\ncontract BridgeAmoy is Ownable {\r\n    IERC20Mintable public token;\r\n    address public remoteBridge;\r\n\r\n    event Locked(address indexed user, uint256 amount);\r\n    event Unlocked(address indexed user, uint256 amount);\r\n\r\n    constructor(address _token, address owner) Ownable(owner) {\r\n        token = IERC20Mintable(_token);\r\n    }\r\n\r\n    function setRemoteBridge(address _remoteBridge) external onlyOwner {\r\n        remoteBridge = _remoteBridge;\r\n    }\r\n\r\n    // Lock tokens on the source chain\r\n    function lock(uint256 amount) external {\r\n        require(token.transferFrom(msg.sender, address(this), amount), \"Transfer failed\");\r\n        emit Locked(msg.sender, amount);\r\n    }\r\n\r\n    // Unlock tokens on the source chain (called by the bridge on the destination chain)\r\n    function unlock(address user, uint256 amount) external onlyOwner {\r\n        require(token.transfer(user, amount), \"Transfer failed\");\r\n        emit Unlocked(user, amount);\r\n    }\r\n}",
  "sourcePath": "C:\\Users\\chanm\\Desktop\\HackIITK\\main\\iitkcyberhack\\ChallengeRound2\\cross-chain-bridge\\contracts\\BridgeAmoy.sol",
  "compiler": {
    "name": "solc",
    "version": "0.8.20+commit.a1b79de6.Emscripten.clang"
  },
  "schemaVersion": "3.4.16",
  "updatedAt": "2025-02-09T20:07:16.715Z",
  "networkType": "ethereum",
  "devdoc": {
    "errors": {
      "OwnableInvalidOwner(address)": [
        {
          "details": "The owner is not a valid owner account. (eg. `address(0)`)"
        }
      ],
      "OwnableUnauthorizedAccount(address)": [
        {
          "details": "The caller account is not authorized to perform an operation."
        }
      ]
    },
    "kind": "dev",
    "methods": {
      "owner()": {
        "details": "Returns the address of the current owner."
      },
      "renounceOwnership()": {
        "details": "Leaves the contract without owner. It will not be possible to call `onlyOwner` functions. Can only be called by the current owner. NOTE: Renouncing ownership will leave the contract without an owner, thereby disabling any functionality that is only available to the owner."
      },
      "transferOwnership(address)": {
        "details": "Transfers ownership of the contract to a new account (`newOwner`). Can only be called by the current owner."
      }
    },
    "version": 1
  },
  "userdoc": {
    "kind": "user",
    "methods": {},
    "version": 1
  }
}