{
  "contractName": "BridgeSepoliaNFT",
  "abi": [
    {
      "inputs": [
        {
          "internalType": "address",
          "name": "_wrappedNFT",
          "type": "address"
        },
        {
          "internalType": "address",
          "name": "owner",
          "type": "address"
        }
      ],
      "stateMutability": "nonpayable",
      "type": "constructor"
    },
    {
      "inputs": [
        {
          "internalType": "address",
          "name": "owner",
          "type": "address"
        }
      ],
      "name": "OwnableInvalidOwner",
      "type": "error"
    },
    {
      "inputs": [
        {
          "internalType": "address",
          "name": "account",
          "type": "address"
        }
      ],
      "name": "OwnableUnauthorizedAccount",
      "type": "error"
    },
    {
      "anonymous": false,
      "inputs": [
        {
          "indexed": true,
          "internalType": "address",
          "name": "user",
          "type": "address"
        },
        {
          "indexed": false,
          "internalType": "uint256",
          "name": "tokenId",
          "type": "uint256"
        }
      ],
      "name": "Burned",
      "type": "event"
    },
    {
      "anonymous": false,
      "inputs": [
        {
          "indexed": true,
          "internalType": "address",
          "name": "previousOwner",
          "type": "address"
        },
        {
          "indexed": true,
          "internalType": "address",
          "name": "newOwner",
          "type": "address"
        }
      ],
      "name": "OwnershipTransferred",
      "type": "event"
    },
    {
      "anonymous": false,
      "inputs": [
        {
          "indexed": true,
          "internalType": "address",
          "name": "user",
          "type": "address"
        },
        {
          "indexed": false,
          "internalType": "uint256",
          "name": "tokenId",
          "type": "uint256"
        }
      ],
      "name": "Released",
      "type": "event"
    },
    {
      "inputs": [],
      "name": "owner",
      "outputs": [
        {
          "internalType": "address",
          "name": "",
          "type": "address"
        }
      ],
      "stateMutability": "view",
      "type": "function",
      "constant": true
    },
    {
      "inputs": [],
      "name": "remoteBridge",
      "outputs": [
        {
          "internalType": "address",
          "name": "",
          "type": "address"
        }
      ],
      "stateMutability": "view",
      "type": "function",
      "constant": true
    },
    {
      "inputs": [],
      "name": "renounceOwnership",
      "outputs": [],
      "stateMutability": "nonpayable",
      "type": "function"
    },
    {
      "inputs": [
        {
          "internalType": "address",
          "name": "newOwner",
          "type": "address"
        }
      ],
      "name": "transferOwnership",
      "outputs": [],
      "stateMutability": "nonpayable",
      "type": "function"
    },
    {
      "inputs": [],
      "name": "wrappedNFT",
      "outputs": [
        {
          "internalType": "contract IERC721Mintable",
          "name": "",
          "type": "address"
        }
      ],
      "stateMutability": "view",
      "type": "function",
      "constant": true
    },
    {
      "inputs": [
        {
          "internalType": "address",
          "name": "_remoteBridge",
          "type": "address"
        }
      ],
      "name": "setRemoteBridge",
      "outputs": [],
      "stateMutability": "nonpayable",
      "type": "function"
    },
    {
      "inputs": [
        {
          "internalType": "address",
          "name": "user",
          "type": "address"
        },
        {
          "internalType": "uint256",
          "name": "tokenId",
          "type": "uint256"
        }
      ],
      "name": "release",
      "outputs": [],
      "stateMutability": "nonpayable",
      "type": "function"
    },
    {
      "inputs": [
        {
          "internalType": "uint256",
          "name": "tokenId",
          "type": "uint256"
        }
      ],
      "name": "burn",
      "outputs": [],
      "stateMutability": "nonpayable",
      "type": "function"
    }
  ],
  "bytecode": "0x608060405234801562000010575f80fd5b5060405162000c6738038062000c6783398181016040528101906200003691906200022a565b805f73ffffffffffffffffffffffffffffffffffffffff168173ffffffffffffffffffffffffffffffffffffffff1603620000aa575f6040517f1e4fbdf7000000000000000000000000000000000000000000000000000000008152600401620000a1919062000280565b60405180910390fd5b620000bb816200010460201b60201c565b508160015f6101000a81548173ffffffffffffffffffffffffffffffffffffffff021916908373ffffffffffffffffffffffffffffffffffffffff16021790555050506200029b565b5f805f9054906101000a900473ffffffffffffffffffffffffffffffffffffffff169050815f806101000a81548173ffffffffffffffffffffffffffffffffffffffff021916908373ffffffffffffffffffffffffffffffffffffffff1602179055508173ffffffffffffffffffffffffffffffffffffffff168173ffffffffffffffffffffffffffffffffffffffff167f8be0079c531659141344cd1fd0a4f28419497f9722a3daafe3b4186f6b6457e060405160405180910390a35050565b5f80fd5b5f73ffffffffffffffffffffffffffffffffffffffff82169050919050565b5f620001f482620001c9565b9050919050565b6200020681620001e8565b811462000211575f80fd5b50565b5f815190506200022481620001fb565b92915050565b5f8060408385031215620002435762000242620001c5565b5b5f620002528582860162000214565b9250506020620002658582860162000214565b9150509250929050565b6200027a81620001e8565b82525050565b5f602082019050620002955f8301846200026f565b92915050565b6109be80620002a95f395ff3fe608060405234801561000f575f80fd5b5060043610610086575f3560e01c8063715018a611610059578063715018a6146100fc5780638da5cb5b14610106578063c97123bb14610124578063f2fde38b1461014257610086565b80630357371d1461008a57806316ce8149146100a657806342966c68146100c2578063436e66aa146100de575b5f80fd5b6100a4600480360381019061009f9190610752565b61015e565b005b6100c060048036038101906100bb9190610790565b610241565b005b6100dc60048036038101906100d791906107bb565b61028c565b005b6100e661046a565b6040516100f39190610841565b60405180910390f35b61010461048f565b005b61010e6104a2565b60405161011b9190610869565b60405180910390f35b61012c6104c9565b6040516101399190610869565b60405180910390f35b61015c60048036038101906101579190610790565b6104ee565b005b610166610572565b60015f9054906101000a900473ffffffffffffffffffffffffffffffffffffffff1673ffffffffffffffffffffffffffffffffffffffff166340c10f1983836040518363ffffffff1660e01b81526004016101c2929190610891565b5f604051808303815f87803b1580156101d9575f80fd5b505af11580156101eb573d5f803e3d5ffd5b505050508173ffffffffffffffffffffffffffffffffffffffff167fb21fb52d5749b80f3182f8c6992236b5e5576681880914484d7f4c9b062e619e8260405161023591906108b8565b60405180910390a25050565b610249610572565b8060025f6101000a81548173ffffffffffffffffffffffffffffffffffffffff021916908373ffffffffffffffffffffffffffffffffffffffff16021790555050565b3373ffffffffffffffffffffffffffffffffffffffff1660015f9054906101000a900473ffffffffffffffffffffffffffffffffffffffff1673ffffffffffffffffffffffffffffffffffffffff16636352211e836040518263ffffffff1660e01b81526004016102fd91906108b8565b602060405180830381865afa158015610318573d5f803e3d5ffd5b505050506040513d601f19601f8201168201806040525081019061033c91906108e5565b73ffffffffffffffffffffffffffffffffffffffff1614610392576040517f08c379a00000000000000000000000000000000000000000000000000000000081526004016103899061096a565b60405180910390fd5b60015f9054906101000a900473ffffffffffffffffffffffffffffffffffffffff1673ffffffffffffffffffffffffffffffffffffffff166342966c68826040518263ffffffff1660e01b81526004016103ec91906108b8565b5f604051808303815f87803b158015610403575f80fd5b505af1158015610415573d5f803e3d5ffd5b505050503373ffffffffffffffffffffffffffffffffffffffff167f696de425f79f4a40bc6d2122ca50507f0efbeabbff86a84871b7196ab8ea8df78260405161045f91906108b8565b60405180910390a250565b60015f9054906101000a900473ffffffffffffffffffffffffffffffffffffffff1681565b610497610572565b6104a05f6105f9565b565b5f805f9054906101000a900473ffffffffffffffffffffffffffffffffffffffff16905090565b60025f9054906101000a900473ffffffffffffffffffffffffffffffffffffffff1681565b6104f6610572565b5f73ffffffffffffffffffffffffffffffffffffffff168173ffffffffffffffffffffffffffffffffffffffff1603610566575f6040517f1e4fbdf700000000000000000000000000000000000000000000000000000000815260040161055d9190610869565b60405180910390fd5b61056f816105f9565b50565b61057a6106ba565b73ffffffffffffffffffffffffffffffffffffffff166105986104a2565b73ffffffffffffffffffffffffffffffffffffffff16146105f7576105bb6106ba565b6040517f118cdaa70000000000000000000000000000000000000000000000000000000081526004016105ee9190610869565b60405180910390fd5b565b5f805f9054906101000a900473ffffffffffffffffffffffffffffffffffffffff169050815f806101000a81548173ffffffffffffffffffffffffffffffffffffffff021916908373ffffffffffffffffffffffffffffffffffffffff1602179055508173ffffffffffffffffffffffffffffffffffffffff168173ffffffffffffffffffffffffffffffffffffffff167f8be0079c531659141344cd1fd0a4f28419497f9722a3daafe3b4186f6b6457e060405160405180910390a35050565b5f33905090565b5f80fd5b5f73ffffffffffffffffffffffffffffffffffffffff82169050919050565b5f6106ee826106c5565b9050919050565b6106fe816106e4565b8114610708575f80fd5b50565b5f81359050610719816106f5565b92915050565b5f819050919050565b6107318161071f565b811461073b575f80fd5b50565b5f8135905061074c81610728565b92915050565b5f8060408385031215610768576107676106c1565b5b5f6107758582860161070b565b92505060206107868582860161073e565b9150509250929050565b5f602082840312156107a5576107a46106c1565b5b5f6107b28482850161070b565b91505092915050565b5f602082840312156107d0576107cf6106c1565b5b5f6107dd8482850161073e565b91505092915050565b5f819050919050565b5f6108096108046107ff846106c5565b6107e6565b6106c5565b9050919050565b5f61081a826107ef565b9050919050565b5f61082b82610810565b9050919050565b61083b81610821565b82525050565b5f6020820190506108545f830184610832565b92915050565b610863816106e4565b82525050565b5f60208201905061087c5f83018461085a565b92915050565b61088b8161071f565b82525050565b5f6040820190506108a45f83018561085a565b6108b16020830184610882565b9392505050565b5f6020820190506108cb5f830184610882565b92915050565b5f815190506108df816106f5565b92915050565b5f602082840312156108fa576108f96106c1565b5b5f610907848285016108d1565b91505092915050565b5f82825260208201905092915050565b7f4e6f7420746f6b656e206f776e657200000000000000000000000000000000005f82015250565b5f610954600f83610910565b915061095f82610920565b602082019050919050565b5f6020820190508181035f83015261098181610948565b905091905056fea2646970667358221220f9a66652b06262644bab0941173b431ef02d92c0405a8f9c734f4e9f3046f57b64736f6c63430008140033",
  "immutableReferences": {},
  "source": "// SPDX-License-Identifier: MIT\r\npragma solidity ^0.8.20;\r\n\r\nimport \"@openzeppelin/contracts/token/ERC721/IERC721.sol\";\r\nimport \"@openzeppelin/contracts/access/Ownable.sol\";\r\n\r\ninterface IERC721Mintable is IERC721 {\r\n    function mint(address to, uint256 tokenId) external;\r\n    function burn(uint256 tokenId) external;\r\n}\r\n\r\ncontract BridgeSepoliaNFT is Ownable {\r\n    IERC721Mintable public wrappedNFT;\r\n    address public remoteBridge;\r\n\r\n    event Released(address indexed user, uint256 tokenId);\r\n    event Burned(address indexed user, uint256 tokenId);\r\n\r\n    constructor(address _wrappedNFT, address owner) Ownable(owner) {\r\n        wrappedNFT = IERC721Mintable(_wrappedNFT);\r\n    }\r\n\r\n    function setRemoteBridge(address _remoteBridge) external onlyOwner {\r\n        remoteBridge = _remoteBridge;\r\n    }\r\n\r\n    // Release wrapped NFT on the destination chain\r\n    function release(address user, uint256 tokenId) external onlyOwner {\r\n        wrappedNFT.mint(user, tokenId);\r\n        emit Released(user, tokenId);\r\n    }\r\n\r\n    // Burn wrapped NFT on the destination chain\r\n    function burn(uint256 tokenId) external {\r\n        require(wrappedNFT.ownerOf(tokenId) == msg.sender, \"Not token owner\");\r\n        wrappedNFT.burn(tokenId);\r\n        emit Burned(msg.sender, tokenId);\r\n    }\r\n}",
  "sourcePath": "C:\\Users\\chanm\\Desktop\\HackIITK\\main\\iitkcyberhack\\ChallengeRound2\\cross-chain-bridge\\contracts\\BridgeSepoliaNFT.sol",
  "compiler": {
    "name": "solc",
    "version": "0.8.20+commit.a1b79de6.Emscripten.clang"
  },
  "schemaVersion": "3.4.16",
  "updatedAt": "2025-02-09T20:07:18.614Z",
  "networkType": "ethereum",
  "devdoc": {
    "errors": {
      "OwnableInvalidOwner(address)": [
        {
          "details": "The owner is not a valid owner account. (eg. `address(0)`)"
        }
      ],
      "OwnableUnauthorizedAccount(address)": [
        {
          "details": "The caller account is not authorized to perform an operation."
        }
      ]
    },
    "kind": "dev",
    "methods": {
      "owner()": {
        "details": "Returns the address of the current owner."
      },
      "renounceOwnership()": {
        "details": "Leaves the contract without owner. It will not be possible to call `onlyOwner` functions. Can only be called by the current owner. NOTE: Renouncing ownership will leave the contract without an owner, thereby disabling any functionality that is only available to the owner."
      },
      "transferOwnership(address)": {
        "details": "Transfers ownership of the contract to a new account (`newOwner`). Can only be called by the current owner."
      }
    },
    "version": 1
  },
  "userdoc": {
    "kind": "user",
    "methods": {},
    "version": 1
  }
}