{
  "contractName": "BridgeSepolia",
  "abi": [
    {
      "inputs": [
        {
          "internalType": "address",
          "name": "_wrappedToken",
          "type": "address"
        },
        {
          "internalType": "address",
          "name": "owner",
          "type": "address"
        }
      ],
      "stateMutability": "nonpayable",
      "type": "constructor"
    },
    {
      "inputs": [
        {
          "internalType": "address",
          "name": "owner",
          "type": "address"
        }
      ],
      "name": "OwnableInvalidOwner",
      "type": "error"
    },
    {
      "inputs": [
        {
          "internalType": "address",
          "name": "account",
          "type": "address"
        }
      ],
      "name": "OwnableUnauthorizedAccount",
      "type": "error"
    },
    {
      "anonymous": false,
      "inputs": [
        {
          "indexed": true,
          "internalType": "address",
          "name": "user",
          "type": "address"
        },
        {
          "indexed": false,
          "internalType": "uint256",
          "name": "amount",
          "type": "uint256"
        }
      ],
      "name": "Burned",
      "type": "event"
    },
    {
      "anonymous": false,
      "inputs": [
        {
          "indexed": true,
          "internalType": "address",
          "name": "previousOwner",
          "type": "address"
        },
        {
          "indexed": true,
          "internalType": "address",
          "name": "newOwner",
          "type": "address"
        }
      ],
      "name": "OwnershipTransferred",
      "type": "event"
    },
    {
      "anonymous": false,
      "inputs": [
        {
          "indexed": true,
          "internalType": "address",
          "name": "user",
          "type": "address"
        },
        {
          "indexed": false,
          "internalType": "uint256",
          "name": "amount",
          "type": "uint256"
        }
      ],
      "name": "Released",
      "type": "event"
    },
    {
      "inputs": [],
      "name": "owner",
      "outputs": [
        {
          "internalType": "address",
          "name": "",
          "type": "address"
        }
      ],
      "stateMutability": "view",
      "type": "function",
      "constant": true
    },
    {
      "inputs": [],
      "name": "remoteBridge",
      "outputs": [
        {
          "internalType": "address",
          "name": "",
          "type": "address"
        }
      ],
      "stateMutability": "view",
      "type": "function",
      "constant": true
    },
    {
      "inputs": [],
      "name": "renounceOwnership",
      "outputs": [],
      "stateMutability": "nonpayable",
      "type": "function"
    },
    {
      "inputs": [
        {
          "internalType": "address",
          "name": "newOwner",
          "type": "address"
        }
      ],
      "name": "transferOwnership",
      "outputs": [],
      "stateMutability": "nonpayable",
      "type": "function"
    },
    {
      "inputs": [],
      "name": "wrappedToken",
      "outputs": [
        {
          "internalType": "contract IERC20Mintable",
          "name": "",
          "type": "address"
        }
      ],
      "stateMutability": "view",
      "type": "function",
      "constant": true
    },
    {
      "inputs": [
        {
          "internalType": "address",
          "name": "_remoteBridge",
          "type": "address"
        }
      ],
      "name": "setRemoteBridge",
      "outputs": [],
      "stateMutability": "nonpayable",
      "type": "function"
    },
    {
      "inputs": [
        {
          "internalType": "address",
          "name": "user",
          "type": "address"
        },
        {
          "internalType": "uint256",
          "name": "amount",
          "type": "uint256"
        }
      ],
      "name": "release",
      "outputs": [],
      "stateMutability": "nonpayable",
      "type": "function"
    },
    {
      "inputs": [
        {
          "internalType": "uint256",
          "name": "amount",
          "type": "uint256"
        }
      ],
      "name": "burn",
      "outputs": [],
      "stateMutability": "nonpayable",
      "type": "function"
    }
  ],
  "bytecode": "0x608060405234801562000010575f80fd5b5060405162000c9638038062000c9683398181016040528101906200003691906200022a565b805f73ffffffffffffffffffffffffffffffffffffffff168173ffffffffffffffffffffffffffffffffffffffff1603620000aa575f6040517f1e4fbdf7000000000000000000000000000000000000000000000000000000008152600401620000a1919062000280565b60405180910390fd5b620000bb816200010460201b60201c565b508160015f6101000a81548173ffffffffffffffffffffffffffffffffffffffff021916908373ffffffffffffffffffffffffffffffffffffffff16021790555050506200029b565b5f805f9054906101000a900473ffffffffffffffffffffffffffffffffffffffff169050815f806101000a81548173ffffffffffffffffffffffffffffffffffffffff021916908373ffffffffffffffffffffffffffffffffffffffff1602179055508173ffffffffffffffffffffffffffffffffffffffff168173ffffffffffffffffffffffffffffffffffffffff167f8be0079c531659141344cd1fd0a4f28419497f9722a3daafe3b4186f6b6457e060405160405180910390a35050565b5f80fd5b5f73ffffffffffffffffffffffffffffffffffffffff82169050919050565b5f620001f482620001c9565b9050919050565b6200020681620001e8565b811462000211575f80fd5b50565b5f815190506200022481620001fb565b92915050565b5f8060408385031215620002435762000242620001c5565b5b5f620002528582860162000214565b9250506020620002658582860162000214565b9150509250929050565b6200027a81620001e8565b82525050565b5f602082019050620002955f8301846200026f565b92915050565b6109ed80620002a95f395ff3fe608060405234801561000f575f80fd5b5060043610610086575f3560e01c80638da5cb5b116100595780638da5cb5b146100e8578063996c6cc314610106578063c97123bb14610124578063f2fde38b1461014257610086565b80630357371d1461008a57806316ce8149146100a657806342966c68146100c2578063715018a6146100de575b5f80fd5b6100a4600480360381019061009f919061072b565b61015e565b005b6100c060048036038101906100bb9190610769565b610241565b005b6100dc60048036038101906100d79190610794565b61028c565b005b6100e6610443565b005b6100f0610456565b6040516100fd91906107ce565b60405180910390f35b61010e61047d565b60405161011b9190610842565b60405180910390f35b61012c6104a2565b60405161013991906107ce565b60405180910390f35b61015c60048036038101906101579190610769565b6104c7565b005b61016661054b565b60015f9054906101000a900473ffffffffffffffffffffffffffffffffffffffff1673ffffffffffffffffffffffffffffffffffffffff166340c10f1983836040518363ffffffff1660e01b81526004016101c292919061086a565b5f604051808303815f87803b1580156101d9575f80fd5b505af11580156101eb573d5f803e3d5ffd5b505050508173ffffffffffffffffffffffffffffffffffffffff167fb21fb52d5749b80f3182f8c6992236b5e5576681880914484d7f4c9b062e619e826040516102359190610891565b60405180910390a25050565b61024961054b565b8060025f6101000a81548173ffffffffffffffffffffffffffffffffffffffff021916908373ffffffffffffffffffffffffffffffffffffffff16021790555050565b60015f9054906101000a900473ffffffffffffffffffffffffffffffffffffffff1673ffffffffffffffffffffffffffffffffffffffff166323b872dd3330846040518463ffffffff1660e01b81526004016102ea939291906108aa565b6020604051808303815f875af1158015610306573d5f803e3d5ffd5b505050506040513d601f19601f8201168201806040525081019061032a9190610914565b610369576040517f08c379a000000000000000000000000000000000000000000000000000000000815260040161036090610999565b60405180910390fd5b60015f9054906101000a900473ffffffffffffffffffffffffffffffffffffffff1673ffffffffffffffffffffffffffffffffffffffff16639dc29fac30836040518363ffffffff1660e01b81526004016103c592919061086a565b5f604051808303815f87803b1580156103dc575f80fd5b505af11580156103ee573d5f803e3d5ffd5b505050503373ffffffffffffffffffffffffffffffffffffffff167f696de425f79f4a40bc6d2122ca50507f0efbeabbff86a84871b7196ab8ea8df7826040516104389190610891565b60405180910390a250565b61044b61054b565b6104545f6105d2565b565b5f805f9054906101000a900473ffffffffffffffffffffffffffffffffffffffff16905090565b60015f9054906101000a900473ffffffffffffffffffffffffffffffffffffffff1681565b60025f9054906101000a900473ffffffffffffffffffffffffffffffffffffffff1681565b6104cf61054b565b5f73ffffffffffffffffffffffffffffffffffffffff168173ffffffffffffffffffffffffffffffffffffffff160361053f575f6040517f1e4fbdf700000000000000000000000000000000000000000000000000000000815260040161053691906107ce565b60405180910390fd5b610548816105d2565b50565b610553610693565b73ffffffffffffffffffffffffffffffffffffffff16610571610456565b73ffffffffffffffffffffffffffffffffffffffff16146105d057610594610693565b6040517f118cdaa70000000000000000000000000000000000000000000000000000000081526004016105c791906107ce565b60405180910390fd5b565b5f805f9054906101000a900473ffffffffffffffffffffffffffffffffffffffff169050815f806101000a81548173ffffffffffffffffffffffffffffffffffffffff021916908373ffffffffffffffffffffffffffffffffffffffff1602179055508173ffffffffffffffffffffffffffffffffffffffff168173ffffffffffffffffffffffffffffffffffffffff167f8be0079c531659141344cd1fd0a4f28419497f9722a3daafe3b4186f6b6457e060405160405180910390a35050565b5f33905090565b5f80fd5b5f73ffffffffffffffffffffffffffffffffffffffff82169050919050565b5f6106c78261069e565b9050919050565b6106d7816106bd565b81146106e1575f80fd5b50565b5f813590506106f2816106ce565b92915050565b5f819050919050565b61070a816106f8565b8114610714575f80fd5b50565b5f8135905061072581610701565b92915050565b5f80604083850312156107415761074061069a565b5b5f61074e858286016106e4565b925050602061075f85828601610717565b9150509250929050565b5f6020828403121561077e5761077d61069a565b5b5f61078b848285016106e4565b91505092915050565b5f602082840312156107a9576107a861069a565b5b5f6107b684828501610717565b91505092915050565b6107c8816106bd565b82525050565b5f6020820190506107e15f8301846107bf565b92915050565b5f819050919050565b5f61080a6108056108008461069e565b6107e7565b61069e565b9050919050565b5f61081b826107f0565b9050919050565b5f61082c82610811565b9050919050565b61083c81610822565b82525050565b5f6020820190506108555f830184610833565b92915050565b610864816106f8565b82525050565b5f60408201905061087d5f8301856107bf565b61088a602083018461085b565b9392505050565b5f6020820190506108a45f83018461085b565b92915050565b5f6060820190506108bd5f8301866107bf565b6108ca60208301856107bf565b6108d7604083018461085b565b949350505050565b5f8115159050919050565b6108f3816108df565b81146108fd575f80fd5b50565b5f8151905061090e816108ea565b92915050565b5f602082840312156109295761092861069a565b5b5f61093684828501610900565b91505092915050565b5f82825260208201905092915050565b7f5472616e73666572206661696c656400000000000000000000000000000000005f82015250565b5f610983600f8361093f565b915061098e8261094f565b602082019050919050565b5f6020820190508181035f8301526109b081610977565b905091905056fea2646970667358221220dd8d78bc78c2257a2f914312ac6e2dab7d3d457a01e5ae67b1c31a7b8097853c64736f6c63430008140033",
  "immutableReferences": {},
  "source": "// SPDX-License-Identifier: MIT\r\npragma solidity ^0.8.20;\r\n\r\nimport \"@openzeppelin/contracts/token/ERC20/IERC20.sol\";\r\nimport \"@openzeppelin/contracts/access/Ownable.sol\";\r\n\r\n// Define interfaces for mintable and burnable ERC20 tokens\r\ninterface IERC20Mintable is IERC20 {\r\n    function mint(address to, uint256 amount) external;\r\n}\r\n\r\ninterface IERC20Burnable is IERC20 {\r\n    function burn(address from, uint256 amount) external;\r\n}\r\n\r\ncontract BridgeSepolia is Ownable {\r\n    IERC20Mintable public wrappedToken; // Use IERC20Mintable for minting\r\n    address public remoteBridge;\r\n\r\n    event Released(address indexed user, uint256 amount);\r\n    event Burned(address indexed user, uint256 amount);\r\n\r\n    constructor(address _wrappedToken, address owner) Ownable(owner) {\r\n        wrappedToken = IERC20Mintable(_wrappedToken); // Initialize with IERC20Mintable\r\n    }\r\n\r\n    function setRemoteBridge(address _remoteBridge) external onlyOwner {\r\n        remoteBridge = _remoteBridge;\r\n    }\r\n\r\n    // Release wrapped tokens on the destination chain (called by the bridge on the source chain)\r\n    function release(address user, uint256 amount) external onlyOwner {\r\n        wrappedToken.mint(user, amount); // Mint wrapped tokens\r\n        emit Released(user, amount);\r\n    }\r\n\r\n    // Burn wrapped tokens on the destination chain\r\n    function burn(uint256 amount) external {\r\n        require(wrappedToken.transferFrom(msg.sender, address(this), amount), \"Transfer failed\");\r\n        IERC20Burnable(address(wrappedToken)).burn(address(this), amount); // Burn wrapped tokens\r\n        emit Burned(msg.sender, amount);\r\n    }\r\n}",
  "sourcePath": "C:\\Users\\chanm\\Desktop\\HackIITK\\main\\iitkcyberhack\\ChallengeRound2\\cross-chain-bridge\\contracts\\BridgeSepolia.sol",
  "compiler": {
    "name": "solc",
    "version": "0.8.20+commit.a1b79de6.Emscripten.clang"
  },
  "schemaVersion": "3.4.16",
  "updatedAt": "2025-02-09T20:07:17.512Z",
  "networkType": "ethereum",
  "devdoc": {
    "errors": {
      "OwnableInvalidOwner(address)": [
        {
          "details": "The owner is not a valid owner account. (eg. `address(0)`)"
        }
      ],
      "OwnableUnauthorizedAccount(address)": [
        {
          "details": "The caller account is not authorized to perform an operation."
        }
      ]
    },
    "kind": "dev",
    "methods": {
      "owner()": {
        "details": "Returns the address of the current owner."
      },
      "renounceOwnership()": {
        "details": "Leaves the contract without owner. It will not be possible to call `onlyOwner` functions. Can only be called by the current owner. NOTE: Renouncing ownership will leave the contract without an owner, thereby disabling any functionality that is only available to the owner."
      },
      "transferOwnership(address)": {
        "details": "Transfers ownership of the contract to a new account (`newOwner`). Can only be called by the current owner."
      }
    },
    "version": 1
  },
  "userdoc": {
    "kind": "user",
    "methods": {},
    "version": 1
  }
}