{
  "contractName": "WrappedNFT",
  "abi": [
    {
      "inputs": [
        {
          "internalType": "string",
          "name": "name",
          "type": "string"
        },
        {
          "internalType": "string",
          "name": "symbol",
          "type": "string"
        },
        {
          "internalType": "address",
          "name": "owner",
          "type": "address"
        }
      ],
      "stateMutability": "nonpayable",
      "type": "constructor"
    },
    {
      "inputs": [
        {
          "internalType": "address",
          "name": "sender",
          "type": "address"
        },
        {
          "internalType": "uint256",
          "name": "tokenId",
          "type": "uint256"
        },
        {
          "internalType": "address",
          "name": "owner",
          "type": "address"
        }
      ],
      "name": "ERC721IncorrectOwner",
      "type": "error"
    },
    {
      "inputs": [
        {
          "internalType": "address",
          "name": "operator",
          "type": "address"
        },
        {
          "internalType": "uint256",
          "name": "tokenId",
          "type": "uint256"
        }
      ],
      "name": "ERC721InsufficientApproval",
      "type": "error"
    },
    {
      "inputs": [
        {
          "internalType": "address",
          "name": "approver",
          "type": "address"
        }
      ],
      "name": "ERC721InvalidApprover",
      "type": "error"
    },
    {
      "inputs": [
        {
          "internalType": "address",
          "name": "operator",
          "type": "address"
        }
      ],
      "name": "ERC721InvalidOperator",
      "type": "error"
    },
    {
      "inputs": [
        {
          "internalType": "address",
          "name": "owner",
          "type": "address"
        }
      ],
      "name": "ERC721InvalidOwner",
      "type": "error"
    },
    {
      "inputs": [
        {
          "internalType": "address",
          "name": "receiver",
          "type": "address"
        }
      ],
      "name": "ERC721InvalidReceiver",
      "type": "error"
    },
    {
      "inputs": [
        {
          "internalType": "address",
          "name": "sender",
          "type": "address"
        }
      ],
      "name": "ERC721InvalidSender",
      "type": "error"
    },
    {
      "inputs": [
        {
          "internalType": "uint256",
          "name": "tokenId",
          "type": "uint256"
        }
      ],
      "name": "ERC721NonexistentToken",
      "type": "error"
    },
    {
      "inputs": [
        {
          "internalType": "address",
          "name": "owner",
          "type": "address"
        }
      ],
      "name": "OwnableInvalidOwner",
      "type": "error"
    },
    {
      "inputs": [
        {
          "internalType": "address",
          "name": "account",
          "type": "address"
        }
      ],
      "name": "OwnableUnauthorizedAccount",
      "type": "error"
    },
    {
      "anonymous": false,
      "inputs": [
        {
          "indexed": true,
          "internalType": "address",
          "name": "owner",
          "type": "address"
        },
        {
          "indexed": true,
          "internalType": "address",
          "name": "approved",
          "type": "address"
        },
        {
          "indexed": true,
          "internalType": "uint256",
          "name": "tokenId",
          "type": "uint256"
        }
      ],
      "name": "Approval",
      "type": "event"
    },
    {
      "anonymous": false,
      "inputs": [
        {
          "indexed": true,
          "internalType": "address",
          "name": "owner",
          "type": "address"
        },
        {
          "indexed": true,
          "internalType": "address",
          "name": "operator",
          "type": "address"
        },
        {
          "indexed": false,
          "internalType": "bool",
          "name": "approved",
          "type": "bool"
        }
      ],
      "name": "ApprovalForAll",
      "type": "event"
    },
    {
      "anonymous": false,
      "inputs": [
        {
          "indexed": true,
          "internalType": "address",
          "name": "previousOwner",
          "type": "address"
        },
        {
          "indexed": true,
          "internalType": "address",
          "name": "newOwner",
          "type": "address"
        }
      ],
      "name": "OwnershipTransferred",
      "type": "event"
    },
    {
      "anonymous": false,
      "inputs": [
        {
          "indexed": true,
          "internalType": "address",
          "name": "from",
          "type": "address"
        },
        {
          "indexed": true,
          "internalType": "address",
          "name": "to",
          "type": "address"
        },
        {
          "indexed": true,
          "internalType": "uint256",
          "name": "tokenId",
          "type": "uint256"
        }
      ],
      "name": "Transfer",
      "type": "event"
    },
    {
      "inputs": [
        {
          "internalType": "address",
          "name": "to",
          "type": "address"
        },
        {
          "internalType": "uint256",
          "name": "tokenId",
          "type": "uint256"
        }
      ],
      "name": "approve",
      "outputs": [],
      "stateMutability": "nonpayable",
      "type": "function"
    },
    {
      "inputs": [
        {
          "internalType": "address",
          "name": "owner",
          "type": "address"
        }
      ],
      "name": "balanceOf",
      "outputs": [
        {
          "internalType": "uint256",
          "name": "",
          "type": "uint256"
        }
      ],
      "stateMutability": "view",
      "type": "function",
      "constant": true
    },
    {
      "inputs": [
        {
          "internalType": "uint256",
          "name": "tokenId",
          "type": "uint256"
        }
      ],
      "name": "getApproved",
      "outputs": [
        {
          "internalType": "address",
          "name": "",
          "type": "address"
        }
      ],
      "stateMutability": "view",
      "type": "function",
      "constant": true
    },
    {
      "inputs": [
        {
          "internalType": "address",
          "name": "owner",
          "type": "address"
        },
        {
          "internalType": "address",
          "name": "operator",
          "type": "address"
        }
      ],
      "name": "isApprovedForAll",
      "outputs": [
        {
          "internalType": "bool",
          "name": "",
          "type": "bool"
        }
      ],
      "stateMutability": "view",
      "type": "function",
      "constant": true
    },
    {
      "inputs": [],
      "name": "name",
      "outputs": [
        {
          "internalType": "string",
          "name": "",
          "type": "string"
        }
      ],
      "stateMutability": "view",
      "type": "function",
      "constant": true
    },
    {
      "inputs": [],
      "name": "owner",
      "outputs": [
        {
          "internalType": "address",
          "name": "",
          "type": "address"
        }
      ],
      "stateMutability": "view",
      "type": "function",
      "constant": true
    },
    {
      "inputs": [
        {
          "internalType": "uint256",
          "name": "tokenId",
          "type": "uint256"
        }
      ],
      "name": "ownerOf",
      "outputs": [
        {
          "internalType": "address",
          "name": "",
          "type": "address"
        }
      ],
      "stateMutability": "view",
      "type": "function",
      "constant": true
    },
    {
      "inputs": [],
      "name": "renounceOwnership",
      "outputs": [],
      "stateMutability": "nonpayable",
      "type": "function"
    },
    {
      "inputs": [
        {
          "internalType": "address",
          "name": "from",
          "type": "address"
        },
        {
          "internalType": "address",
          "name": "to",
          "type": "address"
        },
        {
          "internalType": "uint256",
          "name": "tokenId",
          "type": "uint256"
        }
      ],
      "name": "safeTransferFrom",
      "outputs": [],
      "stateMutability": "nonpayable",
      "type": "function"
    },
    {
      "inputs": [
        {
          "internalType": "address",
          "name": "from",
          "type": "address"
        },
        {
          "internalType": "address",
          "name": "to",
          "type": "address"
        },
        {
          "internalType": "uint256",
          "name": "tokenId",
          "type": "uint256"
        },
        {
          "internalType": "bytes",
          "name": "data",
          "type": "bytes"
        }
      ],
      "name": "safeTransferFrom",
      "outputs": [],
      "stateMutability": "nonpayable",
      "type": "function"
    },
    {
      "inputs": [
        {
          "internalType": "address",
          "name": "operator",
          "type": "address"
        },
        {
          "internalType": "bool",
          "name": "approved",
          "type": "bool"
        }
      ],
      "name": "setApprovalForAll",
      "outputs": [],
      "stateMutability": "nonpayable",
      "type": "function"
    },
    {
      "inputs": [
        {
          "internalType": "bytes4",
          "name": "interfaceId",
          "type": "bytes4"
        }
      ],
      "name": "supportsInterface",
      "outputs": [
        {
          "internalType": "bool",
          "name": "",
          "type": "bool"
        }
      ],
      "stateMutability": "view",
      "type": "function",
      "constant": true
    },
    {
      "inputs": [],
      "name": "symbol",
      "outputs": [
        {
          "internalType": "string",
          "name": "",
          "type": "string"
        }
      ],
      "stateMutability": "view",
      "type": "function",
      "constant": true
    },
    {
      "inputs": [
        {
          "internalType": "uint256",
          "name": "tokenId",
          "type": "uint256"
        }
      ],
      "name": "tokenURI",
      "outputs": [
        {
          "internalType": "string",
          "name": "",
          "type": "string"
        }
      ],
      "stateMutability": "view",
      "type": "function",
      "constant": true
    },
    {
      "inputs": [
        {
          "internalType": "address",
          "name": "from",
          "type": "address"
        },
        {
          "internalType": "address",
          "name": "to",
          "type": "address"
        },
        {
          "internalType": "uint256",
          "name": "tokenId",
          "type": "uint256"
        }
      ],
      "name": "transferFrom",
      "outputs": [],
      "stateMutability": "nonpayable",
      "type": "function"
    },
    {
      "inputs": [
        {
          "internalType": "address",
          "name": "newOwner",
          "type": "address"
        }
      ],
      "name": "transferOwnership",
      "outputs": [],
      "stateMutability": "nonpayable",
      "type": "function"
    },
    {
      "inputs": [
        {
          "internalType": "address",
          "name": "to",
          "type": "address"
        },
        {
          "internalType": "uint256",
          "name": "tokenId",
          "type": "uint256"
        }
      ],
      "name": "mint",
      "outputs": [],
      "stateMutability": "nonpayable",
      "type": "function"
    },
    {
      "inputs": [
        {
          "internalType": "uint256",
          "name": "tokenId",
          "type": "uint256"
        }
      ],
      "name": "burn",
      "outputs": [],
      "stateMutability": "nonpayable",
      "type": "function"
    }
  ],
  "bytecode": "0x608060405234801562000010575f80fd5b506040516200280c3803806200280c833981810160405281019062000036919062000395565b808383815f908162000049919062000663565b5080600190816200005b919062000663565b5050505f73ffffffffffffffffffffffffffffffffffffffff168173ffffffffffffffffffffffffffffffffffffffff1603620000d1575f6040517f1e4fbdf7000000000000000000000000000000000000000000000000000000008152600401620000c8919062000758565b60405180910390fd5b620000e281620000ec60201b60201c565b5050505062000773565b5f60065f9054906101000a900473ffffffffffffffffffffffffffffffffffffffff1690508160065f6101000a81548173ffffffffffffffffffffffffffffffffffffffff021916908373ffffffffffffffffffffffffffffffffffffffff1602179055508173ffffffffffffffffffffffffffffffffffffffff168173ffffffffffffffffffffffffffffffffffffffff167f8be0079c531659141344cd1fd0a4f28419497f9722a3daafe3b4186f6b6457e060405160405180910390a35050565b5f604051905090565b5f80fd5b5f80fd5b5f80fd5b5f80fd5b5f601f19601f8301169050919050565b7f4e487b71000000000000000000000000000000000000000000000000000000005f52604160045260245ffd5b6200021082620001c8565b810181811067ffffffffffffffff82111715620002325762000231620001d8565b5b80604052505050565b5f62000246620001af565b905062000254828262000205565b919050565b5f67ffffffffffffffff821115620002765762000275620001d8565b5b6200028182620001c8565b9050602081019050919050565b5f5b83811015620002ad57808201518184015260208101905062000290565b5f8484015250505050565b5f620002ce620002c88462000259565b6200023b565b905082815260208101848484011115620002ed57620002ec620001c4565b5b620002fa8482856200028e565b509392505050565b5f82601f830112620003195762000318620001c0565b5b81516200032b848260208601620002b8565b91505092915050565b5f73ffffffffffffffffffffffffffffffffffffffff82169050919050565b5f6200035f8262000334565b9050919050565b620003718162000353565b81146200037c575f80fd5b50565b5f815190506200038f8162000366565b92915050565b5f805f60608486031215620003af57620003ae620001b8565b5b5f84015167ffffffffffffffff811115620003cf57620003ce620001bc565b5b620003dd8682870162000302565b935050602084015167ffffffffffffffff811115620004015762000400620001bc565b5b6200040f8682870162000302565b925050604062000422868287016200037f565b9150509250925092565b5f81519050919050565b7f4e487b71000000000000000000000000000000000000000000000000000000005f52602260045260245ffd5b5f60028204905060018216806200047b57607f821691505b60208210810362000491576200049062000436565b5b50919050565b5f819050815f5260205f209050919050565b5f6020601f8301049050919050565b5f82821b905092915050565b5f60088302620004f57fffffffffffffffffffffffffffffffffffffffffffffffffffffffffffffffff82620004b8565b620005018683620004b8565b95508019841693508086168417925050509392505050565b5f819050919050565b5f819050919050565b5f6200054b620005456200053f8462000519565b62000522565b62000519565b9050919050565b5f819050919050565b62000566836200052b565b6200057e620005758262000552565b848454620004c4565b825550505050565b5f90565b6200059462000586565b620005a18184846200055b565b505050565b5b81811015620005c857620005bc5f826200058a565b600181019050620005a7565b5050565b601f8211156200061757620005e18162000497565b620005ec84620004a9565b81016020851015620005fc578190505b620006146200060b85620004a9565b830182620005a6565b50505b505050565b5f82821c905092915050565b5f620006395f19846008026200061c565b1980831691505092915050565b5f62000653838362000628565b9150826002028217905092915050565b6200066e826200042c565b67ffffffffffffffff8111156200068a5762000689620001d8565b5b62000696825462000463565b620006a3828285620005cc565b5f60209050601f831160018114620006d9575f8415620006c4578287015190505b620006d0858262000646565b8655506200073f565b601f198416620006e98662000497565b5f5b828110156200071257848901518255600182019150602085019450602081019050620006eb565b868310156200073257848901516200072e601f89168262000628565b8355505b6001600288020188555050505b505050505050565b620007528162000353565b82525050565b5f6020820190506200076d5f83018462000747565b92915050565b61208b80620007815f395ff3fe608060405234801561000f575f80fd5b5060043610610114575f3560e01c806370a08231116100a0578063a22cb4651161006f578063a22cb465146102c8578063b88d4fde146102e4578063c87b56dd14610300578063e985e9c514610330578063f2fde38b1461036057610114565b806370a0823114610252578063715018a6146102825780638da5cb5b1461028c57806395d89b41146102aa57610114565b806323b872dd116100e757806323b872dd146101b257806340c10f19146101ce57806342842e0e146101ea57806342966c68146102065780636352211e1461022257610114565b806301ffc9a71461011857806306fdde0314610148578063081812fc14610166578063095ea7b314610196575b5f80fd5b610132600480360381019061012d919061191c565b61037c565b60405161013f9190611961565b60405180910390f35b61015061045d565b60405161015d9190611a04565b60405180910390f35b610180600480360381019061017b9190611a57565b6104ec565b60405161018d9190611ac1565b60405180910390f35b6101b060048036038101906101ab9190611b04565b610507565b005b6101cc60048036038101906101c79190611b42565b61051d565b005b6101e860048036038101906101e39190611b04565b61061c565b005b61020460048036038101906101ff9190611b42565b610632565b005b610220600480360381019061021b9190611a57565b610651565b005b61023c60048036038101906102379190611a57565b610665565b6040516102499190611ac1565b60405180910390f35b61026c60048036038101906102679190611b92565b610676565b6040516102799190611bcc565b60405180910390f35b61028a61072c565b005b61029461073f565b6040516102a19190611ac1565b60405180910390f35b6102b2610767565b6040516102bf9190611a04565b60405180910390f35b6102e260048036038101906102dd9190611c0f565b6107f7565b005b6102fe60048036038101906102f99190611d79565b61080d565b005b61031a60048036038101906103159190611a57565b610832565b6040516103279190611a04565b60405180910390f35b61034a60048036038101906103459190611df9565b610898565b6040516103579190611961565b60405180910390f35b61037a60048036038101906103759190611b92565b610926565b005b5f7f80ac58cd000000000000000000000000000000000000000000000000000000007bffffffffffffffffffffffffffffffffffffffffffffffffffffffff1916827bffffffffffffffffffffffffffffffffffffffffffffffffffffffff1916148061044657507f5b5e139f000000000000000000000000000000000000000000000000000000007bffffffffffffffffffffffffffffffffffffffffffffffffffffffff1916827bffffffffffffffffffffffffffffffffffffffffffffffffffffffff1916145b806104565750610455826109aa565b5b9050919050565b60605f805461046b90611e64565b80601f016020809104026020016040519081016040528092919081815260200182805461049790611e64565b80156104e25780601f106104b9576101008083540402835291602001916104e2565b820191905f5260205f20905b8154815290600101906020018083116104c557829003601f168201915b5050505050905090565b5f6104f682610a13565b5061050082610a99565b9050919050565b6105198282610514610ad2565b610ad9565b5050565b5f73ffffffffffffffffffffffffffffffffffffffff168273ffffffffffffffffffffffffffffffffffffffff160361058d575f6040517f64a0ae920000000000000000000000000000000000000000000000000000000081526004016105849190611ac1565b60405180910390fd5b5f6105a0838361059b610ad2565b610aeb565b90508373ffffffffffffffffffffffffffffffffffffffff168173ffffffffffffffffffffffffffffffffffffffff1614610616578382826040517f64283d7b00000000000000000000000000000000000000000000000000000000815260040161060d93929190611e94565b60405180910390fd5b50505050565b610624610cf6565b61062e8282610d7d565b5050565b61064c83838360405180602001604052805f81525061080d565b505050565b610659610cf6565b61066281610d9a565b50565b5f61066f82610a13565b9050919050565b5f8073ffffffffffffffffffffffffffffffffffffffff168273ffffffffffffffffffffffffffffffffffffffff16036106e7575f6040517f89c62b640000000000000000000000000000000000000000000000000000000081526004016106de9190611ac1565b60405180910390fd5b60035f8373ffffffffffffffffffffffffffffffffffffffff1673ffffffffffffffffffffffffffffffffffffffff1681526020019081526020015f20549050919050565b610734610cf6565b61073d5f610e1c565b565b5f60065f9054906101000a900473ffffffffffffffffffffffffffffffffffffffff16905090565b60606001805461077690611e64565b80601f01602080910402602001604051908101604052809291908181526020018280546107a290611e64565b80156107ed5780601f106107c4576101008083540402835291602001916107ed565b820191905f5260205f20905b8154815290600101906020018083116107d057829003601f168201915b5050505050905090565b610809610802610ad2565b8383610edf565b5050565b61081884848461051d565b61082c610823610ad2565b85858585611048565b50505050565b606061083d82610a13565b505f6108476111f4565b90505f8151116108655760405180602001604052805f815250610890565b8061086f8461120a565b604051602001610880929190611f03565b6040516020818303038152906040525b915050919050565b5f60055f8473ffffffffffffffffffffffffffffffffffffffff1673ffffffffffffffffffffffffffffffffffffffff1681526020019081526020015f205f8373ffffffffffffffffffffffffffffffffffffffff1673ffffffffffffffffffffffffffffffffffffffff1681526020019081526020015f205f9054906101000a900460ff16905092915050565b61092e610cf6565b5f73ffffffffffffffffffffffffffffffffffffffff168173ffffffffffffffffffffffffffffffffffffffff160361099e575f6040517f1e4fbdf70000000000000000000000000000000000000000000000000000000081526004016109959190611ac1565b60405180910390fd5b6109a781610e1c565b50565b5f7f01ffc9a7000000000000000000000000000000000000000000000000000000007bffffffffffffffffffffffffffffffffffffffffffffffffffffffff1916827bffffffffffffffffffffffffffffffffffffffffffffffffffffffff1916149050919050565b5f80610a1e836112d4565b90505f73ffffffffffffffffffffffffffffffffffffffff168173ffffffffffffffffffffffffffffffffffffffff1603610a9057826040517f7e273289000000000000000000000000000000000000000000000000000000008152600401610a879190611bcc565b60405180910390fd5b80915050919050565b5f60045f8381526020019081526020015f205f9054906101000a900473ffffffffffffffffffffffffffffffffffffffff169050919050565b5f33905090565b610ae6838383600161130d565b505050565b5f80610af6846112d4565b90505f73ffffffffffffffffffffffffffffffffffffffff168373ffffffffffffffffffffffffffffffffffffffff1614610b3757610b368184866114cc565b5b5f73ffffffffffffffffffffffffffffffffffffffff168173ffffffffffffffffffffffffffffffffffffffff1614610bc257610b765f855f8061130d565b600160035f8373ffffffffffffffffffffffffffffffffffffffff1673ffffffffffffffffffffffffffffffffffffffff1681526020019081526020015f205f82825403925050819055505b5f73ffffffffffffffffffffffffffffffffffffffff168573ffffffffffffffffffffffffffffffffffffffff1614610c4157600160035f8773ffffffffffffffffffffffffffffffffffffffff1673ffffffffffffffffffffffffffffffffffffffff1681526020019081526020015f205f82825401925050819055505b8460025f8681526020019081526020015f205f6101000a81548173ffffffffffffffffffffffffffffffffffffffff021916908373ffffffffffffffffffffffffffffffffffffffff160217905550838573ffffffffffffffffffffffffffffffffffffffff168273ffffffffffffffffffffffffffffffffffffffff167fddf252ad1be2c89b69c2b068fc378daa952ba7f163c4a11628f55a4df523b3ef60405160405180910390a4809150509392505050565b610cfe610ad2565b73ffffffffffffffffffffffffffffffffffffffff16610d1c61073f565b73ffffffffffffffffffffffffffffffffffffffff1614610d7b57610d3f610ad2565b6040517f118cdaa7000000000000000000000000000000000000000000000000000000008152600401610d729190611ac1565b60405180910390fd5b565b610d96828260405180602001604052805f81525061158f565b5050565b5f610da65f835f610aeb565b90505f73ffffffffffffffffffffffffffffffffffffffff168173ffffffffffffffffffffffffffffffffffffffff1603610e1857816040517f7e273289000000000000000000000000000000000000000000000000000000008152600401610e0f9190611bcc565b60405180910390fd5b5050565b5f60065f9054906101000a900473ffffffffffffffffffffffffffffffffffffffff1690508160065f6101000a81548173ffffffffffffffffffffffffffffffffffffffff021916908373ffffffffffffffffffffffffffffffffffffffff1602179055508173ffffffffffffffffffffffffffffffffffffffff168173ffffffffffffffffffffffffffffffffffffffff167f8be0079c531659141344cd1fd0a4f28419497f9722a3daafe3b4186f6b6457e060405160405180910390a35050565b5f73ffffffffffffffffffffffffffffffffffffffff168273ffffffffffffffffffffffffffffffffffffffff1603610f4f57816040517f5b08ba18000000000000000000000000000000000000000000000000000000008152600401610f469190611ac1565b60405180910390fd5b8060055f8573ffffffffffffffffffffffffffffffffffffffff1673ffffffffffffffffffffffffffffffffffffffff1681526020019081526020015f205f8473ffffffffffffffffffffffffffffffffffffffff1673ffffffffffffffffffffffffffffffffffffffff1681526020019081526020015f205f6101000a81548160ff0219169083151502179055508173ffffffffffffffffffffffffffffffffffffffff168373ffffffffffffffffffffffffffffffffffffffff167f17307eab39ab6107e8899845ad3d59bd9653f200f220920489ca2b5937696c318360405161103b9190611961565b60405180910390a3505050565b5f8373ffffffffffffffffffffffffffffffffffffffff163b11156111ed578273ffffffffffffffffffffffffffffffffffffffff1663150b7a02868685856040518563ffffffff1660e01b81526004016110a69493929190611f78565b6020604051808303815f875af19250505080156110e157506040513d601f19601f820116820180604052508101906110de9190611fd6565b60015b611162573d805f811461110f576040519150601f19603f3d011682016040523d82523d5f602084013e611114565b606091505b505f81510361115a57836040517f64a0ae920000000000000000000000000000000000000000000000000000000081526004016111519190611ac1565b60405180910390fd5b805181602001fd5b63150b7a0260e01b7bffffffffffffffffffffffffffffffffffffffffffffffffffffffff1916817bffffffffffffffffffffffffffffffffffffffffffffffffffffffff1916146111eb57836040517f64a0ae920000000000000000000000000000000000000000000000000000000081526004016111e29190611ac1565b60405180910390fd5b505b5050505050565b606060405180602001604052805f815250905090565b60605f6001611218846115b2565b0190505f8167ffffffffffffffff81111561123657611235611c55565b5b6040519080825280601f01601f1916602001820160405280156112685781602001600182028036833780820191505090505b5090505f82602001820190505b6001156112c9578080600190039150507f3031323334353637383961626364656600000000000000000000000000000000600a86061a8153600a85816112be576112bd612001565b5b0494505f8503611275575b819350505050919050565b5f60025f8381526020019081526020015f205f9054906101000a900473ffffffffffffffffffffffffffffffffffffffff169050919050565b808061134557505f73ffffffffffffffffffffffffffffffffffffffff168273ffffffffffffffffffffffffffffffffffffffff1614155b15611477575f61135484610a13565b90505f73ffffffffffffffffffffffffffffffffffffffff168373ffffffffffffffffffffffffffffffffffffffff16141580156113be57508273ffffffffffffffffffffffffffffffffffffffff168173ffffffffffffffffffffffffffffffffffffffff1614155b80156113d157506113cf8184610898565b155b1561141357826040517fa9fbf51f00000000000000000000000000000000000000000000000000000000815260040161140a9190611ac1565b60405180910390fd5b811561147557838573ffffffffffffffffffffffffffffffffffffffff168273ffffffffffffffffffffffffffffffffffffffff167f8c5be1e5ebec7d5bd14f71427d1e84f3dd0314c0f7b2291e5b200ac8c7c3b92560405160405180910390a45b505b8360045f8581526020019081526020015f205f6101000a81548173ffffffffffffffffffffffffffffffffffffffff021916908373ffffffffffffffffffffffffffffffffffffffff16021790555050505050565b6114d7838383611703565b61158a575f73ffffffffffffffffffffffffffffffffffffffff168373ffffffffffffffffffffffffffffffffffffffff160361154b57806040517f7e2732890000000000000000000000000000000000000000000000000000000081526004016115429190611bcc565b60405180910390fd5b81816040517f177e802f00000000000000000000000000000000000000000000000000000000815260040161158192919061202e565b60405180910390fd5b505050565b61159983836117c3565b6115ad6115a4610ad2565b5f858585611048565b505050565b5f805f90507a184f03e93ff9f4daa797ed6e38ed64bf6a1f010000000000000000831061160e577a184f03e93ff9f4daa797ed6e38ed64bf6a1f010000000000000000838161160457611603612001565b5b0492506040810190505b6d04ee2d6d415b85acef8100000000831061164b576d04ee2d6d415b85acef8100000000838161164157611640612001565b5b0492506020810190505b662386f26fc10000831061167a57662386f26fc1000083816116705761166f612001565b5b0492506010810190505b6305f5e10083106116a3576305f5e100838161169957611698612001565b5b0492506008810190505b61271083106116c85761271083816116be576116bd612001565b5b0492506004810190505b606483106116eb57606483816116e1576116e0612001565b5b0492506002810190505b600a83106116fa576001810190505b80915050919050565b5f8073ffffffffffffffffffffffffffffffffffffffff168373ffffffffffffffffffffffffffffffffffffffff16141580156117ba57508273ffffffffffffffffffffffffffffffffffffffff168473ffffffffffffffffffffffffffffffffffffffff16148061177b575061177a8484610898565b5b806117b957508273ffffffffffffffffffffffffffffffffffffffff166117a183610a99565b73ffffffffffffffffffffffffffffffffffffffff16145b5b90509392505050565b5f73ffffffffffffffffffffffffffffffffffffffff168273ffffffffffffffffffffffffffffffffffffffff1603611833575f6040517f64a0ae9200000000000000000000000000000000000000000000000000000000815260040161182a9190611ac1565b60405180910390fd5b5f61183f83835f610aeb565b90505f73ffffffffffffffffffffffffffffffffffffffff168173ffffffffffffffffffffffffffffffffffffffff16146118b1575f6040517f73c6ac6e0000000000000000000000000000000000000000000000000000000081526004016118a89190611ac1565b60405180910390fd5b505050565b5f604051905090565b5f80fd5b5f80fd5b5f7fffffffff0000000000000000000000000000000000000000000000000000000082169050919050565b6118fb816118c7565b8114611905575f80fd5b50565b5f81359050611916816118f2565b92915050565b5f60208284031215611931576119306118bf565b5b5f61193e84828501611908565b91505092915050565b5f8115159050919050565b61195b81611947565b82525050565b5f6020820190506119745f830184611952565b92915050565b5f81519050919050565b5f82825260208201905092915050565b5f5b838110156119b1578082015181840152602081019050611996565b5f8484015250505050565b5f601f19601f8301169050919050565b5f6119d68261197a565b6119e08185611984565b93506119f0818560208601611994565b6119f9816119bc565b840191505092915050565b5f6020820190508181035f830152611a1c81846119cc565b905092915050565b5f819050919050565b611a3681611a24565b8114611a40575f80fd5b50565b5f81359050611a5181611a2d565b92915050565b5f60208284031215611a6c57611a6b6118bf565b5b5f611a7984828501611a43565b91505092915050565b5f73ffffffffffffffffffffffffffffffffffffffff82169050919050565b5f611aab82611a82565b9050919050565b611abb81611aa1565b82525050565b5f602082019050611ad45f830184611ab2565b92915050565b611ae381611aa1565b8114611aed575f80fd5b50565b5f81359050611afe81611ada565b92915050565b5f8060408385031215611b1a57611b196118bf565b5b5f611b2785828601611af0565b9250506020611b3885828601611a43565b9150509250929050565b5f805f60608486031215611b5957611b586118bf565b5b5f611b6686828701611af0565b9350506020611b7786828701611af0565b9250506040611b8886828701611a43565b9150509250925092565b5f60208284031215611ba757611ba66118bf565b5b5f611bb484828501611af0565b91505092915050565b611bc681611a24565b82525050565b5f602082019050611bdf5f830184611bbd565b92915050565b611bee81611947565b8114611bf8575f80fd5b50565b5f81359050611c0981611be5565b92915050565b5f8060408385031215611c2557611c246118bf565b5b5f611c3285828601611af0565b9250506020611c4385828601611bfb565b9150509250929050565b5f80fd5b5f80fd5b7f4e487b71000000000000000000000000000000000000000000000000000000005f52604160045260245ffd5b611c8b826119bc565b810181811067ffffffffffffffff82111715611caa57611ca9611c55565b5b80604052505050565b5f611cbc6118b6565b9050611cc88282611c82565b919050565b5f67ffffffffffffffff821115611ce757611ce6611c55565b5b611cf0826119bc565b9050602081019050919050565b828183375f83830152505050565b5f611d1d611d1884611ccd565b611cb3565b905082815260208101848484011115611d3957611d38611c51565b5b611d44848285611cfd565b509392505050565b5f82601f830112611d6057611d5f611c4d565b5b8135611d70848260208601611d0b565b91505092915050565b5f805f8060808587031215611d9157611d906118bf565b5b5f611d9e87828801611af0565b9450506020611daf87828801611af0565b9350506040611dc087828801611a43565b925050606085013567ffffffffffffffff811115611de157611de06118c3565b5b611ded87828801611d4c565b91505092959194509250565b5f8060408385031215611e0f57611e0e6118bf565b5b5f611e1c85828601611af0565b9250506020611e2d85828601611af0565b9150509250929050565b7f4e487b71000000000000000000000000000000000000000000000000000000005f52602260045260245ffd5b5f6002820490506001821680611e7b57607f821691505b602082108103611e8e57611e8d611e37565b5b50919050565b5f606082019050611ea75f830186611ab2565b611eb46020830185611bbd565b611ec16040830184611ab2565b949350505050565b5f81905092915050565b5f611edd8261197a565b611ee78185611ec9565b9350611ef7818560208601611994565b80840191505092915050565b5f611f0e8285611ed3565b9150611f1a8284611ed3565b91508190509392505050565b5f81519050919050565b5f82825260208201905092915050565b5f611f4a82611f26565b611f548185611f30565b9350611f64818560208601611994565b611f6d816119bc565b840191505092915050565b5f608082019050611f8b5f830187611ab2565b611f986020830186611ab2565b611fa56040830185611bbd565b8181036060830152611fb78184611f40565b905095945050505050565b5f81519050611fd0816118f2565b92915050565b5f60208284031215611feb57611fea6118bf565b5b5f611ff884828501611fc2565b91505092915050565b7f4e487b71000000000000000000000000000000000000000000000000000000005f52601260045260245ffd5b5f6040820190506120415f830185611ab2565b61204e6020830184611bbd565b939250505056fea26469706673582212207047d40026f5f0521f64a57d31aaf1c8f0562bfc3bf4704bb489bde42c842a0d64736f6c63430008140033",
  "immutableReferences": {},
  "source": "// SPDX-License-Identifier: MIT\r\npragma solidity ^0.8.20;\r\n\r\nimport \"@openzeppelin/contracts/token/ERC721/ERC721.sol\";\r\nimport \"@openzeppelin/contracts/access/Ownable.sol\";\r\n\r\ncontract WrappedNFT is ERC721, Ownable {\r\n    constructor(string memory name, string memory symbol, address owner) \r\n        ERC721(name, symbol)\r\n        Ownable(owner)\r\n    {}\r\n\r\n    function mint(address to, uint256 tokenId) external onlyOwner {\r\n        _safeMint(to, tokenId);\r\n    }\r\n\r\n    function burn(uint256 tokenId) external onlyOwner {\r\n        _burn(tokenId);\r\n    }\r\n}\r\n\r\n\r\n",
  "sourcePath": "C:\\Users\\chanm\\Desktop\\HackIITK\\main\\iitkcyberhack\\ChallengeRound2\\cross-chain-bridge\\contracts\\WrappedNFT.sol",
  "compiler": {
    "name": "solc",
    "version": "0.8.20+commit.a1b79de6.Emscripten.clang"
  },
  "schemaVersion": "3.4.16",
  "updatedAt": "2025-02-09T20:07:18.594Z",
  "networkType": "ethereum",
  "devdoc": {
    "errors": {
      "ERC721IncorrectOwner(address,uint256,address)": [
        {
          "details": "Indicates an error related to the ownership over a particular token. Used in transfers.",
          "params": {
            "owner": "Address of the current owner of a token.",
            "sender": "Address whose tokens are being transferred.",
            "tokenId": "Identifier number of a token."
          }
        }
      ],
      "ERC721InsufficientApproval(address,uint256)": [
        {
          "details": "Indicates a failure with the `operator`s approval. Used in transfers.",
          "params": {
            "operator": "Address that may be allowed to operate on tokens without being their owner.",
            "tokenId": "Identifier number of a token."
          }
        }
      ],
      "ERC721InvalidApprover(address)": [
        {
          "details": "Indicates a failure with the `approver` of a token to be approved. Used in approvals.",
          "params": {
            "approver": "Address initiating an approval operation."
          }
        }
      ],
      "ERC721InvalidOperator(address)": [
        {
          "details": "Indicates a failure with the `operator` to be approved. Used in approvals.",
          "params": {
            "operator": "Address that may be allowed to operate on tokens without being their owner."
          }
        }
      ],
      "ERC721InvalidOwner(address)": [
        {
          "details": "Indicates that an address can't be an owner. For example, `address(0)` is a forbidden owner in ERC-20. Used in balance queries.",
          "params": {
            "owner": "Address of the current owner of a token."
          }
        }
      ],
      "ERC721InvalidReceiver(address)": [
        {
          "details": "Indicates a failure with the token `receiver`. Used in transfers.",
          "params": {
            "receiver": "Address to which tokens are being transferred."
          }
        }
      ],
      "ERC721InvalidSender(address)": [
        {
          "details": "Indicates a failure with the token `sender`. Used in transfers.",
          "params": {
            "sender": "Address whose tokens are being transferred."
          }
        }
      ],
      "ERC721NonexistentToken(uint256)": [
        {
          "details": "Indicates a `tokenId` whose `owner` is the zero address.",
          "params": {
            "tokenId": "Identifier number of a token."
          }
        }
      ],
      "OwnableInvalidOwner(address)": [
        {
          "details": "The owner is not a valid owner account. (eg. `address(0)`)"
        }
      ],
      "OwnableUnauthorizedAccount(address)": [
        {
          "details": "The caller account is not authorized to perform an operation."
        }
      ]
    },
    "events": {
      "Approval(address,address,uint256)": {
        "details": "Emitted when `owner` enables `approved` to manage the `tokenId` token."
      },
      "ApprovalForAll(address,address,bool)": {
        "details": "Emitted when `owner` enables or disables (`approved`) `operator` to manage all of its assets."
      },
      "Transfer(address,address,uint256)": {
        "details": "Emitted when `tokenId` token is transferred from `from` to `to`."
      }
    },
    "kind": "dev",
    "methods": {
      "approve(address,uint256)": {
        "details": "See {IERC721-approve}."
      },
      "balanceOf(address)": {
        "details": "See {IERC721-balanceOf}."
      },
      "getApproved(uint256)": {
        "details": "See {IERC721-getApproved}."
      },
      "isApprovedForAll(address,address)": {
        "details": "See {IERC721-isApprovedForAll}."
      },
      "name()": {
        "details": "See {IERC721Metadata-name}."
      },
      "owner()": {
        "details": "Returns the address of the current owner."
      },
      "ownerOf(uint256)": {
        "details": "See {IERC721-ownerOf}."
      },
      "renounceOwnership()": {
        "details": "Leaves the contract without owner. It will not be possible to call `onlyOwner` functions. Can only be called by the current owner. NOTE: Renouncing ownership will leave the contract without an owner, thereby disabling any functionality that is only available to the owner."
      },
      "safeTransferFrom(address,address,uint256)": {
        "details": "See {IERC721-safeTransferFrom}."
      },
      "safeTransferFrom(address,address,uint256,bytes)": {
        "details": "See {IERC721-safeTransferFrom}."
      },
      "setApprovalForAll(address,bool)": {
        "details": "See {IERC721-setApprovalForAll}."
      },
      "supportsInterface(bytes4)": {
        "details": "See {IERC165-supportsInterface}."
      },
      "symbol()": {
        "details": "See {IERC721Metadata-symbol}."
      },
      "tokenURI(uint256)": {
        "details": "See {IERC721Metadata-tokenURI}."
      },
      "transferFrom(address,address,uint256)": {
        "details": "See {IERC721-transferFrom}."
      },
      "transferOwnership(address)": {
        "details": "Transfers ownership of the contract to a new account (`newOwner`). Can only be called by the current owner."
      }
    },
    "version": 1
  },
  "userdoc": {
    "kind": "user",
    "methods": {},
    "version": 1
  }
}