{
  "_format": "hh-sol-artifact-1",
  "contractName": "NFTRelayerManager",
  "sourceName": "contracts/NFTRelayerManager.sol",
  "abi": [
    {
      "inputs": [
        {
          "internalType": "bytes32",
          "name": "_relayerMerkleRoot",
          "type": "bytes32"
        },
        {
          "internalType": "address",
          "name": "admin",
          "type": "address"
        }
      ],
      "stateMutability": "nonpayable",
      "type": "constructor"
    },
    {
      "inputs": [],
      "name": "AccessControlBadConfirmation",
      "type": "error"
    },
    {
      "inputs": [
        {
          "internalType": "address",
          "name": "account",
          "type": "address"
        },
        {
          "internalType": "bytes32",
          "name": "neededRole",
          "type": "bytes32"
        }
      ],
      "name": "AccessControlUnauthorizedAccount",
      "type": "error"
    },
    {
      "inputs": [],
      "name": "EnforcedPause",
      "type": "error"
    },
    {
      "inputs": [],
      "name": "ExpectedPause",
      "type": "error"
    },
    {
      "inputs": [],
      "name": "ReentrancyGuardReentrantCall",
      "type": "error"
    },
    {
      "anonymous": false,
      "inputs": [
        {
          "indexed": true,
          "internalType": "bytes32",
          "name": "requestId",
          "type": "bytes32"
        },
        {
          "indexed": true,
          "internalType": "address",
          "name": "executor",
          "type": "address"
        }
      ],
      "name": "NFTTransferExecuted",
      "type": "event"
    },
    {
      "anonymous": false,
      "inputs": [
        {
          "indexed": true,
          "internalType": "bytes32",
          "name": "requestId",
          "type": "bytes32"
        },
        {
          "indexed": true,
          "internalType": "address",
          "name": "user",
          "type": "address"
        },
        {
          "indexed": true,
          "internalType": "address",
          "name": "recipient",
          "type": "address"
        },
        {
          "indexed": false,
          "internalType": "uint256",
          "name": "tokenId",
          "type": "uint256"
        },
        {
          "indexed": false,
          "internalType": "uint256",
          "name": "nonce",
          "type": "uint256"
        },
        {
          "indexed": false,
          "internalType": "uint256",
          "name": "sourceChainId",
          "type": "uint256"
        },
        {
          "indexed": false,
          "internalType": "uint256",
          "name": "targetChainId",
          "type": "uint256"
        }
      ],
      "name": "NFTTransferRequested",
      "type": "event"
    },
    {
      "anonymous": false,
      "inputs": [
        {
          "indexed": false,
          "internalType": "address",
          "name": "account",
          "type": "address"
        }
      ],
      "name": "Paused",
      "type": "event"
    },
    {
      "anonymous": false,
      "inputs": [
        {
          "indexed": false,
          "internalType": "bytes32",
          "name": "oldRoot",
          "type": "bytes32"
        },
        {
          "indexed": false,
          "internalType": "bytes32",
          "name": "newRoot",
          "type": "bytes32"
        },
        {
          "indexed": false,
          "internalType": "address",
          "name": "updater",
          "type": "address"
        }
      ],
      "name": "RelayerRootUpdated",
      "type": "event"
    },
    {
      "anonymous": false,
      "inputs": [
        {
          "indexed": true,
          "internalType": "bytes32",
          "name": "role",
          "type": "bytes32"
        },
        {
          "indexed": true,
          "internalType": "bytes32",
          "name": "previousAdminRole",
          "type": "bytes32"
        },
        {
          "indexed": true,
          "internalType": "bytes32",
          "name": "newAdminRole",
          "type": "bytes32"
        }
      ],
      "name": "RoleAdminChanged",
      "type": "event"
    },
    {
      "anonymous": false,
      "inputs": [
        {
          "indexed": true,
          "internalType": "bytes32",
          "name": "role",
          "type": "bytes32"
        },
        {
          "indexed": true,
          "internalType": "address",
          "name": "account",
          "type": "address"
        },
        {
          "indexed": true,
          "internalType": "address",
          "name": "sender",
          "type": "address"
        }
      ],
      "name": "RoleGranted",
      "type": "event"
    },
    {
      "anonymous": false,
      "inputs": [
        {
          "indexed": true,
          "internalType": "bytes32",
          "name": "role",
          "type": "bytes32"
        },
        {
          "indexed": true,
          "internalType": "address",
          "name": "account",
          "type": "address"
        },
        {
          "indexed": true,
          "internalType": "address",
          "name": "sender",
          "type": "address"
        }
      ],
      "name": "RoleRevoked",
      "type": "event"
    },
    {
      "anonymous": false,
      "inputs": [
        {
          "indexed": false,
          "internalType": "address",
          "name": "account",
          "type": "address"
        }
      ],
      "name": "Unpaused",
      "type": "event"
    },
    {
      "inputs": [],
      "name": "ADMIN_ROLE",
      "outputs": [
        {
          "internalType": "bytes32",
          "name": "",
          "type": "bytes32"
        }
      ],
      "stateMutability": "view",
      "type": "function"
    },
    {
      "inputs": [],
      "name": "DEFAULT_ADMIN_ROLE",
      "outputs": [
        {
          "internalType": "bytes32",
          "name": "",
          "type": "bytes32"
        }
      ],
      "stateMutability": "view",
      "type": "function"
    },
    {
      "inputs": [],
      "name": "MANAGER_ROLE",
      "outputs": [
        {
          "internalType": "bytes32",
          "name": "",
          "type": "bytes32"
        }
      ],
      "stateMutability": "view",
      "type": "function"
    },
    {
      "inputs": [],
      "name": "PAUSER_ROLE",
      "outputs": [
        {
          "internalType": "bytes32",
          "name": "",
          "type": "bytes32"
        }
      ],
      "stateMutability": "view",
      "type": "function"
    },
    {
      "inputs": [
        {
          "internalType": "bytes32",
          "name": "requestId",
          "type": "bytes32"
        }
      ],
      "name": "emergencyExecuteTransfer",
      "outputs": [],
      "stateMutability": "nonpayable",
      "type": "function"
    },
    {
      "inputs": [
        {
          "internalType": "address",
          "name": "user",
          "type": "address"
        },
        {
          "internalType": "address",
          "name": "recipient",
          "type": "address"
        },
        {
          "internalType": "uint256",
          "name": "tokenId",
          "type": "uint256"
        },
        {
          "internalType": "uint256",
          "name": "nonce",
          "type": "uint256"
        },
        {
          "internalType": "uint256",
          "name": "sourceChainId",
          "type": "uint256"
        },
        {
          "internalType": "uint256",
          "name": "targetChainId",
          "type": "uint256"
        }
      ],
      "name": "generateRequestId",
      "outputs": [
        {
          "internalType": "bytes32",
          "name": "",
          "type": "bytes32"
        }
      ],
      "stateMutability": "pure",
      "type": "function"
    },
    {
      "inputs": [
        {
          "internalType": "bytes32",
          "name": "role",
          "type": "bytes32"
        }
      ],
      "name": "getRoleAdmin",
      "outputs": [
        {
          "internalType": "bytes32",
          "name": "",
          "type": "bytes32"
        }
      ],
      "stateMutability": "view",
      "type": "function"
    },
    {
      "inputs": [
        {
          "internalType": "bytes32",
          "name": "role",
          "type": "bytes32"
        },
        {
          "internalType": "address",
          "name": "account",
          "type": "address"
        }
      ],
      "name": "grantRole",
      "outputs": [],
      "stateMutability": "nonpayable",
      "type": "function"
    },
    {
      "inputs": [
        {
          "internalType": "bytes32",
          "name": "role",
          "type": "bytes32"
        },
        {
          "internalType": "address",
          "name": "account",
          "type": "address"
        }
      ],
      "name": "hasRole",
      "outputs": [
        {
          "internalType": "bool",
          "name": "",
          "type": "bool"
        }
      ],
      "stateMutability": "view",
      "type": "function"
    },
    {
      "inputs": [
        {
          "internalType": "address",
          "name": "",
          "type": "address"
        }
      ],
      "name": "nonces",
      "outputs": [
        {
          "internalType": "uint256",
          "name": "",
          "type": "uint256"
        }
      ],
      "stateMutability": "view",
      "type": "function"
    },
    {
      "inputs": [],
      "name": "pause",
      "outputs": [],
      "stateMutability": "nonpayable",
      "type": "function"
    },
    {
      "inputs": [],
      "name": "paused",
      "outputs": [
        {
          "internalType": "bool",
          "name": "",
          "type": "bool"
        }
      ],
      "stateMutability": "view",
      "type": "function"
    },
    {
      "inputs": [],
      "name": "relayerMerkleRoot",
      "outputs": [
        {
          "internalType": "bytes32",
          "name": "",
          "type": "bytes32"
        }
      ],
      "stateMutability": "view",
      "type": "function"
    },
    {
      "inputs": [
        {
          "internalType": "bytes32",
          "name": "role",
          "type": "bytes32"
        },
        {
          "internalType": "address",
          "name": "callerConfirmation",
          "type": "address"
        }
      ],
      "name": "renounceRole",
      "outputs": [],
      "stateMutability": "nonpayable",
      "type": "function"
    },
    {
      "inputs": [
        {
          "internalType": "bytes32",
          "name": "role",
          "type": "bytes32"
        },
        {
          "internalType": "address",
          "name": "account",
          "type": "address"
        }
      ],
      "name": "revokeRole",
      "outputs": [],
      "stateMutability": "nonpayable",
      "type": "function"
    },
    {
      "inputs": [
        {
          "internalType": "bytes4",
          "name": "interfaceId",
          "type": "bytes4"
        }
      ],
      "name": "supportsInterface",
      "outputs": [
        {
          "internalType": "bool",
          "name": "",
          "type": "bool"
        }
      ],
      "stateMutability": "view",
      "type": "function"
    },
    {
      "inputs": [
        {
          "internalType": "bytes32",
          "name": "",
          "type": "bytes32"
        }
      ],
      "name": "transferRequests",
      "outputs": [
        {
          "internalType": "address",
          "name": "user",
          "type": "address"
        },
        {
          "internalType": "address",
          "name": "recipient",
          "type": "address"
        },
        {
          "internalType": "uint256",
          "name": "tokenId",
          "type": "uint256"
        },
        {
          "internalType": "uint256",
          "name": "nonce",
          "type": "uint256"
        },
        {
          "internalType": "uint256",
          "name": "sourceChainId",
          "type": "uint256"
        },
        {
          "internalType": "uint256",
          "name": "targetChainId",
          "type": "uint256"
        },
        {
          "internalType": "bool",
          "name": "executed",
          "type": "bool"
        }
      ],
      "stateMutability": "view",
      "type": "function"
    },
    {
      "inputs": [],
      "name": "unpause",
      "outputs": [],
      "stateMutability": "nonpayable",
      "type": "function"
    },
    {
      "inputs": [
        {
          "internalType": "bytes32",
          "name": "_newRoot",
          "type": "bytes32"
        }
      ],
      "name": "updateRelayerRoot",
      "outputs": [],
      "stateMutability": "nonpayable",
      "type": "function"
    },
    {
      "inputs": [
        {
          "internalType": "address",
          "name": "relayer",
          "type": "address"
        },
        {
          "internalType": "bytes32[]",
          "name": "proof",
          "type": "bytes32[]"
        }
      ],
      "name": "verifyRelayer",
      "outputs": [
        {
          "internalType": "bool",
          "name": "",
          "type": "bool"
        }
      ],
      "stateMutability": "view",
      "type": "function"
    }
  ],
  "bytecode": "0x60806040523480156200001157600080fd5b50604051620018c2380380620018c283398181016040528101906200003791906200031d565b60016000819055506000600260006101000a81548160ff02191690831515021790555081600581905550620000937fa49807205ce4d355092ef5a8a18f56e8913cf4a201fbe287825b095693c21775826200010260201b60201c565b50620000c67f241ecf16d79d0f8dbfb92cbc07fe17840425976cf0667f022fe9877caa831b08826200010260201b60201c565b50620000f97f65d7a28e3265b37a6474929f336521b332c1681b933f6cb9f3376673440d862a826200010260201b60201c565b50505062000364565b60006200011683836200020560201b60201c565b620001fa57600180600085815260200190815260200160002060000160008473ffffffffffffffffffffffffffffffffffffffff1673ffffffffffffffffffffffffffffffffffffffff16815260200190815260200160002060006101000a81548160ff021916908315150217905550620001966200027060201b60201c565b73ffffffffffffffffffffffffffffffffffffffff168273ffffffffffffffffffffffffffffffffffffffff16847f2f8788117e7eff1d82e926ec794901d17c78024a50270940304540a733656f0d60405160405180910390a460019050620001ff565b600090505b92915050565b60006001600084815260200190815260200160002060000160008373ffffffffffffffffffffffffffffffffffffffff1673ffffffffffffffffffffffffffffffffffffffff16815260200190815260200160002060009054906101000a900460ff16905092915050565b600033905090565b600080fd5b6000819050919050565b62000292816200027d565b81146200029e57600080fd5b50565b600081519050620002b28162000287565b92915050565b600073ffffffffffffffffffffffffffffffffffffffff82169050919050565b6000620002e582620002b8565b9050919050565b620002f781620002d8565b81146200030357600080fd5b50565b6000815190506200031781620002ec565b92915050565b6000806040838503121562000337576200033662000278565b5b60006200034785828601620002a1565b92505060206200035a8582860162000306565b9150509250929050565b61154e80620003746000396000f3fe608060405234801561001057600080fd5b506004361061012c5760003560e01c80638456cb59116100ad578063a854909511610071578063a854909514610349578063d547741f14610367578063e63ab1e914610383578063e6ab8ce6146103a1578063ec87621c146103bd5761012c565b80638456cb591461029f57806391d14854146102a957806397adc59a146102d95780639ab4c8bb1461030f578063a217fddf1461032b5761012c565b80633f4ba83a116100f45780633f4ba83a146101f95780635c975abb146102035780635f08320c1461022157806375b238fc146102515780637ecebe001461026f5761012c565b806301ffc9a7146101315780631d0e2d3914610161578063248a9ca3146101915780632f2ff15d146101c157806336568abe146101dd575b600080fd5b61014b60048036038101906101469190610e9b565b6103db565b6040516101589190610ee3565b60405180910390f35b61017b60048036038101906101769190610fc1565b610455565b6040516101889190610ee3565b60405180910390f35b6101ab60048036038101906101a69190611057565b6104d9565b6040516101b89190611093565b60405180910390f35b6101db60048036038101906101d691906110ae565b6104f9565b005b6101f760048036038101906101f291906110ae565b61051b565b005b610201610596565b005b61020b6105cb565b6040516102189190610ee3565b60405180910390f35b61023b60048036038101906102369190611124565b6105e2565b6040516102489190611093565b60405180910390f35b610259610621565b6040516102669190611093565b60405180910390f35b610289600480360381019061028491906111b1565b610645565b60405161029691906111ed565b60405180910390f35b6102a761065d565b005b6102c360048036038101906102be91906110ae565b610692565b6040516102d09190610ee3565b60405180910390f35b6102f360048036038101906102ee9190611057565b6106fd565b6040516103069796959493929190611217565b60405180910390f35b61032960048036038101906103249190611057565b61078c565b005b61033361080c565b6040516103409190611093565b60405180910390f35b610351610813565b60405161035e9190611093565b60405180910390f35b610381600480360381019061037c91906110ae565b610819565b005b61038b61083b565b6040516103989190611093565b60405180910390f35b6103bb60048036038101906103b69190611057565b61085f565b005b6103c5610964565b6040516103d29190611093565b60405180910390f35b60007f7965db0b000000000000000000000000000000000000000000000000000000007bffffffffffffffffffffffffffffffffffffffffffffffffffffffff1916827bffffffffffffffffffffffffffffffffffffffffffffffffffffffff1916148061044e575061044d82610988565b5b9050919050565b6000808460405160200161046991906112ce565b6040516020818303038152906040528051906020012090506104cf848480806020026020016040519081016040528093929190818152602001838360200280828437600081840152601f19601f82011690508083019250505050505050600554836109f2565b9150509392505050565b600060016000838152602001908152602001600020600101549050919050565b610502826104d9565b61050b81610a09565b6105158383610a1d565b50505050565b610523610b0e565b73ffffffffffffffffffffffffffffffffffffffff168173ffffffffffffffffffffffffffffffffffffffff1614610587576040517f6697b23200000000000000000000000000000000000000000000000000000000815260040160405180910390fd5b6105918282610b16565b505050565b7f65d7a28e3265b37a6474929f336521b332c1681b933f6cb9f3376673440d862a6105c081610a09565b6105c8610c09565b50565b6000600260009054906101000a900460ff16905090565b60008686868686866040516020016105ff9695949392919061130a565b6040516020818303038152906040528051906020012090509695505050505050565b7fa49807205ce4d355092ef5a8a18f56e8913cf4a201fbe287825b095693c2177581565b60046020528060005260406000206000915090505481565b7f65d7a28e3265b37a6474929f336521b332c1681b933f6cb9f3376673440d862a61068781610a09565b61068f610c6c565b50565b60006001600084815260200190815260200160002060000160008373ffffffffffffffffffffffffffffffffffffffff1673ffffffffffffffffffffffffffffffffffffffff16815260200190815260200160002060009054906101000a900460ff16905092915050565b60036020528060005260406000206000915090508060000160009054906101000a900473ffffffffffffffffffffffffffffffffffffffff16908060010160009054906101000a900473ffffffffffffffffffffffffffffffffffffffff16908060020154908060030154908060040154908060050154908060060160009054906101000a900460ff16905087565b7fa49807205ce4d355092ef5a8a18f56e8913cf4a201fbe287825b095693c217756107b681610a09565b6107be610ccf565b60006005549050826005819055507fe3394f5299f891e872a2e8340d5ad27ba95ad025eb5bd2c7f29eb6dcdf844f608184336040516107ff9392919061137a565b60405180910390a1505050565b6000801b81565b60055481565b610822826104d9565b61082b81610a09565b6108358383610b16565b50505050565b7f65d7a28e3265b37a6474929f336521b332c1681b933f6cb9f3376673440d862a81565b7fa49807205ce4d355092ef5a8a18f56e8913cf4a201fbe287825b095693c2177561088981610a09565b6003600083815260200190815260200160002060060160009054906101000a900460ff16156108ed576040517f08c379a00000000000000000000000000000000000000000000000000000000081526004016108e49061140e565b60405180910390fd5b60016003600084815260200190815260200160002060060160006101000a81548160ff0219169083151502179055503373ffffffffffffffffffffffffffffffffffffffff16827f77edeb690248764b802abf6a5901cd61acacb236b4c067e04efd9aef812ae6a860405160405180910390a35050565b7f241ecf16d79d0f8dbfb92cbc07fe17840425976cf0667f022fe9877caa831b0881565b60007f01ffc9a7000000000000000000000000000000000000000000000000000000007bffffffffffffffffffffffffffffffffffffffffffffffffffffffff1916827bffffffffffffffffffffffffffffffffffffffffffffffffffffffff1916149050919050565b6000826109ff8584610d10565b1490509392505050565b610a1a81610a15610b0e565b610d66565b50565b6000610a298383610692565b610b0357600180600085815260200190815260200160002060000160008473ffffffffffffffffffffffffffffffffffffffff1673ffffffffffffffffffffffffffffffffffffffff16815260200190815260200160002060006101000a81548160ff021916908315150217905550610aa0610b0e565b73ffffffffffffffffffffffffffffffffffffffff168273ffffffffffffffffffffffffffffffffffffffff16847f2f8788117e7eff1d82e926ec794901d17c78024a50270940304540a733656f0d60405160405180910390a460019050610b08565b600090505b92915050565b600033905090565b6000610b228383610692565b15610bfe5760006001600085815260200190815260200160002060000160008473ffffffffffffffffffffffffffffffffffffffff1673ffffffffffffffffffffffffffffffffffffffff16815260200190815260200160002060006101000a81548160ff021916908315150217905550610b9b610b0e565b73ffffffffffffffffffffffffffffffffffffffff168273ffffffffffffffffffffffffffffffffffffffff16847ff6391f5c32d9c69d2a47ea670b442974b53935d1edc7fd64eb21e047a839171b60405160405180910390a460019050610c03565b600090505b92915050565b610c11610db7565b6000600260006101000a81548160ff0219169083151502179055507f5db9ee0a495bf2e6ff9c91a7834c1ba4fdd244a5e8aa4e537bd38aeae4b073aa610c55610b0e565b604051610c62919061142e565b60405180910390a1565b610c74610ccf565b6001600260006101000a81548160ff0219169083151502179055507f62e78cea01bee320cd4e420270b5ea74000d11b0c9f74754ebdbfc544b05a258610cb8610b0e565b604051610cc5919061142e565b60405180910390a1565b610cd76105cb565b15610d0e576040517fd93c066500000000000000000000000000000000000000000000000000000000815260040160405180910390fd5b565b60008082905060005b8451811015610d5b57610d4682868381518110610d3957610d38611449565b5b6020026020010151610df7565b91508080610d53906114a7565b915050610d19565b508091505092915050565b610d708282610692565b610db35780826040517fe2517d3f000000000000000000000000000000000000000000000000000000008152600401610daa9291906114ef565b60405180910390fd5b5050565b610dbf6105cb565b610df5576040517f8dfc202b00000000000000000000000000000000000000000000000000000000815260040160405180910390fd5b565b6000818310610e0f57610e0a8284610e22565b610e1a565b610e198383610e22565b5b905092915050565b600082600052816020526040600020905092915050565b600080fd5b600080fd5b60007fffffffff0000000000000000000000000000000000000000000000000000000082169050919050565b610e7881610e43565b8114610e8357600080fd5b50565b600081359050610e9581610e6f565b92915050565b600060208284031215610eb157610eb0610e39565b5b6000610ebf84828501610e86565b91505092915050565b60008115159050919050565b610edd81610ec8565b82525050565b6000602082019050610ef86000830184610ed4565b92915050565b600073ffffffffffffffffffffffffffffffffffffffff82169050919050565b6000610f2982610efe565b9050919050565b610f3981610f1e565b8114610f4457600080fd5b50565b600081359050610f5681610f30565b92915050565b600080fd5b600080fd5b600080fd5b60008083601f840112610f8157610f80610f5c565b5b8235905067ffffffffffffffff811115610f9e57610f9d610f61565b5b602083019150836020820283011115610fba57610fb9610f66565b5b9250929050565b600080600060408486031215610fda57610fd9610e39565b5b6000610fe886828701610f47565b935050602084013567ffffffffffffffff81111561100957611008610e3e565b5b61101586828701610f6b565b92509250509250925092565b6000819050919050565b61103481611021565b811461103f57600080fd5b50565b6000813590506110518161102b565b92915050565b60006020828403121561106d5761106c610e39565b5b600061107b84828501611042565b91505092915050565b61108d81611021565b82525050565b60006020820190506110a86000830184611084565b92915050565b600080604083850312156110c5576110c4610e39565b5b60006110d385828601611042565b92505060206110e485828601610f47565b9150509250929050565b6000819050919050565b611101816110ee565b811461110c57600080fd5b50565b60008135905061111e816110f8565b92915050565b60008060008060008060c0878903121561114157611140610e39565b5b600061114f89828a01610f47565b965050602061116089828a01610f47565b955050604061117189828a0161110f565b945050606061118289828a0161110f565b935050608061119389828a0161110f565b92505060a06111a489828a0161110f565b9150509295509295509295565b6000602082840312156111c7576111c6610e39565b5b60006111d584828501610f47565b91505092915050565b6111e7816110ee565b82525050565b600060208201905061120260008301846111de565b92915050565b61121181610f1e565b82525050565b600060e08201905061122c600083018a611208565b6112396020830189611208565b61124660408301886111de565b61125360608301876111de565b61126060808301866111de565b61126d60a08301856111de565b61127a60c0830184610ed4565b98975050505050505050565b60008160601b9050919050565b600061129e82611286565b9050919050565b60006112b082611293565b9050919050565b6112c86112c382610f1e565b6112a5565b82525050565b60006112da82846112b7565b60148201915081905092915050565b6000819050919050565b6113046112ff826110ee565b6112e9565b82525050565b600061131682896112b7565b60148201915061132682886112b7565b60148201915061133682876112f3565b60208201915061134682866112f3565b60208201915061135682856112f3565b60208201915061136682846112f3565b602082019150819050979650505050505050565b600060608201905061138f6000830186611084565b61139c6020830185611084565b6113a96040830184611208565b949350505050565b600082825260208201905092915050565b7f5472616e7366657220616c726561647920657865637574656400000000000000600082015250565b60006113f86019836113b1565b9150611403826113c2565b602082019050919050565b60006020820190508181036000830152611427816113eb565b9050919050565b60006020820190506114436000830184611208565b92915050565b7f4e487b7100000000000000000000000000000000000000000000000000000000600052603260045260246000fd5b7f4e487b7100000000000000000000000000000000000000000000000000000000600052601160045260246000fd5b60006114b2826110ee565b91507fffffffffffffffffffffffffffffffffffffffffffffffffffffffffffffffff82036114e4576114e3611478565b5b600182019050919050565b60006040820190506115046000830185611208565b6115116020830184611084565b939250505056fea2646970667358221220c5a1d714afe5c233de6de95837c553f50018728c3511d3725c45407ef6c8090f64736f6c63430008140033",
  "linkReferences": {},
  "deployedLinkReferences": {}
}