{
  "_format": "hh-sol-artifact-1",
  "contractName": "BridgeAmoyNFT",
  "sourceName": "contracts/BridgeAmoyNFT.sol",
  "abi": [
    {
      "inputs": [
        {
          "internalType": "address",
          "name": "_nativeNFT",
          "type": "address"
        }
      ],
      "stateMutability": "nonpayable",
      "type": "constructor"
    },
    {
      "inputs": [],
      "name": "AccessControlBadConfirmation",
      "type": "error"
    },
    {
      "inputs": [
        {
          "internalType": "address",
          "name": "account",
          "type": "address"
        },
        {
          "internalType": "bytes32",
          "name": "neededRole",
          "type": "bytes32"
        }
      ],
      "name": "AccessControlUnauthorizedAccount",
      "type": "error"
    },
    {
      "inputs": [],
      "name": "ReentrancyGuardReentrantCall",
      "type": "error"
    },
    {
      "anonymous": false,
      "inputs": [
        {
          "indexed": true,
          "internalType": "address",
          "name": "token",
          "type": "address"
        },
        {
          "indexed": true,
          "internalType": "address",
          "name": "from",
          "type": "address"
        },
        {
          "indexed": false,
          "internalType": "uint256",
          "name": "tokenId",
          "type": "uint256"
        },
        {
          "indexed": false,
          "internalType": "uint256",
          "name": "nonce",
          "type": "uint256"
        },
        {
          "indexed": false,
          "internalType": "bytes32",
          "name": "transferId",
          "type": "bytes32"
        }
      ],
      "name": "Locked",
      "type": "event"
    },
    {
      "anonymous": false,
      "inputs": [
        {
          "indexed": false,
          "internalType": "bytes32",
          "name": "newRoot",
          "type": "bytes32"
        }
      ],
      "name": "MerkleRootUpdated",
      "type": "event"
    },
    {
      "anonymous": false,
      "inputs": [
        {
          "indexed": true,
          "internalType": "bytes32",
          "name": "role",
          "type": "bytes32"
        },
        {
          "indexed": true,
          "internalType": "bytes32",
          "name": "previousAdminRole",
          "type": "bytes32"
        },
        {
          "indexed": true,
          "internalType": "bytes32",
          "name": "newAdminRole",
          "type": "bytes32"
        }
      ],
      "name": "RoleAdminChanged",
      "type": "event"
    },
    {
      "anonymous": false,
      "inputs": [
        {
          "indexed": true,
          "internalType": "bytes32",
          "name": "role",
          "type": "bytes32"
        },
        {
          "indexed": true,
          "internalType": "address",
          "name": "account",
          "type": "address"
        },
        {
          "indexed": true,
          "internalType": "address",
          "name": "sender",
          "type": "address"
        }
      ],
      "name": "RoleGranted",
      "type": "event"
    },
    {
      "anonymous": false,
      "inputs": [
        {
          "indexed": true,
          "internalType": "bytes32",
          "name": "role",
          "type": "bytes32"
        },
        {
          "indexed": true,
          "internalType": "address",
          "name": "account",
          "type": "address"
        },
        {
          "indexed": true,
          "internalType": "address",
          "name": "sender",
          "type": "address"
        }
      ],
      "name": "RoleRevoked",
      "type": "event"
    },
    {
      "anonymous": false,
      "inputs": [
        {
          "indexed": true,
          "internalType": "address",
          "name": "token",
          "type": "address"
        },
        {
          "indexed": true,
          "internalType": "address",
          "name": "to",
          "type": "address"
        },
        {
          "indexed": false,
          "internalType": "uint256",
          "name": "tokenId",
          "type": "uint256"
        },
        {
          "indexed": false,
          "internalType": "bytes32",
          "name": "transferId",
          "type": "bytes32"
        }
      ],
      "name": "Unlocked",
      "type": "event"
    },
    {
      "inputs": [],
      "name": "DEFAULT_ADMIN_ROLE",
      "outputs": [
        {
          "internalType": "bytes32",
          "name": "",
          "type": "bytes32"
        }
      ],
      "stateMutability": "view",
      "type": "function"
    },
    {
      "inputs": [],
      "name": "RELAYER_ROLE",
      "outputs": [
        {
          "internalType": "bytes32",
          "name": "",
          "type": "bytes32"
        }
      ],
      "stateMutability": "view",
      "type": "function"
    },
    {
      "inputs": [
        {
          "internalType": "address",
          "name": "relayer",
          "type": "address"
        }
      ],
      "name": "addRelayer",
      "outputs": [],
      "stateMutability": "nonpayable",
      "type": "function"
    },
    {
      "inputs": [
        {
          "internalType": "bytes32",
          "name": "role",
          "type": "bytes32"
        }
      ],
      "name": "getRoleAdmin",
      "outputs": [
        {
          "internalType": "bytes32",
          "name": "",
          "type": "bytes32"
        }
      ],
      "stateMutability": "view",
      "type": "function"
    },
    {
      "inputs": [
        {
          "internalType": "bytes32",
          "name": "role",
          "type": "bytes32"
        },
        {
          "internalType": "address",
          "name": "account",
          "type": "address"
        }
      ],
      "name": "grantRole",
      "outputs": [],
      "stateMutability": "nonpayable",
      "type": "function"
    },
    {
      "inputs": [
        {
          "internalType": "bytes32",
          "name": "role",
          "type": "bytes32"
        },
        {
          "internalType": "address",
          "name": "account",
          "type": "address"
        }
      ],
      "name": "hasRole",
      "outputs": [
        {
          "internalType": "bool",
          "name": "",
          "type": "bool"
        }
      ],
      "stateMutability": "view",
      "type": "function"
    },
    {
      "inputs": [
        {
          "internalType": "uint256",
          "name": "tokenId",
          "type": "uint256"
        }
      ],
      "name": "lock",
      "outputs": [],
      "stateMutability": "nonpayable",
      "type": "function"
    },
    {
      "inputs": [
        {
          "internalType": "uint256",
          "name": "",
          "type": "uint256"
        }
      ],
      "name": "lockedTokens",
      "outputs": [
        {
          "internalType": "bool",
          "name": "",
          "type": "bool"
        }
      ],
      "stateMutability": "view",
      "type": "function"
    },
    {
      "inputs": [],
      "name": "merkleRoot",
      "outputs": [
        {
          "internalType": "bytes32",
          "name": "",
          "type": "bytes32"
        }
      ],
      "stateMutability": "view",
      "type": "function"
    },
    {
      "inputs": [],
      "name": "nativeNFT",
      "outputs": [
        {
          "internalType": "contract IERC721Mintable",
          "name": "",
          "type": "address"
        }
      ],
      "stateMutability": "view",
      "type": "function"
    },
    {
      "inputs": [],
      "name": "nonce",
      "outputs": [
        {
          "internalType": "uint256",
          "name": "",
          "type": "uint256"
        }
      ],
      "stateMutability": "view",
      "type": "function"
    },
    {
      "inputs": [
        {
          "internalType": "bytes32",
          "name": "",
          "type": "bytes32"
        }
      ],
      "name": "processedTransfers",
      "outputs": [
        {
          "internalType": "bool",
          "name": "",
          "type": "bool"
        }
      ],
      "stateMutability": "view",
      "type": "function"
    },
    {
      "inputs": [],
      "name": "remoteBridge",
      "outputs": [
        {
          "internalType": "address",
          "name": "",
          "type": "address"
        }
      ],
      "stateMutability": "view",
      "type": "function"
    },
    {
      "inputs": [
        {
          "internalType": "address",
          "name": "relayer",
          "type": "address"
        }
      ],
      "name": "removeRelayer",
      "outputs": [],
      "stateMutability": "nonpayable",
      "type": "function"
    },
    {
      "inputs": [
        {
          "internalType": "bytes32",
          "name": "role",
          "type": "bytes32"
        },
        {
          "internalType": "address",
          "name": "callerConfirmation",
          "type": "address"
        }
      ],
      "name": "renounceRole",
      "outputs": [],
      "stateMutability": "nonpayable",
      "type": "function"
    },
    {
      "inputs": [
        {
          "internalType": "bytes32",
          "name": "role",
          "type": "bytes32"
        },
        {
          "internalType": "address",
          "name": "account",
          "type": "address"
        }
      ],
      "name": "revokeRole",
      "outputs": [],
      "stateMutability": "nonpayable",
      "type": "function"
    },
    {
      "inputs": [
        {
          "internalType": "address",
          "name": "_remoteBridge",
          "type": "address"
        }
      ],
      "name": "setRemoteBridge",
      "outputs": [],
      "stateMutability": "nonpayable",
      "type": "function"
    },
    {
      "inputs": [
        {
          "internalType": "bytes4",
          "name": "interfaceId",
          "type": "bytes4"
        }
      ],
      "name": "supportsInterface",
      "outputs": [
        {
          "internalType": "bool",
          "name": "",
          "type": "bool"
        }
      ],
      "stateMutability": "view",
      "type": "function"
    },
    {
      "inputs": [
        {
          "internalType": "address",
          "name": "user",
          "type": "address"
        },
        {
          "internalType": "uint256",
          "name": "tokenId",
          "type": "uint256"
        },
        {
          "internalType": "bytes32[]",
          "name": "merkleProof",
          "type": "bytes32[]"
        },
        {
          "internalType": "bytes32",
          "name": "transferId",
          "type": "bytes32"
        }
      ],
      "name": "unlock",
      "outputs": [],
      "stateMutability": "nonpayable",
      "type": "function"
    },
    {
      "inputs": [
        {
          "internalType": "bytes32",
          "name": "newRoot",
          "type": "bytes32"
        }
      ],
      "name": "updateMerkleRoot",
      "outputs": [],
      "stateMutability": "nonpayable",
      "type": "function"
    }
  ],
  "bytecode": "0x60806040523480156200001157600080fd5b5060405162001dbf38038062001dbf8339818101604052810190620000379190620002ae565b6001808190555080600260006101000a81548173ffffffffffffffffffffffffffffffffffffffff021916908373ffffffffffffffffffffffffffffffffffffffff160217905550620000946000801b33620000cf60201b60201c565b50620000c77fe2b7fb3b832174769106daebcfd6d1970523240dda11281102db9363b83b0dc433620000cf60201b60201c565b5050620002e0565b6000620000e38383620001d260201b60201c565b620001c757600160008085815260200190815260200160002060000160008473ffffffffffffffffffffffffffffffffffffffff1673ffffffffffffffffffffffffffffffffffffffff16815260200190815260200160002060006101000a81548160ff021916908315150217905550620001636200023c60201b60201c565b73ffffffffffffffffffffffffffffffffffffffff168273ffffffffffffffffffffffffffffffffffffffff16847f2f8788117e7eff1d82e926ec794901d17c78024a50270940304540a733656f0d60405160405180910390a460019050620001cc565b600090505b92915050565b600080600084815260200190815260200160002060000160008373ffffffffffffffffffffffffffffffffffffffff1673ffffffffffffffffffffffffffffffffffffffff16815260200190815260200160002060009054906101000a900460ff16905092915050565b600033905090565b600080fd5b600073ffffffffffffffffffffffffffffffffffffffff82169050919050565b6000620002768262000249565b9050919050565b620002888162000269565b81146200029457600080fd5b50565b600081519050620002a8816200027d565b92915050565b600060208284031215620002c757620002c662000244565b5b6000620002d78482850162000297565b91505092915050565b611acf80620002f06000396000f3fe608060405234801561001057600080fd5b506004361061012c5760003560e01c8063926d7d7f116100ad578063dcec329411610071578063dcec32941461031d578063dd39f00d1461034d578063dd46706414610369578063dd910d7514610385578063de3c05c9146103b55761012c565b8063926d7d7f14610289578063a217fddf146102a7578063affed0e0146102c5578063c97123bb146102e3578063d547741f146103015761012c565b806336568abe116100f457806336568abe146101e75780634783f0ef1461020357806360f0a5ac1461021f5780638f38ed101461023b57806391d14854146102595761012c565b806301ffc9a71461013157806316ce814914610161578063248a9ca31461017d5780632eb4a7ab146101ad5780632f2ff15d146101cb575b600080fd5b61014b600480360381019061014691906111e7565b6103d1565b604051610158919061122f565b60405180910390f35b61017b600480360381019061017691906112a8565b61044b565b005b6101976004803603810190610192919061130b565b61049d565b6040516101a49190611347565b60405180910390f35b6101b56104bc565b6040516101c29190611347565b60405180910390f35b6101e560048036038101906101e09190611362565b6104c2565b005b61020160048036038101906101fc9190611362565b6104e4565b005b61021d6004803603810190610218919061130b565b61055f565b005b610239600480360381019061023491906112a8565b6105cb565b005b610243610606565b6040516102509190611401565b60405180910390f35b610273600480360381019061026e9190611362565b61062c565b604051610280919061122f565b60405180910390f35b610291610696565b60405161029e9190611347565b60405180910390f35b6102af6106ba565b6040516102bc9190611347565b60405180910390f35b6102cd6106c1565b6040516102da9190611435565b60405180910390f35b6102eb6106c7565b6040516102f8919061145f565b60405180910390f35b61031b60048036038101906103169190611362565b6106ed565b005b610337600480360381019061033291906114a6565b61070f565b604051610344919061122f565b60405180910390f35b610367600480360381019061036291906112a8565b61072f565b005b610383600480360381019061037e91906114a6565b61076a565b005b61039f600480360381019061039a919061130b565b610a7b565b6040516103ac919061122f565b60405180910390f35b6103cf60048036038101906103ca9190611538565b610a9b565b005b60007f7965db0b000000000000000000000000000000000000000000000000000000007bffffffffffffffffffffffffffffffffffffffffffffffffffffffff1916827bffffffffffffffffffffffffffffffffffffffffffffffffffffffff19161480610444575061044382610dcd565b5b9050919050565b6000801b61045881610e37565b81600360006101000a81548173ffffffffffffffffffffffffffffffffffffffff021916908373ffffffffffffffffffffffffffffffffffffffff1602179055505050565b6000806000838152602001908152602001600020600101549050919050565b60045481565b6104cb8261049d565b6104d481610e37565b6104de8383610e4b565b50505050565b6104ec610f3c565b73ffffffffffffffffffffffffffffffffffffffff168173ffffffffffffffffffffffffffffffffffffffff1614610550576040517f6697b23200000000000000000000000000000000000000000000000000000000815260040160405180910390fd5b61055a8282610f44565b505050565b7fe2b7fb3b832174769106daebcfd6d1970523240dda11281102db9363b83b0dc461058981610e37565b816004819055507f90004c04698bc3322499a575ed3752dd4abf33e0a7294c06a787a0fe01bea941826040516105bf9190611347565b60405180910390a15050565b6000801b6105d881610e37565b6106027fe2b7fb3b832174769106daebcfd6d1970523240dda11281102db9363b83b0dc4836106ed565b5050565b600260009054906101000a900473ffffffffffffffffffffffffffffffffffffffff1681565b600080600084815260200190815260200160002060000160008373ffffffffffffffffffffffffffffffffffffffff1673ffffffffffffffffffffffffffffffffffffffff16815260200190815260200160002060009054906101000a900460ff16905092915050565b7fe2b7fb3b832174769106daebcfd6d1970523240dda11281102db9363b83b0dc481565b6000801b81565b60075481565b600360009054906101000a900473ffffffffffffffffffffffffffffffffffffffff1681565b6106f68261049d565b6106ff81610e37565b6107098383610f44565b50505050565b60056020528060005260406000206000915054906101000a900460ff1681565b6000801b61073c81610e37565b6107667fe2b7fb3b832174769106daebcfd6d1970523240dda11281102db9363b83b0dc4836104c2565b5050565b610772611036565b6005600082815260200190815260200160002060009054906101000a900460ff16156107d3576040517f08c379a00000000000000000000000000000000000000000000000000000000081526004016107ca9061161d565b60405180910390fd5b3373ffffffffffffffffffffffffffffffffffffffff16600260009054906101000a900473ffffffffffffffffffffffffffffffffffffffff1673ffffffffffffffffffffffffffffffffffffffff16636352211e836040518263ffffffff1660e01b81526004016108459190611435565b602060405180830381865afa158015610862573d6000803e3d6000fd5b505050506040513d601f19601f820116820180604052508101906108869190611652565b73ffffffffffffffffffffffffffffffffffffffff16146108dc576040517f08c379a00000000000000000000000000000000000000000000000000000000081526004016108d3906116cb565b60405180910390fd5b600760008154809291906108ef9061171a565b9190505550600260009054906101000a900473ffffffffffffffffffffffffffffffffffffffff1673ffffffffffffffffffffffffffffffffffffffff166323b872dd3330846040518463ffffffff1660e01b815260040161095393929190611762565b600060405180830381600087803b15801561096d57600080fd5b505af1158015610981573d6000803e3d6000fd5b5050505060016005600083815260200190815260200160002060006101000a81548160ff021916908315150217905550600033826007546040516020016109ca93929190611802565b6040516020818303038152906040528051906020012090503373ffffffffffffffffffffffffffffffffffffffff16600260009054906101000a900473ffffffffffffffffffffffffffffffffffffffff1673ffffffffffffffffffffffffffffffffffffffff167f7aa78006cc7a7618c8491857405853f301af6f51619f45603c6bb6cc9688668b8460075485604051610a679392919061183f565b60405180910390a350610a7861107c565b50565b60066020528060005260406000206000915054906101000a900460ff1681565b610aa3611036565b7fe2b7fb3b832174769106daebcfd6d1970523240dda11281102db9363b83b0dc4610acd81610e37565b6005600086815260200190815260200160002060009054906101000a900460ff16610b2d576040517f08c379a0000000000000000000000000000000000000000000000000000000008152600401610b24906118c2565b60405180910390fd5b6006600083815260200190815260200160002060009054906101000a900460ff1615610b8e576040517f08c379a0000000000000000000000000000000000000000000000000000000008152600401610b859061192e565b60405180910390fd5b6000868684604051602001610ba59392919061196f565b604051602081830303815290604052805190602001209050610c0b858580806020026020016040519081016040528093929190818152602001838360200280828437600081840152601f19601f8201169050808301925050505050505060045483611085565b610c4a576040517f08c379a0000000000000000000000000000000000000000000000000000000008152600401610c41906119f8565b60405180910390fd5b60016006600085815260200190815260200160002060006101000a81548160ff02191690831515021790555060006005600088815260200190815260200160002060006101000a81548160ff021916908315150217905550600260009054906101000a900473ffffffffffffffffffffffffffffffffffffffff1673ffffffffffffffffffffffffffffffffffffffff166323b872dd3089896040518463ffffffff1660e01b8152600401610d0193929190611762565b600060405180830381600087803b158015610d1b57600080fd5b505af1158015610d2f573d6000803e3d6000fd5b505050508673ffffffffffffffffffffffffffffffffffffffff16600260009054906101000a900473ffffffffffffffffffffffffffffffffffffffff1673ffffffffffffffffffffffffffffffffffffffff167f8693b829bd514d88ff8c6c3d1fd02defcec4c851ab076e687ea3ddee6bc3f4ea8886604051610db4929190611a18565b60405180910390a35050610dc661107c565b5050505050565b60007f01ffc9a7000000000000000000000000000000000000000000000000000000007bffffffffffffffffffffffffffffffffffffffffffffffffffffffff1916827bffffffffffffffffffffffffffffffffffffffffffffffffffffffff1916149050919050565b610e4881610e43610f3c565b61109c565b50565b6000610e57838361062c565b610f3157600160008085815260200190815260200160002060000160008473ffffffffffffffffffffffffffffffffffffffff1673ffffffffffffffffffffffffffffffffffffffff16815260200190815260200160002060006101000a81548160ff021916908315150217905550610ece610f3c565b73ffffffffffffffffffffffffffffffffffffffff168273ffffffffffffffffffffffffffffffffffffffff16847f2f8788117e7eff1d82e926ec794901d17c78024a50270940304540a733656f0d60405160405180910390a460019050610f36565b600090505b92915050565b600033905090565b6000610f50838361062c565b1561102b57600080600085815260200190815260200160002060000160008473ffffffffffffffffffffffffffffffffffffffff1673ffffffffffffffffffffffffffffffffffffffff16815260200190815260200160002060006101000a81548160ff021916908315150217905550610fc8610f3c565b73ffffffffffffffffffffffffffffffffffffffff168273ffffffffffffffffffffffffffffffffffffffff16847ff6391f5c32d9c69d2a47ea670b442974b53935d1edc7fd64eb21e047a839171b60405160405180910390a460019050611030565b600090505b92915050565b600260015403611072576040517f3ee5aeb500000000000000000000000000000000000000000000000000000000815260040160405180910390fd5b6002600181905550565b60018081905550565b60008261109285846110ed565b1490509392505050565b6110a6828261062c565b6110e95780826040517fe2517d3f0000000000000000000000000000000000000000000000000000000081526004016110e0929190611a41565b60405180910390fd5b5050565b60008082905060005b8451811015611138576111238286838151811061111657611115611a6a565b5b6020026020010151611143565b915080806111309061171a565b9150506110f6565b508091505092915050565b600081831061115b57611156828461116e565b611166565b611165838361116e565b5b905092915050565b600082600052816020526040600020905092915050565b600080fd5b600080fd5b60007fffffffff0000000000000000000000000000000000000000000000000000000082169050919050565b6111c48161118f565b81146111cf57600080fd5b50565b6000813590506111e1816111bb565b92915050565b6000602082840312156111fd576111fc611185565b5b600061120b848285016111d2565b91505092915050565b60008115159050919050565b61122981611214565b82525050565b60006020820190506112446000830184611220565b92915050565b600073ffffffffffffffffffffffffffffffffffffffff82169050919050565b60006112758261124a565b9050919050565b6112858161126a565b811461129057600080fd5b50565b6000813590506112a28161127c565b92915050565b6000602082840312156112be576112bd611185565b5b60006112cc84828501611293565b91505092915050565b6000819050919050565b6112e8816112d5565b81146112f357600080fd5b50565b600081359050611305816112df565b92915050565b60006020828403121561132157611320611185565b5b600061132f848285016112f6565b91505092915050565b611341816112d5565b82525050565b600060208201905061135c6000830184611338565b92915050565b6000806040838503121561137957611378611185565b5b6000611387858286016112f6565b925050602061139885828601611293565b9150509250929050565b6000819050919050565b60006113c76113c26113bd8461124a565b6113a2565b61124a565b9050919050565b60006113d9826113ac565b9050919050565b60006113eb826113ce565b9050919050565b6113fb816113e0565b82525050565b600060208201905061141660008301846113f2565b92915050565b6000819050919050565b61142f8161141c565b82525050565b600060208201905061144a6000830184611426565b92915050565b6114598161126a565b82525050565b60006020820190506114746000830184611450565b92915050565b6114838161141c565b811461148e57600080fd5b50565b6000813590506114a08161147a565b92915050565b6000602082840312156114bc576114bb611185565b5b60006114ca84828501611491565b91505092915050565b600080fd5b600080fd5b600080fd5b60008083601f8401126114f8576114f76114d3565b5b8235905067ffffffffffffffff811115611515576115146114d8565b5b602083019150836020820283011115611531576115306114dd565b5b9250929050565b60008060008060006080868803121561155457611553611185565b5b600061156288828901611293565b955050602061157388828901611491565b945050604086013567ffffffffffffffff8111156115945761159361118a565b5b6115a0888289016114e2565b935093505060606115b3888289016112f6565b9150509295509295909350565b600082825260208201905092915050565b7f546f6b656e20616c7265616479206c6f636b6564000000000000000000000000600082015250565b60006116076014836115c0565b9150611612826115d1565b602082019050919050565b60006020820190508181036000830152611636816115fa565b9050919050565b60008151905061164c8161127c565b92915050565b60006020828403121561166857611667611185565b5b60006116768482850161163d565b91505092915050565b7f4e6f7420746f6b656e206f776e65720000000000000000000000000000000000600082015250565b60006116b5600f836115c0565b91506116c08261167f565b602082019050919050565b600060208201905081810360008301526116e4816116a8565b9050919050565b7f4e487b7100000000000000000000000000000000000000000000000000000000600052601160045260246000fd5b60006117258261141c565b91507fffffffffffffffffffffffffffffffffffffffffffffffffffffffffffffffff8203611757576117566116eb565b5b600182019050919050565b60006060820190506117776000830186611450565b6117846020830185611450565b6117916040830184611426565b949350505050565b60008160601b9050919050565b60006117b182611799565b9050919050565b60006117c3826117a6565b9050919050565b6117db6117d68261126a565b6117b8565b82525050565b6000819050919050565b6117fc6117f78261141c565b6117e1565b82525050565b600061180e82866117ca565b60148201915061181e82856117eb565b60208201915061182e82846117eb565b602082019150819050949350505050565b60006060820190506118546000830186611426565b6118616020830185611426565b61186e6040830184611338565b949350505050565b7f546f6b656e206e6f74206c6f636b656400000000000000000000000000000000600082015250565b60006118ac6010836115c0565b91506118b782611876565b602082019050919050565b600060208201905081810360008301526118db8161189f565b9050919050565b7f5472616e7366657220616c72656164792070726f636573736564000000000000600082015250565b6000611918601a836115c0565b9150611923826118e2565b602082019050919050565b600060208201905081810360008301526119478161190b565b9050919050565b6000819050919050565b611969611964826112d5565b61194e565b82525050565b600061197b82866117ca565b60148201915061198b82856117eb565b60208201915061199b8284611958565b602082019150819050949350505050565b7f496e76616c6964206d65726b6c652070726f6f66000000000000000000000000600082015250565b60006119e26014836115c0565b91506119ed826119ac565b602082019050919050565b60006020820190508181036000830152611a11816119d5565b9050919050565b6000604082019050611a2d6000830185611426565b611a3a6020830184611338565b9392505050565b6000604082019050611a566000830185611450565b611a636020830184611338565b9392505050565b7f4e487b7100000000000000000000000000000000000000000000000000000000600052603260045260246000fdfea264697066735822122038fd6c901f52c506d16d90756ccd5e382a7d88452f1e7c3f830a9ed5b0ad05e964736f6c63430008140033",
  "linkReferences": {},
  "deployedLinkReferences": {}
}