{
  "_format": "hh-sol-artifact-1",
  "contractName": "WrappedNFT",
  "sourceName": "contracts/WrappedNFT.sol",
  "abi": [
    {
      "inputs": [
        {
          "internalType": "string",
          "name": "name",
          "type": "string"
        },
        {
          "internalType": "string",
          "name": "symbol",
          "type": "string"
        },
        {
          "internalType": "address",
          "name": "owner",
          "type": "address"
        }
      ],
      "stateMutability": "nonpayable",
      "type": "constructor"
    },
    {
      "inputs": [
        {
          "internalType": "address",
          "name": "sender",
          "type": "address"
        },
        {
          "internalType": "uint256",
          "name": "tokenId",
          "type": "uint256"
        },
        {
          "internalType": "address",
          "name": "owner",
          "type": "address"
        }
      ],
      "name": "ERC721IncorrectOwner",
      "type": "error"
    },
    {
      "inputs": [
        {
          "internalType": "address",
          "name": "operator",
          "type": "address"
        },
        {
          "internalType": "uint256",
          "name": "tokenId",
          "type": "uint256"
        }
      ],
      "name": "ERC721InsufficientApproval",
      "type": "error"
    },
    {
      "inputs": [
        {
          "internalType": "address",
          "name": "approver",
          "type": "address"
        }
      ],
      "name": "ERC721InvalidApprover",
      "type": "error"
    },
    {
      "inputs": [
        {
          "internalType": "address",
          "name": "operator",
          "type": "address"
        }
      ],
      "name": "ERC721InvalidOperator",
      "type": "error"
    },
    {
      "inputs": [
        {
          "internalType": "address",
          "name": "owner",
          "type": "address"
        }
      ],
      "name": "ERC721InvalidOwner",
      "type": "error"
    },
    {
      "inputs": [
        {
          "internalType": "address",
          "name": "receiver",
          "type": "address"
        }
      ],
      "name": "ERC721InvalidReceiver",
      "type": "error"
    },
    {
      "inputs": [
        {
          "internalType": "address",
          "name": "sender",
          "type": "address"
        }
      ],
      "name": "ERC721InvalidSender",
      "type": "error"
    },
    {
      "inputs": [
        {
          "internalType": "uint256",
          "name": "tokenId",
          "type": "uint256"
        }
      ],
      "name": "ERC721NonexistentToken",
      "type": "error"
    },
    {
      "inputs": [
        {
          "internalType": "address",
          "name": "owner",
          "type": "address"
        }
      ],
      "name": "OwnableInvalidOwner",
      "type": "error"
    },
    {
      "inputs": [
        {
          "internalType": "address",
          "name": "account",
          "type": "address"
        }
      ],
      "name": "OwnableUnauthorizedAccount",
      "type": "error"
    },
    {
      "anonymous": false,
      "inputs": [
        {
          "indexed": true,
          "internalType": "address",
          "name": "owner",
          "type": "address"
        },
        {
          "indexed": true,
          "internalType": "address",
          "name": "approved",
          "type": "address"
        },
        {
          "indexed": true,
          "internalType": "uint256",
          "name": "tokenId",
          "type": "uint256"
        }
      ],
      "name": "Approval",
      "type": "event"
    },
    {
      "anonymous": false,
      "inputs": [
        {
          "indexed": true,
          "internalType": "address",
          "name": "owner",
          "type": "address"
        },
        {
          "indexed": true,
          "internalType": "address",
          "name": "operator",
          "type": "address"
        },
        {
          "indexed": false,
          "internalType": "bool",
          "name": "approved",
          "type": "bool"
        }
      ],
      "name": "ApprovalForAll",
      "type": "event"
    },
    {
      "anonymous": false,
      "inputs": [
        {
          "indexed": true,
          "internalType": "address",
          "name": "previousOwner",
          "type": "address"
        },
        {
          "indexed": true,
          "internalType": "address",
          "name": "newOwner",
          "type": "address"
        }
      ],
      "name": "OwnershipTransferred",
      "type": "event"
    },
    {
      "anonymous": false,
      "inputs": [
        {
          "indexed": true,
          "internalType": "address",
          "name": "from",
          "type": "address"
        },
        {
          "indexed": true,
          "internalType": "address",
          "name": "to",
          "type": "address"
        },
        {
          "indexed": true,
          "internalType": "uint256",
          "name": "tokenId",
          "type": "uint256"
        }
      ],
      "name": "Transfer",
      "type": "event"
    },
    {
      "inputs": [
        {
          "internalType": "address",
          "name": "to",
          "type": "address"
        },
        {
          "internalType": "uint256",
          "name": "tokenId",
          "type": "uint256"
        }
      ],
      "name": "approve",
      "outputs": [],
      "stateMutability": "nonpayable",
      "type": "function"
    },
    {
      "inputs": [
        {
          "internalType": "address",
          "name": "owner",
          "type": "address"
        }
      ],
      "name": "balanceOf",
      "outputs": [
        {
          "internalType": "uint256",
          "name": "",
          "type": "uint256"
        }
      ],
      "stateMutability": "view",
      "type": "function"
    },
    {
      "inputs": [
        {
          "internalType": "uint256",
          "name": "tokenId",
          "type": "uint256"
        }
      ],
      "name": "burn",
      "outputs": [],
      "stateMutability": "nonpayable",
      "type": "function"
    },
    {
      "inputs": [
        {
          "internalType": "uint256",
          "name": "tokenId",
          "type": "uint256"
        }
      ],
      "name": "getApproved",
      "outputs": [
        {
          "internalType": "address",
          "name": "",
          "type": "address"
        }
      ],
      "stateMutability": "view",
      "type": "function"
    },
    {
      "inputs": [
        {
          "internalType": "address",
          "name": "owner",
          "type": "address"
        },
        {
          "internalType": "address",
          "name": "operator",
          "type": "address"
        }
      ],
      "name": "isApprovedForAll",
      "outputs": [
        {
          "internalType": "bool",
          "name": "",
          "type": "bool"
        }
      ],
      "stateMutability": "view",
      "type": "function"
    },
    {
      "inputs": [
        {
          "internalType": "address",
          "name": "to",
          "type": "address"
        },
        {
          "internalType": "uint256",
          "name": "tokenId",
          "type": "uint256"
        }
      ],
      "name": "mint",
      "outputs": [],
      "stateMutability": "nonpayable",
      "type": "function"
    },
    {
      "inputs": [],
      "name": "name",
      "outputs": [
        {
          "internalType": "string",
          "name": "",
          "type": "string"
        }
      ],
      "stateMutability": "view",
      "type": "function"
    },
    {
      "inputs": [],
      "name": "owner",
      "outputs": [
        {
          "internalType": "address",
          "name": "",
          "type": "address"
        }
      ],
      "stateMutability": "view",
      "type": "function"
    },
    {
      "inputs": [
        {
          "internalType": "uint256",
          "name": "tokenId",
          "type": "uint256"
        }
      ],
      "name": "ownerOf",
      "outputs": [
        {
          "internalType": "address",
          "name": "",
          "type": "address"
        }
      ],
      "stateMutability": "view",
      "type": "function"
    },
    {
      "inputs": [],
      "name": "renounceOwnership",
      "outputs": [],
      "stateMutability": "nonpayable",
      "type": "function"
    },
    {
      "inputs": [
        {
          "internalType": "address",
          "name": "from",
          "type": "address"
        },
        {
          "internalType": "address",
          "name": "to",
          "type": "address"
        },
        {
          "internalType": "uint256",
          "name": "tokenId",
          "type": "uint256"
        }
      ],
      "name": "safeTransferFrom",
      "outputs": [],
      "stateMutability": "nonpayable",
      "type": "function"
    },
    {
      "inputs": [
        {
          "internalType": "address",
          "name": "from",
          "type": "address"
        },
        {
          "internalType": "address",
          "name": "to",
          "type": "address"
        },
        {
          "internalType": "uint256",
          "name": "tokenId",
          "type": "uint256"
        },
        {
          "internalType": "bytes",
          "name": "data",
          "type": "bytes"
        }
      ],
      "name": "safeTransferFrom",
      "outputs": [],
      "stateMutability": "nonpayable",
      "type": "function"
    },
    {
      "inputs": [
        {
          "internalType": "address",
          "name": "operator",
          "type": "address"
        },
        {
          "internalType": "bool",
          "name": "approved",
          "type": "bool"
        }
      ],
      "name": "setApprovalForAll",
      "outputs": [],
      "stateMutability": "nonpayable",
      "type": "function"
    },
    {
      "inputs": [
        {
          "internalType": "bytes4",
          "name": "interfaceId",
          "type": "bytes4"
        }
      ],
      "name": "supportsInterface",
      "outputs": [
        {
          "internalType": "bool",
          "name": "",
          "type": "bool"
        }
      ],
      "stateMutability": "view",
      "type": "function"
    },
    {
      "inputs": [],
      "name": "symbol",
      "outputs": [
        {
          "internalType": "string",
          "name": "",
          "type": "string"
        }
      ],
      "stateMutability": "view",
      "type": "function"
    },
    {
      "inputs": [
        {
          "internalType": "uint256",
          "name": "tokenId",
          "type": "uint256"
        }
      ],
      "name": "tokenURI",
      "outputs": [
        {
          "internalType": "string",
          "name": "",
          "type": "string"
        }
      ],
      "stateMutability": "view",
      "type": "function"
    },
    {
      "inputs": [
        {
          "internalType": "address",
          "name": "from",
          "type": "address"
        },
        {
          "internalType": "address",
          "name": "to",
          "type": "address"
        },
        {
          "internalType": "uint256",
          "name": "tokenId",
          "type": "uint256"
        }
      ],
      "name": "transferFrom",
      "outputs": [],
      "stateMutability": "nonpayable",
      "type": "function"
    },
    {
      "inputs": [
        {
          "internalType": "address",
          "name": "newOwner",
          "type": "address"
        }
      ],
      "name": "transferOwnership",
      "outputs": [],
      "stateMutability": "nonpayable",
      "type": "function"
    }
  ],
  "bytecode": "0x60806040523480156200001157600080fd5b50604051620028f5380380620028f58339818101604052810190620000379190620003ae565b80838381600090816200004b919062000693565b5080600190816200005d919062000693565b505050600073ffffffffffffffffffffffffffffffffffffffff168173ffffffffffffffffffffffffffffffffffffffff1603620000d55760006040517f1e4fbdf7000000000000000000000000000000000000000000000000000000008152600401620000cc91906200078b565b60405180910390fd5b620000e681620000f060201b60201c565b50505050620007a8565b6000600660009054906101000a900473ffffffffffffffffffffffffffffffffffffffff16905081600660006101000a81548173ffffffffffffffffffffffffffffffffffffffff021916908373ffffffffffffffffffffffffffffffffffffffff1602179055508173ffffffffffffffffffffffffffffffffffffffff168173ffffffffffffffffffffffffffffffffffffffff167f8be0079c531659141344cd1fd0a4f28419497f9722a3daafe3b4186f6b6457e060405160405180910390a35050565b6000604051905090565b600080fd5b600080fd5b600080fd5b600080fd5b6000601f19601f8301169050919050565b7f4e487b7100000000000000000000000000000000000000000000000000000000600052604160045260246000fd5b6200021f82620001d4565b810181811067ffffffffffffffff82111715620002415762000240620001e5565b5b80604052505050565b600062000256620001b6565b905062000264828262000214565b919050565b600067ffffffffffffffff821115620002875762000286620001e5565b5b6200029282620001d4565b9050602081019050919050565b60005b83811015620002bf578082015181840152602081019050620002a2565b60008484015250505050565b6000620002e2620002dc8462000269565b6200024a565b905082815260208101848484011115620003015762000300620001cf565b5b6200030e8482856200029f565b509392505050565b600082601f8301126200032e576200032d620001ca565b5b815162000340848260208601620002cb565b91505092915050565b600073ffffffffffffffffffffffffffffffffffffffff82169050919050565b6000620003768262000349565b9050919050565b620003888162000369565b81146200039457600080fd5b50565b600081519050620003a8816200037d565b92915050565b600080600060608486031215620003ca57620003c9620001c0565b5b600084015167ffffffffffffffff811115620003eb57620003ea620001c5565b5b620003f98682870162000316565b935050602084015167ffffffffffffffff8111156200041d576200041c620001c5565b5b6200042b8682870162000316565b92505060406200043e8682870162000397565b9150509250925092565b600081519050919050565b7f4e487b7100000000000000000000000000000000000000000000000000000000600052602260045260246000fd5b600060028204905060018216806200049b57607f821691505b602082108103620004b157620004b062000453565b5b50919050565b60008190508160005260206000209050919050565b60006020601f8301049050919050565b600082821b905092915050565b6000600883026200051b7fffffffffffffffffffffffffffffffffffffffffffffffffffffffffffffffff82620004dc565b620005278683620004dc565b95508019841693508086168417925050509392505050565b6000819050919050565b6000819050919050565b6000620005746200056e62000568846200053f565b62000549565b6200053f565b9050919050565b6000819050919050565b620005908362000553565b620005a86200059f826200057b565b848454620004e9565b825550505050565b600090565b620005bf620005b0565b620005cc81848462000585565b505050565b5b81811015620005f457620005e8600082620005b5565b600181019050620005d2565b5050565b601f82111562000643576200060d81620004b7565b6200061884620004cc565b8101602085101562000628578190505b620006406200063785620004cc565b830182620005d1565b50505b505050565b600082821c905092915050565b6000620006686000198460080262000648565b1980831691505092915050565b600062000683838362000655565b9150826002028217905092915050565b6200069e8262000448565b67ffffffffffffffff811115620006ba57620006b9620001e5565b5b620006c6825462000482565b620006d3828285620005f8565b600060209050601f8311600181146200070b5760008415620006f6578287015190505b62000702858262000675565b86555062000772565b601f1984166200071b86620004b7565b60005b8281101562000745578489015182556001820191506020850194506020810190506200071e565b8683101562000765578489015162000761601f89168262000655565b8355505b6001600288020188555050505b505050505050565b620007858162000369565b82525050565b6000602082019050620007a260008301846200077a565b92915050565b61213d80620007b86000396000f3fe608060405234801561001057600080fd5b50600436106101165760003560e01c806370a08231116100a2578063a22cb46511610071578063a22cb465146102cb578063b88d4fde146102e7578063c87b56dd14610303578063e985e9c514610333578063f2fde38b1461036357610116565b806370a0823114610255578063715018a6146102855780638da5cb5b1461028f57806395d89b41146102ad57610116565b806323b872dd116100e957806323b872dd146101b557806340c10f19146101d157806342842e0e146101ed57806342966c68146102095780636352211e1461022557610116565b806301ffc9a71461011b57806306fdde031461014b578063081812fc14610169578063095ea7b314610199575b600080fd5b61013560048036038101906101309190611987565b61037f565b60405161014291906119cf565b60405180910390f35b610153610461565b6040516101609190611a7a565b60405180910390f35b610183600480360381019061017e9190611ad2565b6104f3565b6040516101909190611b40565b60405180910390f35b6101b360048036038101906101ae9190611b87565b61050f565b005b6101cf60048036038101906101ca9190611bc7565b610525565b005b6101eb60048036038101906101e69190611b87565b610627565b005b61020760048036038101906102029190611bc7565b61063d565b005b610223600480360381019061021e9190611ad2565b61065d565b005b61023f600480360381019061023a9190611ad2565b610671565b60405161024c9190611b40565b60405180910390f35b61026f600480360381019061026a9190611c1a565b610683565b60405161027c9190611c56565b60405180910390f35b61028d61073d565b005b610297610751565b6040516102a49190611b40565b60405180910390f35b6102b561077b565b6040516102c29190611a7a565b60405180910390f35b6102e560048036038101906102e09190611c9d565b61080d565b005b61030160048036038101906102fc9190611e12565b610823565b005b61031d60048036038101906103189190611ad2565b610848565b60405161032a9190611a7a565b60405180910390f35b61034d60048036038101906103489190611e95565b6108b1565b60405161035a91906119cf565b60405180910390f35b61037d60048036038101906103789190611c1a565b610945565b005b60007f80ac58cd000000000000000000000000000000000000000000000000000000007bffffffffffffffffffffffffffffffffffffffffffffffffffffffff1916827bffffffffffffffffffffffffffffffffffffffffffffffffffffffff1916148061044a57507f5b5e139f000000000000000000000000000000000000000000000000000000007bffffffffffffffffffffffffffffffffffffffffffffffffffffffff1916827bffffffffffffffffffffffffffffffffffffffffffffffffffffffff1916145b8061045a5750610459826109cb565b5b9050919050565b60606000805461047090611f04565b80601f016020809104026020016040519081016040528092919081815260200182805461049c90611f04565b80156104e95780601f106104be576101008083540402835291602001916104e9565b820191906000526020600020905b8154815290600101906020018083116104cc57829003601f168201915b5050505050905090565b60006104fe82610a35565b5061050882610abd565b9050919050565b610521828261051c610afa565b610b02565b5050565b600073ffffffffffffffffffffffffffffffffffffffff168273ffffffffffffffffffffffffffffffffffffffff16036105975760006040517f64a0ae9200000000000000000000000000000000000000000000000000000000815260040161058e9190611b40565b60405180910390fd5b60006105ab83836105a6610afa565b610b14565b90508373ffffffffffffffffffffffffffffffffffffffff168173ffffffffffffffffffffffffffffffffffffffff1614610621578382826040517f64283d7b00000000000000000000000000000000000000000000000000000000815260040161061893929190611f35565b60405180910390fd5b50505050565b61062f610d2e565b6106398282610db5565b5050565b61065883838360405180602001604052806000815250610823565b505050565b610665610d2e565b61066e81610dd3565b50565b600061067c82610a35565b9050919050565b60008073ffffffffffffffffffffffffffffffffffffffff168273ffffffffffffffffffffffffffffffffffffffff16036106f65760006040517f89c62b640000000000000000000000000000000000000000000000000000000081526004016106ed9190611b40565b60405180910390fd5b600360008373ffffffffffffffffffffffffffffffffffffffff1673ffffffffffffffffffffffffffffffffffffffff168152602001908152602001600020549050919050565b610745610d2e565b61074f6000610e59565b565b6000600660009054906101000a900473ffffffffffffffffffffffffffffffffffffffff16905090565b60606001805461078a90611f04565b80601f01602080910402602001604051908101604052809291908181526020018280546107b690611f04565b80156108035780601f106107d857610100808354040283529160200191610803565b820191906000526020600020905b8154815290600101906020018083116107e657829003601f168201915b5050505050905090565b61081f610818610afa565b8383610f1f565b5050565b61082e848484610525565b610842610839610afa565b8585858561108e565b50505050565b606061085382610a35565b50600061085e61123f565b9050600081511161087e57604051806020016040528060008152506108a9565b8061088884611256565b604051602001610899929190611fa8565b6040516020818303038152906040525b915050919050565b6000600560008473ffffffffffffffffffffffffffffffffffffffff1673ffffffffffffffffffffffffffffffffffffffff16815260200190815260200160002060008373ffffffffffffffffffffffffffffffffffffffff1673ffffffffffffffffffffffffffffffffffffffff16815260200190815260200160002060009054906101000a900460ff16905092915050565b61094d610d2e565b600073ffffffffffffffffffffffffffffffffffffffff168173ffffffffffffffffffffffffffffffffffffffff16036109bf5760006040517f1e4fbdf70000000000000000000000000000000000000000000000000000000081526004016109b69190611b40565b60405180910390fd5b6109c881610e59565b50565b60007f01ffc9a7000000000000000000000000000000000000000000000000000000007bffffffffffffffffffffffffffffffffffffffffffffffffffffffff1916827bffffffffffffffffffffffffffffffffffffffffffffffffffffffff1916149050919050565b600080610a4183611324565b9050600073ffffffffffffffffffffffffffffffffffffffff168173ffffffffffffffffffffffffffffffffffffffff1603610ab457826040517f7e273289000000000000000000000000000000000000000000000000000000008152600401610aab9190611c56565b60405180910390fd5b80915050919050565b60006004600083815260200190815260200160002060009054906101000a900473ffffffffffffffffffffffffffffffffffffffff169050919050565b600033905090565b610b0f8383836001611361565b505050565b600080610b2084611324565b9050600073ffffffffffffffffffffffffffffffffffffffff168373ffffffffffffffffffffffffffffffffffffffff1614610b6257610b61818486611526565b5b600073ffffffffffffffffffffffffffffffffffffffff168173ffffffffffffffffffffffffffffffffffffffff1614610bf357610ba4600085600080611361565b6001600360008373ffffffffffffffffffffffffffffffffffffffff1673ffffffffffffffffffffffffffffffffffffffff168152602001908152602001600020600082825403925050819055505b600073ffffffffffffffffffffffffffffffffffffffff168573ffffffffffffffffffffffffffffffffffffffff1614610c76576001600360008773ffffffffffffffffffffffffffffffffffffffff1673ffffffffffffffffffffffffffffffffffffffff168152602001908152602001600020600082825401925050819055505b846002600086815260200190815260200160002060006101000a81548173ffffffffffffffffffffffffffffffffffffffff021916908373ffffffffffffffffffffffffffffffffffffffff160217905550838573ffffffffffffffffffffffffffffffffffffffff168273ffffffffffffffffffffffffffffffffffffffff167fddf252ad1be2c89b69c2b068fc378daa952ba7f163c4a11628f55a4df523b3ef60405160405180910390a4809150509392505050565b610d36610afa565b73ffffffffffffffffffffffffffffffffffffffff16610d54610751565b73ffffffffffffffffffffffffffffffffffffffff1614610db357610d77610afa565b6040517f118cdaa7000000000000000000000000000000000000000000000000000000008152600401610daa9190611b40565b60405180910390fd5b565b610dcf8282604051806020016040528060008152506115ea565b5050565b6000610de26000836000610b14565b9050600073ffffffffffffffffffffffffffffffffffffffff168173ffffffffffffffffffffffffffffffffffffffff1603610e5557816040517f7e273289000000000000000000000000000000000000000000000000000000008152600401610e4c9190611c56565b60405180910390fd5b5050565b6000600660009054906101000a900473ffffffffffffffffffffffffffffffffffffffff16905081600660006101000a81548173ffffffffffffffffffffffffffffffffffffffff021916908373ffffffffffffffffffffffffffffffffffffffff1602179055508173ffffffffffffffffffffffffffffffffffffffff168173ffffffffffffffffffffffffffffffffffffffff167f8be0079c531659141344cd1fd0a4f28419497f9722a3daafe3b4186f6b6457e060405160405180910390a35050565b600073ffffffffffffffffffffffffffffffffffffffff168273ffffffffffffffffffffffffffffffffffffffff1603610f9057816040517f5b08ba18000000000000000000000000000000000000000000000000000000008152600401610f879190611b40565b60405180910390fd5b80600560008573ffffffffffffffffffffffffffffffffffffffff1673ffffffffffffffffffffffffffffffffffffffff16815260200190815260200160002060008473ffffffffffffffffffffffffffffffffffffffff1673ffffffffffffffffffffffffffffffffffffffff16815260200190815260200160002060006101000a81548160ff0219169083151502179055508173ffffffffffffffffffffffffffffffffffffffff168373ffffffffffffffffffffffffffffffffffffffff167f17307eab39ab6107e8899845ad3d59bd9653f200f220920489ca2b5937696c318360405161108191906119cf565b60405180910390a3505050565b60008373ffffffffffffffffffffffffffffffffffffffff163b1115611238578273ffffffffffffffffffffffffffffffffffffffff1663150b7a02868685856040518563ffffffff1660e01b81526004016110ed9493929190612021565b6020604051808303816000875af192505050801561112957506040513d601f19601f820116820180604052508101906111269190612082565b60015b6111ad573d8060008114611159576040519150601f19603f3d011682016040523d82523d6000602084013e61115e565b606091505b5060008151036111a557836040517f64a0ae9200000000000000000000000000000000000000000000000000000000815260040161119c9190611b40565b60405180910390fd5b805181602001fd5b63150b7a0260e01b7bffffffffffffffffffffffffffffffffffffffffffffffffffffffff1916817bffffffffffffffffffffffffffffffffffffffffffffffffffffffff19161461123657836040517f64a0ae9200000000000000000000000000000000000000000000000000000000815260040161122d9190611b40565b60405180910390fd5b505b5050505050565b606060405180602001604052806000815250905090565b6060600060016112658461160e565b01905060008167ffffffffffffffff81111561128457611283611ce7565b5b6040519080825280601f01601f1916602001820160405280156112b65781602001600182028036833780820191505090505b509050600082602001820190505b600115611319578080600190039150507f3031323334353637383961626364656600000000000000000000000000000000600a86061a8153600a858161130d5761130c6120af565b5b049450600085036112c4575b819350505050919050565b60006002600083815260200190815260200160002060009054906101000a900473ffffffffffffffffffffffffffffffffffffffff169050919050565b808061139a5750600073ffffffffffffffffffffffffffffffffffffffff168273ffffffffffffffffffffffffffffffffffffffff1614155b156114ce5760006113aa84610a35565b9050600073ffffffffffffffffffffffffffffffffffffffff168373ffffffffffffffffffffffffffffffffffffffff161415801561141557508273ffffffffffffffffffffffffffffffffffffffff168173ffffffffffffffffffffffffffffffffffffffff1614155b8015611428575061142681846108b1565b155b1561146a57826040517fa9fbf51f0000000000000000000000000000000000000000000000000000000081526004016114619190611b40565b60405180910390fd5b81156114cc57838573ffffffffffffffffffffffffffffffffffffffff168273ffffffffffffffffffffffffffffffffffffffff167f8c5be1e5ebec7d5bd14f71427d1e84f3dd0314c0f7b2291e5b200ac8c7c3b92560405160405180910390a45b505b836004600085815260200190815260200160002060006101000a81548173ffffffffffffffffffffffffffffffffffffffff021916908373ffffffffffffffffffffffffffffffffffffffff16021790555050505050565b611531838383611761565b6115e557600073ffffffffffffffffffffffffffffffffffffffff168373ffffffffffffffffffffffffffffffffffffffff16036115a657806040517f7e27328900000000000000000000000000000000000000000000000000000000815260040161159d9190611c56565b60405180910390fd5b81816040517f177e802f0000000000000000000000000000000000000000000000000000000081526004016115dc9291906120de565b60405180910390fd5b505050565b6115f48383611822565b6116096115ff610afa565b600085858561108e565b505050565b600080600090507a184f03e93ff9f4daa797ed6e38ed64bf6a1f010000000000000000831061166c577a184f03e93ff9f4daa797ed6e38ed64bf6a1f0100000000000000008381611662576116616120af565b5b0492506040810190505b6d04ee2d6d415b85acef810000000083106116a9576d04ee2d6d415b85acef8100000000838161169f5761169e6120af565b5b0492506020810190505b662386f26fc1000083106116d857662386f26fc1000083816116ce576116cd6120af565b5b0492506010810190505b6305f5e1008310611701576305f5e10083816116f7576116f66120af565b5b0492506008810190505b612710831061172657612710838161171c5761171b6120af565b5b0492506004810190505b60648310611749576064838161173f5761173e6120af565b5b0492506002810190505b600a8310611758576001810190505b80915050919050565b60008073ffffffffffffffffffffffffffffffffffffffff168373ffffffffffffffffffffffffffffffffffffffff161415801561181957508273ffffffffffffffffffffffffffffffffffffffff168473ffffffffffffffffffffffffffffffffffffffff1614806117da57506117d984846108b1565b5b8061181857508273ffffffffffffffffffffffffffffffffffffffff1661180083610abd565b73ffffffffffffffffffffffffffffffffffffffff16145b5b90509392505050565b600073ffffffffffffffffffffffffffffffffffffffff168273ffffffffffffffffffffffffffffffffffffffff16036118945760006040517f64a0ae9200000000000000000000000000000000000000000000000000000000815260040161188b9190611b40565b60405180910390fd5b60006118a283836000610b14565b9050600073ffffffffffffffffffffffffffffffffffffffff168173ffffffffffffffffffffffffffffffffffffffff16146119165760006040517f73c6ac6e00000000000000000000000000000000000000000000000000000000815260040161190d9190611b40565b60405180910390fd5b505050565b6000604051905090565b600080fd5b600080fd5b60007fffffffff0000000000000000000000000000000000000000000000000000000082169050919050565b6119648161192f565b811461196f57600080fd5b50565b6000813590506119818161195b565b92915050565b60006020828403121561199d5761199c611925565b5b60006119ab84828501611972565b91505092915050565b60008115159050919050565b6119c9816119b4565b82525050565b60006020820190506119e460008301846119c0565b92915050565b600081519050919050565b600082825260208201905092915050565b60005b83811015611a24578082015181840152602081019050611a09565b60008484015250505050565b6000601f19601f8301169050919050565b6000611a4c826119ea565b611a5681856119f5565b9350611a66818560208601611a06565b611a6f81611a30565b840191505092915050565b60006020820190508181036000830152611a948184611a41565b905092915050565b6000819050919050565b611aaf81611a9c565b8114611aba57600080fd5b50565b600081359050611acc81611aa6565b92915050565b600060208284031215611ae857611ae7611925565b5b6000611af684828501611abd565b91505092915050565b600073ffffffffffffffffffffffffffffffffffffffff82169050919050565b6000611b2a82611aff565b9050919050565b611b3a81611b1f565b82525050565b6000602082019050611b556000830184611b31565b92915050565b611b6481611b1f565b8114611b6f57600080fd5b50565b600081359050611b8181611b5b565b92915050565b60008060408385031215611b9e57611b9d611925565b5b6000611bac85828601611b72565b9250506020611bbd85828601611abd565b9150509250929050565b600080600060608486031215611be057611bdf611925565b5b6000611bee86828701611b72565b9350506020611bff86828701611b72565b9250506040611c1086828701611abd565b9150509250925092565b600060208284031215611c3057611c2f611925565b5b6000611c3e84828501611b72565b91505092915050565b611c5081611a9c565b82525050565b6000602082019050611c6b6000830184611c47565b92915050565b611c7a816119b4565b8114611c8557600080fd5b50565b600081359050611c9781611c71565b92915050565b60008060408385031215611cb457611cb3611925565b5b6000611cc285828601611b72565b9250506020611cd385828601611c88565b9150509250929050565b600080fd5b600080fd5b7f4e487b7100000000000000000000000000000000000000000000000000000000600052604160045260246000fd5b611d1f82611a30565b810181811067ffffffffffffffff82111715611d3e57611d3d611ce7565b5b80604052505050565b6000611d5161191b565b9050611d5d8282611d16565b919050565b600067ffffffffffffffff821115611d7d57611d7c611ce7565b5b611d8682611a30565b9050602081019050919050565b82818337600083830152505050565b6000611db5611db084611d62565b611d47565b905082815260208101848484011115611dd157611dd0611ce2565b5b611ddc848285611d93565b509392505050565b600082601f830112611df957611df8611cdd565b5b8135611e09848260208601611da2565b91505092915050565b60008060008060808587031215611e2c57611e2b611925565b5b6000611e3a87828801611b72565b9450506020611e4b87828801611b72565b9350506040611e5c87828801611abd565b925050606085013567ffffffffffffffff811115611e7d57611e7c61192a565b5b611e8987828801611de4565b91505092959194509250565b60008060408385031215611eac57611eab611925565b5b6000611eba85828601611b72565b9250506020611ecb85828601611b72565b9150509250929050565b7f4e487b7100000000000000000000000000000000000000000000000000000000600052602260045260246000fd5b60006002820490506001821680611f1c57607f821691505b602082108103611f2f57611f2e611ed5565b5b50919050565b6000606082019050611f4a6000830186611b31565b611f576020830185611c47565b611f646040830184611b31565b949350505050565b600081905092915050565b6000611f82826119ea565b611f8c8185611f6c565b9350611f9c818560208601611a06565b80840191505092915050565b6000611fb48285611f77565b9150611fc08284611f77565b91508190509392505050565b600081519050919050565b600082825260208201905092915050565b6000611ff382611fcc565b611ffd8185611fd7565b935061200d818560208601611a06565b61201681611a30565b840191505092915050565b60006080820190506120366000830187611b31565b6120436020830186611b31565b6120506040830185611c47565b81810360608301526120628184611fe8565b905095945050505050565b60008151905061207c8161195b565b92915050565b60006020828403121561209857612097611925565b5b60006120a68482850161206d565b91505092915050565b7f4e487b7100000000000000000000000000000000000000000000000000000000600052601260045260246000fd5b60006040820190506120f36000830185611b31565b6121006020830184611c47565b939250505056fea264697066735822122061487a4845a206fb8971d00f71d3d213da5a88b618c3db7e9884b22b3ccf224264736f6c63430008140033",
  "linkReferences": {},
  "deployedLinkReferences": {}
}