{
  "contractName": "Forwarder",
  "abi": [
    {
      "inputs": [],
      "stateMutability": "nonpayable",
      "type": "constructor"
    },
    {
      "inputs": [],
      "name": "ECDSAInvalidSignature",
      "type": "error"
    },
    {
      "inputs": [
        {
          "internalType": "uint256",
          "name": "length",
          "type": "uint256"
        }
      ],
      "name": "ECDSAInvalidSignatureLength",
      "type": "error"
    },
    {
      "inputs": [
        {
          "internalType": "bytes32",
          "name": "s",
          "type": "bytes32"
        }
      ],
      "name": "ECDSAInvalidSignatureS",
      "type": "error"
    },
    {
      "inputs": [
        {
          "internalType": "address",
          "name": "owner",
          "type": "address"
        }
      ],
      "name": "OwnableInvalidOwner",
      "type": "error"
    },
    {
      "inputs": [
        {
          "internalType": "address",
          "name": "account",
          "type": "address"
        }
      ],
      "name": "OwnableUnauthorizedAccount",
      "type": "error"
    },
    {
      "inputs": [],
      "name": "ReentrancyGuardReentrantCall",
      "type": "error"
    },
    {
      "anonymous": false,
      "inputs": [
        {
          "indexed": true,
          "internalType": "address",
          "name": "previousOwner",
          "type": "address"
        },
        {
          "indexed": true,
          "internalType": "address",
          "name": "newOwner",
          "type": "address"
        }
      ],
      "name": "OwnershipTransferred",
      "type": "event"
    },
    {
      "anonymous": false,
      "inputs": [
        {
          "indexed": true,
          "internalType": "address",
          "name": "from",
          "type": "address"
        },
        {
          "indexed": true,
          "internalType": "address",
          "name": "to",
          "type": "address"
        },
        {
          "indexed": false,
          "internalType": "uint256",
          "name": "value",
          "type": "uint256"
        },
        {
          "indexed": false,
          "internalType": "bytes",
          "name": "data",
          "type": "bytes"
        }
      ],
      "name": "TransactionForwarded",
      "type": "event"
    },
    {
      "inputs": [
        {
          "internalType": "bytes32",
          "name": "",
          "type": "bytes32"
        }
      ],
      "name": "executed",
      "outputs": [
        {
          "internalType": "bool",
          "name": "",
          "type": "bool"
        }
      ],
      "stateMutability": "view",
      "type": "function"
    },
    {
      "inputs": [
        {
          "internalType": "address",
          "name": "",
          "type": "address"
        }
      ],
      "name": "nonces",
      "outputs": [
        {
          "internalType": "uint256",
          "name": "",
          "type": "uint256"
        }
      ],
      "stateMutability": "view",
      "type": "function"
    },
    {
      "inputs": [],
      "name": "owner",
      "outputs": [
        {
          "internalType": "address",
          "name": "",
          "type": "address"
        }
      ],
      "stateMutability": "view",
      "type": "function"
    },
    {
      "inputs": [],
      "name": "renounceOwnership",
      "outputs": [],
      "stateMutability": "nonpayable",
      "type": "function"
    },
    {
      "inputs": [
        {
          "internalType": "address",
          "name": "newOwner",
          "type": "address"
        }
      ],
      "name": "transferOwnership",
      "outputs": [],
      "stateMutability": "nonpayable",
      "type": "function"
    },
    {
      "stateMutability": "payable",
      "type": "receive"
    },
    {
      "inputs": [
        {
          "internalType": "address",
          "name": "from",
          "type": "address"
        }
      ],
      "name": "getNonce",
      "outputs": [
        {
          "internalType": "uint256",
          "name": "",
          "type": "uint256"
        }
      ],
      "stateMutability": "view",
      "type": "function"
    },
    {
      "inputs": [
        {
          "components": [
            {
              "internalType": "address",
              "name": "from",
              "type": "address"
            },
            {
              "internalType": "address",
              "name": "to",
              "type": "address"
            },
            {
              "internalType": "uint256",
              "name": "value",
              "type": "uint256"
            },
            {
              "internalType": "uint256",
              "name": "gas",
              "type": "uint256"
            },
            {
              "internalType": "uint256",
              "name": "nonce",
              "type": "uint256"
            },
            {
              "internalType": "bytes",
              "name": "data",
              "type": "bytes"
            },
            {
              "internalType": "uint256",
              "name": "validUntil",
              "type": "uint256"
            }
          ],
          "internalType": "struct Forwarder.ForwardRequest",
          "name": "req",
          "type": "tuple"
        },
        {
          "internalType": "bytes",
          "name": "signature",
          "type": "bytes"
        }
      ],
      "name": "execute",
      "outputs": [
        {
          "internalType": "bool",
          "name": "",
          "type": "bool"
        },
        {
          "internalType": "bytes",
          "name": "",
          "type": "bytes"
        }
      ],
      "stateMutability": "payable",
      "type": "function"
    },
    {
      "inputs": [
        {
          "components": [
            {
              "internalType": "address",
              "name": "from",
              "type": "address"
            },
            {
              "internalType": "address",
              "name": "to",
              "type": "address"
            },
            {
              "internalType": "uint256",
              "name": "value",
              "type": "uint256"
            },
            {
              "internalType": "uint256",
              "name": "gas",
              "type": "uint256"
            },
            {
              "internalType": "uint256",
              "name": "nonce",
              "type": "uint256"
            },
            {
              "internalType": "bytes",
              "name": "data",
              "type": "bytes"
            },
            {
              "internalType": "uint256",
              "name": "validUntil",
              "type": "uint256"
            }
          ],
          "internalType": "struct Forwarder.ForwardRequest",
          "name": "req",
          "type": "tuple"
        },
        {
          "internalType": "bytes",
          "name": "signature",
          "type": "bytes"
        }
      ],
      "name": "verify",
      "outputs": [
        {
          "internalType": "bool",
          "name": "",
          "type": "bool"
        }
      ],
      "stateMutability": "view",
      "type": "function"
    },
    {
      "inputs": [
        {
          "internalType": "address",
          "name": "token",
          "type": "address"
        },
        {
          "internalType": "address",
          "name": "from",
          "type": "address"
        },
        {
          "internalType": "address",
          "name": "to",
          "type": "address"
        },
        {
          "internalType": "uint256",
          "name": "amount",
          "type": "uint256"
        },
        {
          "internalType": "bytes",
          "name": "signature",
          "type": "bytes"
        }
      ],
      "name": "forwardERC20Transfer",
      "outputs": [],
      "stateMutability": "nonpayable",
      "type": "function"
    },
    {
      "inputs": [
        {
          "internalType": "address",
          "name": "token",
          "type": "address"
        },
        {
          "internalType": "address",
          "name": "from",
          "type": "address"
        },
        {
          "internalType": "address",
          "name": "to",
          "type": "address"
        },
        {
          "internalType": "uint256",
          "name": "tokenId",
          "type": "uint256"
        },
        {
          "internalType": "bytes",
          "name": "signature",
          "type": "bytes"
        }
      ],
      "name": "forwardERC721Transfer",
      "outputs": [],
      "stateMutability": "nonpayable",
      "type": "function"
    }
  ],
  "bytecode": "0x608060405234801561000f575f80fd5b50338061003557604051631e4fbdf760e01b81525f600482015260240160405180910390fd5b61003e81610048565b5060018055610097565b5f80546001600160a01b038381166001600160a01b0319831681178455604051919092169283917f8be0079c531659141344cd1fd0a4f28419497f9722a3daafe3b4186f6b6457e09190a35050565b610fe8806100a45f395ff3fe608060405260043610610092575f3560e01c80637ecebe00116100575780637ecebe00146101695780638da5cb5b1461019457806390c62e05146101ba578063a9fcfb33146101d9578063f2fde38b14610207575f80fd5b8063019fe8851461009d5780632d0335ab146100d157806344d46c8e14610113578063715018a6146101345780637856940b1461014a575f80fd5b3661009957005b5f80fd5b3480156100a8575f80fd5b506100bc6100b7366004610c24565b610226565b60405190151581526020015b60405180910390f35b3480156100dc575f80fd5b506101056100eb366004610d00565b6001600160a01b03165f9081526002602052604090205490565b6040519081526020016100c8565b610126610121366004610c24565b61030d565b6040516100c8929190610d6d565b34801561013f575f80fd5b50610148610603565b005b348015610155575f80fd5b50610148610164366004610d8f565b610616565b348015610174575f80fd5b50610105610183366004610d00565b60026020525f908152604090205481565b34801561019f575f80fd5b505f546040516001600160a01b0390911681526020016100c8565b3480156101c5575f80fd5b506101486101d4366004610d8f565b610728565b3480156101e4575f80fd5b506100bc6101f3366004610e09565b60036020525f908152604090205460ff1681565b348015610212575f80fd5b50610148610221366004610d00565b610825565b5f80845f015185602001518660400151876060015188608001518960a001518a60c001516040516020016102609796959493929190610e20565b6040516020818303038152906040528051906020012090505f6102af827f19457468657265756d205369676e6564204d6573736167653a0a3332000000005f908152601c91909152603c902090565b90505f6102f18287878080601f0160208091040260200160405190810160405280939291908181526020018383808284375f9201919091525061086292505050565b87516001600160a01b0391821691161493505050509392505050565b5f606061031861088c565b8460c001514211156103635760405162461bcd60e51b815260206004820152600f60248201526e14995c5d595cdd08195e1c1a5c9959608a1b60448201526064015b60405180910390fd5b608085015185516001600160a01b03165f90815260026020526040902054146103be5760405162461bcd60e51b815260206004820152600d60248201526c496e76616c6964206e6f6e636560981b604482015260640161035a565b6103c9858585610226565b6104095760405162461bcd60e51b8152602060048201526011602482015270496e76616c6964207369676e617475726560781b604482015260640161035a565b84516001600160a01b03165f90815260026020526040812080549161042d83610e95565b91905055505f85858560405160200161044893929190610ed5565b60408051601f1981840301815291815281516020928301205f818152600390935291205490915060ff16156104bf5760405162461bcd60e51b815260206004820152601860248201527f5265717565737420616c72656164792065786563757465640000000000000000604482015260640161035a565b5f818152600360209081526040808320805460ff191660011790559088015160608901518983015160a08b0151935185946001600160a01b039094169361050591610f58565b5f60405180830381858888f193505050503d805f8114610540576040519150601f19603f3d011682016040523d82523d5f602084013e610545565b606091505b5091509150816105905760405162461bcd60e51b8152602060048201526016602482015275119bdc9dd85c99081c995c5d595cdd0819985a5b195960521b604482015260640161035a565b87602001516001600160a01b0316885f01516001600160a01b03167fabc57338c8c17e63d416364c3363d688a4c8cdf40927ba31eed5482d2bdf0ccf8a604001518b60a001516040516105e4929190610f73565b60405180910390a39093509150506105fb60018055565b935093915050565b61060b6108b6565b6106145f6108e2565b565b61061e61088c565b604080516001600160a01b0387811660248301819052878216604484015260648084018890528451808503909101815260849093018452602080840180516001600160e01b03166323b872dd60e01b179052845160e081018652828152928b16838201525f838601819052620186a060608501529182526002905292832054608082015260a0810182905290919060c081016106bc42610e10610f8b565b905290505f6106cc82868661030d565b509050806107145760405162461bcd60e51b8152602060048201526015602482015274115490cdcc8c48199bdc9dd85c990819985a5b1959605a1b604482015260640161035a565b50505061072060018055565b505050505050565b61073061088c565b604080516001600160a01b0387811660248301819052878216604484015260648084018890528451808503909101815260849093018452602080840180516001600160e01b03166323b872dd60e01b179052845160e081018652828152928b16838201525f838601819052620186a060608501529182526002905292832054608082015260a0810182905290919060c081016107ce42610e10610f8b565b905290505f6107de82868661030d565b509050806107145760405162461bcd60e51b8152602060048201526014602482015273115490cc8c08199bdc9dd85c990819985a5b195960621b604482015260640161035a565b61082d6108b6565b6001600160a01b03811661085657604051631e4fbdf760e01b81525f600482015260240161035a565b61085f816108e2565b50565b5f805f806108708686610931565b925092509250610880828261097a565b50909150505b92915050565b6002600154036108af57604051633ee5aeb560e01b815260040160405180910390fd5b6002600155565b5f546001600160a01b031633146106145760405163118cdaa760e01b815233600482015260240161035a565b5f80546001600160a01b038381166001600160a01b0319831681178455604051919092169283917f8be0079c531659141344cd1fd0a4f28419497f9722a3daafe3b4186f6b6457e09190a35050565b5f805f8351604103610968576020840151604085015160608601515f1a61095a88828585610a36565b955095509550505050610973565b505081515f91506002905b9250925092565b5f82600381111561098d5761098d610f9e565b03610996575050565b60018260038111156109aa576109aa610f9e565b036109c85760405163f645eedf60e01b815260040160405180910390fd5b60028260038111156109dc576109dc610f9e565b036109fd5760405163fce698f760e01b81526004810182905260240161035a565b6003826003811115610a1157610a11610f9e565b03610a32576040516335e2f38360e21b81526004810182905260240161035a565b5050565b5f80807f7fffffffffffffffffffffffffffffff5d576e7357a4501ddfe92f46681b20a0841115610a6f57505f91506003905082610af4565b604080515f808252602082018084528a905260ff891692820192909252606081018790526080810186905260019060a0016020604051602081039080840390855afa158015610ac0573d5f803e3d5ffd5b5050604051601f1901519150506001600160a01b038116610aeb57505f925060019150829050610af4565b92505f91508190505b9450945094915050565b634e487b7160e01b5f52604160045260245ffd5b60405160e0810167ffffffffffffffff81118282101715610b3557610b35610afe565b60405290565b80356001600160a01b0381168114610b51575f80fd5b919050565b5f82601f830112610b65575f80fd5b813567ffffffffffffffff80821115610b8057610b80610afe565b604051601f8301601f19908116603f01168101908282118183101715610ba857610ba8610afe565b81604052838152866020858801011115610bc0575f80fd5b836020870160208301375f602085830101528094505050505092915050565b5f8083601f840112610bef575f80fd5b50813567ffffffffffffffff811115610c06575f80fd5b602083019150836020828501011115610c1d575f80fd5b9250929050565b5f805f60408486031215610c36575f80fd5b833567ffffffffffffffff80821115610c4d575f80fd5b9085019060e08288031215610c60575f80fd5b610c68610b12565b610c7183610b3b565b8152610c7f60208401610b3b565b602082015260408301356040820152606083013560608201526080830135608082015260a083013582811115610cb3575f80fd5b610cbf89828601610b56565b60a08301525060c083013560c0820152809550506020860135915080821115610ce6575f80fd5b50610cf386828701610bdf565b9497909650939450505050565b5f60208284031215610d10575f80fd5b610d1982610b3b565b9392505050565b5f5b83811015610d3a578181015183820152602001610d22565b50505f910152565b5f8151808452610d59816020860160208601610d20565b601f01601f19169290920160200192915050565b8215158152604060208201525f610d876040830184610d42565b949350505050565b5f805f805f8060a08789031215610da4575f80fd5b610dad87610b3b565b9550610dbb60208801610b3b565b9450610dc960408801610b3b565b935060608701359250608087013567ffffffffffffffff811115610deb575f80fd5b610df789828a01610bdf565b979a9699509497509295939492505050565b5f60208284031215610e19575f80fd5b5035919050565b5f6bffffffffffffffffffffffff19808a60601b168352808960601b166014840152508660288301528560488301528460688301528351610e68816088850160208801610d20565b608892019182019290925260a801979650505050505050565b634e487b7160e01b5f52601160045260245ffd5b5f60018201610ea657610ea6610e81565b5060010190565b81835281816020850137505f828201602090810191909152601f909101601f19169091010190565b604081525f60018060a01b038086511660408401528060208701511660608401525060408501516080830152606085015160a0830152608085015160c083015260a085015160e080840152610f2e610120840182610d42565b905060c08601516101008401528281036020840152610f4e818587610ead565b9695505050505050565b5f8251610f69818460208701610d20565b9190910192915050565b828152604060208201525f610d876040830184610d42565b8082018082111561088657610886610e81565b634e487b7160e01b5f52602160045260245ffdfea26469706673582212202a28b23a7e142f29a589198c3fc124dcd0637779bebcc4cbd39ace79fd23c7dc64736f6c63430008150033",
  "immutableReferences": {},
  "source": "// SPDX-License-Identifier: MIT\r\npragma solidity ^0.8.0;\r\n\r\nimport \"@openzeppelin/contracts/access/Ownable.sol\";\r\nimport \"@openzeppelin/contracts/token/ERC20/IERC20.sol\";\r\nimport \"@openzeppelin/contracts/token/ERC721/IERC721.sol\";\r\nimport \"@openzeppelin/contracts/utils/ReentrancyGuard.sol\";\r\nimport \"@openzeppelin/contracts/utils/cryptography/ECDSA.sol\";\r\nimport \"@openzeppelin/contracts/utils/cryptography/MessageHashUtils.sol\";\r\n\r\ncontract Forwarder is Ownable, ReentrancyGuard {\r\n    using ECDSA for bytes32;\r\n\r\n    struct ForwardRequest {\r\n        address from;\r\n        address to;\r\n        uint256 value;\r\n        uint256 gas;\r\n        uint256 nonce;\r\n        bytes data;\r\n        uint256 validUntil;\r\n    }\r\n\r\n    mapping(address => uint256) public nonces;\r\n    mapping(bytes32 => bool) public executed;\r\n\r\n    event TransactionForwarded(\r\n        address indexed from,\r\n        address indexed to,\r\n        uint256 value,\r\n        bytes data\r\n    );\r\n\r\n    constructor() Ownable(msg.sender) {}\r\n\r\n    function getNonce(address from) public view returns (uint256) {\r\n        return nonces[from];\r\n    }\r\n\r\n    function execute(\r\n        ForwardRequest memory req,\r\n        bytes calldata signature\r\n    ) public payable nonReentrant returns (bool, bytes memory) {\r\n        require(block.timestamp <= req.validUntil, \"Request expired\");\r\n        require(nonces[req.from] == req.nonce, \"Invalid nonce\");\r\n        require(verify(req, signature), \"Invalid signature\");\r\n\r\n        nonces[req.from]++;\r\n        bytes32 hash = keccak256(abi.encode(req, signature));\r\n        require(!executed[hash], \"Request already executed\");\r\n        executed[hash] = true;\r\n\r\n        (bool success, bytes memory returndata) = req.to.call{\r\n            gas: req.gas,\r\n            value: req.value\r\n        }(req.data);\r\n        require(success, \"Forward request failed\");\r\n\r\n        emit TransactionForwarded(req.from, req.to, req.value, req.data);\r\n        return (success, returndata);\r\n    }\r\n\r\n    function verify(\r\n        ForwardRequest memory req,\r\n        bytes calldata signature\r\n    ) public view returns (bool) {\r\n        bytes32 digest = keccak256(\r\n            abi.encodePacked(\r\n                req.from,\r\n                req.to,\r\n                req.value,\r\n                req.gas,\r\n                req.nonce,\r\n                req.data,\r\n                req.validUntil\r\n            )\r\n        );\r\n        bytes32 hash = MessageHashUtils.toEthSignedMessageHash(digest);\r\n        address signer = ECDSA.recover(hash, signature);\r\n        return signer == req.from;\r\n    }\r\n\r\n    function forwardERC20Transfer(\r\n        address token,\r\n        address from,\r\n        address to,\r\n        uint256 amount,\r\n        bytes calldata signature\r\n    ) external nonReentrant {\r\n        bytes memory data = abi.encodeWithSelector(\r\n            IERC20.transferFrom.selector,\r\n            from,\r\n            to,\r\n            amount\r\n        );\r\n\r\n        ForwardRequest memory req = ForwardRequest({\r\n            from: from,\r\n            to: token,\r\n            value: 0,\r\n            gas: 100000,\r\n            nonce: nonces[from],\r\n            data: data,\r\n            validUntil: block.timestamp + 3600\r\n        });\r\n\r\n        (bool success, ) = execute(req, signature);\r\n        require(success, \"ERC20 forward failed\");\r\n    }\r\n\r\n    function forwardERC721Transfer(\r\n        address token,\r\n        address from,\r\n        address to,\r\n        uint256 tokenId,\r\n        bytes calldata signature\r\n    ) external nonReentrant {\r\n        bytes memory data = abi.encodeWithSelector(\r\n            IERC721.transferFrom.selector,\r\n            from,\r\n            to,\r\n            tokenId\r\n        );\r\n\r\n        ForwardRequest memory req = ForwardRequest({\r\n            from: from,\r\n            to: token,\r\n            value: 0,\r\n            gas: 100000,\r\n            nonce: nonces[from],\r\n            data: data,\r\n            validUntil: block.timestamp + 3600\r\n        });\r\n\r\n        (bool success, ) = execute(req, signature);\r\n        require(success, \"ERC721 forward failed\");\r\n    }\r\n\r\n    receive() external payable {}\r\n}\r\n",
  "sourcePath": "C:\\Users\\amane\\Documents\\Dev\\iitkcyberhack\\ps2\\contracts\\Forwarder.sol",
  "compiler": {
    "name": "solc",
    "version": "0.8.21+commit.d9974bed.Emscripten.clang"
  },
  "schemaVersion": "3.4.16",
  "updatedAt": "2025-01-25T10:24:45.715Z",
  "devdoc": {
    "errors": {
      "ECDSAInvalidSignature()": [
        {
          "details": "The signature derives the `address(0)`."
        }
      ],
      "ECDSAInvalidSignatureLength(uint256)": [
        {
          "details": "The signature has an invalid length."
        }
      ],
      "ECDSAInvalidSignatureS(bytes32)": [
        {
          "details": "The signature has an S value that is in the upper half order."
        }
      ],
      "OwnableInvalidOwner(address)": [
        {
          "details": "The owner is not a valid owner account. (eg. `address(0)`)"
        }
      ],
      "OwnableUnauthorizedAccount(address)": [
        {
          "details": "The caller account is not authorized to perform an operation."
        }
      ],
      "ReentrancyGuardReentrantCall()": [
        {
          "details": "Unauthorized reentrant call."
        }
      ]
    },
    "kind": "dev",
    "methods": {
      "owner()": {
        "details": "Returns the address of the current owner."
      },
      "renounceOwnership()": {
        "details": "Leaves the contract without owner. It will not be possible to call `onlyOwner` functions. Can only be called by the current owner. NOTE: Renouncing ownership will leave the contract without an owner, thereby disabling any functionality that is only available to the owner."
      },
      "transferOwnership(address)": {
        "details": "Transfers ownership of the contract to a new account (`newOwner`). Can only be called by the current owner."
      }
    },
    "version": 1
  },
  "userdoc": {
    "kind": "user",
    "methods": {},
    "version": 1
  }
}