{
  "contractName": "Forwarder",
  "abi": [
    {
      "inputs": [],
      "stateMutability": "nonpayable",
      "type": "constructor"
    },
    {
      "inputs": [],
      "name": "ECDSAInvalidSignature",
      "type": "error"
    },
    {
      "inputs": [
        {
          "internalType": "uint256",
          "name": "length",
          "type": "uint256"
        }
      ],
      "name": "ECDSAInvalidSignatureLength",
      "type": "error"
    },
    {
      "inputs": [
        {
          "internalType": "bytes32",
          "name": "s",
          "type": "bytes32"
        }
      ],
      "name": "ECDSAInvalidSignatureS",
      "type": "error"
    },
    {
      "inputs": [
        {
          "internalType": "address",
          "name": "owner",
          "type": "address"
        }
      ],
      "name": "OwnableInvalidOwner",
      "type": "error"
    },
    {
      "inputs": [
        {
          "internalType": "address",
          "name": "account",
          "type": "address"
        }
      ],
      "name": "OwnableUnauthorizedAccount",
      "type": "error"
    },
    {
      "inputs": [],
      "name": "ReentrancyGuardReentrantCall",
      "type": "error"
    },
    {
      "anonymous": false,
      "inputs": [
        {
          "indexed": true,
          "internalType": "address",
          "name": "previousOwner",
          "type": "address"
        },
        {
          "indexed": true,
          "internalType": "address",
          "name": "newOwner",
          "type": "address"
        }
      ],
      "name": "OwnershipTransferred",
      "type": "event"
    },
    {
      "anonymous": false,
      "inputs": [
        {
          "indexed": true,
          "internalType": "address",
          "name": "from",
          "type": "address"
        },
        {
          "indexed": true,
          "internalType": "address",
          "name": "to",
          "type": "address"
        },
        {
          "indexed": false,
          "internalType": "uint256",
          "name": "value",
          "type": "uint256"
        },
        {
          "indexed": false,
          "internalType": "bytes",
          "name": "data",
          "type": "bytes"
        },
        {
          "indexed": false,
          "internalType": "bool",
          "name": "success",
          "type": "bool"
        }
      ],
      "name": "TransactionForwarded",
      "type": "event"
    },
    {
      "inputs": [],
      "name": "owner",
      "outputs": [
        {
          "internalType": "address",
          "name": "",
          "type": "address"
        }
      ],
      "stateMutability": "view",
      "type": "function",
      "constant": true
    },
    {
      "inputs": [],
      "name": "renounceOwnership",
      "outputs": [],
      "stateMutability": "nonpayable",
      "type": "function"
    },
    {
      "inputs": [
        {
          "internalType": "address",
          "name": "newOwner",
          "type": "address"
        }
      ],
      "name": "transferOwnership",
      "outputs": [],
      "stateMutability": "nonpayable",
      "type": "function"
    },
    {
      "stateMutability": "payable",
      "type": "receive",
      "payable": true
    },
    {
      "inputs": [
        {
          "internalType": "address",
          "name": "from",
          "type": "address"
        }
      ],
      "name": "getNonce",
      "outputs": [
        {
          "internalType": "uint256",
          "name": "",
          "type": "uint256"
        }
      ],
      "stateMutability": "view",
      "type": "function",
      "constant": true
    },
    {
      "inputs": [
        {
          "components": [
            {
              "internalType": "address",
              "name": "from",
              "type": "address"
            },
            {
              "internalType": "address",
              "name": "to",
              "type": "address"
            },
            {
              "internalType": "uint256",
              "name": "value",
              "type": "uint256"
            },
            {
              "internalType": "uint256",
              "name": "gas",
              "type": "uint256"
            },
            {
              "internalType": "uint256",
              "name": "nonce",
              "type": "uint256"
            },
            {
              "internalType": "bytes",
              "name": "data",
              "type": "bytes"
            },
            {
              "internalType": "uint256",
              "name": "validUntil",
              "type": "uint256"
            }
          ],
          "internalType": "struct Forwarder.ForwardRequest",
          "name": "req",
          "type": "tuple"
        },
        {
          "internalType": "bytes",
          "name": "signature",
          "type": "bytes"
        }
      ],
      "name": "verify",
      "outputs": [
        {
          "internalType": "bool",
          "name": "",
          "type": "bool"
        }
      ],
      "stateMutability": "pure",
      "type": "function",
      "constant": true
    },
    {
      "inputs": [
        {
          "components": [
            {
              "internalType": "address",
              "name": "from",
              "type": "address"
            },
            {
              "internalType": "address",
              "name": "to",
              "type": "address"
            },
            {
              "internalType": "uint256",
              "name": "value",
              "type": "uint256"
            },
            {
              "internalType": "uint256",
              "name": "gas",
              "type": "uint256"
            },
            {
              "internalType": "uint256",
              "name": "nonce",
              "type": "uint256"
            },
            {
              "internalType": "bytes",
              "name": "data",
              "type": "bytes"
            },
            {
              "internalType": "uint256",
              "name": "validUntil",
              "type": "uint256"
            }
          ],
          "internalType": "struct Forwarder.ForwardRequest",
          "name": "req",
          "type": "tuple"
        },
        {
          "internalType": "bytes",
          "name": "signature",
          "type": "bytes"
        }
      ],
      "name": "execute",
      "outputs": [
        {
          "internalType": "bool",
          "name": "",
          "type": "bool"
        },
        {
          "internalType": "bytes",
          "name": "",
          "type": "bytes"
        }
      ],
      "stateMutability": "payable",
      "type": "function",
      "payable": true
    },
    {
      "inputs": [
        {
          "internalType": "address",
          "name": "token",
          "type": "address"
        },
        {
          "internalType": "address",
          "name": "from",
          "type": "address"
        },
        {
          "internalType": "address",
          "name": "to",
          "type": "address"
        },
        {
          "internalType": "uint256",
          "name": "amount",
          "type": "uint256"
        },
        {
          "internalType": "bytes",
          "name": "signature",
          "type": "bytes"
        }
      ],
      "name": "forwardERC20Transfer",
      "outputs": [
        {
          "internalType": "bool",
          "name": "",
          "type": "bool"
        }
      ],
      "stateMutability": "nonpayable",
      "type": "function"
    },
    {
      "inputs": [
        {
          "internalType": "address",
          "name": "token",
          "type": "address"
        },
        {
          "internalType": "address",
          "name": "from",
          "type": "address"
        },
        {
          "internalType": "address",
          "name": "to",
          "type": "address"
        },
        {
          "internalType": "uint256",
          "name": "tokenId",
          "type": "uint256"
        },
        {
          "internalType": "bytes",
          "name": "signature",
          "type": "bytes"
        }
      ],
      "name": "forwardERC721Transfer",
      "outputs": [
        {
          "internalType": "bool",
          "name": "",
          "type": "bool"
        }
      ],
      "stateMutability": "nonpayable",
      "type": "function"
    }
  ],
  "bytecode": "0x608060405234801561000f575f80fd5b50338061003557604051631e4fbdf760e01b81525f600482015260240160405180910390fd5b61003e81610048565b5060018055610097565b5f80546001600160a01b038381166001600160a01b0319831681178455604051919092169283917f8be0079c531659141344cd1fd0a4f28419497f9722a3daafe3b4186f6b6457e09190a35050565b610f7f806100a45f395ff3fe60806040526004361061007c575f3560e01c80637856940b1161004c5780637856940b146101345780638da5cb5b1461015357806390c62e0514610179578063f2fde38b14610198575f80fd5b8063019fe885146100875780632d0335ab146100bb57806344d46c8e146100fd578063715018a61461011e575f80fd5b3661008357005b5f80fd5b348015610092575f80fd5b506100a66100a1366004610bdb565b6101b7565b60405190151581526020015b60405180910390f35b3480156100c6575f80fd5b506100ef6100d5366004610cb7565b6001600160a01b03165f9081526002602052604090205490565b6040519081526020016100b2565b61011061010b366004610bdb565b6102ad565b6040516100b2929190610d24565b348015610129575f80fd5b506101326105b5565b005b34801561013f575f80fd5b506100a661014e366004610d46565b6105c8565b34801561015e575f80fd5b505f546040516001600160a01b0390911681526020016100b2565b348015610184575f80fd5b506100a6610193366004610d46565b6106de565b3480156101a3575f80fd5b506101326101b2366004610cb7565b6107dc565b5f80845f015185602001518660400151876060015188608001518960a001518a60c001516040516020016101f19796959493929190610dc0565b60408051601f198184030181529082905280516020918201207f19457468657265756d205369676e6564204d6573736167653a0a33320000000091830191909152603c820152605c016040516020818303038152906040528051906020012090505f6102928286868080601f0160208091040260200160405190810160405280939291908181526020018383808284375f9201919091525061081992505050565b86516001600160a01b03918216911614925050509392505050565b5f60606102b8610843565b8460c001514211156103035760405162461bcd60e51b815260206004820152600f60248201526e14995c5d595cdd08195e1c1a5c9959608a1b60448201526064015b60405180910390fd5b608085015185516001600160a01b03165f908152600260205260409020541461035e5760405162461bcd60e51b815260206004820152600d60248201526c496e76616c6964206e6f6e636560981b60448201526064016102fa565b6103698585856101b7565b6103a95760405162461bcd60e51b8152602060048201526011602482015270496e76616c6964207369676e617475726560781b60448201526064016102fa565b84516001600160a01b03165f9081526002602052604081208054916103cd83610e24565b91905055505f8585856040516020016103e893929190610e64565b60408051601f1981840301815291815281516020928301205f818152600390935291205490915060ff161561045f5760405162461bcd60e51b815260206004820152601860248201527f5265717565737420616c7265616479206578656375746564000000000000000060448201526064016102fa565b5f818152600360209081526040808320805460ff191660011790559088015160608901518983015160a08b0151935185946001600160a01b03909416936104a591610edd565b5f60405180830381858888f193505050503d805f81146104e0576040519150601f19603f3d011682016040523d82523d5f602084013e6104e5565b606091505b509150915087602001516001600160a01b0316885f01516001600160a01b03167fb1d0cf95fb035eb4bb0e6865967f56691645c2e18b41546195e1b2125266ab0f8a604001518b60a001518660405161054093929190610ef8565b60405180910390a38161059e5780511561055d5780518082602001fd5b60405162461bcd60e51b8152602060048201526016602482015275119bdc9dd85c99081c995c5d595cdd0819985a5b195960521b60448201526064016102fa565b9093509150506105ad60018055565b935093915050565b6105bd61086d565b6105c65f610899565b565b5f6105d1610843565b604080516001600160a01b0388811660248301819052888216604484015260648084018990528451808503909101815260849093018452602080840180516001600160e01b03166323b872dd60e01b179052845160e081018652828152928c16838201525f838601819052620186a060608501529182526002905292832054608082015260a0810182905290919060c0810161066f42610e10610f22565b905290505f61067f8287876102ad565b509050806106c75760405162461bcd60e51b8152602060048201526015602482015274115490cdcc8c48199bdc9dd85c990819985a5b1959605a1b60448201526064016102fa565b925050506106d460018055565b9695505050505050565b5f6106e7610843565b604080516001600160a01b0388811660248301819052888216604484015260648084018990528451808503909101815260849093018452602080840180516001600160e01b03166323b872dd60e01b179052845160e081018652828152928c16838201525f838601819052620186a060608501529182526002905292832054608082015260a0810182905290919060c0810161078542610e10610f22565b905290505f6107958287876102ad565b509050806106c75760405162461bcd60e51b8152602060048201526014602482015273115490cc8c08199bdc9dd85c990819985a5b195960621b60448201526064016102fa565b6107e461086d565b6001600160a01b03811661080d57604051631e4fbdf760e01b81525f60048201526024016102fa565b61081681610899565b50565b5f805f8061082786866108e8565b9250925092506108378282610931565b50909150505b92915050565b60026001540361086657604051633ee5aeb560e01b815260040160405180910390fd5b6002600155565b5f546001600160a01b031633146105c65760405163118cdaa760e01b81523360048201526024016102fa565b5f80546001600160a01b038381166001600160a01b0319831681178455604051919092169283917f8be0079c531659141344cd1fd0a4f28419497f9722a3daafe3b4186f6b6457e09190a35050565b5f805f835160410361091f576020840151604085015160608601515f1a610911888285856109ed565b95509550955050505061092a565b505081515f91506002905b9250925092565b5f82600381111561094457610944610f35565b0361094d575050565b600182600381111561096157610961610f35565b0361097f5760405163f645eedf60e01b815260040160405180910390fd5b600282600381111561099357610993610f35565b036109b45760405163fce698f760e01b8152600481018290526024016102fa565b60038260038111156109c8576109c8610f35565b036109e9576040516335e2f38360e21b8152600481018290526024016102fa565b5050565b5f80807f7fffffffffffffffffffffffffffffff5d576e7357a4501ddfe92f46681b20a0841115610a2657505f91506003905082610aab565b604080515f808252602082018084528a905260ff891692820192909252606081018790526080810186905260019060a0016020604051602081039080840390855afa158015610a77573d5f803e3d5ffd5b5050604051601f1901519150506001600160a01b038116610aa257505f925060019150829050610aab565b92505f91508190505b9450945094915050565b634e487b7160e01b5f52604160045260245ffd5b60405160e0810167ffffffffffffffff81118282101715610aec57610aec610ab5565b60405290565b80356001600160a01b0381168114610b08575f80fd5b919050565b5f82601f830112610b1c575f80fd5b813567ffffffffffffffff80821115610b3757610b37610ab5565b604051601f8301601f19908116603f01168101908282118183101715610b5f57610b5f610ab5565b81604052838152866020858801011115610b77575f80fd5b836020870160208301375f602085830101528094505050505092915050565b5f8083601f840112610ba6575f80fd5b50813567ffffffffffffffff811115610bbd575f80fd5b602083019150836020828501011115610bd4575f80fd5b9250929050565b5f805f60408486031215610bed575f80fd5b833567ffffffffffffffff80821115610c04575f80fd5b9085019060e08288031215610c17575f80fd5b610c1f610ac9565b610c2883610af2565b8152610c3660208401610af2565b602082015260408301356040820152606083013560608201526080830135608082015260a083013582811115610c6a575f80fd5b610c7689828601610b0d565b60a08301525060c083013560c0820152809550506020860135915080821115610c9d575f80fd5b50610caa86828701610b96565b9497909650939450505050565b5f60208284031215610cc7575f80fd5b610cd082610af2565b9392505050565b5f5b83811015610cf1578181015183820152602001610cd9565b50505f910152565b5f8151808452610d10816020860160208601610cd7565b601f01601f19169290920160200192915050565b8215158152604060208201525f610d3e6040830184610cf9565b949350505050565b5f805f805f8060a08789031215610d5b575f80fd5b610d6487610af2565b9550610d7260208801610af2565b9450610d8060408801610af2565b935060608701359250608087013567ffffffffffffffff811115610da2575f80fd5b610dae89828a01610b96565b979a9699509497509295939492505050565b5f60018060a01b03808a16835280891660208401525086604083015285606083015284608083015260e060a0830152610dfc60e0830185610cf9565b90508260c083015298975050505050505050565b634e487b7160e01b5f52601160045260245ffd5b5f60018201610e3557610e35610e10565b5060010190565b81835281816020850137505f828201602090810191909152601f909101601f19169091010190565b604081525f60018060a01b038086511660408401528060208701511660608401525060408501516080830152606085015160a0830152608085015160c083015260a085015160e080840152610ebd610120840182610cf9565b905060c086015161010084015282810360208401526106d4818587610e3c565b5f8251610eee818460208701610cd7565b9190910192915050565b838152606060208201525f610f106060830185610cf9565b90508215156040830152949350505050565b8082018082111561083d5761083d610e10565b634e487b7160e01b5f52602160045260245ffdfea26469706673582212202112c87e5209878b6571422af2ada8692dec5e6d402a0e6290c8d9b8ca8d3d0164736f6c63430008150033",
  "immutableReferences": {},
  "source": "// SPDX-License-Identifier: MIT\r\npragma solidity ^0.8.0;\r\n\r\nimport \"@openzeppelin/contracts/access/Ownable.sol\";\r\nimport \"@openzeppelin/contracts/token/ERC20/IERC20.sol\";\r\nimport \"@openzeppelin/contracts/token/ERC721/IERC721.sol\";\r\nimport \"@openzeppelin/contracts/utils/ReentrancyGuard.sol\";\r\nimport \"@openzeppelin/contracts/utils/cryptography/ECDSA.sol\";\r\nimport \"@openzeppelin/contracts/utils/cryptography/MessageHashUtils.sol\";\r\n\r\ncontract Forwarder is Ownable, ReentrancyGuard {\r\n    using ECDSA for bytes32;\r\n    using MessageHashUtils for bytes32;\r\n\r\n    struct ForwardRequest {\r\n        address from;\r\n        address to;\r\n        uint256 value;\r\n        uint256 gas;\r\n        uint256 nonce;\r\n        bytes data;\r\n        uint256 validUntil;\r\n    }\r\n\r\n    mapping(address => uint256) private _nonces;\r\n    mapping(bytes32 => bool) private _executed;\r\n\r\n    event TransactionForwarded(\r\n        address indexed from,\r\n        address indexed to,\r\n        uint256 value,\r\n        bytes data,\r\n        bool success\r\n    );\r\n\r\n    constructor() Ownable(msg.sender) {}\r\n\r\n    function getNonce(address from) public view returns (uint256) {\r\n        return _nonces[from];\r\n    }\r\n\r\n    function verify(\r\n        ForwardRequest memory req,\r\n        bytes calldata signature\r\n    ) public pure returns (bool) {\r\n        bytes32 digest = keccak256(\r\n            abi.encodePacked(\r\n                \"\\x19Ethereum Signed Message:\\n32\",\r\n                keccak256(\r\n                    abi.encode(\r\n                        req.from,\r\n                        req.to,\r\n                        req.value,\r\n                        req.gas,\r\n                        req.nonce,\r\n                        req.data,\r\n                        req.validUntil\r\n                    )\r\n                )\r\n            )\r\n        );\r\n        address signer = ECDSA.recover(digest, signature);\r\n        return signer == req.from;\r\n    }\r\n\r\n    function execute(\r\n        ForwardRequest memory req, // Changed from calldata to memory\r\n        bytes calldata signature\r\n    ) public payable nonReentrant returns (bool, bytes memory) {\r\n        require(block.timestamp <= req.validUntil, \"Request expired\");\r\n        require(_nonces[req.from] == req.nonce, \"Invalid nonce\");\r\n        require(verify(req, signature), \"Invalid signature\");\r\n\r\n        _nonces[req.from]++;\r\n        bytes32 hash = keccak256(abi.encode(req, signature));\r\n        require(!_executed[hash], \"Request already executed\");\r\n        _executed[hash] = true;\r\n\r\n        (bool success, bytes memory returndata) = req.to.call{\r\n            gas: req.gas,\r\n            value: req.value\r\n        }(req.data);\r\n\r\n        emit TransactionForwarded(\r\n            req.from,\r\n            req.to,\r\n            req.value,\r\n            req.data,\r\n            success\r\n        );\r\n\r\n        if (!success) {\r\n            // If the call failed, bubble up the revert reason\r\n            if (returndata.length > 0) {\r\n                assembly {\r\n                    let returndata_size := mload(returndata)\r\n                    revert(add(32, returndata), returndata_size)\r\n                }\r\n            } else {\r\n                revert(\"Forward request failed\");\r\n            }\r\n        }\r\n\r\n        return (success, returndata);\r\n    }\r\n\r\n    function forwardERC20Transfer(\r\n        address token,\r\n        address from,\r\n        address to,\r\n        uint256 amount,\r\n        bytes calldata signature\r\n    ) external nonReentrant returns (bool) {\r\n        bytes memory data = abi.encodeWithSelector(\r\n            IERC20.transferFrom.selector,\r\n            from,\r\n            to,\r\n            amount\r\n        );\r\n\r\n        ForwardRequest memory req = ForwardRequest({\r\n            from: from,\r\n            to: token,\r\n            value: 0,\r\n            gas: 100000,\r\n            nonce: _nonces[from],\r\n            data: data,\r\n            validUntil: block.timestamp + 3600\r\n        });\r\n\r\n        (bool success, ) = execute(req, signature);\r\n        require(success, \"ERC20 forward failed\");\r\n        return success;\r\n    }\r\n\r\n    function forwardERC721Transfer(\r\n        address token,\r\n        address from,\r\n        address to,\r\n        uint256 tokenId,\r\n        bytes calldata signature\r\n    ) external nonReentrant returns (bool) {\r\n        bytes memory data = abi.encodeWithSelector(\r\n            IERC721.transferFrom.selector,\r\n            from,\r\n            to,\r\n            tokenId\r\n        );\r\n\r\n        ForwardRequest memory req = ForwardRequest({\r\n            from: from,\r\n            to: token,\r\n            value: 0,\r\n            gas: 100000,\r\n            nonce: _nonces[from],\r\n            data: data,\r\n            validUntil: block.timestamp + 3600\r\n        });\r\n\r\n        (bool success, ) = execute(req, signature);\r\n        require(success, \"ERC721 forward failed\");\r\n        return success;\r\n    }\r\n\r\n    receive() external payable {}\r\n}\r\n",
  "sourcePath": "C:\\Users\\amane\\Documents\\Dev\\iitkcyberhack\\ps2\\contracts\\Forwarder.sol",
  "compiler": {
    "name": "solc",
    "version": "0.8.21+commit.d9974bed.Emscripten.clang"
  },
  "schemaVersion": "3.4.16",
  "updatedAt": "2025-01-25T20:49:46.689Z",
  "networkType": "ethereum",
  "devdoc": {
    "errors": {
      "ECDSAInvalidSignature()": [
        {
          "details": "The signature derives the `address(0)`."
        }
      ],
      "ECDSAInvalidSignatureLength(uint256)": [
        {
          "details": "The signature has an invalid length."
        }
      ],
      "ECDSAInvalidSignatureS(bytes32)": [
        {
          "details": "The signature has an S value that is in the upper half order."
        }
      ],
      "OwnableInvalidOwner(address)": [
        {
          "details": "The owner is not a valid owner account. (eg. `address(0)`)"
        }
      ],
      "OwnableUnauthorizedAccount(address)": [
        {
          "details": "The caller account is not authorized to perform an operation."
        }
      ],
      "ReentrancyGuardReentrantCall()": [
        {
          "details": "Unauthorized reentrant call."
        }
      ]
    },
    "kind": "dev",
    "methods": {
      "owner()": {
        "details": "Returns the address of the current owner."
      },
      "renounceOwnership()": {
        "details": "Leaves the contract without owner. It will not be possible to call `onlyOwner` functions. Can only be called by the current owner. NOTE: Renouncing ownership will leave the contract without an owner, thereby disabling any functionality that is only available to the owner."
      },
      "transferOwnership(address)": {
        "details": "Transfers ownership of the contract to a new account (`newOwner`). Can only be called by the current owner."
      }
    },
    "version": 1
  },
  "userdoc": {
    "kind": "user",
    "methods": {},
    "version": 1
  }
}