{
  "_format": "hh-sol-artifact-1",
  "contractName": "Forwarder",
  "sourceName": "contracts/Forwarder.sol",
  "abi": [
    {
      "inputs": [],
      "stateMutability": "nonpayable",
      "type": "constructor"
    },
    {
      "inputs": [],
      "name": "ECDSAInvalidSignature",
      "type": "error"
    },
    {
      "inputs": [
        {
          "internalType": "uint256",
          "name": "length",
          "type": "uint256"
        }
      ],
      "name": "ECDSAInvalidSignatureLength",
      "type": "error"
    },
    {
      "inputs": [
        {
          "internalType": "bytes32",
          "name": "s",
          "type": "bytes32"
        }
      ],
      "name": "ECDSAInvalidSignatureS",
      "type": "error"
    },
    {
      "inputs": [],
      "name": "ReentrancyGuardReentrantCall",
      "type": "error"
    },
    {
      "anonymous": false,
      "inputs": [
        {
          "indexed": true,
          "internalType": "address",
          "name": "from",
          "type": "address"
        },
        {
          "indexed": true,
          "internalType": "address",
          "name": "to",
          "type": "address"
        },
        {
          "indexed": false,
          "internalType": "uint256",
          "name": "value",
          "type": "uint256"
        },
        {
          "indexed": false,
          "internalType": "uint256",
          "name": "nonce",
          "type": "uint256"
        }
      ],
      "name": "Forwarded",
      "type": "event"
    },
    {
      "inputs": [
        {
          "internalType": "address",
          "name": "token",
          "type": "address"
        },
        {
          "internalType": "address",
          "name": "to",
          "type": "address"
        },
        {
          "internalType": "uint256",
          "name": "amount",
          "type": "uint256"
        },
        {
          "internalType": "uint256",
          "name": "nonce",
          "type": "uint256"
        },
        {
          "internalType": "bytes",
          "name": "signature",
          "type": "bytes"
        }
      ],
      "name": "forwardERC20",
      "outputs": [],
      "stateMutability": "nonpayable",
      "type": "function"
    },
    {
      "inputs": [
        {
          "internalType": "address",
          "name": "token",
          "type": "address"
        },
        {
          "internalType": "address",
          "name": "to",
          "type": "address"
        },
        {
          "internalType": "uint256",
          "name": "tokenId",
          "type": "uint256"
        },
        {
          "internalType": "uint256",
          "name": "nonce",
          "type": "uint256"
        },
        {
          "internalType": "bytes",
          "name": "signature",
          "type": "bytes"
        }
      ],
      "name": "forwardERC721",
      "outputs": [],
      "stateMutability": "nonpayable",
      "type": "function"
    },
    {
      "inputs": [
        {
          "internalType": "address",
          "name": "",
          "type": "address"
        }
      ],
      "name": "nonces",
      "outputs": [
        {
          "internalType": "uint256",
          "name": "",
          "type": "uint256"
        }
      ],
      "stateMutability": "view",
      "type": "function"
    },
    {
      "inputs": [],
      "name": "owner",
      "outputs": [
        {
          "internalType": "address",
          "name": "",
          "type": "address"
        }
      ],
      "stateMutability": "view",
      "type": "function"
    },
    {
      "inputs": [],
      "name": "withdrawETH",
      "outputs": [],
      "stateMutability": "nonpayable",
      "type": "function"
    },
    {
      "stateMutability": "payable",
      "type": "receive"
    }
  ],
  "bytecode": "0x6080604052348015600f57600080fd5b50600160008190555033600160006101000a81548173ffffffffffffffffffffffffffffffffffffffff021916908373ffffffffffffffffffffffffffffffffffffffff160217905550611236806100686000396000f3fe60806040526004361061004e5760003560e01c80637ecebe001461005a5780638da5cb5b14610097578063bb1017e1146100c2578063dc9bb131146100eb578063e086e5ec1461011457610055565b3661005557005b600080fd5b34801561006657600080fd5b50610081600480360381019061007c9190610ab1565b61012b565b60405161008e9190610af7565b60405180910390f35b3480156100a357600080fd5b506100ac610143565b6040516100b99190610b21565b60405180910390f35b3480156100ce57600080fd5b506100e960048036038101906100e49190610cae565b610169565b005b3480156100f757600080fd5b50610112600480360381019061010d9190610cae565b610396565b005b34801561012057600080fd5b506101296105d5565b005b60026020528060005260406000206000915090505481565b600160009054906101000a900473ffffffffffffffffffffffffffffffffffffffff1681565b6101716106d0565b600260003373ffffffffffffffffffffffffffffffffffffffff1673ffffffffffffffffffffffffffffffffffffffff16815260200190815260200160002060008154809291906101c190610d74565b919050558214610206576040517f08c379a00000000000000000000000000000000000000000000000000000000081526004016101fd90610e19565b60405180910390fd5b60003386868686604051602001610221959493929190610ea2565b6040516020818303038152906040528051906020012090503373ffffffffffffffffffffffffffffffffffffffff1661025a8284610716565b73ffffffffffffffffffffffffffffffffffffffff16146102b0576040517f08c379a00000000000000000000000000000000000000000000000000000000081526004016102a790610f4d565b60405180910390fd5b8573ffffffffffffffffffffffffffffffffffffffff166342842e0e3387876040518463ffffffff1660e01b81526004016102ed93929190610f6d565b600060405180830381600087803b15801561030757600080fd5b505af115801561031b573d6000803e3d6000fd5b505050508473ffffffffffffffffffffffffffffffffffffffff163373ffffffffffffffffffffffffffffffffffffffff167f5ef25ffb227c66ade217ebc5f3864177677c671a1199ab02dd8d51e2d50ea868868660405161037e929190610fa4565b60405180910390a35061038f610755565b5050505050565b61039e6106d0565b600260003373ffffffffffffffffffffffffffffffffffffffff1673ffffffffffffffffffffffffffffffffffffffff16815260200190815260200160002060008154809291906103ee90610d74565b919050558214610433576040517f08c379a000000000000000000000000000000000000000000000000000000000815260040161042a90610e19565b60405180910390fd5b6000338686868660405160200161044e959493929190610ea2565b6040516020818303038152906040528051906020012090503373ffffffffffffffffffffffffffffffffffffffff166104878284610716565b73ffffffffffffffffffffffffffffffffffffffff16146104dd576040517f08c379a00000000000000000000000000000000000000000000000000000000081526004016104d490610f4d565b60405180910390fd5b8573ffffffffffffffffffffffffffffffffffffffff166323b872dd3387876040518463ffffffff1660e01b815260040161051a93929190610f6d565b6020604051808303816000875af1158015610539573d6000803e3d6000fd5b505050506040513d601f19601f8201168201806040525081019061055d9190611005565b508473ffffffffffffffffffffffffffffffffffffffff163373ffffffffffffffffffffffffffffffffffffffff167f5ef25ffb227c66ade217ebc5f3864177677c671a1199ab02dd8d51e2d50ea86886866040516105bd929190610fa4565b60405180910390a3506105ce610755565b5050505050565b600160009054906101000a900473ffffffffffffffffffffffffffffffffffffffff1673ffffffffffffffffffffffffffffffffffffffff163373ffffffffffffffffffffffffffffffffffffffff1614610665576040517f08c379a000000000000000000000000000000000000000000000000000000000815260040161065c9061107e565b60405180910390fd5b600160009054906101000a900473ffffffffffffffffffffffffffffffffffffffff1673ffffffffffffffffffffffffffffffffffffffff166108fc479081150290604051600060405180830381858888f193505050501580156106cd573d6000803e3d6000fd5b50565b60026000540361070c576040517f3ee5aeb500000000000000000000000000000000000000000000000000000000815260040160405180910390fd5b6002600081905550565b6000808360405160200161072a9190611120565b60405160208183030381529060405280519060200120905061074c818461075f565b91505092915050565b6001600081905550565b60008060008061076f868661078b565b92509250925061077f82826107e7565b82935050505092915050565b600080600060418451036107d05760008060006020870151925060408701519150606087015160001a90506107c28882858561094b565b9550955095505050506107e0565b60006002855160001b9250925092505b9250925092565b600060038111156107fb576107fa611146565b5b82600381111561080e5761080d611146565b5b0315610947576001600381111561082857610827611146565b5b82600381111561083b5761083a611146565b5b03610872576040517ff645eedf00000000000000000000000000000000000000000000000000000000815260040160405180910390fd5b6002600381111561088657610885611146565b5b82600381111561089957610898611146565b5b036108de578060001c6040517ffce698f70000000000000000000000000000000000000000000000000000000081526004016108d59190610af7565b60405180910390fd5b6003808111156108f1576108f0611146565b5b82600381111561090457610903611146565b5b0361094657806040517fd78bce0c00000000000000000000000000000000000000000000000000000000815260040161093d9190611184565b60405180910390fd5b5b5050565b60008060007f7fffffffffffffffffffffffffffffff5d576e7357a4501ddfe92f46681b20a08460001c111561098b576000600385925092509250610a35565b6000600188888888604051600081526020016040526040516109b094939291906111bb565b6020604051602081039080840390855afa1580156109d2573d6000803e3d6000fd5b505050602060405103519050600073ffffffffffffffffffffffffffffffffffffffff168173ffffffffffffffffffffffffffffffffffffffff1603610a2657600060016000801b93509350935050610a35565b8060008060001b935093509350505b9450945094915050565b6000604051905090565b600080fd5b600080fd5b600073ffffffffffffffffffffffffffffffffffffffff82169050919050565b6000610a7e82610a53565b9050919050565b610a8e81610a73565b8114610a9957600080fd5b50565b600081359050610aab81610a85565b92915050565b600060208284031215610ac757610ac6610a49565b5b6000610ad584828501610a9c565b91505092915050565b6000819050919050565b610af181610ade565b82525050565b6000602082019050610b0c6000830184610ae8565b92915050565b610b1b81610a73565b82525050565b6000602082019050610b366000830184610b12565b92915050565b610b4581610ade565b8114610b5057600080fd5b50565b600081359050610b6281610b3c565b92915050565b600080fd5b600080fd5b6000601f19601f8301169050919050565b7f4e487b7100000000000000000000000000000000000000000000000000000000600052604160045260246000fd5b610bbb82610b72565b810181811067ffffffffffffffff82111715610bda57610bd9610b83565b5b80604052505050565b6000610bed610a3f565b9050610bf98282610bb2565b919050565b600067ffffffffffffffff821115610c1957610c18610b83565b5b610c2282610b72565b9050602081019050919050565b82818337600083830152505050565b6000610c51610c4c84610bfe565b610be3565b905082815260208101848484011115610c6d57610c6c610b6d565b5b610c78848285610c2f565b509392505050565b600082601f830112610c9557610c94610b68565b5b8135610ca5848260208601610c3e565b91505092915050565b600080600080600060a08688031215610cca57610cc9610a49565b5b6000610cd888828901610a9c565b9550506020610ce988828901610a9c565b9450506040610cfa88828901610b53565b9350506060610d0b88828901610b53565b925050608086013567ffffffffffffffff811115610d2c57610d2b610a4e565b5b610d3888828901610c80565b9150509295509295909350565b7f4e487b7100000000000000000000000000000000000000000000000000000000600052601160045260246000fd5b6000610d7f82610ade565b91507fffffffffffffffffffffffffffffffffffffffffffffffffffffffffffffffff8203610db157610db0610d45565b5b600182019050919050565b600082825260208201905092915050565b7f496e76616c6964206e6f6e636500000000000000000000000000000000000000600082015250565b6000610e03600d83610dbc565b9150610e0e82610dcd565b602082019050919050565b60006020820190508181036000830152610e3281610df6565b9050919050565b60008160601b9050919050565b6000610e5182610e39565b9050919050565b6000610e6382610e46565b9050919050565b610e7b610e7682610a73565b610e58565b82525050565b6000819050919050565b610e9c610e9782610ade565b610e81565b82525050565b6000610eae8288610e6a565b601482019150610ebe8287610e6a565b601482019150610ece8286610e6a565b601482019150610ede8285610e8b565b602082019150610eee8284610e8b565b6020820191508190509695505050505050565b7f496e76616c6964207369676e6174757265000000000000000000000000000000600082015250565b6000610f37601183610dbc565b9150610f4282610f01565b602082019050919050565b60006020820190508181036000830152610f6681610f2a565b9050919050565b6000606082019050610f826000830186610b12565b610f8f6020830185610b12565b610f9c6040830184610ae8565b949350505050565b6000604082019050610fb96000830185610ae8565b610fc66020830184610ae8565b9392505050565b60008115159050919050565b610fe281610fcd565b8114610fed57600080fd5b50565b600081519050610fff81610fd9565b92915050565b60006020828403121561101b5761101a610a49565b5b600061102984828501610ff0565b91505092915050565b7f4e6f7420617574686f72697a6564000000000000000000000000000000000000600082015250565b6000611068600e83610dbc565b915061107382611032565b602082019050919050565b600060208201905081810360008301526110978161105b565b9050919050565b600081905092915050565b7f19457468657265756d205369676e6564204d6573736167653a0a333200000000600082015250565b60006110df601c8361109e565b91506110ea826110a9565b601c82019050919050565b6000819050919050565b6000819050919050565b61111a611115826110f5565b6110ff565b82525050565b600061112b826110d2565b91506111378284611109565b60208201915081905092915050565b7f4e487b7100000000000000000000000000000000000000000000000000000000600052602160045260246000fd5b61117e816110f5565b82525050565b60006020820190506111996000830184611175565b92915050565b600060ff82169050919050565b6111b58161119f565b82525050565b60006080820190506111d06000830187611175565b6111dd60208301866111ac565b6111ea6040830185611175565b6111f76060830184611175565b9594505050505056fea26469706673582212203bb18c2d7306ca3e13c1e2c53866fec14d47f4f7f6afbf4135a9648bc042bd6a64736f6c634300081c0033",
  "linkReferences": {},
  "deployedLinkReferences": {}
}