{
  "_format": "hh-sol-artifact-1",
  "contractName": "NativeNFT",
  "sourceName": "contracts/NativeNFT.sol",
  "abi": [
    {
      "inputs": [
        {
          "internalType": "string",
          "name": "name",
          "type": "string"
        },
        {
          "internalType": "string",
          "name": "symbol",
          "type": "string"
        },
        {
          "internalType": "address",
          "name": "owner",
          "type": "address"
        }
      ],
      "stateMutability": "nonpayable",
      "type": "constructor"
    },
    {
      "inputs": [],
      "name": "ERC721EnumerableForbiddenBatchMint",
      "type": "error"
    },
    {
      "inputs": [
        {
          "internalType": "address",
          "name": "sender",
          "type": "address"
        },
        {
          "internalType": "uint256",
          "name": "tokenId",
          "type": "uint256"
        },
        {
          "internalType": "address",
          "name": "owner",
          "type": "address"
        }
      ],
      "name": "ERC721IncorrectOwner",
      "type": "error"
    },
    {
      "inputs": [
        {
          "internalType": "address",
          "name": "operator",
          "type": "address"
        },
        {
          "internalType": "uint256",
          "name": "tokenId",
          "type": "uint256"
        }
      ],
      "name": "ERC721InsufficientApproval",
      "type": "error"
    },
    {
      "inputs": [
        {
          "internalType": "address",
          "name": "approver",
          "type": "address"
        }
      ],
      "name": "ERC721InvalidApprover",
      "type": "error"
    },
    {
      "inputs": [
        {
          "internalType": "address",
          "name": "operator",
          "type": "address"
        }
      ],
      "name": "ERC721InvalidOperator",
      "type": "error"
    },
    {
      "inputs": [
        {
          "internalType": "address",
          "name": "owner",
          "type": "address"
        }
      ],
      "name": "ERC721InvalidOwner",
      "type": "error"
    },
    {
      "inputs": [
        {
          "internalType": "address",
          "name": "receiver",
          "type": "address"
        }
      ],
      "name": "ERC721InvalidReceiver",
      "type": "error"
    },
    {
      "inputs": [
        {
          "internalType": "address",
          "name": "sender",
          "type": "address"
        }
      ],
      "name": "ERC721InvalidSender",
      "type": "error"
    },
    {
      "inputs": [
        {
          "internalType": "uint256",
          "name": "tokenId",
          "type": "uint256"
        }
      ],
      "name": "ERC721NonexistentToken",
      "type": "error"
    },
    {
      "inputs": [
        {
          "internalType": "address",
          "name": "owner",
          "type": "address"
        },
        {
          "internalType": "uint256",
          "name": "index",
          "type": "uint256"
        }
      ],
      "name": "ERC721OutOfBoundsIndex",
      "type": "error"
    },
    {
      "inputs": [
        {
          "internalType": "address",
          "name": "owner",
          "type": "address"
        }
      ],
      "name": "OwnableInvalidOwner",
      "type": "error"
    },
    {
      "inputs": [
        {
          "internalType": "address",
          "name": "account",
          "type": "address"
        }
      ],
      "name": "OwnableUnauthorizedAccount",
      "type": "error"
    },
    {
      "anonymous": false,
      "inputs": [
        {
          "indexed": true,
          "internalType": "address",
          "name": "owner",
          "type": "address"
        },
        {
          "indexed": true,
          "internalType": "address",
          "name": "approved",
          "type": "address"
        },
        {
          "indexed": true,
          "internalType": "uint256",
          "name": "tokenId",
          "type": "uint256"
        }
      ],
      "name": "Approval",
      "type": "event"
    },
    {
      "anonymous": false,
      "inputs": [
        {
          "indexed": true,
          "internalType": "address",
          "name": "owner",
          "type": "address"
        },
        {
          "indexed": true,
          "internalType": "address",
          "name": "operator",
          "type": "address"
        },
        {
          "indexed": false,
          "internalType": "bool",
          "name": "approved",
          "type": "bool"
        }
      ],
      "name": "ApprovalForAll",
      "type": "event"
    },
    {
      "anonymous": false,
      "inputs": [
        {
          "indexed": true,
          "internalType": "address",
          "name": "previousOwner",
          "type": "address"
        },
        {
          "indexed": true,
          "internalType": "address",
          "name": "newOwner",
          "type": "address"
        }
      ],
      "name": "OwnershipTransferred",
      "type": "event"
    },
    {
      "anonymous": false,
      "inputs": [
        {
          "indexed": true,
          "internalType": "address",
          "name": "from",
          "type": "address"
        },
        {
          "indexed": true,
          "internalType": "address",
          "name": "to",
          "type": "address"
        },
        {
          "indexed": true,
          "internalType": "uint256",
          "name": "tokenId",
          "type": "uint256"
        }
      ],
      "name": "Transfer",
      "type": "event"
    },
    {
      "inputs": [
        {
          "internalType": "address",
          "name": "to",
          "type": "address"
        },
        {
          "internalType": "uint256",
          "name": "tokenId",
          "type": "uint256"
        }
      ],
      "name": "approve",
      "outputs": [],
      "stateMutability": "nonpayable",
      "type": "function"
    },
    {
      "inputs": [
        {
          "internalType": "address",
          "name": "owner",
          "type": "address"
        }
      ],
      "name": "balanceOf",
      "outputs": [
        {
          "internalType": "uint256",
          "name": "",
          "type": "uint256"
        }
      ],
      "stateMutability": "view",
      "type": "function"
    },
    {
      "inputs": [
        {
          "internalType": "uint256",
          "name": "tokenId",
          "type": "uint256"
        }
      ],
      "name": "burn",
      "outputs": [],
      "stateMutability": "nonpayable",
      "type": "function"
    },
    {
      "inputs": [
        {
          "internalType": "uint256",
          "name": "tokenId",
          "type": "uint256"
        }
      ],
      "name": "getApproved",
      "outputs": [
        {
          "internalType": "address",
          "name": "",
          "type": "address"
        }
      ],
      "stateMutability": "view",
      "type": "function"
    },
    {
      "inputs": [
        {
          "internalType": "address",
          "name": "owner",
          "type": "address"
        },
        {
          "internalType": "address",
          "name": "operator",
          "type": "address"
        }
      ],
      "name": "isApprovedForAll",
      "outputs": [
        {
          "internalType": "bool",
          "name": "",
          "type": "bool"
        }
      ],
      "stateMutability": "view",
      "type": "function"
    },
    {
      "inputs": [
        {
          "internalType": "address",
          "name": "to",
          "type": "address"
        }
      ],
      "name": "mint",
      "outputs": [
        {
          "internalType": "uint256",
          "name": "",
          "type": "uint256"
        }
      ],
      "stateMutability": "nonpayable",
      "type": "function"
    },
    {
      "inputs": [],
      "name": "name",
      "outputs": [
        {
          "internalType": "string",
          "name": "",
          "type": "string"
        }
      ],
      "stateMutability": "view",
      "type": "function"
    },
    {
      "inputs": [],
      "name": "owner",
      "outputs": [
        {
          "internalType": "address",
          "name": "",
          "type": "address"
        }
      ],
      "stateMutability": "view",
      "type": "function"
    },
    {
      "inputs": [
        {
          "internalType": "uint256",
          "name": "tokenId",
          "type": "uint256"
        }
      ],
      "name": "ownerOf",
      "outputs": [
        {
          "internalType": "address",
          "name": "",
          "type": "address"
        }
      ],
      "stateMutability": "view",
      "type": "function"
    },
    {
      "inputs": [],
      "name": "renounceOwnership",
      "outputs": [],
      "stateMutability": "nonpayable",
      "type": "function"
    },
    {
      "inputs": [
        {
          "internalType": "address",
          "name": "from",
          "type": "address"
        },
        {
          "internalType": "address",
          "name": "to",
          "type": "address"
        },
        {
          "internalType": "uint256",
          "name": "tokenId",
          "type": "uint256"
        }
      ],
      "name": "safeTransferFrom",
      "outputs": [],
      "stateMutability": "nonpayable",
      "type": "function"
    },
    {
      "inputs": [
        {
          "internalType": "address",
          "name": "from",
          "type": "address"
        },
        {
          "internalType": "address",
          "name": "to",
          "type": "address"
        },
        {
          "internalType": "uint256",
          "name": "tokenId",
          "type": "uint256"
        },
        {
          "internalType": "bytes",
          "name": "data",
          "type": "bytes"
        }
      ],
      "name": "safeTransferFrom",
      "outputs": [],
      "stateMutability": "nonpayable",
      "type": "function"
    },
    {
      "inputs": [
        {
          "internalType": "address",
          "name": "operator",
          "type": "address"
        },
        {
          "internalType": "bool",
          "name": "approved",
          "type": "bool"
        }
      ],
      "name": "setApprovalForAll",
      "outputs": [],
      "stateMutability": "nonpayable",
      "type": "function"
    },
    {
      "inputs": [
        {
          "internalType": "bytes4",
          "name": "interfaceId",
          "type": "bytes4"
        }
      ],
      "name": "supportsInterface",
      "outputs": [
        {
          "internalType": "bool",
          "name": "",
          "type": "bool"
        }
      ],
      "stateMutability": "view",
      "type": "function"
    },
    {
      "inputs": [],
      "name": "symbol",
      "outputs": [
        {
          "internalType": "string",
          "name": "",
          "type": "string"
        }
      ],
      "stateMutability": "view",
      "type": "function"
    },
    {
      "inputs": [
        {
          "internalType": "uint256",
          "name": "index",
          "type": "uint256"
        }
      ],
      "name": "tokenByIndex",
      "outputs": [
        {
          "internalType": "uint256",
          "name": "",
          "type": "uint256"
        }
      ],
      "stateMutability": "view",
      "type": "function"
    },
    {
      "inputs": [
        {
          "internalType": "address",
          "name": "owner",
          "type": "address"
        },
        {
          "internalType": "uint256",
          "name": "index",
          "type": "uint256"
        }
      ],
      "name": "tokenOfOwnerByIndex",
      "outputs": [
        {
          "internalType": "uint256",
          "name": "",
          "type": "uint256"
        }
      ],
      "stateMutability": "view",
      "type": "function"
    },
    {
      "inputs": [
        {
          "internalType": "uint256",
          "name": "tokenId",
          "type": "uint256"
        }
      ],
      "name": "tokenURI",
      "outputs": [
        {
          "internalType": "string",
          "name": "",
          "type": "string"
        }
      ],
      "stateMutability": "view",
      "type": "function"
    },
    {
      "inputs": [],
      "name": "totalSupply",
      "outputs": [
        {
          "internalType": "uint256",
          "name": "",
          "type": "uint256"
        }
      ],
      "stateMutability": "view",
      "type": "function"
    },
    {
      "inputs": [
        {
          "internalType": "address",
          "name": "from",
          "type": "address"
        },
        {
          "internalType": "address",
          "name": "to",
          "type": "address"
        },
        {
          "internalType": "uint256",
          "name": "tokenId",
          "type": "uint256"
        }
      ],
      "name": "transferFrom",
      "outputs": [],
      "stateMutability": "nonpayable",
      "type": "function"
    },
    {
      "inputs": [
        {
          "internalType": "address",
          "name": "newOwner",
          "type": "address"
        }
      ],
      "name": "transferOwnership",
      "outputs": [],
      "stateMutability": "nonpayable",
      "type": "function"
    }
  ],
  "bytecode": "0x60806040523480156200001157600080fd5b506040516200302a3803806200302a8339818101604052810190620000379190620003ae565b80838381600090816200004b919062000693565b5080600190816200005d919062000693565b505050600073ffffffffffffffffffffffffffffffffffffffff168173ffffffffffffffffffffffffffffffffffffffff1603620000d55760006040517f1e4fbdf7000000000000000000000000000000000000000000000000000000008152600401620000cc91906200078b565b60405180910390fd5b620000e681620000f060201b60201c565b50505050620007a8565b6000600a60009054906101000a900473ffffffffffffffffffffffffffffffffffffffff16905081600a60006101000a81548173ffffffffffffffffffffffffffffffffffffffff021916908373ffffffffffffffffffffffffffffffffffffffff1602179055508173ffffffffffffffffffffffffffffffffffffffff168173ffffffffffffffffffffffffffffffffffffffff167f8be0079c531659141344cd1fd0a4f28419497f9722a3daafe3b4186f6b6457e060405160405180910390a35050565b6000604051905090565b600080fd5b600080fd5b600080fd5b600080fd5b6000601f19601f8301169050919050565b7f4e487b7100000000000000000000000000000000000000000000000000000000600052604160045260246000fd5b6200021f82620001d4565b810181811067ffffffffffffffff82111715620002415762000240620001e5565b5b80604052505050565b600062000256620001b6565b905062000264828262000214565b919050565b600067ffffffffffffffff821115620002875762000286620001e5565b5b6200029282620001d4565b9050602081019050919050565b60005b83811015620002bf578082015181840152602081019050620002a2565b60008484015250505050565b6000620002e2620002dc8462000269565b6200024a565b905082815260208101848484011115620003015762000300620001cf565b5b6200030e8482856200029f565b509392505050565b600082601f8301126200032e576200032d620001ca565b5b815162000340848260208601620002cb565b91505092915050565b600073ffffffffffffffffffffffffffffffffffffffff82169050919050565b6000620003768262000349565b9050919050565b620003888162000369565b81146200039457600080fd5b50565b600081519050620003a8816200037d565b92915050565b600080600060608486031215620003ca57620003c9620001c0565b5b600084015167ffffffffffffffff811115620003eb57620003ea620001c5565b5b620003f98682870162000316565b935050602084015167ffffffffffffffff8111156200041d576200041c620001c5565b5b6200042b8682870162000316565b92505060406200043e8682870162000397565b9150509250925092565b600081519050919050565b7f4e487b7100000000000000000000000000000000000000000000000000000000600052602260045260246000fd5b600060028204905060018216806200049b57607f821691505b602082108103620004b157620004b062000453565b5b50919050565b60008190508160005260206000209050919050565b60006020601f8301049050919050565b600082821b905092915050565b6000600883026200051b7fffffffffffffffffffffffffffffffffffffffffffffffffffffffffffffffff82620004dc565b620005278683620004dc565b95508019841693508086168417925050509392505050565b6000819050919050565b6000819050919050565b6000620005746200056e62000568846200053f565b62000549565b6200053f565b9050919050565b6000819050919050565b620005908362000553565b620005a86200059f826200057b565b848454620004e9565b825550505050565b600090565b620005bf620005b0565b620005cc81848462000585565b505050565b5b81811015620005f457620005e8600082620005b5565b600181019050620005d2565b5050565b601f82111562000643576200060d81620004b7565b6200061884620004cc565b8101602085101562000628578190505b620006406200063785620004cc565b830182620005d1565b50505b505050565b600082821c905092915050565b6000620006686000198460080262000648565b1980831691505092915050565b600062000683838362000655565b9150826002028217905092915050565b6200069e8262000448565b67ffffffffffffffff811115620006ba57620006b9620001e5565b5b620006c6825462000482565b620006d3828285620005f8565b600060209050601f8311600181146200070b5760008415620006f6578287015190505b62000702858262000675565b86555062000772565b601f1984166200071b86620004b7565b60005b8281101562000745578489015182556001820191506020850194506020810190506200071e565b8683101562000765578489015162000761601f89168262000655565b8355505b6001600288020188555050505b505050505050565b620007858162000369565b82525050565b6000602082019050620007a260008301846200077a565b92915050565b61287280620007b86000396000f3fe608060405234801561001057600080fd5b50600436106101375760003560e01c80636352211e116100b857806395d89b411161007c57806395d89b4114610360578063a22cb4651461037e578063b88d4fde1461039a578063c87b56dd146103b6578063e985e9c5146103e6578063f2fde38b1461041657610137565b80636352211e146102a85780636a627842146102d857806370a0823114610308578063715018a6146103385780638da5cb5b1461034257610137565b806323b872dd116100ff57806323b872dd146101f45780632f745c591461021057806342842e0e1461024057806342966c681461025c5780634f6ccce71461027857610137565b806301ffc9a71461013c57806306fdde031461016c578063081812fc1461018a578063095ea7b3146101ba57806318160ddd146101d6575b600080fd5b61015660048036038101906101519190611fb3565b610432565b6040516101639190611ffb565b60405180910390f35b6101746104ac565b60405161018191906120a6565b60405180910390f35b6101a4600480360381019061019f91906120fe565b61053e565b6040516101b1919061216c565b60405180910390f35b6101d460048036038101906101cf91906121b3565b61055a565b005b6101de610570565b6040516101eb9190612202565b60405180910390f35b61020e6004803603810190610209919061221d565b61057d565b005b61022a600480360381019061022591906121b3565b61067f565b6040516102379190612202565b60405180910390f35b61025a6004803603810190610255919061221d565b610728565b005b610276600480360381019061027191906120fe565b610748565b005b610292600480360381019061028d91906120fe565b61075c565b60405161029f9190612202565b60405180910390f35b6102c260048036038101906102bd91906120fe565b6107d2565b6040516102cf919061216c565b60405180910390f35b6102f260048036038101906102ed9190612270565b6107e4565b6040516102ff9190612202565b60405180910390f35b610322600480360381019061031d9190612270565b610820565b60405161032f9190612202565b60405180910390f35b6103406108da565b005b61034a6108ee565b604051610357919061216c565b60405180910390f35b610368610918565b60405161037591906120a6565b60405180910390f35b610398600480360381019061039391906122c9565b6109aa565b005b6103b460048036038101906103af919061243e565b6109c0565b005b6103d060048036038101906103cb91906120fe565b6109e5565b6040516103dd91906120a6565b60405180910390f35b61040060048036038101906103fb91906124c1565b610a4e565b60405161040d9190611ffb565b60405180910390f35b610430600480360381019061042b9190612270565b610ae2565b005b60007f780e9d63000000000000000000000000000000000000000000000000000000007bffffffffffffffffffffffffffffffffffffffffffffffffffffffff1916827bffffffffffffffffffffffffffffffffffffffffffffffffffffffff191614806104a557506104a482610b68565b5b9050919050565b6060600080546104bb90612530565b80601f01602080910402602001604051908101604052809291908181526020018280546104e790612530565b80156105345780601f1061050957610100808354040283529160200191610534565b820191906000526020600020905b81548152906001019060200180831161051757829003601f168201915b5050505050905090565b600061054982610c4a565b5061055382610cd2565b9050919050565b61056c8282610567610d0f565b610d17565b5050565b6000600880549050905090565b600073ffffffffffffffffffffffffffffffffffffffff168273ffffffffffffffffffffffffffffffffffffffff16036105ef5760006040517f64a0ae920000000000000000000000000000000000000000000000000000000081526004016105e6919061216c565b60405180910390fd5b600061060383836105fe610d0f565b610d29565b90508373ffffffffffffffffffffffffffffffffffffffff168173ffffffffffffffffffffffffffffffffffffffff1614610679578382826040517f64283d7b00000000000000000000000000000000000000000000000000000000815260040161067093929190612561565b60405180910390fd5b50505050565b600061068a83610820565b82106106cf5782826040517fa57d13dc0000000000000000000000000000000000000000000000000000000081526004016106c6929190612598565b60405180910390fd5b600660008473ffffffffffffffffffffffffffffffffffffffff1673ffffffffffffffffffffffffffffffffffffffff168152602001908152602001600020600083815260200190815260200160002054905092915050565b610743838383604051806020016040528060008152506109c0565b505050565b610750610e46565b61075981610ecd565b50565b6000610766610570565b82106107ac576000826040517fa57d13dc0000000000000000000000000000000000000000000000000000000081526004016107a3929190612598565b60405180910390fd5b600882815481106107c0576107bf6125c1565b5b90600052602060002001549050919050565b60006107dd82610c4a565b9050919050565b60006107ee610e46565b600b60008154809291906108019061261f565b91905055506000600b5490506108178382610f53565b80915050919050565b60008073ffffffffffffffffffffffffffffffffffffffff168273ffffffffffffffffffffffffffffffffffffffff16036108935760006040517f89c62b6400000000000000000000000000000000000000000000000000000000815260040161088a919061216c565b60405180910390fd5b600360008373ffffffffffffffffffffffffffffffffffffffff1673ffffffffffffffffffffffffffffffffffffffff168152602001908152602001600020549050919050565b6108e2610e46565b6108ec6000610f71565b565b6000600a60009054906101000a900473ffffffffffffffffffffffffffffffffffffffff16905090565b60606001805461092790612530565b80601f016020809104026020016040519081016040528092919081815260200182805461095390612530565b80156109a05780601f10610975576101008083540402835291602001916109a0565b820191906000526020600020905b81548152906001019060200180831161098357829003601f168201915b5050505050905090565b6109bc6109b5610d0f565b8383611037565b5050565b6109cb84848461057d565b6109df6109d6610d0f565b858585856111a6565b50505050565b60606109f082610c4a565b5060006109fb611357565b90506000815111610a1b5760405180602001604052806000815250610a46565b80610a258461136e565b604051602001610a369291906126a3565b6040516020818303038152906040525b915050919050565b6000600560008473ffffffffffffffffffffffffffffffffffffffff1673ffffffffffffffffffffffffffffffffffffffff16815260200190815260200160002060008373ffffffffffffffffffffffffffffffffffffffff1673ffffffffffffffffffffffffffffffffffffffff16815260200190815260200160002060009054906101000a900460ff16905092915050565b610aea610e46565b600073ffffffffffffffffffffffffffffffffffffffff168173ffffffffffffffffffffffffffffffffffffffff1603610b5c5760006040517f1e4fbdf7000000000000000000000000000000000000000000000000000000008152600401610b53919061216c565b60405180910390fd5b610b6581610f71565b50565b60007f80ac58cd000000000000000000000000000000000000000000000000000000007bffffffffffffffffffffffffffffffffffffffffffffffffffffffff1916827bffffffffffffffffffffffffffffffffffffffffffffffffffffffff19161480610c3357507f5b5e139f000000000000000000000000000000000000000000000000000000007bffffffffffffffffffffffffffffffffffffffffffffffffffffffff1916827bffffffffffffffffffffffffffffffffffffffffffffffffffffffff1916145b80610c435750610c428261143c565b5b9050919050565b600080610c56836114a6565b9050600073ffffffffffffffffffffffffffffffffffffffff168173ffffffffffffffffffffffffffffffffffffffff1603610cc957826040517f7e273289000000000000000000000000000000000000000000000000000000008152600401610cc09190612202565b60405180910390fd5b80915050919050565b60006004600083815260200190815260200160002060009054906101000a900473ffffffffffffffffffffffffffffffffffffffff169050919050565b600033905090565b610d2483838360016114e3565b505050565b600080610d378585856116a8565b9050600073ffffffffffffffffffffffffffffffffffffffff168173ffffffffffffffffffffffffffffffffffffffff1603610d7b57610d76846118c2565b610dba565b8473ffffffffffffffffffffffffffffffffffffffff168173ffffffffffffffffffffffffffffffffffffffff1614610db957610db8818561190b565b5b5b600073ffffffffffffffffffffffffffffffffffffffff168573ffffffffffffffffffffffffffffffffffffffff1603610dfc57610df7846119f6565b610e3b565b8473ffffffffffffffffffffffffffffffffffffffff168173ffffffffffffffffffffffffffffffffffffffff1614610e3a57610e398585611ac7565b5b5b809150509392505050565b610e4e610d0f565b73ffffffffffffffffffffffffffffffffffffffff16610e6c6108ee565b73ffffffffffffffffffffffffffffffffffffffff1614610ecb57610e8f610d0f565b6040517f118cdaa7000000000000000000000000000000000000000000000000000000008152600401610ec2919061216c565b60405180910390fd5b565b6000610edc6000836000610d29565b9050600073ffffffffffffffffffffffffffffffffffffffff168173ffffffffffffffffffffffffffffffffffffffff1603610f4f57816040517f7e273289000000000000000000000000000000000000000000000000000000008152600401610f469190612202565b60405180910390fd5b5050565b610f6d828260405180602001604052806000815250611b52565b5050565b6000600a60009054906101000a900473ffffffffffffffffffffffffffffffffffffffff16905081600a60006101000a81548173ffffffffffffffffffffffffffffffffffffffff021916908373ffffffffffffffffffffffffffffffffffffffff1602179055508173ffffffffffffffffffffffffffffffffffffffff168173ffffffffffffffffffffffffffffffffffffffff167f8be0079c531659141344cd1fd0a4f28419497f9722a3daafe3b4186f6b6457e060405160405180910390a35050565b600073ffffffffffffffffffffffffffffffffffffffff168273ffffffffffffffffffffffffffffffffffffffff16036110a857816040517f5b08ba1800000000000000000000000000000000000000000000000000000000815260040161109f919061216c565b60405180910390fd5b80600560008573ffffffffffffffffffffffffffffffffffffffff1673ffffffffffffffffffffffffffffffffffffffff16815260200190815260200160002060008473ffffffffffffffffffffffffffffffffffffffff1673ffffffffffffffffffffffffffffffffffffffff16815260200190815260200160002060006101000a81548160ff0219169083151502179055508173ffffffffffffffffffffffffffffffffffffffff168373ffffffffffffffffffffffffffffffffffffffff167f17307eab39ab6107e8899845ad3d59bd9653f200f220920489ca2b5937696c31836040516111999190611ffb565b60405180910390a3505050565b60008373ffffffffffffffffffffffffffffffffffffffff163b1115611350578273ffffffffffffffffffffffffffffffffffffffff1663150b7a02868685856040518563ffffffff1660e01b8152600401611205949392919061271c565b6020604051808303816000875af192505050801561124157506040513d601f19601f8201168201806040525081019061123e919061277d565b60015b6112c5573d8060008114611271576040519150601f19603f3d011682016040523d82523d6000602084013e611276565b606091505b5060008151036112bd57836040517f64a0ae920000000000000000000000000000000000000000000000000000000081526004016112b4919061216c565b60405180910390fd5b805181602001fd5b63150b7a0260e01b7bffffffffffffffffffffffffffffffffffffffffffffffffffffffff1916817bffffffffffffffffffffffffffffffffffffffffffffffffffffffff19161461134e57836040517f64a0ae92000000000000000000000000000000000000000000000000000000008152600401611345919061216c565b60405180910390fd5b505b5050505050565b606060405180602001604052806000815250905090565b60606000600161137d84611b76565b01905060008167ffffffffffffffff81111561139c5761139b612313565b5b6040519080825280601f01601f1916602001820160405280156113ce5781602001600182028036833780820191505090505b509050600082602001820190505b600115611431578080600190039150507f3031323334353637383961626364656600000000000000000000000000000000600a86061a8153600a8581611425576114246127aa565b5b049450600085036113dc575b819350505050919050565b60007f01ffc9a7000000000000000000000000000000000000000000000000000000007bffffffffffffffffffffffffffffffffffffffffffffffffffffffff1916827bffffffffffffffffffffffffffffffffffffffffffffffffffffffff1916149050919050565b60006002600083815260200190815260200160002060009054906101000a900473ffffffffffffffffffffffffffffffffffffffff169050919050565b808061151c5750600073ffffffffffffffffffffffffffffffffffffffff168273ffffffffffffffffffffffffffffffffffffffff1614155b1561165057600061152c84610c4a565b9050600073ffffffffffffffffffffffffffffffffffffffff168373ffffffffffffffffffffffffffffffffffffffff161415801561159757508273ffffffffffffffffffffffffffffffffffffffff168173ffffffffffffffffffffffffffffffffffffffff1614155b80156115aa57506115a88184610a4e565b155b156115ec57826040517fa9fbf51f0000000000000000000000000000000000000000000000000000000081526004016115e3919061216c565b60405180910390fd5b811561164e57838573ffffffffffffffffffffffffffffffffffffffff168273ffffffffffffffffffffffffffffffffffffffff167f8c5be1e5ebec7d5bd14f71427d1e84f3dd0314c0f7b2291e5b200ac8c7c3b92560405160405180910390a45b505b836004600085815260200190815260200160002060006101000a81548173ffffffffffffffffffffffffffffffffffffffff021916908373ffffffffffffffffffffffffffffffffffffffff16021790555050505050565b6000806116b4846114a6565b9050600073ffffffffffffffffffffffffffffffffffffffff168373ffffffffffffffffffffffffffffffffffffffff16146116f6576116f5818486611cc9565b5b600073ffffffffffffffffffffffffffffffffffffffff168173ffffffffffffffffffffffffffffffffffffffff1614611787576117386000856000806114e3565b6001600360008373ffffffffffffffffffffffffffffffffffffffff1673ffffffffffffffffffffffffffffffffffffffff168152602001908152602001600020600082825403925050819055505b600073ffffffffffffffffffffffffffffffffffffffff168573ffffffffffffffffffffffffffffffffffffffff161461180a576001600360008773ffffffffffffffffffffffffffffffffffffffff1673ffffffffffffffffffffffffffffffffffffffff168152602001908152602001600020600082825401925050819055505b846002600086815260200190815260200160002060006101000a81548173ffffffffffffffffffffffffffffffffffffffff021916908373ffffffffffffffffffffffffffffffffffffffff160217905550838573ffffffffffffffffffffffffffffffffffffffff168273ffffffffffffffffffffffffffffffffffffffff167fddf252ad1be2c89b69c2b068fc378daa952ba7f163c4a11628f55a4df523b3ef60405160405180910390a4809150509392505050565b6008805490506009600083815260200190815260200160002081905550600881908060018154018082558091505060019003906000526020600020016000909190919091505550565b600061191683610820565b90506000600760008481526020019081526020016000205490506000600660008673ffffffffffffffffffffffffffffffffffffffff1673ffffffffffffffffffffffffffffffffffffffff16815260200190815260200160002090508282146119c25760008160008581526020019081526020016000205490508082600085815260200190815260200160002081905550826007600083815260200190815260200160002081905550505b6007600085815260200190815260200160002060009055806000848152602001908152602001600020600090555050505050565b60006001600880549050611a0a91906127d9565b9050600060096000848152602001908152602001600020549050600060088381548110611a3a57611a396125c1565b5b906000526020600020015490508060088381548110611a5c57611a5b6125c1565b5b906000526020600020018190555081600960008381526020019081526020016000208190555060096000858152602001908152602001600020600090556008805480611aab57611aaa61280d565b5b6001900381819060005260206000200160009055905550505050565b60006001611ad484610820565b611ade91906127d9565b905081600660008573ffffffffffffffffffffffffffffffffffffffff1673ffffffffffffffffffffffffffffffffffffffff168152602001908152602001600020600083815260200190815260200160002081905550806007600084815260200190815260200160002081905550505050565b611b5c8383611d8d565b611b71611b67610d0f565b60008585856111a6565b505050565b600080600090507a184f03e93ff9f4daa797ed6e38ed64bf6a1f0100000000000000008310611bd4577a184f03e93ff9f4daa797ed6e38ed64bf6a1f0100000000000000008381611bca57611bc96127aa565b5b0492506040810190505b6d04ee2d6d415b85acef81000000008310611c11576d04ee2d6d415b85acef81000000008381611c0757611c066127aa565b5b0492506020810190505b662386f26fc100008310611c4057662386f26fc100008381611c3657611c356127aa565b5b0492506010810190505b6305f5e1008310611c69576305f5e1008381611c5f57611c5e6127aa565b5b0492506008810190505b6127108310611c8e576127108381611c8457611c836127aa565b5b0492506004810190505b60648310611cb15760648381611ca757611ca66127aa565b5b0492506002810190505b600a8310611cc0576001810190505b80915050919050565b611cd4838383611e86565b611d8857600073ffffffffffffffffffffffffffffffffffffffff168373ffffffffffffffffffffffffffffffffffffffff1603611d4957806040517f7e273289000000000000000000000000000000000000000000000000000000008152600401611d409190612202565b60405180910390fd5b81816040517f177e802f000000000000000000000000000000000000000000000000000000008152600401611d7f929190612598565b60405180910390fd5b505050565b600073ffffffffffffffffffffffffffffffffffffffff168273ffffffffffffffffffffffffffffffffffffffff1603611dff5760006040517f64a0ae92000000000000000000000000000000000000000000000000000000008152600401611df6919061216c565b60405180910390fd5b6000611e0d83836000610d29565b9050600073ffffffffffffffffffffffffffffffffffffffff168173ffffffffffffffffffffffffffffffffffffffff1614611e815760006040517f73c6ac6e000000000000000000000000000000000000000000000000000000008152600401611e78919061216c565b60405180910390fd5b505050565b60008073ffffffffffffffffffffffffffffffffffffffff168373ffffffffffffffffffffffffffffffffffffffff1614158015611f3e57508273ffffffffffffffffffffffffffffffffffffffff168473ffffffffffffffffffffffffffffffffffffffff161480611eff5750611efe8484610a4e565b5b80611f3d57508273ffffffffffffffffffffffffffffffffffffffff16611f2583610cd2565b73ffffffffffffffffffffffffffffffffffffffff16145b5b90509392505050565b6000604051905090565b600080fd5b600080fd5b60007fffffffff0000000000000000000000000000000000000000000000000000000082169050919050565b611f9081611f5b565b8114611f9b57600080fd5b50565b600081359050611fad81611f87565b92915050565b600060208284031215611fc957611fc8611f51565b5b6000611fd784828501611f9e565b91505092915050565b60008115159050919050565b611ff581611fe0565b82525050565b60006020820190506120106000830184611fec565b92915050565b600081519050919050565b600082825260208201905092915050565b60005b83811015612050578082015181840152602081019050612035565b60008484015250505050565b6000601f19601f8301169050919050565b600061207882612016565b6120828185612021565b9350612092818560208601612032565b61209b8161205c565b840191505092915050565b600060208201905081810360008301526120c0818461206d565b905092915050565b6000819050919050565b6120db816120c8565b81146120e657600080fd5b50565b6000813590506120f8816120d2565b92915050565b60006020828403121561211457612113611f51565b5b6000612122848285016120e9565b91505092915050565b600073ffffffffffffffffffffffffffffffffffffffff82169050919050565b60006121568261212b565b9050919050565b6121668161214b565b82525050565b6000602082019050612181600083018461215d565b92915050565b6121908161214b565b811461219b57600080fd5b50565b6000813590506121ad81612187565b92915050565b600080604083850312156121ca576121c9611f51565b5b60006121d88582860161219e565b92505060206121e9858286016120e9565b9150509250929050565b6121fc816120c8565b82525050565b600060208201905061221760008301846121f3565b92915050565b60008060006060848603121561223657612235611f51565b5b60006122448682870161219e565b93505060206122558682870161219e565b9250506040612266868287016120e9565b9150509250925092565b60006020828403121561228657612285611f51565b5b60006122948482850161219e565b91505092915050565b6122a681611fe0565b81146122b157600080fd5b50565b6000813590506122c38161229d565b92915050565b600080604083850312156122e0576122df611f51565b5b60006122ee8582860161219e565b92505060206122ff858286016122b4565b9150509250929050565b600080fd5b600080fd5b7f4e487b7100000000000000000000000000000000000000000000000000000000600052604160045260246000fd5b61234b8261205c565b810181811067ffffffffffffffff8211171561236a57612369612313565b5b80604052505050565b600061237d611f47565b90506123898282612342565b919050565b600067ffffffffffffffff8211156123a9576123a8612313565b5b6123b28261205c565b9050602081019050919050565b82818337600083830152505050565b60006123e16123dc8461238e565b612373565b9050828152602081018484840111156123fd576123fc61230e565b5b6124088482856123bf565b509392505050565b600082601f83011261242557612424612309565b5b81356124358482602086016123ce565b91505092915050565b6000806000806080858703121561245857612457611f51565b5b60006124668782880161219e565b94505060206124778782880161219e565b9350506040612488878288016120e9565b925050606085013567ffffffffffffffff8111156124a9576124a8611f56565b5b6124b587828801612410565b91505092959194509250565b600080604083850312156124d8576124d7611f51565b5b60006124e68582860161219e565b92505060206124f78582860161219e565b9150509250929050565b7f4e487b7100000000000000000000000000000000000000000000000000000000600052602260045260246000fd5b6000600282049050600182168061254857607f821691505b60208210810361255b5761255a612501565b5b50919050565b6000606082019050612576600083018661215d565b61258360208301856121f3565b612590604083018461215d565b949350505050565b60006040820190506125ad600083018561215d565b6125ba60208301846121f3565b9392505050565b7f4e487b7100000000000000000000000000000000000000000000000000000000600052603260045260246000fd5b7f4e487b7100000000000000000000000000000000000000000000000000000000600052601160045260246000fd5b600061262a826120c8565b91507fffffffffffffffffffffffffffffffffffffffffffffffffffffffffffffffff820361265c5761265b6125f0565b5b600182019050919050565b600081905092915050565b600061267d82612016565b6126878185612667565b9350612697818560208601612032565b80840191505092915050565b60006126af8285612672565b91506126bb8284612672565b91508190509392505050565b600081519050919050565b600082825260208201905092915050565b60006126ee826126c7565b6126f881856126d2565b9350612708818560208601612032565b6127118161205c565b840191505092915050565b6000608082019050612731600083018761215d565b61273e602083018661215d565b61274b60408301856121f3565b818103606083015261275d81846126e3565b905095945050505050565b60008151905061277781611f87565b92915050565b60006020828403121561279357612792611f51565b5b60006127a184828501612768565b91505092915050565b7f4e487b7100000000000000000000000000000000000000000000000000000000600052601260045260246000fd5b60006127e4826120c8565b91506127ef836120c8565b9250828203905081811115612807576128066125f0565b5b92915050565b7f4e487b7100000000000000000000000000000000000000000000000000000000600052603160045260246000fdfea2646970667358221220f22dbd0a7f68c02fe17f01c3d796c9babaaf0ca9741cfe9c17207e8769c0bb0464736f6c63430008140033",
  "linkReferences": {},
  "deployedLinkReferences": {}
}