{
  "_format": "hh-sol-artifact-1",
  "contractName": "WrappedNFT",
  "sourceName": "contracts/WrappedNFT.sol",
  "abi": [
    {
      "inputs": [
        {
          "internalType": "string",
          "name": "name",
          "type": "string"
        },
        {
          "internalType": "string",
          "name": "symbol",
          "type": "string"
        },
        {
          "internalType": "address",
          "name": "admin",
          "type": "address"
        }
      ],
      "stateMutability": "nonpayable",
      "type": "constructor"
    },
    {
      "inputs": [],
      "name": "AccessControlBadConfirmation",
      "type": "error"
    },
    {
      "inputs": [
        {
          "internalType": "address",
          "name": "account",
          "type": "address"
        },
        {
          "internalType": "bytes32",
          "name": "neededRole",
          "type": "bytes32"
        }
      ],
      "name": "AccessControlUnauthorizedAccount",
      "type": "error"
    },
    {
      "inputs": [
        {
          "internalType": "address",
          "name": "sender",
          "type": "address"
        },
        {
          "internalType": "uint256",
          "name": "tokenId",
          "type": "uint256"
        },
        {
          "internalType": "address",
          "name": "owner",
          "type": "address"
        }
      ],
      "name": "ERC721IncorrectOwner",
      "type": "error"
    },
    {
      "inputs": [
        {
          "internalType": "address",
          "name": "operator",
          "type": "address"
        },
        {
          "internalType": "uint256",
          "name": "tokenId",
          "type": "uint256"
        }
      ],
      "name": "ERC721InsufficientApproval",
      "type": "error"
    },
    {
      "inputs": [
        {
          "internalType": "address",
          "name": "approver",
          "type": "address"
        }
      ],
      "name": "ERC721InvalidApprover",
      "type": "error"
    },
    {
      "inputs": [
        {
          "internalType": "address",
          "name": "operator",
          "type": "address"
        }
      ],
      "name": "ERC721InvalidOperator",
      "type": "error"
    },
    {
      "inputs": [
        {
          "internalType": "address",
          "name": "owner",
          "type": "address"
        }
      ],
      "name": "ERC721InvalidOwner",
      "type": "error"
    },
    {
      "inputs": [
        {
          "internalType": "address",
          "name": "receiver",
          "type": "address"
        }
      ],
      "name": "ERC721InvalidReceiver",
      "type": "error"
    },
    {
      "inputs": [
        {
          "internalType": "address",
          "name": "sender",
          "type": "address"
        }
      ],
      "name": "ERC721InvalidSender",
      "type": "error"
    },
    {
      "inputs": [
        {
          "internalType": "uint256",
          "name": "tokenId",
          "type": "uint256"
        }
      ],
      "name": "ERC721NonexistentToken",
      "type": "error"
    },
    {
      "inputs": [],
      "name": "EnforcedPause",
      "type": "error"
    },
    {
      "inputs": [],
      "name": "ExpectedPause",
      "type": "error"
    },
    {
      "anonymous": false,
      "inputs": [
        {
          "indexed": true,
          "internalType": "address",
          "name": "owner",
          "type": "address"
        },
        {
          "indexed": true,
          "internalType": "address",
          "name": "approved",
          "type": "address"
        },
        {
          "indexed": true,
          "internalType": "uint256",
          "name": "tokenId",
          "type": "uint256"
        }
      ],
      "name": "Approval",
      "type": "event"
    },
    {
      "anonymous": false,
      "inputs": [
        {
          "indexed": true,
          "internalType": "address",
          "name": "owner",
          "type": "address"
        },
        {
          "indexed": true,
          "internalType": "address",
          "name": "operator",
          "type": "address"
        },
        {
          "indexed": false,
          "internalType": "bool",
          "name": "approved",
          "type": "bool"
        }
      ],
      "name": "ApprovalForAll",
      "type": "event"
    },
    {
      "anonymous": false,
      "inputs": [
        {
          "indexed": false,
          "internalType": "address",
          "name": "account",
          "type": "address"
        }
      ],
      "name": "Paused",
      "type": "event"
    },
    {
      "anonymous": false,
      "inputs": [
        {
          "indexed": true,
          "internalType": "bytes32",
          "name": "role",
          "type": "bytes32"
        },
        {
          "indexed": true,
          "internalType": "bytes32",
          "name": "previousAdminRole",
          "type": "bytes32"
        },
        {
          "indexed": true,
          "internalType": "bytes32",
          "name": "newAdminRole",
          "type": "bytes32"
        }
      ],
      "name": "RoleAdminChanged",
      "type": "event"
    },
    {
      "anonymous": false,
      "inputs": [
        {
          "indexed": true,
          "internalType": "bytes32",
          "name": "role",
          "type": "bytes32"
        },
        {
          "indexed": true,
          "internalType": "address",
          "name": "account",
          "type": "address"
        },
        {
          "indexed": true,
          "internalType": "address",
          "name": "sender",
          "type": "address"
        }
      ],
      "name": "RoleGranted",
      "type": "event"
    },
    {
      "anonymous": false,
      "inputs": [
        {
          "indexed": true,
          "internalType": "bytes32",
          "name": "role",
          "type": "bytes32"
        },
        {
          "indexed": true,
          "internalType": "address",
          "name": "account",
          "type": "address"
        },
        {
          "indexed": true,
          "internalType": "address",
          "name": "sender",
          "type": "address"
        }
      ],
      "name": "RoleRevoked",
      "type": "event"
    },
    {
      "anonymous": false,
      "inputs": [
        {
          "indexed": true,
          "internalType": "address",
          "name": "from",
          "type": "address"
        },
        {
          "indexed": true,
          "internalType": "address",
          "name": "to",
          "type": "address"
        },
        {
          "indexed": true,
          "internalType": "uint256",
          "name": "tokenId",
          "type": "uint256"
        }
      ],
      "name": "Transfer",
      "type": "event"
    },
    {
      "anonymous": false,
      "inputs": [
        {
          "indexed": false,
          "internalType": "address",
          "name": "account",
          "type": "address"
        }
      ],
      "name": "Unpaused",
      "type": "event"
    },
    {
      "inputs": [],
      "name": "BURNER_ROLE",
      "outputs": [
        {
          "internalType": "bytes32",
          "name": "",
          "type": "bytes32"
        }
      ],
      "stateMutability": "view",
      "type": "function"
    },
    {
      "inputs": [],
      "name": "DEFAULT_ADMIN_ROLE",
      "outputs": [
        {
          "internalType": "bytes32",
          "name": "",
          "type": "bytes32"
        }
      ],
      "stateMutability": "view",
      "type": "function"
    },
    {
      "inputs": [],
      "name": "MINTER_ROLE",
      "outputs": [
        {
          "internalType": "bytes32",
          "name": "",
          "type": "bytes32"
        }
      ],
      "stateMutability": "view",
      "type": "function"
    },
    {
      "inputs": [],
      "name": "PAUSER_ROLE",
      "outputs": [
        {
          "internalType": "bytes32",
          "name": "",
          "type": "bytes32"
        }
      ],
      "stateMutability": "view",
      "type": "function"
    },
    {
      "inputs": [
        {
          "internalType": "address",
          "name": "to",
          "type": "address"
        },
        {
          "internalType": "uint256",
          "name": "tokenId",
          "type": "uint256"
        }
      ],
      "name": "approve",
      "outputs": [],
      "stateMutability": "nonpayable",
      "type": "function"
    },
    {
      "inputs": [
        {
          "internalType": "address",
          "name": "owner",
          "type": "address"
        }
      ],
      "name": "balanceOf",
      "outputs": [
        {
          "internalType": "uint256",
          "name": "",
          "type": "uint256"
        }
      ],
      "stateMutability": "view",
      "type": "function"
    },
    {
      "inputs": [
        {
          "internalType": "uint256",
          "name": "tokenId",
          "type": "uint256"
        }
      ],
      "name": "burn",
      "outputs": [],
      "stateMutability": "nonpayable",
      "type": "function"
    },
    {
      "inputs": [
        {
          "internalType": "uint256",
          "name": "tokenId",
          "type": "uint256"
        }
      ],
      "name": "getApproved",
      "outputs": [
        {
          "internalType": "address",
          "name": "",
          "type": "address"
        }
      ],
      "stateMutability": "view",
      "type": "function"
    },
    {
      "inputs": [
        {
          "internalType": "bytes32",
          "name": "role",
          "type": "bytes32"
        }
      ],
      "name": "getRoleAdmin",
      "outputs": [
        {
          "internalType": "bytes32",
          "name": "",
          "type": "bytes32"
        }
      ],
      "stateMutability": "view",
      "type": "function"
    },
    {
      "inputs": [
        {
          "internalType": "bytes32",
          "name": "role",
          "type": "bytes32"
        },
        {
          "internalType": "address",
          "name": "account",
          "type": "address"
        }
      ],
      "name": "grantRole",
      "outputs": [],
      "stateMutability": "nonpayable",
      "type": "function"
    },
    {
      "inputs": [
        {
          "internalType": "bytes32",
          "name": "role",
          "type": "bytes32"
        },
        {
          "internalType": "address",
          "name": "account",
          "type": "address"
        }
      ],
      "name": "hasRole",
      "outputs": [
        {
          "internalType": "bool",
          "name": "",
          "type": "bool"
        }
      ],
      "stateMutability": "view",
      "type": "function"
    },
    {
      "inputs": [
        {
          "internalType": "address",
          "name": "owner",
          "type": "address"
        },
        {
          "internalType": "address",
          "name": "operator",
          "type": "address"
        }
      ],
      "name": "isApprovedForAll",
      "outputs": [
        {
          "internalType": "bool",
          "name": "",
          "type": "bool"
        }
      ],
      "stateMutability": "view",
      "type": "function"
    },
    {
      "inputs": [
        {
          "internalType": "address",
          "name": "to",
          "type": "address"
        },
        {
          "internalType": "uint256",
          "name": "tokenId",
          "type": "uint256"
        }
      ],
      "name": "mint",
      "outputs": [],
      "stateMutability": "nonpayable",
      "type": "function"
    },
    {
      "inputs": [],
      "name": "name",
      "outputs": [
        {
          "internalType": "string",
          "name": "",
          "type": "string"
        }
      ],
      "stateMutability": "view",
      "type": "function"
    },
    {
      "inputs": [
        {
          "internalType": "uint256",
          "name": "tokenId",
          "type": "uint256"
        }
      ],
      "name": "ownerOf",
      "outputs": [
        {
          "internalType": "address",
          "name": "",
          "type": "address"
        }
      ],
      "stateMutability": "view",
      "type": "function"
    },
    {
      "inputs": [],
      "name": "pause",
      "outputs": [],
      "stateMutability": "nonpayable",
      "type": "function"
    },
    {
      "inputs": [],
      "name": "paused",
      "outputs": [
        {
          "internalType": "bool",
          "name": "",
          "type": "bool"
        }
      ],
      "stateMutability": "view",
      "type": "function"
    },
    {
      "inputs": [
        {
          "internalType": "bytes32",
          "name": "role",
          "type": "bytes32"
        },
        {
          "internalType": "address",
          "name": "callerConfirmation",
          "type": "address"
        }
      ],
      "name": "renounceRole",
      "outputs": [],
      "stateMutability": "nonpayable",
      "type": "function"
    },
    {
      "inputs": [
        {
          "internalType": "bytes32",
          "name": "role",
          "type": "bytes32"
        },
        {
          "internalType": "address",
          "name": "account",
          "type": "address"
        }
      ],
      "name": "revokeRole",
      "outputs": [],
      "stateMutability": "nonpayable",
      "type": "function"
    },
    {
      "inputs": [
        {
          "internalType": "address",
          "name": "from",
          "type": "address"
        },
        {
          "internalType": "address",
          "name": "to",
          "type": "address"
        },
        {
          "internalType": "uint256",
          "name": "tokenId",
          "type": "uint256"
        }
      ],
      "name": "safeTransferFrom",
      "outputs": [],
      "stateMutability": "nonpayable",
      "type": "function"
    },
    {
      "inputs": [
        {
          "internalType": "address",
          "name": "from",
          "type": "address"
        },
        {
          "internalType": "address",
          "name": "to",
          "type": "address"
        },
        {
          "internalType": "uint256",
          "name": "tokenId",
          "type": "uint256"
        },
        {
          "internalType": "bytes",
          "name": "data",
          "type": "bytes"
        }
      ],
      "name": "safeTransferFrom",
      "outputs": [],
      "stateMutability": "nonpayable",
      "type": "function"
    },
    {
      "inputs": [
        {
          "internalType": "address",
          "name": "operator",
          "type": "address"
        },
        {
          "internalType": "bool",
          "name": "approved",
          "type": "bool"
        }
      ],
      "name": "setApprovalForAll",
      "outputs": [],
      "stateMutability": "nonpayable",
      "type": "function"
    },
    {
      "inputs": [
        {
          "internalType": "bytes4",
          "name": "interfaceId",
          "type": "bytes4"
        }
      ],
      "name": "supportsInterface",
      "outputs": [
        {
          "internalType": "bool",
          "name": "",
          "type": "bool"
        }
      ],
      "stateMutability": "view",
      "type": "function"
    },
    {
      "inputs": [],
      "name": "symbol",
      "outputs": [
        {
          "internalType": "string",
          "name": "",
          "type": "string"
        }
      ],
      "stateMutability": "view",
      "type": "function"
    },
    {
      "inputs": [
        {
          "internalType": "uint256",
          "name": "tokenId",
          "type": "uint256"
        }
      ],
      "name": "tokenURI",
      "outputs": [
        {
          "internalType": "string",
          "name": "",
          "type": "string"
        }
      ],
      "stateMutability": "view",
      "type": "function"
    },
    {
      "inputs": [
        {
          "internalType": "address",
          "name": "from",
          "type": "address"
        },
        {
          "internalType": "address",
          "name": "to",
          "type": "address"
        },
        {
          "internalType": "uint256",
          "name": "tokenId",
          "type": "uint256"
        }
      ],
      "name": "transferFrom",
      "outputs": [],
      "stateMutability": "nonpayable",
      "type": "function"
    },
    {
      "inputs": [],
      "name": "unpause",
      "outputs": [],
      "stateMutability": "nonpayable",
      "type": "function"
    }
  ],
  "bytecode": "0x60806040523480156200001157600080fd5b50604051620031fe380380620031fe8339818101604052810190620000379190620004a1565b828281600090816200004a919062000786565b5080600190816200005c919062000786565b5050506000600660006101000a81548160ff0219169083151502179055506200008f6000801b826200013260201b60201c565b50620000c27f9f2df0fed2c77648de5860a4cc508cd0818c85b8b8a1ab4ceeef8d981c8956a6826200013260201b60201c565b50620000f57f3c11d16cbaffd01df69ce1c404f6340ee057498f5f00246190ea54220576a848826200013260201b60201c565b50620001287f65d7a28e3265b37a6474929f336521b332c1681b933f6cb9f3376673440d862a826200013260201b60201c565b505050506200086d565b60006200014683836200023660201b60201c565b6200022b5760016007600085815260200190815260200160002060000160008473ffffffffffffffffffffffffffffffffffffffff1673ffffffffffffffffffffffffffffffffffffffff16815260200190815260200160002060006101000a81548160ff021916908315150217905550620001c7620002a160201b60201c565b73ffffffffffffffffffffffffffffffffffffffff168273ffffffffffffffffffffffffffffffffffffffff16847f2f8788117e7eff1d82e926ec794901d17c78024a50270940304540a733656f0d60405160405180910390a46001905062000230565b600090505b92915050565b60006007600084815260200190815260200160002060000160008373ffffffffffffffffffffffffffffffffffffffff1673ffffffffffffffffffffffffffffffffffffffff16815260200190815260200160002060009054906101000a900460ff16905092915050565b600033905090565b6000604051905090565b600080fd5b600080fd5b600080fd5b600080fd5b6000601f19601f8301169050919050565b7f4e487b7100000000000000000000000000000000000000000000000000000000600052604160045260246000fd5b6200031282620002c7565b810181811067ffffffffffffffff82111715620003345762000333620002d8565b5b80604052505050565b600062000349620002a9565b905062000357828262000307565b919050565b600067ffffffffffffffff8211156200037a5762000379620002d8565b5b6200038582620002c7565b9050602081019050919050565b60005b83811015620003b257808201518184015260208101905062000395565b60008484015250505050565b6000620003d5620003cf846200035c565b6200033d565b905082815260208101848484011115620003f457620003f3620002c2565b5b6200040184828562000392565b509392505050565b600082601f830112620004215762000420620002bd565b5b815162000433848260208601620003be565b91505092915050565b600073ffffffffffffffffffffffffffffffffffffffff82169050919050565b600062000469826200043c565b9050919050565b6200047b816200045c565b81146200048757600080fd5b50565b6000815190506200049b8162000470565b92915050565b600080600060608486031215620004bd57620004bc620002b3565b5b600084015167ffffffffffffffff811115620004de57620004dd620002b8565b5b620004ec8682870162000409565b935050602084015167ffffffffffffffff81111562000510576200050f620002b8565b5b6200051e8682870162000409565b925050604062000531868287016200048a565b9150509250925092565b600081519050919050565b7f4e487b7100000000000000000000000000000000000000000000000000000000600052602260045260246000fd5b600060028204905060018216806200058e57607f821691505b602082108103620005a457620005a362000546565b5b50919050565b60008190508160005260206000209050919050565b60006020601f8301049050919050565b600082821b905092915050565b6000600883026200060e7fffffffffffffffffffffffffffffffffffffffffffffffffffffffffffffffff82620005cf565b6200061a8683620005cf565b95508019841693508086168417925050509392505050565b6000819050919050565b6000819050919050565b600062000667620006616200065b8462000632565b6200063c565b62000632565b9050919050565b6000819050919050565b620006838362000646565b6200069b62000692826200066e565b848454620005dc565b825550505050565b600090565b620006b2620006a3565b620006bf81848462000678565b505050565b5b81811015620006e757620006db600082620006a8565b600181019050620006c5565b5050565b601f82111562000736576200070081620005aa565b6200070b84620005bf565b810160208510156200071b578190505b620007336200072a85620005bf565b830182620006c4565b50505b505050565b600082821c905092915050565b60006200075b600019846008026200073b565b1980831691505092915050565b600062000776838362000748565b9150826002028217905092915050565b62000791826200053b565b67ffffffffffffffff811115620007ad57620007ac620002d8565b5b620007b9825462000575565b620007c6828285620006eb565b600060209050601f831160018114620007fe5760008415620007e9578287015190505b620007f5858262000768565b86555062000865565b601f1984166200080e86620005aa565b60005b82811015620008385784890151825560018201915060208501945060208101905062000811565b8683101562000858578489015162000854601f89168262000748565b8355505b6001600288020188555050505b505050505050565b612981806200087d6000396000f3fe608060405234801561001057600080fd5b50600436106101a95760003560e01c80635c975abb116100f9578063a22cb46511610097578063d539139311610071578063d5391393146104a4578063d547741f146104c2578063e63ab1e9146104de578063e985e9c5146104fc576101a9565b8063a22cb4651461043c578063b88d4fde14610458578063c87b56dd14610474576101a9565b80638456cb59116100d35780638456cb59146103c657806391d14854146103d057806395d89b4114610400578063a217fddf1461041e576101a9565b80635c975abb146103485780636352211e1461036657806370a0823114610396576101a9565b8063282c51f3116101665780633f4ba83a116101405780633f4ba83a146102ea57806340c10f19146102f457806342842e0e1461031057806342966c681461032c576101a9565b8063282c51f3146102945780632f2ff15d146102b257806336568abe146102ce576101a9565b806301ffc9a7146101ae57806306fdde03146101de578063081812fc146101fc578063095ea7b31461022c57806323b872dd14610248578063248a9ca314610264575b600080fd5b6101c860048036038101906101c39190612069565b61052c565b6040516101d591906120b1565b60405180910390f35b6101e661053e565b6040516101f3919061215c565b60405180910390f35b610216600480360381019061021191906121b4565b6105d0565b6040516102239190612222565b60405180910390f35b61024660048036038101906102419190612269565b6105ec565b005b610262600480360381019061025d91906122a9565b610602565b005b61027e60048036038101906102799190612332565b610704565b60405161028b919061236e565b60405180910390f35b61029c610724565b6040516102a9919061236e565b60405180910390f35b6102cc60048036038101906102c79190612389565b610748565b005b6102e860048036038101906102e39190612389565b61076a565b005b6102f26107e5565b005b61030e60048036038101906103099190612269565b61081a565b005b61032a600480360381019061032591906122a9565b61085b565b005b610346600480360381019061034191906121b4565b61087b565b005b610350610931565b60405161035d91906120b1565b60405180910390f35b610380600480360381019061037b91906121b4565b610948565b60405161038d9190612222565b60405180910390f35b6103b060048036038101906103ab91906123c9565b61095a565b6040516103bd9190612405565b60405180910390f35b6103ce610a14565b005b6103ea60048036038101906103e59190612389565b610a49565b6040516103f791906120b1565b60405180910390f35b610408610ab4565b604051610415919061215c565b60405180910390f35b610426610b46565b604051610433919061236e565b60405180910390f35b6104566004803603810190610451919061244c565b610b4d565b005b610472600480360381019061046d91906125c1565b610b63565b005b61048e600480360381019061048991906121b4565b610b88565b60405161049b919061215c565b60405180910390f35b6104ac610bf1565b6040516104b9919061236e565b60405180910390f35b6104dc60048036038101906104d79190612389565b610c15565b005b6104e6610c37565b6040516104f3919061236e565b60405180910390f35b61051660048036038101906105119190612644565b610c5b565b60405161052391906120b1565b60405180910390f35b600061053782610cef565b9050919050565b60606000805461054d906126b3565b80601f0160208091040260200160405190810160405280929190818152602001828054610579906126b3565b80156105c65780601f1061059b576101008083540402835291602001916105c6565b820191906000526020600020905b8154815290600101906020018083116105a957829003601f168201915b5050505050905090565b60006105db82610d69565b506105e582610df1565b9050919050565b6105fe82826105f9610e2e565b610e36565b5050565b600073ffffffffffffffffffffffffffffffffffffffff168273ffffffffffffffffffffffffffffffffffffffff16036106745760006040517f64a0ae9200000000000000000000000000000000000000000000000000000000815260040161066b9190612222565b60405180910390fd5b60006106888383610683610e2e565b610e48565b90508373ffffffffffffffffffffffffffffffffffffffff168173ffffffffffffffffffffffffffffffffffffffff16146106fe578382826040517f64283d7b0000000000000000000000000000000000000000000000000000000081526004016106f5939291906126e4565b60405180910390fd5b50505050565b600060076000838152602001908152602001600020600101549050919050565b7f3c11d16cbaffd01df69ce1c404f6340ee057498f5f00246190ea54220576a84881565b61075182610704565b61075a81610e66565b6107648383610e7a565b50505050565b610772610e2e565b73ffffffffffffffffffffffffffffffffffffffff168173ffffffffffffffffffffffffffffffffffffffff16146107d6576040517f6697b23200000000000000000000000000000000000000000000000000000000815260040160405180910390fd5b6107e08282610f6c565b505050565b7f65d7a28e3265b37a6474929f336521b332c1681b933f6cb9f3376673440d862a61080f81610e66565b61081761105f565b50565b7f9f2df0fed2c77648de5860a4cc508cd0818c85b8b8a1ab4ceeef8d981c8956a661084481610e66565b61084c6110c2565b6108568383611103565b505050565b61087683838360405180602001604052806000815250610b63565b505050565b7f3c11d16cbaffd01df69ce1c404f6340ee057498f5f00246190ea54220576a8486108a581610e66565b6108ad6110c2565b600073ffffffffffffffffffffffffffffffffffffffff166108ce83611121565b73ffffffffffffffffffffffffffffffffffffffff1603610924576040517f08c379a000000000000000000000000000000000000000000000000000000000815260040161091b90612767565b60405180910390fd5b61092d8261115e565b5050565b6000600660009054906101000a900460ff16905090565b600061095382610d69565b9050919050565b60008073ffffffffffffffffffffffffffffffffffffffff168273ffffffffffffffffffffffffffffffffffffffff16036109cd5760006040517f89c62b640000000000000000000000000000000000000000000000000000000081526004016109c49190612222565b60405180910390fd5b600360008373ffffffffffffffffffffffffffffffffffffffff1673ffffffffffffffffffffffffffffffffffffffff168152602001908152602001600020549050919050565b7f65d7a28e3265b37a6474929f336521b332c1681b933f6cb9f3376673440d862a610a3e81610e66565b610a466111e4565b50565b60006007600084815260200190815260200160002060000160008373ffffffffffffffffffffffffffffffffffffffff1673ffffffffffffffffffffffffffffffffffffffff16815260200190815260200160002060009054906101000a900460ff16905092915050565b606060018054610ac3906126b3565b80601f0160208091040260200160405190810160405280929190818152602001828054610aef906126b3565b8015610b3c5780601f10610b1157610100808354040283529160200191610b3c565b820191906000526020600020905b815481529060010190602001808311610b1f57829003601f168201915b5050505050905090565b6000801b81565b610b5f610b58610e2e565b8383611247565b5050565b610b6e848484610602565b610b82610b79610e2e565b858585856113b6565b50505050565b6060610b9382610d69565b506000610b9e611567565b90506000815111610bbe5760405180602001604052806000815250610be9565b80610bc88461157e565b604051602001610bd99291906127c3565b6040516020818303038152906040525b915050919050565b7f9f2df0fed2c77648de5860a4cc508cd0818c85b8b8a1ab4ceeef8d981c8956a681565b610c1e82610704565b610c2781610e66565b610c318383610f6c565b50505050565b7f65d7a28e3265b37a6474929f336521b332c1681b933f6cb9f3376673440d862a81565b6000600560008473ffffffffffffffffffffffffffffffffffffffff1673ffffffffffffffffffffffffffffffffffffffff16815260200190815260200160002060008373ffffffffffffffffffffffffffffffffffffffff1673ffffffffffffffffffffffffffffffffffffffff16815260200190815260200160002060009054906101000a900460ff16905092915050565b60007f7965db0b000000000000000000000000000000000000000000000000000000007bffffffffffffffffffffffffffffffffffffffffffffffffffffffff1916827bffffffffffffffffffffffffffffffffffffffffffffffffffffffff19161480610d625750610d618261164c565b5b9050919050565b600080610d7583611121565b9050600073ffffffffffffffffffffffffffffffffffffffff168173ffffffffffffffffffffffffffffffffffffffff1603610de857826040517f7e273289000000000000000000000000000000000000000000000000000000008152600401610ddf9190612405565b60405180910390fd5b80915050919050565b60006004600083815260200190815260200160002060009054906101000a900473ffffffffffffffffffffffffffffffffffffffff169050919050565b600033905090565b610e43838383600161172e565b505050565b6000610e526110c2565b610e5d8484846118f3565b90509392505050565b610e7781610e72610e2e565b611b0d565b50565b6000610e868383610a49565b610f615760016007600085815260200190815260200160002060000160008473ffffffffffffffffffffffffffffffffffffffff1673ffffffffffffffffffffffffffffffffffffffff16815260200190815260200160002060006101000a81548160ff021916908315150217905550610efe610e2e565b73ffffffffffffffffffffffffffffffffffffffff168273ffffffffffffffffffffffffffffffffffffffff16847f2f8788117e7eff1d82e926ec794901d17c78024a50270940304540a733656f0d60405160405180910390a460019050610f66565b600090505b92915050565b6000610f788383610a49565b156110545760006007600085815260200190815260200160002060000160008473ffffffffffffffffffffffffffffffffffffffff1673ffffffffffffffffffffffffffffffffffffffff16815260200190815260200160002060006101000a81548160ff021916908315150217905550610ff1610e2e565b73ffffffffffffffffffffffffffffffffffffffff168273ffffffffffffffffffffffffffffffffffffffff16847ff6391f5c32d9c69d2a47ea670b442974b53935d1edc7fd64eb21e047a839171b60405160405180910390a460019050611059565b600090505b92915050565b611067611b5e565b6000600660006101000a81548160ff0219169083151502179055507f5db9ee0a495bf2e6ff9c91a7834c1ba4fdd244a5e8aa4e537bd38aeae4b073aa6110ab610e2e565b6040516110b89190612222565b60405180910390a1565b6110ca610931565b15611101576040517fd93c066500000000000000000000000000000000000000000000000000000000815260040160405180910390fd5b565b61111d828260405180602001604052806000815250611b9e565b5050565b60006002600083815260200190815260200160002060009054906101000a900473ffffffffffffffffffffffffffffffffffffffff169050919050565b600061116d6000836000610e48565b9050600073ffffffffffffffffffffffffffffffffffffffff168173ffffffffffffffffffffffffffffffffffffffff16036111e057816040517f7e2732890000000000000000000000000000000000000000000000000000000081526004016111d79190612405565b60405180910390fd5b5050565b6111ec6110c2565b6001600660006101000a81548160ff0219169083151502179055507f62e78cea01bee320cd4e420270b5ea74000d11b0c9f74754ebdbfc544b05a258611230610e2e565b60405161123d9190612222565b60405180910390a1565b600073ffffffffffffffffffffffffffffffffffffffff168273ffffffffffffffffffffffffffffffffffffffff16036112b857816040517f5b08ba180000000000000000000000000000000000000000000000000000000081526004016112af9190612222565b60405180910390fd5b80600560008573ffffffffffffffffffffffffffffffffffffffff1673ffffffffffffffffffffffffffffffffffffffff16815260200190815260200160002060008473ffffffffffffffffffffffffffffffffffffffff1673ffffffffffffffffffffffffffffffffffffffff16815260200190815260200160002060006101000a81548160ff0219169083151502179055508173ffffffffffffffffffffffffffffffffffffffff168373ffffffffffffffffffffffffffffffffffffffff167f17307eab39ab6107e8899845ad3d59bd9653f200f220920489ca2b5937696c31836040516113a991906120b1565b60405180910390a3505050565b60008373ffffffffffffffffffffffffffffffffffffffff163b1115611560578273ffffffffffffffffffffffffffffffffffffffff1663150b7a02868685856040518563ffffffff1660e01b8152600401611415949392919061283c565b6020604051808303816000875af192505050801561145157506040513d601f19601f8201168201806040525081019061144e919061289d565b60015b6114d5573d8060008114611481576040519150601f19603f3d011682016040523d82523d6000602084013e611486565b606091505b5060008151036114cd57836040517f64a0ae920000000000000000000000000000000000000000000000000000000081526004016114c49190612222565b60405180910390fd5b805181602001fd5b63150b7a0260e01b7bffffffffffffffffffffffffffffffffffffffffffffffffffffffff1916817bffffffffffffffffffffffffffffffffffffffffffffffffffffffff19161461155e57836040517f64a0ae920000000000000000000000000000000000000000000000000000000081526004016115559190612222565b60405180910390fd5b505b5050505050565b606060405180602001604052806000815250905090565b60606000600161158d84611bc2565b01905060008167ffffffffffffffff8111156115ac576115ab612496565b5b6040519080825280601f01601f1916602001820160405280156115de5781602001600182028036833780820191505090505b509050600082602001820190505b600115611641578080600190039150507f3031323334353637383961626364656600000000000000000000000000000000600a86061a8153600a8581611635576116346128ca565b5b049450600085036115ec575b819350505050919050565b60007f80ac58cd000000000000000000000000000000000000000000000000000000007bffffffffffffffffffffffffffffffffffffffffffffffffffffffff1916827bffffffffffffffffffffffffffffffffffffffffffffffffffffffff1916148061171757507f5b5e139f000000000000000000000000000000000000000000000000000000007bffffffffffffffffffffffffffffffffffffffffffffffffffffffff1916827bffffffffffffffffffffffffffffffffffffffffffffffffffffffff1916145b80611727575061172682611d15565b5b9050919050565b80806117675750600073ffffffffffffffffffffffffffffffffffffffff168273ffffffffffffffffffffffffffffffffffffffff1614155b1561189b57600061177784610d69565b9050600073ffffffffffffffffffffffffffffffffffffffff168373ffffffffffffffffffffffffffffffffffffffff16141580156117e257508273ffffffffffffffffffffffffffffffffffffffff168173ffffffffffffffffffffffffffffffffffffffff1614155b80156117f557506117f38184610c5b565b155b1561183757826040517fa9fbf51f00000000000000000000000000000000000000000000000000000000815260040161182e9190612222565b60405180910390fd5b811561189957838573ffffffffffffffffffffffffffffffffffffffff168273ffffffffffffffffffffffffffffffffffffffff167f8c5be1e5ebec7d5bd14f71427d1e84f3dd0314c0f7b2291e5b200ac8c7c3b92560405160405180910390a45b505b836004600085815260200190815260200160002060006101000a81548173ffffffffffffffffffffffffffffffffffffffff021916908373ffffffffffffffffffffffffffffffffffffffff16021790555050505050565b6000806118ff84611121565b9050600073ffffffffffffffffffffffffffffffffffffffff168373ffffffffffffffffffffffffffffffffffffffff161461194157611940818486611d7f565b5b600073ffffffffffffffffffffffffffffffffffffffff168173ffffffffffffffffffffffffffffffffffffffff16146119d25761198360008560008061172e565b6001600360008373ffffffffffffffffffffffffffffffffffffffff1673ffffffffffffffffffffffffffffffffffffffff168152602001908152602001600020600082825403925050819055505b600073ffffffffffffffffffffffffffffffffffffffff168573ffffffffffffffffffffffffffffffffffffffff1614611a55576001600360008773ffffffffffffffffffffffffffffffffffffffff1673ffffffffffffffffffffffffffffffffffffffff168152602001908152602001600020600082825401925050819055505b846002600086815260200190815260200160002060006101000a81548173ffffffffffffffffffffffffffffffffffffffff021916908373ffffffffffffffffffffffffffffffffffffffff160217905550838573ffffffffffffffffffffffffffffffffffffffff168273ffffffffffffffffffffffffffffffffffffffff167fddf252ad1be2c89b69c2b068fc378daa952ba7f163c4a11628f55a4df523b3ef60405160405180910390a4809150509392505050565b611b178282610a49565b611b5a5780826040517fe2517d3f000000000000000000000000000000000000000000000000000000008152600401611b519291906128f9565b60405180910390fd5b5050565b611b66610931565b611b9c576040517f8dfc202b00000000000000000000000000000000000000000000000000000000815260040160405180910390fd5b565b611ba88383611e43565b611bbd611bb3610e2e565b60008585856113b6565b505050565b600080600090507a184f03e93ff9f4daa797ed6e38ed64bf6a1f0100000000000000008310611c20577a184f03e93ff9f4daa797ed6e38ed64bf6a1f0100000000000000008381611c1657611c156128ca565b5b0492506040810190505b6d04ee2d6d415b85acef81000000008310611c5d576d04ee2d6d415b85acef81000000008381611c5357611c526128ca565b5b0492506020810190505b662386f26fc100008310611c8c57662386f26fc100008381611c8257611c816128ca565b5b0492506010810190505b6305f5e1008310611cb5576305f5e1008381611cab57611caa6128ca565b5b0492506008810190505b6127108310611cda576127108381611cd057611ccf6128ca565b5b0492506004810190505b60648310611cfd5760648381611cf357611cf26128ca565b5b0492506002810190505b600a8310611d0c576001810190505b80915050919050565b60007f01ffc9a7000000000000000000000000000000000000000000000000000000007bffffffffffffffffffffffffffffffffffffffffffffffffffffffff1916827bffffffffffffffffffffffffffffffffffffffffffffffffffffffff1916149050919050565b611d8a838383611f3c565b611e3e57600073ffffffffffffffffffffffffffffffffffffffff168373ffffffffffffffffffffffffffffffffffffffff1603611dff57806040517f7e273289000000000000000000000000000000000000000000000000000000008152600401611df69190612405565b60405180910390fd5b81816040517f177e802f000000000000000000000000000000000000000000000000000000008152600401611e35929190612922565b60405180910390fd5b505050565b600073ffffffffffffffffffffffffffffffffffffffff168273ffffffffffffffffffffffffffffffffffffffff1603611eb55760006040517f64a0ae92000000000000000000000000000000000000000000000000000000008152600401611eac9190612222565b60405180910390fd5b6000611ec383836000610e48565b9050600073ffffffffffffffffffffffffffffffffffffffff168173ffffffffffffffffffffffffffffffffffffffff1614611f375760006040517f73c6ac6e000000000000000000000000000000000000000000000000000000008152600401611f2e9190612222565b60405180910390fd5b505050565b60008073ffffffffffffffffffffffffffffffffffffffff168373ffffffffffffffffffffffffffffffffffffffff1614158015611ff457508273ffffffffffffffffffffffffffffffffffffffff168473ffffffffffffffffffffffffffffffffffffffff161480611fb55750611fb48484610c5b565b5b80611ff357508273ffffffffffffffffffffffffffffffffffffffff16611fdb83610df1565b73ffffffffffffffffffffffffffffffffffffffff16145b5b90509392505050565b6000604051905090565b600080fd5b600080fd5b60007fffffffff0000000000000000000000000000000000000000000000000000000082169050919050565b61204681612011565b811461205157600080fd5b50565b6000813590506120638161203d565b92915050565b60006020828403121561207f5761207e612007565b5b600061208d84828501612054565b91505092915050565b60008115159050919050565b6120ab81612096565b82525050565b60006020820190506120c660008301846120a2565b92915050565b600081519050919050565b600082825260208201905092915050565b60005b838110156121065780820151818401526020810190506120eb565b60008484015250505050565b6000601f19601f8301169050919050565b600061212e826120cc565b61213881856120d7565b93506121488185602086016120e8565b61215181612112565b840191505092915050565b600060208201905081810360008301526121768184612123565b905092915050565b6000819050919050565b6121918161217e565b811461219c57600080fd5b50565b6000813590506121ae81612188565b92915050565b6000602082840312156121ca576121c9612007565b5b60006121d88482850161219f565b91505092915050565b600073ffffffffffffffffffffffffffffffffffffffff82169050919050565b600061220c826121e1565b9050919050565b61221c81612201565b82525050565b60006020820190506122376000830184612213565b92915050565b61224681612201565b811461225157600080fd5b50565b6000813590506122638161223d565b92915050565b600080604083850312156122805761227f612007565b5b600061228e85828601612254565b925050602061229f8582860161219f565b9150509250929050565b6000806000606084860312156122c2576122c1612007565b5b60006122d086828701612254565b93505060206122e186828701612254565b92505060406122f28682870161219f565b9150509250925092565b6000819050919050565b61230f816122fc565b811461231a57600080fd5b50565b60008135905061232c81612306565b92915050565b60006020828403121561234857612347612007565b5b60006123568482850161231d565b91505092915050565b612368816122fc565b82525050565b6000602082019050612383600083018461235f565b92915050565b600080604083850312156123a05761239f612007565b5b60006123ae8582860161231d565b92505060206123bf85828601612254565b9150509250929050565b6000602082840312156123df576123de612007565b5b60006123ed84828501612254565b91505092915050565b6123ff8161217e565b82525050565b600060208201905061241a60008301846123f6565b92915050565b61242981612096565b811461243457600080fd5b50565b60008135905061244681612420565b92915050565b6000806040838503121561246357612462612007565b5b600061247185828601612254565b925050602061248285828601612437565b9150509250929050565b600080fd5b600080fd5b7f4e487b7100000000000000000000000000000000000000000000000000000000600052604160045260246000fd5b6124ce82612112565b810181811067ffffffffffffffff821117156124ed576124ec612496565b5b80604052505050565b6000612500611ffd565b905061250c82826124c5565b919050565b600067ffffffffffffffff82111561252c5761252b612496565b5b61253582612112565b9050602081019050919050565b82818337600083830152505050565b600061256461255f84612511565b6124f6565b9050828152602081018484840111156125805761257f612491565b5b61258b848285612542565b509392505050565b600082601f8301126125a8576125a761248c565b5b81356125b8848260208601612551565b91505092915050565b600080600080608085870312156125db576125da612007565b5b60006125e987828801612254565b94505060206125fa87828801612254565b935050604061260b8782880161219f565b925050606085013567ffffffffffffffff81111561262c5761262b61200c565b5b61263887828801612593565b91505092959194509250565b6000806040838503121561265b5761265a612007565b5b600061266985828601612254565b925050602061267a85828601612254565b9150509250929050565b7f4e487b7100000000000000000000000000000000000000000000000000000000600052602260045260246000fd5b600060028204905060018216806126cb57607f821691505b6020821081036126de576126dd612684565b5b50919050565b60006060820190506126f96000830186612213565b61270660208301856123f6565b6127136040830184612213565b949350505050565b7f577261707065644e46543a20746f6b656e20646f6573206e6f74206578697374600082015250565b60006127516020836120d7565b915061275c8261271b565b602082019050919050565b6000602082019050818103600083015261278081612744565b9050919050565b600081905092915050565b600061279d826120cc565b6127a78185612787565b93506127b78185602086016120e8565b80840191505092915050565b60006127cf8285612792565b91506127db8284612792565b91508190509392505050565b600081519050919050565b600082825260208201905092915050565b600061280e826127e7565b61281881856127f2565b93506128288185602086016120e8565b61283181612112565b840191505092915050565b60006080820190506128516000830187612213565b61285e6020830186612213565b61286b60408301856123f6565b818103606083015261287d8184612803565b905095945050505050565b6000815190506128978161203d565b92915050565b6000602082840312156128b3576128b2612007565b5b60006128c184828501612888565b91505092915050565b7f4e487b7100000000000000000000000000000000000000000000000000000000600052601260045260246000fd5b600060408201905061290e6000830185612213565b61291b602083018461235f565b9392505050565b60006040820190506129376000830185612213565b61294460208301846123f6565b939250505056fea2646970667358221220478cb527582c1fab989c2532ce9079c16ae9b05aeb07531b918af11463a7b97f64736f6c63430008140033",
  "linkReferences": {},
  "deployedLinkReferences": {}
}