{
  "_format": "hh-sol-artifact-1",
  "contractName": "BridgeAmoyV2",
  "sourceName": "contracts/BridgeAmoyV2.sol",
  "abi": [
    {
      "inputs": [
        {
          "internalType": "address",
          "name": "_token",
          "type": "address"
        },
        {
          "internalType": "address",
          "name": "_relayerManager",
          "type": "address"
        },
        {
          "internalType": "address",
          "name": "owner",
          "type": "address"
        }
      ],
      "stateMutability": "nonpayable",
      "type": "constructor"
    },
    {
      "inputs": [
        {
          "internalType": "address",
          "name": "owner",
          "type": "address"
        }
      ],
      "name": "OwnableInvalidOwner",
      "type": "error"
    },
    {
      "inputs": [
        {
          "internalType": "address",
          "name": "account",
          "type": "address"
        }
      ],
      "name": "OwnableUnauthorizedAccount",
      "type": "error"
    },
    {
      "inputs": [],
      "name": "ReentrancyGuardReentrantCall",
      "type": "error"
    },
    {
      "anonymous": false,
      "inputs": [
        {
          "indexed": true,
          "internalType": "bytes32",
          "name": "requestId",
          "type": "bytes32"
        },
        {
          "indexed": true,
          "internalType": "address",
          "name": "user",
          "type": "address"
        },
        {
          "indexed": true,
          "internalType": "address",
          "name": "recipient",
          "type": "address"
        },
        {
          "indexed": false,
          "internalType": "uint256",
          "name": "amount",
          "type": "uint256"
        }
      ],
      "name": "LockRequested",
      "type": "event"
    },
    {
      "anonymous": false,
      "inputs": [
        {
          "indexed": true,
          "internalType": "address",
          "name": "previousOwner",
          "type": "address"
        },
        {
          "indexed": true,
          "internalType": "address",
          "name": "newOwner",
          "type": "address"
        }
      ],
      "name": "OwnershipTransferred",
      "type": "event"
    },
    {
      "inputs": [
        {
          "internalType": "uint256",
          "name": "amount",
          "type": "uint256"
        },
        {
          "internalType": "address",
          "name": "recipient",
          "type": "address"
        }
      ],
      "name": "lockWithRelay",
      "outputs": [],
      "stateMutability": "nonpayable",
      "type": "function"
    },
    {
      "inputs": [],
      "name": "owner",
      "outputs": [
        {
          "internalType": "address",
          "name": "",
          "type": "address"
        }
      ],
      "stateMutability": "view",
      "type": "function"
    },
    {
      "inputs": [
        {
          "internalType": "bytes32",
          "name": "",
          "type": "bytes32"
        }
      ],
      "name": "processedRequests",
      "outputs": [
        {
          "internalType": "bool",
          "name": "",
          "type": "bool"
        }
      ],
      "stateMutability": "view",
      "type": "function"
    },
    {
      "inputs": [],
      "name": "relayerManager",
      "outputs": [
        {
          "internalType": "contract IRelayerManager",
          "name": "",
          "type": "address"
        }
      ],
      "stateMutability": "view",
      "type": "function"
    },
    {
      "inputs": [],
      "name": "renounceOwnership",
      "outputs": [],
      "stateMutability": "nonpayable",
      "type": "function"
    },
    {
      "inputs": [],
      "name": "token",
      "outputs": [
        {
          "internalType": "contract IAmoyToken",
          "name": "",
          "type": "address"
        }
      ],
      "stateMutability": "view",
      "type": "function"
    },
    {
      "inputs": [
        {
          "internalType": "address",
          "name": "newOwner",
          "type": "address"
        }
      ],
      "name": "transferOwnership",
      "outputs": [],
      "stateMutability": "nonpayable",
      "type": "function"
    },
    {
      "inputs": [
        {
          "internalType": "bytes32",
          "name": "requestId",
          "type": "bytes32"
        },
        {
          "internalType": "address",
          "name": "recipient",
          "type": "address"
        },
        {
          "internalType": "uint256",
          "name": "amount",
          "type": "uint256"
        },
        {
          "internalType": "bytes32[]",
          "name": "relayerProof",
          "type": "bytes32[]"
        }
      ],
      "name": "unlock",
      "outputs": [],
      "stateMutability": "nonpayable",
      "type": "function"
    }
  ],
  "bytecode": "0x60806040523480156200001157600080fd5b50604051620013343803806200133483398181016040528101906200003791906200027f565b80600073ffffffffffffffffffffffffffffffffffffffff168173ffffffffffffffffffffffffffffffffffffffff1603620000ad5760006040517f1e4fbdf7000000000000000000000000000000000000000000000000000000008152600401620000a49190620002ec565b60405180910390fd5b620000be816200015160201b60201c565b506001808190555082600260006101000a81548173ffffffffffffffffffffffffffffffffffffffff021916908373ffffffffffffffffffffffffffffffffffffffff16021790555081600360006101000a81548173ffffffffffffffffffffffffffffffffffffffff021916908373ffffffffffffffffffffffffffffffffffffffff16021790555050505062000309565b60008060009054906101000a900473ffffffffffffffffffffffffffffffffffffffff169050816000806101000a81548173ffffffffffffffffffffffffffffffffffffffff021916908373ffffffffffffffffffffffffffffffffffffffff1602179055508173ffffffffffffffffffffffffffffffffffffffff168173ffffffffffffffffffffffffffffffffffffffff167f8be0079c531659141344cd1fd0a4f28419497f9722a3daafe3b4186f6b6457e060405160405180910390a35050565b600080fd5b600073ffffffffffffffffffffffffffffffffffffffff82169050919050565b600062000247826200021a565b9050919050565b62000259816200023a565b81146200026557600080fd5b50565b60008151905062000279816200024e565b92915050565b6000806000606084860312156200029b576200029a62000215565b5b6000620002ab8682870162000268565b9350506020620002be8682870162000268565b9250506040620002d18682870162000268565b9150509250925092565b620002e6816200023a565b82525050565b6000602082019050620003036000830184620002db565b92915050565b61101b80620003196000396000f3fe608060405234801561001057600080fd5b50600436106100885760003560e01c8063c71d36b31161005b578063c71d36b3146100ed578063ce0fa5a91461010b578063f2fde38b1461013b578063fc0c546a1461015757610088565b806307751d4b1461008d578063715018a6146100a95780638da5cb5b146100b35780639c33ee1e146100d1575b600080fd5b6100a760048036038101906100a2919061094f565b610175565b005b6100b161037e565b005b6100bb610392565b6040516100c8919061099e565b60405180910390f35b6100eb60048036038101906100e69190610a54565b6103bb565b005b6100f561061d565b6040516101029190610b3b565b60405180910390f35b61012560048036038101906101209190610b56565b610643565b6040516101329190610b9e565b60405180910390f35b61015560048036038101906101509190610bb9565b610663565b005b61015f6106e9565b60405161016c9190610c07565b60405180910390f35b61017d61070f565b600260009054906101000a900473ffffffffffffffffffffffffffffffffffffffff1673ffffffffffffffffffffffffffffffffffffffff166323b872dd3330856040518463ffffffff1660e01b81526004016101dc93929190610c31565b6020604051808303816000875af11580156101fb573d6000803e3d6000fd5b505050506040513d601f19601f8201168201806040525081019061021f9190610c94565b61025e576040517f08c379a000000000000000000000000000000000000000000000000000000000815260040161025590610d1e565b60405180910390fd5b6000600360009054906101000a900473ffffffffffffffffffffffffffffffffffffffff1673ffffffffffffffffffffffffffffffffffffffff16635f08320c338486424662aa36a76040518763ffffffff1660e01b81526004016102c896959493929190610d79565b602060405180830381865afa1580156102e5573d6000803e3d6000fd5b505050506040513d601f19601f820116820180604052508101906103099190610def565b90508173ffffffffffffffffffffffffffffffffffffffff163373ffffffffffffffffffffffffffffffffffffffff16827ff1992c8013635e041f43112c0802a6b10c6240ebae0ee501dbbf66b664f55afc866040516103699190610e1c565b60405180910390a45061037a610755565b5050565b61038661075e565b61039060006107e5565b565b60008060009054906101000a900473ffffffffffffffffffffffffffffffffffffffff16905090565b6103c361070f565b600360009054906101000a900473ffffffffffffffffffffffffffffffffffffffff1673ffffffffffffffffffffffffffffffffffffffff16631d0e2d393384846040518463ffffffff1660e01b815260040161042293929190610eb2565b602060405180830381865afa15801561043f573d6000803e3d6000fd5b505050506040513d601f19601f820116820180604052508101906104639190610c94565b6104a2576040517f08c379a000000000000000000000000000000000000000000000000000000000815260040161049990610f30565b60405180910390fd5b6004600086815260200190815260200160002060009054906101000a900460ff1615610503576040517f08c379a00000000000000000000000000000000000000000000000000000000081526004016104fa90610f9c565b60405180910390fd5b60016004600087815260200190815260200160002060006101000a81548160ff021916908315150217905550600260009054906101000a900473ffffffffffffffffffffffffffffffffffffffff1673ffffffffffffffffffffffffffffffffffffffff1663a9059cbb85856040518363ffffffff1660e01b815260040161058c929190610fbc565b6020604051808303816000875af11580156105ab573d6000803e3d6000fd5b505050506040513d601f19601f820116820180604052508101906105cf9190610c94565b61060e576040517f08c379a000000000000000000000000000000000000000000000000000000000815260040161060590610d1e565b60405180910390fd5b610616610755565b5050505050565b600360009054906101000a900473ffffffffffffffffffffffffffffffffffffffff1681565b60046020528060005260406000206000915054906101000a900460ff1681565b61066b61075e565b600073ffffffffffffffffffffffffffffffffffffffff168173ffffffffffffffffffffffffffffffffffffffff16036106dd5760006040517f1e4fbdf70000000000000000000000000000000000000000000000000000000081526004016106d4919061099e565b60405180910390fd5b6106e6816107e5565b50565b600260009054906101000a900473ffffffffffffffffffffffffffffffffffffffff1681565b60026001540361074b576040517f3ee5aeb500000000000000000000000000000000000000000000000000000000815260040160405180910390fd5b6002600181905550565b60018081905550565b6107666108a9565b73ffffffffffffffffffffffffffffffffffffffff16610784610392565b73ffffffffffffffffffffffffffffffffffffffff16146107e3576107a76108a9565b6040517f118cdaa70000000000000000000000000000000000000000000000000000000081526004016107da919061099e565b60405180910390fd5b565b60008060009054906101000a900473ffffffffffffffffffffffffffffffffffffffff169050816000806101000a81548173ffffffffffffffffffffffffffffffffffffffff021916908373ffffffffffffffffffffffffffffffffffffffff1602179055508173ffffffffffffffffffffffffffffffffffffffff168173ffffffffffffffffffffffffffffffffffffffff167f8be0079c531659141344cd1fd0a4f28419497f9722a3daafe3b4186f6b6457e060405160405180910390a35050565b600033905090565b600080fd5b600080fd5b6000819050919050565b6108ce816108bb565b81146108d957600080fd5b50565b6000813590506108eb816108c5565b92915050565b600073ffffffffffffffffffffffffffffffffffffffff82169050919050565b600061091c826108f1565b9050919050565b61092c81610911565b811461093757600080fd5b50565b60008135905061094981610923565b92915050565b60008060408385031215610966576109656108b1565b5b6000610974858286016108dc565b92505060206109858582860161093a565b9150509250929050565b61099881610911565b82525050565b60006020820190506109b3600083018461098f565b92915050565b6000819050919050565b6109cc816109b9565b81146109d757600080fd5b50565b6000813590506109e9816109c3565b92915050565b600080fd5b600080fd5b600080fd5b60008083601f840112610a1457610a136109ef565b5b8235905067ffffffffffffffff811115610a3157610a306109f4565b5b602083019150836020820283011115610a4d57610a4c6109f9565b5b9250929050565b600080600080600060808688031215610a7057610a6f6108b1565b5b6000610a7e888289016109da565b9550506020610a8f8882890161093a565b9450506040610aa0888289016108dc565b935050606086013567ffffffffffffffff811115610ac157610ac06108b6565b5b610acd888289016109fe565b92509250509295509295909350565b6000819050919050565b6000610b01610afc610af7846108f1565b610adc565b6108f1565b9050919050565b6000610b1382610ae6565b9050919050565b6000610b2582610b08565b9050919050565b610b3581610b1a565b82525050565b6000602082019050610b506000830184610b2c565b92915050565b600060208284031215610b6c57610b6b6108b1565b5b6000610b7a848285016109da565b91505092915050565b60008115159050919050565b610b9881610b83565b82525050565b6000602082019050610bb36000830184610b8f565b92915050565b600060208284031215610bcf57610bce6108b1565b5b6000610bdd8482850161093a565b91505092915050565b6000610bf182610b08565b9050919050565b610c0181610be6565b82525050565b6000602082019050610c1c6000830184610bf8565b92915050565b610c2b816108bb565b82525050565b6000606082019050610c46600083018661098f565b610c53602083018561098f565b610c606040830184610c22565b949350505050565b610c7181610b83565b8114610c7c57600080fd5b50565b600081519050610c8e81610c68565b92915050565b600060208284031215610caa57610ca96108b1565b5b6000610cb884828501610c7f565b91505092915050565b600082825260208201905092915050565b7f5472616e73666572206661696c65640000000000000000000000000000000000600082015250565b6000610d08600f83610cc1565b9150610d1382610cd2565b602082019050919050565b60006020820190508181036000830152610d3781610cfb565b9050919050565b6000819050919050565b6000610d63610d5e610d5984610d3e565b610adc565b6108bb565b9050919050565b610d7381610d48565b82525050565b600060c082019050610d8e600083018961098f565b610d9b602083018861098f565b610da86040830187610c22565b610db56060830186610c22565b610dc26080830185610c22565b610dcf60a0830184610d6a565b979650505050505050565b600081519050610de9816109c3565b92915050565b600060208284031215610e0557610e046108b1565b5b6000610e1384828501610dda565b91505092915050565b6000602082019050610e316000830184610c22565b92915050565b600082825260208201905092915050565b600080fd5b82818337505050565b6000610e628385610e37565b93507f07ffffffffffffffffffffffffffffffffffffffffffffffffffffffffffffff831115610e9557610e94610e48565b5b602083029250610ea6838584610e4d565b82840190509392505050565b6000604082019050610ec7600083018661098f565b8181036020830152610eda818486610e56565b9050949350505050565b7f496e76616c69642072656c617965720000000000000000000000000000000000600082015250565b6000610f1a600f83610cc1565b9150610f2582610ee4565b602082019050919050565b60006020820190508181036000830152610f4981610f0d565b9050919050565b7f5265717565737420616c72656164792070726f63657373656400000000000000600082015250565b6000610f86601983610cc1565b9150610f9182610f50565b602082019050919050565b60006020820190508181036000830152610fb581610f79565b9050919050565b6000604082019050610fd1600083018561098f565b610fde6020830184610c22565b939250505056fea2646970667358221220b9cd8c5bc09353cc8178fc5eb7b0d0c341ea612d0285b3b259b7ff6a6963cc3764736f6c63430008140033",
  "linkReferences": {},
  "deployedLinkReferences": {}
}