{
  "_format": "hh-sol-artifact-1",
  "contractName": "DecentralizedRelayer",
  "sourceName": "contracts/DecentralizedRelayer.sol",
  "abi": [
    {
      "inputs": [],
      "name": "ECDSAInvalidSignature",
      "type": "error"
    },
    {
      "inputs": [
        {
          "internalType": "uint256",
          "name": "length",
          "type": "uint256"
        }
      ],
      "name": "ECDSAInvalidSignatureLength",
      "type": "error"
    },
    {
      "inputs": [
        {
          "internalType": "bytes32",
          "name": "s",
          "type": "bytes32"
        }
      ],
      "name": "ECDSAInvalidSignatureS",
      "type": "error"
    },
    {
      "inputs": [],
      "name": "EnforcedPause",
      "type": "error"
    },
    {
      "inputs": [],
      "name": "ExpectedPause",
      "type": "error"
    },
    {
      "inputs": [],
      "name": "ReentrancyGuardReentrantCall",
      "type": "error"
    },
    {
      "anonymous": false,
      "inputs": [
        {
          "indexed": false,
          "internalType": "address",
          "name": "account",
          "type": "address"
        }
      ],
      "name": "Paused",
      "type": "event"
    },
    {
      "anonymous": false,
      "inputs": [
        {
          "indexed": true,
          "internalType": "address",
          "name": "relayer",
          "type": "address"
        },
        {
          "indexed": false,
          "internalType": "bool",
          "name": "authorized",
          "type": "bool"
        }
      ],
      "name": "RelayerUpdated",
      "type": "event"
    },
    {
      "anonymous": false,
      "inputs": [
        {
          "indexed": true,
          "internalType": "address",
          "name": "sender",
          "type": "address"
        },
        {
          "indexed": true,
          "internalType": "address",
          "name": "target",
          "type": "address"
        },
        {
          "indexed": false,
          "internalType": "bytes",
          "name": "data",
          "type": "bytes"
        },
        {
          "indexed": false,
          "internalType": "uint256",
          "name": "nonce",
          "type": "uint256"
        }
      ],
      "name": "TransactionRelayed",
      "type": "event"
    },
    {
      "anonymous": false,
      "inputs": [
        {
          "indexed": false,
          "internalType": "address",
          "name": "account",
          "type": "address"
        }
      ],
      "name": "Unpaused",
      "type": "event"
    },
    {
      "inputs": [],
      "name": "MAX_GAS_PRICE",
      "outputs": [
        {
          "internalType": "uint256",
          "name": "",
          "type": "uint256"
        }
      ],
      "stateMutability": "view",
      "type": "function"
    },
    {
      "inputs": [
        {
          "internalType": "address",
          "name": "",
          "type": "address"
        }
      ],
      "name": "authorizedRelayers",
      "outputs": [
        {
          "internalType": "bool",
          "name": "",
          "type": "bool"
        }
      ],
      "stateMutability": "view",
      "type": "function"
    },
    {
      "inputs": [
        {
          "internalType": "address",
          "name": "",
          "type": "address"
        }
      ],
      "name": "nonces",
      "outputs": [
        {
          "internalType": "uint256",
          "name": "",
          "type": "uint256"
        }
      ],
      "stateMutability": "view",
      "type": "function"
    },
    {
      "inputs": [],
      "name": "paused",
      "outputs": [
        {
          "internalType": "bool",
          "name": "",
          "type": "bool"
        }
      ],
      "stateMutability": "view",
      "type": "function"
    },
    {
      "inputs": [
        {
          "internalType": "address",
          "name": "sender",
          "type": "address"
        },
        {
          "internalType": "address",
          "name": "target",
          "type": "address"
        },
        {
          "internalType": "bytes",
          "name": "data",
          "type": "bytes"
        },
        {
          "internalType": "uint256",
          "name": "nonce",
          "type": "uint256"
        },
        {
          "internalType": "bytes",
          "name": "signature",
          "type": "bytes"
        }
      ],
      "name": "relayTransaction",
      "outputs": [],
      "stateMutability": "nonpayable",
      "type": "function"
    },
    {
      "inputs": [
        {
          "internalType": "address[]",
          "name": "senders",
          "type": "address[]"
        },
        {
          "internalType": "address[]",
          "name": "targets",
          "type": "address[]"
        },
        {
          "internalType": "bytes[]",
          "name": "dataArray",
          "type": "bytes[]"
        },
        {
          "internalType": "uint256[]",
          "name": "nonces",
          "type": "uint256[]"
        },
        {
          "internalType": "bytes[]",
          "name": "signatures",
          "type": "bytes[]"
        }
      ],
      "name": "relayTransactions",
      "outputs": [],
      "stateMutability": "nonpayable",
      "type": "function"
    },
    {
      "inputs": [
        {
          "internalType": "address",
          "name": "relayer",
          "type": "address"
        },
        {
          "internalType": "bool",
          "name": "authorized",
          "type": "bool"
        }
      ],
      "name": "updateRelayer",
      "outputs": [],
      "stateMutability": "nonpayable",
      "type": "function"
    }
  ],
  "bytecode": "0x608060405234801561001057600080fd5b5060016000819055506000600160006101000a81548160ff0219169083151502179055506117b2806100436000396000f3fe608060405234801561001057600080fd5b506004361061007d5760003560e01c80637ecebe001161005b5780637ecebe00146100ec5780639dbf5eca1461011c578063c2e581d414610138578063e3bbb4f1146101545761007d565b806329e295c514610082578063405695db146100b25780635c975abb146100ce575b600080fd5b61009c60048036038101906100979190610c27565b610172565b6040516100a99190610c6f565b60405180910390f35b6100cc60048036038101906100c79190610d9b565b610192565b005b6100d661039b565b6040516100e39190610c6f565b60405180910390f35b61010660048036038101906101019190610c27565b6103b2565b6040516101139190610ed1565b60405180910390f35b61013660048036038101906101319190610f18565b6103ca565b005b610152600480360381019061014d9190610fda565b610473565b005b61015c610845565b6040516101699190610ed1565b60405180910390f35b60036020528060005260406000206000915054906101000a900460ff1681565b61019a61084e565b6101a2610894565b600360003373ffffffffffffffffffffffffffffffffffffffff1673ffffffffffffffffffffffffffffffffffffffff16815260200190815260200160002060009054906101000a900460ff1661022e576040517f08c379a0000000000000000000000000000000000000000000000000000000008152600401610225906110f3565b60405180910390fd5b878790508a8a905014801561024857508585905088889050145b801561025957508383905086869050145b801561026a57508181905084849050145b6102a9576040517f08c379a00000000000000000000000000000000000000000000000000000000081526004016102a09061115f565b60405180910390fd5b60005b8a8a9050811015610386576103738b8b838181106102cd576102cc61117f565b5b90506020020160208101906102e29190610c27565b8a8a848181106102f5576102f461117f565b5b905060200201602081019061030a9190610c27565b89898581811061031d5761031c61117f565b5b905060200281019061032f91906111bd565b8989878181106103425761034161117f565b5b9050602002013588888881811061035c5761035b61117f565b5b905060200281019061036e91906111bd565b610473565b808061037e9061124f565b9150506102ac565b5061038f6108d5565b50505050505050505050565b6000600160009054906101000a900460ff16905090565b60026020528060005260406000206000915090505481565b80600360008473ffffffffffffffffffffffffffffffffffffffff1673ffffffffffffffffffffffffffffffffffffffff16815260200190815260200160002060006101000a81548160ff0219169083151502179055508173ffffffffffffffffffffffffffffffffffffffff167f4b36b2e66f38ed349bec532105790177f1283bcbc094e6cd48565195d3033c43826040516104679190610c6f565b60405180910390a25050565b61047b61084e565b610483610894565b600360003373ffffffffffffffffffffffffffffffffffffffff1673ffffffffffffffffffffffffffffffffffffffff16815260200190815260200160002060009054906101000a900460ff1661050f576040517f08c379a0000000000000000000000000000000000000000000000000000000008152600401610506906110f3565b60405180910390fd5b64746a5288003a1115610557576040517f08c379a000000000000000000000000000000000000000000000000000000000815260040161054e906112e3565b60405180910390fd5b600260008873ffffffffffffffffffffffffffffffffffffffff1673ffffffffffffffffffffffffffffffffffffffff16815260200190815260200160002060008154809291906105a79061124f565b9190505583146105ec576040517f08c379a00000000000000000000000000000000000000000000000000000000081526004016105e39061134f565b60405180910390fd5b600087878787873060405160200161060996959493929190611417565b6040516020818303038152906040528051906020012060405160200161062f91906114f6565b6040516020818303038152906040528051906020012090508773ffffffffffffffffffffffffffffffffffffffff166106b584848080601f016020809104026020016040519081016040528093929190818152602001838380828437600081840152601f19601f82011690508083019250505050505050836108df90919063ffffffff16565b73ffffffffffffffffffffffffffffffffffffffff161461070b576040517f08c379a000000000000000000000000000000000000000000000000000000000815260040161070290611568565b60405180910390fd5b60008773ffffffffffffffffffffffffffffffffffffffff166107d05a6107329190611588565b88886040516107429291906115bc565b60006040518083038160008787f1925050503d8060008114610780576040519150601f19603f3d011682016040523d82523d6000602084013e610785565b606091505b50509050806107c9576040517f08c379a00000000000000000000000000000000000000000000000000000000081526004016107c090611621565b60405180910390fd5b8773ffffffffffffffffffffffffffffffffffffffff168973ffffffffffffffffffffffffffffffffffffffff167f4ae3db087e38f5fc3168844838c6ae5360a50d66c0f2d080d09a37767d8427b989898960405161082a93929190611690565b60405180910390a3505061083c6108d5565b50505050505050565b64746a52880081565b60026000540361088a576040517f3ee5aeb500000000000000000000000000000000000000000000000000000000815260040160405180910390fd5b6002600081905550565b61089c61039b565b156108d3576040517fd93c066500000000000000000000000000000000000000000000000000000000815260040160405180910390fd5b565b6001600081905550565b6000806000806108ef868661090b565b9250925092506108ff8282610967565b82935050505092915050565b600080600060418451036109505760008060006020870151925060408701519150606087015160001a905061094288828585610acb565b955095509550505050610960565b60006002855160001b9250925092505b9250925092565b6000600381111561097b5761097a6116c2565b5b82600381111561098e5761098d6116c2565b5b0315610ac757600160038111156109a8576109a76116c2565b5b8260038111156109bb576109ba6116c2565b5b036109f2576040517ff645eedf00000000000000000000000000000000000000000000000000000000815260040160405180910390fd5b60026003811115610a0657610a056116c2565b5b826003811115610a1957610a186116c2565b5b03610a5e578060001c6040517ffce698f7000000000000000000000000000000000000000000000000000000008152600401610a559190610ed1565b60405180910390fd5b600380811115610a7157610a706116c2565b5b826003811115610a8457610a836116c2565b5b03610ac657806040517fd78bce0c000000000000000000000000000000000000000000000000000000008152600401610abd9190611700565b60405180910390fd5b5b5050565b60008060007f7fffffffffffffffffffffffffffffff5d576e7357a4501ddfe92f46681b20a08460001c1115610b0b576000600385925092509250610bb5565b600060018888888860405160008152602001604052604051610b309493929190611737565b6020604051602081039080840390855afa158015610b52573d6000803e3d6000fd5b505050602060405103519050600073ffffffffffffffffffffffffffffffffffffffff168173ffffffffffffffffffffffffffffffffffffffff1603610ba657600060016000801b93509350935050610bb5565b8060008060001b935093509350505b9450945094915050565b600080fd5b600080fd5b600073ffffffffffffffffffffffffffffffffffffffff82169050919050565b6000610bf482610bc9565b9050919050565b610c0481610be9565b8114610c0f57600080fd5b50565b600081359050610c2181610bfb565b92915050565b600060208284031215610c3d57610c3c610bbf565b5b6000610c4b84828501610c12565b91505092915050565b60008115159050919050565b610c6981610c54565b82525050565b6000602082019050610c846000830184610c60565b92915050565b600080fd5b600080fd5b600080fd5b60008083601f840112610caf57610cae610c8a565b5b8235905067ffffffffffffffff811115610ccc57610ccb610c8f565b5b602083019150836020820283011115610ce857610ce7610c94565b5b9250929050565b60008083601f840112610d0557610d04610c8a565b5b8235905067ffffffffffffffff811115610d2257610d21610c8f565b5b602083019150836020820283011115610d3e57610d3d610c94565b5b9250929050565b60008083601f840112610d5b57610d5a610c8a565b5b8235905067ffffffffffffffff811115610d7857610d77610c8f565b5b602083019150836020820283011115610d9457610d93610c94565b5b9250929050565b60008060008060008060008060008060a08b8d031215610dbe57610dbd610bbf565b5b60008b013567ffffffffffffffff811115610ddc57610ddb610bc4565b5b610de88d828e01610c99565b9a509a505060208b013567ffffffffffffffff811115610e0b57610e0a610bc4565b5b610e178d828e01610c99565b985098505060408b013567ffffffffffffffff811115610e3a57610e39610bc4565b5b610e468d828e01610cef565b965096505060608b013567ffffffffffffffff811115610e6957610e68610bc4565b5b610e758d828e01610d45565b945094505060808b013567ffffffffffffffff811115610e9857610e97610bc4565b5b610ea48d828e01610cef565b92509250509295989b9194979a5092959850565b6000819050919050565b610ecb81610eb8565b82525050565b6000602082019050610ee66000830184610ec2565b92915050565b610ef581610c54565b8114610f0057600080fd5b50565b600081359050610f1281610eec565b92915050565b60008060408385031215610f2f57610f2e610bbf565b5b6000610f3d85828601610c12565b9250506020610f4e85828601610f03565b9150509250929050565b60008083601f840112610f6e57610f6d610c8a565b5b8235905067ffffffffffffffff811115610f8b57610f8a610c8f565b5b602083019150836001820283011115610fa757610fa6610c94565b5b9250929050565b610fb781610eb8565b8114610fc257600080fd5b50565b600081359050610fd481610fae565b92915050565b600080600080600080600060a0888a031215610ff957610ff8610bbf565b5b60006110078a828b01610c12565b97505060206110188a828b01610c12565b965050604088013567ffffffffffffffff81111561103957611038610bc4565b5b6110458a828b01610f58565b955095505060606110588a828b01610fc5565b935050608088013567ffffffffffffffff81111561107957611078610bc4565b5b6110858a828b01610f58565b925092505092959891949750929550565b600082825260208201905092915050565b7f556e617574686f72697a65642072656c61796572000000000000000000000000600082015250565b60006110dd601483611096565b91506110e8826110a7565b602082019050919050565b6000602082019050818103600083015261110c816110d0565b9050919050565b7f4172726179206c656e677468206d69736d617463680000000000000000000000600082015250565b6000611149601583611096565b915061115482611113565b602082019050919050565b600060208201905081810360008301526111788161113c565b9050919050565b7f4e487b7100000000000000000000000000000000000000000000000000000000600052603260045260246000fd5b600080fd5b600080fd5b600080fd5b600080833560016020038436030381126111da576111d96111ae565b5b80840192508235915067ffffffffffffffff8211156111fc576111fb6111b3565b5b602083019250600182023603831315611218576112176111b8565b5b509250929050565b7f4e487b7100000000000000000000000000000000000000000000000000000000600052601160045260246000fd5b600061125a82610eb8565b91507fffffffffffffffffffffffffffffffffffffffffffffffffffffffffffffffff820361128c5761128b611220565b5b600182019050919050565b7f47617320707269636520746f6f20686967680000000000000000000000000000600082015250565b60006112cd601283611096565b91506112d882611297565b602082019050919050565b600060208201905081810360008301526112fc816112c0565b9050919050565b7f496e76616c6964206e6f6e636500000000000000000000000000000000000000600082015250565b6000611339600d83611096565b915061134482611303565b602082019050919050565b600060208201905081810360008301526113688161132c565b9050919050565b60008160601b9050919050565b60006113878261136f565b9050919050565b60006113998261137c565b9050919050565b6113b16113ac82610be9565b61138e565b82525050565b600081905092915050565b82818337600083830152505050565b60006113dd83856113b7565b93506113ea8385846113c2565b82840190509392505050565b6000819050919050565b61141161140c82610eb8565b6113f6565b82525050565b600061142382896113a0565b60148201915061143382886113a0565b6014820191506114448286886113d1565b91506114508285611400565b60208201915061146082846113a0565b601482019150819050979650505050505050565b600081905092915050565b7f19457468657265756d205369676e6564204d6573736167653a0a333200000000600082015250565b60006114b5601c83611474565b91506114c08261147f565b601c82019050919050565b6000819050919050565b6000819050919050565b6114f06114eb826114cb565b6114d5565b82525050565b6000611501826114a8565b915061150d82846114df565b60208201915081905092915050565b7f496e76616c6964207369676e6174757265000000000000000000000000000000600082015250565b6000611552601183611096565b915061155d8261151c565b602082019050919050565b6000602082019050818103600083015261158181611545565b9050919050565b600061159382610eb8565b915061159e83610eb8565b92508282039050818111156115b6576115b5611220565b5b92915050565b60006115c98284866113d1565b91508190509392505050565b7f5472616e73616374696f6e206661696c65640000000000000000000000000000600082015250565b600061160b601283611096565b9150611616826115d5565b602082019050919050565b6000602082019050818103600083015261163a816115fe565b9050919050565b600082825260208201905092915050565b6000601f19601f8301169050919050565b600061166f8385611641565b935061167c8385846113c2565b61168583611652565b840190509392505050565b600060408201905081810360008301526116ab818587611663565b90506116ba6020830184610ec2565b949350505050565b7f4e487b7100000000000000000000000000000000000000000000000000000000600052602160045260246000fd5b6116fa816114cb565b82525050565b600060208201905061171560008301846116f1565b92915050565b600060ff82169050919050565b6117318161171b565b82525050565b600060808201905061174c60008301876116f1565b6117596020830186611728565b61176660408301856116f1565b61177360608301846116f1565b9594505050505056fea2646970667358221220f528eeaa7c16fbba076e52c6d0859e147d7efe7a6aaf532f66aabe32d8efd9ef64736f6c63430008140033",
  "linkReferences": {},
  "deployedLinkReferences": {}
}