{
  "_format": "hh-sol-artifact-1",
  "contractName": "BridgeStorage",
  "sourceName": "contracts/BridgeStorage.sol",
  "abi": [
    {
      "inputs": [],
      "stateMutability": "nonpayable",
      "type": "constructor"
    },
    {
      "inputs": [
        {
          "internalType": "address",
          "name": "owner",
          "type": "address"
        }
      ],
      "name": "OwnableInvalidOwner",
      "type": "error"
    },
    {
      "inputs": [
        {
          "internalType": "address",
          "name": "account",
          "type": "address"
        }
      ],
      "name": "OwnableUnauthorizedAccount",
      "type": "error"
    },
    {
      "anonymous": false,
      "inputs": [
        {
          "indexed": true,
          "internalType": "address",
          "name": "previousOwner",
          "type": "address"
        },
        {
          "indexed": true,
          "internalType": "address",
          "name": "newOwner",
          "type": "address"
        }
      ],
      "name": "OwnershipTransferred",
      "type": "event"
    },
    {
      "anonymous": false,
      "inputs": [
        {
          "indexed": true,
          "internalType": "bytes32",
          "name": "transferId",
          "type": "bytes32"
        }
      ],
      "name": "TransferProcessed",
      "type": "event"
    },
    {
      "inputs": [
        {
          "internalType": "address",
          "name": "",
          "type": "address"
        },
        {
          "internalType": "address",
          "name": "",
          "type": "address"
        }
      ],
      "name": "bridgedBalances",
      "outputs": [
        {
          "internalType": "uint256",
          "name": "",
          "type": "uint256"
        }
      ],
      "stateMutability": "view",
      "type": "function"
    },
    {
      "inputs": [
        {
          "internalType": "bytes32",
          "name": "transferId",
          "type": "bytes32"
        }
      ],
      "name": "markTransferProcessed",
      "outputs": [],
      "stateMutability": "nonpayable",
      "type": "function"
    },
    {
      "inputs": [],
      "name": "owner",
      "outputs": [
        {
          "internalType": "address",
          "name": "",
          "type": "address"
        }
      ],
      "stateMutability": "view",
      "type": "function"
    },
    {
      "inputs": [
        {
          "internalType": "bytes32",
          "name": "",
          "type": "bytes32"
        }
      ],
      "name": "processedTransfers",
      "outputs": [
        {
          "internalType": "bool",
          "name": "",
          "type": "bool"
        }
      ],
      "stateMutability": "view",
      "type": "function"
    },
    {
      "inputs": [],
      "name": "renounceOwnership",
      "outputs": [],
      "stateMutability": "nonpayable",
      "type": "function"
    },
    {
      "inputs": [
        {
          "internalType": "address",
          "name": "newOwner",
          "type": "address"
        }
      ],
      "name": "transferOwnership",
      "outputs": [],
      "stateMutability": "nonpayable",
      "type": "function"
    },
    {
      "inputs": [
        {
          "internalType": "address",
          "name": "token",
          "type": "address"
        },
        {
          "internalType": "address",
          "name": "user",
          "type": "address"
        },
        {
          "internalType": "uint256",
          "name": "amount",
          "type": "uint256"
        },
        {
          "internalType": "bool",
          "name": "add",
          "type": "bool"
        }
      ],
      "name": "updateBridgedBalance",
      "outputs": [],
      "stateMutability": "nonpayable",
      "type": "function"
    }
  ],
  "bytecode": "0x608060405234801561001057600080fd5b5033600073ffffffffffffffffffffffffffffffffffffffff168173ffffffffffffffffffffffffffffffffffffffff16036100845760006040517f1e4fbdf700000000000000000000000000000000000000000000000000000000815260040161007b919061019e565b60405180910390fd5b6100938161009960201b60201c565b506101b9565b60008060009054906101000a900473ffffffffffffffffffffffffffffffffffffffff169050816000806101000a81548173ffffffffffffffffffffffffffffffffffffffff021916908373ffffffffffffffffffffffffffffffffffffffff1602179055508173ffffffffffffffffffffffffffffffffffffffff168173ffffffffffffffffffffffffffffffffffffffff167f8be0079c531659141344cd1fd0a4f28419497f9722a3daafe3b4186f6b6457e060405160405180910390a35050565b600073ffffffffffffffffffffffffffffffffffffffff82169050919050565b60006101888261015d565b9050919050565b6101988161017d565b82525050565b60006020820190506101b3600083018461018f565b92915050565b610ab8806101c86000396000f3fe608060405234801561001057600080fd5b506004361061007d5760003560e01c8063715018a61161005b578063715018a6146100ea5780638da5cb5b146100f4578063dd910d7514610112578063f2fde38b146101425761007d565b80633fb49a0f146100825780634b8c2a85146100b257806362f9fa1c146100ce575b600080fd5b61009c600480360381019061009791906106df565b61015e565b6040516100a99190610738565b60405180910390f35b6100cc60048036038101906100c79190610789565b610183565b005b6100e860048036038101906100e3919061081a565b610247565b005b6100f2610446565b005b6100fc61045a565b6040516101099190610890565b60405180910390f35b61012c60048036038101906101279190610789565b610483565b60405161013991906108ba565b60405180910390f35b61015c600480360381019061015791906108d5565b6104a3565b005b6002602052816000526040600020602052806000526040600020600091509150505481565b61018b610529565b6001600082815260200190815260200160002060009054906101000a900460ff16156101ec576040517f08c379a00000000000000000000000000000000000000000000000000000000081526004016101e39061095f565b60405180910390fd5b600180600083815260200190815260200160002060006101000a81548160ff021916908315150217905550807f5f644b202fbfe0a74291021615ddd82f44db46994782c8bce75d196d9ac49b2a60405160405180910390a250565b61024f610529565b80156102ed5781600260008673ffffffffffffffffffffffffffffffffffffffff1673ffffffffffffffffffffffffffffffffffffffff16815260200190815260200160002060008573ffffffffffffffffffffffffffffffffffffffff1673ffffffffffffffffffffffffffffffffffffffff16815260200190815260200160002060008282546102e191906109ae565b92505081905550610440565b81600260008673ffffffffffffffffffffffffffffffffffffffff1673ffffffffffffffffffffffffffffffffffffffff16815260200190815260200160002060008573ffffffffffffffffffffffffffffffffffffffff1673ffffffffffffffffffffffffffffffffffffffff1681526020019081526020016000205410156103ac576040517f08c379a00000000000000000000000000000000000000000000000000000000081526004016103a390610a2e565b60405180910390fd5b81600260008673ffffffffffffffffffffffffffffffffffffffff1673ffffffffffffffffffffffffffffffffffffffff16815260200190815260200160002060008573ffffffffffffffffffffffffffffffffffffffff1673ffffffffffffffffffffffffffffffffffffffff16815260200190815260200160002060008282546104389190610a4e565b925050819055505b50505050565b61044e610529565b61045860006105b0565b565b60008060009054906101000a900473ffffffffffffffffffffffffffffffffffffffff16905090565b60016020528060005260406000206000915054906101000a900460ff1681565b6104ab610529565b600073ffffffffffffffffffffffffffffffffffffffff168173ffffffffffffffffffffffffffffffffffffffff160361051d5760006040517f1e4fbdf70000000000000000000000000000000000000000000000000000000081526004016105149190610890565b60405180910390fd5b610526816105b0565b50565b610531610674565b73ffffffffffffffffffffffffffffffffffffffff1661054f61045a565b73ffffffffffffffffffffffffffffffffffffffff16146105ae57610572610674565b6040517f118cdaa70000000000000000000000000000000000000000000000000000000081526004016105a59190610890565b60405180910390fd5b565b60008060009054906101000a900473ffffffffffffffffffffffffffffffffffffffff169050816000806101000a81548173ffffffffffffffffffffffffffffffffffffffff021916908373ffffffffffffffffffffffffffffffffffffffff1602179055508173ffffffffffffffffffffffffffffffffffffffff168173ffffffffffffffffffffffffffffffffffffffff167f8be0079c531659141344cd1fd0a4f28419497f9722a3daafe3b4186f6b6457e060405160405180910390a35050565b600033905090565b600080fd5b600073ffffffffffffffffffffffffffffffffffffffff82169050919050565b60006106ac82610681565b9050919050565b6106bc816106a1565b81146106c757600080fd5b50565b6000813590506106d9816106b3565b92915050565b600080604083850312156106f6576106f561067c565b5b6000610704858286016106ca565b9250506020610715858286016106ca565b9150509250929050565b6000819050919050565b6107328161071f565b82525050565b600060208201905061074d6000830184610729565b92915050565b6000819050919050565b61076681610753565b811461077157600080fd5b50565b6000813590506107838161075d565b92915050565b60006020828403121561079f5761079e61067c565b5b60006107ad84828501610774565b91505092915050565b6107bf8161071f565b81146107ca57600080fd5b50565b6000813590506107dc816107b6565b92915050565b60008115159050919050565b6107f7816107e2565b811461080257600080fd5b50565b600081359050610814816107ee565b92915050565b600080600080608085870312156108345761083361067c565b5b6000610842878288016106ca565b9450506020610853878288016106ca565b9350506040610864878288016107cd565b925050606061087587828801610805565b91505092959194509250565b61088a816106a1565b82525050565b60006020820190506108a56000830184610881565b92915050565b6108b4816107e2565b82525050565b60006020820190506108cf60008301846108ab565b92915050565b6000602082840312156108eb576108ea61067c565b5b60006108f9848285016106ca565b91505092915050565b600082825260208201905092915050565b7f5472616e7366657220616c72656164792070726f636573736564000000000000600082015250565b6000610949601a83610902565b915061095482610913565b602082019050919050565b600060208201905081810360008301526109788161093c565b9050919050565b7f4e487b7100000000000000000000000000000000000000000000000000000000600052601160045260246000fd5b60006109b98261071f565b91506109c48361071f565b92508282019050808211156109dc576109db61097f565b5b92915050565b7f496e73756666696369656e742062616c616e6365000000000000000000000000600082015250565b6000610a18601483610902565b9150610a23826109e2565b602082019050919050565b60006020820190508181036000830152610a4781610a0b565b9050919050565b6000610a598261071f565b9150610a648361071f565b9250828203905081811115610a7c57610a7b61097f565b5b9291505056fea26469706673582212201ea525acb729e3a7e28e235187e89420a95b0084b685a60b3691eee8c199308d64736f6c63430008140033",
  "linkReferences": {},
  "deployedLinkReferences": {}
}