{
  "_format": "hh-sol-artifact-1",
  "contractName": "NFT",
  "sourceName": "contracts/NFT.sol",
  "abi": [
    {
      "inputs": [
        {
          "internalType": "string",
          "name": "name",
          "type": "string"
        },
        {
          "internalType": "string",
          "name": "symbol",
          "type": "string"
        },
        {
          "internalType": "address",
          "name": "owner",
          "type": "address"
        }
      ],
      "stateMutability": "nonpayable",
      "type": "constructor"
    },
    {
      "inputs": [
        {
          "internalType": "address",
          "name": "sender",
          "type": "address"
        },
        {
          "internalType": "uint256",
          "name": "tokenId",
          "type": "uint256"
        },
        {
          "internalType": "address",
          "name": "owner",
          "type": "address"
        }
      ],
      "name": "ERC721IncorrectOwner",
      "type": "error"
    },
    {
      "inputs": [
        {
          "internalType": "address",
          "name": "operator",
          "type": "address"
        },
        {
          "internalType": "uint256",
          "name": "tokenId",
          "type": "uint256"
        }
      ],
      "name": "ERC721InsufficientApproval",
      "type": "error"
    },
    {
      "inputs": [
        {
          "internalType": "address",
          "name": "approver",
          "type": "address"
        }
      ],
      "name": "ERC721InvalidApprover",
      "type": "error"
    },
    {
      "inputs": [
        {
          "internalType": "address",
          "name": "operator",
          "type": "address"
        }
      ],
      "name": "ERC721InvalidOperator",
      "type": "error"
    },
    {
      "inputs": [
        {
          "internalType": "address",
          "name": "owner",
          "type": "address"
        }
      ],
      "name": "ERC721InvalidOwner",
      "type": "error"
    },
    {
      "inputs": [
        {
          "internalType": "address",
          "name": "receiver",
          "type": "address"
        }
      ],
      "name": "ERC721InvalidReceiver",
      "type": "error"
    },
    {
      "inputs": [
        {
          "internalType": "address",
          "name": "sender",
          "type": "address"
        }
      ],
      "name": "ERC721InvalidSender",
      "type": "error"
    },
    {
      "inputs": [
        {
          "internalType": "uint256",
          "name": "tokenId",
          "type": "uint256"
        }
      ],
      "name": "ERC721NonexistentToken",
      "type": "error"
    },
    {
      "inputs": [
        {
          "internalType": "address",
          "name": "owner",
          "type": "address"
        }
      ],
      "name": "OwnableInvalidOwner",
      "type": "error"
    },
    {
      "inputs": [
        {
          "internalType": "address",
          "name": "account",
          "type": "address"
        }
      ],
      "name": "OwnableUnauthorizedAccount",
      "type": "error"
    },
    {
      "anonymous": false,
      "inputs": [
        {
          "indexed": true,
          "internalType": "address",
          "name": "owner",
          "type": "address"
        },
        {
          "indexed": true,
          "internalType": "address",
          "name": "approved",
          "type": "address"
        },
        {
          "indexed": true,
          "internalType": "uint256",
          "name": "tokenId",
          "type": "uint256"
        }
      ],
      "name": "Approval",
      "type": "event"
    },
    {
      "anonymous": false,
      "inputs": [
        {
          "indexed": true,
          "internalType": "address",
          "name": "owner",
          "type": "address"
        },
        {
          "indexed": true,
          "internalType": "address",
          "name": "operator",
          "type": "address"
        },
        {
          "indexed": false,
          "internalType": "bool",
          "name": "approved",
          "type": "bool"
        }
      ],
      "name": "ApprovalForAll",
      "type": "event"
    },
    {
      "anonymous": false,
      "inputs": [
        {
          "indexed": true,
          "internalType": "address",
          "name": "previousOwner",
          "type": "address"
        },
        {
          "indexed": true,
          "internalType": "address",
          "name": "newOwner",
          "type": "address"
        }
      ],
      "name": "OwnershipTransferred",
      "type": "event"
    },
    {
      "anonymous": false,
      "inputs": [
        {
          "indexed": true,
          "internalType": "address",
          "name": "from",
          "type": "address"
        },
        {
          "indexed": true,
          "internalType": "address",
          "name": "to",
          "type": "address"
        },
        {
          "indexed": true,
          "internalType": "uint256",
          "name": "tokenId",
          "type": "uint256"
        }
      ],
      "name": "Transfer",
      "type": "event"
    },
    {
      "inputs": [
        {
          "internalType": "address",
          "name": "to",
          "type": "address"
        },
        {
          "internalType": "uint256",
          "name": "tokenId",
          "type": "uint256"
        }
      ],
      "name": "approve",
      "outputs": [],
      "stateMutability": "nonpayable",
      "type": "function"
    },
    {
      "inputs": [
        {
          "internalType": "address",
          "name": "owner",
          "type": "address"
        }
      ],
      "name": "balanceOf",
      "outputs": [
        {
          "internalType": "uint256",
          "name": "",
          "type": "uint256"
        }
      ],
      "stateMutability": "view",
      "type": "function"
    },
    {
      "inputs": [
        {
          "internalType": "uint256",
          "name": "tokenId",
          "type": "uint256"
        }
      ],
      "name": "burn",
      "outputs": [],
      "stateMutability": "nonpayable",
      "type": "function"
    },
    {
      "inputs": [
        {
          "internalType": "uint256",
          "name": "tokenId",
          "type": "uint256"
        }
      ],
      "name": "getApproved",
      "outputs": [
        {
          "internalType": "address",
          "name": "",
          "type": "address"
        }
      ],
      "stateMutability": "view",
      "type": "function"
    },
    {
      "inputs": [
        {
          "internalType": "address",
          "name": "owner",
          "type": "address"
        },
        {
          "internalType": "address",
          "name": "operator",
          "type": "address"
        }
      ],
      "name": "isApprovedForAll",
      "outputs": [
        {
          "internalType": "bool",
          "name": "",
          "type": "bool"
        }
      ],
      "stateMutability": "view",
      "type": "function"
    },
    {
      "inputs": [
        {
          "internalType": "address",
          "name": "to",
          "type": "address"
        }
      ],
      "name": "mint",
      "outputs": [
        {
          "internalType": "uint256",
          "name": "",
          "type": "uint256"
        }
      ],
      "stateMutability": "nonpayable",
      "type": "function"
    },
    {
      "inputs": [],
      "name": "name",
      "outputs": [
        {
          "internalType": "string",
          "name": "",
          "type": "string"
        }
      ],
      "stateMutability": "view",
      "type": "function"
    },
    {
      "inputs": [],
      "name": "owner",
      "outputs": [
        {
          "internalType": "address",
          "name": "",
          "type": "address"
        }
      ],
      "stateMutability": "view",
      "type": "function"
    },
    {
      "inputs": [
        {
          "internalType": "uint256",
          "name": "tokenId",
          "type": "uint256"
        }
      ],
      "name": "ownerOf",
      "outputs": [
        {
          "internalType": "address",
          "name": "",
          "type": "address"
        }
      ],
      "stateMutability": "view",
      "type": "function"
    },
    {
      "inputs": [],
      "name": "renounceOwnership",
      "outputs": [],
      "stateMutability": "nonpayable",
      "type": "function"
    },
    {
      "inputs": [
        {
          "internalType": "address",
          "name": "from",
          "type": "address"
        },
        {
          "internalType": "address",
          "name": "to",
          "type": "address"
        },
        {
          "internalType": "uint256",
          "name": "tokenId",
          "type": "uint256"
        }
      ],
      "name": "safeTransferFrom",
      "outputs": [],
      "stateMutability": "nonpayable",
      "type": "function"
    },
    {
      "inputs": [
        {
          "internalType": "address",
          "name": "from",
          "type": "address"
        },
        {
          "internalType": "address",
          "name": "to",
          "type": "address"
        },
        {
          "internalType": "uint256",
          "name": "tokenId",
          "type": "uint256"
        },
        {
          "internalType": "bytes",
          "name": "data",
          "type": "bytes"
        }
      ],
      "name": "safeTransferFrom",
      "outputs": [],
      "stateMutability": "nonpayable",
      "type": "function"
    },
    {
      "inputs": [
        {
          "internalType": "address",
          "name": "operator",
          "type": "address"
        },
        {
          "internalType": "bool",
          "name": "approved",
          "type": "bool"
        }
      ],
      "name": "setApprovalForAll",
      "outputs": [],
      "stateMutability": "nonpayable",
      "type": "function"
    },
    {
      "inputs": [
        {
          "internalType": "bytes4",
          "name": "interfaceId",
          "type": "bytes4"
        }
      ],
      "name": "supportsInterface",
      "outputs": [
        {
          "internalType": "bool",
          "name": "",
          "type": "bool"
        }
      ],
      "stateMutability": "view",
      "type": "function"
    },
    {
      "inputs": [],
      "name": "symbol",
      "outputs": [
        {
          "internalType": "string",
          "name": "",
          "type": "string"
        }
      ],
      "stateMutability": "view",
      "type": "function"
    },
    {
      "inputs": [
        {
          "internalType": "uint256",
          "name": "tokenId",
          "type": "uint256"
        }
      ],
      "name": "tokenURI",
      "outputs": [
        {
          "internalType": "string",
          "name": "",
          "type": "string"
        }
      ],
      "stateMutability": "view",
      "type": "function"
    },
    {
      "inputs": [
        {
          "internalType": "address",
          "name": "from",
          "type": "address"
        },
        {
          "internalType": "address",
          "name": "to",
          "type": "address"
        },
        {
          "internalType": "uint256",
          "name": "tokenId",
          "type": "uint256"
        }
      ],
      "name": "transferFrom",
      "outputs": [],
      "stateMutability": "nonpayable",
      "type": "function"
    },
    {
      "inputs": [
        {
          "internalType": "address",
          "name": "newOwner",
          "type": "address"
        }
      ],
      "name": "transferOwnership",
      "outputs": [],
      "stateMutability": "nonpayable",
      "type": "function"
    }
  ],
  "bytecode": "0x60806040523480156200001157600080fd5b5060405162002ad638038062002ad68339818101604052810190620000379190620003b6565b80838381600090816200004b91906200069b565b5080600190816200005d91906200069b565b505050600073ffffffffffffffffffffffffffffffffffffffff168173ffffffffffffffffffffffffffffffffffffffff1603620000d55760006040517f1e4fbdf7000000000000000000000000000000000000000000000000000000008152600401620000cc919062000793565b60405180910390fd5b620000e681620000f860201b60201c565b506001600781905550505050620007b0565b6000600660009054906101000a900473ffffffffffffffffffffffffffffffffffffffff16905081600660006101000a81548173ffffffffffffffffffffffffffffffffffffffff021916908373ffffffffffffffffffffffffffffffffffffffff1602179055508173ffffffffffffffffffffffffffffffffffffffff168173ffffffffffffffffffffffffffffffffffffffff167f8be0079c531659141344cd1fd0a4f28419497f9722a3daafe3b4186f6b6457e060405160405180910390a35050565b6000604051905090565b600080fd5b600080fd5b600080fd5b600080fd5b6000601f19601f8301169050919050565b7f4e487b7100000000000000000000000000000000000000000000000000000000600052604160045260246000fd5b6200022782620001dc565b810181811067ffffffffffffffff82111715620002495762000248620001ed565b5b80604052505050565b60006200025e620001be565b90506200026c82826200021c565b919050565b600067ffffffffffffffff8211156200028f576200028e620001ed565b5b6200029a82620001dc565b9050602081019050919050565b60005b83811015620002c7578082015181840152602081019050620002aa565b60008484015250505050565b6000620002ea620002e48462000271565b62000252565b905082815260208101848484011115620003095762000308620001d7565b5b62000316848285620002a7565b509392505050565b600082601f830112620003365762000335620001d2565b5b815162000348848260208601620002d3565b91505092915050565b600073ffffffffffffffffffffffffffffffffffffffff82169050919050565b60006200037e8262000351565b9050919050565b620003908162000371565b81146200039c57600080fd5b50565b600081519050620003b08162000385565b92915050565b600080600060608486031215620003d257620003d1620001c8565b5b600084015167ffffffffffffffff811115620003f357620003f2620001cd565b5b62000401868287016200031e565b935050602084015167ffffffffffffffff811115620004255762000424620001cd565b5b62000433868287016200031e565b925050604062000446868287016200039f565b9150509250925092565b600081519050919050565b7f4e487b7100000000000000000000000000000000000000000000000000000000600052602260045260246000fd5b60006002820490506001821680620004a357607f821691505b602082108103620004b957620004b86200045b565b5b50919050565b60008190508160005260206000209050919050565b60006020601f8301049050919050565b600082821b905092915050565b600060088302620005237fffffffffffffffffffffffffffffffffffffffffffffffffffffffffffffffff82620004e4565b6200052f8683620004e4565b95508019841693508086168417925050509392505050565b6000819050919050565b6000819050919050565b60006200057c62000576620005708462000547565b62000551565b62000547565b9050919050565b6000819050919050565b62000598836200055b565b620005b0620005a78262000583565b848454620004f1565b825550505050565b600090565b620005c7620005b8565b620005d48184846200058d565b505050565b5b81811015620005fc57620005f0600082620005bd565b600181019050620005da565b5050565b601f8211156200064b576200061581620004bf565b6200062084620004d4565b8101602085101562000630578190505b620006486200063f85620004d4565b830182620005d9565b50505b505050565b600082821c905092915050565b6000620006706000198460080262000650565b1980831691505092915050565b60006200068b83836200065d565b9150826002028217905092915050565b620006a68262000450565b67ffffffffffffffff811115620006c257620006c1620001ed565b5b620006ce82546200048a565b620006db82828562000600565b600060209050601f831160018114620007135760008415620006fe578287015190505b6200070a85826200067d565b8655506200077a565b601f1984166200072386620004bf565b60005b828110156200074d5784890151825560018201915060208501945060208101905062000726565b868310156200076d578489015162000769601f8916826200065d565b8355505b6001600288020188555050505b505050505050565b6200078d8162000371565b82525050565b6000602082019050620007aa600083018462000782565b92915050565b61231680620007c06000396000f3fe608060405234801561001057600080fd5b50600436106101165760003560e01c806370a08231116100a2578063a22cb46511610071578063a22cb465146102df578063b88d4fde146102fb578063c87b56dd14610317578063e985e9c514610347578063f2fde38b1461037757610116565b806370a0823114610269578063715018a6146102995780638da5cb5b146102a357806395d89b41146102c157610116565b806323b872dd116100e957806323b872dd146101b557806342842e0e146101d157806342966c68146101ed5780636352211e146102095780636a6278421461023957610116565b806301ffc9a71461011b57806306fdde031461014b578063081812fc14610169578063095ea7b314610199575b600080fd5b61013560048036038101906101309190611a7d565b610393565b6040516101429190611ac5565b60405180910390f35b610153610475565b6040516101609190611b70565b60405180910390f35b610183600480360381019061017e9190611bc8565b610507565b6040516101909190611c36565b60405180910390f35b6101b360048036038101906101ae9190611c7d565b610523565b005b6101cf60048036038101906101ca9190611cbd565b610539565b005b6101eb60048036038101906101e69190611cbd565b61063b565b005b61020760048036038101906102029190611bc8565b61065b565b005b610223600480360381019061021e9190611bc8565b610734565b6040516102309190611c36565b60405180910390f35b610253600480360381019061024e9190611d10565b610746565b6040516102609190611d4c565b60405180910390f35b610283600480360381019061027e9190611d10565b610779565b6040516102909190611d4c565b60405180910390f35b6102a1610833565b005b6102ab610847565b6040516102b89190611c36565b60405180910390f35b6102c9610871565b6040516102d69190611b70565b60405180910390f35b6102f960048036038101906102f49190611d93565b610903565b005b61031560048036038101906103109190611f08565b610919565b005b610331600480360381019061032c9190611bc8565b61093e565b60405161033e9190611b70565b60405180910390f35b610361600480360381019061035c9190611f8b565b6109a7565b60405161036e9190611ac5565b60405180910390f35b610391600480360381019061038c9190611d10565b610a3b565b005b60007f80ac58cd000000000000000000000000000000000000000000000000000000007bffffffffffffffffffffffffffffffffffffffffffffffffffffffff1916827bffffffffffffffffffffffffffffffffffffffffffffffffffffffff1916148061045e57507f5b5e139f000000000000000000000000000000000000000000000000000000007bffffffffffffffffffffffffffffffffffffffffffffffffffffffff1916827bffffffffffffffffffffffffffffffffffffffffffffffffffffffff1916145b8061046e575061046d82610ac1565b5b9050919050565b60606000805461048490611ffa565b80601f01602080910402602001604051908101604052809291908181526020018280546104b090611ffa565b80156104fd5780601f106104d2576101008083540402835291602001916104fd565b820191906000526020600020905b8154815290600101906020018083116104e057829003601f168201915b5050505050905090565b600061051282610b2b565b5061051c82610bb3565b9050919050565b6105358282610530610bf0565b610bf8565b5050565b600073ffffffffffffffffffffffffffffffffffffffff168273ffffffffffffffffffffffffffffffffffffffff16036105ab5760006040517f64a0ae920000000000000000000000000000000000000000000000000000000081526004016105a29190611c36565b60405180910390fd5b60006105bf83836105ba610bf0565b610c0a565b90508373ffffffffffffffffffffffffffffffffffffffff168173ffffffffffffffffffffffffffffffffffffffff1614610635578382826040517f64283d7b00000000000000000000000000000000000000000000000000000000815260040161062c9392919061202b565b60405180910390fd5b50505050565b61065683838360405180602001604052806000815250610919565b505050565b3373ffffffffffffffffffffffffffffffffffffffff1661067b82610734565b73ffffffffffffffffffffffffffffffffffffffff1614806106d057503373ffffffffffffffffffffffffffffffffffffffff166106b882610507565b73ffffffffffffffffffffffffffffffffffffffff16145b806106e957506106e86106e282610734565b336109a7565b5b610728576040517f08c379a000000000000000000000000000000000000000000000000000000000815260040161071f906120ae565b60405180910390fd5b61073181610e24565b50565b600061073f82610b2b565b9050919050565b600080600754905060076000815480929190610761906120fd565b91905055506107708382610eaa565b80915050919050565b60008073ffffffffffffffffffffffffffffffffffffffff168273ffffffffffffffffffffffffffffffffffffffff16036107ec5760006040517f89c62b640000000000000000000000000000000000000000000000000000000081526004016107e39190611c36565b60405180910390fd5b600360008373ffffffffffffffffffffffffffffffffffffffff1673ffffffffffffffffffffffffffffffffffffffff168152602001908152602001600020549050919050565b61083b610ec8565b6108456000610f4f565b565b6000600660009054906101000a900473ffffffffffffffffffffffffffffffffffffffff16905090565b60606001805461088090611ffa565b80601f01602080910402602001604051908101604052809291908181526020018280546108ac90611ffa565b80156108f95780601f106108ce576101008083540402835291602001916108f9565b820191906000526020600020905b8154815290600101906020018083116108dc57829003601f168201915b5050505050905090565b61091561090e610bf0565b8383611015565b5050565b610924848484610539565b61093861092f610bf0565b85858585611184565b50505050565b606061094982610b2b565b506000610954611335565b90506000815111610974576040518060200160405280600081525061099f565b8061097e8461134c565b60405160200161098f929190612181565b6040516020818303038152906040525b915050919050565b6000600560008473ffffffffffffffffffffffffffffffffffffffff1673ffffffffffffffffffffffffffffffffffffffff16815260200190815260200160002060008373ffffffffffffffffffffffffffffffffffffffff1673ffffffffffffffffffffffffffffffffffffffff16815260200190815260200160002060009054906101000a900460ff16905092915050565b610a43610ec8565b600073ffffffffffffffffffffffffffffffffffffffff168173ffffffffffffffffffffffffffffffffffffffff1603610ab55760006040517f1e4fbdf7000000000000000000000000000000000000000000000000000000008152600401610aac9190611c36565b60405180910390fd5b610abe81610f4f565b50565b60007f01ffc9a7000000000000000000000000000000000000000000000000000000007bffffffffffffffffffffffffffffffffffffffffffffffffffffffff1916827bffffffffffffffffffffffffffffffffffffffffffffffffffffffff1916149050919050565b600080610b378361141a565b9050600073ffffffffffffffffffffffffffffffffffffffff168173ffffffffffffffffffffffffffffffffffffffff1603610baa57826040517f7e273289000000000000000000000000000000000000000000000000000000008152600401610ba19190611d4c565b60405180910390fd5b80915050919050565b60006004600083815260200190815260200160002060009054906101000a900473ffffffffffffffffffffffffffffffffffffffff169050919050565b600033905090565b610c058383836001611457565b505050565b600080610c168461141a565b9050600073ffffffffffffffffffffffffffffffffffffffff168373ffffffffffffffffffffffffffffffffffffffff1614610c5857610c5781848661161c565b5b600073ffffffffffffffffffffffffffffffffffffffff168173ffffffffffffffffffffffffffffffffffffffff1614610ce957610c9a600085600080611457565b6001600360008373ffffffffffffffffffffffffffffffffffffffff1673ffffffffffffffffffffffffffffffffffffffff168152602001908152602001600020600082825403925050819055505b600073ffffffffffffffffffffffffffffffffffffffff168573ffffffffffffffffffffffffffffffffffffffff1614610d6c576001600360008773ffffffffffffffffffffffffffffffffffffffff1673ffffffffffffffffffffffffffffffffffffffff168152602001908152602001600020600082825401925050819055505b846002600086815260200190815260200160002060006101000a81548173ffffffffffffffffffffffffffffffffffffffff021916908373ffffffffffffffffffffffffffffffffffffffff160217905550838573ffffffffffffffffffffffffffffffffffffffff168273ffffffffffffffffffffffffffffffffffffffff167fddf252ad1be2c89b69c2b068fc378daa952ba7f163c4a11628f55a4df523b3ef60405160405180910390a4809150509392505050565b6000610e336000836000610c0a565b9050600073ffffffffffffffffffffffffffffffffffffffff168173ffffffffffffffffffffffffffffffffffffffff1603610ea657816040517f7e273289000000000000000000000000000000000000000000000000000000008152600401610e9d9190611d4c565b60405180910390fd5b5050565b610ec48282604051806020016040528060008152506116e0565b5050565b610ed0610bf0565b73ffffffffffffffffffffffffffffffffffffffff16610eee610847565b73ffffffffffffffffffffffffffffffffffffffff1614610f4d57610f11610bf0565b6040517f118cdaa7000000000000000000000000000000000000000000000000000000008152600401610f449190611c36565b60405180910390fd5b565b6000600660009054906101000a900473ffffffffffffffffffffffffffffffffffffffff16905081600660006101000a81548173ffffffffffffffffffffffffffffffffffffffff021916908373ffffffffffffffffffffffffffffffffffffffff1602179055508173ffffffffffffffffffffffffffffffffffffffff168173ffffffffffffffffffffffffffffffffffffffff167f8be0079c531659141344cd1fd0a4f28419497f9722a3daafe3b4186f6b6457e060405160405180910390a35050565b600073ffffffffffffffffffffffffffffffffffffffff168273ffffffffffffffffffffffffffffffffffffffff160361108657816040517f5b08ba1800000000000000000000000000000000000000000000000000000000815260040161107d9190611c36565b60405180910390fd5b80600560008573ffffffffffffffffffffffffffffffffffffffff1673ffffffffffffffffffffffffffffffffffffffff16815260200190815260200160002060008473ffffffffffffffffffffffffffffffffffffffff1673ffffffffffffffffffffffffffffffffffffffff16815260200190815260200160002060006101000a81548160ff0219169083151502179055508173ffffffffffffffffffffffffffffffffffffffff168373ffffffffffffffffffffffffffffffffffffffff167f17307eab39ab6107e8899845ad3d59bd9653f200f220920489ca2b5937696c31836040516111779190611ac5565b60405180910390a3505050565b60008373ffffffffffffffffffffffffffffffffffffffff163b111561132e578273ffffffffffffffffffffffffffffffffffffffff1663150b7a02868685856040518563ffffffff1660e01b81526004016111e394939291906121fa565b6020604051808303816000875af192505050801561121f57506040513d601f19601f8201168201806040525081019061121c919061225b565b60015b6112a3573d806000811461124f576040519150601f19603f3d011682016040523d82523d6000602084013e611254565b606091505b50600081510361129b57836040517f64a0ae920000000000000000000000000000000000000000000000000000000081526004016112929190611c36565b60405180910390fd5b805181602001fd5b63150b7a0260e01b7bffffffffffffffffffffffffffffffffffffffffffffffffffffffff1916817bffffffffffffffffffffffffffffffffffffffffffffffffffffffff19161461132c57836040517f64a0ae920000000000000000000000000000000000000000000000000000000081526004016113239190611c36565b60405180910390fd5b505b5050505050565b606060405180602001604052806000815250905090565b60606000600161135b84611704565b01905060008167ffffffffffffffff81111561137a57611379611ddd565b5b6040519080825280601f01601f1916602001820160405280156113ac5781602001600182028036833780820191505090505b509050600082602001820190505b60011561140f578080600190039150507f3031323334353637383961626364656600000000000000000000000000000000600a86061a8153600a858161140357611402612288565b5b049450600085036113ba575b819350505050919050565b60006002600083815260200190815260200160002060009054906101000a900473ffffffffffffffffffffffffffffffffffffffff169050919050565b80806114905750600073ffffffffffffffffffffffffffffffffffffffff168273ffffffffffffffffffffffffffffffffffffffff1614155b156115c45760006114a084610b2b565b9050600073ffffffffffffffffffffffffffffffffffffffff168373ffffffffffffffffffffffffffffffffffffffff161415801561150b57508273ffffffffffffffffffffffffffffffffffffffff168173ffffffffffffffffffffffffffffffffffffffff1614155b801561151e575061151c81846109a7565b155b1561156057826040517fa9fbf51f0000000000000000000000000000000000000000000000000000000081526004016115579190611c36565b60405180910390fd5b81156115c257838573ffffffffffffffffffffffffffffffffffffffff168273ffffffffffffffffffffffffffffffffffffffff167f8c5be1e5ebec7d5bd14f71427d1e84f3dd0314c0f7b2291e5b200ac8c7c3b92560405160405180910390a45b505b836004600085815260200190815260200160002060006101000a81548173ffffffffffffffffffffffffffffffffffffffff021916908373ffffffffffffffffffffffffffffffffffffffff16021790555050505050565b611627838383611857565b6116db57600073ffffffffffffffffffffffffffffffffffffffff168373ffffffffffffffffffffffffffffffffffffffff160361169c57806040517f7e2732890000000000000000000000000000000000000000000000000000000081526004016116939190611d4c565b60405180910390fd5b81816040517f177e802f0000000000000000000000000000000000000000000000000000000081526004016116d29291906122b7565b60405180910390fd5b505050565b6116ea8383611918565b6116ff6116f5610bf0565b6000858585611184565b505050565b600080600090507a184f03e93ff9f4daa797ed6e38ed64bf6a1f0100000000000000008310611762577a184f03e93ff9f4daa797ed6e38ed64bf6a1f010000000000000000838161175857611757612288565b5b0492506040810190505b6d04ee2d6d415b85acef8100000000831061179f576d04ee2d6d415b85acef8100000000838161179557611794612288565b5b0492506020810190505b662386f26fc1000083106117ce57662386f26fc1000083816117c4576117c3612288565b5b0492506010810190505b6305f5e10083106117f7576305f5e10083816117ed576117ec612288565b5b0492506008810190505b612710831061181c57612710838161181257611811612288565b5b0492506004810190505b6064831061183f576064838161183557611834612288565b5b0492506002810190505b600a831061184e576001810190505b80915050919050565b60008073ffffffffffffffffffffffffffffffffffffffff168373ffffffffffffffffffffffffffffffffffffffff161415801561190f57508273ffffffffffffffffffffffffffffffffffffffff168473ffffffffffffffffffffffffffffffffffffffff1614806118d057506118cf84846109a7565b5b8061190e57508273ffffffffffffffffffffffffffffffffffffffff166118f683610bb3565b73ffffffffffffffffffffffffffffffffffffffff16145b5b90509392505050565b600073ffffffffffffffffffffffffffffffffffffffff168273ffffffffffffffffffffffffffffffffffffffff160361198a5760006040517f64a0ae920000000000000000000000000000000000000000000000000000000081526004016119819190611c36565b60405180910390fd5b600061199883836000610c0a565b9050600073ffffffffffffffffffffffffffffffffffffffff168173ffffffffffffffffffffffffffffffffffffffff1614611a0c5760006040517f73c6ac6e000000000000000000000000000000000000000000000000000000008152600401611a039190611c36565b60405180910390fd5b505050565b6000604051905090565b600080fd5b600080fd5b60007fffffffff0000000000000000000000000000000000000000000000000000000082169050919050565b611a5a81611a25565b8114611a6557600080fd5b50565b600081359050611a7781611a51565b92915050565b600060208284031215611a9357611a92611a1b565b5b6000611aa184828501611a68565b91505092915050565b60008115159050919050565b611abf81611aaa565b82525050565b6000602082019050611ada6000830184611ab6565b92915050565b600081519050919050565b600082825260208201905092915050565b60005b83811015611b1a578082015181840152602081019050611aff565b60008484015250505050565b6000601f19601f8301169050919050565b6000611b4282611ae0565b611b4c8185611aeb565b9350611b5c818560208601611afc565b611b6581611b26565b840191505092915050565b60006020820190508181036000830152611b8a8184611b37565b905092915050565b6000819050919050565b611ba581611b92565b8114611bb057600080fd5b50565b600081359050611bc281611b9c565b92915050565b600060208284031215611bde57611bdd611a1b565b5b6000611bec84828501611bb3565b91505092915050565b600073ffffffffffffffffffffffffffffffffffffffff82169050919050565b6000611c2082611bf5565b9050919050565b611c3081611c15565b82525050565b6000602082019050611c4b6000830184611c27565b92915050565b611c5a81611c15565b8114611c6557600080fd5b50565b600081359050611c7781611c51565b92915050565b60008060408385031215611c9457611c93611a1b565b5b6000611ca285828601611c68565b9250506020611cb385828601611bb3565b9150509250929050565b600080600060608486031215611cd657611cd5611a1b565b5b6000611ce486828701611c68565b9350506020611cf586828701611c68565b9250506040611d0686828701611bb3565b9150509250925092565b600060208284031215611d2657611d25611a1b565b5b6000611d3484828501611c68565b91505092915050565b611d4681611b92565b82525050565b6000602082019050611d616000830184611d3d565b92915050565b611d7081611aaa565b8114611d7b57600080fd5b50565b600081359050611d8d81611d67565b92915050565b60008060408385031215611daa57611da9611a1b565b5b6000611db885828601611c68565b9250506020611dc985828601611d7e565b9150509250929050565b600080fd5b600080fd5b7f4e487b7100000000000000000000000000000000000000000000000000000000600052604160045260246000fd5b611e1582611b26565b810181811067ffffffffffffffff82111715611e3457611e33611ddd565b5b80604052505050565b6000611e47611a11565b9050611e538282611e0c565b919050565b600067ffffffffffffffff821115611e7357611e72611ddd565b5b611e7c82611b26565b9050602081019050919050565b82818337600083830152505050565b6000611eab611ea684611e58565b611e3d565b905082815260208101848484011115611ec757611ec6611dd8565b5b611ed2848285611e89565b509392505050565b600082601f830112611eef57611eee611dd3565b5b8135611eff848260208601611e98565b91505092915050565b60008060008060808587031215611f2257611f21611a1b565b5b6000611f3087828801611c68565b9450506020611f4187828801611c68565b9350506040611f5287828801611bb3565b925050606085013567ffffffffffffffff811115611f7357611f72611a20565b5b611f7f87828801611eda565b91505092959194509250565b60008060408385031215611fa257611fa1611a1b565b5b6000611fb085828601611c68565b9250506020611fc185828601611c68565b9150509250929050565b7f4e487b7100000000000000000000000000000000000000000000000000000000600052602260045260246000fd5b6000600282049050600182168061201257607f821691505b60208210810361202557612024611fcb565b5b50919050565b60006060820190506120406000830186611c27565b61204d6020830185611d3d565b61205a6040830184611c27565b949350505050565b7f4e6f7420617070726f766564206f72206f776e65720000000000000000000000600082015250565b6000612098601583611aeb565b91506120a382612062565b602082019050919050565b600060208201905081810360008301526120c78161208b565b9050919050565b7f4e487b7100000000000000000000000000000000000000000000000000000000600052601160045260246000fd5b600061210882611b92565b91507fffffffffffffffffffffffffffffffffffffffffffffffffffffffffffffffff820361213a576121396120ce565b5b600182019050919050565b600081905092915050565b600061215b82611ae0565b6121658185612145565b9350612175818560208601611afc565b80840191505092915050565b600061218d8285612150565b91506121998284612150565b91508190509392505050565b600081519050919050565b600082825260208201905092915050565b60006121cc826121a5565b6121d681856121b0565b93506121e6818560208601611afc565b6121ef81611b26565b840191505092915050565b600060808201905061220f6000830187611c27565b61221c6020830186611c27565b6122296040830185611d3d565b818103606083015261223b81846121c1565b905095945050505050565b60008151905061225581611a51565b92915050565b60006020828403121561227157612270611a1b565b5b600061227f84828501612246565b91505092915050565b7f4e487b7100000000000000000000000000000000000000000000000000000000600052601260045260246000fd5b60006040820190506122cc6000830185611c27565b6122d96020830184611d3d565b939250505056fea2646970667358221220be0e4b7ed22fbe87e15b58155006a94ae6e2463a426320828f5ff8eadd48f57464736f6c63430008140033",
  "linkReferences": {},
  "deployedLinkReferences": {}
}