{
  "_format": "hh-sol-artifact-1",
  "contractName": "BridgeSepolia",
  "sourceName": "contracts/BridgeSepolia.sol",
  "abi": [
    {
      "inputs": [
        {
          "internalType": "address",
          "name": "_wrappedToken",
          "type": "address"
        },
        {
          "internalType": "address",
          "name": "owner",
          "type": "address"
        }
      ],
      "stateMutability": "nonpayable",
      "type": "constructor"
    },
    {
      "inputs": [
        {
          "internalType": "address",
          "name": "owner",
          "type": "address"
        }
      ],
      "name": "OwnableInvalidOwner",
      "type": "error"
    },
    {
      "inputs": [
        {
          "internalType": "address",
          "name": "account",
          "type": "address"
        }
      ],
      "name": "OwnableUnauthorizedAccount",
      "type": "error"
    },
    {
      "anonymous": false,
      "inputs": [
        {
          "indexed": true,
          "internalType": "address",
          "name": "user",
          "type": "address"
        },
        {
          "indexed": false,
          "internalType": "uint256",
          "name": "amount",
          "type": "uint256"
        }
      ],
      "name": "Burned",
      "type": "event"
    },
    {
      "anonymous": false,
      "inputs": [
        {
          "indexed": true,
          "internalType": "address",
          "name": "previousOwner",
          "type": "address"
        },
        {
          "indexed": true,
          "internalType": "address",
          "name": "newOwner",
          "type": "address"
        }
      ],
      "name": "OwnershipTransferred",
      "type": "event"
    },
    {
      "anonymous": false,
      "inputs": [
        {
          "indexed": true,
          "internalType": "address",
          "name": "user",
          "type": "address"
        },
        {
          "indexed": false,
          "internalType": "uint256",
          "name": "amount",
          "type": "uint256"
        }
      ],
      "name": "Released",
      "type": "event"
    },
    {
      "inputs": [
        {
          "internalType": "uint256",
          "name": "amount",
          "type": "uint256"
        }
      ],
      "name": "burn",
      "outputs": [],
      "stateMutability": "nonpayable",
      "type": "function"
    },
    {
      "inputs": [],
      "name": "owner",
      "outputs": [
        {
          "internalType": "address",
          "name": "",
          "type": "address"
        }
      ],
      "stateMutability": "view",
      "type": "function"
    },
    {
      "inputs": [
        {
          "internalType": "address",
          "name": "user",
          "type": "address"
        },
        {
          "internalType": "uint256",
          "name": "amount",
          "type": "uint256"
        }
      ],
      "name": "release",
      "outputs": [],
      "stateMutability": "nonpayable",
      "type": "function"
    },
    {
      "inputs": [],
      "name": "remoteBridge",
      "outputs": [
        {
          "internalType": "address",
          "name": "",
          "type": "address"
        }
      ],
      "stateMutability": "view",
      "type": "function"
    },
    {
      "inputs": [],
      "name": "renounceOwnership",
      "outputs": [],
      "stateMutability": "nonpayable",
      "type": "function"
    },
    {
      "inputs": [
        {
          "internalType": "address",
          "name": "_remoteBridge",
          "type": "address"
        }
      ],
      "name": "setRemoteBridge",
      "outputs": [],
      "stateMutability": "nonpayable",
      "type": "function"
    },
    {
      "inputs": [
        {
          "internalType": "address",
          "name": "newOwner",
          "type": "address"
        }
      ],
      "name": "transferOwnership",
      "outputs": [],
      "stateMutability": "nonpayable",
      "type": "function"
    },
    {
      "inputs": [],
      "name": "wrappedToken",
      "outputs": [
        {
          "internalType": "contract IERC20Mintable",
          "name": "",
          "type": "address"
        }
      ],
      "stateMutability": "view",
      "type": "function"
    }
  ],
  "bytecode": "0x60806040523480156200001157600080fd5b5060405162000ced38038062000ced833981810160405281019062000037919062000236565b80600073ffffffffffffffffffffffffffffffffffffffff168173ffffffffffffffffffffffffffffffffffffffff1603620000ad5760006040517f1e4fbdf7000000000000000000000000000000000000000000000000000000008152600401620000a491906200028e565b60405180910390fd5b620000be816200010860201b60201c565b5081600160006101000a81548173ffffffffffffffffffffffffffffffffffffffff021916908373ffffffffffffffffffffffffffffffffffffffff1602179055505050620002ab565b60008060009054906101000a900473ffffffffffffffffffffffffffffffffffffffff169050816000806101000a81548173ffffffffffffffffffffffffffffffffffffffff021916908373ffffffffffffffffffffffffffffffffffffffff1602179055508173ffffffffffffffffffffffffffffffffffffffff168173ffffffffffffffffffffffffffffffffffffffff167f8be0079c531659141344cd1fd0a4f28419497f9722a3daafe3b4186f6b6457e060405160405180910390a35050565b600080fd5b600073ffffffffffffffffffffffffffffffffffffffff82169050919050565b6000620001fe82620001d1565b9050919050565b6200021081620001f1565b81146200021c57600080fd5b50565b600081519050620002308162000205565b92915050565b6000806040838503121562000250576200024f620001cc565b5b600062000260858286016200021f565b925050602062000273858286016200021f565b9150509250929050565b6200028881620001f1565b82525050565b6000602082019050620002a560008301846200027d565b92915050565b610a3280620002bb6000396000f3fe608060405234801561001057600080fd5b50600436106100885760003560e01c80638da5cb5b1161005b5780638da5cb5b146100eb578063996c6cc314610109578063c97123bb14610127578063f2fde38b1461014557610088565b80630357371d1461008d57806316ce8149146100a957806342966c68146100c5578063715018a6146100e1575b600080fd5b6100a760048036038101906100a29190610752565b610161565b005b6100c360048036038101906100be9190610792565b61024a565b005b6100df60048036038101906100da91906107bf565b610296565b005b6100e9610457565b005b6100f361046b565b60405161010091906107fb565b60405180910390f35b610111610494565b60405161011e9190610875565b60405180910390f35b61012f6104ba565b60405161013c91906107fb565b60405180910390f35b61015f600480360381019061015a9190610792565b6104e0565b005b610169610566565b600160009054906101000a900473ffffffffffffffffffffffffffffffffffffffff1673ffffffffffffffffffffffffffffffffffffffff166340c10f1983836040518363ffffffff1660e01b81526004016101c692919061089f565b600060405180830381600087803b1580156101e057600080fd5b505af11580156101f4573d6000803e3d6000fd5b505050508173ffffffffffffffffffffffffffffffffffffffff167fb21fb52d5749b80f3182f8c6992236b5e5576681880914484d7f4c9b062e619e8260405161023e91906108c8565b60405180910390a25050565b610252610566565b80600260006101000a81548173ffffffffffffffffffffffffffffffffffffffff021916908373ffffffffffffffffffffffffffffffffffffffff16021790555050565b600160009054906101000a900473ffffffffffffffffffffffffffffffffffffffff1673ffffffffffffffffffffffffffffffffffffffff166323b872dd3330846040518463ffffffff1660e01b81526004016102f5939291906108e3565b6020604051808303816000875af1158015610314573d6000803e3d6000fd5b505050506040513d601f19601f820116820180604052508101906103389190610952565b610377576040517f08c379a000000000000000000000000000000000000000000000000000000000815260040161036e906109dc565b60405180910390fd5b600160009054906101000a900473ffffffffffffffffffffffffffffffffffffffff1673ffffffffffffffffffffffffffffffffffffffff16639dc29fac30836040518363ffffffff1660e01b81526004016103d492919061089f565b600060405180830381600087803b1580156103ee57600080fd5b505af1158015610402573d6000803e3d6000fd5b505050503373ffffffffffffffffffffffffffffffffffffffff167f696de425f79f4a40bc6d2122ca50507f0efbeabbff86a84871b7196ab8ea8df78260405161044c91906108c8565b60405180910390a250565b61045f610566565b61046960006105ed565b565b60008060009054906101000a900473ffffffffffffffffffffffffffffffffffffffff16905090565b600160009054906101000a900473ffffffffffffffffffffffffffffffffffffffff1681565b600260009054906101000a900473ffffffffffffffffffffffffffffffffffffffff1681565b6104e8610566565b600073ffffffffffffffffffffffffffffffffffffffff168173ffffffffffffffffffffffffffffffffffffffff160361055a5760006040517f1e4fbdf700000000000000000000000000000000000000000000000000000000815260040161055191906107fb565b60405180910390fd5b610563816105ed565b50565b61056e6106b1565b73ffffffffffffffffffffffffffffffffffffffff1661058c61046b565b73ffffffffffffffffffffffffffffffffffffffff16146105eb576105af6106b1565b6040517f118cdaa70000000000000000000000000000000000000000000000000000000081526004016105e291906107fb565b60405180910390fd5b565b60008060009054906101000a900473ffffffffffffffffffffffffffffffffffffffff169050816000806101000a81548173ffffffffffffffffffffffffffffffffffffffff021916908373ffffffffffffffffffffffffffffffffffffffff1602179055508173ffffffffffffffffffffffffffffffffffffffff168173ffffffffffffffffffffffffffffffffffffffff167f8be0079c531659141344cd1fd0a4f28419497f9722a3daafe3b4186f6b6457e060405160405180910390a35050565b600033905090565b600080fd5b600073ffffffffffffffffffffffffffffffffffffffff82169050919050565b60006106e9826106be565b9050919050565b6106f9816106de565b811461070457600080fd5b50565b600081359050610716816106f0565b92915050565b6000819050919050565b61072f8161071c565b811461073a57600080fd5b50565b60008135905061074c81610726565b92915050565b60008060408385031215610769576107686106b9565b5b600061077785828601610707565b92505060206107888582860161073d565b9150509250929050565b6000602082840312156107a8576107a76106b9565b5b60006107b684828501610707565b91505092915050565b6000602082840312156107d5576107d46106b9565b5b60006107e38482850161073d565b91505092915050565b6107f5816106de565b82525050565b600060208201905061081060008301846107ec565b92915050565b6000819050919050565b600061083b610836610831846106be565b610816565b6106be565b9050919050565b600061084d82610820565b9050919050565b600061085f82610842565b9050919050565b61086f81610854565b82525050565b600060208201905061088a6000830184610866565b92915050565b6108998161071c565b82525050565b60006040820190506108b460008301856107ec565b6108c16020830184610890565b9392505050565b60006020820190506108dd6000830184610890565b92915050565b60006060820190506108f860008301866107ec565b61090560208301856107ec565b6109126040830184610890565b949350505050565b60008115159050919050565b61092f8161091a565b811461093a57600080fd5b50565b60008151905061094c81610926565b92915050565b600060208284031215610968576109676106b9565b5b60006109768482850161093d565b91505092915050565b600082825260208201905092915050565b7f5472616e73666572206661696c65640000000000000000000000000000000000600082015250565b60006109c6600f8361097f565b91506109d182610990565b602082019050919050565b600060208201905081810360008301526109f5816109b9565b905091905056fea2646970667358221220327baa3f484626f2dd7f9ce6f3ba574e5bbf33e40344973bef2b30032eccb93c64736f6c63430008140033",
  "linkReferences": {},
  "deployedLinkReferences": {}
}