{
  "_format": "hh-sol-artifact-1",
  "contractName": "BridgeAmoyNFT",
  "sourceName": "contracts/BridgeAmoyNFT.sol",
  "abi": [
    {
      "inputs": [
        {
          "internalType": "address",
          "name": "_nativeNFT",
          "type": "address"
        },
        {
          "internalType": "address",
          "name": "owner",
          "type": "address"
        }
      ],
      "stateMutability": "nonpayable",
      "type": "constructor"
    },
    {
      "inputs": [
        {
          "internalType": "address",
          "name": "owner",
          "type": "address"
        }
      ],
      "name": "OwnableInvalidOwner",
      "type": "error"
    },
    {
      "inputs": [
        {
          "internalType": "address",
          "name": "account",
          "type": "address"
        }
      ],
      "name": "OwnableUnauthorizedAccount",
      "type": "error"
    },
    {
      "anonymous": false,
      "inputs": [
        {
          "indexed": true,
          "internalType": "address",
          "name": "user",
          "type": "address"
        },
        {
          "indexed": false,
          "internalType": "uint256",
          "name": "tokenId",
          "type": "uint256"
        }
      ],
      "name": "Locked",
      "type": "event"
    },
    {
      "anonymous": false,
      "inputs": [
        {
          "indexed": true,
          "internalType": "address",
          "name": "to",
          "type": "address"
        },
        {
          "indexed": false,
          "internalType": "uint256",
          "name": "tokenId",
          "type": "uint256"
        }
      ],
      "name": "Minted",
      "type": "event"
    },
    {
      "anonymous": false,
      "inputs": [
        {
          "indexed": true,
          "internalType": "address",
          "name": "previousOwner",
          "type": "address"
        },
        {
          "indexed": true,
          "internalType": "address",
          "name": "newOwner",
          "type": "address"
        }
      ],
      "name": "OwnershipTransferred",
      "type": "event"
    },
    {
      "anonymous": false,
      "inputs": [
        {
          "indexed": true,
          "internalType": "address",
          "name": "user",
          "type": "address"
        },
        {
          "indexed": false,
          "internalType": "uint256",
          "name": "tokenId",
          "type": "uint256"
        }
      ],
      "name": "Unlocked",
      "type": "event"
    },
    {
      "inputs": [
        {
          "internalType": "uint256",
          "name": "tokenId",
          "type": "uint256"
        }
      ],
      "name": "lock",
      "outputs": [],
      "stateMutability": "nonpayable",
      "type": "function"
    },
    {
      "inputs": [
        {
          "internalType": "uint256",
          "name": "",
          "type": "uint256"
        }
      ],
      "name": "lockedTokens",
      "outputs": [
        {
          "internalType": "bool",
          "name": "",
          "type": "bool"
        }
      ],
      "stateMutability": "view",
      "type": "function"
    },
    {
      "inputs": [
        {
          "internalType": "address",
          "name": "to",
          "type": "address"
        }
      ],
      "name": "mint",
      "outputs": [
        {
          "internalType": "uint256",
          "name": "",
          "type": "uint256"
        }
      ],
      "stateMutability": "nonpayable",
      "type": "function"
    },
    {
      "inputs": [],
      "name": "nativeNFT",
      "outputs": [
        {
          "internalType": "contract IERC721Mintable",
          "name": "",
          "type": "address"
        }
      ],
      "stateMutability": "view",
      "type": "function"
    },
    {
      "inputs": [],
      "name": "owner",
      "outputs": [
        {
          "internalType": "address",
          "name": "",
          "type": "address"
        }
      ],
      "stateMutability": "view",
      "type": "function"
    },
    {
      "inputs": [],
      "name": "remoteBridge",
      "outputs": [
        {
          "internalType": "address",
          "name": "",
          "type": "address"
        }
      ],
      "stateMutability": "view",
      "type": "function"
    },
    {
      "inputs": [],
      "name": "renounceOwnership",
      "outputs": [],
      "stateMutability": "nonpayable",
      "type": "function"
    },
    {
      "inputs": [
        {
          "internalType": "address",
          "name": "_remoteBridge",
          "type": "address"
        }
      ],
      "name": "setRemoteBridge",
      "outputs": [],
      "stateMutability": "nonpayable",
      "type": "function"
    },
    {
      "inputs": [
        {
          "internalType": "address",
          "name": "newOwner",
          "type": "address"
        }
      ],
      "name": "transferOwnership",
      "outputs": [],
      "stateMutability": "nonpayable",
      "type": "function"
    },
    {
      "inputs": [
        {
          "internalType": "address",
          "name": "user",
          "type": "address"
        },
        {
          "internalType": "uint256",
          "name": "tokenId",
          "type": "uint256"
        }
      ],
      "name": "unlock",
      "outputs": [],
      "stateMutability": "nonpayable",
      "type": "function"
    }
  ],
  "bytecode": "0x60806040523480156200001157600080fd5b50604051620010cf380380620010cf833981810160405281019062000037919062000236565b80600073ffffffffffffffffffffffffffffffffffffffff168173ffffffffffffffffffffffffffffffffffffffff1603620000ad5760006040517f1e4fbdf7000000000000000000000000000000000000000000000000000000008152600401620000a491906200028e565b60405180910390fd5b620000be816200010860201b60201c565b5081600160006101000a81548173ffffffffffffffffffffffffffffffffffffffff021916908373ffffffffffffffffffffffffffffffffffffffff1602179055505050620002ab565b60008060009054906101000a900473ffffffffffffffffffffffffffffffffffffffff169050816000806101000a81548173ffffffffffffffffffffffffffffffffffffffff021916908373ffffffffffffffffffffffffffffffffffffffff1602179055508173ffffffffffffffffffffffffffffffffffffffff168173ffffffffffffffffffffffffffffffffffffffff167f8be0079c531659141344cd1fd0a4f28419497f9722a3daafe3b4186f6b6457e060405160405180910390a35050565b600080fd5b600073ffffffffffffffffffffffffffffffffffffffff82169050919050565b6000620001fe82620001d1565b9050919050565b6200021081620001f1565b81146200021c57600080fd5b50565b600081519050620002308162000205565b92915050565b6000806040838503121562000250576200024f620001cc565b5b600062000260858286016200021f565b925050602062000273858286016200021f565b9150509250929050565b6200028881620001f1565b82525050565b6000602082019050620002a560008301846200027d565b92915050565b610e1480620002bb6000396000f3fe608060405234801561001057600080fd5b506004361061009e5760003560e01c80638f38ed10116100665780638f38ed1014610133578063c97123bb14610151578063dcec32941461016f578063dd4670641461019f578063f2fde38b146101bb5761009e565b806316ce8149146100a35780636a627842146100bf578063715018a6146100ef5780637eee288d146100f95780638da5cb5b14610115575b600080fd5b6100bd60048036038101906100b891906109fa565b6101d7565b005b6100d960048036038101906100d491906109fa565b610223565b6040516100e69190610a40565b60405180910390f35b6100f7610326565b005b610113600480360381019061010e9190610a87565b61033a565b005b61011d6104b1565b60405161012a9190610ad6565b60405180910390f35b61013b6104da565b6040516101489190610b50565b60405180910390f35b610159610500565b6040516101669190610ad6565b60405180910390f35b61018960048036038101906101849190610b6b565b610526565b6040516101969190610bb3565b60405180910390f35b6101b960048036038101906101b49190610b6b565b610546565b005b6101d560048036038101906101d091906109fa565b6107be565b005b6101df610844565b80600260006101000a81548173ffffffffffffffffffffffffffffffffffffffff021916908373ffffffffffffffffffffffffffffffffffffffff16021790555050565b600061022d610844565b6000600160009054906101000a900473ffffffffffffffffffffffffffffffffffffffff1673ffffffffffffffffffffffffffffffffffffffff16636a627842846040518263ffffffff1660e01b815260040161028a9190610ad6565b6020604051808303816000875af11580156102a9573d6000803e3d6000fd5b505050506040513d601f19601f820116820180604052508101906102cd9190610be3565b90508273ffffffffffffffffffffffffffffffffffffffff167f30385c845b448a36257a6a1716e6ad2e1bc2cbe333cde1e69fe849ad6511adfe826040516103159190610a40565b60405180910390a280915050919050565b61032e610844565b61033860006108cb565b565b610342610844565b6003600082815260200190815260200160002060009054906101000a900460ff166103a2576040517f08c379a000000000000000000000000000000000000000000000000000000000815260040161039990610c6d565b60405180910390fd5b60006003600083815260200190815260200160002060006101000a81548160ff021916908315150217905550600160009054906101000a900473ffffffffffffffffffffffffffffffffffffffff1673ffffffffffffffffffffffffffffffffffffffff166323b872dd3084846040518463ffffffff1660e01b815260040161042d93929190610c8d565b600060405180830381600087803b15801561044757600080fd5b505af115801561045b573d6000803e3d6000fd5b505050508173ffffffffffffffffffffffffffffffffffffffff167f0f0bc5b519ddefdd8e5f9e6423433aa2b869738de2ae34d58ebc796fc749fa0d826040516104a59190610a40565b60405180910390a25050565b60008060009054906101000a900473ffffffffffffffffffffffffffffffffffffffff16905090565b600160009054906101000a900473ffffffffffffffffffffffffffffffffffffffff1681565b600260009054906101000a900473ffffffffffffffffffffffffffffffffffffffff1681565b60036020528060005260406000206000915054906101000a900460ff1681565b6003600082815260200190815260200160002060009054906101000a900460ff16156105a7576040517f08c379a000000000000000000000000000000000000000000000000000000000815260040161059e90610d10565b60405180910390fd5b3373ffffffffffffffffffffffffffffffffffffffff16600160009054906101000a900473ffffffffffffffffffffffffffffffffffffffff1673ffffffffffffffffffffffffffffffffffffffff16636352211e836040518263ffffffff1660e01b81526004016106199190610a40565b602060405180830381865afa158015610636573d6000803e3d6000fd5b505050506040513d601f19601f8201168201806040525081019061065a9190610d45565b73ffffffffffffffffffffffffffffffffffffffff16146106b0576040517f08c379a00000000000000000000000000000000000000000000000000000000081526004016106a790610dbe565b60405180910390fd5b600160009054906101000a900473ffffffffffffffffffffffffffffffffffffffff1673ffffffffffffffffffffffffffffffffffffffff166323b872dd3330846040518463ffffffff1660e01b815260040161070f93929190610c8d565b600060405180830381600087803b15801561072957600080fd5b505af115801561073d573d6000803e3d6000fd5b5050505060016003600083815260200190815260200160002060006101000a81548160ff0219169083151502179055503373ffffffffffffffffffffffffffffffffffffffff167f9f1ec8c880f76798e7b793325d625e9b60e4082a553c98f42b6cda368dd60008826040516107b39190610a40565b60405180910390a250565b6107c6610844565b600073ffffffffffffffffffffffffffffffffffffffff168173ffffffffffffffffffffffffffffffffffffffff16036108385760006040517f1e4fbdf700000000000000000000000000000000000000000000000000000000815260040161082f9190610ad6565b60405180910390fd5b610841816108cb565b50565b61084c61098f565b73ffffffffffffffffffffffffffffffffffffffff1661086a6104b1565b73ffffffffffffffffffffffffffffffffffffffff16146108c95761088d61098f565b6040517f118cdaa70000000000000000000000000000000000000000000000000000000081526004016108c09190610ad6565b60405180910390fd5b565b60008060009054906101000a900473ffffffffffffffffffffffffffffffffffffffff169050816000806101000a81548173ffffffffffffffffffffffffffffffffffffffff021916908373ffffffffffffffffffffffffffffffffffffffff1602179055508173ffffffffffffffffffffffffffffffffffffffff168173ffffffffffffffffffffffffffffffffffffffff167f8be0079c531659141344cd1fd0a4f28419497f9722a3daafe3b4186f6b6457e060405160405180910390a35050565b600033905090565b600080fd5b600073ffffffffffffffffffffffffffffffffffffffff82169050919050565b60006109c78261099c565b9050919050565b6109d7816109bc565b81146109e257600080fd5b50565b6000813590506109f4816109ce565b92915050565b600060208284031215610a1057610a0f610997565b5b6000610a1e848285016109e5565b91505092915050565b6000819050919050565b610a3a81610a27565b82525050565b6000602082019050610a556000830184610a31565b92915050565b610a6481610a27565b8114610a6f57600080fd5b50565b600081359050610a8181610a5b565b92915050565b60008060408385031215610a9e57610a9d610997565b5b6000610aac858286016109e5565b9250506020610abd85828601610a72565b9150509250929050565b610ad0816109bc565b82525050565b6000602082019050610aeb6000830184610ac7565b92915050565b6000819050919050565b6000610b16610b11610b0c8461099c565b610af1565b61099c565b9050919050565b6000610b2882610afb565b9050919050565b6000610b3a82610b1d565b9050919050565b610b4a81610b2f565b82525050565b6000602082019050610b656000830184610b41565b92915050565b600060208284031215610b8157610b80610997565b5b6000610b8f84828501610a72565b91505092915050565b60008115159050919050565b610bad81610b98565b82525050565b6000602082019050610bc86000830184610ba4565b92915050565b600081519050610bdd81610a5b565b92915050565b600060208284031215610bf957610bf8610997565b5b6000610c0784828501610bce565b91505092915050565b600082825260208201905092915050565b7f546f6b656e206e6f74206c6f636b656400000000000000000000000000000000600082015250565b6000610c57601083610c10565b9150610c6282610c21565b602082019050919050565b60006020820190508181036000830152610c8681610c4a565b9050919050565b6000606082019050610ca26000830186610ac7565b610caf6020830185610ac7565b610cbc6040830184610a31565b949350505050565b7f546f6b656e20616c7265616479206c6f636b6564000000000000000000000000600082015250565b6000610cfa601483610c10565b9150610d0582610cc4565b602082019050919050565b60006020820190508181036000830152610d2981610ced565b9050919050565b600081519050610d3f816109ce565b92915050565b600060208284031215610d5b57610d5a610997565b5b6000610d6984828501610d30565b91505092915050565b7f4e6f7420746f6b656e206f776e65720000000000000000000000000000000000600082015250565b6000610da8600f83610c10565b9150610db382610d72565b602082019050919050565b60006020820190508181036000830152610dd781610d9b565b905091905056fea26469706673582212203ad190d9ffc557e99dc8b2644245aab7153380bd65bde5c476ffbe6376a2591a64736f6c63430008140033",
  "linkReferences": {},
  "deployedLinkReferences": {}
}