{
  "_format": "hh-sol-artifact-1",
  "contractName": "WrappedToken",
  "sourceName": "contracts/WrappedToken.sol",
  "abi": [
    {
      "inputs": [
        {
          "internalType": "string",
          "name": "name",
          "type": "string"
        },
        {
          "internalType": "string",
          "name": "symbol",
          "type": "string"
        },
        {
          "internalType": "address",
          "name": "_originalToken",
          "type": "address"
        },
        {
          "internalType": "uint256",
          "name": "_originalChainId",
          "type": "uint256"
        }
      ],
      "stateMutability": "nonpayable",
      "type": "constructor"
    },
    {
      "inputs": [],
      "name": "AccessControlBadConfirmation",
      "type": "error"
    },
    {
      "inputs": [
        {
          "internalType": "address",
          "name": "account",
          "type": "address"
        },
        {
          "internalType": "bytes32",
          "name": "neededRole",
          "type": "bytes32"
        }
      ],
      "name": "AccessControlUnauthorizedAccount",
      "type": "error"
    },
    {
      "inputs": [
        {
          "internalType": "address",
          "name": "spender",
          "type": "address"
        },
        {
          "internalType": "uint256",
          "name": "allowance",
          "type": "uint256"
        },
        {
          "internalType": "uint256",
          "name": "needed",
          "type": "uint256"
        }
      ],
      "name": "ERC20InsufficientAllowance",
      "type": "error"
    },
    {
      "inputs": [
        {
          "internalType": "address",
          "name": "sender",
          "type": "address"
        },
        {
          "internalType": "uint256",
          "name": "balance",
          "type": "uint256"
        },
        {
          "internalType": "uint256",
          "name": "needed",
          "type": "uint256"
        }
      ],
      "name": "ERC20InsufficientBalance",
      "type": "error"
    },
    {
      "inputs": [
        {
          "internalType": "address",
          "name": "approver",
          "type": "address"
        }
      ],
      "name": "ERC20InvalidApprover",
      "type": "error"
    },
    {
      "inputs": [
        {
          "internalType": "address",
          "name": "receiver",
          "type": "address"
        }
      ],
      "name": "ERC20InvalidReceiver",
      "type": "error"
    },
    {
      "inputs": [
        {
          "internalType": "address",
          "name": "sender",
          "type": "address"
        }
      ],
      "name": "ERC20InvalidSender",
      "type": "error"
    },
    {
      "inputs": [
        {
          "internalType": "address",
          "name": "spender",
          "type": "address"
        }
      ],
      "name": "ERC20InvalidSpender",
      "type": "error"
    },
    {
      "inputs": [],
      "name": "EnforcedPause",
      "type": "error"
    },
    {
      "inputs": [],
      "name": "ExpectedPause",
      "type": "error"
    },
    {
      "anonymous": false,
      "inputs": [
        {
          "indexed": true,
          "internalType": "address",
          "name": "owner",
          "type": "address"
        },
        {
          "indexed": true,
          "internalType": "address",
          "name": "spender",
          "type": "address"
        },
        {
          "indexed": false,
          "internalType": "uint256",
          "name": "value",
          "type": "uint256"
        }
      ],
      "name": "Approval",
      "type": "event"
    },
    {
      "anonymous": false,
      "inputs": [
        {
          "indexed": false,
          "internalType": "address",
          "name": "account",
          "type": "address"
        }
      ],
      "name": "Paused",
      "type": "event"
    },
    {
      "anonymous": false,
      "inputs": [
        {
          "indexed": true,
          "internalType": "bytes32",
          "name": "role",
          "type": "bytes32"
        },
        {
          "indexed": true,
          "internalType": "bytes32",
          "name": "previousAdminRole",
          "type": "bytes32"
        },
        {
          "indexed": true,
          "internalType": "bytes32",
          "name": "newAdminRole",
          "type": "bytes32"
        }
      ],
      "name": "RoleAdminChanged",
      "type": "event"
    },
    {
      "anonymous": false,
      "inputs": [
        {
          "indexed": true,
          "internalType": "bytes32",
          "name": "role",
          "type": "bytes32"
        },
        {
          "indexed": true,
          "internalType": "address",
          "name": "account",
          "type": "address"
        },
        {
          "indexed": true,
          "internalType": "address",
          "name": "sender",
          "type": "address"
        }
      ],
      "name": "RoleGranted",
      "type": "event"
    },
    {
      "anonymous": false,
      "inputs": [
        {
          "indexed": true,
          "internalType": "bytes32",
          "name": "role",
          "type": "bytes32"
        },
        {
          "indexed": true,
          "internalType": "address",
          "name": "account",
          "type": "address"
        },
        {
          "indexed": true,
          "internalType": "address",
          "name": "sender",
          "type": "address"
        }
      ],
      "name": "RoleRevoked",
      "type": "event"
    },
    {
      "anonymous": false,
      "inputs": [
        {
          "indexed": true,
          "internalType": "address",
          "name": "from",
          "type": "address"
        },
        {
          "indexed": false,
          "internalType": "uint256",
          "name": "amount",
          "type": "uint256"
        }
      ],
      "name": "TokensBurned",
      "type": "event"
    },
    {
      "anonymous": false,
      "inputs": [
        {
          "indexed": true,
          "internalType": "address",
          "name": "to",
          "type": "address"
        },
        {
          "indexed": false,
          "internalType": "uint256",
          "name": "amount",
          "type": "uint256"
        }
      ],
      "name": "TokensMinted",
      "type": "event"
    },
    {
      "anonymous": false,
      "inputs": [
        {
          "indexed": true,
          "internalType": "address",
          "name": "from",
          "type": "address"
        },
        {
          "indexed": true,
          "internalType": "address",
          "name": "to",
          "type": "address"
        },
        {
          "indexed": false,
          "internalType": "uint256",
          "name": "value",
          "type": "uint256"
        }
      ],
      "name": "Transfer",
      "type": "event"
    },
    {
      "anonymous": false,
      "inputs": [
        {
          "indexed": false,
          "internalType": "address",
          "name": "account",
          "type": "address"
        }
      ],
      "name": "Unpaused",
      "type": "event"
    },
    {
      "inputs": [],
      "name": "BURNER_ROLE",
      "outputs": [
        {
          "internalType": "bytes32",
          "name": "",
          "type": "bytes32"
        }
      ],
      "stateMutability": "view",
      "type": "function"
    },
    {
      "inputs": [],
      "name": "DEFAULT_ADMIN_ROLE",
      "outputs": [
        {
          "internalType": "bytes32",
          "name": "",
          "type": "bytes32"
        }
      ],
      "stateMutability": "view",
      "type": "function"
    },
    {
      "inputs": [],
      "name": "MINTER_ROLE",
      "outputs": [
        {
          "internalType": "bytes32",
          "name": "",
          "type": "bytes32"
        }
      ],
      "stateMutability": "view",
      "type": "function"
    },
    {
      "inputs": [],
      "name": "PAUSER_ROLE",
      "outputs": [
        {
          "internalType": "bytes32",
          "name": "",
          "type": "bytes32"
        }
      ],
      "stateMutability": "view",
      "type": "function"
    },
    {
      "inputs": [
        {
          "internalType": "address",
          "name": "owner",
          "type": "address"
        },
        {
          "internalType": "address",
          "name": "spender",
          "type": "address"
        }
      ],
      "name": "allowance",
      "outputs": [
        {
          "internalType": "uint256",
          "name": "",
          "type": "uint256"
        }
      ],
      "stateMutability": "view",
      "type": "function"
    },
    {
      "inputs": [
        {
          "internalType": "address",
          "name": "spender",
          "type": "address"
        },
        {
          "internalType": "uint256",
          "name": "value",
          "type": "uint256"
        }
      ],
      "name": "approve",
      "outputs": [
        {
          "internalType": "bool",
          "name": "",
          "type": "bool"
        }
      ],
      "stateMutability": "nonpayable",
      "type": "function"
    },
    {
      "inputs": [
        {
          "internalType": "address",
          "name": "account",
          "type": "address"
        }
      ],
      "name": "balanceOf",
      "outputs": [
        {
          "internalType": "uint256",
          "name": "",
          "type": "uint256"
        }
      ],
      "stateMutability": "view",
      "type": "function"
    },
    {
      "inputs": [
        {
          "internalType": "address",
          "name": "from",
          "type": "address"
        },
        {
          "internalType": "uint256",
          "name": "amount",
          "type": "uint256"
        }
      ],
      "name": "burn",
      "outputs": [],
      "stateMutability": "nonpayable",
      "type": "function"
    },
    {
      "inputs": [],
      "name": "decimals",
      "outputs": [
        {
          "internalType": "uint8",
          "name": "",
          "type": "uint8"
        }
      ],
      "stateMutability": "view",
      "type": "function"
    },
    {
      "inputs": [
        {
          "internalType": "bytes32",
          "name": "role",
          "type": "bytes32"
        }
      ],
      "name": "getRoleAdmin",
      "outputs": [
        {
          "internalType": "bytes32",
          "name": "",
          "type": "bytes32"
        }
      ],
      "stateMutability": "view",
      "type": "function"
    },
    {
      "inputs": [
        {
          "internalType": "bytes32",
          "name": "role",
          "type": "bytes32"
        },
        {
          "internalType": "address",
          "name": "account",
          "type": "address"
        }
      ],
      "name": "grantRole",
      "outputs": [],
      "stateMutability": "nonpayable",
      "type": "function"
    },
    {
      "inputs": [
        {
          "internalType": "bytes32",
          "name": "role",
          "type": "bytes32"
        },
        {
          "internalType": "address",
          "name": "account",
          "type": "address"
        }
      ],
      "name": "hasRole",
      "outputs": [
        {
          "internalType": "bool",
          "name": "",
          "type": "bool"
        }
      ],
      "stateMutability": "view",
      "type": "function"
    },
    {
      "inputs": [
        {
          "internalType": "address",
          "name": "to",
          "type": "address"
        },
        {
          "internalType": "uint256",
          "name": "amount",
          "type": "uint256"
        }
      ],
      "name": "mint",
      "outputs": [],
      "stateMutability": "nonpayable",
      "type": "function"
    },
    {
      "inputs": [],
      "name": "name",
      "outputs": [
        {
          "internalType": "string",
          "name": "",
          "type": "string"
        }
      ],
      "stateMutability": "view",
      "type": "function"
    },
    {
      "inputs": [],
      "name": "originalChainId",
      "outputs": [
        {
          "internalType": "uint256",
          "name": "",
          "type": "uint256"
        }
      ],
      "stateMutability": "view",
      "type": "function"
    },
    {
      "inputs": [],
      "name": "originalToken",
      "outputs": [
        {
          "internalType": "address",
          "name": "",
          "type": "address"
        }
      ],
      "stateMutability": "view",
      "type": "function"
    },
    {
      "inputs": [],
      "name": "pause",
      "outputs": [],
      "stateMutability": "nonpayable",
      "type": "function"
    },
    {
      "inputs": [],
      "name": "paused",
      "outputs": [
        {
          "internalType": "bool",
          "name": "",
          "type": "bool"
        }
      ],
      "stateMutability": "view",
      "type": "function"
    },
    {
      "inputs": [
        {
          "internalType": "bytes32",
          "name": "role",
          "type": "bytes32"
        },
        {
          "internalType": "address",
          "name": "callerConfirmation",
          "type": "address"
        }
      ],
      "name": "renounceRole",
      "outputs": [],
      "stateMutability": "nonpayable",
      "type": "function"
    },
    {
      "inputs": [
        {
          "internalType": "bytes32",
          "name": "role",
          "type": "bytes32"
        },
        {
          "internalType": "address",
          "name": "account",
          "type": "address"
        }
      ],
      "name": "revokeRole",
      "outputs": [],
      "stateMutability": "nonpayable",
      "type": "function"
    },
    {
      "inputs": [
        {
          "internalType": "bytes4",
          "name": "interfaceId",
          "type": "bytes4"
        }
      ],
      "name": "supportsInterface",
      "outputs": [
        {
          "internalType": "bool",
          "name": "",
          "type": "bool"
        }
      ],
      "stateMutability": "view",
      "type": "function"
    },
    {
      "inputs": [],
      "name": "symbol",
      "outputs": [
        {
          "internalType": "string",
          "name": "",
          "type": "string"
        }
      ],
      "stateMutability": "view",
      "type": "function"
    },
    {
      "inputs": [],
      "name": "totalSupply",
      "outputs": [
        {
          "internalType": "uint256",
          "name": "",
          "type": "uint256"
        }
      ],
      "stateMutability": "view",
      "type": "function"
    },
    {
      "inputs": [
        {
          "internalType": "address",
          "name": "to",
          "type": "address"
        },
        {
          "internalType": "uint256",
          "name": "value",
          "type": "uint256"
        }
      ],
      "name": "transfer",
      "outputs": [
        {
          "internalType": "bool",
          "name": "",
          "type": "bool"
        }
      ],
      "stateMutability": "nonpayable",
      "type": "function"
    },
    {
      "inputs": [
        {
          "internalType": "address",
          "name": "from",
          "type": "address"
        },
        {
          "internalType": "address",
          "name": "to",
          "type": "address"
        },
        {
          "internalType": "uint256",
          "name": "value",
          "type": "uint256"
        }
      ],
      "name": "transferFrom",
      "outputs": [
        {
          "internalType": "bool",
          "name": "",
          "type": "bool"
        }
      ],
      "stateMutability": "nonpayable",
      "type": "function"
    },
    {
      "inputs": [],
      "name": "unpause",
      "outputs": [],
      "stateMutability": "nonpayable",
      "type": "function"
    }
  ],
  "bytecode": "0x60806040523480156200001157600080fd5b50604051620024ee380380620024ee833981810160405281019062000037919062000525565b838381600390816200004a919062000816565b5080600490816200005c919062000816565b5050506000600660006101000a81548160ff0219169083151502179055506200008f6000801b336200017b60201b60201c565b50620000c27f9f2df0fed2c77648de5860a4cc508cd0818c85b8b8a1ab4ceeef8d981c8956a6336200017b60201b60201c565b50620000f57f3c11d16cbaffd01df69ce1c404f6340ee057498f5f00246190ea54220576a848336200017b60201b60201c565b50620001287f65d7a28e3265b37a6474929f336521b332c1681b933f6cb9f3376673440d862a336200017b60201b60201c565b5081600660016101000a81548173ffffffffffffffffffffffffffffffffffffffff021916908373ffffffffffffffffffffffffffffffffffffffff1602179055508060078190555050505050620008fd565b60006200018f83836200027f60201b60201c565b620002745760016005600085815260200190815260200160002060000160008473ffffffffffffffffffffffffffffffffffffffff1673ffffffffffffffffffffffffffffffffffffffff16815260200190815260200160002060006101000a81548160ff02191690831515021790555062000210620002ea60201b60201c565b73ffffffffffffffffffffffffffffffffffffffff168273ffffffffffffffffffffffffffffffffffffffff16847f2f8788117e7eff1d82e926ec794901d17c78024a50270940304540a733656f0d60405160405180910390a46001905062000279565b600090505b92915050565b60006005600084815260200190815260200160002060000160008373ffffffffffffffffffffffffffffffffffffffff1673ffffffffffffffffffffffffffffffffffffffff16815260200190815260200160002060009054906101000a900460ff16905092915050565b600033905090565b6000604051905090565b600080fd5b600080fd5b600080fd5b600080fd5b6000601f19601f8301169050919050565b7f4e487b7100000000000000000000000000000000000000000000000000000000600052604160045260246000fd5b6200035b8262000310565b810181811067ffffffffffffffff821117156200037d576200037c62000321565b5b80604052505050565b600062000392620002f2565b9050620003a0828262000350565b919050565b600067ffffffffffffffff821115620003c357620003c262000321565b5b620003ce8262000310565b9050602081019050919050565b60005b83811015620003fb578082015181840152602081019050620003de565b60008484015250505050565b60006200041e6200041884620003a5565b62000386565b9050828152602081018484840111156200043d576200043c6200030b565b5b6200044a848285620003db565b509392505050565b600082601f8301126200046a576200046962000306565b5b81516200047c84826020860162000407565b91505092915050565b600073ffffffffffffffffffffffffffffffffffffffff82169050919050565b6000620004b28262000485565b9050919050565b620004c481620004a5565b8114620004d057600080fd5b50565b600081519050620004e481620004b9565b92915050565b6000819050919050565b620004ff81620004ea565b81146200050b57600080fd5b50565b6000815190506200051f81620004f4565b92915050565b60008060008060808587031215620005425762000541620002fc565b5b600085015167ffffffffffffffff81111562000563576200056262000301565b5b620005718782880162000452565b945050602085015167ffffffffffffffff81111562000595576200059462000301565b5b620005a38782880162000452565b9350506040620005b687828801620004d3565b9250506060620005c9878288016200050e565b91505092959194509250565b600081519050919050565b7f4e487b7100000000000000000000000000000000000000000000000000000000600052602260045260246000fd5b600060028204905060018216806200062857607f821691505b6020821081036200063e576200063d620005e0565b5b50919050565b60008190508160005260206000209050919050565b60006020601f8301049050919050565b600082821b905092915050565b600060088302620006a87fffffffffffffffffffffffffffffffffffffffffffffffffffffffffffffffff8262000669565b620006b4868362000669565b95508019841693508086168417925050509392505050565b6000819050919050565b6000620006f7620006f1620006eb84620004ea565b620006cc565b620004ea565b9050919050565b6000819050919050565b6200071383620006d6565b6200072b6200072282620006fe565b84845462000676565b825550505050565b600090565b6200074262000733565b6200074f81848462000708565b505050565b5b8181101562000777576200076b60008262000738565b60018101905062000755565b5050565b601f821115620007c657620007908162000644565b6200079b8462000659565b81016020851015620007ab578190505b620007c3620007ba8562000659565b83018262000754565b50505b505050565b600082821c905092915050565b6000620007eb60001984600802620007cb565b1980831691505092915050565b6000620008068383620007d8565b9150826002028217905092915050565b6200082182620005d5565b67ffffffffffffffff8111156200083d576200083c62000321565b5b6200084982546200060f565b620008568282856200077b565b600060209050601f8311600181146200088e576000841562000879578287015190505b620008858582620007f8565b865550620008f5565b601f1984166200089e8662000644565b60005b82811015620008c857848901518255600182019150602085019450602081019050620008a1565b86831015620008e85784890151620008e4601f891682620007d8565b8355505b6001600288020188555050505b505050505050565b611be1806200090d6000396000f3fe608060405234801561001057600080fd5b506004361061018e5760003560e01c806340c10f19116100de5780639dc29fac11610097578063d539139311610071578063d539139314610475578063d547741f14610493578063dd62ed3e146104af578063e63ab1e9146104df5761018e565b80639dc29fac1461040b578063a217fddf14610427578063a9059cbb146104455761018e565b806340c10f19146103495780635c975abb1461036557806370a08231146103835780638456cb59146103b357806391d14854146103bd57806395d89b41146103ed5761018e565b806323b872dd1161014b5780632f2ff15d116101255780632f2ff15d146102e9578063313ce5671461030557806336568abe146103235780633f4ba83a1461033f5761018e565b806323b872dd1461026b578063248a9ca31461029b578063282c51f3146102cb5761018e565b806301ffc9a71461019357806306fdde03146101c3578063095ea7b3146101e15780630d788c36146102115780630e7c1cb51461022f57806318160ddd1461024d575b600080fd5b6101ad60048036038101906101a89190611687565b6104fd565b6040516101ba91906116cf565b60405180910390f35b6101cb61050f565b6040516101d8919061177a565b60405180910390f35b6101fb60048036038101906101f69190611830565b6105a1565b60405161020891906116cf565b60405180910390f35b6102196105c4565b604051610226919061187f565b60405180910390f35b6102376105ca565b60405161024491906118a9565b60405180910390f35b6102556105f0565b604051610262919061187f565b60405180910390f35b610285600480360381019061028091906118c4565b6105fa565b60405161029291906116cf565b60405180910390f35b6102b560048036038101906102b0919061194d565b610629565b6040516102c29190611989565b60405180910390f35b6102d3610649565b6040516102e09190611989565b60405180910390f35b61030360048036038101906102fe91906119a4565b61066d565b005b61030d61068f565b60405161031a9190611a00565b60405180910390f35b61033d600480360381019061033891906119a4565b610698565b005b610347610713565b005b610363600480360381019061035e9190611830565b610748565b005b61036d6107d7565b60405161037a91906116cf565b60405180910390f35b61039d60048036038101906103989190611a1b565b6107ee565b6040516103aa919061187f565b60405180910390f35b6103bb610836565b005b6103d760048036038101906103d291906119a4565b61086b565b6040516103e491906116cf565b60405180910390f35b6103f56108d6565b604051610402919061177a565b60405180910390f35b61042560048036038101906104209190611830565b610968565b005b61042f6109f7565b60405161043c9190611989565b60405180910390f35b61045f600480360381019061045a9190611830565b6109fe565b60405161046c91906116cf565b60405180910390f35b61047d610a21565b60405161048a9190611989565b60405180910390f35b6104ad60048036038101906104a891906119a4565b610a45565b005b6104c960048036038101906104c49190611a48565b610a67565b6040516104d6919061187f565b60405180910390f35b6104e7610aee565b6040516104f49190611989565b60405180910390f35b600061050882610b12565b9050919050565b60606003805461051e90611ab7565b80601f016020809104026020016040519081016040528092919081815260200182805461054a90611ab7565b80156105975780601f1061056c57610100808354040283529160200191610597565b820191906000526020600020905b81548152906001019060200180831161057a57829003601f168201915b5050505050905090565b6000806105ac610b8c565b90506105b9818585610b94565b600191505092915050565b60075481565b600660019054906101000a900473ffffffffffffffffffffffffffffffffffffffff1681565b6000600254905090565b600080610605610b8c565b9050610612858285610ba6565b61061d858585610c3b565b60019150509392505050565b600060056000838152602001908152602001600020600101549050919050565b7f3c11d16cbaffd01df69ce1c404f6340ee057498f5f00246190ea54220576a84881565b61067682610629565b61067f81610d2f565b6106898383610d43565b50505050565b60006012905090565b6106a0610b8c565b73ffffffffffffffffffffffffffffffffffffffff168173ffffffffffffffffffffffffffffffffffffffff1614610704576040517f6697b23200000000000000000000000000000000000000000000000000000000815260040160405180910390fd5b61070e8282610e35565b505050565b7f65d7a28e3265b37a6474929f336521b332c1681b933f6cb9f3376673440d862a61073d81610d2f565b610745610f28565b50565b7f9f2df0fed2c77648de5860a4cc508cd0818c85b8b8a1ab4ceeef8d981c8956a661077281610d2f565b61077a610f8b565b6107848383610fcc565b8273ffffffffffffffffffffffffffffffffffffffff167f3f2c9d57c068687834f0de942a9babb9e5acab57d516d3480a3c16ee165a4273836040516107ca919061187f565b60405180910390a2505050565b6000600660009054906101000a900460ff16905090565b60008060008373ffffffffffffffffffffffffffffffffffffffff1673ffffffffffffffffffffffffffffffffffffffff168152602001908152602001600020549050919050565b7f65d7a28e3265b37a6474929f336521b332c1681b933f6cb9f3376673440d862a61086081610d2f565b61086861104e565b50565b60006005600084815260200190815260200160002060000160008373ffffffffffffffffffffffffffffffffffffffff1673ffffffffffffffffffffffffffffffffffffffff16815260200190815260200160002060009054906101000a900460ff16905092915050565b6060600480546108e590611ab7565b80601f016020809104026020016040519081016040528092919081815260200182805461091190611ab7565b801561095e5780601f106109335761010080835404028352916020019161095e565b820191906000526020600020905b81548152906001019060200180831161094157829003601f168201915b5050505050905090565b7f3c11d16cbaffd01df69ce1c404f6340ee057498f5f00246190ea54220576a84861099281610d2f565b61099a610f8b565b6109a483836110b1565b8273ffffffffffffffffffffffffffffffffffffffff167ffd38818f5291bf0bb3a2a48aadc06ba8757865d1dabd804585338aab3009dcb6836040516109ea919061187f565b60405180910390a2505050565b6000801b81565b600080610a09610b8c565b9050610a16818585610c3b565b600191505092915050565b7f9f2df0fed2c77648de5860a4cc508cd0818c85b8b8a1ab4ceeef8d981c8956a681565b610a4e82610629565b610a5781610d2f565b610a618383610e35565b50505050565b6000600160008473ffffffffffffffffffffffffffffffffffffffff1673ffffffffffffffffffffffffffffffffffffffff16815260200190815260200160002060008373ffffffffffffffffffffffffffffffffffffffff1673ffffffffffffffffffffffffffffffffffffffff16815260200190815260200160002054905092915050565b7f65d7a28e3265b37a6474929f336521b332c1681b933f6cb9f3376673440d862a81565b60007f7965db0b000000000000000000000000000000000000000000000000000000007bffffffffffffffffffffffffffffffffffffffffffffffffffffffff1916827bffffffffffffffffffffffffffffffffffffffffffffffffffffffff19161480610b855750610b8482611133565b5b9050919050565b600033905090565b610ba1838383600161119d565b505050565b6000610bb28484610a67565b90507fffffffffffffffffffffffffffffffffffffffffffffffffffffffffffffffff811015610c355781811015610c25578281836040517ffb8f41b2000000000000000000000000000000000000000000000000000000008152600401610c1c93929190611ae8565b60405180910390fd5b610c348484848403600061119d565b5b50505050565b600073ffffffffffffffffffffffffffffffffffffffff168373ffffffffffffffffffffffffffffffffffffffff1603610cad5760006040517f96c6fd1e000000000000000000000000000000000000000000000000000000008152600401610ca491906118a9565b60405180910390fd5b600073ffffffffffffffffffffffffffffffffffffffff168273ffffffffffffffffffffffffffffffffffffffff1603610d1f5760006040517fec442f05000000000000000000000000000000000000000000000000000000008152600401610d1691906118a9565b60405180910390fd5b610d2a838383611374565b505050565b610d4081610d3b610b8c565b611599565b50565b6000610d4f838361086b565b610e2a5760016005600085815260200190815260200160002060000160008473ffffffffffffffffffffffffffffffffffffffff1673ffffffffffffffffffffffffffffffffffffffff16815260200190815260200160002060006101000a81548160ff021916908315150217905550610dc7610b8c565b73ffffffffffffffffffffffffffffffffffffffff168273ffffffffffffffffffffffffffffffffffffffff16847f2f8788117e7eff1d82e926ec794901d17c78024a50270940304540a733656f0d60405160405180910390a460019050610e2f565b600090505b92915050565b6000610e41838361086b565b15610f1d5760006005600085815260200190815260200160002060000160008473ffffffffffffffffffffffffffffffffffffffff1673ffffffffffffffffffffffffffffffffffffffff16815260200190815260200160002060006101000a81548160ff021916908315150217905550610eba610b8c565b73ffffffffffffffffffffffffffffffffffffffff168273ffffffffffffffffffffffffffffffffffffffff16847ff6391f5c32d9c69d2a47ea670b442974b53935d1edc7fd64eb21e047a839171b60405160405180910390a460019050610f22565b600090505b92915050565b610f306115ea565b6000600660006101000a81548160ff0219169083151502179055507f5db9ee0a495bf2e6ff9c91a7834c1ba4fdd244a5e8aa4e537bd38aeae4b073aa610f74610b8c565b604051610f8191906118a9565b60405180910390a1565b610f936107d7565b15610fca576040517fd93c066500000000000000000000000000000000000000000000000000000000815260040160405180910390fd5b565b600073ffffffffffffffffffffffffffffffffffffffff168273ffffffffffffffffffffffffffffffffffffffff160361103e5760006040517fec442f0500000000000000000000000000000000000000000000000000000000815260040161103591906118a9565b60405180910390fd5b61104a60008383611374565b5050565b611056610f8b565b6001600660006101000a81548160ff0219169083151502179055507f62e78cea01bee320cd4e420270b5ea74000d11b0c9f74754ebdbfc544b05a25861109a610b8c565b6040516110a791906118a9565b60405180910390a1565b600073ffffffffffffffffffffffffffffffffffffffff168273ffffffffffffffffffffffffffffffffffffffff16036111235760006040517f96c6fd1e00000000000000000000000000000000000000000000000000000000815260040161111a91906118a9565b60405180910390fd5b61112f82600083611374565b5050565b60007f01ffc9a7000000000000000000000000000000000000000000000000000000007bffffffffffffffffffffffffffffffffffffffffffffffffffffffff1916827bffffffffffffffffffffffffffffffffffffffffffffffffffffffff1916149050919050565b600073ffffffffffffffffffffffffffffffffffffffff168473ffffffffffffffffffffffffffffffffffffffff160361120f5760006040517fe602df0500000000000000000000000000000000000000000000000000000000815260040161120691906118a9565b60405180910390fd5b600073ffffffffffffffffffffffffffffffffffffffff168373ffffffffffffffffffffffffffffffffffffffff16036112815760006040517f94280d6200000000000000000000000000000000000000000000000000000000815260040161127891906118a9565b60405180910390fd5b81600160008673ffffffffffffffffffffffffffffffffffffffff1673ffffffffffffffffffffffffffffffffffffffff16815260200190815260200160002060008573ffffffffffffffffffffffffffffffffffffffff1673ffffffffffffffffffffffffffffffffffffffff16815260200190815260200160002081905550801561136e578273ffffffffffffffffffffffffffffffffffffffff168473ffffffffffffffffffffffffffffffffffffffff167f8c5be1e5ebec7d5bd14f71427d1e84f3dd0314c0f7b2291e5b200ac8c7c3b92584604051611365919061187f565b60405180910390a35b50505050565b600073ffffffffffffffffffffffffffffffffffffffff168373ffffffffffffffffffffffffffffffffffffffff16036113c65780600260008282546113ba9190611b4e565b92505081905550611499565b60008060008573ffffffffffffffffffffffffffffffffffffffff1673ffffffffffffffffffffffffffffffffffffffff16815260200190815260200160002054905081811015611452578381836040517fe450d38c00000000000000000000000000000000000000000000000000000000815260040161144993929190611ae8565b60405180910390fd5b8181036000808673ffffffffffffffffffffffffffffffffffffffff1673ffffffffffffffffffffffffffffffffffffffff16815260200190815260200160002081905550505b600073ffffffffffffffffffffffffffffffffffffffff168273ffffffffffffffffffffffffffffffffffffffff16036114e2578060026000828254039250508190555061152f565b806000808473ffffffffffffffffffffffffffffffffffffffff1673ffffffffffffffffffffffffffffffffffffffff168152602001908152602001600020600082825401925050819055505b8173ffffffffffffffffffffffffffffffffffffffff168373ffffffffffffffffffffffffffffffffffffffff167fddf252ad1be2c89b69c2b068fc378daa952ba7f163c4a11628f55a4df523b3ef8360405161158c919061187f565b60405180910390a3505050565b6115a3828261086b565b6115e65780826040517fe2517d3f0000000000000000000000000000000000000000000000000000000081526004016115dd929190611b82565b60405180910390fd5b5050565b6115f26107d7565b611628576040517f8dfc202b00000000000000000000000000000000000000000000000000000000815260040160405180910390fd5b565b600080fd5b60007fffffffff0000000000000000000000000000000000000000000000000000000082169050919050565b6116648161162f565b811461166f57600080fd5b50565b6000813590506116818161165b565b92915050565b60006020828403121561169d5761169c61162a565b5b60006116ab84828501611672565b91505092915050565b60008115159050919050565b6116c9816116b4565b82525050565b60006020820190506116e460008301846116c0565b92915050565b600081519050919050565b600082825260208201905092915050565b60005b83811015611724578082015181840152602081019050611709565b60008484015250505050565b6000601f19601f8301169050919050565b600061174c826116ea565b61175681856116f5565b9350611766818560208601611706565b61176f81611730565b840191505092915050565b600060208201905081810360008301526117948184611741565b905092915050565b600073ffffffffffffffffffffffffffffffffffffffff82169050919050565b60006117c78261179c565b9050919050565b6117d7816117bc565b81146117e257600080fd5b50565b6000813590506117f4816117ce565b92915050565b6000819050919050565b61180d816117fa565b811461181857600080fd5b50565b60008135905061182a81611804565b92915050565b600080604083850312156118475761184661162a565b5b6000611855858286016117e5565b92505060206118668582860161181b565b9150509250929050565b611879816117fa565b82525050565b60006020820190506118946000830184611870565b92915050565b6118a3816117bc565b82525050565b60006020820190506118be600083018461189a565b92915050565b6000806000606084860312156118dd576118dc61162a565b5b60006118eb868287016117e5565b93505060206118fc868287016117e5565b925050604061190d8682870161181b565b9150509250925092565b6000819050919050565b61192a81611917565b811461193557600080fd5b50565b60008135905061194781611921565b92915050565b6000602082840312156119635761196261162a565b5b600061197184828501611938565b91505092915050565b61198381611917565b82525050565b600060208201905061199e600083018461197a565b92915050565b600080604083850312156119bb576119ba61162a565b5b60006119c985828601611938565b92505060206119da858286016117e5565b9150509250929050565b600060ff82169050919050565b6119fa816119e4565b82525050565b6000602082019050611a1560008301846119f1565b92915050565b600060208284031215611a3157611a3061162a565b5b6000611a3f848285016117e5565b91505092915050565b60008060408385031215611a5f57611a5e61162a565b5b6000611a6d858286016117e5565b9250506020611a7e858286016117e5565b9150509250929050565b7f4e487b7100000000000000000000000000000000000000000000000000000000600052602260045260246000fd5b60006002820490506001821680611acf57607f821691505b602082108103611ae257611ae1611a88565b5b50919050565b6000606082019050611afd600083018661189a565b611b0a6020830185611870565b611b176040830184611870565b949350505050565b7f4e487b7100000000000000000000000000000000000000000000000000000000600052601160045260246000fd5b6000611b59826117fa565b9150611b64836117fa565b9250828201905080821115611b7c57611b7b611b1f565b5b92915050565b6000604082019050611b97600083018561189a565b611ba4602083018461197a565b939250505056fea264697066735822122068aa2abd54d405d7b4e15db73c523ce0597cfe28e37fd9ad9e4e170ab5bd9c1364736f6c63430008140033",
  "linkReferences": {},
  "deployedLinkReferences": {}
}