{
  "_format": "hh-sol-artifact-1",
  "contractName": "NFT",
  "sourceName": "contracts/NFT.sol",
  "abi": [
    {
      "inputs": [
        {
          "internalType": "string",
          "name": "name",
          "type": "string"
        },
        {
          "internalType": "string",
          "name": "symbol",
          "type": "string"
        },
        {
          "internalType": "address",
          "name": "admin",
          "type": "address"
        }
      ],
      "stateMutability": "nonpayable",
      "type": "constructor"
    },
    {
      "inputs": [],
      "name": "AccessControlBadConfirmation",
      "type": "error"
    },
    {
      "inputs": [
        {
          "internalType": "address",
          "name": "account",
          "type": "address"
        },
        {
          "internalType": "bytes32",
          "name": "neededRole",
          "type": "bytes32"
        }
      ],
      "name": "AccessControlUnauthorizedAccount",
      "type": "error"
    },
    {
      "inputs": [
        {
          "internalType": "address",
          "name": "sender",
          "type": "address"
        },
        {
          "internalType": "uint256",
          "name": "tokenId",
          "type": "uint256"
        },
        {
          "internalType": "address",
          "name": "owner",
          "type": "address"
        }
      ],
      "name": "ERC721IncorrectOwner",
      "type": "error"
    },
    {
      "inputs": [
        {
          "internalType": "address",
          "name": "operator",
          "type": "address"
        },
        {
          "internalType": "uint256",
          "name": "tokenId",
          "type": "uint256"
        }
      ],
      "name": "ERC721InsufficientApproval",
      "type": "error"
    },
    {
      "inputs": [
        {
          "internalType": "address",
          "name": "approver",
          "type": "address"
        }
      ],
      "name": "ERC721InvalidApprover",
      "type": "error"
    },
    {
      "inputs": [
        {
          "internalType": "address",
          "name": "operator",
          "type": "address"
        }
      ],
      "name": "ERC721InvalidOperator",
      "type": "error"
    },
    {
      "inputs": [
        {
          "internalType": "address",
          "name": "owner",
          "type": "address"
        }
      ],
      "name": "ERC721InvalidOwner",
      "type": "error"
    },
    {
      "inputs": [
        {
          "internalType": "address",
          "name": "receiver",
          "type": "address"
        }
      ],
      "name": "ERC721InvalidReceiver",
      "type": "error"
    },
    {
      "inputs": [
        {
          "internalType": "address",
          "name": "sender",
          "type": "address"
        }
      ],
      "name": "ERC721InvalidSender",
      "type": "error"
    },
    {
      "inputs": [
        {
          "internalType": "uint256",
          "name": "tokenId",
          "type": "uint256"
        }
      ],
      "name": "ERC721NonexistentToken",
      "type": "error"
    },
    {
      "inputs": [],
      "name": "EnforcedPause",
      "type": "error"
    },
    {
      "inputs": [],
      "name": "ExpectedPause",
      "type": "error"
    },
    {
      "anonymous": false,
      "inputs": [
        {
          "indexed": true,
          "internalType": "address",
          "name": "owner",
          "type": "address"
        },
        {
          "indexed": true,
          "internalType": "address",
          "name": "approved",
          "type": "address"
        },
        {
          "indexed": true,
          "internalType": "uint256",
          "name": "tokenId",
          "type": "uint256"
        }
      ],
      "name": "Approval",
      "type": "event"
    },
    {
      "anonymous": false,
      "inputs": [
        {
          "indexed": true,
          "internalType": "address",
          "name": "owner",
          "type": "address"
        },
        {
          "indexed": true,
          "internalType": "address",
          "name": "operator",
          "type": "address"
        },
        {
          "indexed": false,
          "internalType": "bool",
          "name": "approved",
          "type": "bool"
        }
      ],
      "name": "ApprovalForAll",
      "type": "event"
    },
    {
      "anonymous": false,
      "inputs": [
        {
          "indexed": false,
          "internalType": "address",
          "name": "account",
          "type": "address"
        }
      ],
      "name": "Paused",
      "type": "event"
    },
    {
      "anonymous": false,
      "inputs": [
        {
          "indexed": true,
          "internalType": "bytes32",
          "name": "role",
          "type": "bytes32"
        },
        {
          "indexed": true,
          "internalType": "bytes32",
          "name": "previousAdminRole",
          "type": "bytes32"
        },
        {
          "indexed": true,
          "internalType": "bytes32",
          "name": "newAdminRole",
          "type": "bytes32"
        }
      ],
      "name": "RoleAdminChanged",
      "type": "event"
    },
    {
      "anonymous": false,
      "inputs": [
        {
          "indexed": true,
          "internalType": "bytes32",
          "name": "role",
          "type": "bytes32"
        },
        {
          "indexed": true,
          "internalType": "address",
          "name": "account",
          "type": "address"
        },
        {
          "indexed": true,
          "internalType": "address",
          "name": "sender",
          "type": "address"
        }
      ],
      "name": "RoleGranted",
      "type": "event"
    },
    {
      "anonymous": false,
      "inputs": [
        {
          "indexed": true,
          "internalType": "bytes32",
          "name": "role",
          "type": "bytes32"
        },
        {
          "indexed": true,
          "internalType": "address",
          "name": "account",
          "type": "address"
        },
        {
          "indexed": true,
          "internalType": "address",
          "name": "sender",
          "type": "address"
        }
      ],
      "name": "RoleRevoked",
      "type": "event"
    },
    {
      "anonymous": false,
      "inputs": [
        {
          "indexed": true,
          "internalType": "address",
          "name": "from",
          "type": "address"
        },
        {
          "indexed": true,
          "internalType": "address",
          "name": "to",
          "type": "address"
        },
        {
          "indexed": true,
          "internalType": "uint256",
          "name": "tokenId",
          "type": "uint256"
        }
      ],
      "name": "Transfer",
      "type": "event"
    },
    {
      "anonymous": false,
      "inputs": [
        {
          "indexed": false,
          "internalType": "address",
          "name": "account",
          "type": "address"
        }
      ],
      "name": "Unpaused",
      "type": "event"
    },
    {
      "inputs": [],
      "name": "BURNER_ROLE",
      "outputs": [
        {
          "internalType": "bytes32",
          "name": "",
          "type": "bytes32"
        }
      ],
      "stateMutability": "view",
      "type": "function"
    },
    {
      "inputs": [],
      "name": "DEFAULT_ADMIN_ROLE",
      "outputs": [
        {
          "internalType": "bytes32",
          "name": "",
          "type": "bytes32"
        }
      ],
      "stateMutability": "view",
      "type": "function"
    },
    {
      "inputs": [],
      "name": "MINTER_ROLE",
      "outputs": [
        {
          "internalType": "bytes32",
          "name": "",
          "type": "bytes32"
        }
      ],
      "stateMutability": "view",
      "type": "function"
    },
    {
      "inputs": [],
      "name": "PAUSER_ROLE",
      "outputs": [
        {
          "internalType": "bytes32",
          "name": "",
          "type": "bytes32"
        }
      ],
      "stateMutability": "view",
      "type": "function"
    },
    {
      "inputs": [
        {
          "internalType": "address",
          "name": "to",
          "type": "address"
        },
        {
          "internalType": "uint256",
          "name": "tokenId",
          "type": "uint256"
        }
      ],
      "name": "approve",
      "outputs": [],
      "stateMutability": "nonpayable",
      "type": "function"
    },
    {
      "inputs": [
        {
          "internalType": "address",
          "name": "owner",
          "type": "address"
        }
      ],
      "name": "balanceOf",
      "outputs": [
        {
          "internalType": "uint256",
          "name": "",
          "type": "uint256"
        }
      ],
      "stateMutability": "view",
      "type": "function"
    },
    {
      "inputs": [
        {
          "internalType": "uint256",
          "name": "tokenId",
          "type": "uint256"
        }
      ],
      "name": "burn",
      "outputs": [],
      "stateMutability": "nonpayable",
      "type": "function"
    },
    {
      "inputs": [
        {
          "internalType": "uint256",
          "name": "tokenId",
          "type": "uint256"
        }
      ],
      "name": "getApproved",
      "outputs": [
        {
          "internalType": "address",
          "name": "",
          "type": "address"
        }
      ],
      "stateMutability": "view",
      "type": "function"
    },
    {
      "inputs": [
        {
          "internalType": "bytes32",
          "name": "role",
          "type": "bytes32"
        }
      ],
      "name": "getRoleAdmin",
      "outputs": [
        {
          "internalType": "bytes32",
          "name": "",
          "type": "bytes32"
        }
      ],
      "stateMutability": "view",
      "type": "function"
    },
    {
      "inputs": [
        {
          "internalType": "bytes32",
          "name": "role",
          "type": "bytes32"
        },
        {
          "internalType": "address",
          "name": "account",
          "type": "address"
        }
      ],
      "name": "grantRole",
      "outputs": [],
      "stateMutability": "nonpayable",
      "type": "function"
    },
    {
      "inputs": [
        {
          "internalType": "bytes32",
          "name": "role",
          "type": "bytes32"
        },
        {
          "internalType": "address",
          "name": "account",
          "type": "address"
        }
      ],
      "name": "hasRole",
      "outputs": [
        {
          "internalType": "bool",
          "name": "",
          "type": "bool"
        }
      ],
      "stateMutability": "view",
      "type": "function"
    },
    {
      "inputs": [
        {
          "internalType": "address",
          "name": "owner",
          "type": "address"
        },
        {
          "internalType": "address",
          "name": "operator",
          "type": "address"
        }
      ],
      "name": "isApprovedForAll",
      "outputs": [
        {
          "internalType": "bool",
          "name": "",
          "type": "bool"
        }
      ],
      "stateMutability": "view",
      "type": "function"
    },
    {
      "inputs": [
        {
          "internalType": "address",
          "name": "to",
          "type": "address"
        }
      ],
      "name": "mint",
      "outputs": [
        {
          "internalType": "uint256",
          "name": "",
          "type": "uint256"
        }
      ],
      "stateMutability": "nonpayable",
      "type": "function"
    },
    {
      "inputs": [],
      "name": "name",
      "outputs": [
        {
          "internalType": "string",
          "name": "",
          "type": "string"
        }
      ],
      "stateMutability": "view",
      "type": "function"
    },
    {
      "inputs": [
        {
          "internalType": "uint256",
          "name": "tokenId",
          "type": "uint256"
        }
      ],
      "name": "ownerOf",
      "outputs": [
        {
          "internalType": "address",
          "name": "",
          "type": "address"
        }
      ],
      "stateMutability": "view",
      "type": "function"
    },
    {
      "inputs": [],
      "name": "pause",
      "outputs": [],
      "stateMutability": "nonpayable",
      "type": "function"
    },
    {
      "inputs": [],
      "name": "paused",
      "outputs": [
        {
          "internalType": "bool",
          "name": "",
          "type": "bool"
        }
      ],
      "stateMutability": "view",
      "type": "function"
    },
    {
      "inputs": [
        {
          "internalType": "bytes32",
          "name": "role",
          "type": "bytes32"
        },
        {
          "internalType": "address",
          "name": "callerConfirmation",
          "type": "address"
        }
      ],
      "name": "renounceRole",
      "outputs": [],
      "stateMutability": "nonpayable",
      "type": "function"
    },
    {
      "inputs": [
        {
          "internalType": "bytes32",
          "name": "role",
          "type": "bytes32"
        },
        {
          "internalType": "address",
          "name": "account",
          "type": "address"
        }
      ],
      "name": "revokeRole",
      "outputs": [],
      "stateMutability": "nonpayable",
      "type": "function"
    },
    {
      "inputs": [
        {
          "internalType": "address",
          "name": "from",
          "type": "address"
        },
        {
          "internalType": "address",
          "name": "to",
          "type": "address"
        },
        {
          "internalType": "uint256",
          "name": "tokenId",
          "type": "uint256"
        }
      ],
      "name": "safeTransferFrom",
      "outputs": [],
      "stateMutability": "nonpayable",
      "type": "function"
    },
    {
      "inputs": [
        {
          "internalType": "address",
          "name": "from",
          "type": "address"
        },
        {
          "internalType": "address",
          "name": "to",
          "type": "address"
        },
        {
          "internalType": "uint256",
          "name": "tokenId",
          "type": "uint256"
        },
        {
          "internalType": "bytes",
          "name": "data",
          "type": "bytes"
        }
      ],
      "name": "safeTransferFrom",
      "outputs": [],
      "stateMutability": "nonpayable",
      "type": "function"
    },
    {
      "inputs": [
        {
          "internalType": "address",
          "name": "operator",
          "type": "address"
        },
        {
          "internalType": "bool",
          "name": "approved",
          "type": "bool"
        }
      ],
      "name": "setApprovalForAll",
      "outputs": [],
      "stateMutability": "nonpayable",
      "type": "function"
    },
    {
      "inputs": [
        {
          "internalType": "bytes4",
          "name": "interfaceId",
          "type": "bytes4"
        }
      ],
      "name": "supportsInterface",
      "outputs": [
        {
          "internalType": "bool",
          "name": "",
          "type": "bool"
        }
      ],
      "stateMutability": "view",
      "type": "function"
    },
    {
      "inputs": [],
      "name": "symbol",
      "outputs": [
        {
          "internalType": "string",
          "name": "",
          "type": "string"
        }
      ],
      "stateMutability": "view",
      "type": "function"
    },
    {
      "inputs": [
        {
          "internalType": "uint256",
          "name": "tokenId",
          "type": "uint256"
        }
      ],
      "name": "tokenURI",
      "outputs": [
        {
          "internalType": "string",
          "name": "",
          "type": "string"
        }
      ],
      "stateMutability": "view",
      "type": "function"
    },
    {
      "inputs": [
        {
          "internalType": "address",
          "name": "from",
          "type": "address"
        },
        {
          "internalType": "address",
          "name": "to",
          "type": "address"
        },
        {
          "internalType": "uint256",
          "name": "tokenId",
          "type": "uint256"
        }
      ],
      "name": "transferFrom",
      "outputs": [],
      "stateMutability": "nonpayable",
      "type": "function"
    },
    {
      "inputs": [],
      "name": "unpause",
      "outputs": [],
      "stateMutability": "nonpayable",
      "type": "function"
    }
  ],
  "bytecode": "0x60806040523480156200001157600080fd5b5060405162003340380380620033408339818101604052810190620000379190620004a9565b828281600090816200004a91906200078e565b5080600190816200005c91906200078e565b5050506000600660006101000a81548160ff0219169083151502179055506200008f6000801b826200013a60201b60201c565b50620000c27f9f2df0fed2c77648de5860a4cc508cd0818c85b8b8a1ab4ceeef8d981c8956a6826200013a60201b60201c565b50620000f57f3c11d16cbaffd01df69ce1c404f6340ee057498f5f00246190ea54220576a848826200013a60201b60201c565b50620001287f65d7a28e3265b37a6474929f336521b332c1681b933f6cb9f3376673440d862a826200013a60201b60201c565b50600160088190555050505062000875565b60006200014e83836200023e60201b60201c565b620002335760016007600085815260200190815260200160002060000160008473ffffffffffffffffffffffffffffffffffffffff1673ffffffffffffffffffffffffffffffffffffffff16815260200190815260200160002060006101000a81548160ff021916908315150217905550620001cf620002a960201b60201c565b73ffffffffffffffffffffffffffffffffffffffff168273ffffffffffffffffffffffffffffffffffffffff16847f2f8788117e7eff1d82e926ec794901d17c78024a50270940304540a733656f0d60405160405180910390a46001905062000238565b600090505b92915050565b60006007600084815260200190815260200160002060000160008373ffffffffffffffffffffffffffffffffffffffff1673ffffffffffffffffffffffffffffffffffffffff16815260200190815260200160002060009054906101000a900460ff16905092915050565b600033905090565b6000604051905090565b600080fd5b600080fd5b600080fd5b600080fd5b6000601f19601f8301169050919050565b7f4e487b7100000000000000000000000000000000000000000000000000000000600052604160045260246000fd5b6200031a82620002cf565b810181811067ffffffffffffffff821117156200033c576200033b620002e0565b5b80604052505050565b600062000351620002b1565b90506200035f82826200030f565b919050565b600067ffffffffffffffff821115620003825762000381620002e0565b5b6200038d82620002cf565b9050602081019050919050565b60005b83811015620003ba5780820151818401526020810190506200039d565b60008484015250505050565b6000620003dd620003d78462000364565b62000345565b905082815260208101848484011115620003fc57620003fb620002ca565b5b620004098482856200039a565b509392505050565b600082601f830112620004295762000428620002c5565b5b81516200043b848260208601620003c6565b91505092915050565b600073ffffffffffffffffffffffffffffffffffffffff82169050919050565b6000620004718262000444565b9050919050565b620004838162000464565b81146200048f57600080fd5b50565b600081519050620004a38162000478565b92915050565b600080600060608486031215620004c557620004c4620002bb565b5b600084015167ffffffffffffffff811115620004e657620004e5620002c0565b5b620004f48682870162000411565b935050602084015167ffffffffffffffff811115620005185762000517620002c0565b5b620005268682870162000411565b9250506040620005398682870162000492565b9150509250925092565b600081519050919050565b7f4e487b7100000000000000000000000000000000000000000000000000000000600052602260045260246000fd5b600060028204905060018216806200059657607f821691505b602082108103620005ac57620005ab6200054e565b5b50919050565b60008190508160005260206000209050919050565b60006020601f8301049050919050565b600082821b905092915050565b600060088302620006167fffffffffffffffffffffffffffffffffffffffffffffffffffffffffffffffff82620005d7565b620006228683620005d7565b95508019841693508086168417925050509392505050565b6000819050919050565b6000819050919050565b60006200066f6200066962000663846200063a565b62000644565b6200063a565b9050919050565b6000819050919050565b6200068b836200064e565b620006a36200069a8262000676565b848454620005e4565b825550505050565b600090565b620006ba620006ab565b620006c781848462000680565b505050565b5b81811015620006ef57620006e3600082620006b0565b600181019050620006cd565b5050565b601f8211156200073e576200070881620005b2565b6200071384620005c7565b8101602085101562000723578190505b6200073b6200073285620005c7565b830182620006cc565b50505b505050565b600082821c905092915050565b6000620007636000198460080262000743565b1980831691505092915050565b60006200077e838362000750565b9150826002028217905092915050565b620007998262000543565b67ffffffffffffffff811115620007b557620007b4620002e0565b5b620007c182546200057d565b620007ce828285620006f3565b600060209050601f831160018114620008065760008415620007f1578287015190505b620007fd858262000770565b8655506200086d565b601f1984166200081686620005b2565b60005b82811015620008405784890151825560018201915060208501945060208101905062000819565b868310156200086057848901516200085c601f89168262000750565b8355505b6001600288020188555050505b505050505050565b612abb80620008856000396000f3fe608060405234801561001057600080fd5b50600436106101a95760003560e01c80636352211e116100f9578063a22cb46511610097578063d539139311610071578063d5391393146104b8578063d547741f146104d6578063e63ab1e9146104f2578063e985e9c514610510576101a9565b8063a22cb46514610450578063b88d4fde1461046c578063c87b56dd14610488576101a9565b80638456cb59116100d35780638456cb59146103da57806391d14854146103e457806395d89b4114610414578063a217fddf14610432576101a9565b80636352211e1461034a5780636a6278421461037a57806370a08231146103aa576101a9565b8063282c51f3116101665780633f4ba83a116101405780633f4ba83a146102ea57806342842e0e146102f457806342966c68146103105780635c975abb1461032c576101a9565b8063282c51f3146102945780632f2ff15d146102b257806336568abe146102ce576101a9565b806301ffc9a7146101ae57806306fdde03146101de578063081812fc146101fc578063095ea7b31461022c57806323b872dd14610248578063248a9ca314610264575b600080fd5b6101c860048036038101906101c39190612106565b610540565b6040516101d5919061214e565b60405180910390f35b6101e6610552565b6040516101f391906121f9565b60405180910390f35b61021660048036038101906102119190612251565b6105e4565b60405161022391906122bf565b60405180910390f35b61024660048036038101906102419190612306565b610600565b005b610262600480360381019061025d9190612346565b610616565b005b61027e600480360381019061027991906123cf565b610718565b60405161028b919061240b565b60405180910390f35b61029c610738565b6040516102a9919061240b565b60405180910390f35b6102cc60048036038101906102c79190612426565b61075c565b005b6102e860048036038101906102e39190612426565b61077e565b005b6102f26107f9565b005b61030e60048036038101906103099190612346565b61082e565b005b61032a60048036038101906103259190612251565b61084e565b005b610334610967565b604051610341919061214e565b60405180910390f35b610364600480360381019061035f9190612251565b61097e565b60405161037191906122bf565b60405180910390f35b610394600480360381019061038f9190612466565b610990565b6040516103a191906124a2565b60405180910390f35b6103c460048036038101906103bf9190612466565b6109f7565b6040516103d191906124a2565b60405180910390f35b6103e2610ab1565b005b6103fe60048036038101906103f99190612426565b610ae6565b60405161040b919061214e565b60405180910390f35b61041c610b51565b60405161042991906121f9565b60405180910390f35b61043a610be3565b604051610447919061240b565b60405180910390f35b61046a600480360381019061046591906124e9565b610bea565b005b6104866004803603810190610481919061265e565b610c00565b005b6104a2600480360381019061049d9190612251565b610c25565b6040516104af91906121f9565b60405180910390f35b6104c0610c8e565b6040516104cd919061240b565b60405180910390f35b6104f060048036038101906104eb9190612426565b610cb2565b005b6104fa610cd4565b604051610507919061240b565b60405180910390f35b61052a600480360381019061052591906126e1565b610cf8565b604051610537919061214e565b60405180910390f35b600061054b82610d8c565b9050919050565b60606000805461056190612750565b80601f016020809104026020016040519081016040528092919081815260200182805461058d90612750565b80156105da5780601f106105af576101008083540402835291602001916105da565b820191906000526020600020905b8154815290600101906020018083116105bd57829003601f168201915b5050505050905090565b60006105ef82610e06565b506105f982610e8e565b9050919050565b610612828261060d610ecb565b610ed3565b5050565b600073ffffffffffffffffffffffffffffffffffffffff168273ffffffffffffffffffffffffffffffffffffffff16036106885760006040517f64a0ae9200000000000000000000000000000000000000000000000000000000815260040161067f91906122bf565b60405180910390fd5b600061069c8383610697610ecb565b610ee5565b90508373ffffffffffffffffffffffffffffffffffffffff168173ffffffffffffffffffffffffffffffffffffffff1614610712578382826040517f64283d7b00000000000000000000000000000000000000000000000000000000815260040161070993929190612781565b60405180910390fd5b50505050565b600060076000838152602001908152602001600020600101549050919050565b7f3c11d16cbaffd01df69ce1c404f6340ee057498f5f00246190ea54220576a84881565b61076582610718565b61076e81610f03565b6107788383610f17565b50505050565b610786610ecb565b73ffffffffffffffffffffffffffffffffffffffff168173ffffffffffffffffffffffffffffffffffffffff16146107ea576040517f6697b23200000000000000000000000000000000000000000000000000000000815260040160405180910390fd5b6107f48282611009565b505050565b7f65d7a28e3265b37a6474929f336521b332c1681b933f6cb9f3376673440d862a61082381610f03565b61082b6110fc565b50565b61084983838360405180602001604052806000815250610c00565b505050565b61085661115f565b3373ffffffffffffffffffffffffffffffffffffffff166108768261097e565b73ffffffffffffffffffffffffffffffffffffffff1614806108cb57503373ffffffffffffffffffffffffffffffffffffffff166108b3826105e4565b73ffffffffffffffffffffffffffffffffffffffff16145b806108e457506108e36108dd8261097e565b33610cf8565b5b8061091c575061091b7f3c11d16cbaffd01df69ce1c404f6340ee057498f5f00246190ea54220576a848610916610ecb565b610ae6565b5b61095b576040517f08c379a00000000000000000000000000000000000000000000000000000000081526004016109529061282a565b60405180910390fd5b610964816111a0565b50565b6000600660009054906101000a900460ff16905090565b600061098982610e06565b9050919050565b60007f9f2df0fed2c77648de5860a4cc508cd0818c85b8b8a1ab4ceeef8d981c8956a66109bc81610f03565b6109c461115f565b60006008549050600860008154809291906109de90612879565b91905055506109ed8482611226565b8092505050919050565b60008073ffffffffffffffffffffffffffffffffffffffff168273ffffffffffffffffffffffffffffffffffffffff1603610a6a5760006040517f89c62b64000000000000000000000000000000000000000000000000000000008152600401610a6191906122bf565b60405180910390fd5b600360008373ffffffffffffffffffffffffffffffffffffffff1673ffffffffffffffffffffffffffffffffffffffff168152602001908152602001600020549050919050565b7f65d7a28e3265b37a6474929f336521b332c1681b933f6cb9f3376673440d862a610adb81610f03565b610ae3611244565b50565b60006007600084815260200190815260200160002060000160008373ffffffffffffffffffffffffffffffffffffffff1673ffffffffffffffffffffffffffffffffffffffff16815260200190815260200160002060009054906101000a900460ff16905092915050565b606060018054610b6090612750565b80601f0160208091040260200160405190810160405280929190818152602001828054610b8c90612750565b8015610bd95780601f10610bae57610100808354040283529160200191610bd9565b820191906000526020600020905b815481529060010190602001808311610bbc57829003601f168201915b5050505050905090565b6000801b81565b610bfc610bf5610ecb565b83836112a7565b5050565b610c0b848484610616565b610c1f610c16610ecb565b85858585611416565b50505050565b6060610c3082610e06565b506000610c3b6115c7565b90506000815111610c5b5760405180602001604052806000815250610c86565b80610c65846115de565b604051602001610c769291906128fd565b6040516020818303038152906040525b915050919050565b7f9f2df0fed2c77648de5860a4cc508cd0818c85b8b8a1ab4ceeef8d981c8956a681565b610cbb82610718565b610cc481610f03565b610cce8383611009565b50505050565b7f65d7a28e3265b37a6474929f336521b332c1681b933f6cb9f3376673440d862a81565b6000600560008473ffffffffffffffffffffffffffffffffffffffff1673ffffffffffffffffffffffffffffffffffffffff16815260200190815260200160002060008373ffffffffffffffffffffffffffffffffffffffff1673ffffffffffffffffffffffffffffffffffffffff16815260200190815260200160002060009054906101000a900460ff16905092915050565b60007f7965db0b000000000000000000000000000000000000000000000000000000007bffffffffffffffffffffffffffffffffffffffffffffffffffffffff1916827bffffffffffffffffffffffffffffffffffffffffffffffffffffffff19161480610dff5750610dfe826116ac565b5b9050919050565b600080610e128361178e565b9050600073ffffffffffffffffffffffffffffffffffffffff168173ffffffffffffffffffffffffffffffffffffffff1603610e8557826040517f7e273289000000000000000000000000000000000000000000000000000000008152600401610e7c91906124a2565b60405180910390fd5b80915050919050565b60006004600083815260200190815260200160002060009054906101000a900473ffffffffffffffffffffffffffffffffffffffff169050919050565b600033905090565b610ee083838360016117cb565b505050565b6000610eef61115f565b610efa848484611990565b90509392505050565b610f1481610f0f610ecb565b611baa565b50565b6000610f238383610ae6565b610ffe5760016007600085815260200190815260200160002060000160008473ffffffffffffffffffffffffffffffffffffffff1673ffffffffffffffffffffffffffffffffffffffff16815260200190815260200160002060006101000a81548160ff021916908315150217905550610f9b610ecb565b73ffffffffffffffffffffffffffffffffffffffff168273ffffffffffffffffffffffffffffffffffffffff16847f2f8788117e7eff1d82e926ec794901d17c78024a50270940304540a733656f0d60405160405180910390a460019050611003565b600090505b92915050565b60006110158383610ae6565b156110f15760006007600085815260200190815260200160002060000160008473ffffffffffffffffffffffffffffffffffffffff1673ffffffffffffffffffffffffffffffffffffffff16815260200190815260200160002060006101000a81548160ff02191690831515021790555061108e610ecb565b73ffffffffffffffffffffffffffffffffffffffff168273ffffffffffffffffffffffffffffffffffffffff16847ff6391f5c32d9c69d2a47ea670b442974b53935d1edc7fd64eb21e047a839171b60405160405180910390a4600190506110f6565b600090505b92915050565b611104611bfb565b6000600660006101000a81548160ff0219169083151502179055507f5db9ee0a495bf2e6ff9c91a7834c1ba4fdd244a5e8aa4e537bd38aeae4b073aa611148610ecb565b60405161115591906122bf565b60405180910390a1565b611167610967565b1561119e576040517fd93c066500000000000000000000000000000000000000000000000000000000815260040160405180910390fd5b565b60006111af6000836000610ee5565b9050600073ffffffffffffffffffffffffffffffffffffffff168173ffffffffffffffffffffffffffffffffffffffff160361122257816040517f7e27328900000000000000000000000000000000000000000000000000000000815260040161121991906124a2565b60405180910390fd5b5050565b611240828260405180602001604052806000815250611c3b565b5050565b61124c61115f565b6001600660006101000a81548160ff0219169083151502179055507f62e78cea01bee320cd4e420270b5ea74000d11b0c9f74754ebdbfc544b05a258611290610ecb565b60405161129d91906122bf565b60405180910390a1565b600073ffffffffffffffffffffffffffffffffffffffff168273ffffffffffffffffffffffffffffffffffffffff160361131857816040517f5b08ba1800000000000000000000000000000000000000000000000000000000815260040161130f91906122bf565b60405180910390fd5b80600560008573ffffffffffffffffffffffffffffffffffffffff1673ffffffffffffffffffffffffffffffffffffffff16815260200190815260200160002060008473ffffffffffffffffffffffffffffffffffffffff1673ffffffffffffffffffffffffffffffffffffffff16815260200190815260200160002060006101000a81548160ff0219169083151502179055508173ffffffffffffffffffffffffffffffffffffffff168373ffffffffffffffffffffffffffffffffffffffff167f17307eab39ab6107e8899845ad3d59bd9653f200f220920489ca2b5937696c3183604051611409919061214e565b60405180910390a3505050565b60008373ffffffffffffffffffffffffffffffffffffffff163b11156115c0578273ffffffffffffffffffffffffffffffffffffffff1663150b7a02868685856040518563ffffffff1660e01b81526004016114759493929190612976565b6020604051808303816000875af19250505080156114b157506040513d601f19601f820116820180604052508101906114ae91906129d7565b60015b611535573d80600081146114e1576040519150601f19603f3d011682016040523d82523d6000602084013e6114e6565b606091505b50600081510361152d57836040517f64a0ae9200000000000000000000000000000000000000000000000000000000815260040161152491906122bf565b60405180910390fd5b805181602001fd5b63150b7a0260e01b7bffffffffffffffffffffffffffffffffffffffffffffffffffffffff1916817bffffffffffffffffffffffffffffffffffffffffffffffffffffffff1916146115be57836040517f64a0ae920000000000000000000000000000000000000000000000000000000081526004016115b591906122bf565b60405180910390fd5b505b5050505050565b606060405180602001604052806000815250905090565b6060600060016115ed84611c5f565b01905060008167ffffffffffffffff81111561160c5761160b612533565b5b6040519080825280601f01601f19166020018201604052801561163e5781602001600182028036833780820191505090505b509050600082602001820190505b6001156116a1578080600190039150507f3031323334353637383961626364656600000000000000000000000000000000600a86061a8153600a858161169557611694612a04565b5b0494506000850361164c575b819350505050919050565b60007f80ac58cd000000000000000000000000000000000000000000000000000000007bffffffffffffffffffffffffffffffffffffffffffffffffffffffff1916827bffffffffffffffffffffffffffffffffffffffffffffffffffffffff1916148061177757507f5b5e139f000000000000000000000000000000000000000000000000000000007bffffffffffffffffffffffffffffffffffffffffffffffffffffffff1916827bffffffffffffffffffffffffffffffffffffffffffffffffffffffff1916145b80611787575061178682611db2565b5b9050919050565b60006002600083815260200190815260200160002060009054906101000a900473ffffffffffffffffffffffffffffffffffffffff169050919050565b80806118045750600073ffffffffffffffffffffffffffffffffffffffff168273ffffffffffffffffffffffffffffffffffffffff1614155b1561193857600061181484610e06565b9050600073ffffffffffffffffffffffffffffffffffffffff168373ffffffffffffffffffffffffffffffffffffffff161415801561187f57508273ffffffffffffffffffffffffffffffffffffffff168173ffffffffffffffffffffffffffffffffffffffff1614155b801561189257506118908184610cf8565b155b156118d457826040517fa9fbf51f0000000000000000000000000000000000000000000000000000000081526004016118cb91906122bf565b60405180910390fd5b811561193657838573ffffffffffffffffffffffffffffffffffffffff168273ffffffffffffffffffffffffffffffffffffffff167f8c5be1e5ebec7d5bd14f71427d1e84f3dd0314c0f7b2291e5b200ac8c7c3b92560405160405180910390a45b505b836004600085815260200190815260200160002060006101000a81548173ffffffffffffffffffffffffffffffffffffffff021916908373ffffffffffffffffffffffffffffffffffffffff16021790555050505050565b60008061199c8461178e565b9050600073ffffffffffffffffffffffffffffffffffffffff168373ffffffffffffffffffffffffffffffffffffffff16146119de576119dd818486611e1c565b5b600073ffffffffffffffffffffffffffffffffffffffff168173ffffffffffffffffffffffffffffffffffffffff1614611a6f57611a206000856000806117cb565b6001600360008373ffffffffffffffffffffffffffffffffffffffff1673ffffffffffffffffffffffffffffffffffffffff168152602001908152602001600020600082825403925050819055505b600073ffffffffffffffffffffffffffffffffffffffff168573ffffffffffffffffffffffffffffffffffffffff1614611af2576001600360008773ffffffffffffffffffffffffffffffffffffffff1673ffffffffffffffffffffffffffffffffffffffff168152602001908152602001600020600082825401925050819055505b846002600086815260200190815260200160002060006101000a81548173ffffffffffffffffffffffffffffffffffffffff021916908373ffffffffffffffffffffffffffffffffffffffff160217905550838573ffffffffffffffffffffffffffffffffffffffff168273ffffffffffffffffffffffffffffffffffffffff167fddf252ad1be2c89b69c2b068fc378daa952ba7f163c4a11628f55a4df523b3ef60405160405180910390a4809150509392505050565b611bb48282610ae6565b611bf75780826040517fe2517d3f000000000000000000000000000000000000000000000000000000008152600401611bee929190612a33565b60405180910390fd5b5050565b611c03610967565b611c39576040517f8dfc202b00000000000000000000000000000000000000000000000000000000815260040160405180910390fd5b565b611c458383611ee0565b611c5a611c50610ecb565b6000858585611416565b505050565b600080600090507a184f03e93ff9f4daa797ed6e38ed64bf6a1f0100000000000000008310611cbd577a184f03e93ff9f4daa797ed6e38ed64bf6a1f0100000000000000008381611cb357611cb2612a04565b5b0492506040810190505b6d04ee2d6d415b85acef81000000008310611cfa576d04ee2d6d415b85acef81000000008381611cf057611cef612a04565b5b0492506020810190505b662386f26fc100008310611d2957662386f26fc100008381611d1f57611d1e612a04565b5b0492506010810190505b6305f5e1008310611d52576305f5e1008381611d4857611d47612a04565b5b0492506008810190505b6127108310611d77576127108381611d6d57611d6c612a04565b5b0492506004810190505b60648310611d9a5760648381611d9057611d8f612a04565b5b0492506002810190505b600a8310611da9576001810190505b80915050919050565b60007f01ffc9a7000000000000000000000000000000000000000000000000000000007bffffffffffffffffffffffffffffffffffffffffffffffffffffffff1916827bffffffffffffffffffffffffffffffffffffffffffffffffffffffff1916149050919050565b611e27838383611fd9565b611edb57600073ffffffffffffffffffffffffffffffffffffffff168373ffffffffffffffffffffffffffffffffffffffff1603611e9c57806040517f7e273289000000000000000000000000000000000000000000000000000000008152600401611e9391906124a2565b60405180910390fd5b81816040517f177e802f000000000000000000000000000000000000000000000000000000008152600401611ed2929190612a5c565b60405180910390fd5b505050565b600073ffffffffffffffffffffffffffffffffffffffff168273ffffffffffffffffffffffffffffffffffffffff1603611f525760006040517f64a0ae92000000000000000000000000000000000000000000000000000000008152600401611f4991906122bf565b60405180910390fd5b6000611f6083836000610ee5565b9050600073ffffffffffffffffffffffffffffffffffffffff168173ffffffffffffffffffffffffffffffffffffffff1614611fd45760006040517f73c6ac6e000000000000000000000000000000000000000000000000000000008152600401611fcb91906122bf565b60405180910390fd5b505050565b60008073ffffffffffffffffffffffffffffffffffffffff168373ffffffffffffffffffffffffffffffffffffffff161415801561209157508273ffffffffffffffffffffffffffffffffffffffff168473ffffffffffffffffffffffffffffffffffffffff16148061205257506120518484610cf8565b5b8061209057508273ffffffffffffffffffffffffffffffffffffffff1661207883610e8e565b73ffffffffffffffffffffffffffffffffffffffff16145b5b90509392505050565b6000604051905090565b600080fd5b600080fd5b60007fffffffff0000000000000000000000000000000000000000000000000000000082169050919050565b6120e3816120ae565b81146120ee57600080fd5b50565b600081359050612100816120da565b92915050565b60006020828403121561211c5761211b6120a4565b5b600061212a848285016120f1565b91505092915050565b60008115159050919050565b61214881612133565b82525050565b6000602082019050612163600083018461213f565b92915050565b600081519050919050565b600082825260208201905092915050565b60005b838110156121a3578082015181840152602081019050612188565b60008484015250505050565b6000601f19601f8301169050919050565b60006121cb82612169565b6121d58185612174565b93506121e5818560208601612185565b6121ee816121af565b840191505092915050565b6000602082019050818103600083015261221381846121c0565b905092915050565b6000819050919050565b61222e8161221b565b811461223957600080fd5b50565b60008135905061224b81612225565b92915050565b600060208284031215612267576122666120a4565b5b60006122758482850161223c565b91505092915050565b600073ffffffffffffffffffffffffffffffffffffffff82169050919050565b60006122a98261227e565b9050919050565b6122b98161229e565b82525050565b60006020820190506122d460008301846122b0565b92915050565b6122e38161229e565b81146122ee57600080fd5b50565b600081359050612300816122da565b92915050565b6000806040838503121561231d5761231c6120a4565b5b600061232b858286016122f1565b925050602061233c8582860161223c565b9150509250929050565b60008060006060848603121561235f5761235e6120a4565b5b600061236d868287016122f1565b935050602061237e868287016122f1565b925050604061238f8682870161223c565b9150509250925092565b6000819050919050565b6123ac81612399565b81146123b757600080fd5b50565b6000813590506123c9816123a3565b92915050565b6000602082840312156123e5576123e46120a4565b5b60006123f3848285016123ba565b91505092915050565b61240581612399565b82525050565b600060208201905061242060008301846123fc565b92915050565b6000806040838503121561243d5761243c6120a4565b5b600061244b858286016123ba565b925050602061245c858286016122f1565b9150509250929050565b60006020828403121561247c5761247b6120a4565b5b600061248a848285016122f1565b91505092915050565b61249c8161221b565b82525050565b60006020820190506124b76000830184612493565b92915050565b6124c681612133565b81146124d157600080fd5b50565b6000813590506124e3816124bd565b92915050565b60008060408385031215612500576124ff6120a4565b5b600061250e858286016122f1565b925050602061251f858286016124d4565b9150509250929050565b600080fd5b600080fd5b7f4e487b7100000000000000000000000000000000000000000000000000000000600052604160045260246000fd5b61256b826121af565b810181811067ffffffffffffffff8211171561258a57612589612533565b5b80604052505050565b600061259d61209a565b90506125a98282612562565b919050565b600067ffffffffffffffff8211156125c9576125c8612533565b5b6125d2826121af565b9050602081019050919050565b82818337600083830152505050565b60006126016125fc846125ae565b612593565b90508281526020810184848401111561261d5761261c61252e565b5b6126288482856125df565b509392505050565b600082601f83011261264557612644612529565b5b81356126558482602086016125ee565b91505092915050565b60008060008060808587031215612678576126776120a4565b5b6000612686878288016122f1565b9450506020612697878288016122f1565b93505060406126a88782880161223c565b925050606085013567ffffffffffffffff8111156126c9576126c86120a9565b5b6126d587828801612630565b91505092959194509250565b600080604083850312156126f8576126f76120a4565b5b6000612706858286016122f1565b9250506020612717858286016122f1565b9150509250929050565b7f4e487b7100000000000000000000000000000000000000000000000000000000600052602260045260246000fd5b6000600282049050600182168061276857607f821691505b60208210810361277b5761277a612721565b5b50919050565b600060608201905061279660008301866122b0565b6127a36020830185612493565b6127b060408301846122b0565b949350505050565b7f4e46543a2063616c6c6572206973206e6f74206f776e65722f617070726f766560008201527f642f6275726e6572000000000000000000000000000000000000000000000000602082015250565b6000612814602883612174565b915061281f826127b8565b604082019050919050565b6000602082019050818103600083015261284381612807565b9050919050565b7f4e487b7100000000000000000000000000000000000000000000000000000000600052601160045260246000fd5b60006128848261221b565b91507fffffffffffffffffffffffffffffffffffffffffffffffffffffffffffffffff82036128b6576128b561284a565b5b600182019050919050565b600081905092915050565b60006128d782612169565b6128e181856128c1565b93506128f1818560208601612185565b80840191505092915050565b600061290982856128cc565b915061291582846128cc565b91508190509392505050565b600081519050919050565b600082825260208201905092915050565b600061294882612921565b612952818561292c565b9350612962818560208601612185565b61296b816121af565b840191505092915050565b600060808201905061298b60008301876122b0565b61299860208301866122b0565b6129a56040830185612493565b81810360608301526129b7818461293d565b905095945050505050565b6000815190506129d1816120da565b92915050565b6000602082840312156129ed576129ec6120a4565b5b60006129fb848285016129c2565b91505092915050565b7f4e487b7100000000000000000000000000000000000000000000000000000000600052601260045260246000fd5b6000604082019050612a4860008301856122b0565b612a5560208301846123fc565b9392505050565b6000604082019050612a7160008301856122b0565b612a7e6020830184612493565b939250505056fea2646970667358221220bff117dec6be654eebe4165f9d88c0e84754073e885e14b3b2ddc80fb78ec65b64736f6c63430008140033",
  "linkReferences": {},
  "deployedLinkReferences": {}
}