{
  "_format": "hh-sol-artifact-1",
  "contractName": "Rel",
  "sourceName": "contracts/Rel.sol",
  "abi": [
    {
      "anonymous": false,
      "inputs": [
        {
          "indexed": true,
          "internalType": "address",
          "name": "user",
          "type": "address"
        },
        {
          "indexed": true,
          "internalType": "address",
          "name": "token",
          "type": "address"
        },
        {
          "indexed": true,
          "internalType": "address",
          "name": "recipient",
          "type": "address"
        },
        {
          "indexed": false,
          "internalType": "uint256",
          "name": "amount",
          "type": "uint256"
        },
        {
          "indexed": false,
          "internalType": "uint256",
          "name": "nonce",
          "type": "uint256"
        }
      ],
      "name": "ERC20Relayed",
      "type": "event"
    },
    {
      "anonymous": false,
      "inputs": [
        {
          "indexed": true,
          "internalType": "address",
          "name": "user",
          "type": "address"
        },
        {
          "indexed": true,
          "internalType": "address",
          "name": "token",
          "type": "address"
        },
        {
          "indexed": true,
          "internalType": "address",
          "name": "recipient",
          "type": "address"
        },
        {
          "indexed": false,
          "internalType": "uint256",
          "name": "tokenId",
          "type": "uint256"
        },
        {
          "indexed": false,
          "internalType": "uint256",
          "name": "nonce",
          "type": "uint256"
        }
      ],
      "name": "ERC721Relayed",
      "type": "event"
    },
    {
      "inputs": [
        {
          "internalType": "address",
          "name": "",
          "type": "address"
        }
      ],
      "name": "nonces",
      "outputs": [
        {
          "internalType": "uint256",
          "name": "",
          "type": "uint256"
        }
      ],
      "stateMutability": "view",
      "type": "function"
    },
    {
      "inputs": [
        {
          "internalType": "bytes32",
          "name": "hash",
          "type": "bytes32"
        },
        {
          "internalType": "bytes",
          "name": "signature",
          "type": "bytes"
        }
      ],
      "name": "recoverSigner",
      "outputs": [
        {
          "internalType": "address",
          "name": "",
          "type": "address"
        }
      ],
      "stateMutability": "pure",
      "type": "function"
    },
    {
      "inputs": [
        {
          "internalType": "address",
          "name": "user",
          "type": "address"
        },
        {
          "internalType": "address",
          "name": "token",
          "type": "address"
        },
        {
          "internalType": "address",
          "name": "recipient",
          "type": "address"
        },
        {
          "internalType": "uint256",
          "name": "amount",
          "type": "uint256"
        },
        {
          "internalType": "uint256",
          "name": "nonce",
          "type": "uint256"
        },
        {
          "internalType": "bytes",
          "name": "signature",
          "type": "bytes"
        }
      ],
      "name": "relayERC20",
      "outputs": [],
      "stateMutability": "nonpayable",
      "type": "function"
    },
    {
      "inputs": [
        {
          "internalType": "address",
          "name": "user",
          "type": "address"
        },
        {
          "internalType": "address",
          "name": "token",
          "type": "address"
        },
        {
          "internalType": "address",
          "name": "recipient",
          "type": "address"
        },
        {
          "internalType": "uint256",
          "name": "tokenId",
          "type": "uint256"
        },
        {
          "internalType": "uint256",
          "name": "nonce",
          "type": "uint256"
        },
        {
          "internalType": "bytes",
          "name": "signature",
          "type": "bytes"
        }
      ],
      "name": "relayERC721",
      "outputs": [],
      "stateMutability": "nonpayable",
      "type": "function"
    }
  ],
  "bytecode": "0x6080604052348015600f57600080fd5b506111d38061001f6000396000f3fe608060405234801561001057600080fd5b506004361061004c5760003560e01c80634eafbdef146100515780637a7b01631461006d5780637ecebe001461008957806397aba7f9146100b9575b600080fd5b61006b60048036038101906100669190610a94565b6100e9565b005b61008760048036038101906100829190610a94565b610451565b005b6100a3600480360381019061009e9190610b3d565b6107bb565b6040516100b09190610b79565b60405180910390f35b6100d360048036038101906100ce9190610bca565b6107d3565b6040516100e09190610c35565b60405180910390f35b816000808873ffffffffffffffffffffffffffffffffffffffff1673ffffffffffffffffffffffffffffffffffffffff1681526020019081526020016000205414610169576040517f08c379a000000000000000000000000000000000000000000000000000000000815260040161016090610cad565b60405180910390fd5b60008686868686604051602001610184959493929190610d36565b6040516020818303038152906040528051906020012090506000816040516020016101af9190610e0d565b60405160208183030381529060405280519060200120905060006101d382856107d3565b90508873ffffffffffffffffffffffffffffffffffffffff168173ffffffffffffffffffffffffffffffffffffffff1614610243576040517f08c379a000000000000000000000000000000000000000000000000000000000815260040161023a90610e7f565b60405180910390fd5b6000808a73ffffffffffffffffffffffffffffffffffffffff1673ffffffffffffffffffffffffffffffffffffffff168152602001908152602001600020600081548092919061029290610ece565b91905055506000808973ffffffffffffffffffffffffffffffffffffffff1663a9059cbb8a8a6040516024016102c9929190610f16565b6040516020818303038152906040529060e01b6020820180517bffffffffffffffffffffffffffffffffffffffffffffffffffffffff83818316178352505050506040516103179190610fb0565b6000604051808303816000865af19150503d8060008114610354576040519150601f19603f3d011682016040523d82523d6000602084013e610359565b606091505b509150915081801561038757506000815114806103865750808060200190518101906103859190610fff565b5b5b6103c6576040517f08c379a00000000000000000000000000000000000000000000000000000000081526004016103bd90611078565b60405180910390fd5b8873ffffffffffffffffffffffffffffffffffffffff168a73ffffffffffffffffffffffffffffffffffffffff168c73ffffffffffffffffffffffffffffffffffffffff167f63fac5355634539a34ae2df1eff6e6bc6be9919b287bd50507ce1d3a8fd578d28b8b60405161043c929190611098565b60405180910390a45050505050505050505050565b816000808873ffffffffffffffffffffffffffffffffffffffff1673ffffffffffffffffffffffffffffffffffffffff16815260200190815260200160002054146104d1576040517f08c379a00000000000000000000000000000000000000000000000000000000081526004016104c890610cad565b60405180910390fd5b600086868686866040516020016104ec959493929190610d36565b6040516020818303038152906040528051906020012090506000816040516020016105179190610e0d565b604051602081830303815290604052805190602001209050600061053b82856107d3565b90508873ffffffffffffffffffffffffffffffffffffffff168173ffffffffffffffffffffffffffffffffffffffff16146105ab576040517f08c379a00000000000000000000000000000000000000000000000000000000081526004016105a290610e7f565b60405180910390fd5b6000808a73ffffffffffffffffffffffffffffffffffffffff1673ffffffffffffffffffffffffffffffffffffffff16815260200190815260200160002060008154809291906105fa90610ece565b91905055506000808973ffffffffffffffffffffffffffffffffffffffff166323b872dd8c8b8b604051602401610633939291906110c1565b6040516020818303038152906040529060e01b6020820180517bffffffffffffffffffffffffffffffffffffffffffffffffffffffff83818316178352505050506040516106819190610fb0565b6000604051808303816000865af19150503d80600081146106be576040519150601f19603f3d011682016040523d82523d6000602084013e6106c3565b606091505b50915091508180156106f157506000815114806106f05750808060200190518101906106ef9190610fff565b5b5b610730576040517f08c379a000000000000000000000000000000000000000000000000000000000815260040161072790611078565b60405180910390fd5b8873ffffffffffffffffffffffffffffffffffffffff168a73ffffffffffffffffffffffffffffffffffffffff168c73ffffffffffffffffffffffffffffffffffffffff167fa47cc9798d6767482575610c356f3d66fe3f7545071d2e038d2360b1fbdfdbdc8b8b6040516107a6929190611098565b60405180910390a45050505050505050505050565b60006020528060005260406000206000915090505481565b60008060008060418551146107ee57600093505050506108a0565b6020850151925060408501519150606085015160001a9050601b8160ff16101561082257601b8161081f9190611105565b90505b601b8160ff161415801561083a5750601c8160ff1614155b1561084b57600093505050506108a0565b6001868285856040516000815260200160405260405161086e9493929190611158565b6020604051602081039080840390855afa158015610890573d6000803e3d6000fd5b5050506020604051035193505050505b92915050565b6000604051905090565b600080fd5b600080fd5b600073ffffffffffffffffffffffffffffffffffffffff82169050919050565b60006108e5826108ba565b9050919050565b6108f5816108da565b811461090057600080fd5b50565b600081359050610912816108ec565b92915050565b6000819050919050565b61092b81610918565b811461093657600080fd5b50565b60008135905061094881610922565b92915050565b600080fd5b600080fd5b6000601f19601f8301169050919050565b7f4e487b7100000000000000000000000000000000000000000000000000000000600052604160045260246000fd5b6109a182610958565b810181811067ffffffffffffffff821117156109c0576109bf610969565b5b80604052505050565b60006109d36108a6565b90506109df8282610998565b919050565b600067ffffffffffffffff8211156109ff576109fe610969565b5b610a0882610958565b9050602081019050919050565b82818337600083830152505050565b6000610a37610a32846109e4565b6109c9565b905082815260208101848484011115610a5357610a52610953565b5b610a5e848285610a15565b509392505050565b600082601f830112610a7b57610a7a61094e565b5b8135610a8b848260208601610a24565b91505092915050565b60008060008060008060c08789031215610ab157610ab06108b0565b5b6000610abf89828a01610903565b9650506020610ad089828a01610903565b9550506040610ae189828a01610903565b9450506060610af289828a01610939565b9350506080610b0389828a01610939565b92505060a087013567ffffffffffffffff811115610b2457610b236108b5565b5b610b3089828a01610a66565b9150509295509295509295565b600060208284031215610b5357610b526108b0565b5b6000610b6184828501610903565b91505092915050565b610b7381610918565b82525050565b6000602082019050610b8e6000830184610b6a565b92915050565b6000819050919050565b610ba781610b94565b8114610bb257600080fd5b50565b600081359050610bc481610b9e565b92915050565b60008060408385031215610be157610be06108b0565b5b6000610bef85828601610bb5565b925050602083013567ffffffffffffffff811115610c1057610c0f6108b5565b5b610c1c85828601610a66565b9150509250929050565b610c2f816108da565b82525050565b6000602082019050610c4a6000830184610c26565b92915050565b600082825260208201905092915050565b7f496e76616c6964206e6f6e636500000000000000000000000000000000000000600082015250565b6000610c97600d83610c50565b9150610ca282610c61565b602082019050919050565b60006020820190508181036000830152610cc681610c8a565b9050919050565b60008160601b9050919050565b6000610ce582610ccd565b9050919050565b6000610cf782610cda565b9050919050565b610d0f610d0a826108da565b610cec565b82525050565b6000819050919050565b610d30610d2b82610918565b610d15565b82525050565b6000610d428288610cfe565b601482019150610d528287610cfe565b601482019150610d628286610cfe565b601482019150610d728285610d1f565b602082019150610d828284610d1f565b6020820191508190509695505050505050565b600081905092915050565b7f19457468657265756d205369676e6564204d6573736167653a0a333200000000600082015250565b6000610dd6601c83610d95565b9150610de182610da0565b601c82019050919050565b6000819050919050565b610e07610e0282610b94565b610dec565b82525050565b6000610e1882610dc9565b9150610e248284610df6565b60208201915081905092915050565b7f496e76616c6964207369676e6174757265000000000000000000000000000000600082015250565b6000610e69601183610c50565b9150610e7482610e33565b602082019050919050565b60006020820190508181036000830152610e9881610e5c565b9050919050565b7f4e487b7100000000000000000000000000000000000000000000000000000000600052601160045260246000fd5b6000610ed982610918565b91507fffffffffffffffffffffffffffffffffffffffffffffffffffffffffffffffff8203610f0b57610f0a610e9f565b5b600182019050919050565b6000604082019050610f2b6000830185610c26565b610f386020830184610b6a565b9392505050565b600081519050919050565b600081905092915050565b60005b83811015610f73578082015181840152602081019050610f58565b60008484015250505050565b6000610f8a82610f3f565b610f948185610f4a565b9350610fa4818560208601610f55565b80840191505092915050565b6000610fbc8284610f7f565b915081905092915050565b60008115159050919050565b610fdc81610fc7565b8114610fe757600080fd5b50565b600081519050610ff981610fd3565b92915050565b600060208284031215611015576110146108b0565b5b600061102384828501610fea565b91505092915050565b7f546f6b656e207472616e73666572206661696c65640000000000000000000000600082015250565b6000611062601583610c50565b915061106d8261102c565b602082019050919050565b6000602082019050818103600083015261109181611055565b9050919050565b60006040820190506110ad6000830185610b6a565b6110ba6020830184610b6a565b9392505050565b60006060820190506110d66000830186610c26565b6110e36020830185610c26565b6110f06040830184610b6a565b949350505050565b600060ff82169050919050565b6000611110826110f8565b915061111b836110f8565b9250828201905060ff81111561113457611133610e9f565b5b92915050565b61114381610b94565b82525050565b611152816110f8565b82525050565b600060808201905061116d600083018761113a565b61117a6020830186611149565b611187604083018561113a565b611194606083018461113a565b9594505050505056fea26469706673582212205bdcb19fc2454975f8065cdf749704b9fffe4d7464e1744e163a62da10b1bbb464736f6c634300081c0033",
  "linkReferences": {},
  "deployedLinkReferences": {}
}