{
  "_format": "hh-sol-artifact-1",
  "contractName": "BridgeAmoyV2",
  "sourceName": "contracts/BridgeAmoyV2.sol",
  "abi": [
    {
      "inputs": [
        {
          "internalType": "address",
          "name": "_token",
          "type": "address"
        },
        {
          "internalType": "address",
          "name": "_relayerManager",
          "type": "address"
        },
        {
          "internalType": "address",
          "name": "admin",
          "type": "address"
        },
        {
          "internalType": "uint256",
          "name": "_minTransferAmount",
          "type": "uint256"
        },
        {
          "internalType": "uint256",
          "name": "_maxTransferAmount",
          "type": "uint256"
        }
      ],
      "stateMutability": "nonpayable",
      "type": "constructor"
    },
    {
      "inputs": [],
      "name": "AccessControlBadConfirmation",
      "type": "error"
    },
    {
      "inputs": [
        {
          "internalType": "address",
          "name": "account",
          "type": "address"
        },
        {
          "internalType": "bytes32",
          "name": "neededRole",
          "type": "bytes32"
        }
      ],
      "name": "AccessControlUnauthorizedAccount",
      "type": "error"
    },
    {
      "inputs": [],
      "name": "EnforcedPause",
      "type": "error"
    },
    {
      "inputs": [],
      "name": "ExpectedPause",
      "type": "error"
    },
    {
      "inputs": [],
      "name": "ReentrancyGuardReentrantCall",
      "type": "error"
    },
    {
      "anonymous": false,
      "inputs": [
        {
          "indexed": false,
          "internalType": "uint256",
          "name": "newMinAmount",
          "type": "uint256"
        },
        {
          "indexed": false,
          "internalType": "uint256",
          "name": "newMaxAmount",
          "type": "uint256"
        }
      ],
      "name": "BridgeLimitsUpdated",
      "type": "event"
    },
    {
      "anonymous": false,
      "inputs": [
        {
          "indexed": true,
          "internalType": "bytes32",
          "name": "requestId",
          "type": "bytes32"
        },
        {
          "indexed": true,
          "internalType": "address",
          "name": "user",
          "type": "address"
        },
        {
          "indexed": true,
          "internalType": "address",
          "name": "recipient",
          "type": "address"
        },
        {
          "indexed": false,
          "internalType": "uint256",
          "name": "amount",
          "type": "uint256"
        }
      ],
      "name": "LockRequested",
      "type": "event"
    },
    {
      "anonymous": false,
      "inputs": [
        {
          "indexed": false,
          "internalType": "address",
          "name": "account",
          "type": "address"
        }
      ],
      "name": "Paused",
      "type": "event"
    },
    {
      "anonymous": false,
      "inputs": [
        {
          "indexed": true,
          "internalType": "bytes32",
          "name": "role",
          "type": "bytes32"
        },
        {
          "indexed": true,
          "internalType": "bytes32",
          "name": "previousAdminRole",
          "type": "bytes32"
        },
        {
          "indexed": true,
          "internalType": "bytes32",
          "name": "newAdminRole",
          "type": "bytes32"
        }
      ],
      "name": "RoleAdminChanged",
      "type": "event"
    },
    {
      "anonymous": false,
      "inputs": [
        {
          "indexed": true,
          "internalType": "bytes32",
          "name": "role",
          "type": "bytes32"
        },
        {
          "indexed": true,
          "internalType": "address",
          "name": "account",
          "type": "address"
        },
        {
          "indexed": true,
          "internalType": "address",
          "name": "sender",
          "type": "address"
        }
      ],
      "name": "RoleGranted",
      "type": "event"
    },
    {
      "anonymous": false,
      "inputs": [
        {
          "indexed": true,
          "internalType": "bytes32",
          "name": "role",
          "type": "bytes32"
        },
        {
          "indexed": true,
          "internalType": "address",
          "name": "account",
          "type": "address"
        },
        {
          "indexed": true,
          "internalType": "address",
          "name": "sender",
          "type": "address"
        }
      ],
      "name": "RoleRevoked",
      "type": "event"
    },
    {
      "anonymous": false,
      "inputs": [
        {
          "indexed": true,
          "internalType": "bytes32",
          "name": "requestId",
          "type": "bytes32"
        },
        {
          "indexed": true,
          "internalType": "address",
          "name": "executor",
          "type": "address"
        },
        {
          "indexed": false,
          "internalType": "bool",
          "name": "success",
          "type": "bool"
        }
      ],
      "name": "TransferProcessed",
      "type": "event"
    },
    {
      "anonymous": false,
      "inputs": [
        {
          "indexed": false,
          "internalType": "address",
          "name": "account",
          "type": "address"
        }
      ],
      "name": "Unpaused",
      "type": "event"
    },
    {
      "inputs": [],
      "name": "ADMIN_ROLE",
      "outputs": [
        {
          "internalType": "bytes32",
          "name": "",
          "type": "bytes32"
        }
      ],
      "stateMutability": "view",
      "type": "function"
    },
    {
      "inputs": [],
      "name": "DEFAULT_ADMIN_ROLE",
      "outputs": [
        {
          "internalType": "bytes32",
          "name": "",
          "type": "bytes32"
        }
      ],
      "stateMutability": "view",
      "type": "function"
    },
    {
      "inputs": [],
      "name": "OPERATOR_ROLE",
      "outputs": [
        {
          "internalType": "bytes32",
          "name": "",
          "type": "bytes32"
        }
      ],
      "stateMutability": "view",
      "type": "function"
    },
    {
      "inputs": [],
      "name": "PAUSER_ROLE",
      "outputs": [
        {
          "internalType": "bytes32",
          "name": "",
          "type": "bytes32"
        }
      ],
      "stateMutability": "view",
      "type": "function"
    },
    {
      "inputs": [
        {
          "internalType": "address",
          "name": "token_",
          "type": "address"
        },
        {
          "internalType": "address",
          "name": "to",
          "type": "address"
        },
        {
          "internalType": "uint256",
          "name": "amount",
          "type": "uint256"
        }
      ],
      "name": "emergencyWithdraw",
      "outputs": [],
      "stateMutability": "nonpayable",
      "type": "function"
    },
    {
      "inputs": [
        {
          "internalType": "bytes32",
          "name": "role",
          "type": "bytes32"
        }
      ],
      "name": "getRoleAdmin",
      "outputs": [
        {
          "internalType": "bytes32",
          "name": "",
          "type": "bytes32"
        }
      ],
      "stateMutability": "view",
      "type": "function"
    },
    {
      "inputs": [
        {
          "internalType": "bytes32",
          "name": "role",
          "type": "bytes32"
        },
        {
          "internalType": "address",
          "name": "account",
          "type": "address"
        }
      ],
      "name": "grantRole",
      "outputs": [],
      "stateMutability": "nonpayable",
      "type": "function"
    },
    {
      "inputs": [
        {
          "internalType": "bytes32",
          "name": "role",
          "type": "bytes32"
        },
        {
          "internalType": "address",
          "name": "account",
          "type": "address"
        }
      ],
      "name": "hasRole",
      "outputs": [
        {
          "internalType": "bool",
          "name": "",
          "type": "bool"
        }
      ],
      "stateMutability": "view",
      "type": "function"
    },
    {
      "inputs": [
        {
          "internalType": "uint256",
          "name": "amount",
          "type": "uint256"
        },
        {
          "internalType": "address",
          "name": "recipient",
          "type": "address"
        }
      ],
      "name": "lockWithRelay",
      "outputs": [],
      "stateMutability": "nonpayable",
      "type": "function"
    },
    {
      "inputs": [],
      "name": "maxTransferAmount",
      "outputs": [
        {
          "internalType": "uint256",
          "name": "",
          "type": "uint256"
        }
      ],
      "stateMutability": "view",
      "type": "function"
    },
    {
      "inputs": [],
      "name": "minTransferAmount",
      "outputs": [
        {
          "internalType": "uint256",
          "name": "",
          "type": "uint256"
        }
      ],
      "stateMutability": "view",
      "type": "function"
    },
    {
      "inputs": [],
      "name": "pause",
      "outputs": [],
      "stateMutability": "nonpayable",
      "type": "function"
    },
    {
      "inputs": [],
      "name": "paused",
      "outputs": [
        {
          "internalType": "bool",
          "name": "",
          "type": "bool"
        }
      ],
      "stateMutability": "view",
      "type": "function"
    },
    {
      "inputs": [
        {
          "internalType": "bytes32",
          "name": "",
          "type": "bytes32"
        }
      ],
      "name": "processedRequests",
      "outputs": [
        {
          "internalType": "bool",
          "name": "",
          "type": "bool"
        }
      ],
      "stateMutability": "view",
      "type": "function"
    },
    {
      "inputs": [],
      "name": "relayerManager",
      "outputs": [
        {
          "internalType": "contract IRelayerManager",
          "name": "",
          "type": "address"
        }
      ],
      "stateMutability": "view",
      "type": "function"
    },
    {
      "inputs": [
        {
          "internalType": "bytes32",
          "name": "role",
          "type": "bytes32"
        },
        {
          "internalType": "address",
          "name": "callerConfirmation",
          "type": "address"
        }
      ],
      "name": "renounceRole",
      "outputs": [],
      "stateMutability": "nonpayable",
      "type": "function"
    },
    {
      "inputs": [
        {
          "internalType": "bytes32",
          "name": "role",
          "type": "bytes32"
        },
        {
          "internalType": "address",
          "name": "account",
          "type": "address"
        }
      ],
      "name": "revokeRole",
      "outputs": [],
      "stateMutability": "nonpayable",
      "type": "function"
    },
    {
      "inputs": [
        {
          "internalType": "bytes4",
          "name": "interfaceId",
          "type": "bytes4"
        }
      ],
      "name": "supportsInterface",
      "outputs": [
        {
          "internalType": "bool",
          "name": "",
          "type": "bool"
        }
      ],
      "stateMutability": "view",
      "type": "function"
    },
    {
      "inputs": [],
      "name": "token",
      "outputs": [
        {
          "internalType": "contract IAmoyToken",
          "name": "",
          "type": "address"
        }
      ],
      "stateMutability": "view",
      "type": "function"
    },
    {
      "inputs": [
        {
          "internalType": "bytes32",
          "name": "requestId",
          "type": "bytes32"
        },
        {
          "internalType": "address",
          "name": "recipient",
          "type": "address"
        },
        {
          "internalType": "uint256",
          "name": "amount",
          "type": "uint256"
        },
        {
          "internalType": "bytes32[]",
          "name": "relayerProof",
          "type": "bytes32[]"
        }
      ],
      "name": "unlock",
      "outputs": [],
      "stateMutability": "nonpayable",
      "type": "function"
    },
    {
      "inputs": [],
      "name": "unpause",
      "outputs": [],
      "stateMutability": "nonpayable",
      "type": "function"
    },
    {
      "inputs": [
        {
          "internalType": "uint256",
          "name": "_minAmount",
          "type": "uint256"
        },
        {
          "internalType": "uint256",
          "name": "_maxAmount",
          "type": "uint256"
        }
      ],
      "name": "updateTransferLimits",
      "outputs": [],
      "stateMutability": "nonpayable",
      "type": "function"
    }
  ],
  "bytecode": "0x60806040523480156200001157600080fd5b506040516200231a3803806200231a8339818101604052810190620000379190620003bd565b600180819055506000600260006101000a81548160ff02191690831515021790555084600260016101000a81548173ffffffffffffffffffffffffffffffffffffffff021916908373ffffffffffffffffffffffffffffffffffffffff16021790555083600360006101000a81548173ffffffffffffffffffffffffffffffffffffffff021916908373ffffffffffffffffffffffffffffffffffffffff1602179055508160068190555080600581905550620000fe6000801b84620001a360201b60201c565b50620001317fa49807205ce4d355092ef5a8a18f56e8913cf4a201fbe287825b095693c2177584620001a360201b60201c565b50620001647f97667070c54ef182b0f5858b034beac1b6f3089aa2d3188bb1e8929f4fa9b92984620001a360201b60201c565b50620001977f65d7a28e3265b37a6474929f336521b332c1681b933f6cb9f3376673440d862a84620001a360201b60201c565b50505050505062000445565b6000620001b78383620002a660201b60201c565b6200029b57600160008085815260200190815260200160002060000160008473ffffffffffffffffffffffffffffffffffffffff1673ffffffffffffffffffffffffffffffffffffffff16815260200190815260200160002060006101000a81548160ff021916908315150217905550620002376200031060201b60201c565b73ffffffffffffffffffffffffffffffffffffffff168273ffffffffffffffffffffffffffffffffffffffff16847f2f8788117e7eff1d82e926ec794901d17c78024a50270940304540a733656f0d60405160405180910390a460019050620002a0565b600090505b92915050565b600080600084815260200190815260200160002060000160008373ffffffffffffffffffffffffffffffffffffffff1673ffffffffffffffffffffffffffffffffffffffff16815260200190815260200160002060009054906101000a900460ff16905092915050565b600033905090565b600080fd5b600073ffffffffffffffffffffffffffffffffffffffff82169050919050565b60006200034a826200031d565b9050919050565b6200035c816200033d565b81146200036857600080fd5b50565b6000815190506200037c8162000351565b92915050565b6000819050919050565b620003978162000382565b8114620003a357600080fd5b50565b600081519050620003b7816200038c565b92915050565b600080600080600060a08688031215620003dc57620003db62000318565b5b6000620003ec888289016200036b565b9550506020620003ff888289016200036b565b945050604062000412888289016200036b565b93505060606200042588828901620003a6565b92505060806200043888828901620003a6565b9150509295509295909350565b611ec580620004556000396000f3fe608060405234801561001057600080fd5b50600436106101425760003560e01c80639c33ee1e116100b8578063cfbc3cfd1161007c578063cfbc3cfd1461033f578063d547741f1461035b578063e63ab1e914610377578063e63ea40814610395578063f5b541a6146103b1578063fc0c546a146103cf57610142565b80639c33ee1e14610299578063a217fddf146102b5578063a9e75723146102d3578063c71d36b3146102f1578063ce0fa5a91461030f57610142565b80633f4ba83a1161010a5780633f4ba83a146101fb5780635c975abb14610205578063688414311461022357806375b238fc146102415780638456cb591461025f57806391d148541461026957610142565b806301ffc9a71461014757806307751d4b14610177578063248a9ca3146101935780632f2ff15d146101c357806336568abe146101df575b600080fd5b610161600480360381019061015c9190611466565b6103ed565b60405161016e91906114ae565b60405180910390f35b610191600480360381019061018c919061155d565b610467565b005b6101ad60048036038101906101a891906115d3565b610771565b6040516101ba919061160f565b60405180910390f35b6101dd60048036038101906101d8919061162a565b610790565b005b6101f960048036038101906101f4919061162a565b6107b2565b005b61020361082d565b005b61020d610862565b60405161021a91906114ae565b60405180910390f35b61022b610879565b6040516102389190611679565b60405180910390f35b61024961087f565b604051610256919061160f565b60405180910390f35b6102676108a3565b005b610283600480360381019061027e919061162a565b6108d8565b60405161029091906114ae565b60405180910390f35b6102b360048036038101906102ae91906116f9565b610942565b005b6102bd610cfa565b6040516102ca919061160f565b60405180910390f35b6102db610d01565b6040516102e89190611679565b60405180910390f35b6102f9610d07565b60405161030691906117e0565b60405180910390f35b610329600480360381019061032491906115d3565b610d2d565b60405161033691906114ae565b60405180910390f35b610359600480360381019061035491906117fb565b610d4d565b005b6103756004803603810190610370919061162a565b610e06565b005b61037f610e28565b60405161038c919061160f565b60405180910390f35b6103af60048036038101906103aa919061183b565b610e4c565b005b6103b9610f6a565b6040516103c6919061160f565b60405180910390f35b6103d7610f8e565b6040516103e491906118af565b60405180910390f35b60007f7965db0b000000000000000000000000000000000000000000000000000000007bffffffffffffffffffffffffffffffffffffffffffffffffffffffff1916827bffffffffffffffffffffffffffffffffffffffffffffffffffffffff19161480610460575061045f82610fb4565b5b9050919050565b61046f61101e565b610477611064565b6006548210156104bc576040517f08c379a00000000000000000000000000000000000000000000000000000000081526004016104b390611927565b60405180910390fd5b600554821115610501576040517f08c379a00000000000000000000000000000000000000000000000000000000081526004016104f890611993565b60405180910390fd5b600073ffffffffffffffffffffffffffffffffffffffff168173ffffffffffffffffffffffffffffffffffffffff1603610570576040517f08c379a0000000000000000000000000000000000000000000000000000000008152600401610567906119ff565b60405180910390fd5b600260019054906101000a900473ffffffffffffffffffffffffffffffffffffffff1673ffffffffffffffffffffffffffffffffffffffff166323b872dd3330856040518463ffffffff1660e01b81526004016105cf93929190611a2e565b6020604051808303816000875af11580156105ee573d6000803e3d6000fd5b505050506040513d601f19601f820116820180604052508101906106129190611a91565b610651576040517f08c379a000000000000000000000000000000000000000000000000000000000815260040161064890611b0a565b60405180910390fd5b6000600360009054906101000a900473ffffffffffffffffffffffffffffffffffffffff1673ffffffffffffffffffffffffffffffffffffffff16635f08320c338486424662aa36a76040518763ffffffff1660e01b81526004016106bb96959493929190611b65565b602060405180830381865afa1580156106d8573d6000803e3d6000fd5b505050506040513d601f19601f820116820180604052508101906106fc9190611bdb565b90508173ffffffffffffffffffffffffffffffffffffffff163373ffffffffffffffffffffffffffffffffffffffff16827ff1992c8013635e041f43112c0802a6b10c6240ebae0ee501dbbf66b664f55afc8660405161075c9190611679565b60405180910390a45061076d6110a5565b5050565b6000806000838152602001908152602001600020600101549050919050565b61079982610771565b6107a2816110ae565b6107ac83836110c2565b50505050565b6107ba6111b3565b73ffffffffffffffffffffffffffffffffffffffff168173ffffffffffffffffffffffffffffffffffffffff161461081e576040517f6697b23200000000000000000000000000000000000000000000000000000000815260040160405180910390fd5b61082882826111bb565b505050565b7f65d7a28e3265b37a6474929f336521b332c1681b933f6cb9f3376673440d862a610857816110ae565b61085f6112ad565b50565b6000600260009054906101000a900460ff16905090565b60065481565b7fa49807205ce4d355092ef5a8a18f56e8913cf4a201fbe287825b095693c2177581565b7f65d7a28e3265b37a6474929f336521b332c1681b933f6cb9f3376673440d862a6108cd816110ae565b6108d5611310565b50565b600080600084815260200190815260200160002060000160008373ffffffffffffffffffffffffffffffffffffffff1673ffffffffffffffffffffffffffffffffffffffff16815260200190815260200160002060009054906101000a900460ff16905092915050565b61094a61101e565b610952611064565b600360009054906101000a900473ffffffffffffffffffffffffffffffffffffffff1673ffffffffffffffffffffffffffffffffffffffff16631d0e2d393384846040518463ffffffff1660e01b81526004016109b193929190611c83565b602060405180830381865afa1580156109ce573d6000803e3d6000fd5b505050506040513d601f19601f820116820180604052508101906109f29190611a91565b610a31576040517f08c379a0000000000000000000000000000000000000000000000000000000008152600401610a2890611d01565b60405180910390fd5b6004600086815260200190815260200160002060009054906101000a900460ff1615610a92576040517f08c379a0000000000000000000000000000000000000000000000000000000008152600401610a8990611d6d565b60405180910390fd5b600073ffffffffffffffffffffffffffffffffffffffff168473ffffffffffffffffffffffffffffffffffffffff1603610b01576040517f08c379a0000000000000000000000000000000000000000000000000000000008152600401610af8906119ff565b60405180910390fd5b600654831015610b46576040517f08c379a0000000000000000000000000000000000000000000000000000000008152600401610b3d90611927565b60405180910390fd5b600554831115610b8b576040517f08c379a0000000000000000000000000000000000000000000000000000000008152600401610b8290611993565b60405180910390fd5b60016004600087815260200190815260200160002060006101000a81548160ff0219169083151502179055506000600260019054906101000a900473ffffffffffffffffffffffffffffffffffffffff1673ffffffffffffffffffffffffffffffffffffffff1663a9059cbb86866040518363ffffffff1660e01b8152600401610c16929190611d8d565b6020604051808303816000875af1158015610c35573d6000803e3d6000fd5b505050506040513d601f19601f82011682018060405250810190610c599190611a91565b90503373ffffffffffffffffffffffffffffffffffffffff16867fda9d29c0150c0268dd4e85262a981fd351a812a9f7058ac6606c0c18661be7ab83604051610ca291906114ae565b60405180910390a380610cea576040517f08c379a0000000000000000000000000000000000000000000000000000000008152600401610ce190611b0a565b60405180910390fd5b50610cf36110a5565b5050505050565b6000801b81565b60055481565b600360009054906101000a900473ffffffffffffffffffffffffffffffffffffffff1681565b60046020528060005260406000206000915054906101000a900460ff1681565b7fa49807205ce4d355092ef5a8a18f56e8913cf4a201fbe287825b095693c21775610d77816110ae565b81831115610dba576040517f08c379a0000000000000000000000000000000000000000000000000000000008152600401610db190611e02565b60405180910390fd5b82600681905550816005819055507fcfc62648bfe6689bfdf06f50d3233f77d9e91b33d62e0b52350865779cd831518383604051610df9929190611e22565b60405180910390a1505050565b610e0f82610771565b610e18816110ae565b610e2283836111bb565b50505050565b7f65d7a28e3265b37a6474929f336521b332c1681b933f6cb9f3376673440d862a81565b7fa49807205ce4d355092ef5a8a18f56e8913cf4a201fbe287825b095693c21775610e76816110ae565b600073ffffffffffffffffffffffffffffffffffffffff168373ffffffffffffffffffffffffffffffffffffffff1603610ee5576040517f08c379a0000000000000000000000000000000000000000000000000000000008152600401610edc906119ff565b60405180910390fd5b8373ffffffffffffffffffffffffffffffffffffffff1663a9059cbb84846040518363ffffffff1660e01b8152600401610f20929190611d8d565b6020604051808303816000875af1158015610f3f573d6000803e3d6000fd5b505050506040513d601f19601f82011682018060405250810190610f639190611a91565b5050505050565b7f97667070c54ef182b0f5858b034beac1b6f3089aa2d3188bb1e8929f4fa9b92981565b600260019054906101000a900473ffffffffffffffffffffffffffffffffffffffff1681565b60007f01ffc9a7000000000000000000000000000000000000000000000000000000007bffffffffffffffffffffffffffffffffffffffffffffffffffffffff1916827bffffffffffffffffffffffffffffffffffffffffffffffffffffffff1916149050919050565b60026001540361105a576040517f3ee5aeb500000000000000000000000000000000000000000000000000000000815260040160405180910390fd5b6002600181905550565b61106c610862565b156110a3576040517fd93c066500000000000000000000000000000000000000000000000000000000815260040160405180910390fd5b565b60018081905550565b6110bf816110ba6111b3565b611373565b50565b60006110ce83836108d8565b6111a857600160008085815260200190815260200160002060000160008473ffffffffffffffffffffffffffffffffffffffff1673ffffffffffffffffffffffffffffffffffffffff16815260200190815260200160002060006101000a81548160ff0219169083151502179055506111456111b3565b73ffffffffffffffffffffffffffffffffffffffff168273ffffffffffffffffffffffffffffffffffffffff16847f2f8788117e7eff1d82e926ec794901d17c78024a50270940304540a733656f0d60405160405180910390a4600190506111ad565b600090505b92915050565b600033905090565b60006111c783836108d8565b156112a257600080600085815260200190815260200160002060000160008473ffffffffffffffffffffffffffffffffffffffff1673ffffffffffffffffffffffffffffffffffffffff16815260200190815260200160002060006101000a81548160ff02191690831515021790555061123f6111b3565b73ffffffffffffffffffffffffffffffffffffffff168273ffffffffffffffffffffffffffffffffffffffff16847ff6391f5c32d9c69d2a47ea670b442974b53935d1edc7fd64eb21e047a839171b60405160405180910390a4600190506112a7565b600090505b92915050565b6112b56113c4565b6000600260006101000a81548160ff0219169083151502179055507f5db9ee0a495bf2e6ff9c91a7834c1ba4fdd244a5e8aa4e537bd38aeae4b073aa6112f96111b3565b6040516113069190611e4b565b60405180910390a1565b611318611064565b6001600260006101000a81548160ff0219169083151502179055507f62e78cea01bee320cd4e420270b5ea74000d11b0c9f74754ebdbfc544b05a25861135c6111b3565b6040516113699190611e4b565b60405180910390a1565b61137d82826108d8565b6113c05780826040517fe2517d3f0000000000000000000000000000000000000000000000000000000081526004016113b7929190611e66565b60405180910390fd5b5050565b6113cc610862565b611402576040517f8dfc202b00000000000000000000000000000000000000000000000000000000815260040160405180910390fd5b565b600080fd5b600080fd5b60007fffffffff0000000000000000000000000000000000000000000000000000000082169050919050565b6114438161140e565b811461144e57600080fd5b50565b6000813590506114608161143a565b92915050565b60006020828403121561147c5761147b611404565b5b600061148a84828501611451565b91505092915050565b60008115159050919050565b6114a881611493565b82525050565b60006020820190506114c3600083018461149f565b92915050565b6000819050919050565b6114dc816114c9565b81146114e757600080fd5b50565b6000813590506114f9816114d3565b92915050565b600073ffffffffffffffffffffffffffffffffffffffff82169050919050565b600061152a826114ff565b9050919050565b61153a8161151f565b811461154557600080fd5b50565b60008135905061155781611531565b92915050565b6000806040838503121561157457611573611404565b5b6000611582858286016114ea565b925050602061159385828601611548565b9150509250929050565b6000819050919050565b6115b08161159d565b81146115bb57600080fd5b50565b6000813590506115cd816115a7565b92915050565b6000602082840312156115e9576115e8611404565b5b60006115f7848285016115be565b91505092915050565b6116098161159d565b82525050565b60006020820190506116246000830184611600565b92915050565b6000806040838503121561164157611640611404565b5b600061164f858286016115be565b925050602061166085828601611548565b9150509250929050565b611673816114c9565b82525050565b600060208201905061168e600083018461166a565b92915050565b600080fd5b600080fd5b600080fd5b60008083601f8401126116b9576116b8611694565b5b8235905067ffffffffffffffff8111156116d6576116d5611699565b5b6020830191508360208202830111156116f2576116f161169e565b5b9250929050565b60008060008060006080868803121561171557611714611404565b5b6000611723888289016115be565b955050602061173488828901611548565b9450506040611745888289016114ea565b935050606086013567ffffffffffffffff81111561176657611765611409565b5b611772888289016116a3565b92509250509295509295909350565b6000819050919050565b60006117a66117a161179c846114ff565b611781565b6114ff565b9050919050565b60006117b88261178b565b9050919050565b60006117ca826117ad565b9050919050565b6117da816117bf565b82525050565b60006020820190506117f560008301846117d1565b92915050565b6000806040838503121561181257611811611404565b5b6000611820858286016114ea565b9250506020611831858286016114ea565b9150509250929050565b60008060006060848603121561185457611853611404565b5b600061186286828701611548565b935050602061187386828701611548565b9250506040611884868287016114ea565b9150509250925092565b6000611899826117ad565b9050919050565b6118a98161188e565b82525050565b60006020820190506118c460008301846118a0565b92915050565b600082825260208201905092915050565b7f416d6f756e742062656c6f77206d696e696d756d000000000000000000000000600082015250565b60006119116014836118ca565b915061191c826118db565b602082019050919050565b6000602082019050818103600083015261194081611904565b9050919050565b7f416d6f756e742061626f7665206d6178696d756d000000000000000000000000600082015250565b600061197d6014836118ca565b915061198882611947565b602082019050919050565b600060208201905081810360008301526119ac81611970565b9050919050565b7f496e76616c696420726563697069656e74000000000000000000000000000000600082015250565b60006119e96011836118ca565b91506119f4826119b3565b602082019050919050565b60006020820190508181036000830152611a18816119dc565b9050919050565b611a288161151f565b82525050565b6000606082019050611a436000830186611a1f565b611a506020830185611a1f565b611a5d604083018461166a565b949350505050565b611a6e81611493565b8114611a7957600080fd5b50565b600081519050611a8b81611a65565b92915050565b600060208284031215611aa757611aa6611404565b5b6000611ab584828501611a7c565b91505092915050565b7f5472616e73666572206661696c65640000000000000000000000000000000000600082015250565b6000611af4600f836118ca565b9150611aff82611abe565b602082019050919050565b60006020820190508181036000830152611b2381611ae7565b9050919050565b6000819050919050565b6000611b4f611b4a611b4584611b2a565b611781565b6114c9565b9050919050565b611b5f81611b34565b82525050565b600060c082019050611b7a6000830189611a1f565b611b876020830188611a1f565b611b94604083018761166a565b611ba1606083018661166a565b611bae608083018561166a565b611bbb60a0830184611b56565b979650505050505050565b600081519050611bd5816115a7565b92915050565b600060208284031215611bf157611bf0611404565b5b6000611bff84828501611bc6565b91505092915050565b600082825260208201905092915050565b600080fd5b82818337505050565b6000611c338385611c08565b93507f07ffffffffffffffffffffffffffffffffffffffffffffffffffffffffffffff831115611c6657611c65611c19565b5b602083029250611c77838584611c1e565b82840190509392505050565b6000604082019050611c986000830186611a1f565b8181036020830152611cab818486611c27565b9050949350505050565b7f496e76616c69642072656c617965720000000000000000000000000000000000600082015250565b6000611ceb600f836118ca565b9150611cf682611cb5565b602082019050919050565b60006020820190508181036000830152611d1a81611cde565b9050919050565b7f5265717565737420616c72656164792070726f63657373656400000000000000600082015250565b6000611d576019836118ca565b9150611d6282611d21565b602082019050919050565b60006020820190508181036000830152611d8681611d4a565b9050919050565b6000604082019050611da26000830185611a1f565b611daf602083018461166a565b9392505050565b7f496e76616c6964206c696d697473000000000000000000000000000000000000600082015250565b6000611dec600e836118ca565b9150611df782611db6565b602082019050919050565b60006020820190508181036000830152611e1b81611ddf565b9050919050565b6000604082019050611e37600083018561166a565b611e44602083018461166a565b9392505050565b6000602082019050611e606000830184611a1f565b92915050565b6000604082019050611e7b6000830185611a1f565b611e886020830184611600565b939250505056fea2646970667358221220f1a56409831bb48f9b8d298ed067308fc76ea991945b2d1155a4e9662460283564736f6c63430008140033",
  "linkReferences": {},
  "deployedLinkReferences": {}
}