{
  "_format": "hh-sol-artifact-1",
  "contractName": "NativeNFT",
  "sourceName": "contracts/NativeNFT.sol",
  "abi": [
    {
      "inputs": [
        {
          "internalType": "string",
          "name": "name",
          "type": "string"
        },
        {
          "internalType": "string",
          "name": "symbol",
          "type": "string"
        }
      ],
      "stateMutability": "nonpayable",
      "type": "constructor"
    },
    {
      "inputs": [],
      "name": "AccessControlBadConfirmation",
      "type": "error"
    },
    {
      "inputs": [
        {
          "internalType": "address",
          "name": "account",
          "type": "address"
        },
        {
          "internalType": "bytes32",
          "name": "neededRole",
          "type": "bytes32"
        }
      ],
      "name": "AccessControlUnauthorizedAccount",
      "type": "error"
    },
    {
      "inputs": [],
      "name": "ERC721EnumerableForbiddenBatchMint",
      "type": "error"
    },
    {
      "inputs": [
        {
          "internalType": "address",
          "name": "sender",
          "type": "address"
        },
        {
          "internalType": "uint256",
          "name": "tokenId",
          "type": "uint256"
        },
        {
          "internalType": "address",
          "name": "owner",
          "type": "address"
        }
      ],
      "name": "ERC721IncorrectOwner",
      "type": "error"
    },
    {
      "inputs": [
        {
          "internalType": "address",
          "name": "operator",
          "type": "address"
        },
        {
          "internalType": "uint256",
          "name": "tokenId",
          "type": "uint256"
        }
      ],
      "name": "ERC721InsufficientApproval",
      "type": "error"
    },
    {
      "inputs": [
        {
          "internalType": "address",
          "name": "approver",
          "type": "address"
        }
      ],
      "name": "ERC721InvalidApprover",
      "type": "error"
    },
    {
      "inputs": [
        {
          "internalType": "address",
          "name": "operator",
          "type": "address"
        }
      ],
      "name": "ERC721InvalidOperator",
      "type": "error"
    },
    {
      "inputs": [
        {
          "internalType": "address",
          "name": "owner",
          "type": "address"
        }
      ],
      "name": "ERC721InvalidOwner",
      "type": "error"
    },
    {
      "inputs": [
        {
          "internalType": "address",
          "name": "receiver",
          "type": "address"
        }
      ],
      "name": "ERC721InvalidReceiver",
      "type": "error"
    },
    {
      "inputs": [
        {
          "internalType": "address",
          "name": "sender",
          "type": "address"
        }
      ],
      "name": "ERC721InvalidSender",
      "type": "error"
    },
    {
      "inputs": [
        {
          "internalType": "uint256",
          "name": "tokenId",
          "type": "uint256"
        }
      ],
      "name": "ERC721NonexistentToken",
      "type": "error"
    },
    {
      "inputs": [
        {
          "internalType": "address",
          "name": "owner",
          "type": "address"
        },
        {
          "internalType": "uint256",
          "name": "index",
          "type": "uint256"
        }
      ],
      "name": "ERC721OutOfBoundsIndex",
      "type": "error"
    },
    {
      "inputs": [],
      "name": "EnforcedPause",
      "type": "error"
    },
    {
      "inputs": [],
      "name": "ExpectedPause",
      "type": "error"
    },
    {
      "anonymous": false,
      "inputs": [
        {
          "indexed": true,
          "internalType": "address",
          "name": "owner",
          "type": "address"
        },
        {
          "indexed": true,
          "internalType": "address",
          "name": "approved",
          "type": "address"
        },
        {
          "indexed": true,
          "internalType": "uint256",
          "name": "tokenId",
          "type": "uint256"
        }
      ],
      "name": "Approval",
      "type": "event"
    },
    {
      "anonymous": false,
      "inputs": [
        {
          "indexed": true,
          "internalType": "address",
          "name": "owner",
          "type": "address"
        },
        {
          "indexed": true,
          "internalType": "address",
          "name": "operator",
          "type": "address"
        },
        {
          "indexed": false,
          "internalType": "bool",
          "name": "approved",
          "type": "bool"
        }
      ],
      "name": "ApprovalForAll",
      "type": "event"
    },
    {
      "anonymous": false,
      "inputs": [
        {
          "indexed": false,
          "internalType": "string",
          "name": "baseURI",
          "type": "string"
        }
      ],
      "name": "BaseURISet",
      "type": "event"
    },
    {
      "anonymous": false,
      "inputs": [
        {
          "indexed": false,
          "internalType": "uint256",
          "name": "_fromTokenId",
          "type": "uint256"
        },
        {
          "indexed": false,
          "internalType": "uint256",
          "name": "_toTokenId",
          "type": "uint256"
        }
      ],
      "name": "BatchMetadataUpdate",
      "type": "event"
    },
    {
      "anonymous": false,
      "inputs": [
        {
          "indexed": false,
          "internalType": "uint256",
          "name": "_tokenId",
          "type": "uint256"
        }
      ],
      "name": "MetadataUpdate",
      "type": "event"
    },
    {
      "anonymous": false,
      "inputs": [
        {
          "indexed": false,
          "internalType": "uint256",
          "name": "tokenId",
          "type": "uint256"
        }
      ],
      "name": "NFTBurned",
      "type": "event"
    },
    {
      "anonymous": false,
      "inputs": [
        {
          "indexed": true,
          "internalType": "address",
          "name": "to",
          "type": "address"
        },
        {
          "indexed": false,
          "internalType": "uint256",
          "name": "tokenId",
          "type": "uint256"
        },
        {
          "indexed": false,
          "internalType": "string",
          "name": "uri",
          "type": "string"
        }
      ],
      "name": "NFTMinted",
      "type": "event"
    },
    {
      "anonymous": false,
      "inputs": [
        {
          "indexed": false,
          "internalType": "address",
          "name": "account",
          "type": "address"
        }
      ],
      "name": "Paused",
      "type": "event"
    },
    {
      "anonymous": false,
      "inputs": [
        {
          "indexed": true,
          "internalType": "bytes32",
          "name": "role",
          "type": "bytes32"
        },
        {
          "indexed": true,
          "internalType": "bytes32",
          "name": "previousAdminRole",
          "type": "bytes32"
        },
        {
          "indexed": true,
          "internalType": "bytes32",
          "name": "newAdminRole",
          "type": "bytes32"
        }
      ],
      "name": "RoleAdminChanged",
      "type": "event"
    },
    {
      "anonymous": false,
      "inputs": [
        {
          "indexed": true,
          "internalType": "bytes32",
          "name": "role",
          "type": "bytes32"
        },
        {
          "indexed": true,
          "internalType": "address",
          "name": "account",
          "type": "address"
        },
        {
          "indexed": true,
          "internalType": "address",
          "name": "sender",
          "type": "address"
        }
      ],
      "name": "RoleGranted",
      "type": "event"
    },
    {
      "anonymous": false,
      "inputs": [
        {
          "indexed": true,
          "internalType": "bytes32",
          "name": "role",
          "type": "bytes32"
        },
        {
          "indexed": true,
          "internalType": "address",
          "name": "account",
          "type": "address"
        },
        {
          "indexed": true,
          "internalType": "address",
          "name": "sender",
          "type": "address"
        }
      ],
      "name": "RoleRevoked",
      "type": "event"
    },
    {
      "anonymous": false,
      "inputs": [
        {
          "indexed": true,
          "internalType": "address",
          "name": "from",
          "type": "address"
        },
        {
          "indexed": true,
          "internalType": "address",
          "name": "to",
          "type": "address"
        },
        {
          "indexed": true,
          "internalType": "uint256",
          "name": "tokenId",
          "type": "uint256"
        }
      ],
      "name": "Transfer",
      "type": "event"
    },
    {
      "anonymous": false,
      "inputs": [
        {
          "indexed": false,
          "internalType": "address",
          "name": "account",
          "type": "address"
        }
      ],
      "name": "Unpaused",
      "type": "event"
    },
    {
      "inputs": [],
      "name": "BURNER_ROLE",
      "outputs": [
        {
          "internalType": "bytes32",
          "name": "",
          "type": "bytes32"
        }
      ],
      "stateMutability": "view",
      "type": "function"
    },
    {
      "inputs": [],
      "name": "DEFAULT_ADMIN_ROLE",
      "outputs": [
        {
          "internalType": "bytes32",
          "name": "",
          "type": "bytes32"
        }
      ],
      "stateMutability": "view",
      "type": "function"
    },
    {
      "inputs": [],
      "name": "MINTER_ROLE",
      "outputs": [
        {
          "internalType": "bytes32",
          "name": "",
          "type": "bytes32"
        }
      ],
      "stateMutability": "view",
      "type": "function"
    },
    {
      "inputs": [],
      "name": "PAUSER_ROLE",
      "outputs": [
        {
          "internalType": "bytes32",
          "name": "",
          "type": "bytes32"
        }
      ],
      "stateMutability": "view",
      "type": "function"
    },
    {
      "inputs": [
        {
          "internalType": "address",
          "name": "to",
          "type": "address"
        },
        {
          "internalType": "uint256",
          "name": "tokenId",
          "type": "uint256"
        }
      ],
      "name": "approve",
      "outputs": [],
      "stateMutability": "nonpayable",
      "type": "function"
    },
    {
      "inputs": [
        {
          "internalType": "address",
          "name": "owner",
          "type": "address"
        }
      ],
      "name": "balanceOf",
      "outputs": [
        {
          "internalType": "uint256",
          "name": "",
          "type": "uint256"
        }
      ],
      "stateMutability": "view",
      "type": "function"
    },
    {
      "inputs": [
        {
          "internalType": "uint256",
          "name": "tokenId",
          "type": "uint256"
        }
      ],
      "name": "burn",
      "outputs": [],
      "stateMutability": "nonpayable",
      "type": "function"
    },
    {
      "inputs": [
        {
          "internalType": "uint256",
          "name": "tokenId",
          "type": "uint256"
        }
      ],
      "name": "getApproved",
      "outputs": [
        {
          "internalType": "address",
          "name": "",
          "type": "address"
        }
      ],
      "stateMutability": "view",
      "type": "function"
    },
    {
      "inputs": [
        {
          "internalType": "bytes32",
          "name": "role",
          "type": "bytes32"
        }
      ],
      "name": "getRoleAdmin",
      "outputs": [
        {
          "internalType": "bytes32",
          "name": "",
          "type": "bytes32"
        }
      ],
      "stateMutability": "view",
      "type": "function"
    },
    {
      "inputs": [
        {
          "internalType": "bytes32",
          "name": "role",
          "type": "bytes32"
        },
        {
          "internalType": "address",
          "name": "account",
          "type": "address"
        }
      ],
      "name": "grantRole",
      "outputs": [],
      "stateMutability": "nonpayable",
      "type": "function"
    },
    {
      "inputs": [
        {
          "internalType": "bytes32",
          "name": "role",
          "type": "bytes32"
        },
        {
          "internalType": "address",
          "name": "account",
          "type": "address"
        }
      ],
      "name": "hasRole",
      "outputs": [
        {
          "internalType": "bool",
          "name": "",
          "type": "bool"
        }
      ],
      "stateMutability": "view",
      "type": "function"
    },
    {
      "inputs": [
        {
          "internalType": "address",
          "name": "owner",
          "type": "address"
        },
        {
          "internalType": "address",
          "name": "operator",
          "type": "address"
        }
      ],
      "name": "isApprovedForAll",
      "outputs": [
        {
          "internalType": "bool",
          "name": "",
          "type": "bool"
        }
      ],
      "stateMutability": "view",
      "type": "function"
    },
    {
      "inputs": [
        {
          "internalType": "address",
          "name": "to",
          "type": "address"
        }
      ],
      "name": "mint",
      "outputs": [
        {
          "internalType": "uint256",
          "name": "",
          "type": "uint256"
        }
      ],
      "stateMutability": "nonpayable",
      "type": "function"
    },
    {
      "inputs": [
        {
          "internalType": "address",
          "name": "to",
          "type": "address"
        },
        {
          "internalType": "string",
          "name": "uri",
          "type": "string"
        }
      ],
      "name": "mintWithURI",
      "outputs": [
        {
          "internalType": "uint256",
          "name": "",
          "type": "uint256"
        }
      ],
      "stateMutability": "nonpayable",
      "type": "function"
    },
    {
      "inputs": [],
      "name": "name",
      "outputs": [
        {
          "internalType": "string",
          "name": "",
          "type": "string"
        }
      ],
      "stateMutability": "view",
      "type": "function"
    },
    {
      "inputs": [
        {
          "internalType": "uint256",
          "name": "tokenId",
          "type": "uint256"
        }
      ],
      "name": "ownerOf",
      "outputs": [
        {
          "internalType": "address",
          "name": "",
          "type": "address"
        }
      ],
      "stateMutability": "view",
      "type": "function"
    },
    {
      "inputs": [],
      "name": "pause",
      "outputs": [],
      "stateMutability": "nonpayable",
      "type": "function"
    },
    {
      "inputs": [],
      "name": "paused",
      "outputs": [
        {
          "internalType": "bool",
          "name": "",
          "type": "bool"
        }
      ],
      "stateMutability": "view",
      "type": "function"
    },
    {
      "inputs": [
        {
          "internalType": "bytes32",
          "name": "role",
          "type": "bytes32"
        },
        {
          "internalType": "address",
          "name": "callerConfirmation",
          "type": "address"
        }
      ],
      "name": "renounceRole",
      "outputs": [],
      "stateMutability": "nonpayable",
      "type": "function"
    },
    {
      "inputs": [
        {
          "internalType": "bytes32",
          "name": "role",
          "type": "bytes32"
        },
        {
          "internalType": "address",
          "name": "account",
          "type": "address"
        }
      ],
      "name": "revokeRole",
      "outputs": [],
      "stateMutability": "nonpayable",
      "type": "function"
    },
    {
      "inputs": [
        {
          "internalType": "address",
          "name": "from",
          "type": "address"
        },
        {
          "internalType": "address",
          "name": "to",
          "type": "address"
        },
        {
          "internalType": "uint256",
          "name": "tokenId",
          "type": "uint256"
        }
      ],
      "name": "safeTransferFrom",
      "outputs": [],
      "stateMutability": "nonpayable",
      "type": "function"
    },
    {
      "inputs": [
        {
          "internalType": "address",
          "name": "from",
          "type": "address"
        },
        {
          "internalType": "address",
          "name": "to",
          "type": "address"
        },
        {
          "internalType": "uint256",
          "name": "tokenId",
          "type": "uint256"
        },
        {
          "internalType": "bytes",
          "name": "data",
          "type": "bytes"
        }
      ],
      "name": "safeTransferFrom",
      "outputs": [],
      "stateMutability": "nonpayable",
      "type": "function"
    },
    {
      "inputs": [
        {
          "internalType": "address",
          "name": "operator",
          "type": "address"
        },
        {
          "internalType": "bool",
          "name": "approved",
          "type": "bool"
        }
      ],
      "name": "setApprovalForAll",
      "outputs": [],
      "stateMutability": "nonpayable",
      "type": "function"
    },
    {
      "inputs": [
        {
          "internalType": "string",
          "name": "baseURI",
          "type": "string"
        }
      ],
      "name": "setBaseURI",
      "outputs": [],
      "stateMutability": "nonpayable",
      "type": "function"
    },
    {
      "inputs": [
        {
          "internalType": "bytes4",
          "name": "interfaceId",
          "type": "bytes4"
        }
      ],
      "name": "supportsInterface",
      "outputs": [
        {
          "internalType": "bool",
          "name": "",
          "type": "bool"
        }
      ],
      "stateMutability": "view",
      "type": "function"
    },
    {
      "inputs": [],
      "name": "symbol",
      "outputs": [
        {
          "internalType": "string",
          "name": "",
          "type": "string"
        }
      ],
      "stateMutability": "view",
      "type": "function"
    },
    {
      "inputs": [
        {
          "internalType": "uint256",
          "name": "index",
          "type": "uint256"
        }
      ],
      "name": "tokenByIndex",
      "outputs": [
        {
          "internalType": "uint256",
          "name": "",
          "type": "uint256"
        }
      ],
      "stateMutability": "view",
      "type": "function"
    },
    {
      "inputs": [
        {
          "internalType": "address",
          "name": "owner",
          "type": "address"
        },
        {
          "internalType": "uint256",
          "name": "index",
          "type": "uint256"
        }
      ],
      "name": "tokenOfOwnerByIndex",
      "outputs": [
        {
          "internalType": "uint256",
          "name": "",
          "type": "uint256"
        }
      ],
      "stateMutability": "view",
      "type": "function"
    },
    {
      "inputs": [
        {
          "internalType": "uint256",
          "name": "tokenId",
          "type": "uint256"
        }
      ],
      "name": "tokenURI",
      "outputs": [
        {
          "internalType": "string",
          "name": "",
          "type": "string"
        }
      ],
      "stateMutability": "view",
      "type": "function"
    },
    {
      "inputs": [],
      "name": "totalSupply",
      "outputs": [
        {
          "internalType": "uint256",
          "name": "",
          "type": "uint256"
        }
      ],
      "stateMutability": "view",
      "type": "function"
    },
    {
      "inputs": [
        {
          "internalType": "address",
          "name": "from",
          "type": "address"
        },
        {
          "internalType": "address",
          "name": "to",
          "type": "address"
        },
        {
          "internalType": "uint256",
          "name": "tokenId",
          "type": "uint256"
        }
      ],
      "name": "transferFrom",
      "outputs": [],
      "stateMutability": "nonpayable",
      "type": "function"
    },
    {
      "inputs": [],
      "name": "unpause",
      "outputs": [],
      "stateMutability": "nonpayable",
      "type": "function"
    }
  ],
  "bytecode": "0x60806040523480156200001157600080fd5b506040516200426f3803806200426f83398181016040528101906200003791906200043b565b818181600090816200004a91906200070b565b5080600190816200005c91906200070b565b5050506000600c60006101000a81548160ff0219169083151502179055506200008f6000801b336200013160201b60201c565b50620000c27f9f2df0fed2c77648de5860a4cc508cd0818c85b8b8a1ab4ceeef8d981c8956a6336200013160201b60201c565b50620000f57f3c11d16cbaffd01df69ce1c404f6340ee057498f5f00246190ea54220576a848336200013160201b60201c565b50620001287f65d7a28e3265b37a6474929f336521b332c1681b933f6cb9f3376673440d862a336200013160201b60201c565b505050620007f2565b60006200014583836200023560201b60201c565b6200022a576001600b600085815260200190815260200160002060000160008473ffffffffffffffffffffffffffffffffffffffff1673ffffffffffffffffffffffffffffffffffffffff16815260200190815260200160002060006101000a81548160ff021916908315150217905550620001c6620002a060201b60201c565b73ffffffffffffffffffffffffffffffffffffffff168273ffffffffffffffffffffffffffffffffffffffff16847f2f8788117e7eff1d82e926ec794901d17c78024a50270940304540a733656f0d60405160405180910390a4600190506200022f565b600090505b92915050565b6000600b600084815260200190815260200160002060000160008373ffffffffffffffffffffffffffffffffffffffff1673ffffffffffffffffffffffffffffffffffffffff16815260200190815260200160002060009054906101000a900460ff16905092915050565b600033905090565b6000604051905090565b600080fd5b600080fd5b600080fd5b600080fd5b6000601f19601f8301169050919050565b7f4e487b7100000000000000000000000000000000000000000000000000000000600052604160045260246000fd5b6200031182620002c6565b810181811067ffffffffffffffff82111715620003335762000332620002d7565b5b80604052505050565b600062000348620002a8565b905062000356828262000306565b919050565b600067ffffffffffffffff821115620003795762000378620002d7565b5b6200038482620002c6565b9050602081019050919050565b60005b83811015620003b157808201518184015260208101905062000394565b60008484015250505050565b6000620003d4620003ce846200035b565b6200033c565b905082815260208101848484011115620003f357620003f2620002c1565b5b6200040084828562000391565b509392505050565b600082601f83011262000420576200041f620002bc565b5b815162000432848260208601620003bd565b91505092915050565b60008060408385031215620004555762000454620002b2565b5b600083015167ffffffffffffffff811115620004765762000475620002b7565b5b620004848582860162000408565b925050602083015167ffffffffffffffff811115620004a857620004a7620002b7565b5b620004b68582860162000408565b9150509250929050565b600081519050919050565b7f4e487b7100000000000000000000000000000000000000000000000000000000600052602260045260246000fd5b600060028204905060018216806200051357607f821691505b602082108103620005295762000528620004cb565b5b50919050565b60008190508160005260206000209050919050565b60006020601f8301049050919050565b600082821b905092915050565b600060088302620005937fffffffffffffffffffffffffffffffffffffffffffffffffffffffffffffffff8262000554565b6200059f868362000554565b95508019841693508086168417925050509392505050565b6000819050919050565b6000819050919050565b6000620005ec620005e6620005e084620005b7565b620005c1565b620005b7565b9050919050565b6000819050919050565b6200060883620005cb565b620006206200061782620005f3565b84845462000561565b825550505050565b600090565b6200063762000628565b62000644818484620005fd565b505050565b5b818110156200066c57620006606000826200062d565b6001810190506200064a565b5050565b601f821115620006bb5762000685816200052f565b620006908462000544565b81016020851015620006a0578190505b620006b8620006af8562000544565b83018262000649565b50505b505050565b600082821c905092915050565b6000620006e060001984600802620006c0565b1980831691505092915050565b6000620006fb8383620006cd565b9150826002028217905092915050565b6200071682620004c0565b67ffffffffffffffff811115620007325762000731620002d7565b5b6200073e8254620004fa565b6200074b82828562000670565b600060209050601f8311600181146200078357600084156200076e578287015190505b6200077a8582620006ed565b865550620007ea565b601f19841662000793866200052f565b60005b82811015620007bd5784890151825560018201915060208501945060208101905062000796565b86831015620007dd5784890151620007d9601f891682620006cd565b8355505b6001600288020188555050505b505050505050565b613a6d80620008026000396000f3fe608060405234801561001057600080fd5b50600436106101f05760003560e01c806355f804b31161010f578063a217fddf116100a2578063d539139311610071578063d5391393146105c9578063d547741f146105e7578063e63ab1e914610603578063e985e9c514610621576101f0565b8063a217fddf14610543578063a22cb46514610561578063b88d4fde1461057d578063c87b56dd14610599576101f0565b806370a08231116100de57806370a08231146104bb5780638456cb59146104eb57806391d14854146104f557806395d89b4114610525576101f0565b806355f804b3146104215780635c975abb1461043d5780636352211e1461045b5780636a6278421461048b576101f0565b8063282c51f3116101875780633f4ba83a116101565780633f4ba83a146103af57806342842e0e146103b957806342966c68146103d55780634f6ccce7146103f1576101f0565b8063282c51f3146103295780632f2ff15d146103475780632f745c591461036357806336568abe14610393576101f0565b80630e980602116101c35780630e9806021461028f57806318160ddd146102bf57806323b872dd146102dd578063248a9ca3146102f9576101f0565b806301ffc9a7146101f557806306fdde0314610225578063081812fc14610243578063095ea7b314610273575b600080fd5b61020f600480360381019061020a9190612b98565b610651565b60405161021c9190612be0565b60405180910390f35b61022d610663565b60405161023a9190612c8b565b60405180910390f35b61025d60048036038101906102589190612ce3565b6106f5565b60405161026a9190612d51565b60405180910390f35b61028d60048036038101906102889190612d98565b610711565b005b6102a960048036038101906102a49190612f0d565b610727565b6040516102b69190612f78565b60405180910390f35b6102c76107e9565b6040516102d49190612f78565b60405180910390f35b6102f760048036038101906102f29190612f93565b6107f6565b005b610313600480360381019061030e919061301c565b6108f8565b6040516103209190613058565b60405180910390f35b610331610918565b60405161033e9190613058565b60405180910390f35b610361600480360381019061035c9190613073565b61093c565b005b61037d60048036038101906103789190612d98565b61095e565b60405161038a9190612f78565b60405180910390f35b6103ad60048036038101906103a89190613073565b610a07565b005b6103b7610a82565b005b6103d360048036038101906103ce9190612f93565b610ab7565b005b6103ef60048036038101906103ea9190612ce3565b610ad7565b005b61040b60048036038101906104069190612ce3565b610c61565b6040516104189190612f78565b60405180910390f35b61043b600480360381019061043691906130b3565b610cd7565b005b610445610d2f565b6040516104529190612be0565b60405180910390f35b61047560048036038101906104709190612ce3565b610d46565b6040516104829190612d51565b60405180910390f35b6104a560048036038101906104a091906130fc565b610d58565b6040516104b29190612f78565b60405180910390f35b6104d560048036038101906104d091906130fc565b610e0d565b6040516104e29190612f78565b60405180910390f35b6104f3610ec7565b005b61050f600480360381019061050a9190613073565b610efc565b60405161051c9190612be0565b60405180910390f35b61052d610f67565b60405161053a9190612c8b565b60405180910390f35b61054b610ff9565b6040516105589190613058565b60405180910390f35b61057b60048036038101906105769190613155565b611000565b005b61059760048036038101906105929190613236565b611016565b005b6105b360048036038101906105ae9190612ce3565b61103b565b6040516105c09190612c8b565b60405180910390f35b6105d161104d565b6040516105de9190613058565b60405180910390f35b61060160048036038101906105fc9190613073565b611071565b005b61060b611093565b6040516106189190613058565b60405180910390f35b61063b600480360381019061063691906132b9565b6110b7565b6040516106489190612be0565b60405180910390f35b600061065c8261114b565b9050919050565b60606000805461067290613328565b80601f016020809104026020016040519081016040528092919081815260200182805461069e90613328565b80156106eb5780601f106106c0576101008083540402835291602001916106eb565b820191906000526020600020905b8154815290600101906020018083116106ce57829003601f168201915b5050505050905090565b6000610700826111c5565b5061070a8261124d565b9050919050565b610723828261071e61128a565b611292565b5050565b60007f9f2df0fed2c77648de5860a4cc508cd0818c85b8b8a1ab4ceeef8d981c8956a6610753816112a4565b61075b6112b8565b600d600081548092919061076e90613388565b91905055506000600d54905061078485826112f9565b61078e8185611317565b8473ffffffffffffffffffffffffffffffffffffffff167fd35bb95e09c04b219e35047ce7b7b300e3384264ef84a40456943dbc0fc17c1482866040516107d69291906133d0565b60405180910390a2809250505092915050565b6000600980549050905090565b600073ffffffffffffffffffffffffffffffffffffffff168273ffffffffffffffffffffffffffffffffffffffff16036108685760006040517f64a0ae9200000000000000000000000000000000000000000000000000000000815260040161085f9190612d51565b60405180910390fd5b600061087c838361087761128a565b611373565b90508373ffffffffffffffffffffffffffffffffffffffff168173ffffffffffffffffffffffffffffffffffffffff16146108f2578382826040517f64283d7b0000000000000000000000000000000000000000000000000000000081526004016108e993929190613400565b60405180910390fd5b50505050565b6000600b6000838152602001908152602001600020600101549050919050565b7f3c11d16cbaffd01df69ce1c404f6340ee057498f5f00246190ea54220576a84881565b610945826108f8565b61094e816112a4565b6109588383611389565b50505050565b600061096983610e0d565b82106109ae5782826040517fa57d13dc0000000000000000000000000000000000000000000000000000000081526004016109a5929190613437565b60405180910390fd5b600760008473ffffffffffffffffffffffffffffffffffffffff1673ffffffffffffffffffffffffffffffffffffffff168152602001908152602001600020600083815260200190815260200160002054905092915050565b610a0f61128a565b73ffffffffffffffffffffffffffffffffffffffff168173ffffffffffffffffffffffffffffffffffffffff1614610a73576040517f6697b23200000000000000000000000000000000000000000000000000000000815260040160405180910390fd5b610a7d828261147b565b505050565b7f65d7a28e3265b37a6474929f336521b332c1681b933f6cb9f3376673440d862a610aac816112a4565b610ab461156e565b50565b610ad283838360405180602001604052806000815250611016565b505050565b7f3c11d16cbaffd01df69ce1c404f6340ee057498f5f00246190ea54220576a848610b01816112a4565b610b096112b8565b600073ffffffffffffffffffffffffffffffffffffffff16610b2a836115d1565b73ffffffffffffffffffffffffffffffffffffffff1603610b80576040517f08c379a0000000000000000000000000000000000000000000000000000000008152600401610b77906134ac565b60405180910390fd5b610b99610b8c836115d1565b610b9461128a565b6110b7565b80610bde5750610ba761128a565b73ffffffffffffffffffffffffffffffffffffffff16610bc6836115d1565b73ffffffffffffffffffffffffffffffffffffffff16145b610c1d576040517f08c379a0000000000000000000000000000000000000000000000000000000008152600401610c1490613518565b60405180910390fd5b610c268261160e565b7f3c176691ca154a2f6fe978a2a633a33ee77dbe2902e67a75400720845a4b2ce182604051610c559190612f78565b60405180910390a15050565b6000610c6b6107e9565b8210610cb1576000826040517fa57d13dc000000000000000000000000000000000000000000000000000000008152600401610ca8929190613437565b60405180910390fd5b60098281548110610cc557610cc4613538565b5b90600052602060002001549050919050565b6000801b610ce4816112a4565b81600e9081610cf39190613713565b507ff9c7803e94e0d3c02900d8a90893a6d5e90dd04d32a4cfe825520f82bf9f32f682604051610d239190612c8b565b60405180910390a15050565b6000600c60009054906101000a900460ff16905090565b6000610d51826111c5565b9050919050565b60007f9f2df0fed2c77648de5860a4cc508cd0818c85b8b8a1ab4ceeef8d981c8956a6610d84816112a4565b610d8c6112b8565b600d6000815480929190610d9f90613388565b91905055506000600d549050610db584826112f9565b8373ffffffffffffffffffffffffffffffffffffffff167fd35bb95e09c04b219e35047ce7b7b300e3384264ef84a40456943dbc0fc17c1482604051610dfb919061380b565b60405180910390a28092505050919050565b60008073ffffffffffffffffffffffffffffffffffffffff168273ffffffffffffffffffffffffffffffffffffffff1603610e805760006040517f89c62b64000000000000000000000000000000000000000000000000000000008152600401610e779190612d51565b60405180910390fd5b600360008373ffffffffffffffffffffffffffffffffffffffff1673ffffffffffffffffffffffffffffffffffffffff168152602001908152602001600020549050919050565b7f65d7a28e3265b37a6474929f336521b332c1681b933f6cb9f3376673440d862a610ef1816112a4565b610ef9611694565b50565b6000600b600084815260200190815260200160002060000160008373ffffffffffffffffffffffffffffffffffffffff1673ffffffffffffffffffffffffffffffffffffffff16815260200190815260200160002060009054906101000a900460ff16905092915050565b606060018054610f7690613328565b80601f0160208091040260200160405190810160405280929190818152602001828054610fa290613328565b8015610fef5780601f10610fc457610100808354040283529160200191610fef565b820191906000526020600020905b815481529060010190602001808311610fd257829003601f168201915b5050505050905090565b6000801b81565b61101261100b61128a565b83836116f7565b5050565b6110218484846107f6565b61103561102c61128a565b85858585611866565b50505050565b606061104682611a17565b9050919050565b7f9f2df0fed2c77648de5860a4cc508cd0818c85b8b8a1ab4ceeef8d981c8956a681565b61107a826108f8565b611083816112a4565b61108d838361147b565b50505050565b7f65d7a28e3265b37a6474929f336521b332c1681b933f6cb9f3376673440d862a81565b6000600560008473ffffffffffffffffffffffffffffffffffffffff1673ffffffffffffffffffffffffffffffffffffffff16815260200190815260200160002060008373ffffffffffffffffffffffffffffffffffffffff1673ffffffffffffffffffffffffffffffffffffffff16815260200190815260200160002060009054906101000a900460ff16905092915050565b60007f7965db0b000000000000000000000000000000000000000000000000000000007bffffffffffffffffffffffffffffffffffffffffffffffffffffffff1916827bffffffffffffffffffffffffffffffffffffffffffffffffffffffff191614806111be57506111bd82611b2a565b5b9050919050565b6000806111d1836115d1565b9050600073ffffffffffffffffffffffffffffffffffffffff168173ffffffffffffffffffffffffffffffffffffffff160361124457826040517f7e27328900000000000000000000000000000000000000000000000000000000815260040161123b9190612f78565b60405180910390fd5b80915050919050565b60006004600083815260200190815260200160002060009054906101000a900473ffffffffffffffffffffffffffffffffffffffff169050919050565b600033905090565b61129f8383836001611ba4565b505050565b6112b5816112b061128a565b611d69565b50565b6112c0610d2f565b156112f7576040517fd93c066500000000000000000000000000000000000000000000000000000000815260040160405180910390fd5b565b611313828260405180602001604052806000815250611dba565b5050565b806006600084815260200190815260200160002090816113379190613713565b507ff8e1a15aba9398e019f0b49df1a4fde98ee17ae345cb5f6b5e2c27f5033e8ce7826040516113679190612f78565b60405180910390a15050565b6000611380848484611dde565b90509392505050565b60006113958383610efc565b611470576001600b600085815260200190815260200160002060000160008473ffffffffffffffffffffffffffffffffffffffff1673ffffffffffffffffffffffffffffffffffffffff16815260200190815260200160002060006101000a81548160ff02191690831515021790555061140d61128a565b73ffffffffffffffffffffffffffffffffffffffff168273ffffffffffffffffffffffffffffffffffffffff16847f2f8788117e7eff1d82e926ec794901d17c78024a50270940304540a733656f0d60405160405180910390a460019050611475565b600090505b92915050565b60006114878383610efc565b15611563576000600b600085815260200190815260200160002060000160008473ffffffffffffffffffffffffffffffffffffffff1673ffffffffffffffffffffffffffffffffffffffff16815260200190815260200160002060006101000a81548160ff02191690831515021790555061150061128a565b73ffffffffffffffffffffffffffffffffffffffff168273ffffffffffffffffffffffffffffffffffffffff16847ff6391f5c32d9c69d2a47ea670b442974b53935d1edc7fd64eb21e047a839171b60405160405180910390a460019050611568565b600090505b92915050565b611576611efb565b6000600c60006101000a81548160ff0219169083151502179055507f5db9ee0a495bf2e6ff9c91a7834c1ba4fdd244a5e8aa4e537bd38aeae4b073aa6115ba61128a565b6040516115c79190612d51565b60405180910390a1565b60006002600083815260200190815260200160002060009054906101000a900473ffffffffffffffffffffffffffffffffffffffff169050919050565b600061161d6000836000611373565b9050600073ffffffffffffffffffffffffffffffffffffffff168173ffffffffffffffffffffffffffffffffffffffff160361169057816040517f7e2732890000000000000000000000000000000000000000000000000000000081526004016116879190612f78565b60405180910390fd5b5050565b61169c6112b8565b6001600c60006101000a81548160ff0219169083151502179055507f62e78cea01bee320cd4e420270b5ea74000d11b0c9f74754ebdbfc544b05a2586116e061128a565b6040516116ed9190612d51565b60405180910390a1565b600073ffffffffffffffffffffffffffffffffffffffff168273ffffffffffffffffffffffffffffffffffffffff160361176857816040517f5b08ba1800000000000000000000000000000000000000000000000000000000815260040161175f9190612d51565b60405180910390fd5b80600560008573ffffffffffffffffffffffffffffffffffffffff1673ffffffffffffffffffffffffffffffffffffffff16815260200190815260200160002060008473ffffffffffffffffffffffffffffffffffffffff1673ffffffffffffffffffffffffffffffffffffffff16815260200190815260200160002060006101000a81548160ff0219169083151502179055508173ffffffffffffffffffffffffffffffffffffffff168373ffffffffffffffffffffffffffffffffffffffff167f17307eab39ab6107e8899845ad3d59bd9653f200f220920489ca2b5937696c31836040516118599190612be0565b60405180910390a3505050565b60008373ffffffffffffffffffffffffffffffffffffffff163b1115611a10578273ffffffffffffffffffffffffffffffffffffffff1663150b7a02868685856040518563ffffffff1660e01b81526004016118c5949392919061388e565b6020604051808303816000875af192505050801561190157506040513d601f19601f820116820180604052508101906118fe91906138ef565b60015b611985573d8060008114611931576040519150601f19603f3d011682016040523d82523d6000602084013e611936565b606091505b50600081510361197d57836040517f64a0ae920000000000000000000000000000000000000000000000000000000081526004016119749190612d51565b60405180910390fd5b805181602001fd5b63150b7a0260e01b7bffffffffffffffffffffffffffffffffffffffffffffffffffffffff1916817bffffffffffffffffffffffffffffffffffffffffffffffffffffffff191614611a0e57836040517f64a0ae92000000000000000000000000000000000000000000000000000000008152600401611a059190612d51565b60405180910390fd5b505b5050505050565b6060611a22826111c5565b506000600660008481526020019081526020016000208054611a4390613328565b80601f0160208091040260200160405190810160405280929190818152602001828054611a6f90613328565b8015611abc5780601f10611a9157610100808354040283529160200191611abc565b820191906000526020600020905b815481529060010190602001808311611a9f57829003601f168201915b505050505090506000611acd611f3b565b90506000815103611ae2578192505050611b25565b600082511115611b17578082604051602001611aff929190613958565b60405160208183030381529060405292505050611b25565b611b2084611fcd565b925050505b919050565b60007f780e9d63000000000000000000000000000000000000000000000000000000007bffffffffffffffffffffffffffffffffffffffffffffffffffffffff1916827bffffffffffffffffffffffffffffffffffffffffffffffffffffffff19161480611b9d5750611b9c82612036565b5b9050919050565b8080611bdd5750600073ffffffffffffffffffffffffffffffffffffffff168273ffffffffffffffffffffffffffffffffffffffff1614155b15611d11576000611bed846111c5565b9050600073ffffffffffffffffffffffffffffffffffffffff168373ffffffffffffffffffffffffffffffffffffffff1614158015611c5857508273ffffffffffffffffffffffffffffffffffffffff168173ffffffffffffffffffffffffffffffffffffffff1614155b8015611c6b5750611c6981846110b7565b155b15611cad57826040517fa9fbf51f000000000000000000000000000000000000000000000000000000008152600401611ca49190612d51565b60405180910390fd5b8115611d0f57838573ffffffffffffffffffffffffffffffffffffffff168273ffffffffffffffffffffffffffffffffffffffff167f8c5be1e5ebec7d5bd14f71427d1e84f3dd0314c0f7b2291e5b200ac8c7c3b92560405160405180910390a45b505b836004600085815260200190815260200160002060006101000a81548173ffffffffffffffffffffffffffffffffffffffff021916908373ffffffffffffffffffffffffffffffffffffffff16021790555050505050565b611d738282610efc565b611db65780826040517fe2517d3f000000000000000000000000000000000000000000000000000000008152600401611dad92919061397c565b60405180910390fd5b5050565b611dc48383612097565b611dd9611dcf61128a565b6000858585611866565b505050565b600080611dec858585612190565b9050600073ffffffffffffffffffffffffffffffffffffffff168173ffffffffffffffffffffffffffffffffffffffff1603611e3057611e2b846123aa565b611e6f565b8473ffffffffffffffffffffffffffffffffffffffff168173ffffffffffffffffffffffffffffffffffffffff1614611e6e57611e6d81856123f3565b5b5b600073ffffffffffffffffffffffffffffffffffffffff168573ffffffffffffffffffffffffffffffffffffffff1603611eb157611eac846124de565b611ef0565b8473ffffffffffffffffffffffffffffffffffffffff168173ffffffffffffffffffffffffffffffffffffffff1614611eef57611eee85856125af565b5b5b809150509392505050565b611f03610d2f565b611f39576040517f8dfc202b00000000000000000000000000000000000000000000000000000000815260040160405180910390fd5b565b6060600e8054611f4a90613328565b80601f0160208091040260200160405190810160405280929190818152602001828054611f7690613328565b8015611fc35780601f10611f9857610100808354040283529160200191611fc3565b820191906000526020600020905b815481529060010190602001808311611fa657829003601f168201915b5050505050905090565b6060611fd8826111c5565b506000611fe3611f3b565b90506000815111612003576040518060200160405280600081525061202e565b8061200d8461263a565b60405160200161201e929190613958565b6040516020818303038152906040525b915050919050565b6000634906490660e01b7bffffffffffffffffffffffffffffffffffffffffffffffffffffffff1916827bffffffffffffffffffffffffffffffffffffffffffffffffffffffff19161480612090575061208f82612708565b5b9050919050565b600073ffffffffffffffffffffffffffffffffffffffff168273ffffffffffffffffffffffffffffffffffffffff16036121095760006040517f64a0ae920000000000000000000000000000000000000000000000000000000081526004016121009190612d51565b60405180910390fd5b600061211783836000611373565b9050600073ffffffffffffffffffffffffffffffffffffffff168173ffffffffffffffffffffffffffffffffffffffff161461218b5760006040517f73c6ac6e0000000000000000000000000000000000000000000000000000000081526004016121829190612d51565b60405180910390fd5b505050565b60008061219c846115d1565b9050600073ffffffffffffffffffffffffffffffffffffffff168373ffffffffffffffffffffffffffffffffffffffff16146121de576121dd8184866127ea565b5b600073ffffffffffffffffffffffffffffffffffffffff168173ffffffffffffffffffffffffffffffffffffffff161461226f57612220600085600080611ba4565b6001600360008373ffffffffffffffffffffffffffffffffffffffff1673ffffffffffffffffffffffffffffffffffffffff168152602001908152602001600020600082825403925050819055505b600073ffffffffffffffffffffffffffffffffffffffff168573ffffffffffffffffffffffffffffffffffffffff16146122f2576001600360008773ffffffffffffffffffffffffffffffffffffffff1673ffffffffffffffffffffffffffffffffffffffff168152602001908152602001600020600082825401925050819055505b846002600086815260200190815260200160002060006101000a81548173ffffffffffffffffffffffffffffffffffffffff021916908373ffffffffffffffffffffffffffffffffffffffff160217905550838573ffffffffffffffffffffffffffffffffffffffff168273ffffffffffffffffffffffffffffffffffffffff167fddf252ad1be2c89b69c2b068fc378daa952ba7f163c4a11628f55a4df523b3ef60405160405180910390a4809150509392505050565b600980549050600a600083815260200190815260200160002081905550600981908060018154018082558091505060019003906000526020600020016000909190919091505550565b60006123fe83610e0d565b90506000600860008481526020019081526020016000205490506000600760008673ffffffffffffffffffffffffffffffffffffffff1673ffffffffffffffffffffffffffffffffffffffff16815260200190815260200160002090508282146124aa5760008160008581526020019081526020016000205490508082600085815260200190815260200160002081905550826008600083815260200190815260200160002081905550505b6008600085815260200190815260200160002060009055806000848152602001908152602001600020600090555050505050565b600060016009805490506124f291906139a5565b90506000600a600084815260200190815260200160002054905060006009838154811061252257612521613538565b5b90600052602060002001549050806009838154811061254457612543613538565b5b906000526020600020018190555081600a600083815260200190815260200160002081905550600a6000858152602001908152602001600020600090556009805480612593576125926139d9565b5b6001900381819060005260206000200160009055905550505050565b600060016125bc84610e0d565b6125c691906139a5565b905081600760008573ffffffffffffffffffffffffffffffffffffffff1673ffffffffffffffffffffffffffffffffffffffff168152602001908152602001600020600083815260200190815260200160002081905550806008600084815260200190815260200160002081905550505050565b606060006001612649846128ae565b01905060008167ffffffffffffffff81111561266857612667612de2565b5b6040519080825280601f01601f19166020018201604052801561269a5781602001600182028036833780820191505090505b509050600082602001820190505b6001156126fd578080600190039150507f3031323334353637383961626364656600000000000000000000000000000000600a86061a8153600a85816126f1576126f0613a08565b5b049450600085036126a8575b819350505050919050565b60007f80ac58cd000000000000000000000000000000000000000000000000000000007bffffffffffffffffffffffffffffffffffffffffffffffffffffffff1916827bffffffffffffffffffffffffffffffffffffffffffffffffffffffff191614806127d357507f5b5e139f000000000000000000000000000000000000000000000000000000007bffffffffffffffffffffffffffffffffffffffffffffffffffffffff1916827bffffffffffffffffffffffffffffffffffffffffffffffffffffffff1916145b806127e357506127e282612a01565b5b9050919050565b6127f5838383612a6b565b6128a957600073ffffffffffffffffffffffffffffffffffffffff168373ffffffffffffffffffffffffffffffffffffffff160361286a57806040517f7e2732890000000000000000000000000000000000000000000000000000000081526004016128619190612f78565b60405180910390fd5b81816040517f177e802f0000000000000000000000000000000000000000000000000000000081526004016128a0929190613437565b60405180910390fd5b505050565b600080600090507a184f03e93ff9f4daa797ed6e38ed64bf6a1f010000000000000000831061290c577a184f03e93ff9f4daa797ed6e38ed64bf6a1f010000000000000000838161290257612901613a08565b5b0492506040810190505b6d04ee2d6d415b85acef81000000008310612949576d04ee2d6d415b85acef8100000000838161293f5761293e613a08565b5b0492506020810190505b662386f26fc10000831061297857662386f26fc10000838161296e5761296d613a08565b5b0492506010810190505b6305f5e10083106129a1576305f5e100838161299757612996613a08565b5b0492506008810190505b61271083106129c65761271083816129bc576129bb613a08565b5b0492506004810190505b606483106129e957606483816129df576129de613a08565b5b0492506002810190505b600a83106129f8576001810190505b80915050919050565b60007f01ffc9a7000000000000000000000000000000000000000000000000000000007bffffffffffffffffffffffffffffffffffffffffffffffffffffffff1916827bffffffffffffffffffffffffffffffffffffffffffffffffffffffff1916149050919050565b60008073ffffffffffffffffffffffffffffffffffffffff168373ffffffffffffffffffffffffffffffffffffffff1614158015612b2357508273ffffffffffffffffffffffffffffffffffffffff168473ffffffffffffffffffffffffffffffffffffffff161480612ae45750612ae384846110b7565b5b80612b2257508273ffffffffffffffffffffffffffffffffffffffff16612b0a8361124d565b73ffffffffffffffffffffffffffffffffffffffff16145b5b90509392505050565b6000604051905090565b600080fd5b600080fd5b60007fffffffff0000000000000000000000000000000000000000000000000000000082169050919050565b612b7581612b40565b8114612b8057600080fd5b50565b600081359050612b9281612b6c565b92915050565b600060208284031215612bae57612bad612b36565b5b6000612bbc84828501612b83565b91505092915050565b60008115159050919050565b612bda81612bc5565b82525050565b6000602082019050612bf56000830184612bd1565b92915050565b600081519050919050565b600082825260208201905092915050565b60005b83811015612c35578082015181840152602081019050612c1a565b60008484015250505050565b6000601f19601f8301169050919050565b6000612c5d82612bfb565b612c678185612c06565b9350612c77818560208601612c17565b612c8081612c41565b840191505092915050565b60006020820190508181036000830152612ca58184612c52565b905092915050565b6000819050919050565b612cc081612cad565b8114612ccb57600080fd5b50565b600081359050612cdd81612cb7565b92915050565b600060208284031215612cf957612cf8612b36565b5b6000612d0784828501612cce565b91505092915050565b600073ffffffffffffffffffffffffffffffffffffffff82169050919050565b6000612d3b82612d10565b9050919050565b612d4b81612d30565b82525050565b6000602082019050612d666000830184612d42565b92915050565b612d7581612d30565b8114612d8057600080fd5b50565b600081359050612d9281612d6c565b92915050565b60008060408385031215612daf57612dae612b36565b5b6000612dbd85828601612d83565b9250506020612dce85828601612cce565b9150509250929050565b600080fd5b600080fd5b7f4e487b7100000000000000000000000000000000000000000000000000000000600052604160045260246000fd5b612e1a82612c41565b810181811067ffffffffffffffff82111715612e3957612e38612de2565b5b80604052505050565b6000612e4c612b2c565b9050612e588282612e11565b919050565b600067ffffffffffffffff821115612e7857612e77612de2565b5b612e8182612c41565b9050602081019050919050565b82818337600083830152505050565b6000612eb0612eab84612e5d565b612e42565b905082815260208101848484011115612ecc57612ecb612ddd565b5b612ed7848285612e8e565b509392505050565b600082601f830112612ef457612ef3612dd8565b5b8135612f04848260208601612e9d565b91505092915050565b60008060408385031215612f2457612f23612b36565b5b6000612f3285828601612d83565b925050602083013567ffffffffffffffff811115612f5357612f52612b3b565b5b612f5f85828601612edf565b9150509250929050565b612f7281612cad565b82525050565b6000602082019050612f8d6000830184612f69565b92915050565b600080600060608486031215612fac57612fab612b36565b5b6000612fba86828701612d83565b9350506020612fcb86828701612d83565b9250506040612fdc86828701612cce565b9150509250925092565b6000819050919050565b612ff981612fe6565b811461300457600080fd5b50565b60008135905061301681612ff0565b92915050565b60006020828403121561303257613031612b36565b5b600061304084828501613007565b91505092915050565b61305281612fe6565b82525050565b600060208201905061306d6000830184613049565b92915050565b6000806040838503121561308a57613089612b36565b5b600061309885828601613007565b92505060206130a985828601612d83565b9150509250929050565b6000602082840312156130c9576130c8612b36565b5b600082013567ffffffffffffffff8111156130e7576130e6612b3b565b5b6130f384828501612edf565b91505092915050565b60006020828403121561311257613111612b36565b5b600061312084828501612d83565b91505092915050565b61313281612bc5565b811461313d57600080fd5b50565b60008135905061314f81613129565b92915050565b6000806040838503121561316c5761316b612b36565b5b600061317a85828601612d83565b925050602061318b85828601613140565b9150509250929050565b600067ffffffffffffffff8211156131b0576131af612de2565b5b6131b982612c41565b9050602081019050919050565b60006131d96131d484613195565b612e42565b9050828152602081018484840111156131f5576131f4612ddd565b5b613200848285612e8e565b509392505050565b600082601f83011261321d5761321c612dd8565b5b813561322d8482602086016131c6565b91505092915050565b600080600080608085870312156132505761324f612b36565b5b600061325e87828801612d83565b945050602061326f87828801612d83565b935050604061328087828801612cce565b925050606085013567ffffffffffffffff8111156132a1576132a0612b3b565b5b6132ad87828801613208565b91505092959194509250565b600080604083850312156132d0576132cf612b36565b5b60006132de85828601612d83565b92505060206132ef85828601612d83565b9150509250929050565b7f4e487b7100000000000000000000000000000000000000000000000000000000600052602260045260246000fd5b6000600282049050600182168061334057607f821691505b602082108103613353576133526132f9565b5b50919050565b7f4e487b7100000000000000000000000000000000000000000000000000000000600052601160045260246000fd5b600061339382612cad565b91507fffffffffffffffffffffffffffffffffffffffffffffffffffffffffffffffff82036133c5576133c4613359565b5b600182019050919050565b60006040820190506133e56000830185612f69565b81810360208301526133f78184612c52565b90509392505050565b60006060820190506134156000830186612d42565b6134226020830185612f69565b61342f6040830184612d42565b949350505050565b600060408201905061344c6000830185612d42565b6134596020830184612f69565b9392505050565b7f546f6b656e20646f6573206e6f74206578697374000000000000000000000000600082015250565b6000613496601483612c06565b91506134a182613460565b602082019050919050565b600060208201905081810360008301526134c581613489565b9050919050565b7f4e6f7420617070726f766564206f72206f776e65720000000000000000000000600082015250565b6000613502601583612c06565b915061350d826134cc565b602082019050919050565b60006020820190508181036000830152613531816134f5565b9050919050565b7f4e487b7100000000000000000000000000000000000000000000000000000000600052603260045260246000fd5b60008190508160005260206000209050919050565b60006020601f8301049050919050565b600082821b905092915050565b6000600883026135c97fffffffffffffffffffffffffffffffffffffffffffffffffffffffffffffffff8261358c565b6135d3868361358c565b95508019841693508086168417925050509392505050565b6000819050919050565b600061361061360b61360684612cad565b6135eb565b612cad565b9050919050565b6000819050919050565b61362a836135f5565b61363e61363682613617565b848454613599565b825550505050565b600090565b613653613646565b61365e818484613621565b505050565b5b818110156136825761367760008261364b565b600181019050613664565b5050565b601f8211156136c75761369881613567565b6136a18461357c565b810160208510156136b0578190505b6136c46136bc8561357c565b830182613663565b50505b505050565b600082821c905092915050565b60006136ea600019846008026136cc565b1980831691505092915050565b600061370383836136d9565b9150826002028217905092915050565b61371c82612bfb565b67ffffffffffffffff81111561373557613734612de2565b5b61373f8254613328565b61374a828285613686565b600060209050601f83116001811461377d576000841561376b578287015190505b61377585826136f7565b8655506137dd565b601f19841661378b86613567565b60005b828110156137b35784890151825560018201915060208501945060208101905061378e565b868310156137d057848901516137cc601f8916826136d9565b8355505b6001600288020188555050505b505050505050565b50565b60006137f5600083612c06565b9150613800826137e5565b600082019050919050565b60006040820190506138206000830184612f69565b8181036020830152613831816137e8565b905092915050565b600081519050919050565b600082825260208201905092915050565b600061386082613839565b61386a8185613844565b935061387a818560208601612c17565b61388381612c41565b840191505092915050565b60006080820190506138a36000830187612d42565b6138b06020830186612d42565b6138bd6040830185612f69565b81810360608301526138cf8184613855565b905095945050505050565b6000815190506138e981612b6c565b92915050565b60006020828403121561390557613904612b36565b5b6000613913848285016138da565b91505092915050565b600081905092915050565b600061393282612bfb565b61393c818561391c565b935061394c818560208601612c17565b80840191505092915050565b60006139648285613927565b91506139708284613927565b91508190509392505050565b60006040820190506139916000830185612d42565b61399e6020830184613049565b9392505050565b60006139b082612cad565b91506139bb83612cad565b92508282039050818111156139d3576139d2613359565b5b92915050565b7f4e487b7100000000000000000000000000000000000000000000000000000000600052603160045260246000fd5b7f4e487b7100000000000000000000000000000000000000000000000000000000600052601260045260246000fdfea2646970667358221220fd7652c6a14bea8e44f01721900082e58d98ae7a50531ee2965729bb07794f7664736f6c63430008140033",
  "linkReferences": {},
  "deployedLinkReferences": {}
}