{
  "_format": "hh-sol-artifact-1",
  "contractName": "BridgeSepoliaNFT",
  "sourceName": "contracts/BridgeSepoliaNFT.sol",
  "abi": [
    {
      "inputs": [
        {
          "internalType": "address",
          "name": "_wrappedNFT",
          "type": "address"
        }
      ],
      "stateMutability": "nonpayable",
      "type": "constructor"
    },
    {
      "inputs": [],
      "name": "AccessControlBadConfirmation",
      "type": "error"
    },
    {
      "inputs": [
        {
          "internalType": "address",
          "name": "account",
          "type": "address"
        },
        {
          "internalType": "bytes32",
          "name": "neededRole",
          "type": "bytes32"
        }
      ],
      "name": "AccessControlUnauthorizedAccount",
      "type": "error"
    },
    {
      "inputs": [],
      "name": "ReentrancyGuardReentrantCall",
      "type": "error"
    },
    {
      "anonymous": false,
      "inputs": [
        {
          "indexed": true,
          "internalType": "address",
          "name": "token",
          "type": "address"
        },
        {
          "indexed": true,
          "internalType": "address",
          "name": "from",
          "type": "address"
        },
        {
          "indexed": false,
          "internalType": "uint256",
          "name": "tokenId",
          "type": "uint256"
        },
        {
          "indexed": false,
          "internalType": "uint256",
          "name": "nonce",
          "type": "uint256"
        },
        {
          "indexed": false,
          "internalType": "bytes32",
          "name": "transferId",
          "type": "bytes32"
        }
      ],
      "name": "Burned",
      "type": "event"
    },
    {
      "anonymous": false,
      "inputs": [
        {
          "indexed": false,
          "internalType": "bytes32",
          "name": "newRoot",
          "type": "bytes32"
        }
      ],
      "name": "MerkleRootUpdated",
      "type": "event"
    },
    {
      "anonymous": false,
      "inputs": [
        {
          "indexed": true,
          "internalType": "address",
          "name": "token",
          "type": "address"
        },
        {
          "indexed": true,
          "internalType": "address",
          "name": "to",
          "type": "address"
        },
        {
          "indexed": false,
          "internalType": "uint256",
          "name": "tokenId",
          "type": "uint256"
        },
        {
          "indexed": false,
          "internalType": "bytes32",
          "name": "transferId",
          "type": "bytes32"
        }
      ],
      "name": "Released",
      "type": "event"
    },
    {
      "anonymous": false,
      "inputs": [
        {
          "indexed": true,
          "internalType": "bytes32",
          "name": "role",
          "type": "bytes32"
        },
        {
          "indexed": true,
          "internalType": "bytes32",
          "name": "previousAdminRole",
          "type": "bytes32"
        },
        {
          "indexed": true,
          "internalType": "bytes32",
          "name": "newAdminRole",
          "type": "bytes32"
        }
      ],
      "name": "RoleAdminChanged",
      "type": "event"
    },
    {
      "anonymous": false,
      "inputs": [
        {
          "indexed": true,
          "internalType": "bytes32",
          "name": "role",
          "type": "bytes32"
        },
        {
          "indexed": true,
          "internalType": "address",
          "name": "account",
          "type": "address"
        },
        {
          "indexed": true,
          "internalType": "address",
          "name": "sender",
          "type": "address"
        }
      ],
      "name": "RoleGranted",
      "type": "event"
    },
    {
      "anonymous": false,
      "inputs": [
        {
          "indexed": true,
          "internalType": "bytes32",
          "name": "role",
          "type": "bytes32"
        },
        {
          "indexed": true,
          "internalType": "address",
          "name": "account",
          "type": "address"
        },
        {
          "indexed": true,
          "internalType": "address",
          "name": "sender",
          "type": "address"
        }
      ],
      "name": "RoleRevoked",
      "type": "event"
    },
    {
      "inputs": [],
      "name": "DEFAULT_ADMIN_ROLE",
      "outputs": [
        {
          "internalType": "bytes32",
          "name": "",
          "type": "bytes32"
        }
      ],
      "stateMutability": "view",
      "type": "function"
    },
    {
      "inputs": [],
      "name": "RELAYER_ROLE",
      "outputs": [
        {
          "internalType": "bytes32",
          "name": "",
          "type": "bytes32"
        }
      ],
      "stateMutability": "view",
      "type": "function"
    },
    {
      "inputs": [
        {
          "internalType": "address",
          "name": "relayer",
          "type": "address"
        }
      ],
      "name": "addRelayer",
      "outputs": [],
      "stateMutability": "nonpayable",
      "type": "function"
    },
    {
      "inputs": [
        {
          "internalType": "uint256",
          "name": "tokenId",
          "type": "uint256"
        }
      ],
      "name": "burn",
      "outputs": [],
      "stateMutability": "nonpayable",
      "type": "function"
    },
    {
      "inputs": [
        {
          "internalType": "bytes32",
          "name": "role",
          "type": "bytes32"
        }
      ],
      "name": "getRoleAdmin",
      "outputs": [
        {
          "internalType": "bytes32",
          "name": "",
          "type": "bytes32"
        }
      ],
      "stateMutability": "view",
      "type": "function"
    },
    {
      "inputs": [
        {
          "internalType": "bytes32",
          "name": "role",
          "type": "bytes32"
        },
        {
          "internalType": "address",
          "name": "account",
          "type": "address"
        }
      ],
      "name": "grantRole",
      "outputs": [],
      "stateMutability": "nonpayable",
      "type": "function"
    },
    {
      "inputs": [
        {
          "internalType": "bytes32",
          "name": "role",
          "type": "bytes32"
        },
        {
          "internalType": "address",
          "name": "account",
          "type": "address"
        }
      ],
      "name": "hasRole",
      "outputs": [
        {
          "internalType": "bool",
          "name": "",
          "type": "bool"
        }
      ],
      "stateMutability": "view",
      "type": "function"
    },
    {
      "inputs": [],
      "name": "merkleRoot",
      "outputs": [
        {
          "internalType": "bytes32",
          "name": "",
          "type": "bytes32"
        }
      ],
      "stateMutability": "view",
      "type": "function"
    },
    {
      "inputs": [],
      "name": "nonce",
      "outputs": [
        {
          "internalType": "uint256",
          "name": "",
          "type": "uint256"
        }
      ],
      "stateMutability": "view",
      "type": "function"
    },
    {
      "inputs": [
        {
          "internalType": "bytes32",
          "name": "",
          "type": "bytes32"
        }
      ],
      "name": "processedTransfers",
      "outputs": [
        {
          "internalType": "bool",
          "name": "",
          "type": "bool"
        }
      ],
      "stateMutability": "view",
      "type": "function"
    },
    {
      "inputs": [
        {
          "internalType": "address",
          "name": "user",
          "type": "address"
        },
        {
          "internalType": "uint256",
          "name": "tokenId",
          "type": "uint256"
        },
        {
          "internalType": "bytes32[]",
          "name": "merkleProof",
          "type": "bytes32[]"
        },
        {
          "internalType": "bytes32",
          "name": "transferId",
          "type": "bytes32"
        }
      ],
      "name": "release",
      "outputs": [],
      "stateMutability": "nonpayable",
      "type": "function"
    },
    {
      "inputs": [],
      "name": "remoteBridge",
      "outputs": [
        {
          "internalType": "address",
          "name": "",
          "type": "address"
        }
      ],
      "stateMutability": "view",
      "type": "function"
    },
    {
      "inputs": [
        {
          "internalType": "address",
          "name": "relayer",
          "type": "address"
        }
      ],
      "name": "removeRelayer",
      "outputs": [],
      "stateMutability": "nonpayable",
      "type": "function"
    },
    {
      "inputs": [
        {
          "internalType": "bytes32",
          "name": "role",
          "type": "bytes32"
        },
        {
          "internalType": "address",
          "name": "callerConfirmation",
          "type": "address"
        }
      ],
      "name": "renounceRole",
      "outputs": [],
      "stateMutability": "nonpayable",
      "type": "function"
    },
    {
      "inputs": [
        {
          "internalType": "bytes32",
          "name": "role",
          "type": "bytes32"
        },
        {
          "internalType": "address",
          "name": "account",
          "type": "address"
        }
      ],
      "name": "revokeRole",
      "outputs": [],
      "stateMutability": "nonpayable",
      "type": "function"
    },
    {
      "inputs": [
        {
          "internalType": "address",
          "name": "_remoteBridge",
          "type": "address"
        }
      ],
      "name": "setRemoteBridge",
      "outputs": [],
      "stateMutability": "nonpayable",
      "type": "function"
    },
    {
      "inputs": [
        {
          "internalType": "bytes4",
          "name": "interfaceId",
          "type": "bytes4"
        }
      ],
      "name": "supportsInterface",
      "outputs": [
        {
          "internalType": "bool",
          "name": "",
          "type": "bool"
        }
      ],
      "stateMutability": "view",
      "type": "function"
    },
    {
      "inputs": [
        {
          "internalType": "bytes32",
          "name": "newRoot",
          "type": "bytes32"
        }
      ],
      "name": "updateMerkleRoot",
      "outputs": [],
      "stateMutability": "nonpayable",
      "type": "function"
    },
    {
      "inputs": [],
      "name": "wrappedNFT",
      "outputs": [
        {
          "internalType": "contract IERC721Mintable",
          "name": "",
          "type": "address"
        }
      ],
      "stateMutability": "view",
      "type": "function"
    }
  ],
  "bytecode": "0x60806040523480156200001157600080fd5b5060405162001b5f38038062001b5f8339818101604052810190620000379190620002ae565b6001808190555080600260006101000a81548173ffffffffffffffffffffffffffffffffffffffff021916908373ffffffffffffffffffffffffffffffffffffffff160217905550620000946000801b33620000cf60201b60201c565b50620000c77fe2b7fb3b832174769106daebcfd6d1970523240dda11281102db9363b83b0dc433620000cf60201b60201c565b5050620002e0565b6000620000e38383620001d260201b60201c565b620001c757600160008085815260200190815260200160002060000160008473ffffffffffffffffffffffffffffffffffffffff1673ffffffffffffffffffffffffffffffffffffffff16815260200190815260200160002060006101000a81548160ff021916908315150217905550620001636200023c60201b60201c565b73ffffffffffffffffffffffffffffffffffffffff168273ffffffffffffffffffffffffffffffffffffffff16847f2f8788117e7eff1d82e926ec794901d17c78024a50270940304540a733656f0d60405160405180910390a460019050620001cc565b600090505b92915050565b600080600084815260200190815260200160002060000160008373ffffffffffffffffffffffffffffffffffffffff1673ffffffffffffffffffffffffffffffffffffffff16815260200190815260200160002060009054906101000a900460ff16905092915050565b600033905090565b600080fd5b600073ffffffffffffffffffffffffffffffffffffffff82169050919050565b6000620002768262000249565b9050919050565b620002888162000269565b81146200029457600080fd5b50565b600081519050620002a8816200027d565b92915050565b600060208284031215620002c757620002c662000244565b5b6000620002d78482850162000297565b91505092915050565b61186f80620002f06000396000f3fe608060405234801561001057600080fd5b50600436106101215760003560e01c8063606c8ffd116100ad578063affed0e011610071578063affed0e0146102f2578063c97123bb14610310578063d547741f1461032e578063dd39f00d1461034a578063dd910d751461036657610121565b8063606c8ffd1461024e57806360f0a5ac1461026a57806391d1485414610286578063926d7d7f146102b6578063a217fddf146102d457610121565b80632f2ff15d116100f45780632f2ff15d146101c057806336568abe146101dc57806342966c68146101f8578063436e66aa146102145780634783f0ef1461023257610121565b806301ffc9a71461012657806316ce814914610156578063248a9ca3146101725780632eb4a7ab146101a2575b600080fd5b610140600480360381019061013b919061106d565b610396565b60405161014d91906110b5565b60405180910390f35b610170600480360381019061016b919061112e565b610410565b005b61018c60048036038101906101879190611191565b610462565b60405161019991906111cd565b60405180910390f35b6101aa610481565b6040516101b791906111cd565b60405180910390f35b6101da60048036038101906101d591906111e8565b610487565b005b6101f660048036038101906101f191906111e8565b6104a9565b005b610212600480360381019061020d919061125e565b610524565b005b61021c6107a4565b60405161022991906112ea565b60405180910390f35b61024c60048036038101906102479190611191565b6107ca565b005b6102686004803603810190610263919061136a565b610836565b005b610284600480360381019061027f919061112e565b610ada565b005b6102a0600480360381019061029b91906111e8565b610b15565b6040516102ad91906110b5565b60405180910390f35b6102be610b7f565b6040516102cb91906111cd565b60405180910390f35b6102dc610ba3565b6040516102e991906111cd565b60405180910390f35b6102fa610baa565b6040516103079190611401565b60405180910390f35b610318610bb0565b604051610325919061142b565b60405180910390f35b610348600480360381019061034391906111e8565b610bd6565b005b610364600480360381019061035f919061112e565b610bf8565b005b610380600480360381019061037b9190611191565b610c33565b60405161038d91906110b5565b60405180910390f35b60007f7965db0b000000000000000000000000000000000000000000000000000000007bffffffffffffffffffffffffffffffffffffffffffffffffffffffff1916827bffffffffffffffffffffffffffffffffffffffffffffffffffffffff19161480610409575061040882610c53565b5b9050919050565b6000801b61041d81610cbd565b81600360006101000a81548173ffffffffffffffffffffffffffffffffffffffff021916908373ffffffffffffffffffffffffffffffffffffffff1602179055505050565b6000806000838152602001908152602001600020600101549050919050565b60045481565b61049082610462565b61049981610cbd565b6104a38383610cd1565b50505050565b6104b1610dc2565b73ffffffffffffffffffffffffffffffffffffffff168173ffffffffffffffffffffffffffffffffffffffff1614610515576040517f6697b23200000000000000000000000000000000000000000000000000000000815260040160405180910390fd5b61051f8282610dca565b505050565b61052c610ebc565b3373ffffffffffffffffffffffffffffffffffffffff16600260009054906101000a900473ffffffffffffffffffffffffffffffffffffffff1673ffffffffffffffffffffffffffffffffffffffff16636352211e836040518263ffffffff1660e01b815260040161059e9190611401565b602060405180830381865afa1580156105bb573d6000803e3d6000fd5b505050506040513d601f19601f820116820180604052508101906105df919061145b565b73ffffffffffffffffffffffffffffffffffffffff1614610635576040517f08c379a000000000000000000000000000000000000000000000000000000000815260040161062c906114e5565b60405180910390fd5b6006600081548092919061064890611534565b9190505550600260009054906101000a900473ffffffffffffffffffffffffffffffffffffffff1673ffffffffffffffffffffffffffffffffffffffff166342966c68826040518263ffffffff1660e01b81526004016106a89190611401565b600060405180830381600087803b1580156106c257600080fd5b505af11580156106d6573d6000803e3d6000fd5b50505050600033826006546040516020016106f3939291906115e5565b6040516020818303038152906040528051906020012090503373ffffffffffffffffffffffffffffffffffffffff16600260009054906101000a900473ffffffffffffffffffffffffffffffffffffffff1673ffffffffffffffffffffffffffffffffffffffff167f1a38dd711da918b1612d50ecc45d125feeb50bc8131bfb9247604d98923f4920846006548560405161079093929190611622565b60405180910390a3506107a1610f02565b50565b600260009054906101000a900473ffffffffffffffffffffffffffffffffffffffff1681565b7fe2b7fb3b832174769106daebcfd6d1970523240dda11281102db9363b83b0dc46107f481610cbd565b816004819055507f90004c04698bc3322499a575ed3752dd4abf33e0a7294c06a787a0fe01bea9418260405161082a91906111cd565b60405180910390a15050565b61083e610ebc565b7fe2b7fb3b832174769106daebcfd6d1970523240dda11281102db9363b83b0dc461086881610cbd565b6005600083815260200190815260200160002060009054906101000a900460ff16156108c9576040517f08c379a00000000000000000000000000000000000000000000000000000000081526004016108c0906116a5565b60405180910390fd5b60008686846040516020016108e0939291906116e6565b604051602081830303815290604052805190602001209050610946858580806020026020016040519081016040528093929190818152602001838360200280828437600081840152601f19601f8201169050808301925050505050505060045483610f0b565b610985576040517f08c379a000000000000000000000000000000000000000000000000000000000815260040161097c9061176f565b60405180910390fd5b60016005600085815260200190815260200160002060006101000a81548160ff021916908315150217905550600260009054906101000a900473ffffffffffffffffffffffffffffffffffffffff1673ffffffffffffffffffffffffffffffffffffffff166340c10f1988886040518363ffffffff1660e01b8152600401610a0e92919061178f565b600060405180830381600087803b158015610a2857600080fd5b505af1158015610a3c573d6000803e3d6000fd5b505050508673ffffffffffffffffffffffffffffffffffffffff16600260009054906101000a900473ffffffffffffffffffffffffffffffffffffffff1673ffffffffffffffffffffffffffffffffffffffff167fa665ffb445611e4a69ea6bd353374f390a656906ea2da3245a8aae47a360a6cc8886604051610ac19291906117b8565b60405180910390a35050610ad3610f02565b5050505050565b6000801b610ae781610cbd565b610b117fe2b7fb3b832174769106daebcfd6d1970523240dda11281102db9363b83b0dc483610bd6565b5050565b600080600084815260200190815260200160002060000160008373ffffffffffffffffffffffffffffffffffffffff1673ffffffffffffffffffffffffffffffffffffffff16815260200190815260200160002060009054906101000a900460ff16905092915050565b7fe2b7fb3b832174769106daebcfd6d1970523240dda11281102db9363b83b0dc481565b6000801b81565b60065481565b600360009054906101000a900473ffffffffffffffffffffffffffffffffffffffff1681565b610bdf82610462565b610be881610cbd565b610bf28383610dca565b50505050565b6000801b610c0581610cbd565b610c2f7fe2b7fb3b832174769106daebcfd6d1970523240dda11281102db9363b83b0dc483610487565b5050565b60056020528060005260406000206000915054906101000a900460ff1681565b60007f01ffc9a7000000000000000000000000000000000000000000000000000000007bffffffffffffffffffffffffffffffffffffffffffffffffffffffff1916827bffffffffffffffffffffffffffffffffffffffffffffffffffffffff1916149050919050565b610cce81610cc9610dc2565b610f22565b50565b6000610cdd8383610b15565b610db757600160008085815260200190815260200160002060000160008473ffffffffffffffffffffffffffffffffffffffff1673ffffffffffffffffffffffffffffffffffffffff16815260200190815260200160002060006101000a81548160ff021916908315150217905550610d54610dc2565b73ffffffffffffffffffffffffffffffffffffffff168273ffffffffffffffffffffffffffffffffffffffff16847f2f8788117e7eff1d82e926ec794901d17c78024a50270940304540a733656f0d60405160405180910390a460019050610dbc565b600090505b92915050565b600033905090565b6000610dd68383610b15565b15610eb157600080600085815260200190815260200160002060000160008473ffffffffffffffffffffffffffffffffffffffff1673ffffffffffffffffffffffffffffffffffffffff16815260200190815260200160002060006101000a81548160ff021916908315150217905550610e4e610dc2565b73ffffffffffffffffffffffffffffffffffffffff168273ffffffffffffffffffffffffffffffffffffffff16847ff6391f5c32d9c69d2a47ea670b442974b53935d1edc7fd64eb21e047a839171b60405160405180910390a460019050610eb6565b600090505b92915050565b600260015403610ef8576040517f3ee5aeb500000000000000000000000000000000000000000000000000000000815260040160405180910390fd5b6002600181905550565b60018081905550565b600082610f188584610f73565b1490509392505050565b610f2c8282610b15565b610f6f5780826040517fe2517d3f000000000000000000000000000000000000000000000000000000008152600401610f669291906117e1565b60405180910390fd5b5050565b60008082905060005b8451811015610fbe57610fa982868381518110610f9c57610f9b61180a565b5b6020026020010151610fc9565b91508080610fb690611534565b915050610f7c565b508091505092915050565b6000818310610fe157610fdc8284610ff4565b610fec565b610feb8383610ff4565b5b905092915050565b600082600052816020526040600020905092915050565b600080fd5b600080fd5b60007fffffffff0000000000000000000000000000000000000000000000000000000082169050919050565b61104a81611015565b811461105557600080fd5b50565b60008135905061106781611041565b92915050565b6000602082840312156110835761108261100b565b5b600061109184828501611058565b91505092915050565b60008115159050919050565b6110af8161109a565b82525050565b60006020820190506110ca60008301846110a6565b92915050565b600073ffffffffffffffffffffffffffffffffffffffff82169050919050565b60006110fb826110d0565b9050919050565b61110b816110f0565b811461111657600080fd5b50565b60008135905061112881611102565b92915050565b6000602082840312156111445761114361100b565b5b600061115284828501611119565b91505092915050565b6000819050919050565b61116e8161115b565b811461117957600080fd5b50565b60008135905061118b81611165565b92915050565b6000602082840312156111a7576111a661100b565b5b60006111b58482850161117c565b91505092915050565b6111c78161115b565b82525050565b60006020820190506111e260008301846111be565b92915050565b600080604083850312156111ff576111fe61100b565b5b600061120d8582860161117c565b925050602061121e85828601611119565b9150509250929050565b6000819050919050565b61123b81611228565b811461124657600080fd5b50565b60008135905061125881611232565b92915050565b6000602082840312156112745761127361100b565b5b600061128284828501611249565b91505092915050565b6000819050919050565b60006112b06112ab6112a6846110d0565b61128b565b6110d0565b9050919050565b60006112c282611295565b9050919050565b60006112d4826112b7565b9050919050565b6112e4816112c9565b82525050565b60006020820190506112ff60008301846112db565b92915050565b600080fd5b600080fd5b600080fd5b60008083601f84011261132a57611329611305565b5b8235905067ffffffffffffffff8111156113475761134661130a565b5b6020830191508360208202830111156113635761136261130f565b5b9250929050565b6000806000806000608086880312156113865761138561100b565b5b600061139488828901611119565b95505060206113a588828901611249565b945050604086013567ffffffffffffffff8111156113c6576113c5611010565b5b6113d288828901611314565b935093505060606113e58882890161117c565b9150509295509295909350565b6113fb81611228565b82525050565b600060208201905061141660008301846113f2565b92915050565b611425816110f0565b82525050565b6000602082019050611440600083018461141c565b92915050565b60008151905061145581611102565b92915050565b6000602082840312156114715761147061100b565b5b600061147f84828501611446565b91505092915050565b600082825260208201905092915050565b7f4e6f7420746f6b656e206f776e65720000000000000000000000000000000000600082015250565b60006114cf600f83611488565b91506114da82611499565b602082019050919050565b600060208201905081810360008301526114fe816114c2565b9050919050565b7f4e487b7100000000000000000000000000000000000000000000000000000000600052601160045260246000fd5b600061153f82611228565b91507fffffffffffffffffffffffffffffffffffffffffffffffffffffffffffffffff820361157157611570611505565b5b600182019050919050565b60008160601b9050919050565b60006115948261157c565b9050919050565b60006115a682611589565b9050919050565b6115be6115b9826110f0565b61159b565b82525050565b6000819050919050565b6115df6115da82611228565b6115c4565b82525050565b60006115f182866115ad565b60148201915061160182856115ce565b60208201915061161182846115ce565b602082019150819050949350505050565b600060608201905061163760008301866113f2565b61164460208301856113f2565b61165160408301846111be565b949350505050565b7f5472616e7366657220616c72656164792070726f636573736564000000000000600082015250565b600061168f601a83611488565b915061169a82611659565b602082019050919050565b600060208201905081810360008301526116be81611682565b9050919050565b6000819050919050565b6116e06116db8261115b565b6116c5565b82525050565b60006116f282866115ad565b60148201915061170282856115ce565b60208201915061171282846116cf565b602082019150819050949350505050565b7f496e76616c6964206d65726b6c652070726f6f66000000000000000000000000600082015250565b6000611759601483611488565b915061176482611723565b602082019050919050565b600060208201905081810360008301526117888161174c565b9050919050565b60006040820190506117a4600083018561141c565b6117b160208301846113f2565b9392505050565b60006040820190506117cd60008301856113f2565b6117da60208301846111be565b9392505050565b60006040820190506117f6600083018561141c565b61180360208301846111be565b9392505050565b7f4e487b7100000000000000000000000000000000000000000000000000000000600052603260045260246000fdfea2646970667358221220ac05a2bb8bf7041c243ffc806155da3481404661d0db8e64de6a15a2fc2eac2764736f6c63430008140033",
  "linkReferences": {},
  "deployedLinkReferences": {}
}