{
  "_format": "hh-sol-artifact-1",
  "contractName": "WrappedNFT",
  "sourceName": "contracts/WrappedNFT.sol",
  "abi": [
    {
      "inputs": [
        {
          "internalType": "string",
          "name": "name",
          "type": "string"
        },
        {
          "internalType": "string",
          "name": "symbol",
          "type": "string"
        },
        {
          "internalType": "address",
          "name": "_originalNFT",
          "type": "address"
        },
        {
          "internalType": "uint256",
          "name": "_originalChainId",
          "type": "uint256"
        }
      ],
      "stateMutability": "nonpayable",
      "type": "constructor"
    },
    {
      "inputs": [],
      "name": "AccessControlBadConfirmation",
      "type": "error"
    },
    {
      "inputs": [
        {
          "internalType": "address",
          "name": "account",
          "type": "address"
        },
        {
          "internalType": "bytes32",
          "name": "neededRole",
          "type": "bytes32"
        }
      ],
      "name": "AccessControlUnauthorizedAccount",
      "type": "error"
    },
    {
      "inputs": [
        {
          "internalType": "address",
          "name": "sender",
          "type": "address"
        },
        {
          "internalType": "uint256",
          "name": "tokenId",
          "type": "uint256"
        },
        {
          "internalType": "address",
          "name": "owner",
          "type": "address"
        }
      ],
      "name": "ERC721IncorrectOwner",
      "type": "error"
    },
    {
      "inputs": [
        {
          "internalType": "address",
          "name": "operator",
          "type": "address"
        },
        {
          "internalType": "uint256",
          "name": "tokenId",
          "type": "uint256"
        }
      ],
      "name": "ERC721InsufficientApproval",
      "type": "error"
    },
    {
      "inputs": [
        {
          "internalType": "address",
          "name": "approver",
          "type": "address"
        }
      ],
      "name": "ERC721InvalidApprover",
      "type": "error"
    },
    {
      "inputs": [
        {
          "internalType": "address",
          "name": "operator",
          "type": "address"
        }
      ],
      "name": "ERC721InvalidOperator",
      "type": "error"
    },
    {
      "inputs": [
        {
          "internalType": "address",
          "name": "owner",
          "type": "address"
        }
      ],
      "name": "ERC721InvalidOwner",
      "type": "error"
    },
    {
      "inputs": [
        {
          "internalType": "address",
          "name": "receiver",
          "type": "address"
        }
      ],
      "name": "ERC721InvalidReceiver",
      "type": "error"
    },
    {
      "inputs": [
        {
          "internalType": "address",
          "name": "sender",
          "type": "address"
        }
      ],
      "name": "ERC721InvalidSender",
      "type": "error"
    },
    {
      "inputs": [
        {
          "internalType": "uint256",
          "name": "tokenId",
          "type": "uint256"
        }
      ],
      "name": "ERC721NonexistentToken",
      "type": "error"
    },
    {
      "inputs": [],
      "name": "EnforcedPause",
      "type": "error"
    },
    {
      "inputs": [],
      "name": "ExpectedPause",
      "type": "error"
    },
    {
      "anonymous": false,
      "inputs": [
        {
          "indexed": true,
          "internalType": "address",
          "name": "owner",
          "type": "address"
        },
        {
          "indexed": true,
          "internalType": "address",
          "name": "approved",
          "type": "address"
        },
        {
          "indexed": true,
          "internalType": "uint256",
          "name": "tokenId",
          "type": "uint256"
        }
      ],
      "name": "Approval",
      "type": "event"
    },
    {
      "anonymous": false,
      "inputs": [
        {
          "indexed": true,
          "internalType": "address",
          "name": "owner",
          "type": "address"
        },
        {
          "indexed": true,
          "internalType": "address",
          "name": "operator",
          "type": "address"
        },
        {
          "indexed": false,
          "internalType": "bool",
          "name": "approved",
          "type": "bool"
        }
      ],
      "name": "ApprovalForAll",
      "type": "event"
    },
    {
      "anonymous": false,
      "inputs": [
        {
          "indexed": false,
          "internalType": "uint256",
          "name": "tokenId",
          "type": "uint256"
        }
      ],
      "name": "NFTBurned",
      "type": "event"
    },
    {
      "anonymous": false,
      "inputs": [
        {
          "indexed": true,
          "internalType": "address",
          "name": "to",
          "type": "address"
        },
        {
          "indexed": false,
          "internalType": "uint256",
          "name": "tokenId",
          "type": "uint256"
        }
      ],
      "name": "NFTMinted",
      "type": "event"
    },
    {
      "anonymous": false,
      "inputs": [
        {
          "indexed": false,
          "internalType": "address",
          "name": "account",
          "type": "address"
        }
      ],
      "name": "Paused",
      "type": "event"
    },
    {
      "anonymous": false,
      "inputs": [
        {
          "indexed": true,
          "internalType": "bytes32",
          "name": "role",
          "type": "bytes32"
        },
        {
          "indexed": true,
          "internalType": "bytes32",
          "name": "previousAdminRole",
          "type": "bytes32"
        },
        {
          "indexed": true,
          "internalType": "bytes32",
          "name": "newAdminRole",
          "type": "bytes32"
        }
      ],
      "name": "RoleAdminChanged",
      "type": "event"
    },
    {
      "anonymous": false,
      "inputs": [
        {
          "indexed": true,
          "internalType": "bytes32",
          "name": "role",
          "type": "bytes32"
        },
        {
          "indexed": true,
          "internalType": "address",
          "name": "account",
          "type": "address"
        },
        {
          "indexed": true,
          "internalType": "address",
          "name": "sender",
          "type": "address"
        }
      ],
      "name": "RoleGranted",
      "type": "event"
    },
    {
      "anonymous": false,
      "inputs": [
        {
          "indexed": true,
          "internalType": "bytes32",
          "name": "role",
          "type": "bytes32"
        },
        {
          "indexed": true,
          "internalType": "address",
          "name": "account",
          "type": "address"
        },
        {
          "indexed": true,
          "internalType": "address",
          "name": "sender",
          "type": "address"
        }
      ],
      "name": "RoleRevoked",
      "type": "event"
    },
    {
      "anonymous": false,
      "inputs": [
        {
          "indexed": true,
          "internalType": "address",
          "name": "from",
          "type": "address"
        },
        {
          "indexed": true,
          "internalType": "address",
          "name": "to",
          "type": "address"
        },
        {
          "indexed": true,
          "internalType": "uint256",
          "name": "tokenId",
          "type": "uint256"
        }
      ],
      "name": "Transfer",
      "type": "event"
    },
    {
      "anonymous": false,
      "inputs": [
        {
          "indexed": true,
          "internalType": "uint256",
          "name": "tokenId",
          "type": "uint256"
        },
        {
          "indexed": false,
          "internalType": "string",
          "name": "uri",
          "type": "string"
        }
      ],
      "name": "URISet",
      "type": "event"
    },
    {
      "anonymous": false,
      "inputs": [
        {
          "indexed": false,
          "internalType": "address",
          "name": "account",
          "type": "address"
        }
      ],
      "name": "Unpaused",
      "type": "event"
    },
    {
      "inputs": [],
      "name": "BURNER_ROLE",
      "outputs": [
        {
          "internalType": "bytes32",
          "name": "",
          "type": "bytes32"
        }
      ],
      "stateMutability": "view",
      "type": "function"
    },
    {
      "inputs": [],
      "name": "DEFAULT_ADMIN_ROLE",
      "outputs": [
        {
          "internalType": "bytes32",
          "name": "",
          "type": "bytes32"
        }
      ],
      "stateMutability": "view",
      "type": "function"
    },
    {
      "inputs": [],
      "name": "MINTER_ROLE",
      "outputs": [
        {
          "internalType": "bytes32",
          "name": "",
          "type": "bytes32"
        }
      ],
      "stateMutability": "view",
      "type": "function"
    },
    {
      "inputs": [],
      "name": "PAUSER_ROLE",
      "outputs": [
        {
          "internalType": "bytes32",
          "name": "",
          "type": "bytes32"
        }
      ],
      "stateMutability": "view",
      "type": "function"
    },
    {
      "inputs": [
        {
          "internalType": "address",
          "name": "to",
          "type": "address"
        },
        {
          "internalType": "uint256",
          "name": "tokenId",
          "type": "uint256"
        }
      ],
      "name": "approve",
      "outputs": [],
      "stateMutability": "nonpayable",
      "type": "function"
    },
    {
      "inputs": [
        {
          "internalType": "address",
          "name": "owner",
          "type": "address"
        }
      ],
      "name": "balanceOf",
      "outputs": [
        {
          "internalType": "uint256",
          "name": "",
          "type": "uint256"
        }
      ],
      "stateMutability": "view",
      "type": "function"
    },
    {
      "inputs": [
        {
          "internalType": "uint256",
          "name": "tokenId",
          "type": "uint256"
        }
      ],
      "name": "burn",
      "outputs": [],
      "stateMutability": "nonpayable",
      "type": "function"
    },
    {
      "inputs": [
        {
          "internalType": "uint256",
          "name": "tokenId",
          "type": "uint256"
        }
      ],
      "name": "getApproved",
      "outputs": [
        {
          "internalType": "address",
          "name": "",
          "type": "address"
        }
      ],
      "stateMutability": "view",
      "type": "function"
    },
    {
      "inputs": [
        {
          "internalType": "bytes32",
          "name": "role",
          "type": "bytes32"
        }
      ],
      "name": "getRoleAdmin",
      "outputs": [
        {
          "internalType": "bytes32",
          "name": "",
          "type": "bytes32"
        }
      ],
      "stateMutability": "view",
      "type": "function"
    },
    {
      "inputs": [
        {
          "internalType": "bytes32",
          "name": "role",
          "type": "bytes32"
        },
        {
          "internalType": "address",
          "name": "account",
          "type": "address"
        }
      ],
      "name": "grantRole",
      "outputs": [],
      "stateMutability": "nonpayable",
      "type": "function"
    },
    {
      "inputs": [
        {
          "internalType": "bytes32",
          "name": "role",
          "type": "bytes32"
        },
        {
          "internalType": "address",
          "name": "account",
          "type": "address"
        }
      ],
      "name": "hasRole",
      "outputs": [
        {
          "internalType": "bool",
          "name": "",
          "type": "bool"
        }
      ],
      "stateMutability": "view",
      "type": "function"
    },
    {
      "inputs": [
        {
          "internalType": "address",
          "name": "owner",
          "type": "address"
        },
        {
          "internalType": "address",
          "name": "operator",
          "type": "address"
        }
      ],
      "name": "isApprovedForAll",
      "outputs": [
        {
          "internalType": "bool",
          "name": "",
          "type": "bool"
        }
      ],
      "stateMutability": "view",
      "type": "function"
    },
    {
      "inputs": [
        {
          "internalType": "address",
          "name": "to",
          "type": "address"
        },
        {
          "internalType": "uint256",
          "name": "tokenId",
          "type": "uint256"
        }
      ],
      "name": "mint",
      "outputs": [],
      "stateMutability": "nonpayable",
      "type": "function"
    },
    {
      "inputs": [
        {
          "internalType": "address",
          "name": "to",
          "type": "address"
        },
        {
          "internalType": "uint256",
          "name": "tokenId",
          "type": "uint256"
        },
        {
          "internalType": "string",
          "name": "uri",
          "type": "string"
        }
      ],
      "name": "mintWithURI",
      "outputs": [],
      "stateMutability": "nonpayable",
      "type": "function"
    },
    {
      "inputs": [],
      "name": "name",
      "outputs": [
        {
          "internalType": "string",
          "name": "",
          "type": "string"
        }
      ],
      "stateMutability": "view",
      "type": "function"
    },
    {
      "inputs": [],
      "name": "originalChainId",
      "outputs": [
        {
          "internalType": "uint256",
          "name": "",
          "type": "uint256"
        }
      ],
      "stateMutability": "view",
      "type": "function"
    },
    {
      "inputs": [],
      "name": "originalNFT",
      "outputs": [
        {
          "internalType": "address",
          "name": "",
          "type": "address"
        }
      ],
      "stateMutability": "view",
      "type": "function"
    },
    {
      "inputs": [
        {
          "internalType": "uint256",
          "name": "tokenId",
          "type": "uint256"
        }
      ],
      "name": "ownerOf",
      "outputs": [
        {
          "internalType": "address",
          "name": "",
          "type": "address"
        }
      ],
      "stateMutability": "view",
      "type": "function"
    },
    {
      "inputs": [],
      "name": "pause",
      "outputs": [],
      "stateMutability": "nonpayable",
      "type": "function"
    },
    {
      "inputs": [],
      "name": "paused",
      "outputs": [
        {
          "internalType": "bool",
          "name": "",
          "type": "bool"
        }
      ],
      "stateMutability": "view",
      "type": "function"
    },
    {
      "inputs": [
        {
          "internalType": "bytes32",
          "name": "role",
          "type": "bytes32"
        },
        {
          "internalType": "address",
          "name": "callerConfirmation",
          "type": "address"
        }
      ],
      "name": "renounceRole",
      "outputs": [],
      "stateMutability": "nonpayable",
      "type": "function"
    },
    {
      "inputs": [
        {
          "internalType": "bytes32",
          "name": "role",
          "type": "bytes32"
        },
        {
          "internalType": "address",
          "name": "account",
          "type": "address"
        }
      ],
      "name": "revokeRole",
      "outputs": [],
      "stateMutability": "nonpayable",
      "type": "function"
    },
    {
      "inputs": [
        {
          "internalType": "address",
          "name": "from",
          "type": "address"
        },
        {
          "internalType": "address",
          "name": "to",
          "type": "address"
        },
        {
          "internalType": "uint256",
          "name": "tokenId",
          "type": "uint256"
        }
      ],
      "name": "safeTransferFrom",
      "outputs": [],
      "stateMutability": "nonpayable",
      "type": "function"
    },
    {
      "inputs": [
        {
          "internalType": "address",
          "name": "from",
          "type": "address"
        },
        {
          "internalType": "address",
          "name": "to",
          "type": "address"
        },
        {
          "internalType": "uint256",
          "name": "tokenId",
          "type": "uint256"
        },
        {
          "internalType": "bytes",
          "name": "data",
          "type": "bytes"
        }
      ],
      "name": "safeTransferFrom",
      "outputs": [],
      "stateMutability": "nonpayable",
      "type": "function"
    },
    {
      "inputs": [
        {
          "internalType": "address",
          "name": "operator",
          "type": "address"
        },
        {
          "internalType": "bool",
          "name": "approved",
          "type": "bool"
        }
      ],
      "name": "setApprovalForAll",
      "outputs": [],
      "stateMutability": "nonpayable",
      "type": "function"
    },
    {
      "inputs": [
        {
          "internalType": "address",
          "name": "bridge",
          "type": "address"
        }
      ],
      "name": "setApprovalForBridge",
      "outputs": [],
      "stateMutability": "nonpayable",
      "type": "function"
    },
    {
      "inputs": [
        {
          "internalType": "uint256",
          "name": "tokenId",
          "type": "uint256"
        },
        {
          "internalType": "string",
          "name": "uri",
          "type": "string"
        }
      ],
      "name": "setTokenURI",
      "outputs": [],
      "stateMutability": "nonpayable",
      "type": "function"
    },
    {
      "inputs": [
        {
          "internalType": "bytes4",
          "name": "interfaceId",
          "type": "bytes4"
        }
      ],
      "name": "supportsInterface",
      "outputs": [
        {
          "internalType": "bool",
          "name": "",
          "type": "bool"
        }
      ],
      "stateMutability": "view",
      "type": "function"
    },
    {
      "inputs": [],
      "name": "symbol",
      "outputs": [
        {
          "internalType": "string",
          "name": "",
          "type": "string"
        }
      ],
      "stateMutability": "view",
      "type": "function"
    },
    {
      "inputs": [
        {
          "internalType": "uint256",
          "name": "tokenId",
          "type": "uint256"
        }
      ],
      "name": "tokenURI",
      "outputs": [
        {
          "internalType": "string",
          "name": "",
          "type": "string"
        }
      ],
      "stateMutability": "view",
      "type": "function"
    },
    {
      "inputs": [
        {
          "internalType": "address",
          "name": "from",
          "type": "address"
        },
        {
          "internalType": "address",
          "name": "to",
          "type": "address"
        },
        {
          "internalType": "uint256",
          "name": "tokenId",
          "type": "uint256"
        }
      ],
      "name": "transferFrom",
      "outputs": [],
      "stateMutability": "nonpayable",
      "type": "function"
    },
    {
      "inputs": [],
      "name": "unpause",
      "outputs": [],
      "stateMutability": "nonpayable",
      "type": "function"
    }
  ],
  "bytecode": "0x60806040523480156200001157600080fd5b50604051620037d3380380620037d3833981810160405281019062000037919062000525565b838381600090816200004a919062000816565b5080600190816200005c919062000816565b5050506000600760006101000a81548160ff0219169083151502179055506200008f6000801b336200017b60201b60201c565b50620000c27f9f2df0fed2c77648de5860a4cc508cd0818c85b8b8a1ab4ceeef8d981c8956a6336200017b60201b60201c565b50620000f57f3c11d16cbaffd01df69ce1c404f6340ee057498f5f00246190ea54220576a848336200017b60201b60201c565b50620001287f65d7a28e3265b37a6474929f336521b332c1681b933f6cb9f3376673440d862a336200017b60201b60201c565b5081600760016101000a81548173ffffffffffffffffffffffffffffffffffffffff021916908373ffffffffffffffffffffffffffffffffffffffff1602179055508060088190555050505050620008fd565b60006200018f83836200027f60201b60201c565b620002745760016006600085815260200190815260200160002060000160008473ffffffffffffffffffffffffffffffffffffffff1673ffffffffffffffffffffffffffffffffffffffff16815260200190815260200160002060006101000a81548160ff02191690831515021790555062000210620002ea60201b60201c565b73ffffffffffffffffffffffffffffffffffffffff168273ffffffffffffffffffffffffffffffffffffffff16847f2f8788117e7eff1d82e926ec794901d17c78024a50270940304540a733656f0d60405160405180910390a46001905062000279565b600090505b92915050565b60006006600084815260200190815260200160002060000160008373ffffffffffffffffffffffffffffffffffffffff1673ffffffffffffffffffffffffffffffffffffffff16815260200190815260200160002060009054906101000a900460ff16905092915050565b600033905090565b6000604051905090565b600080fd5b600080fd5b600080fd5b600080fd5b6000601f19601f8301169050919050565b7f4e487b7100000000000000000000000000000000000000000000000000000000600052604160045260246000fd5b6200035b8262000310565b810181811067ffffffffffffffff821117156200037d576200037c62000321565b5b80604052505050565b600062000392620002f2565b9050620003a0828262000350565b919050565b600067ffffffffffffffff821115620003c357620003c262000321565b5b620003ce8262000310565b9050602081019050919050565b60005b83811015620003fb578082015181840152602081019050620003de565b60008484015250505050565b60006200041e6200041884620003a5565b62000386565b9050828152602081018484840111156200043d576200043c6200030b565b5b6200044a848285620003db565b509392505050565b600082601f8301126200046a576200046962000306565b5b81516200047c84826020860162000407565b91505092915050565b600073ffffffffffffffffffffffffffffffffffffffff82169050919050565b6000620004b28262000485565b9050919050565b620004c481620004a5565b8114620004d057600080fd5b50565b600081519050620004e481620004b9565b92915050565b6000819050919050565b620004ff81620004ea565b81146200050b57600080fd5b50565b6000815190506200051f81620004f4565b92915050565b60008060008060808587031215620005425762000541620002fc565b5b600085015167ffffffffffffffff81111562000563576200056262000301565b5b620005718782880162000452565b945050602085015167ffffffffffffffff81111562000595576200059462000301565b5b620005a38782880162000452565b9350506040620005b687828801620004d3565b9250506060620005c9878288016200050e565b91505092959194509250565b600081519050919050565b7f4e487b7100000000000000000000000000000000000000000000000000000000600052602260045260246000fd5b600060028204905060018216806200062857607f821691505b6020821081036200063e576200063d620005e0565b5b50919050565b60008190508160005260206000209050919050565b60006020601f8301049050919050565b600082821b905092915050565b600060088302620006a87fffffffffffffffffffffffffffffffffffffffffffffffffffffffffffffffff8262000669565b620006b4868362000669565b95508019841693508086168417925050509392505050565b6000819050919050565b6000620006f7620006f1620006eb84620004ea565b620006cc565b620004ea565b9050919050565b6000819050919050565b6200071383620006d6565b6200072b6200072282620006fe565b84845462000676565b825550505050565b600090565b6200074262000733565b6200074f81848462000708565b505050565b5b8181101562000777576200076b60008262000738565b60018101905062000755565b5050565b601f821115620007c657620007908162000644565b6200079b8462000659565b81016020851015620007ab578190505b620007c3620007ba8562000659565b83018262000754565b50505b505050565b600082821c905092915050565b6000620007eb60001984600802620007cb565b1980831691505092915050565b6000620008068383620007d8565b9150826002028217905092915050565b6200082182620005d5565b67ffffffffffffffff8111156200083d576200083c62000321565b5b6200084982546200060f565b620008568282856200077b565b600060209050601f8311600181146200088e576000841562000879578287015190505b620008858582620007f8565b865550620008f5565b601f1984166200089e8662000644565b60005b82811015620008c857848901518255600182019150602085019450602081019050620008a1565b86831015620008e85784890151620008e4601f891682620007d8565b8355505b6001600288020188555050505b505050505050565b612ec6806200090d6000396000f3fe608060405234801561001057600080fd5b50600436106101f05760003560e01c80634a99950b1161010f578063a22cb465116100a2578063d547741f11610071578063d547741f1461057d578063d820706214610599578063e63ab1e9146105b5578063e985e9c5146105d3576101f0565b8063a22cb465146104f7578063b88d4fde14610513578063c87b56dd1461052f578063d53913931461055f576101f0565b80638456cb59116100de5780638456cb591461048157806391d148541461048b57806395d89b41146104bb578063a217fddf146104d9576101f0565b80634a99950b146103e75780635c975abb146104035780636352211e1461042157806370a0823114610451576101f0565b8063248a9ca3116101875780633f4ba83a116101565780633f4ba83a1461038957806340c10f191461039357806342842e0e146103af57806342966c68146103cb576101f0565b8063248a9ca314610303578063282c51f3146103335780632f2ff15d1461035157806336568abe1461036d576101f0565b80630d788c36116101c35780630d788c361461028f578063162094c4146102ad5780631d3d81d6146102c957806323b872dd146102e7576101f0565b806301ffc9a7146101f557806306fdde0314610225578063081812fc14610243578063095ea7b314610273575b600080fd5b61020f600480360381019061020a9190612253565b610603565b60405161021c919061229b565b60405180910390f35b61022d610615565b60405161023a9190612346565b60405180910390f35b61025d6004803603810190610258919061239e565b6106a7565b60405161026a919061240c565b60405180910390f35b61028d60048036038101906102889190612453565b6106c3565b005b6102976106d9565b6040516102a491906124a2565b60405180910390f35b6102c760048036038101906102c291906125f2565b6106df565b005b6102d16107de565b6040516102de919061240c565b60405180910390f35b61030160048036038101906102fc919061264e565b610804565b005b61031d600480360381019061031891906126d7565b610906565b60405161032a9190612713565b60405180910390f35b61033b610926565b6040516103489190612713565b60405180910390f35b61036b6004803603810190610366919061272e565b61094a565b005b6103876004803603810190610382919061272e565b61096c565b005b6103916109e7565b005b6103ad60048036038101906103a89190612453565b610a1c565b005b6103c960048036038101906103c4919061264e565b610aab565b005b6103e560048036038101906103e0919061239e565b610acb565b005b61040160048036038101906103fc919061276e565b610bb8565b005b61040b610ca1565b604051610418919061229b565b60405180910390f35b61043b6004803603810190610436919061239e565b610cb8565b604051610448919061240c565b60405180910390f35b61046b600480360381019061046691906127dd565b610cca565b60405161047891906124a2565b60405180910390f35b610489610d84565b005b6104a560048036038101906104a0919061272e565b610db9565b6040516104b2919061229b565b60405180910390f35b6104c3610e24565b6040516104d09190612346565b60405180910390f35b6104e1610eb6565b6040516104ee9190612713565b60405180910390f35b610511600480360381019061050c9190612836565b610ebd565b005b61052d60048036038101906105289190612917565b610ed3565b005b6105496004803603810190610544919061239e565b610ef8565b6040516105569190612346565b60405180910390f35b610567611014565b6040516105749190612713565b60405180910390f35b6105976004803603810190610592919061272e565b611038565b005b6105b360048036038101906105ae91906127dd565b61105a565b005b6105bd611077565b6040516105ca9190612713565b60405180910390f35b6105ed60048036038101906105e8919061299a565b61109b565b6040516105fa919061229b565b60405180910390f35b600061060e8261112f565b9050919050565b60606000805461062490612a09565b80601f016020809104026020016040519081016040528092919081815260200182805461065090612a09565b801561069d5780601f106106725761010080835404028352916020019161069d565b820191906000526020600020905b81548152906001019060200180831161068057829003601f168201915b5050505050905090565b60006106b2826111a9565b506106bc82611231565b9050919050565b6106d582826106d061126e565b611276565b5050565b60085481565b7f9f2df0fed2c77648de5860a4cc508cd0818c85b8b8a1ab4ceeef8d981c8956a661070981611288565b600073ffffffffffffffffffffffffffffffffffffffff1661072a8461129c565b73ffffffffffffffffffffffffffffffffffffffff1603610780576040517f08c379a000000000000000000000000000000000000000000000000000000000815260040161077790612a86565b60405180910390fd5b816009600085815260200190815260200160002090816107a09190612c52565b50827f19dc48e4be530de61be57a4e55aa8cb46c3101fa03a4cea81c24e052553c123e836040516107d19190612346565b60405180910390a2505050565b600760019054906101000a900473ffffffffffffffffffffffffffffffffffffffff1681565b600073ffffffffffffffffffffffffffffffffffffffff168273ffffffffffffffffffffffffffffffffffffffff16036108765760006040517f64a0ae9200000000000000000000000000000000000000000000000000000000815260040161086d919061240c565b60405180910390fd5b600061088a838361088561126e565b6112d9565b90508373ffffffffffffffffffffffffffffffffffffffff168173ffffffffffffffffffffffffffffffffffffffff1614610900578382826040517f64283d7b0000000000000000000000000000000000000000000000000000000081526004016108f793929190612d24565b60405180910390fd5b50505050565b600060066000838152602001908152602001600020600101549050919050565b7f3c11d16cbaffd01df69ce1c404f6340ee057498f5f00246190ea54220576a84881565b61095382610906565b61095c81611288565b61096683836114f3565b50505050565b61097461126e565b73ffffffffffffffffffffffffffffffffffffffff168173ffffffffffffffffffffffffffffffffffffffff16146109d8576040517f6697b23200000000000000000000000000000000000000000000000000000000815260040160405180910390fd5b6109e282826115e5565b505050565b7f65d7a28e3265b37a6474929f336521b332c1681b933f6cb9f3376673440d862a610a1181611288565b610a196116d8565b50565b7f9f2df0fed2c77648de5860a4cc508cd0818c85b8b8a1ab4ceeef8d981c8956a6610a4681611288565b610a4e61173b565b610a58838361177c565b8273ffffffffffffffffffffffffffffffffffffffff167f4cc0a9c4a99ddc700de1af2c9f916a7cbfdb71f14801ccff94061ad1ef8a804083604051610a9e91906124a2565b60405180910390a2505050565b610ac683838360405180602001604052806000815250610ed3565b505050565b7f3c11d16cbaffd01df69ce1c404f6340ee057498f5f00246190ea54220576a848610af581611288565b610afd61173b565b600073ffffffffffffffffffffffffffffffffffffffff16610b1e8361129c565b73ffffffffffffffffffffffffffffffffffffffff1603610b74576040517f08c379a0000000000000000000000000000000000000000000000000000000008152600401610b6b90612a86565b60405180910390fd5b610b7d8261179a565b7f3c176691ca154a2f6fe978a2a633a33ee77dbe2902e67a75400720845a4b2ce182604051610bac91906124a2565b60405180910390a15050565b7f9f2df0fed2c77648de5860a4cc508cd0818c85b8b8a1ab4ceeef8d981c8956a6610be281611288565b610bea61173b565b610bf4848461177c565b81600960008581526020019081526020016000209081610c149190612c52565b508373ffffffffffffffffffffffffffffffffffffffff167f4cc0a9c4a99ddc700de1af2c9f916a7cbfdb71f14801ccff94061ad1ef8a804084604051610c5b91906124a2565b60405180910390a2827f19dc48e4be530de61be57a4e55aa8cb46c3101fa03a4cea81c24e052553c123e83604051610c939190612346565b60405180910390a250505050565b6000600760009054906101000a900460ff16905090565b6000610cc3826111a9565b9050919050565b60008073ffffffffffffffffffffffffffffffffffffffff168273ffffffffffffffffffffffffffffffffffffffff1603610d3d5760006040517f89c62b64000000000000000000000000000000000000000000000000000000008152600401610d34919061240c565b60405180910390fd5b600360008373ffffffffffffffffffffffffffffffffffffffff1673ffffffffffffffffffffffffffffffffffffffff168152602001908152602001600020549050919050565b7f65d7a28e3265b37a6474929f336521b332c1681b933f6cb9f3376673440d862a610dae81611288565b610db6611820565b50565b60006006600084815260200190815260200160002060000160008373ffffffffffffffffffffffffffffffffffffffff1673ffffffffffffffffffffffffffffffffffffffff16815260200190815260200160002060009054906101000a900460ff16905092915050565b606060018054610e3390612a09565b80601f0160208091040260200160405190810160405280929190818152602001828054610e5f90612a09565b8015610eac5780601f10610e8157610100808354040283529160200191610eac565b820191906000526020600020905b815481529060010190602001808311610e8f57829003601f168201915b5050505050905090565b6000801b81565b610ecf610ec861126e565b8383611883565b5050565b610ede848484610804565b610ef2610ee961126e565b858585856119f2565b50505050565b6060600073ffffffffffffffffffffffffffffffffffffffff16610f1b8361129c565b73ffffffffffffffffffffffffffffffffffffffff1603610f71576040517f08c379a0000000000000000000000000000000000000000000000000000000008152600401610f6890612a86565b60405180910390fd5b600960008381526020019081526020016000208054610f8f90612a09565b80601f0160208091040260200160405190810160405280929190818152602001828054610fbb90612a09565b80156110085780601f10610fdd57610100808354040283529160200191611008565b820191906000526020600020905b815481529060010190602001808311610feb57829003601f168201915b50505050509050919050565b7f9f2df0fed2c77648de5860a4cc508cd0818c85b8b8a1ab4ceeef8d981c8956a681565b61104182610906565b61104a81611288565b61105483836115e5565b50505050565b6000801b61106781611288565b61107333836001611883565b5050565b7f65d7a28e3265b37a6474929f336521b332c1681b933f6cb9f3376673440d862a81565b6000600560008473ffffffffffffffffffffffffffffffffffffffff1673ffffffffffffffffffffffffffffffffffffffff16815260200190815260200160002060008373ffffffffffffffffffffffffffffffffffffffff1673ffffffffffffffffffffffffffffffffffffffff16815260200190815260200160002060009054906101000a900460ff16905092915050565b60007f7965db0b000000000000000000000000000000000000000000000000000000007bffffffffffffffffffffffffffffffffffffffffffffffffffffffff1916827bffffffffffffffffffffffffffffffffffffffffffffffffffffffff191614806111a257506111a182611ba3565b5b9050919050565b6000806111b58361129c565b9050600073ffffffffffffffffffffffffffffffffffffffff168173ffffffffffffffffffffffffffffffffffffffff160361122857826040517f7e27328900000000000000000000000000000000000000000000000000000000815260040161121f91906124a2565b60405180910390fd5b80915050919050565b60006004600083815260200190815260200160002060009054906101000a900473ffffffffffffffffffffffffffffffffffffffff169050919050565b600033905090565b6112838383836001611c85565b505050565b6112998161129461126e565b611e4a565b50565b60006002600083815260200190815260200160002060009054906101000a900473ffffffffffffffffffffffffffffffffffffffff169050919050565b6000806112e58461129c565b9050600073ffffffffffffffffffffffffffffffffffffffff168373ffffffffffffffffffffffffffffffffffffffff161461132757611326818486611e9b565b5b600073ffffffffffffffffffffffffffffffffffffffff168173ffffffffffffffffffffffffffffffffffffffff16146113b857611369600085600080611c85565b6001600360008373ffffffffffffffffffffffffffffffffffffffff1673ffffffffffffffffffffffffffffffffffffffff168152602001908152602001600020600082825403925050819055505b600073ffffffffffffffffffffffffffffffffffffffff168573ffffffffffffffffffffffffffffffffffffffff161461143b576001600360008773ffffffffffffffffffffffffffffffffffffffff1673ffffffffffffffffffffffffffffffffffffffff168152602001908152602001600020600082825401925050819055505b846002600086815260200190815260200160002060006101000a81548173ffffffffffffffffffffffffffffffffffffffff021916908373ffffffffffffffffffffffffffffffffffffffff160217905550838573ffffffffffffffffffffffffffffffffffffffff168273ffffffffffffffffffffffffffffffffffffffff167fddf252ad1be2c89b69c2b068fc378daa952ba7f163c4a11628f55a4df523b3ef60405160405180910390a4809150509392505050565b60006114ff8383610db9565b6115da5760016006600085815260200190815260200160002060000160008473ffffffffffffffffffffffffffffffffffffffff1673ffffffffffffffffffffffffffffffffffffffff16815260200190815260200160002060006101000a81548160ff02191690831515021790555061157761126e565b73ffffffffffffffffffffffffffffffffffffffff168273ffffffffffffffffffffffffffffffffffffffff16847f2f8788117e7eff1d82e926ec794901d17c78024a50270940304540a733656f0d60405160405180910390a4600190506115df565b600090505b92915050565b60006115f18383610db9565b156116cd5760006006600085815260200190815260200160002060000160008473ffffffffffffffffffffffffffffffffffffffff1673ffffffffffffffffffffffffffffffffffffffff16815260200190815260200160002060006101000a81548160ff02191690831515021790555061166a61126e565b73ffffffffffffffffffffffffffffffffffffffff168273ffffffffffffffffffffffffffffffffffffffff16847ff6391f5c32d9c69d2a47ea670b442974b53935d1edc7fd64eb21e047a839171b60405160405180910390a4600190506116d2565b600090505b92915050565b6116e0611f5f565b6000600760006101000a81548160ff0219169083151502179055507f5db9ee0a495bf2e6ff9c91a7834c1ba4fdd244a5e8aa4e537bd38aeae4b073aa61172461126e565b604051611731919061240c565b60405180910390a1565b611743610ca1565b1561177a576040517fd93c066500000000000000000000000000000000000000000000000000000000815260040160405180910390fd5b565b611796828260405180602001604052806000815250611f9f565b5050565b60006117a960008360006112d9565b9050600073ffffffffffffffffffffffffffffffffffffffff168173ffffffffffffffffffffffffffffffffffffffff160361181c57816040517f7e27328900000000000000000000000000000000000000000000000000000000815260040161181391906124a2565b60405180910390fd5b5050565b61182861173b565b6001600760006101000a81548160ff0219169083151502179055507f62e78cea01bee320cd4e420270b5ea74000d11b0c9f74754ebdbfc544b05a25861186c61126e565b604051611879919061240c565b60405180910390a1565b600073ffffffffffffffffffffffffffffffffffffffff168273ffffffffffffffffffffffffffffffffffffffff16036118f457816040517f5b08ba180000000000000000000000000000000000000000000000000000000081526004016118eb919061240c565b60405180910390fd5b80600560008573ffffffffffffffffffffffffffffffffffffffff1673ffffffffffffffffffffffffffffffffffffffff16815260200190815260200160002060008473ffffffffffffffffffffffffffffffffffffffff1673ffffffffffffffffffffffffffffffffffffffff16815260200190815260200160002060006101000a81548160ff0219169083151502179055508173ffffffffffffffffffffffffffffffffffffffff168373ffffffffffffffffffffffffffffffffffffffff167f17307eab39ab6107e8899845ad3d59bd9653f200f220920489ca2b5937696c31836040516119e5919061229b565b60405180910390a3505050565b60008373ffffffffffffffffffffffffffffffffffffffff163b1115611b9c578273ffffffffffffffffffffffffffffffffffffffff1663150b7a02868685856040518563ffffffff1660e01b8152600401611a519493929190612db0565b6020604051808303816000875af1925050508015611a8d57506040513d601f19601f82011682018060405250810190611a8a9190612e11565b60015b611b11573d8060008114611abd576040519150601f19603f3d011682016040523d82523d6000602084013e611ac2565b606091505b506000815103611b0957836040517f64a0ae92000000000000000000000000000000000000000000000000000000008152600401611b00919061240c565b60405180910390fd5b805181602001fd5b63150b7a0260e01b7bffffffffffffffffffffffffffffffffffffffffffffffffffffffff1916817bffffffffffffffffffffffffffffffffffffffffffffffffffffffff191614611b9a57836040517f64a0ae92000000000000000000000000000000000000000000000000000000008152600401611b91919061240c565b60405180910390fd5b505b5050505050565b60007f80ac58cd000000000000000000000000000000000000000000000000000000007bffffffffffffffffffffffffffffffffffffffffffffffffffffffff1916827bffffffffffffffffffffffffffffffffffffffffffffffffffffffff19161480611c6e57507f5b5e139f000000000000000000000000000000000000000000000000000000007bffffffffffffffffffffffffffffffffffffffffffffffffffffffff1916827bffffffffffffffffffffffffffffffffffffffffffffffffffffffff1916145b80611c7e5750611c7d82611fc3565b5b9050919050565b8080611cbe5750600073ffffffffffffffffffffffffffffffffffffffff168273ffffffffffffffffffffffffffffffffffffffff1614155b15611df2576000611cce846111a9565b9050600073ffffffffffffffffffffffffffffffffffffffff168373ffffffffffffffffffffffffffffffffffffffff1614158015611d3957508273ffffffffffffffffffffffffffffffffffffffff168173ffffffffffffffffffffffffffffffffffffffff1614155b8015611d4c5750611d4a818461109b565b155b15611d8e57826040517fa9fbf51f000000000000000000000000000000000000000000000000000000008152600401611d85919061240c565b60405180910390fd5b8115611df057838573ffffffffffffffffffffffffffffffffffffffff168273ffffffffffffffffffffffffffffffffffffffff167f8c5be1e5ebec7d5bd14f71427d1e84f3dd0314c0f7b2291e5b200ac8c7c3b92560405160405180910390a45b505b836004600085815260200190815260200160002060006101000a81548173ffffffffffffffffffffffffffffffffffffffff021916908373ffffffffffffffffffffffffffffffffffffffff16021790555050505050565b611e548282610db9565b611e975780826040517fe2517d3f000000000000000000000000000000000000000000000000000000008152600401611e8e929190612e3e565b60405180910390fd5b5050565b611ea683838361202d565b611f5a57600073ffffffffffffffffffffffffffffffffffffffff168373ffffffffffffffffffffffffffffffffffffffff1603611f1b57806040517f7e273289000000000000000000000000000000000000000000000000000000008152600401611f1291906124a2565b60405180910390fd5b81816040517f177e802f000000000000000000000000000000000000000000000000000000008152600401611f51929190612e67565b60405180910390fd5b505050565b611f67610ca1565b611f9d576040517f8dfc202b00000000000000000000000000000000000000000000000000000000815260040160405180910390fd5b565b611fa983836120ee565b611fbe611fb461126e565b60008585856119f2565b505050565b60007f01ffc9a7000000000000000000000000000000000000000000000000000000007bffffffffffffffffffffffffffffffffffffffffffffffffffffffff1916827bffffffffffffffffffffffffffffffffffffffffffffffffffffffff1916149050919050565b60008073ffffffffffffffffffffffffffffffffffffffff168373ffffffffffffffffffffffffffffffffffffffff16141580156120e557508273ffffffffffffffffffffffffffffffffffffffff168473ffffffffffffffffffffffffffffffffffffffff1614806120a657506120a5848461109b565b5b806120e457508273ffffffffffffffffffffffffffffffffffffffff166120cc83611231565b73ffffffffffffffffffffffffffffffffffffffff16145b5b90509392505050565b600073ffffffffffffffffffffffffffffffffffffffff168273ffffffffffffffffffffffffffffffffffffffff16036121605760006040517f64a0ae92000000000000000000000000000000000000000000000000000000008152600401612157919061240c565b60405180910390fd5b600061216e838360006112d9565b9050600073ffffffffffffffffffffffffffffffffffffffff168173ffffffffffffffffffffffffffffffffffffffff16146121e25760006040517f73c6ac6e0000000000000000000000000000000000000000000000000000000081526004016121d9919061240c565b60405180910390fd5b505050565b6000604051905090565b600080fd5b600080fd5b60007fffffffff0000000000000000000000000000000000000000000000000000000082169050919050565b612230816121fb565b811461223b57600080fd5b50565b60008135905061224d81612227565b92915050565b600060208284031215612269576122686121f1565b5b60006122778482850161223e565b91505092915050565b60008115159050919050565b61229581612280565b82525050565b60006020820190506122b0600083018461228c565b92915050565b600081519050919050565b600082825260208201905092915050565b60005b838110156122f05780820151818401526020810190506122d5565b60008484015250505050565b6000601f19601f8301169050919050565b6000612318826122b6565b61232281856122c1565b93506123328185602086016122d2565b61233b816122fc565b840191505092915050565b60006020820190508181036000830152612360818461230d565b905092915050565b6000819050919050565b61237b81612368565b811461238657600080fd5b50565b60008135905061239881612372565b92915050565b6000602082840312156123b4576123b36121f1565b5b60006123c284828501612389565b91505092915050565b600073ffffffffffffffffffffffffffffffffffffffff82169050919050565b60006123f6826123cb565b9050919050565b612406816123eb565b82525050565b600060208201905061242160008301846123fd565b92915050565b612430816123eb565b811461243b57600080fd5b50565b60008135905061244d81612427565b92915050565b6000806040838503121561246a576124696121f1565b5b60006124788582860161243e565b925050602061248985828601612389565b9150509250929050565b61249c81612368565b82525050565b60006020820190506124b76000830184612493565b92915050565b600080fd5b600080fd5b7f4e487b7100000000000000000000000000000000000000000000000000000000600052604160045260246000fd5b6124ff826122fc565b810181811067ffffffffffffffff8211171561251e5761251d6124c7565b5b80604052505050565b60006125316121e7565b905061253d82826124f6565b919050565b600067ffffffffffffffff82111561255d5761255c6124c7565b5b612566826122fc565b9050602081019050919050565b82818337600083830152505050565b600061259561259084612542565b612527565b9050828152602081018484840111156125b1576125b06124c2565b5b6125bc848285612573565b509392505050565b600082601f8301126125d9576125d86124bd565b5b81356125e9848260208601612582565b91505092915050565b60008060408385031215612609576126086121f1565b5b600061261785828601612389565b925050602083013567ffffffffffffffff811115612638576126376121f6565b5b612644858286016125c4565b9150509250929050565b600080600060608486031215612667576126666121f1565b5b60006126758682870161243e565b93505060206126868682870161243e565b925050604061269786828701612389565b9150509250925092565b6000819050919050565b6126b4816126a1565b81146126bf57600080fd5b50565b6000813590506126d1816126ab565b92915050565b6000602082840312156126ed576126ec6121f1565b5b60006126fb848285016126c2565b91505092915050565b61270d816126a1565b82525050565b60006020820190506127286000830184612704565b92915050565b60008060408385031215612745576127446121f1565b5b6000612753858286016126c2565b92505060206127648582860161243e565b9150509250929050565b600080600060608486031215612787576127866121f1565b5b60006127958682870161243e565b93505060206127a686828701612389565b925050604084013567ffffffffffffffff8111156127c7576127c66121f6565b5b6127d3868287016125c4565b9150509250925092565b6000602082840312156127f3576127f26121f1565b5b60006128018482850161243e565b91505092915050565b61281381612280565b811461281e57600080fd5b50565b6000813590506128308161280a565b92915050565b6000806040838503121561284d5761284c6121f1565b5b600061285b8582860161243e565b925050602061286c85828601612821565b9150509250929050565b600067ffffffffffffffff821115612891576128906124c7565b5b61289a826122fc565b9050602081019050919050565b60006128ba6128b584612876565b612527565b9050828152602081018484840111156128d6576128d56124c2565b5b6128e1848285612573565b509392505050565b600082601f8301126128fe576128fd6124bd565b5b813561290e8482602086016128a7565b91505092915050565b60008060008060808587031215612931576129306121f1565b5b600061293f8782880161243e565b94505060206129508782880161243e565b935050604061296187828801612389565b925050606085013567ffffffffffffffff811115612982576129816121f6565b5b61298e878288016128e9565b91505092959194509250565b600080604083850312156129b1576129b06121f1565b5b60006129bf8582860161243e565b92505060206129d08582860161243e565b9150509250929050565b7f4e487b7100000000000000000000000000000000000000000000000000000000600052602260045260246000fd5b60006002820490506001821680612a2157607f821691505b602082108103612a3457612a336129da565b5b50919050565b7f546f6b656e20646f6573206e6f74206578697374000000000000000000000000600082015250565b6000612a706014836122c1565b9150612a7b82612a3a565b602082019050919050565b60006020820190508181036000830152612a9f81612a63565b9050919050565b60008190508160005260206000209050919050565b60006020601f8301049050919050565b600082821b905092915050565b600060088302612b087fffffffffffffffffffffffffffffffffffffffffffffffffffffffffffffffff82612acb565b612b128683612acb565b95508019841693508086168417925050509392505050565b6000819050919050565b6000612b4f612b4a612b4584612368565b612b2a565b612368565b9050919050565b6000819050919050565b612b6983612b34565b612b7d612b7582612b56565b848454612ad8565b825550505050565b600090565b612b92612b85565b612b9d818484612b60565b505050565b5b81811015612bc157612bb6600082612b8a565b600181019050612ba3565b5050565b601f821115612c0657612bd781612aa6565b612be084612abb565b81016020851015612bef578190505b612c03612bfb85612abb565b830182612ba2565b50505b505050565b600082821c905092915050565b6000612c2960001984600802612c0b565b1980831691505092915050565b6000612c428383612c18565b9150826002028217905092915050565b612c5b826122b6565b67ffffffffffffffff811115612c7457612c736124c7565b5b612c7e8254612a09565b612c89828285612bc5565b600060209050601f831160018114612cbc5760008415612caa578287015190505b612cb48582612c36565b865550612d1c565b601f198416612cca86612aa6565b60005b82811015612cf257848901518255600182019150602085019450602081019050612ccd565b86831015612d0f5784890151612d0b601f891682612c18565b8355505b6001600288020188555050505b505050505050565b6000606082019050612d3960008301866123fd565b612d466020830185612493565b612d5360408301846123fd565b949350505050565b600081519050919050565b600082825260208201905092915050565b6000612d8282612d5b565b612d8c8185612d66565b9350612d9c8185602086016122d2565b612da5816122fc565b840191505092915050565b6000608082019050612dc560008301876123fd565b612dd260208301866123fd565b612ddf6040830185612493565b8181036060830152612df18184612d77565b905095945050505050565b600081519050612e0b81612227565b92915050565b600060208284031215612e2757612e266121f1565b5b6000612e3584828501612dfc565b91505092915050565b6000604082019050612e5360008301856123fd565b612e606020830184612704565b9392505050565b6000604082019050612e7c60008301856123fd565b612e896020830184612493565b939250505056fea26469706673582212203ac7059a0d909c4f0b5058aa1d435109780b5e464d64db2f16af04c95d6f915264736f6c63430008140033",
  "linkReferences": {},
  "deployedLinkReferences": {}
}