{
  "_format": "hh-sol-artifact-1",
  "contractName": "BridgeAmoyNFTV2",
  "sourceName": "contracts/BridgeAmoyNFTV2.sol",
  "abi": [
    {
      "inputs": [
        {
          "internalType": "address",
          "name": "_nft",
          "type": "address"
        },
        {
          "internalType": "address",
          "name": "_relayerManager",
          "type": "address"
        },
        {
          "internalType": "address",
          "name": "owner",
          "type": "address"
        }
      ],
      "stateMutability": "nonpayable",
      "type": "constructor"
    },
    {
      "inputs": [
        {
          "internalType": "address",
          "name": "owner",
          "type": "address"
        }
      ],
      "name": "OwnableInvalidOwner",
      "type": "error"
    },
    {
      "inputs": [
        {
          "internalType": "address",
          "name": "account",
          "type": "address"
        }
      ],
      "name": "OwnableUnauthorizedAccount",
      "type": "error"
    },
    {
      "inputs": [],
      "name": "ReentrancyGuardReentrantCall",
      "type": "error"
    },
    {
      "anonymous": false,
      "inputs": [
        {
          "indexed": true,
          "internalType": "bytes32",
          "name": "requestId",
          "type": "bytes32"
        },
        {
          "indexed": true,
          "internalType": "address",
          "name": "user",
          "type": "address"
        },
        {
          "indexed": true,
          "internalType": "address",
          "name": "recipient",
          "type": "address"
        },
        {
          "indexed": false,
          "internalType": "uint256",
          "name": "tokenId",
          "type": "uint256"
        }
      ],
      "name": "LockRequested",
      "type": "event"
    },
    {
      "anonymous": false,
      "inputs": [
        {
          "indexed": true,
          "internalType": "address",
          "name": "previousOwner",
          "type": "address"
        },
        {
          "indexed": true,
          "internalType": "address",
          "name": "newOwner",
          "type": "address"
        }
      ],
      "name": "OwnershipTransferred",
      "type": "event"
    },
    {
      "inputs": [
        {
          "internalType": "uint256",
          "name": "tokenId",
          "type": "uint256"
        },
        {
          "internalType": "address",
          "name": "recipient",
          "type": "address"
        }
      ],
      "name": "lockWithRelay",
      "outputs": [],
      "stateMutability": "nonpayable",
      "type": "function"
    },
    {
      "inputs": [],
      "name": "nft",
      "outputs": [
        {
          "internalType": "contract IAmoyNFT",
          "name": "",
          "type": "address"
        }
      ],
      "stateMutability": "view",
      "type": "function"
    },
    {
      "inputs": [],
      "name": "owner",
      "outputs": [
        {
          "internalType": "address",
          "name": "",
          "type": "address"
        }
      ],
      "stateMutability": "view",
      "type": "function"
    },
    {
      "inputs": [
        {
          "internalType": "bytes32",
          "name": "",
          "type": "bytes32"
        }
      ],
      "name": "processedRequests",
      "outputs": [
        {
          "internalType": "bool",
          "name": "",
          "type": "bool"
        }
      ],
      "stateMutability": "view",
      "type": "function"
    },
    {
      "inputs": [],
      "name": "relayerManager",
      "outputs": [
        {
          "internalType": "contract INFTRelayerManager",
          "name": "",
          "type": "address"
        }
      ],
      "stateMutability": "view",
      "type": "function"
    },
    {
      "inputs": [],
      "name": "renounceOwnership",
      "outputs": [],
      "stateMutability": "nonpayable",
      "type": "function"
    },
    {
      "inputs": [
        {
          "internalType": "address",
          "name": "newOwner",
          "type": "address"
        }
      ],
      "name": "transferOwnership",
      "outputs": [],
      "stateMutability": "nonpayable",
      "type": "function"
    },
    {
      "inputs": [
        {
          "internalType": "bytes32",
          "name": "requestId",
          "type": "bytes32"
        },
        {
          "internalType": "address",
          "name": "recipient",
          "type": "address"
        },
        {
          "internalType": "uint256",
          "name": "tokenId",
          "type": "uint256"
        },
        {
          "internalType": "bytes32[]",
          "name": "relayerProof",
          "type": "bytes32[]"
        }
      ],
      "name": "unlock",
      "outputs": [],
      "stateMutability": "nonpayable",
      "type": "function"
    }
  ],
  "bytecode": "0x60806040523480156200001157600080fd5b506040516200152d3803806200152d83398181016040528101906200003791906200027f565b80600073ffffffffffffffffffffffffffffffffffffffff168173ffffffffffffffffffffffffffffffffffffffff1603620000ad5760006040517f1e4fbdf7000000000000000000000000000000000000000000000000000000008152600401620000a49190620002ec565b60405180910390fd5b620000be816200015160201b60201c565b506001808190555082600260006101000a81548173ffffffffffffffffffffffffffffffffffffffff021916908373ffffffffffffffffffffffffffffffffffffffff16021790555081600360006101000a81548173ffffffffffffffffffffffffffffffffffffffff021916908373ffffffffffffffffffffffffffffffffffffffff16021790555050505062000309565b60008060009054906101000a900473ffffffffffffffffffffffffffffffffffffffff169050816000806101000a81548173ffffffffffffffffffffffffffffffffffffffff021916908373ffffffffffffffffffffffffffffffffffffffff1602179055508173ffffffffffffffffffffffffffffffffffffffff168173ffffffffffffffffffffffffffffffffffffffff167f8be0079c531659141344cd1fd0a4f28419497f9722a3daafe3b4186f6b6457e060405160405180910390a35050565b600080fd5b600073ffffffffffffffffffffffffffffffffffffffff82169050919050565b600062000247826200021a565b9050919050565b62000259816200023a565b81146200026557600080fd5b50565b60008151905062000279816200024e565b92915050565b6000806000606084860312156200029b576200029a62000215565b5b6000620002ab8682870162000268565b9350506020620002be8682870162000268565b9250506040620002d18682870162000268565b9150509250925092565b620002e6816200023a565b82525050565b6000602082019050620003036000830184620002db565b92915050565b61121480620003196000396000f3fe608060405234801561001057600080fd5b50600436106100885760003560e01c80639c33ee1e1161005b5780639c33ee1e146100ef578063c71d36b31461010b578063ce0fa5a914610129578063f2fde38b1461015957610088565b806307751d4b1461008d57806347ccca02146100a9578063715018a6146100c75780638da5cb5b146100d1575b600080fd5b6100a760048036038101906100a29190610ac3565b610175565b005b6100b1610540565b6040516100be9190610b62565b60405180910390f35b6100cf610566565b005b6100d961057a565b6040516100e69190610b8c565b60405180910390f35b61010960048036038101906101049190610c42565b6105a3565b005b6101136107b7565b6040516101209190610ceb565b60405180910390f35b610143600480360381019061013e9190610d06565b6107dd565b6040516101509190610d4e565b60405180910390f35b610173600480360381019061016e9190610d69565b6107fd565b005b61017d610883565b3373ffffffffffffffffffffffffffffffffffffffff16600260009054906101000a900473ffffffffffffffffffffffffffffffffffffffff1673ffffffffffffffffffffffffffffffffffffffff16636352211e846040518263ffffffff1660e01b81526004016101ef9190610da5565b602060405180830381865afa15801561020c573d6000803e3d6000fd5b505050506040513d601f19601f820116820180604052508101906102309190610dd5565b73ffffffffffffffffffffffffffffffffffffffff1614610286576040517f08c379a000000000000000000000000000000000000000000000000000000000815260040161027d90610e5f565b60405180910390fd5b3073ffffffffffffffffffffffffffffffffffffffff16600260009054906101000a900473ffffffffffffffffffffffffffffffffffffffff1673ffffffffffffffffffffffffffffffffffffffff1663081812fc846040518263ffffffff1660e01b81526004016102f89190610da5565b602060405180830381865afa158015610315573d6000803e3d6000fd5b505050506040513d601f19601f820116820180604052508101906103399190610dd5565b73ffffffffffffffffffffffffffffffffffffffff161461038f576040517f08c379a000000000000000000000000000000000000000000000000000000000815260040161038690610ecb565b60405180910390fd5b600260009054906101000a900473ffffffffffffffffffffffffffffffffffffffff1673ffffffffffffffffffffffffffffffffffffffff166323b872dd3330856040518463ffffffff1660e01b81526004016103ee93929190610eeb565b600060405180830381600087803b15801561040857600080fd5b505af115801561041c573d6000803e3d6000fd5b505050506000600360009054906101000a900473ffffffffffffffffffffffffffffffffffffffff1673ffffffffffffffffffffffffffffffffffffffff16635f08320c338486424662aa36a76040518763ffffffff1660e01b815260040161048a96959493929190610f5d565b602060405180830381865afa1580156104a7573d6000803e3d6000fd5b505050506040513d601f19601f820116820180604052508101906104cb9190610fd3565b90508173ffffffffffffffffffffffffffffffffffffffff163373ffffffffffffffffffffffffffffffffffffffff16827ff1992c8013635e041f43112c0802a6b10c6240ebae0ee501dbbf66b664f55afc8660405161052b9190610da5565b60405180910390a45061053c6108c9565b5050565b600260009054906101000a900473ffffffffffffffffffffffffffffffffffffffff1681565b61056e6108d2565b6105786000610959565b565b60008060009054906101000a900473ffffffffffffffffffffffffffffffffffffffff16905090565b6105ab610883565b600360009054906101000a900473ffffffffffffffffffffffffffffffffffffffff1673ffffffffffffffffffffffffffffffffffffffff16631d0e2d393384846040518463ffffffff1660e01b815260040161060a9392919061107b565b602060405180830381865afa158015610627573d6000803e3d6000fd5b505050506040513d601f19601f8201168201806040525081019061064b91906110d9565b61068a576040517f08c379a000000000000000000000000000000000000000000000000000000000815260040161068190611152565b60405180910390fd5b6004600086815260200190815260200160002060009054906101000a900460ff16156106eb576040517f08c379a00000000000000000000000000000000000000000000000000000000081526004016106e2906111be565b60405180910390fd5b60016004600087815260200190815260200160002060006101000a81548160ff021916908315150217905550600260009054906101000a900473ffffffffffffffffffffffffffffffffffffffff1673ffffffffffffffffffffffffffffffffffffffff166323b872dd3086866040518463ffffffff1660e01b815260040161077693929190610eeb565b600060405180830381600087803b15801561079057600080fd5b505af11580156107a4573d6000803e3d6000fd5b505050506107b06108c9565b5050505050565b600360009054906101000a900473ffffffffffffffffffffffffffffffffffffffff1681565b60046020528060005260406000206000915054906101000a900460ff1681565b6108056108d2565b600073ffffffffffffffffffffffffffffffffffffffff168173ffffffffffffffffffffffffffffffffffffffff16036108775760006040517f1e4fbdf700000000000000000000000000000000000000000000000000000000815260040161086e9190610b8c565b60405180910390fd5b61088081610959565b50565b6002600154036108bf576040517f3ee5aeb500000000000000000000000000000000000000000000000000000000815260040160405180910390fd5b6002600181905550565b60018081905550565b6108da610a1d565b73ffffffffffffffffffffffffffffffffffffffff166108f861057a565b73ffffffffffffffffffffffffffffffffffffffff16146109575761091b610a1d565b6040517f118cdaa700000000000000000000000000000000000000000000000000000000815260040161094e9190610b8c565b60405180910390fd5b565b60008060009054906101000a900473ffffffffffffffffffffffffffffffffffffffff169050816000806101000a81548173ffffffffffffffffffffffffffffffffffffffff021916908373ffffffffffffffffffffffffffffffffffffffff1602179055508173ffffffffffffffffffffffffffffffffffffffff168173ffffffffffffffffffffffffffffffffffffffff167f8be0079c531659141344cd1fd0a4f28419497f9722a3daafe3b4186f6b6457e060405160405180910390a35050565b600033905090565b600080fd5b600080fd5b6000819050919050565b610a4281610a2f565b8114610a4d57600080fd5b50565b600081359050610a5f81610a39565b92915050565b600073ffffffffffffffffffffffffffffffffffffffff82169050919050565b6000610a9082610a65565b9050919050565b610aa081610a85565b8114610aab57600080fd5b50565b600081359050610abd81610a97565b92915050565b60008060408385031215610ada57610ad9610a25565b5b6000610ae885828601610a50565b9250506020610af985828601610aae565b9150509250929050565b6000819050919050565b6000610b28610b23610b1e84610a65565b610b03565b610a65565b9050919050565b6000610b3a82610b0d565b9050919050565b6000610b4c82610b2f565b9050919050565b610b5c81610b41565b82525050565b6000602082019050610b776000830184610b53565b92915050565b610b8681610a85565b82525050565b6000602082019050610ba16000830184610b7d565b92915050565b6000819050919050565b610bba81610ba7565b8114610bc557600080fd5b50565b600081359050610bd781610bb1565b92915050565b600080fd5b600080fd5b600080fd5b60008083601f840112610c0257610c01610bdd565b5b8235905067ffffffffffffffff811115610c1f57610c1e610be2565b5b602083019150836020820283011115610c3b57610c3a610be7565b5b9250929050565b600080600080600060808688031215610c5e57610c5d610a25565b5b6000610c6c88828901610bc8565b9550506020610c7d88828901610aae565b9450506040610c8e88828901610a50565b935050606086013567ffffffffffffffff811115610caf57610cae610a2a565b5b610cbb88828901610bec565b92509250509295509295909350565b6000610cd582610b2f565b9050919050565b610ce581610cca565b82525050565b6000602082019050610d006000830184610cdc565b92915050565b600060208284031215610d1c57610d1b610a25565b5b6000610d2a84828501610bc8565b91505092915050565b60008115159050919050565b610d4881610d33565b82525050565b6000602082019050610d636000830184610d3f565b92915050565b600060208284031215610d7f57610d7e610a25565b5b6000610d8d84828501610aae565b91505092915050565b610d9f81610a2f565b82525050565b6000602082019050610dba6000830184610d96565b92915050565b600081519050610dcf81610a97565b92915050565b600060208284031215610deb57610dea610a25565b5b6000610df984828501610dc0565b91505092915050565b600082825260208201905092915050565b7f4e6f7420746f6b656e206f776e65720000000000000000000000000000000000600082015250565b6000610e49600f83610e02565b9150610e5482610e13565b602082019050919050565b60006020820190508181036000830152610e7881610e3c565b9050919050565b7f427269646765206e6f7420617070726f76656400000000000000000000000000600082015250565b6000610eb5601383610e02565b9150610ec082610e7f565b602082019050919050565b60006020820190508181036000830152610ee481610ea8565b9050919050565b6000606082019050610f006000830186610b7d565b610f0d6020830185610b7d565b610f1a6040830184610d96565b949350505050565b6000819050919050565b6000610f47610f42610f3d84610f22565b610b03565b610a2f565b9050919050565b610f5781610f2c565b82525050565b600060c082019050610f726000830189610b7d565b610f7f6020830188610b7d565b610f8c6040830187610d96565b610f996060830186610d96565b610fa66080830185610d96565b610fb360a0830184610f4e565b979650505050505050565b600081519050610fcd81610bb1565b92915050565b600060208284031215610fe957610fe8610a25565b5b6000610ff784828501610fbe565b91505092915050565b600082825260208201905092915050565b600080fd5b82818337505050565b600061102b8385611000565b93507f07ffffffffffffffffffffffffffffffffffffffffffffffffffffffffffffff83111561105e5761105d611011565b5b60208302925061106f838584611016565b82840190509392505050565b60006040820190506110906000830186610b7d565b81810360208301526110a381848661101f565b9050949350505050565b6110b681610d33565b81146110c157600080fd5b50565b6000815190506110d3816110ad565b92915050565b6000602082840312156110ef576110ee610a25565b5b60006110fd848285016110c4565b91505092915050565b7f496e76616c69642072656c617965720000000000000000000000000000000000600082015250565b600061113c600f83610e02565b915061114782611106565b602082019050919050565b6000602082019050818103600083015261116b8161112f565b9050919050565b7f5265717565737420616c72656164792070726f63657373656400000000000000600082015250565b60006111a8601983610e02565b91506111b382611172565b602082019050919050565b600060208201905081810360008301526111d78161119b565b905091905056fea26469706673582212207241f8a7874fc1b89ee0e27ddcc58e7bb5cc67ed8563ca2fa1d495cb120adda764736f6c63430008140033",
  "linkReferences": {},
  "deployedLinkReferences": {}
}