{
  "_format": "hh-sol-artifact-1",
  "contractName": "BridgeSepolia",
  "sourceName": "contracts/BridgeSepolia.sol",
  "abi": [
    {
      "inputs": [
        {
          "internalType": "address",
          "name": "_wrappedToken",
          "type": "address"
        },
        {
          "internalType": "address",
          "name": "_relayer",
          "type": "address"
        }
      ],
      "stateMutability": "nonpayable",
      "type": "constructor"
    },
    {
      "inputs": [],
      "name": "AccessControlBadConfirmation",
      "type": "error"
    },
    {
      "inputs": [
        {
          "internalType": "address",
          "name": "account",
          "type": "address"
        },
        {
          "internalType": "bytes32",
          "name": "neededRole",
          "type": "bytes32"
        }
      ],
      "name": "AccessControlUnauthorizedAccount",
      "type": "error"
    },
    {
      "inputs": [],
      "name": "ReentrancyGuardReentrantCall",
      "type": "error"
    },
    {
      "anonymous": false,
      "inputs": [
        {
          "indexed": true,
          "internalType": "address",
          "name": "token",
          "type": "address"
        },
        {
          "indexed": true,
          "internalType": "address",
          "name": "from",
          "type": "address"
        },
        {
          "indexed": false,
          "internalType": "uint256",
          "name": "amount",
          "type": "uint256"
        },
        {
          "indexed": false,
          "internalType": "uint256",
          "name": "nonce",
          "type": "uint256"
        },
        {
          "indexed": false,
          "internalType": "bytes32",
          "name": "transferId",
          "type": "bytes32"
        }
      ],
      "name": "Burned",
      "type": "event"
    },
    {
      "anonymous": false,
      "inputs": [
        {
          "indexed": false,
          "internalType": "bytes32",
          "name": "newRoot",
          "type": "bytes32"
        }
      ],
      "name": "MerkleRootUpdated",
      "type": "event"
    },
    {
      "anonymous": false,
      "inputs": [
        {
          "indexed": true,
          "internalType": "address",
          "name": "token",
          "type": "address"
        },
        {
          "indexed": true,
          "internalType": "address",
          "name": "to",
          "type": "address"
        },
        {
          "indexed": false,
          "internalType": "uint256",
          "name": "amount",
          "type": "uint256"
        },
        {
          "indexed": false,
          "internalType": "bytes32",
          "name": "transferId",
          "type": "bytes32"
        }
      ],
      "name": "Released",
      "type": "event"
    },
    {
      "anonymous": false,
      "inputs": [
        {
          "indexed": true,
          "internalType": "bytes32",
          "name": "role",
          "type": "bytes32"
        },
        {
          "indexed": true,
          "internalType": "bytes32",
          "name": "previousAdminRole",
          "type": "bytes32"
        },
        {
          "indexed": true,
          "internalType": "bytes32",
          "name": "newAdminRole",
          "type": "bytes32"
        }
      ],
      "name": "RoleAdminChanged",
      "type": "event"
    },
    {
      "anonymous": false,
      "inputs": [
        {
          "indexed": true,
          "internalType": "bytes32",
          "name": "role",
          "type": "bytes32"
        },
        {
          "indexed": true,
          "internalType": "address",
          "name": "account",
          "type": "address"
        },
        {
          "indexed": true,
          "internalType": "address",
          "name": "sender",
          "type": "address"
        }
      ],
      "name": "RoleGranted",
      "type": "event"
    },
    {
      "anonymous": false,
      "inputs": [
        {
          "indexed": true,
          "internalType": "bytes32",
          "name": "role",
          "type": "bytes32"
        },
        {
          "indexed": true,
          "internalType": "address",
          "name": "account",
          "type": "address"
        },
        {
          "indexed": true,
          "internalType": "address",
          "name": "sender",
          "type": "address"
        }
      ],
      "name": "RoleRevoked",
      "type": "event"
    },
    {
      "inputs": [],
      "name": "DEFAULT_ADMIN_ROLE",
      "outputs": [
        {
          "internalType": "bytes32",
          "name": "",
          "type": "bytes32"
        }
      ],
      "stateMutability": "view",
      "type": "function"
    },
    {
      "inputs": [],
      "name": "RELAYER_ROLE",
      "outputs": [
        {
          "internalType": "bytes32",
          "name": "",
          "type": "bytes32"
        }
      ],
      "stateMutability": "view",
      "type": "function"
    },
    {
      "inputs": [
        {
          "internalType": "address",
          "name": "_relayerAddress",
          "type": "address"
        }
      ],
      "name": "addRelayer",
      "outputs": [],
      "stateMutability": "nonpayable",
      "type": "function"
    },
    {
      "inputs": [
        {
          "internalType": "uint256",
          "name": "amount",
          "type": "uint256"
        }
      ],
      "name": "burn",
      "outputs": [],
      "stateMutability": "nonpayable",
      "type": "function"
    },
    {
      "inputs": [
        {
          "internalType": "bytes32",
          "name": "role",
          "type": "bytes32"
        }
      ],
      "name": "getRoleAdmin",
      "outputs": [
        {
          "internalType": "bytes32",
          "name": "",
          "type": "bytes32"
        }
      ],
      "stateMutability": "view",
      "type": "function"
    },
    {
      "inputs": [
        {
          "internalType": "bytes32",
          "name": "role",
          "type": "bytes32"
        },
        {
          "internalType": "address",
          "name": "account",
          "type": "address"
        }
      ],
      "name": "grantRole",
      "outputs": [],
      "stateMutability": "nonpayable",
      "type": "function"
    },
    {
      "inputs": [
        {
          "internalType": "bytes32",
          "name": "role",
          "type": "bytes32"
        },
        {
          "internalType": "address",
          "name": "account",
          "type": "address"
        }
      ],
      "name": "hasRole",
      "outputs": [
        {
          "internalType": "bool",
          "name": "",
          "type": "bool"
        }
      ],
      "stateMutability": "view",
      "type": "function"
    },
    {
      "inputs": [],
      "name": "merkleRoot",
      "outputs": [
        {
          "internalType": "bytes32",
          "name": "",
          "type": "bytes32"
        }
      ],
      "stateMutability": "view",
      "type": "function"
    },
    {
      "inputs": [],
      "name": "nonce",
      "outputs": [
        {
          "internalType": "uint256",
          "name": "",
          "type": "uint256"
        }
      ],
      "stateMutability": "view",
      "type": "function"
    },
    {
      "inputs": [
        {
          "internalType": "bytes32",
          "name": "",
          "type": "bytes32"
        }
      ],
      "name": "processedTransfers",
      "outputs": [
        {
          "internalType": "bool",
          "name": "",
          "type": "bool"
        }
      ],
      "stateMutability": "view",
      "type": "function"
    },
    {
      "inputs": [],
      "name": "relayer",
      "outputs": [
        {
          "internalType": "contract DecentralizedRelayer",
          "name": "",
          "type": "address"
        }
      ],
      "stateMutability": "view",
      "type": "function"
    },
    {
      "inputs": [
        {
          "internalType": "address",
          "name": "user",
          "type": "address"
        },
        {
          "internalType": "uint256",
          "name": "amount",
          "type": "uint256"
        },
        {
          "internalType": "bytes32[]",
          "name": "merkleProof",
          "type": "bytes32[]"
        },
        {
          "internalType": "bytes32",
          "name": "transferId",
          "type": "bytes32"
        }
      ],
      "name": "release",
      "outputs": [],
      "stateMutability": "nonpayable",
      "type": "function"
    },
    {
      "inputs": [],
      "name": "remoteBridge",
      "outputs": [
        {
          "internalType": "address",
          "name": "",
          "type": "address"
        }
      ],
      "stateMutability": "view",
      "type": "function"
    },
    {
      "inputs": [
        {
          "internalType": "address",
          "name": "_relayerAddress",
          "type": "address"
        }
      ],
      "name": "removeRelayer",
      "outputs": [],
      "stateMutability": "nonpayable",
      "type": "function"
    },
    {
      "inputs": [
        {
          "internalType": "bytes32",
          "name": "role",
          "type": "bytes32"
        },
        {
          "internalType": "address",
          "name": "callerConfirmation",
          "type": "address"
        }
      ],
      "name": "renounceRole",
      "outputs": [],
      "stateMutability": "nonpayable",
      "type": "function"
    },
    {
      "inputs": [
        {
          "internalType": "bytes32",
          "name": "role",
          "type": "bytes32"
        },
        {
          "internalType": "address",
          "name": "account",
          "type": "address"
        }
      ],
      "name": "revokeRole",
      "outputs": [],
      "stateMutability": "nonpayable",
      "type": "function"
    },
    {
      "inputs": [
        {
          "internalType": "address",
          "name": "_remoteBridge",
          "type": "address"
        }
      ],
      "name": "setRemoteBridge",
      "outputs": [],
      "stateMutability": "nonpayable",
      "type": "function"
    },
    {
      "inputs": [
        {
          "internalType": "bytes4",
          "name": "interfaceId",
          "type": "bytes4"
        }
      ],
      "name": "supportsInterface",
      "outputs": [
        {
          "internalType": "bool",
          "name": "",
          "type": "bool"
        }
      ],
      "stateMutability": "view",
      "type": "function"
    },
    {
      "inputs": [
        {
          "internalType": "bytes32",
          "name": "newRoot",
          "type": "bytes32"
        }
      ],
      "name": "updateMerkleRoot",
      "outputs": [],
      "stateMutability": "nonpayable",
      "type": "function"
    },
    {
      "inputs": [],
      "name": "wrappedToken",
      "outputs": [
        {
          "internalType": "contract IERC20Mintable",
          "name": "",
          "type": "address"
        }
      ],
      "stateMutability": "view",
      "type": "function"
    }
  ],
  "bytecode": "0x60806040523480156200001157600080fd5b5060405162001e0d38038062001e0d8339818101604052810190620000379190620002bd565b6001808190555081600360006101000a81548173ffffffffffffffffffffffffffffffffffffffff021916908373ffffffffffffffffffffffffffffffffffffffff16021790555080600260006101000a81548173ffffffffffffffffffffffffffffffffffffffff021916908373ffffffffffffffffffffffffffffffffffffffff160217905550620000d56000801b33620000de60201b60201c565b50505062000304565b6000620000f28383620001e160201b60201c565b620001d657600160008085815260200190815260200160002060000160008473ffffffffffffffffffffffffffffffffffffffff1673ffffffffffffffffffffffffffffffffffffffff16815260200190815260200160002060006101000a81548160ff021916908315150217905550620001726200024b60201b60201c565b73ffffffffffffffffffffffffffffffffffffffff168273ffffffffffffffffffffffffffffffffffffffff16847f2f8788117e7eff1d82e926ec794901d17c78024a50270940304540a733656f0d60405160405180910390a460019050620001db565b600090505b92915050565b600080600084815260200190815260200160002060000160008373ffffffffffffffffffffffffffffffffffffffff1673ffffffffffffffffffffffffffffffffffffffff16815260200190815260200160002060009054906101000a900460ff16905092915050565b600033905090565b600080fd5b600073ffffffffffffffffffffffffffffffffffffffff82169050919050565b6000620002858262000258565b9050919050565b620002978162000278565b8114620002a357600080fd5b50565b600081519050620002b7816200028c565b92915050565b60008060408385031215620002d757620002d662000253565b5b6000620002e785828601620002a6565b9250506020620002fa85828601620002a6565b9150509250929050565b611af980620003146000396000f3fe608060405234801561001057600080fd5b506004361061012c5760003560e01c80638406c079116100ad578063affed0e011610071578063affed0e01461031b578063c97123bb14610339578063d547741f14610357578063dd39f00d14610373578063dd910d751461038f5761012c565b80638406c0791461027357806391d1485414610291578063926d7d7f146102c1578063996c6cc3146102df578063a217fddf146102fd5761012c565b806336568abe116100f457806336568abe146101e757806342966c68146102035780634783f0ef1461021f578063606c8ffd1461023b57806360f0a5ac146102575761012c565b806301ffc9a71461013157806316ce814914610161578063248a9ca31461017d5780632eb4a7ab146101ad5780632f2ff15d146101cb575b600080fd5b61014b600480360381019061014691906111ae565b6103bf565b60405161015891906111f6565b60405180910390f35b61017b6004803603810190610176919061126f565b610439565b005b610197600480360381019061019291906112d2565b61048b565b6040516101a4919061130e565b60405180910390f35b6101b56104aa565b6040516101c2919061130e565b60405180910390f35b6101e560048036038101906101e09190611329565b6104b0565b005b61020160048036038101906101fc9190611329565b6104d2565b005b61021d6004803603810190610218919061139f565b61054d565b005b610239600480360381019061023491906112d2565b6108bf565b005b61025560048036038101906102509190611431565b61092b565b005b610271600480360381019061026c919061126f565b610bcf565b005b61027b610c0a565b6040516102889190611518565b60405180910390f35b6102ab60048036038101906102a69190611329565b610c30565b6040516102b891906111f6565b60405180910390f35b6102c9610c9a565b6040516102d6919061130e565b60405180910390f35b6102e7610cbe565b6040516102f49190611554565b60405180910390f35b610305610ce4565b604051610312919061130e565b60405180910390f35b610323610ceb565b604051610330919061157e565b60405180910390f35b610341610cf1565b60405161034e91906115a8565b60405180910390f35b610371600480360381019061036c9190611329565b610d17565b005b61038d6004803603810190610388919061126f565b610d39565b005b6103a960048036038101906103a491906112d2565b610d74565b6040516103b691906111f6565b60405180910390f35b60007f7965db0b000000000000000000000000000000000000000000000000000000007bffffffffffffffffffffffffffffffffffffffffffffffffffffffff1916827bffffffffffffffffffffffffffffffffffffffffffffffffffffffff19161480610432575061043182610d94565b5b9050919050565b6000801b61044681610dfe565b81600460006101000a81548173ffffffffffffffffffffffffffffffffffffffff021916908373ffffffffffffffffffffffffffffffffffffffff1602179055505050565b6000806000838152602001908152602001600020600101549050919050565b60055481565b6104b98261048b565b6104c281610dfe565b6104cc8383610e12565b50505050565b6104da610f03565b73ffffffffffffffffffffffffffffffffffffffff168173ffffffffffffffffffffffffffffffffffffffff161461053e576040517f6697b23200000000000000000000000000000000000000000000000000000000815260040160405180910390fd5b6105488282610f0b565b505050565b610555610ffd565b60008111610598576040517f08c379a000000000000000000000000000000000000000000000000000000000815260040161058f90611620565b60405180910390fd5b600760008154809291906105ab9061166f565b9190505550600360009054906101000a900473ffffffffffffffffffffffffffffffffffffffff1673ffffffffffffffffffffffffffffffffffffffff166323b872dd3330846040518463ffffffff1660e01b815260040161060f939291906116b7565b6020604051808303816000875af115801561062e573d6000803e3d6000fd5b505050506040513d601f19601f82011682018060405250810190610652919061171a565b610691576040517f08c379a000000000000000000000000000000000000000000000000000000000815260040161068890611793565b60405180910390fd5b600360009054906101000a900473ffffffffffffffffffffffffffffffffffffffff1673ffffffffffffffffffffffffffffffffffffffff16639dc29fac30836040518363ffffffff1660e01b81526004016106ee9291906117b3565b600060405180830381600087803b15801561070857600080fd5b505af115801561071c573d6000803e3d6000fd5b505050506000338260075460405160200161073993929190611845565b604051602081830303815290604052805190602001209050600260009054906101000a900473ffffffffffffffffffffffffffffffffffffffff1673ffffffffffffffffffffffffffffffffffffffff16631d123a088233857f9d105ec2b3a71164bdc42eebbf8e0e1c903958c98fe340dda292ca00ad7c74837f23366271c99639e877e0560a02e14308f9f7f5fd7be2e15d8d8a340d5dcfce836040518663ffffffff1660e01b81526004016107f4959493929190611882565b600060405180830381600087803b15801561080e57600080fd5b505af1158015610822573d6000803e3d6000fd5b505050503373ffffffffffffffffffffffffffffffffffffffff16600360009054906101000a900473ffffffffffffffffffffffffffffffffffffffff1673ffffffffffffffffffffffffffffffffffffffff167f1a38dd711da918b1612d50ecc45d125feeb50bc8131bfb9247604d98923f492084600754856040516108ab939291906118d5565b60405180910390a3506108bc611043565b50565b7fe2b7fb3b832174769106daebcfd6d1970523240dda11281102db9363b83b0dc46108e981610dfe565b816005819055507f90004c04698bc3322499a575ed3752dd4abf33e0a7294c06a787a0fe01bea9418260405161091f919061130e565b60405180910390a15050565b610933610ffd565b7fe2b7fb3b832174769106daebcfd6d1970523240dda11281102db9363b83b0dc461095d81610dfe565b6006600083815260200190815260200160002060009054906101000a900460ff16156109be576040517f08c379a00000000000000000000000000000000000000000000000000000000081526004016109b590611958565b60405180910390fd5b60008686846040516020016109d593929190611999565b604051602081830303815290604052805190602001209050610a3b858580806020026020016040519081016040528093929190818152602001838360200280828437600081840152601f19601f820116905080830192505050505050506005548361104c565b610a7a576040517f08c379a0000000000000000000000000000000000000000000000000000000008152600401610a7190611a22565b60405180910390fd5b60016006600085815260200190815260200160002060006101000a81548160ff021916908315150217905550600360009054906101000a900473ffffffffffffffffffffffffffffffffffffffff1673ffffffffffffffffffffffffffffffffffffffff166340c10f1988886040518363ffffffff1660e01b8152600401610b039291906117b3565b600060405180830381600087803b158015610b1d57600080fd5b505af1158015610b31573d6000803e3d6000fd5b505050508673ffffffffffffffffffffffffffffffffffffffff16600360009054906101000a900473ffffffffffffffffffffffffffffffffffffffff1673ffffffffffffffffffffffffffffffffffffffff167fa665ffb445611e4a69ea6bd353374f390a656906ea2da3245a8aae47a360a6cc8886604051610bb6929190611a42565b60405180910390a35050610bc8611043565b5050505050565b6000801b610bdc81610dfe565b610c067fe2b7fb3b832174769106daebcfd6d1970523240dda11281102db9363b83b0dc483610d17565b5050565b600260009054906101000a900473ffffffffffffffffffffffffffffffffffffffff1681565b600080600084815260200190815260200160002060000160008373ffffffffffffffffffffffffffffffffffffffff1673ffffffffffffffffffffffffffffffffffffffff16815260200190815260200160002060009054906101000a900460ff16905092915050565b7fe2b7fb3b832174769106daebcfd6d1970523240dda11281102db9363b83b0dc481565b600360009054906101000a900473ffffffffffffffffffffffffffffffffffffffff1681565b6000801b81565b60075481565b600460009054906101000a900473ffffffffffffffffffffffffffffffffffffffff1681565b610d208261048b565b610d2981610dfe565b610d338383610f0b565b50505050565b6000801b610d4681610dfe565b610d707fe2b7fb3b832174769106daebcfd6d1970523240dda11281102db9363b83b0dc4836104b0565b5050565b60066020528060005260406000206000915054906101000a900460ff1681565b60007f01ffc9a7000000000000000000000000000000000000000000000000000000007bffffffffffffffffffffffffffffffffffffffffffffffffffffffff1916827bffffffffffffffffffffffffffffffffffffffffffffffffffffffff1916149050919050565b610e0f81610e0a610f03565b611063565b50565b6000610e1e8383610c30565b610ef857600160008085815260200190815260200160002060000160008473ffffffffffffffffffffffffffffffffffffffff1673ffffffffffffffffffffffffffffffffffffffff16815260200190815260200160002060006101000a81548160ff021916908315150217905550610e95610f03565b73ffffffffffffffffffffffffffffffffffffffff168273ffffffffffffffffffffffffffffffffffffffff16847f2f8788117e7eff1d82e926ec794901d17c78024a50270940304540a733656f0d60405160405180910390a460019050610efd565b600090505b92915050565b600033905090565b6000610f178383610c30565b15610ff257600080600085815260200190815260200160002060000160008473ffffffffffffffffffffffffffffffffffffffff1673ffffffffffffffffffffffffffffffffffffffff16815260200190815260200160002060006101000a81548160ff021916908315150217905550610f8f610f03565b73ffffffffffffffffffffffffffffffffffffffff168273ffffffffffffffffffffffffffffffffffffffff16847ff6391f5c32d9c69d2a47ea670b442974b53935d1edc7fd64eb21e047a839171b60405160405180910390a460019050610ff7565b600090505b92915050565b600260015403611039576040517f3ee5aeb500000000000000000000000000000000000000000000000000000000815260040160405180910390fd5b6002600181905550565b60018081905550565b60008261105985846110b4565b1490509392505050565b61106d8282610c30565b6110b05780826040517fe2517d3f0000000000000000000000000000000000000000000000000000000081526004016110a7929190611a6b565b60405180910390fd5b5050565b60008082905060005b84518110156110ff576110ea828683815181106110dd576110dc611a94565b5b602002602001015161110a565b915080806110f79061166f565b9150506110bd565b508091505092915050565b60008183106111225761111d8284611135565b61112d565b61112c8383611135565b5b905092915050565b600082600052816020526040600020905092915050565b600080fd5b600080fd5b60007fffffffff0000000000000000000000000000000000000000000000000000000082169050919050565b61118b81611156565b811461119657600080fd5b50565b6000813590506111a881611182565b92915050565b6000602082840312156111c4576111c361114c565b5b60006111d284828501611199565b91505092915050565b60008115159050919050565b6111f0816111db565b82525050565b600060208201905061120b60008301846111e7565b92915050565b600073ffffffffffffffffffffffffffffffffffffffff82169050919050565b600061123c82611211565b9050919050565b61124c81611231565b811461125757600080fd5b50565b60008135905061126981611243565b92915050565b6000602082840312156112855761128461114c565b5b60006112938482850161125a565b91505092915050565b6000819050919050565b6112af8161129c565b81146112ba57600080fd5b50565b6000813590506112cc816112a6565b92915050565b6000602082840312156112e8576112e761114c565b5b60006112f6848285016112bd565b91505092915050565b6113088161129c565b82525050565b600060208201905061132360008301846112ff565b92915050565b600080604083850312156113405761133f61114c565b5b600061134e858286016112bd565b925050602061135f8582860161125a565b9150509250929050565b6000819050919050565b61137c81611369565b811461138757600080fd5b50565b60008135905061139981611373565b92915050565b6000602082840312156113b5576113b461114c565b5b60006113c38482850161138a565b91505092915050565b600080fd5b600080fd5b600080fd5b60008083601f8401126113f1576113f06113cc565b5b8235905067ffffffffffffffff81111561140e5761140d6113d1565b5b60208301915083602082028301111561142a576114296113d6565b5b9250929050565b60008060008060006080868803121561144d5761144c61114c565b5b600061145b8882890161125a565b955050602061146c8882890161138a565b945050604086013567ffffffffffffffff81111561148d5761148c611151565b5b611499888289016113db565b935093505060606114ac888289016112bd565b9150509295509295909350565b6000819050919050565b60006114de6114d96114d484611211565b6114b9565b611211565b9050919050565b60006114f0826114c3565b9050919050565b6000611502826114e5565b9050919050565b611512816114f7565b82525050565b600060208201905061152d6000830184611509565b92915050565b600061153e826114e5565b9050919050565b61154e81611533565b82525050565b60006020820190506115696000830184611545565b92915050565b61157881611369565b82525050565b6000602082019050611593600083018461156f565b92915050565b6115a281611231565b82525050565b60006020820190506115bd6000830184611599565b92915050565b600082825260208201905092915050565b7f416d6f756e74206d7573742062652067726561746572207468616e2030000000600082015250565b600061160a601d836115c3565b9150611615826115d4565b602082019050919050565b60006020820190508181036000830152611639816115fd565b9050919050565b7f4e487b7100000000000000000000000000000000000000000000000000000000600052601160045260246000fd5b600061167a82611369565b91507fffffffffffffffffffffffffffffffffffffffffffffffffffffffffffffffff82036116ac576116ab611640565b5b600182019050919050565b60006060820190506116cc6000830186611599565b6116d96020830185611599565b6116e6604083018461156f565b949350505050565b6116f7816111db565b811461170257600080fd5b50565b600081519050611714816116ee565b92915050565b6000602082840312156117305761172f61114c565b5b600061173e84828501611705565b91505092915050565b7f5472616e73666572206661696c65640000000000000000000000000000000000600082015250565b600061177d600f836115c3565b915061178882611747565b602082019050919050565b600060208201905081810360008301526117ac81611770565b9050919050565b60006040820190506117c86000830185611599565b6117d5602083018461156f565b9392505050565b60008160601b9050919050565b60006117f4826117dc565b9050919050565b6000611806826117e9565b9050919050565b61181e61181982611231565b6117fb565b82525050565b6000819050919050565b61183f61183a82611369565b611824565b82525050565b6000611851828661180d565b601482019150611861828561182e565b602082019150611871828461182e565b602082019150819050949350505050565b600060a08201905061189760008301886112ff565b6118a46020830187611599565b6118b1604083018661156f565b6118be60608301856112ff565b6118cb60808301846112ff565b9695505050505050565b60006060820190506118ea600083018661156f565b6118f7602083018561156f565b61190460408301846112ff565b949350505050565b7f5472616e7366657220616c72656164792070726f636573736564000000000000600082015250565b6000611942601a836115c3565b915061194d8261190c565b602082019050919050565b6000602082019050818103600083015261197181611935565b9050919050565b6000819050919050565b61199361198e8261129c565b611978565b82525050565b60006119a5828661180d565b6014820191506119b5828561182e565b6020820191506119c58284611982565b602082019150819050949350505050565b7f496e76616c6964206d65726b6c652070726f6f66000000000000000000000000600082015250565b6000611a0c6014836115c3565b9150611a17826119d6565b602082019050919050565b60006020820190508181036000830152611a3b816119ff565b9050919050565b6000604082019050611a57600083018561156f565b611a6460208301846112ff565b9392505050565b6000604082019050611a806000830185611599565b611a8d60208301846112ff565b9392505050565b7f4e487b7100000000000000000000000000000000000000000000000000000000600052603260045260246000fdfea26469706673582212208d4c35eadaca36c8ce3404008db16a91f31ee45adceb47fee7b8594ea08274f964736f6c63430008140033",
  "linkReferences": {},
  "deployedLinkReferences": {}
}