{
  "_format": "hh-sol-artifact-1",
  "contractName": "RelayerFactory",
  "sourceName": "contracts/RelayerFactory.sol",
  "abi": [
    {
      "anonymous": false,
      "inputs": [
        {
          "indexed": false,
          "internalType": "address",
          "name": "relayerAddress",
          "type": "address"
        }
      ],
      "name": "RelayerDeployed",
      "type": "event"
    },
    {
      "inputs": [
        {
          "internalType": "bytes32",
          "name": "salt",
          "type": "bytes32"
        }
      ],
      "name": "computeAddress",
      "outputs": [
        {
          "internalType": "address",
          "name": "",
          "type": "address"
        }
      ],
      "stateMutability": "view",
      "type": "function"
    },
    {
      "inputs": [
        {
          "internalType": "bytes32",
          "name": "salt",
          "type": "bytes32"
        }
      ],
      "name": "deploy",
      "outputs": [
        {
          "internalType": "address",
          "name": "",
          "type": "address"
        }
      ],
      "stateMutability": "nonpayable",
      "type": "function"
    }
  ],
  "bytecode": "0x608060405234801561001057600080fd5b50611d0f806100206000396000f3fe608060405234801561001057600080fd5b50600436106100365760003560e01c80632b85ba381461003b5780637fde56da1461006b575b600080fd5b6100556004803603810190610050919061022d565b61009b565b604051610062919061029b565b60405180910390f35b6100856004803603810190610080919061022d565b610179565b604051610092919061029b565b60405180910390f35b600080826040516100ab906101e5565b8190604051809103906000f59050801580156100cb573d6000803e3d6000fd5b5090508073ffffffffffffffffffffffffffffffffffffffff1663c4d66de8336040518263ffffffff1660e01b8152600401610107919061029b565b600060405180830381600087803b15801561012157600080fd5b505af1158015610135573d6000803e3d6000fd5b505050507f77e36df5f0d302993fc0418de2d240cb49a9777c5d3eecd5bc47cc894a8d8d9781604051610168919061029b565b60405180910390a180915050919050565b60008060ff60f81b308460405180602001610193906101e5565b6020820181038252601f19601f82011660405250805190602001206040516020016101c1949392919061036c565b6040516020818303038152906040528051906020012090508060001c915050919050565b61191f806103bb83390190565b600080fd5b6000819050919050565b61020a816101f7565b811461021557600080fd5b50565b60008135905061022781610201565b92915050565b600060208284031215610243576102426101f2565b5b600061025184828501610218565b91505092915050565b600073ffffffffffffffffffffffffffffffffffffffff82169050919050565b60006102858261025a565b9050919050565b6102958161027a565b82525050565b60006020820190506102b0600083018461028c565b92915050565b60007fff0000000000000000000000000000000000000000000000000000000000000082169050919050565b6000819050919050565b6102fd6102f8826102b6565b6102e2565b82525050565b60008160601b9050919050565b600061031b82610303565b9050919050565b600061032d82610310565b9050919050565b6103456103408261027a565b610322565b82525050565b6000819050919050565b610366610361826101f7565b61034b565b82525050565b600061037882876102ec565b6001820191506103888286610334565b6014820191506103988285610355565b6020820191506103a88284610355565b6020820191508190509594505050505056fe60806040523480156200001157600080fd5b50600180819055506200002e6000801b336200007860201b60201c565b50620000617fe2b7fb3b832174769106daebcfd6d1970523240dda11281102db9363b83b0dc4336200007860201b60201c565b5060016003819055506001600481905550620001ed565b60006200008c83836200017b60201b60201c565b6200017057600160008085815260200190815260200160002060000160008473ffffffffffffffffffffffffffffffffffffffff1673ffffffffffffffffffffffffffffffffffffffff16815260200190815260200160002060006101000a81548160ff0219169083151502179055506200010c620001e560201b60201c565b73ffffffffffffffffffffffffffffffffffffffff168273ffffffffffffffffffffffffffffffffffffffff16847f2f8788117e7eff1d82e926ec794901d17c78024a50270940304540a733656f0d60405160405180910390a46001905062000175565b600090505b92915050565b600080600084815260200190815260200160002060000160008373ffffffffffffffffffffffffffffffffffffffff1673ffffffffffffffffffffffffffffffffffffffff16815260200190815260200160002060009054906101000a900460ff16905092915050565b600033905090565b61172280620001fd6000396000f3fe608060405234801561001057600080fd5b50600436106101165760003560e01c806382e717f7116100a2578063a217fddf11610071578063a217fddf146102f7578063c4d66de814610315578063cf1a7a2114610331578063d547741f1461034f578063dd39f00d1461036b57610116565b806382e717f71461026d57806391d148541461028b578063926d7d7f146102bb5780639e42509e146102d957610116565b806336568abe116100e957806336568abe146101b357806336a55b38146101cf5780633c64f04b146101eb57806360f0a5ac1461022157806365ed44541461023d57610116565b806301ffc9a71461011b5780631d123a081461014b578063248a9ca3146101675780632f2ff15d14610197575b600080fd5b61013560048036038101906101309190610f83565b610387565b6040516101429190610fcb565b60405180910390f35b610165600480360381019061016091906110b0565b610401565b005b610181600480360381019061017c919061112b565b610554565b60405161018e9190611167565b60405180910390f35b6101b160048036038101906101ac9190611182565b610573565b005b6101cd60048036038101906101c89190611182565b610595565b005b6101e960048036038101906101e4919061112b565b610610565b005b6102056004803603810190610200919061112b565b610876565b60405161021897969594939291906111e0565b60405180910390f35b61023b6004803603810190610236919061124f565b6108e5565b005b6102576004803603810190610252919061112b565b610a05565b604051610264919061127c565b60405180910390f35b610275610a25565b604051610282919061127c565b60405180910390f35b6102a560048036038101906102a09190611182565b610a2b565b6040516102b29190610fcb565b60405180910390f35b6102c3610a95565b6040516102d09190611167565b60405180910390f35b6102e1610ab9565b6040516102ee919061127c565b60405180910390f35b6102ff610abe565b60405161030c9190611167565b60405180910390f35b61032f600480360381019061032a919061124f565b610ac5565b005b610339610b23565b604051610346919061127c565b60405180910390f35b61036960048036038101906103649190611182565b610b29565b005b6103856004803603810190610380919061124f565b610b4b565b005b60007f7965db0b000000000000000000000000000000000000000000000000000000007bffffffffffffffffffffffffffffffffffffffffffffffffffffffff1916827bffffffffffffffffffffffffffffffffffffffffffffffffffffffff191614806103fa57506103f982610c6c565b5b9050919050565b7fe2b7fb3b832174769106daebcfd6d1970523240dda11281102db9363b83b0dc461042b81610cd6565b6002600087815260200190815260200160002060060160009054906101000a900460ff161561048f576040517f08c379a0000000000000000000000000000000000000000000000000000000008152600401610486906112f4565b60405180910390fd5b6000600260008881526020019081526020016000209050858160000160006101000a81548173ffffffffffffffffffffffffffffffffffffffff021916908373ffffffffffffffffffffffffffffffffffffffff160217905550848160010181905550838160020181905550828160030181905550428160040181905550867f682ef21bf945cdc0c290b2d5075b0920e32e2e279f73abe77b2728a86b8adb4e878787876040516105439493929190611314565b60405180910390a250505050505050565b6000806000838152602001908152602001600020600101549050919050565b61057c82610554565b61058581610cd6565b61058f8383610cea565b50505050565b61059d610ddb565b73ffffffffffffffffffffffffffffffffffffffff168173ffffffffffffffffffffffffffffffffffffffff1614610601576040517f6697b23200000000000000000000000000000000000000000000000000000000815260040160405180910390fd5b61060b8282610de3565b505050565b7fe2b7fb3b832174769106daebcfd6d1970523240dda11281102db9363b83b0dc461063a81610cd6565b60006002600084815260200190815260200160002090508060060160009054906101000a900460ff16156106a3576040517f08c379a000000000000000000000000000000000000000000000000000000000815260040161069a906112f4565b60405180910390fd5b8060070160003373ffffffffffffffffffffffffffffffffffffffff1673ffffffffffffffffffffffffffffffffffffffff16815260200190815260200160002060009054906101000a900460ff1615610732576040517f08c379a0000000000000000000000000000000000000000000000000000000008152600401610729906113a5565b60405180910390fd5b60018160070160003373ffffffffffffffffffffffffffffffffffffffff1673ffffffffffffffffffffffffffffffffffffffff16815260200190815260200160002060006101000a81548160ff0219169083151502179055508060050160008154809291906107a1906113f4565b9190505550827f088c474e55a390f3d615704787d6b2fb7f0f3c31d954fa34f812d542226715ab3383600501546040516107dc92919061143c565b60405180910390a26004548160050154106108715760018160060160006101000a81548160ff021916908315150217905550827fb4d028777f4b11e3791bf450af8e9eb64f04721d410e914c4f2d3d327ec0a1e38260000160009054906101000a900473ffffffffffffffffffffffffffffffffffffffff16836001015460405161086892919061143c565b60405180910390a25b505050565b60026020528060005260406000206000915090508060000160009054906101000a900473ffffffffffffffffffffffffffffffffffffffff16908060010154908060020154908060030154908060040154908060050154908060060160009054906101000a900460ff16905087565b6000801b6108f281610cd6565b61091c7fe2b7fb3b832174769106daebcfd6d1970523240dda11281102db9363b83b0dc483610a2b565b61095b576040517f08c379a0000000000000000000000000000000000000000000000000000000008152600401610952906114b1565b60405180910390fd5b6109857fe2b7fb3b832174769106daebcfd6d1970523240dda11281102db9363b83b0dc483610b29565b60036000815480929190610998906114d1565b91905055506001600360026003546109b091906114fa565b6109ba919061156b565b6109c4919061159c565b6004819055507f10e1f7ce9fd7d1b90a66d13a2ab3cb8dd7f29f3f8d520b143b063ccfbab6906b826040516109f991906115d0565b60405180910390a15050565b600060026000838152602001908152602001600020600501549050919050565b60045481565b600080600084815260200190815260200160002060000160008373ffffffffffffffffffffffffffffffffffffffff1673ffffffffffffffffffffffffffffffffffffffff16815260200190815260200160002060009054906101000a900460ff16905092915050565b7fe2b7fb3b832174769106daebcfd6d1970523240dda11281102db9363b83b0dc481565b600281565b6000801b81565b610ad26000801b82610a2b565b15610b12576040517f08c379a0000000000000000000000000000000000000000000000000000000008152600401610b0990611637565b60405180910390fd5b610b1f6000801b82610cea565b5050565b60035481565b610b3282610554565b610b3b81610cd6565b610b458383610de3565b50505050565b6000801b610b5881610cd6565b610b827fe2b7fb3b832174769106daebcfd6d1970523240dda11281102db9363b83b0dc483610a2b565b15610bc2576040517f08c379a0000000000000000000000000000000000000000000000000000000008152600401610bb9906116a3565b60405180910390fd5b610bec7fe2b7fb3b832174769106daebcfd6d1970523240dda11281102db9363b83b0dc483610573565b60036000815480929190610bff906113f4565b9190505550600160036002600354610c1791906114fa565b610c21919061156b565b610c2b919061159c565b6004819055507f03580ee9f53a62b7cb409a2cb56f9be87747dd15017afc5cef6eef321e4fb2c582604051610c6091906115d0565b60405180910390a15050565b60007f01ffc9a7000000000000000000000000000000000000000000000000000000007bffffffffffffffffffffffffffffffffffffffffffffffffffffffff1916827bffffffffffffffffffffffffffffffffffffffffffffffffffffffff1916149050919050565b610ce781610ce2610ddb565b610ed5565b50565b6000610cf68383610a2b565b610dd057600160008085815260200190815260200160002060000160008473ffffffffffffffffffffffffffffffffffffffff1673ffffffffffffffffffffffffffffffffffffffff16815260200190815260200160002060006101000a81548160ff021916908315150217905550610d6d610ddb565b73ffffffffffffffffffffffffffffffffffffffff168273ffffffffffffffffffffffffffffffffffffffff16847f2f8788117e7eff1d82e926ec794901d17c78024a50270940304540a733656f0d60405160405180910390a460019050610dd5565b600090505b92915050565b600033905090565b6000610def8383610a2b565b15610eca57600080600085815260200190815260200160002060000160008473ffffffffffffffffffffffffffffffffffffffff1673ffffffffffffffffffffffffffffffffffffffff16815260200190815260200160002060006101000a81548160ff021916908315150217905550610e67610ddb565b73ffffffffffffffffffffffffffffffffffffffff168273ffffffffffffffffffffffffffffffffffffffff16847ff6391f5c32d9c69d2a47ea670b442974b53935d1edc7fd64eb21e047a839171b60405160405180910390a460019050610ecf565b600090505b92915050565b610edf8282610a2b565b610f225780826040517fe2517d3f000000000000000000000000000000000000000000000000000000008152600401610f199291906116c3565b60405180910390fd5b5050565b600080fd5b60007fffffffff0000000000000000000000000000000000000000000000000000000082169050919050565b610f6081610f2b565b8114610f6b57600080fd5b50565b600081359050610f7d81610f57565b92915050565b600060208284031215610f9957610f98610f26565b5b6000610fa784828501610f6e565b91505092915050565b60008115159050919050565b610fc581610fb0565b82525050565b6000602082019050610fe06000830184610fbc565b92915050565b6000819050919050565b610ff981610fe6565b811461100457600080fd5b50565b60008135905061101681610ff0565b92915050565b600073ffffffffffffffffffffffffffffffffffffffff82169050919050565b60006110478261101c565b9050919050565b6110578161103c565b811461106257600080fd5b50565b6000813590506110748161104e565b92915050565b6000819050919050565b61108d8161107a565b811461109857600080fd5b50565b6000813590506110aa81611084565b92915050565b600080600080600060a086880312156110cc576110cb610f26565b5b60006110da88828901611007565b95505060206110eb88828901611065565b94505060406110fc8882890161109b565b935050606061110d88828901611007565b925050608061111e88828901611007565b9150509295509295909350565b60006020828403121561114157611140610f26565b5b600061114f84828501611007565b91505092915050565b61116181610fe6565b82525050565b600060208201905061117c6000830184611158565b92915050565b6000806040838503121561119957611198610f26565b5b60006111a785828601611007565b92505060206111b885828601611065565b9150509250929050565b6111cb8161103c565b82525050565b6111da8161107a565b82525050565b600060e0820190506111f5600083018a6111c2565b61120260208301896111d1565b61120f6040830188611158565b61121c6060830187611158565b61122960808301866111d1565b61123660a08301856111d1565b61124360c0830184610fbc565b98975050505050505050565b60006020828403121561126557611264610f26565b5b600061127384828501611065565b91505092915050565b600060208201905061129160008301846111d1565b92915050565b600082825260208201905092915050565b7f5472616e7366657220616c726561647920657865637574656400000000000000600082015250565b60006112de601983611297565b91506112e9826112a8565b602082019050919050565b6000602082019050818103600083015261130d816112d1565b9050919050565b600060808201905061132960008301876111c2565b61133660208301866111d1565b6113436040830185611158565b6113506060830184611158565b95945050505050565b7f416c726561647920636f6e6669726d6564000000000000000000000000000000600082015250565b600061138f601183611297565b915061139a82611359565b602082019050919050565b600060208201905081810360008301526113be81611382565b9050919050565b7f4e487b7100000000000000000000000000000000000000000000000000000000600052601160045260246000fd5b60006113ff8261107a565b91507fffffffffffffffffffffffffffffffffffffffffffffffffffffffffffffffff8203611431576114306113c5565b5b600182019050919050565b600060408201905061145160008301856111c2565b61145e60208301846111d1565b9392505050565b7f4e6f7420612072656c6179657200000000000000000000000000000000000000600082015250565b600061149b600d83611297565b91506114a682611465565b602082019050919050565b600060208201905081810360008301526114ca8161148e565b9050919050565b60006114dc8261107a565b9150600082036114ef576114ee6113c5565b5b600182039050919050565b60006115058261107a565b91506115108361107a565b925082820261151e8161107a565b91508282048414831517611535576115346113c5565b5b5092915050565b7f4e487b7100000000000000000000000000000000000000000000000000000000600052601260045260246000fd5b60006115768261107a565b91506115818361107a565b9250826115915761159061153c565b5b828204905092915050565b60006115a78261107a565b91506115b28361107a565b92508282019050808211156115ca576115c96113c5565b5b92915050565b60006020820190506115e560008301846111c2565b92915050565b7f416c726561647920696e697469616c697a656400000000000000000000000000600082015250565b6000611621601383611297565b915061162c826115eb565b602082019050919050565b6000602082019050818103600083015261165081611614565b9050919050565b7f416c726561647920612072656c61796572000000000000000000000000000000600082015250565b600061168d601183611297565b915061169882611657565b602082019050919050565b600060208201905081810360008301526116bc81611680565b9050919050565b60006040820190506116d860008301856111c2565b6116e56020830184611158565b939250505056fea2646970667358221220dafb7d75c51d267c92186da51fc290f6c7b1620f804fefb8105e2c342598e19b64736f6c63430008140033a2646970667358221220dc614fd08f06990b2a2a15e198597812bb2d69c0da7a94cd4393b1d8a940855a64736f6c63430008140033",
  "linkReferences": {},
  "deployedLinkReferences": {}
}