{
  "_format": "hh-sol-artifact-1",
  "contractName": "MerkleVerifier",
  "sourceName": "contracts/MerkleVerifier.sol",
  "abi": [
    {
      "inputs": [
        {
          "internalType": "bytes32",
          "name": "_merkleRoot",
          "type": "bytes32"
        }
      ],
      "stateMutability": "nonpayable",
      "type": "constructor"
    },
    {
      "inputs": [
        {
          "internalType": "address",
          "name": "owner",
          "type": "address"
        }
      ],
      "name": "OwnableInvalidOwner",
      "type": "error"
    },
    {
      "inputs": [
        {
          "internalType": "address",
          "name": "account",
          "type": "address"
        }
      ],
      "name": "OwnableUnauthorizedAccount",
      "type": "error"
    },
    {
      "anonymous": false,
      "inputs": [
        {
          "indexed": true,
          "internalType": "bytes32",
          "name": "leaf",
          "type": "bytes32"
        },
        {
          "indexed": false,
          "internalType": "bool",
          "name": "verified",
          "type": "bool"
        }
      ],
      "name": "LeafVerified",
      "type": "event"
    },
    {
      "anonymous": false,
      "inputs": [
        {
          "indexed": false,
          "internalType": "bytes32",
          "name": "oldRoot",
          "type": "bytes32"
        },
        {
          "indexed": false,
          "internalType": "bytes32",
          "name": "newRoot",
          "type": "bytes32"
        }
      ],
      "name": "MerkleRootUpdated",
      "type": "event"
    },
    {
      "anonymous": false,
      "inputs": [
        {
          "indexed": true,
          "internalType": "address",
          "name": "previousOwner",
          "type": "address"
        },
        {
          "indexed": true,
          "internalType": "address",
          "name": "newOwner",
          "type": "address"
        }
      ],
      "name": "OwnershipTransferred",
      "type": "event"
    },
    {
      "inputs": [],
      "name": "merkleRoot",
      "outputs": [
        {
          "internalType": "bytes32",
          "name": "",
          "type": "bytes32"
        }
      ],
      "stateMutability": "view",
      "type": "function"
    },
    {
      "inputs": [],
      "name": "owner",
      "outputs": [
        {
          "internalType": "address",
          "name": "",
          "type": "address"
        }
      ],
      "stateMutability": "view",
      "type": "function"
    },
    {
      "inputs": [],
      "name": "renounceOwnership",
      "outputs": [],
      "stateMutability": "nonpayable",
      "type": "function"
    },
    {
      "inputs": [
        {
          "internalType": "address",
          "name": "newOwner",
          "type": "address"
        }
      ],
      "name": "transferOwnership",
      "outputs": [],
      "stateMutability": "nonpayable",
      "type": "function"
    },
    {
      "inputs": [
        {
          "internalType": "bytes32",
          "name": "_newRoot",
          "type": "bytes32"
        }
      ],
      "name": "updateMerkleRoot",
      "outputs": [],
      "stateMutability": "nonpayable",
      "type": "function"
    },
    {
      "inputs": [
        {
          "internalType": "bytes32[]",
          "name": "proof",
          "type": "bytes32[]"
        },
        {
          "internalType": "bytes32",
          "name": "leaf",
          "type": "bytes32"
        }
      ],
      "name": "verify",
      "outputs": [
        {
          "internalType": "bool",
          "name": "",
          "type": "bool"
        }
      ],
      "stateMutability": "nonpayable",
      "type": "function"
    },
    {
      "inputs": [
        {
          "internalType": "bytes32[][]",
          "name": "proofs",
          "type": "bytes32[][]"
        },
        {
          "internalType": "bytes32[]",
          "name": "leaves",
          "type": "bytes32[]"
        }
      ],
      "name": "verifyMultiple",
      "outputs": [
        {
          "internalType": "bool[]",
          "name": "results",
          "type": "bool[]"
        }
      ],
      "stateMutability": "nonpayable",
      "type": "function"
    }
  ],
  "bytecode": "0x60806040523480156200001157600080fd5b5060405162000f9038038062000f908339818101604052810190620000379190620001d1565b33600073ffffffffffffffffffffffffffffffffffffffff168173ffffffffffffffffffffffffffffffffffffffff1603620000ad5760006040517f1e4fbdf7000000000000000000000000000000000000000000000000000000008152600401620000a4919062000248565b60405180910390fd5b620000be81620000cd60201b60201c565b50806001819055505062000265565b60008060009054906101000a900473ffffffffffffffffffffffffffffffffffffffff169050816000806101000a81548173ffffffffffffffffffffffffffffffffffffffff021916908373ffffffffffffffffffffffffffffffffffffffff1602179055508173ffffffffffffffffffffffffffffffffffffffff168173ffffffffffffffffffffffffffffffffffffffff167f8be0079c531659141344cd1fd0a4f28419497f9722a3daafe3b4186f6b6457e060405160405180910390a35050565b600080fd5b6000819050919050565b620001ab8162000196565b8114620001b757600080fd5b50565b600081519050620001cb81620001a0565b92915050565b600060208284031215620001ea57620001e962000191565b5b6000620001fa84828501620001ba565b91505092915050565b600073ffffffffffffffffffffffffffffffffffffffff82169050919050565b6000620002308262000203565b9050919050565b620002428162000223565b82525050565b60006020820190506200025f600083018462000237565b92915050565b610d1b80620002756000396000f3fe608060405234801561001057600080fd5b506004361061007d5760003560e01c8063822b5bec1161005b578063822b5bec146100c65780638da5cb5b146100f6578063972a2a6214610114578063f2fde38b146101445761007d565b80632eb4a7ab146100825780634783f0ef146100a0578063715018a6146100bc575b600080fd5b61008a610160565b6040516100979190610709565b60405180910390f35b6100ba60048036038101906100b5919061075a565b610166565b005b6100c46101b9565b005b6100e060048036038101906100db9190610842565b6101cd565b6040516100ed919061098d565b60405180910390f35b6100fe6103a9565b60405161010b91906109f0565b60405180910390f35b61012e60048036038101906101299190610a0b565b6103d2565b60405161013b9190610a7a565b60405180910390f35b61015e60048036038101906101599190610ac1565b610468565b005b60015481565b61016e6104ee565b60006001549050816001819055507ffd69edeceaf1d6832d935be1fba54ca93bf17e71520c6c9ffc08d6e9529f875781836040516101ad929190610aee565b60405180910390a15050565b6101c16104ee565b6101cb6000610575565b565b6060828290508585905014610217576040517f08c379a000000000000000000000000000000000000000000000000000000000815260040161020e90610b74565b60405180910390fd5b8282905067ffffffffffffffff81111561023457610233610b94565b5b6040519080825280602002602001820160405280156102625781602001602082028036833780820191505090505b50905060005b838390508110156103a0576102fd86868381811061028957610288610bc3565b5b905060200281019061029b9190610c01565b80806020026020016040519081016040528093929190818152602001838360200280828437600081840152601f19601f820116905080830192505050505050506001548686858181106102f1576102f0610bc3565b5b90506020020135610639565b8282815181106103105761030f610bc3565b5b60200260200101901515908115158152505083838281811061033557610334610bc3565b5b905060200201357fa2692180d5f4be09f7f47ae4057448620daf3be371077959d26a4f8c0ad87aed8383815181106103705761036f610bc3565b5b60200260200101516040516103859190610a7a565b60405180910390a2808061039890610c9d565b915050610268565b50949350505050565b60008060009054906101000a900473ffffffffffffffffffffffffffffffffffffffff16905090565b600080610423858580806020026020016040519081016040528093929190818152602001838360200280828437600081840152601f19601f8201169050808301925050505050505060015485610639565b9050827fa2692180d5f4be09f7f47ae4057448620daf3be371077959d26a4f8c0ad87aed826040516104559190610a7a565b60405180910390a2809150509392505050565b6104706104ee565b600073ffffffffffffffffffffffffffffffffffffffff168173ffffffffffffffffffffffffffffffffffffffff16036104e25760006040517f1e4fbdf70000000000000000000000000000000000000000000000000000000081526004016104d991906109f0565b60405180910390fd5b6104eb81610575565b50565b6104f6610650565b73ffffffffffffffffffffffffffffffffffffffff166105146103a9565b73ffffffffffffffffffffffffffffffffffffffff161461057357610537610650565b6040517f118cdaa700000000000000000000000000000000000000000000000000000000815260040161056a91906109f0565b60405180910390fd5b565b60008060009054906101000a900473ffffffffffffffffffffffffffffffffffffffff169050816000806101000a81548173ffffffffffffffffffffffffffffffffffffffff021916908373ffffffffffffffffffffffffffffffffffffffff1602179055508173ffffffffffffffffffffffffffffffffffffffff168173ffffffffffffffffffffffffffffffffffffffff167f8be0079c531659141344cd1fd0a4f28419497f9722a3daafe3b4186f6b6457e060405160405180910390a35050565b6000826106468584610658565b1490509392505050565b600033905090565b60008082905060005b84518110156106a35761068e8286838151811061068157610680610bc3565b5b60200260200101516106ae565b9150808061069b90610c9d565b915050610661565b508091505092915050565b60008183106106c6576106c182846106d9565b6106d1565b6106d083836106d9565b5b905092915050565b600082600052816020526040600020905092915050565b6000819050919050565b610703816106f0565b82525050565b600060208201905061071e60008301846106fa565b92915050565b600080fd5b600080fd5b610737816106f0565b811461074257600080fd5b50565b6000813590506107548161072e565b92915050565b6000602082840312156107705761076f610724565b5b600061077e84828501610745565b91505092915050565b600080fd5b600080fd5b600080fd5b60008083601f8401126107ac576107ab610787565b5b8235905067ffffffffffffffff8111156107c9576107c861078c565b5b6020830191508360208202830111156107e5576107e4610791565b5b9250929050565b60008083601f84011261080257610801610787565b5b8235905067ffffffffffffffff81111561081f5761081e61078c565b5b60208301915083602082028301111561083b5761083a610791565b5b9250929050565b6000806000806040858703121561085c5761085b610724565b5b600085013567ffffffffffffffff81111561087a57610879610729565b5b61088687828801610796565b9450945050602085013567ffffffffffffffff8111156108a9576108a8610729565b5b6108b5878288016107ec565b925092505092959194509250565b600081519050919050565b600082825260208201905092915050565b6000819050602082019050919050565b60008115159050919050565b610904816108ef565b82525050565b600061091683836108fb565b60208301905092915050565b6000602082019050919050565b600061093a826108c3565b61094481856108ce565b935061094f836108df565b8060005b83811015610980578151610967888261090a565b975061097283610922565b925050600181019050610953565b5085935050505092915050565b600060208201905081810360008301526109a7818461092f565b905092915050565b600073ffffffffffffffffffffffffffffffffffffffff82169050919050565b60006109da826109af565b9050919050565b6109ea816109cf565b82525050565b6000602082019050610a0560008301846109e1565b92915050565b600080600060408486031215610a2457610a23610724565b5b600084013567ffffffffffffffff811115610a4257610a41610729565b5b610a4e868287016107ec565b93509350506020610a6186828701610745565b9150509250925092565b610a74816108ef565b82525050565b6000602082019050610a8f6000830184610a6b565b92915050565b610a9e816109cf565b8114610aa957600080fd5b50565b600081359050610abb81610a95565b92915050565b600060208284031215610ad757610ad6610724565b5b6000610ae584828501610aac565b91505092915050565b6000604082019050610b0360008301856106fa565b610b1060208301846106fa565b9392505050565b600082825260208201905092915050565b7f4c656e677468206d69736d617463680000000000000000000000000000000000600082015250565b6000610b5e600f83610b17565b9150610b6982610b28565b602082019050919050565b60006020820190508181036000830152610b8d81610b51565b9050919050565b7f4e487b7100000000000000000000000000000000000000000000000000000000600052604160045260246000fd5b7f4e487b7100000000000000000000000000000000000000000000000000000000600052603260045260246000fd5b600080fd5b600080fd5b600080fd5b60008083356001602003843603038112610c1e57610c1d610bf2565b5b80840192508235915067ffffffffffffffff821115610c4057610c3f610bf7565b5b602083019250602082023603831315610c5c57610c5b610bfc565b5b509250929050565b7f4e487b7100000000000000000000000000000000000000000000000000000000600052601160045260246000fd5b6000819050919050565b6000610ca882610c93565b91507fffffffffffffffffffffffffffffffffffffffffffffffffffffffffffffffff8203610cda57610cd9610c64565b5b60018201905091905056fea264697066735822122071217f91b3327585c985192b0ac8c7adff6fde4f775348ffa393b0ae99863b1864736f6c63430008140033",
  "linkReferences": {},
  "deployedLinkReferences": {}
}