{
  "_format": "hh-sol-artifact-1",
  "contractName": "BridgeSepoliaV2",
  "sourceName": "contracts/BridgeSepoliaV2.sol",
  "abi": [
    {
      "inputs": [
        {
          "internalType": "address",
          "name": "_wrappedToken",
          "type": "address"
        },
        {
          "internalType": "address",
          "name": "_relayerManager",
          "type": "address"
        },
        {
          "internalType": "address",
          "name": "owner",
          "type": "address"
        }
      ],
      "stateMutability": "nonpayable",
      "type": "constructor"
    },
    {
      "inputs": [
        {
          "internalType": "address",
          "name": "owner",
          "type": "address"
        }
      ],
      "name": "OwnableInvalidOwner",
      "type": "error"
    },
    {
      "inputs": [
        {
          "internalType": "address",
          "name": "account",
          "type": "address"
        }
      ],
      "name": "OwnableUnauthorizedAccount",
      "type": "error"
    },
    {
      "inputs": [],
      "name": "ReentrancyGuardReentrantCall",
      "type": "error"
    },
    {
      "anonymous": false,
      "inputs": [
        {
          "indexed": true,
          "internalType": "address",
          "name": "previousOwner",
          "type": "address"
        },
        {
          "indexed": true,
          "internalType": "address",
          "name": "newOwner",
          "type": "address"
        }
      ],
      "name": "OwnershipTransferred",
      "type": "event"
    },
    {
      "anonymous": false,
      "inputs": [
        {
          "indexed": true,
          "internalType": "bytes32",
          "name": "requestId",
          "type": "bytes32"
        },
        {
          "indexed": true,
          "internalType": "address",
          "name": "recipient",
          "type": "address"
        },
        {
          "indexed": false,
          "internalType": "uint256",
          "name": "amount",
          "type": "uint256"
        }
      ],
      "name": "ReleaseRequested",
      "type": "event"
    },
    {
      "inputs": [
        {
          "internalType": "uint256",
          "name": "amount",
          "type": "uint256"
        },
        {
          "internalType": "address",
          "name": "recipient",
          "type": "address"
        }
      ],
      "name": "burnWithRelay",
      "outputs": [],
      "stateMutability": "nonpayable",
      "type": "function"
    },
    {
      "inputs": [],
      "name": "owner",
      "outputs": [
        {
          "internalType": "address",
          "name": "",
          "type": "address"
        }
      ],
      "stateMutability": "view",
      "type": "function"
    },
    {
      "inputs": [
        {
          "internalType": "bytes32",
          "name": "",
          "type": "bytes32"
        }
      ],
      "name": "processedRequests",
      "outputs": [
        {
          "internalType": "bool",
          "name": "",
          "type": "bool"
        }
      ],
      "stateMutability": "view",
      "type": "function"
    },
    {
      "inputs": [],
      "name": "relayerManager",
      "outputs": [
        {
          "internalType": "contract IRelayerManager",
          "name": "",
          "type": "address"
        }
      ],
      "stateMutability": "view",
      "type": "function"
    },
    {
      "inputs": [
        {
          "internalType": "bytes32",
          "name": "requestId",
          "type": "bytes32"
        },
        {
          "internalType": "address",
          "name": "recipient",
          "type": "address"
        },
        {
          "internalType": "uint256",
          "name": "amount",
          "type": "uint256"
        },
        {
          "internalType": "bytes32[]",
          "name": "relayerProof",
          "type": "bytes32[]"
        }
      ],
      "name": "release",
      "outputs": [],
      "stateMutability": "nonpayable",
      "type": "function"
    },
    {
      "inputs": [],
      "name": "renounceOwnership",
      "outputs": [],
      "stateMutability": "nonpayable",
      "type": "function"
    },
    {
      "inputs": [
        {
          "internalType": "address",
          "name": "newOwner",
          "type": "address"
        }
      ],
      "name": "transferOwnership",
      "outputs": [],
      "stateMutability": "nonpayable",
      "type": "function"
    },
    {
      "inputs": [],
      "name": "wrappedToken",
      "outputs": [
        {
          "internalType": "contract ISepoliaToken",
          "name": "",
          "type": "address"
        }
      ],
      "stateMutability": "view",
      "type": "function"
    }
  ],
  "bytecode": "0x60806040523480156200001157600080fd5b506040516200135c3803806200135c83398181016040528101906200003791906200027f565b80600073ffffffffffffffffffffffffffffffffffffffff168173ffffffffffffffffffffffffffffffffffffffff1603620000ad5760006040517f1e4fbdf7000000000000000000000000000000000000000000000000000000008152600401620000a49190620002ec565b60405180910390fd5b620000be816200015160201b60201c565b506001808190555082600260006101000a81548173ffffffffffffffffffffffffffffffffffffffff021916908373ffffffffffffffffffffffffffffffffffffffff16021790555081600360006101000a81548173ffffffffffffffffffffffffffffffffffffffff021916908373ffffffffffffffffffffffffffffffffffffffff16021790555050505062000309565b60008060009054906101000a900473ffffffffffffffffffffffffffffffffffffffff169050816000806101000a81548173ffffffffffffffffffffffffffffffffffffffff021916908373ffffffffffffffffffffffffffffffffffffffff1602179055508173ffffffffffffffffffffffffffffffffffffffff168173ffffffffffffffffffffffffffffffffffffffff167f8be0079c531659141344cd1fd0a4f28419497f9722a3daafe3b4186f6b6457e060405160405180910390a35050565b600080fd5b600073ffffffffffffffffffffffffffffffffffffffff82169050919050565b600062000247826200021a565b9050919050565b62000259816200023a565b81146200026557600080fd5b50565b60008151905062000279816200024e565b92915050565b6000806000606084860312156200029b576200029a62000215565b5b6000620002ab8682870162000268565b9350506020620002be8682870162000268565b9250506040620002d18682870162000268565b9150509250925092565b620002e6816200023a565b82525050565b6000602082019050620003036000830184620002db565b92915050565b61104380620003196000396000f3fe608060405234801561001057600080fd5b50600436106100885760003560e01c8063c71d36b31161005b578063c71d36b3146100ef578063ce0fa5a91461010d578063f2fde38b1461013d578063fb325fa71461015957610088565b806343c6e0641461008d578063715018a6146100a95780638da5cb5b146100b3578063996c6cc3146100d1575b600080fd5b6100a760048036038101906100a29190610977565b610175565b005b6100b16103f6565b005b6100bb61040a565b6040516100c891906109c6565b60405180910390f35b6100d9610433565b6040516100e69190610a40565b60405180910390f35b6100f7610459565b6040516101049190610a7c565b60405180910390f35b61012760048036038101906101229190610acd565b61047f565b6040516101349190610b15565b60405180910390f35b61015760048036038101906101529190610b30565b61049f565b005b610173600480360381019061016e9190610bc2565b610525565b005b61017d610737565b600260009054906101000a900473ffffffffffffffffffffffffffffffffffffffff1673ffffffffffffffffffffffffffffffffffffffff166323b872dd3330856040518463ffffffff1660e01b81526004016101dc93929190610c59565b6020604051808303816000875af11580156101fb573d6000803e3d6000fd5b505050506040513d601f19601f8201168201806040525081019061021f9190610cbc565b61025e576040517f08c379a000000000000000000000000000000000000000000000000000000000815260040161025590610d46565b60405180910390fd5b6000600360009054906101000a900473ffffffffffffffffffffffffffffffffffffffff1673ffffffffffffffffffffffffffffffffffffffff16635f08320c338486424662066eed6040518763ffffffff1660e01b81526004016102c896959493929190610da1565b602060405180830381865afa1580156102e5573d6000803e3d6000fd5b505050506040513d601f19601f820116820180604052508101906103099190610e17565b9050600260009054906101000a900473ffffffffffffffffffffffffffffffffffffffff1673ffffffffffffffffffffffffffffffffffffffff16639dc29fac30856040518363ffffffff1660e01b8152600401610368929190610e44565b600060405180830381600087803b15801561038257600080fd5b505af1158015610396573d6000803e3d6000fd5b505050508173ffffffffffffffffffffffffffffffffffffffff16817f1c4142cebc677646ced713656a34f7378b35750eae979994c975aef17287ac68856040516103e19190610e6d565b60405180910390a3506103f261077d565b5050565b6103fe610786565b610408600061080d565b565b60008060009054906101000a900473ffffffffffffffffffffffffffffffffffffffff16905090565b600260009054906101000a900473ffffffffffffffffffffffffffffffffffffffff1681565b600360009054906101000a900473ffffffffffffffffffffffffffffffffffffffff1681565b60046020528060005260406000206000915054906101000a900460ff1681565b6104a7610786565b600073ffffffffffffffffffffffffffffffffffffffff168173ffffffffffffffffffffffffffffffffffffffff16036105195760006040517f1e4fbdf700000000000000000000000000000000000000000000000000000000815260040161051091906109c6565b60405180910390fd5b6105228161080d565b50565b61052d610737565b600360009054906101000a900473ffffffffffffffffffffffffffffffffffffffff1673ffffffffffffffffffffffffffffffffffffffff16631d0e2d393384846040518463ffffffff1660e01b815260040161058c93929190610f03565b602060405180830381865afa1580156105a9573d6000803e3d6000fd5b505050506040513d601f19601f820116820180604052508101906105cd9190610cbc565b61060c576040517f08c379a000000000000000000000000000000000000000000000000000000000815260040161060390610f81565b60405180910390fd5b6004600086815260200190815260200160002060009054906101000a900460ff161561066d576040517f08c379a000000000000000000000000000000000000000000000000000000000815260040161066490610fed565b60405180910390fd5b60016004600087815260200190815260200160002060006101000a81548160ff021916908315150217905550600260009054906101000a900473ffffffffffffffffffffffffffffffffffffffff1673ffffffffffffffffffffffffffffffffffffffff166340c10f1985856040518363ffffffff1660e01b81526004016106f6929190610e44565b600060405180830381600087803b15801561071057600080fd5b505af1158015610724573d6000803e3d6000fd5b5050505061073061077d565b5050505050565b600260015403610773576040517f3ee5aeb500000000000000000000000000000000000000000000000000000000815260040160405180910390fd5b6002600181905550565b60018081905550565b61078e6108d1565b73ffffffffffffffffffffffffffffffffffffffff166107ac61040a565b73ffffffffffffffffffffffffffffffffffffffff161461080b576107cf6108d1565b6040517f118cdaa700000000000000000000000000000000000000000000000000000000815260040161080291906109c6565b60405180910390fd5b565b60008060009054906101000a900473ffffffffffffffffffffffffffffffffffffffff169050816000806101000a81548173ffffffffffffffffffffffffffffffffffffffff021916908373ffffffffffffffffffffffffffffffffffffffff1602179055508173ffffffffffffffffffffffffffffffffffffffff168173ffffffffffffffffffffffffffffffffffffffff167f8be0079c531659141344cd1fd0a4f28419497f9722a3daafe3b4186f6b6457e060405160405180910390a35050565b600033905090565b600080fd5b600080fd5b6000819050919050565b6108f6816108e3565b811461090157600080fd5b50565b600081359050610913816108ed565b92915050565b600073ffffffffffffffffffffffffffffffffffffffff82169050919050565b600061094482610919565b9050919050565b61095481610939565b811461095f57600080fd5b50565b6000813590506109718161094b565b92915050565b6000806040838503121561098e5761098d6108d9565b5b600061099c85828601610904565b92505060206109ad85828601610962565b9150509250929050565b6109c081610939565b82525050565b60006020820190506109db60008301846109b7565b92915050565b6000819050919050565b6000610a06610a016109fc84610919565b6109e1565b610919565b9050919050565b6000610a18826109eb565b9050919050565b6000610a2a82610a0d565b9050919050565b610a3a81610a1f565b82525050565b6000602082019050610a556000830184610a31565b92915050565b6000610a6682610a0d565b9050919050565b610a7681610a5b565b82525050565b6000602082019050610a916000830184610a6d565b92915050565b6000819050919050565b610aaa81610a97565b8114610ab557600080fd5b50565b600081359050610ac781610aa1565b92915050565b600060208284031215610ae357610ae26108d9565b5b6000610af184828501610ab8565b91505092915050565b60008115159050919050565b610b0f81610afa565b82525050565b6000602082019050610b2a6000830184610b06565b92915050565b600060208284031215610b4657610b456108d9565b5b6000610b5484828501610962565b91505092915050565b600080fd5b600080fd5b600080fd5b60008083601f840112610b8257610b81610b5d565b5b8235905067ffffffffffffffff811115610b9f57610b9e610b62565b5b602083019150836020820283011115610bbb57610bba610b67565b5b9250929050565b600080600080600060808688031215610bde57610bdd6108d9565b5b6000610bec88828901610ab8565b9550506020610bfd88828901610962565b9450506040610c0e88828901610904565b935050606086013567ffffffffffffffff811115610c2f57610c2e6108de565b5b610c3b88828901610b6c565b92509250509295509295909350565b610c53816108e3565b82525050565b6000606082019050610c6e60008301866109b7565b610c7b60208301856109b7565b610c886040830184610c4a565b949350505050565b610c9981610afa565b8114610ca457600080fd5b50565b600081519050610cb681610c90565b92915050565b600060208284031215610cd257610cd16108d9565b5b6000610ce084828501610ca7565b91505092915050565b600082825260208201905092915050565b7f5472616e73666572206661696c65640000000000000000000000000000000000600082015250565b6000610d30600f83610ce9565b9150610d3b82610cfa565b602082019050919050565b60006020820190508181036000830152610d5f81610d23565b9050919050565b6000819050919050565b6000610d8b610d86610d8184610d66565b6109e1565b6108e3565b9050919050565b610d9b81610d70565b82525050565b600060c082019050610db660008301896109b7565b610dc360208301886109b7565b610dd06040830187610c4a565b610ddd6060830186610c4a565b610dea6080830185610c4a565b610df760a0830184610d92565b979650505050505050565b600081519050610e1181610aa1565b92915050565b600060208284031215610e2d57610e2c6108d9565b5b6000610e3b84828501610e02565b91505092915050565b6000604082019050610e5960008301856109b7565b610e666020830184610c4a565b9392505050565b6000602082019050610e826000830184610c4a565b92915050565b600082825260208201905092915050565b600080fd5b82818337505050565b6000610eb38385610e88565b93507f07ffffffffffffffffffffffffffffffffffffffffffffffffffffffffffffff831115610ee657610ee5610e99565b5b602083029250610ef7838584610e9e565b82840190509392505050565b6000604082019050610f1860008301866109b7565b8181036020830152610f2b818486610ea7565b9050949350505050565b7f496e76616c69642072656c617965720000000000000000000000000000000000600082015250565b6000610f6b600f83610ce9565b9150610f7682610f35565b602082019050919050565b60006020820190508181036000830152610f9a81610f5e565b9050919050565b7f5265717565737420616c72656164792070726f63657373656400000000000000600082015250565b6000610fd7601983610ce9565b9150610fe282610fa1565b602082019050919050565b6000602082019050818103600083015261100681610fca565b905091905056fea264697066735822122001dc8d7d76507d542dadb83063564d2ed7a04f4d32fd48f7a21291b4357966b664736f6c63430008140033",
  "linkReferences": {},
  "deployedLinkReferences": {}
}