{
  "_format": "hh-sol-artifact-1",
  "contractName": "BridgeSepoliaNFTV2",
  "sourceName": "contracts/BridgeSepoliaNFTV2.sol",
  "abi": [
    {
      "inputs": [
        {
          "internalType": "address",
          "name": "_wrappedNFT",
          "type": "address"
        },
        {
          "internalType": "address",
          "name": "_relayerManager",
          "type": "address"
        },
        {
          "internalType": "address",
          "name": "admin",
          "type": "address"
        }
      ],
      "stateMutability": "nonpayable",
      "type": "constructor"
    },
    {
      "inputs": [],
      "name": "AccessControlBadConfirmation",
      "type": "error"
    },
    {
      "inputs": [
        {
          "internalType": "address",
          "name": "account",
          "type": "address"
        },
        {
          "internalType": "bytes32",
          "name": "neededRole",
          "type": "bytes32"
        }
      ],
      "name": "AccessControlUnauthorizedAccount",
      "type": "error"
    },
    {
      "inputs": [],
      "name": "EnforcedPause",
      "type": "error"
    },
    {
      "inputs": [],
      "name": "ExpectedPause",
      "type": "error"
    },
    {
      "inputs": [],
      "name": "ReentrancyGuardReentrantCall",
      "type": "error"
    },
    {
      "anonymous": false,
      "inputs": [
        {
          "indexed": false,
          "internalType": "address",
          "name": "account",
          "type": "address"
        }
      ],
      "name": "Paused",
      "type": "event"
    },
    {
      "anonymous": false,
      "inputs": [
        {
          "indexed": true,
          "internalType": "bytes32",
          "name": "requestId",
          "type": "bytes32"
        },
        {
          "indexed": true,
          "internalType": "address",
          "name": "recipient",
          "type": "address"
        },
        {
          "indexed": false,
          "internalType": "uint256",
          "name": "tokenId",
          "type": "uint256"
        }
      ],
      "name": "ReleaseRequested",
      "type": "event"
    },
    {
      "anonymous": false,
      "inputs": [
        {
          "indexed": true,
          "internalType": "bytes32",
          "name": "role",
          "type": "bytes32"
        },
        {
          "indexed": true,
          "internalType": "bytes32",
          "name": "previousAdminRole",
          "type": "bytes32"
        },
        {
          "indexed": true,
          "internalType": "bytes32",
          "name": "newAdminRole",
          "type": "bytes32"
        }
      ],
      "name": "RoleAdminChanged",
      "type": "event"
    },
    {
      "anonymous": false,
      "inputs": [
        {
          "indexed": true,
          "internalType": "bytes32",
          "name": "role",
          "type": "bytes32"
        },
        {
          "indexed": true,
          "internalType": "address",
          "name": "account",
          "type": "address"
        },
        {
          "indexed": true,
          "internalType": "address",
          "name": "sender",
          "type": "address"
        }
      ],
      "name": "RoleGranted",
      "type": "event"
    },
    {
      "anonymous": false,
      "inputs": [
        {
          "indexed": true,
          "internalType": "bytes32",
          "name": "role",
          "type": "bytes32"
        },
        {
          "indexed": true,
          "internalType": "address",
          "name": "account",
          "type": "address"
        },
        {
          "indexed": true,
          "internalType": "address",
          "name": "sender",
          "type": "address"
        }
      ],
      "name": "RoleRevoked",
      "type": "event"
    },
    {
      "anonymous": false,
      "inputs": [
        {
          "indexed": true,
          "internalType": "bytes32",
          "name": "requestId",
          "type": "bytes32"
        },
        {
          "indexed": true,
          "internalType": "address",
          "name": "executor",
          "type": "address"
        },
        {
          "indexed": false,
          "internalType": "bool",
          "name": "success",
          "type": "bool"
        }
      ],
      "name": "TransferProcessed",
      "type": "event"
    },
    {
      "anonymous": false,
      "inputs": [
        {
          "indexed": false,
          "internalType": "address",
          "name": "account",
          "type": "address"
        }
      ],
      "name": "Unpaused",
      "type": "event"
    },
    {
      "inputs": [],
      "name": "ADMIN_ROLE",
      "outputs": [
        {
          "internalType": "bytes32",
          "name": "",
          "type": "bytes32"
        }
      ],
      "stateMutability": "view",
      "type": "function"
    },
    {
      "inputs": [],
      "name": "DEFAULT_ADMIN_ROLE",
      "outputs": [
        {
          "internalType": "bytes32",
          "name": "",
          "type": "bytes32"
        }
      ],
      "stateMutability": "view",
      "type": "function"
    },
    {
      "inputs": [],
      "name": "OPERATOR_ROLE",
      "outputs": [
        {
          "internalType": "bytes32",
          "name": "",
          "type": "bytes32"
        }
      ],
      "stateMutability": "view",
      "type": "function"
    },
    {
      "inputs": [],
      "name": "PAUSER_ROLE",
      "outputs": [
        {
          "internalType": "bytes32",
          "name": "",
          "type": "bytes32"
        }
      ],
      "stateMutability": "view",
      "type": "function"
    },
    {
      "inputs": [
        {
          "internalType": "uint256",
          "name": "",
          "type": "uint256"
        }
      ],
      "name": "bridgedTokens",
      "outputs": [
        {
          "internalType": "bool",
          "name": "",
          "type": "bool"
        }
      ],
      "stateMutability": "view",
      "type": "function"
    },
    {
      "inputs": [
        {
          "internalType": "uint256",
          "name": "tokenId",
          "type": "uint256"
        },
        {
          "internalType": "address",
          "name": "recipient",
          "type": "address"
        }
      ],
      "name": "burnWithRelay",
      "outputs": [],
      "stateMutability": "nonpayable",
      "type": "function"
    },
    {
      "inputs": [
        {
          "internalType": "uint256",
          "name": "tokenId",
          "type": "uint256"
        }
      ],
      "name": "emergencyBurn",
      "outputs": [],
      "stateMutability": "nonpayable",
      "type": "function"
    },
    {
      "inputs": [
        {
          "internalType": "address",
          "name": "to",
          "type": "address"
        },
        {
          "internalType": "uint256",
          "name": "tokenId",
          "type": "uint256"
        }
      ],
      "name": "emergencyMint",
      "outputs": [],
      "stateMutability": "nonpayable",
      "type": "function"
    },
    {
      "inputs": [
        {
          "internalType": "bytes32",
          "name": "role",
          "type": "bytes32"
        }
      ],
      "name": "getRoleAdmin",
      "outputs": [
        {
          "internalType": "bytes32",
          "name": "",
          "type": "bytes32"
        }
      ],
      "stateMutability": "view",
      "type": "function"
    },
    {
      "inputs": [
        {
          "internalType": "bytes32",
          "name": "role",
          "type": "bytes32"
        },
        {
          "internalType": "address",
          "name": "account",
          "type": "address"
        }
      ],
      "name": "grantRole",
      "outputs": [],
      "stateMutability": "nonpayable",
      "type": "function"
    },
    {
      "inputs": [
        {
          "internalType": "bytes32",
          "name": "role",
          "type": "bytes32"
        },
        {
          "internalType": "address",
          "name": "account",
          "type": "address"
        }
      ],
      "name": "hasRole",
      "outputs": [
        {
          "internalType": "bool",
          "name": "",
          "type": "bool"
        }
      ],
      "stateMutability": "view",
      "type": "function"
    },
    {
      "inputs": [],
      "name": "pause",
      "outputs": [],
      "stateMutability": "nonpayable",
      "type": "function"
    },
    {
      "inputs": [],
      "name": "paused",
      "outputs": [
        {
          "internalType": "bool",
          "name": "",
          "type": "bool"
        }
      ],
      "stateMutability": "view",
      "type": "function"
    },
    {
      "inputs": [
        {
          "internalType": "bytes32",
          "name": "",
          "type": "bytes32"
        }
      ],
      "name": "processedRequests",
      "outputs": [
        {
          "internalType": "bool",
          "name": "",
          "type": "bool"
        }
      ],
      "stateMutability": "view",
      "type": "function"
    },
    {
      "inputs": [],
      "name": "relayerManager",
      "outputs": [
        {
          "internalType": "contract INFTRelayerManager",
          "name": "",
          "type": "address"
        }
      ],
      "stateMutability": "view",
      "type": "function"
    },
    {
      "inputs": [
        {
          "internalType": "bytes32",
          "name": "requestId",
          "type": "bytes32"
        },
        {
          "internalType": "address",
          "name": "recipient",
          "type": "address"
        },
        {
          "internalType": "uint256",
          "name": "tokenId",
          "type": "uint256"
        },
        {
          "internalType": "bytes32[]",
          "name": "relayerProof",
          "type": "bytes32[]"
        }
      ],
      "name": "release",
      "outputs": [],
      "stateMutability": "nonpayable",
      "type": "function"
    },
    {
      "inputs": [
        {
          "internalType": "bytes32",
          "name": "role",
          "type": "bytes32"
        },
        {
          "internalType": "address",
          "name": "callerConfirmation",
          "type": "address"
        }
      ],
      "name": "renounceRole",
      "outputs": [],
      "stateMutability": "nonpayable",
      "type": "function"
    },
    {
      "inputs": [
        {
          "internalType": "bytes32",
          "name": "role",
          "type": "bytes32"
        },
        {
          "internalType": "address",
          "name": "account",
          "type": "address"
        }
      ],
      "name": "revokeRole",
      "outputs": [],
      "stateMutability": "nonpayable",
      "type": "function"
    },
    {
      "inputs": [
        {
          "internalType": "bytes4",
          "name": "interfaceId",
          "type": "bytes4"
        }
      ],
      "name": "supportsInterface",
      "outputs": [
        {
          "internalType": "bool",
          "name": "",
          "type": "bool"
        }
      ],
      "stateMutability": "view",
      "type": "function"
    },
    {
      "inputs": [],
      "name": "unpause",
      "outputs": [],
      "stateMutability": "nonpayable",
      "type": "function"
    },
    {
      "inputs": [],
      "name": "wrappedNFT",
      "outputs": [
        {
          "internalType": "contract ISepoliaNFT",
          "name": "",
          "type": "address"
        }
      ],
      "stateMutability": "view",
      "type": "function"
    }
  ],
  "bytecode": "0x60806040523480156200001157600080fd5b506040516200241c3803806200241c833981810160405281019062000037919062000372565b600180819055506000600260006101000a81548160ff02191690831515021790555082600260016101000a81548173ffffffffffffffffffffffffffffffffffffffff021916908373ffffffffffffffffffffffffffffffffffffffff16021790555081600360006101000a81548173ffffffffffffffffffffffffffffffffffffffff021916908373ffffffffffffffffffffffffffffffffffffffff160217905550620000f06000801b826200019360201b60201c565b50620001237fa49807205ce4d355092ef5a8a18f56e8913cf4a201fbe287825b095693c21775826200019360201b60201c565b50620001567f97667070c54ef182b0f5858b034beac1b6f3089aa2d3188bb1e8929f4fa9b929826200019360201b60201c565b50620001897f65d7a28e3265b37a6474929f336521b332c1681b933f6cb9f3376673440d862a826200019360201b60201c565b50505050620003ce565b6000620001a783836200029660201b60201c565b6200028b57600160008085815260200190815260200160002060000160008473ffffffffffffffffffffffffffffffffffffffff1673ffffffffffffffffffffffffffffffffffffffff16815260200190815260200160002060006101000a81548160ff021916908315150217905550620002276200030060201b60201c565b73ffffffffffffffffffffffffffffffffffffffff168273ffffffffffffffffffffffffffffffffffffffff16847f2f8788117e7eff1d82e926ec794901d17c78024a50270940304540a733656f0d60405160405180910390a46001905062000290565b600090505b92915050565b600080600084815260200190815260200160002060000160008373ffffffffffffffffffffffffffffffffffffffff1673ffffffffffffffffffffffffffffffffffffffff16815260200190815260200160002060009054906101000a900460ff16905092915050565b600033905090565b600080fd5b600073ffffffffffffffffffffffffffffffffffffffff82169050919050565b60006200033a826200030d565b9050919050565b6200034c816200032d565b81146200035857600080fd5b50565b6000815190506200036c8162000341565b92915050565b6000806000606084860312156200038e576200038d62000308565b5b60006200039e868287016200035b565b9350506020620003b1868287016200035b565b9250506040620003c4868287016200035b565b9150509250925092565b61203e80620003de6000396000f3fe608060405234801561001057600080fd5b50600436106101375760003560e01c80638456cb59116100b8578063ce0fa5a91161007c578063ce0fa5a914610316578063d547741f14610346578063dfff856814610362578063e63ab1e91461037e578063f5b541a61461039c578063fb325fa7146103ba57610137565b80638456cb591461027057806391d148541461027a578063a217fddf146102aa578063c409b8f9146102c8578063c71d36b3146102f857610137565b8063436e66aa116100ff578063436e66aa146101de57806343785dc9146101fc57806343c6e064146102185780635c975abb1461023457806375b238fc1461025257610137565b806301ffc9a71461013c578063248a9ca31461016c5780632f2ff15d1461019c57806336568abe146101b85780633f4ba83a146101d4575b600080fd5b61015660048036038101906101519190611623565b6103d6565b604051610163919061166b565b60405180910390f35b610186600480360381019061018191906116bc565b610450565b60405161019391906116f8565b60405180910390f35b6101b660048036038101906101b19190611771565b61046f565b005b6101d260048036038101906101cd9190611771565b610491565b005b6101dc61050c565b005b6101e6610541565b6040516101f39190611810565b60405180910390f35b61021660048036038101906102119190611861565b610567565b005b610232600480360381019061022d91906118a1565b6106c0565b005b61023c610b73565b604051610249919061166b565b60405180910390f35b61025a610b8a565b60405161026791906116f8565b60405180910390f35b610278610bae565b005b610294600480360381019061028f9190611771565b610be3565b6040516102a1919061166b565b60405180910390f35b6102b2610c4d565b6040516102bf91906116f8565b60405180910390f35b6102e260048036038101906102dd91906118e1565b610c54565b6040516102ef919061166b565b60405180910390f35b610300610c74565b60405161030d919061192f565b60405180910390f35b610330600480360381019061032b91906116bc565b610c9a565b60405161033d919061166b565b60405180910390f35b610360600480360381019061035b9190611771565b610cba565b005b61037c600480360381019061037791906118e1565b610cdc565b005b610386610dc3565b60405161039391906116f8565b60405180910390f35b6103a4610de7565b6040516103b191906116f8565b60405180910390f35b6103d460048036038101906103cf91906119af565b610e0b565b005b60007f7965db0b000000000000000000000000000000000000000000000000000000007bffffffffffffffffffffffffffffffffffffffffffffffffffffffff1916827bffffffffffffffffffffffffffffffffffffffffffffffffffffffff19161480610449575061044882611171565b5b9050919050565b6000806000838152602001908152602001600020600101549050919050565b61047882610450565b610481816111db565b61048b83836111ef565b50505050565b6104996112e0565b73ffffffffffffffffffffffffffffffffffffffff168173ffffffffffffffffffffffffffffffffffffffff16146104fd576040517f6697b23200000000000000000000000000000000000000000000000000000000815260040160405180910390fd5b61050782826112e8565b505050565b7f65d7a28e3265b37a6474929f336521b332c1681b933f6cb9f3376673440d862a610536816111db565b61053e6113da565b50565b600260019054906101000a900473ffffffffffffffffffffffffffffffffffffffff1681565b7fa49807205ce4d355092ef5a8a18f56e8913cf4a201fbe287825b095693c21775610591816111db565b600073ffffffffffffffffffffffffffffffffffffffff168373ffffffffffffffffffffffffffffffffffffffff1603610600576040517f08c379a00000000000000000000000000000000000000000000000000000000081526004016105f790611a94565b60405180910390fd5b600260019054906101000a900473ffffffffffffffffffffffffffffffffffffffff1673ffffffffffffffffffffffffffffffffffffffff166340c10f1984846040518363ffffffff1660e01b815260040161065d929190611ad2565b600060405180830381600087803b15801561067757600080fd5b505af115801561068b573d6000803e3d6000fd5b5050505060016005600084815260200190815260200160002060006101000a81548160ff021916908315150217905550505050565b6106c861143d565b6106d0611483565b600073ffffffffffffffffffffffffffffffffffffffff168173ffffffffffffffffffffffffffffffffffffffff160361073f576040517f08c379a000000000000000000000000000000000000000000000000000000000815260040161073690611a94565b60405180910390fd5b3373ffffffffffffffffffffffffffffffffffffffff16600260019054906101000a900473ffffffffffffffffffffffffffffffffffffffff1673ffffffffffffffffffffffffffffffffffffffff16636352211e846040518263ffffffff1660e01b81526004016107b19190611afb565b602060405180830381865afa1580156107ce573d6000803e3d6000fd5b505050506040513d601f19601f820116820180604052508101906107f29190611b2b565b73ffffffffffffffffffffffffffffffffffffffff1614610848576040517f08c379a000000000000000000000000000000000000000000000000000000000815260040161083f90611ba4565b60405180910390fd5b3073ffffffffffffffffffffffffffffffffffffffff16600260019054906101000a900473ffffffffffffffffffffffffffffffffffffffff1673ffffffffffffffffffffffffffffffffffffffff1663081812fc846040518263ffffffff1660e01b81526004016108ba9190611afb565b602060405180830381865afa1580156108d7573d6000803e3d6000fd5b505050506040513d601f19601f820116820180604052508101906108fb9190611b2b565b73ffffffffffffffffffffffffffffffffffffffff1614610951576040517f08c379a000000000000000000000000000000000000000000000000000000000815260040161094890611c10565b60405180910390fd5b6005600083815260200190815260200160002060009054906101000a900460ff166109b1576040517f08c379a00000000000000000000000000000000000000000000000000000000081526004016109a890611c7c565b60405180910390fd5b6000600360009054906101000a900473ffffffffffffffffffffffffffffffffffffffff1673ffffffffffffffffffffffffffffffffffffffff16635f08320c338486424662066eed6040518763ffffffff1660e01b8152600401610a1b96959493929190611cd7565b602060405180830381865afa158015610a38573d6000803e3d6000fd5b505050506040513d601f19601f82011682018060405250810190610a5c9190611d4d565b905060006005600085815260200190815260200160002060006101000a81548160ff021916908315150217905550600260019054906101000a900473ffffffffffffffffffffffffffffffffffffffff1673ffffffffffffffffffffffffffffffffffffffff166342966c68846040518263ffffffff1660e01b8152600401610ae59190611afb565b600060405180830381600087803b158015610aff57600080fd5b505af1158015610b13573d6000803e3d6000fd5b505050508173ffffffffffffffffffffffffffffffffffffffff16817f1c4142cebc677646ced713656a34f7378b35750eae979994c975aef17287ac6885604051610b5e9190611afb565b60405180910390a350610b6f6114c4565b5050565b6000600260009054906101000a900460ff16905090565b7fa49807205ce4d355092ef5a8a18f56e8913cf4a201fbe287825b095693c2177581565b7f65d7a28e3265b37a6474929f336521b332c1681b933f6cb9f3376673440d862a610bd8816111db565b610be06114cd565b50565b600080600084815260200190815260200160002060000160008373ffffffffffffffffffffffffffffffffffffffff1673ffffffffffffffffffffffffffffffffffffffff16815260200190815260200160002060009054906101000a900460ff16905092915050565b6000801b81565b60056020528060005260406000206000915054906101000a900460ff1681565b600360009054906101000a900473ffffffffffffffffffffffffffffffffffffffff1681565b60046020528060005260406000206000915054906101000a900460ff1681565b610cc382610450565b610ccc816111db565b610cd683836112e8565b50505050565b7fa49807205ce4d355092ef5a8a18f56e8913cf4a201fbe287825b095693c21775610d06816111db565b600260019054906101000a900473ffffffffffffffffffffffffffffffffffffffff1673ffffffffffffffffffffffffffffffffffffffff166342966c68836040518263ffffffff1660e01b8152600401610d619190611afb565b600060405180830381600087803b158015610d7b57600080fd5b505af1158015610d8f573d6000803e3d6000fd5b5050505060006005600084815260200190815260200160002060006101000a81548160ff0219169083151502179055505050565b7f65d7a28e3265b37a6474929f336521b332c1681b933f6cb9f3376673440d862a81565b7f97667070c54ef182b0f5858b034beac1b6f3089aa2d3188bb1e8929f4fa9b92981565b610e1361143d565b610e1b611483565b600360009054906101000a900473ffffffffffffffffffffffffffffffffffffffff1673ffffffffffffffffffffffffffffffffffffffff16631d0e2d393384846040518463ffffffff1660e01b8152600401610e7a93929190611df5565b602060405180830381865afa158015610e97573d6000803e3d6000fd5b505050506040513d601f19601f82011682018060405250810190610ebb9190611e53565b610efa576040517f08c379a0000000000000000000000000000000000000000000000000000000008152600401610ef190611ecc565b60405180910390fd5b6004600086815260200190815260200160002060009054906101000a900460ff1615610f5b576040517f08c379a0000000000000000000000000000000000000000000000000000000008152600401610f5290611f38565b60405180910390fd5b600073ffffffffffffffffffffffffffffffffffffffff168473ffffffffffffffffffffffffffffffffffffffff1603610fca576040517f08c379a0000000000000000000000000000000000000000000000000000000008152600401610fc190611a94565b60405180910390fd5b6005600084815260200190815260200160002060009054906101000a900460ff161561102b576040517f08c379a000000000000000000000000000000000000000000000000000000000815260040161102290611fa4565b60405180910390fd5b60016004600087815260200190815260200160002060006101000a81548160ff02191690831515021790555060016005600085815260200190815260200160002060006101000a81548160ff021916908315150217905550600260019054906101000a900473ffffffffffffffffffffffffffffffffffffffff1673ffffffffffffffffffffffffffffffffffffffff166340c10f1985856040518363ffffffff1660e01b81526004016110e0929190611ad2565b600060405180830381600087803b1580156110fa57600080fd5b505af115801561110e573d6000803e3d6000fd5b505050503373ffffffffffffffffffffffffffffffffffffffff16857fda9d29c0150c0268dd4e85262a981fd351a812a9f7058ac6606c0c18661be7ab600160405161115a919061166b565b60405180910390a361116a6114c4565b5050505050565b60007f01ffc9a7000000000000000000000000000000000000000000000000000000007bffffffffffffffffffffffffffffffffffffffffffffffffffffffff1916827bffffffffffffffffffffffffffffffffffffffffffffffffffffffff1916149050919050565b6111ec816111e76112e0565b611530565b50565b60006111fb8383610be3565b6112d557600160008085815260200190815260200160002060000160008473ffffffffffffffffffffffffffffffffffffffff1673ffffffffffffffffffffffffffffffffffffffff16815260200190815260200160002060006101000a81548160ff0219169083151502179055506112726112e0565b73ffffffffffffffffffffffffffffffffffffffff168273ffffffffffffffffffffffffffffffffffffffff16847f2f8788117e7eff1d82e926ec794901d17c78024a50270940304540a733656f0d60405160405180910390a4600190506112da565b600090505b92915050565b600033905090565b60006112f48383610be3565b156113cf57600080600085815260200190815260200160002060000160008473ffffffffffffffffffffffffffffffffffffffff1673ffffffffffffffffffffffffffffffffffffffff16815260200190815260200160002060006101000a81548160ff02191690831515021790555061136c6112e0565b73ffffffffffffffffffffffffffffffffffffffff168273ffffffffffffffffffffffffffffffffffffffff16847ff6391f5c32d9c69d2a47ea670b442974b53935d1edc7fd64eb21e047a839171b60405160405180910390a4600190506113d4565b600090505b92915050565b6113e2611581565b6000600260006101000a81548160ff0219169083151502179055507f5db9ee0a495bf2e6ff9c91a7834c1ba4fdd244a5e8aa4e537bd38aeae4b073aa6114266112e0565b6040516114339190611fc4565b60405180910390a1565b600260015403611479576040517f3ee5aeb500000000000000000000000000000000000000000000000000000000815260040160405180910390fd5b6002600181905550565b61148b610b73565b156114c2576040517fd93c066500000000000000000000000000000000000000000000000000000000815260040160405180910390fd5b565b60018081905550565b6114d5611483565b6001600260006101000a81548160ff0219169083151502179055507f62e78cea01bee320cd4e420270b5ea74000d11b0c9f74754ebdbfc544b05a2586115196112e0565b6040516115269190611fc4565b60405180910390a1565b61153a8282610be3565b61157d5780826040517fe2517d3f000000000000000000000000000000000000000000000000000000008152600401611574929190611fdf565b60405180910390fd5b5050565b611589610b73565b6115bf576040517f8dfc202b00000000000000000000000000000000000000000000000000000000815260040160405180910390fd5b565b600080fd5b600080fd5b60007fffffffff0000000000000000000000000000000000000000000000000000000082169050919050565b611600816115cb565b811461160b57600080fd5b50565b60008135905061161d816115f7565b92915050565b600060208284031215611639576116386115c1565b5b60006116478482850161160e565b91505092915050565b60008115159050919050565b61166581611650565b82525050565b6000602082019050611680600083018461165c565b92915050565b6000819050919050565b61169981611686565b81146116a457600080fd5b50565b6000813590506116b681611690565b92915050565b6000602082840312156116d2576116d16115c1565b5b60006116e0848285016116a7565b91505092915050565b6116f281611686565b82525050565b600060208201905061170d60008301846116e9565b92915050565b600073ffffffffffffffffffffffffffffffffffffffff82169050919050565b600061173e82611713565b9050919050565b61174e81611733565b811461175957600080fd5b50565b60008135905061176b81611745565b92915050565b60008060408385031215611788576117876115c1565b5b6000611796858286016116a7565b92505060206117a78582860161175c565b9150509250929050565b6000819050919050565b60006117d66117d16117cc84611713565b6117b1565b611713565b9050919050565b60006117e8826117bb565b9050919050565b60006117fa826117dd565b9050919050565b61180a816117ef565b82525050565b60006020820190506118256000830184611801565b92915050565b6000819050919050565b61183e8161182b565b811461184957600080fd5b50565b60008135905061185b81611835565b92915050565b60008060408385031215611878576118776115c1565b5b60006118868582860161175c565b92505060206118978582860161184c565b9150509250929050565b600080604083850312156118b8576118b76115c1565b5b60006118c68582860161184c565b92505060206118d78582860161175c565b9150509250929050565b6000602082840312156118f7576118f66115c1565b5b60006119058482850161184c565b91505092915050565b6000611919826117dd565b9050919050565b6119298161190e565b82525050565b60006020820190506119446000830184611920565b92915050565b600080fd5b600080fd5b600080fd5b60008083601f84011261196f5761196e61194a565b5b8235905067ffffffffffffffff81111561198c5761198b61194f565b5b6020830191508360208202830111156119a8576119a7611954565b5b9250929050565b6000806000806000608086880312156119cb576119ca6115c1565b5b60006119d9888289016116a7565b95505060206119ea8882890161175c565b94505060406119fb8882890161184c565b935050606086013567ffffffffffffffff811115611a1c57611a1b6115c6565b5b611a2888828901611959565b92509250509295509295909350565b600082825260208201905092915050565b7f496e76616c696420726563697069656e74000000000000000000000000000000600082015250565b6000611a7e601183611a37565b9150611a8982611a48565b602082019050919050565b60006020820190508181036000830152611aad81611a71565b9050919050565b611abd81611733565b82525050565b611acc8161182b565b82525050565b6000604082019050611ae76000830185611ab4565b611af46020830184611ac3565b9392505050565b6000602082019050611b106000830184611ac3565b92915050565b600081519050611b2581611745565b92915050565b600060208284031215611b4157611b406115c1565b5b6000611b4f84828501611b16565b91505092915050565b7f4e6f7420746f6b656e206f776e65720000000000000000000000000000000000600082015250565b6000611b8e600f83611a37565b9150611b9982611b58565b602082019050919050565b60006020820190508181036000830152611bbd81611b81565b9050919050565b7f427269646765206e6f7420617070726f76656400000000000000000000000000600082015250565b6000611bfa601383611a37565b9150611c0582611bc4565b602082019050919050565b60006020820190508181036000830152611c2981611bed565b9050919050565b7f546f6b656e206e6f742062726964676564000000000000000000000000000000600082015250565b6000611c66601183611a37565b9150611c7182611c30565b602082019050919050565b60006020820190508181036000830152611c9581611c59565b9050919050565b6000819050919050565b6000611cc1611cbc611cb784611c9c565b6117b1565b61182b565b9050919050565b611cd181611ca6565b82525050565b600060c082019050611cec6000830189611ab4565b611cf96020830188611ab4565b611d066040830187611ac3565b611d136060830186611ac3565b611d206080830185611ac3565b611d2d60a0830184611cc8565b979650505050505050565b600081519050611d4781611690565b92915050565b600060208284031215611d6357611d626115c1565b5b6000611d7184828501611d38565b91505092915050565b600082825260208201905092915050565b600080fd5b82818337505050565b6000611da58385611d7a565b93507f07ffffffffffffffffffffffffffffffffffffffffffffffffffffffffffffff831115611dd857611dd7611d8b565b5b602083029250611de9838584611d90565b82840190509392505050565b6000604082019050611e0a6000830186611ab4565b8181036020830152611e1d818486611d99565b9050949350505050565b611e3081611650565b8114611e3b57600080fd5b50565b600081519050611e4d81611e27565b92915050565b600060208284031215611e6957611e686115c1565b5b6000611e7784828501611e3e565b91505092915050565b7f496e76616c69642072656c617965720000000000000000000000000000000000600082015250565b6000611eb6600f83611a37565b9150611ec182611e80565b602082019050919050565b60006020820190508181036000830152611ee581611ea9565b9050919050565b7f5265717565737420616c72656164792070726f63657373656400000000000000600082015250565b6000611f22601983611a37565b9150611f2d82611eec565b602082019050919050565b60006020820190508181036000830152611f5181611f15565b9050919050565b7f546f6b656e20616c726561647920627269646765640000000000000000000000600082015250565b6000611f8e601583611a37565b9150611f9982611f58565b602082019050919050565b60006020820190508181036000830152611fbd81611f81565b9050919050565b6000602082019050611fd96000830184611ab4565b92915050565b6000604082019050611ff46000830185611ab4565b61200160208301846116e9565b939250505056fea2646970667358221220550141541d7bef7b459470b3dfc4bfba767434dd0425e2929249ffb06097c35d64736f6c63430008140033",
  "linkReferences": {},
  "deployedLinkReferences": {}
}