{
  "contractName": "Forwarder",
  "abi": [
    {
      "inputs": [],
      "stateMutability": "nonpayable",
      "type": "constructor"
    },
    {
      "inputs": [],
      "name": "ECDSAInvalidSignature",
      "type": "error"
    },
    {
      "inputs": [
        {
          "internalType": "uint256",
          "name": "length",
          "type": "uint256"
        }
      ],
      "name": "ECDSAInvalidSignatureLength",
      "type": "error"
    },
    {
      "inputs": [
        {
          "internalType": "bytes32",
          "name": "s",
          "type": "bytes32"
        }
      ],
      "name": "ECDSAInvalidSignatureS",
      "type": "error"
    },
    {
      "inputs": [
        {
          "internalType": "address",
          "name": "owner",
          "type": "address"
        }
      ],
      "name": "OwnableInvalidOwner",
      "type": "error"
    },
    {
      "inputs": [
        {
          "internalType": "address",
          "name": "account",
          "type": "address"
        }
      ],
      "name": "OwnableUnauthorizedAccount",
      "type": "error"
    },
    {
      "inputs": [],
      "name": "ReentrancyGuardReentrantCall",
      "type": "error"
    },
    {
      "anonymous": false,
      "inputs": [
        {
          "indexed": false,
          "internalType": "string",
          "name": "message",
          "type": "string"
        }
      ],
      "name": "Debug",
      "type": "event"
    },
    {
      "anonymous": false,
      "inputs": [
        {
          "indexed": true,
          "internalType": "address",
          "name": "previousOwner",
          "type": "address"
        },
        {
          "indexed": true,
          "internalType": "address",
          "name": "newOwner",
          "type": "address"
        }
      ],
      "name": "OwnershipTransferred",
      "type": "event"
    },
    {
      "anonymous": false,
      "inputs": [
        {
          "indexed": true,
          "internalType": "address",
          "name": "from",
          "type": "address"
        },
        {
          "indexed": true,
          "internalType": "address",
          "name": "to",
          "type": "address"
        },
        {
          "indexed": false,
          "internalType": "uint256",
          "name": "value",
          "type": "uint256"
        },
        {
          "indexed": false,
          "internalType": "bytes",
          "name": "data",
          "type": "bytes"
        },
        {
          "indexed": false,
          "internalType": "bool",
          "name": "success",
          "type": "bool"
        }
      ],
      "name": "TransactionForwarded",
      "type": "event"
    },
    {
      "inputs": [],
      "name": "owner",
      "outputs": [
        {
          "internalType": "address",
          "name": "",
          "type": "address"
        }
      ],
      "stateMutability": "view",
      "type": "function",
      "constant": true
    },
    {
      "inputs": [],
      "name": "renounceOwnership",
      "outputs": [],
      "stateMutability": "nonpayable",
      "type": "function"
    },
    {
      "inputs": [
        {
          "internalType": "address",
          "name": "newOwner",
          "type": "address"
        }
      ],
      "name": "transferOwnership",
      "outputs": [],
      "stateMutability": "nonpayable",
      "type": "function"
    },
    {
      "stateMutability": "payable",
      "type": "receive",
      "payable": true
    },
    {
      "inputs": [
        {
          "internalType": "address",
          "name": "from",
          "type": "address"
        }
      ],
      "name": "getNonce",
      "outputs": [
        {
          "internalType": "uint256",
          "name": "",
          "type": "uint256"
        }
      ],
      "stateMutability": "view",
      "type": "function",
      "constant": true
    },
    {
      "inputs": [
        {
          "components": [
            {
              "internalType": "address",
              "name": "from",
              "type": "address"
            },
            {
              "internalType": "address",
              "name": "to",
              "type": "address"
            },
            {
              "internalType": "uint256",
              "name": "value",
              "type": "uint256"
            },
            {
              "internalType": "uint256",
              "name": "gas",
              "type": "uint256"
            },
            {
              "internalType": "uint256",
              "name": "nonce",
              "type": "uint256"
            },
            {
              "internalType": "bytes",
              "name": "data",
              "type": "bytes"
            },
            {
              "internalType": "uint256",
              "name": "validUntil",
              "type": "uint256"
            }
          ],
          "internalType": "struct Forwarder.ForwardRequest",
          "name": "req",
          "type": "tuple"
        },
        {
          "internalType": "bytes",
          "name": "signature",
          "type": "bytes"
        }
      ],
      "name": "verify",
      "outputs": [
        {
          "internalType": "bool",
          "name": "",
          "type": "bool"
        }
      ],
      "stateMutability": "pure",
      "type": "function",
      "constant": true
    },
    {
      "inputs": [
        {
          "components": [
            {
              "internalType": "address",
              "name": "from",
              "type": "address"
            },
            {
              "internalType": "address",
              "name": "to",
              "type": "address"
            },
            {
              "internalType": "uint256",
              "name": "value",
              "type": "uint256"
            },
            {
              "internalType": "uint256",
              "name": "gas",
              "type": "uint256"
            },
            {
              "internalType": "uint256",
              "name": "nonce",
              "type": "uint256"
            },
            {
              "internalType": "bytes",
              "name": "data",
              "type": "bytes"
            },
            {
              "internalType": "uint256",
              "name": "validUntil",
              "type": "uint256"
            }
          ],
          "internalType": "struct Forwarder.ForwardRequest",
          "name": "req",
          "type": "tuple"
        },
        {
          "internalType": "bytes",
          "name": "signature",
          "type": "bytes"
        }
      ],
      "name": "execute",
      "outputs": [
        {
          "internalType": "bool",
          "name": "",
          "type": "bool"
        },
        {
          "internalType": "bytes",
          "name": "",
          "type": "bytes"
        }
      ],
      "stateMutability": "payable",
      "type": "function",
      "payable": true
    },
    {
      "inputs": [
        {
          "internalType": "address",
          "name": "token",
          "type": "address"
        },
        {
          "internalType": "address",
          "name": "from",
          "type": "address"
        },
        {
          "internalType": "address",
          "name": "to",
          "type": "address"
        },
        {
          "internalType": "uint256",
          "name": "amount",
          "type": "uint256"
        },
        {
          "internalType": "bytes",
          "name": "signature",
          "type": "bytes"
        }
      ],
      "name": "forwardERC20Transfer",
      "outputs": [
        {
          "internalType": "bool",
          "name": "",
          "type": "bool"
        }
      ],
      "stateMutability": "nonpayable",
      "type": "function"
    },
    {
      "inputs": [
        {
          "internalType": "address",
          "name": "token",
          "type": "address"
        },
        {
          "internalType": "address",
          "name": "from",
          "type": "address"
        },
        {
          "internalType": "address",
          "name": "to",
          "type": "address"
        },
        {
          "internalType": "uint256",
          "name": "tokenId",
          "type": "uint256"
        },
        {
          "internalType": "bytes",
          "name": "signature",
          "type": "bytes"
        }
      ],
      "name": "forwardERC721Transfer",
      "outputs": [
        {
          "internalType": "bool",
          "name": "",
          "type": "bool"
        }
      ],
      "stateMutability": "nonpayable",
      "type": "function"
    },
    {
      "inputs": [
        {
          "internalType": "address",
          "name": "token",
          "type": "address"
        },
        {
          "internalType": "address",
          "name": "from",
          "type": "address"
        },
        {
          "internalType": "address",
          "name": "to",
          "type": "address"
        },
        {
          "internalType": "uint256",
          "name": "amount",
          "type": "uint256"
        },
        {
          "internalType": "uint256",
          "name": "deadline",
          "type": "uint256"
        },
        {
          "internalType": "uint8",
          "name": "v",
          "type": "uint8"
        },
        {
          "internalType": "bytes32",
          "name": "r",
          "type": "bytes32"
        },
        {
          "internalType": "bytes32",
          "name": "s",
          "type": "bytes32"
        }
      ],
      "name": "forwardERC20TransferWithPermit",
      "outputs": [
        {
          "internalType": "bool",
          "name": "",
          "type": "bool"
        }
      ],
      "stateMutability": "nonpayable",
      "type": "function"
    }
  ],
  "bytecode": "0x608060405234801561000f575f80fd5b50338061003557604051631e4fbdf760e01b81525f600482015260240160405180910390fd5b61003e81610048565b5060018055610097565b5f80546001600160a01b038381166001600160a01b0319831681178455604051919092169283917f8be0079c531659141344cd1fd0a4f28419497f9722a3daafe3b4186f6b6457e09190a35050565b6117e7806100a45f395ff3fe608060405260043610610087575f3560e01c80637856940b116100575780637856940b1461013f5780638da5cb5b1461015e57806390c62e0514610184578063e5581481146101a3578063f2fde38b146101c2575f80fd5b8063019fe885146100925780632d0335ab146100c657806344d46c8e14610108578063715018a614610129575f80fd5b3661008e57005b5f80fd5b34801561009d575f80fd5b506100b16100ac36600461126a565b6101e1565b60405190151581526020015b60405180910390f35b3480156100d1575f80fd5b506100fa6100e0366004611346565b6001600160a01b03165f9081526002602052604090205490565b6040519081526020016100bd565b61011b61011636600461126a565b6102d7565b6040516100bd9291906113b3565b348015610134575f80fd5b5061013d6105e6565b005b34801561014a575f80fd5b506100b16101593660046113d5565b6105f9565b348015610169575f80fd5b505f546040516001600160a01b0390911681526020016100bd565b34801561018f575f80fd5b506100b161019e3660046113d5565b61070f565b3480156101ae575f80fd5b506100b16101bd36600461144f565b61080d565b3480156101cd575f80fd5b5061013d6101dc366004611346565b610e57565b5f80845f015185602001518660400151876060015188608001518960a001518a60c0015160405160200161021b97969594939291906114cc565b60408051601f198184030181529082905280516020918201207f19457468657265756d205369676e6564204d6573736167653a0a33320000000091830191909152603c820152605c016040516020818303038152906040528051906020012090505f6102bc8286868080601f0160208091040260200160405190810160405280939291908181526020018383808284375f92019190915250610e9492505050565b86516001600160a01b03918216911614925050509392505050565b5f60606102e2610ebe565b8460c0015142111561032d5760405162461bcd60e51b815260206004820152600f60248201526e14995c5d595cdd08195e1c1a5c9959608a1b60448201526064015b60405180910390fd5b608085015185516001600160a01b03165f90815260026020526040902054146103885760405162461bcd60e51b815260206004820152600d60248201526c496e76616c6964206e6f6e636560981b6044820152606401610324565b3330146103da5761039a8585856101e1565b6103da5760405162461bcd60e51b8152602060048201526011602482015270496e76616c6964207369676e617475726560781b6044820152606401610324565b84516001600160a01b03165f9081526002602052604081208054916103fe83611530565b91905055505f85858560405160200161041993929190611570565b60408051601f1981840301815291815281516020928301205f818152600390935291205490915060ff16156104905760405162461bcd60e51b815260206004820152601860248201527f5265717565737420616c726561647920657865637574656400000000000000006044820152606401610324565b5f818152600360209081526040808320805460ff191660011790559088015160608901518983015160a08b0151935185946001600160a01b03909416936104d6916115e9565b5f60405180830381858888f193505050503d805f8114610511576040519150601f19603f3d011682016040523d82523d5f602084013e610516565b606091505b509150915087602001516001600160a01b0316885f01516001600160a01b03167fb1d0cf95fb035eb4bb0e6865967f56691645c2e18b41546195e1b2125266ab0f8a604001518b60a001518660405161057193929190611604565b60405180910390a3816105cf5780511561058e5780518082602001fd5b60405162461bcd60e51b8152602060048201526016602482015275119bdc9dd85c99081c995c5d595cdd0819985a5b195960521b6044820152606401610324565b9093509150506105de60018055565b935093915050565b6105ee610ee8565b6105f75f610f14565b565b5f610602610ebe565b604080516001600160a01b0388811660248301819052888216604484015260648084018990528451808503909101815260849093018452602080840180516001600160e01b03166323b872dd60e01b179052845160e081018652828152928c16838201525f838601819052620186a060608501529182526002905292832054608082015260a0810182905290919060c081016106a042610e1061162e565b905290505f6106b08287876102d7565b509050806106f85760405162461bcd60e51b8152602060048201526015602482015274115490cdcc8c48199bdc9dd85c990819985a5b1959605a1b6044820152606401610324565b9250505061070560018055565b9695505050505050565b5f610718610ebe565b604080516001600160a01b0388811660248301819052888216604484015260648084018990528451808503909101815260849093018452602080840180516001600160e01b03166323b872dd60e01b179052845160e081018652828152928c16838201525f838601819052620186a060608501529182526002905292832054608082015260a0810182905290919060c081016107b642610e1061162e565b905290505f6107c68287876102d7565b509050806106f85760405162461bcd60e51b8152602060048201526014602482015273115490cc8c08199bdc9dd85c990819985a5b195960621b6044820152606401610324565b5f610816610ebe565b6001600160a01b0389166108645760405162461bcd60e51b8152602060048201526015602482015274496e76616c696420746f6b656e206164647265737360581b6044820152606401610324565b6001600160a01b0388166108b15760405162461bcd60e51b8152602060048201526014602482015273496e76616c69642066726f6d206164647265737360601b6044820152606401610324565b6001600160a01b0387166108fc5760405162461bcd60e51b8152602060048201526012602482015271496e76616c696420746f206164647265737360701b6044820152606401610324565b5f861161094b5760405162461bcd60e51b815260206004820152601d60248201527f416d6f756e74206d7573742062652067726561746572207468616e20300000006044820152606401610324565b4285101561098c5760405162461bcd60e51b815260206004820152600e60248201526d14195c9b5a5d08195e1c1a5c995960921b6044820152606401610324565b6040516370a0823160e01b81526001600160a01b0389811660048301525f91908b16906370a0823190602401602060405180830381865afa1580156109d3573d5f803e3d5ffd5b505050506040513d601f19601f820116820180604052508101906109f79190611641565b905086811015610a495760405162461bcd60e51b815260206004820152601a60248201527f496e73756666696369656e7420746f6b656e2062616c616e63650000000000006044820152606401610324565b60405163d505accf60e01b81526001600160a01b038a81166004830152306024830152604482018990526064820188905260ff8716608483015260a4820186905260c482018590528b169063d505accf9060e4015f604051808303815f87803b158015610ab4575f80fd5b505af1925050508015610ac5575060015b610ba057610ad1611658565b806308c379a003610b275750610ae5611671565b80610af05750610b29565b80604051602001610b0191906116fa565b60408051601f198184030181529082905262461bcd60e51b825261032491600401611730565b505b3d808015610b52576040519150601f19603f3d011682016040523d82523d5f602084013e610b57565b606091505b5060405162461bcd60e51b815260206004820152601c60248201527f5065726d6974206661696c65642077697468206e6f20726561736f6e000000006044820152606401610324565b7f7cdb51e9dbbc205231228146c3246e7f914aa6d4a33170e43ecc8e3593481d1a604051610bf39060208082526011908201527014195c9b5a5d081cdd58d8d95cdcd99d5b607a1b604082015260600190565b60405180910390a1604051636eb1769f60e11b81526001600160a01b038a811660048301523060248301525f91908c169063dd62ed3e90604401602060405180830381865afa158015610c48573d5f803e3d5ffd5b505050506040513d601f19601f82011682018060405250810190610c6c9190611641565b905087811015610cca5760405162461bcd60e51b815260206004820152602360248201527f496e73756666696369656e7420616c6c6f77616e6365206166746572207065726044820152621b5a5d60ea1b6064820152608401610324565b6040516323b872dd60e01b81526001600160a01b038b811660048301528a81166024830152604482018a90528c16906323b872dd906064016020604051808303815f875af1925050508015610d3c575060408051601f3d908101601f19168201909252610d3991810190611742565b60015b610dfc57610d48611658565b806308c379a003610d785750610d5c611671565b80610d675750610d7a565b80604051602001610b019190611761565b505b3d808015610da3576040519150601f19603f3d011682016040523d82523d5f602084013e610da8565b606091505b5060405162461bcd60e51b815260206004820152602260248201527f5472616e7366657246726f6d206661696c65642077697468206e6f207265617360448201526137b760f11b6064820152608401610324565b80610e3b5760405162461bcd60e51b815260206004820152600f60248201526e151c985b9cd9995c8819985a5b1959608a1b6044820152606401610324565b60019350505050610e4b60018055565b98975050505050505050565b610e5f610ee8565b6001600160a01b038116610e8857604051631e4fbdf760e01b81525f6004820152602401610324565b610e9181610f14565b50565b5f805f80610ea28686610f63565b925092509250610eb28282610fac565b50909150505b92915050565b600260015403610ee157604051633ee5aeb560e01b815260040160405180910390fd5b6002600155565b5f546001600160a01b031633146105f75760405163118cdaa760e01b8152336004820152602401610324565b5f80546001600160a01b038381166001600160a01b0319831681178455604051919092169283917f8be0079c531659141344cd1fd0a4f28419497f9722a3daafe3b4186f6b6457e09190a35050565b5f805f8351604103610f9a576020840151604085015160608601515f1a610f8c88828585611068565b955095509550505050610fa5565b505081515f91506002905b9250925092565b5f826003811115610fbf57610fbf61179d565b03610fc8575050565b6001826003811115610fdc57610fdc61179d565b03610ffa5760405163f645eedf60e01b815260040160405180910390fd5b600282600381111561100e5761100e61179d565b0361102f5760405163fce698f760e01b815260048101829052602401610324565b60038260038111156110435761104361179d565b03611064576040516335e2f38360e21b815260048101829052602401610324565b5050565b5f80807f7fffffffffffffffffffffffffffffff5d576e7357a4501ddfe92f46681b20a08411156110a157505f91506003905082611126565b604080515f808252602082018084528a905260ff891692820192909252606081018790526080810186905260019060a0016020604051602081039080840390855afa1580156110f2573d5f803e3d5ffd5b5050604051601f1901519150506001600160a01b03811661111d57505f925060019150829050611126565b92505f91508190505b9450945094915050565b634e487b7160e01b5f52604160045260245ffd5b601f8201601f1916810167ffffffffffffffff8111828210171561116a5761116a611130565b6040525050565b60405160e0810167ffffffffffffffff8111828210171561119457611194611130565b60405290565b80356001600160a01b03811681146111b0575f80fd5b919050565b5f82601f8301126111c4575f80fd5b813567ffffffffffffffff8111156111de576111de611130565b6040516111f5601f8301601f191660200182611144565b818152846020838601011115611209575f80fd5b816020850160208301375f918101602001919091529392505050565b5f8083601f840112611235575f80fd5b50813567ffffffffffffffff81111561124c575f80fd5b602083019150836020828501011115611263575f80fd5b9250929050565b5f805f6040848603121561127c575f80fd5b833567ffffffffffffffff80821115611293575f80fd5b9085019060e082880312156112a6575f80fd5b6112ae611171565b6112b78361119a565b81526112c56020840161119a565b602082015260408301356040820152606083013560608201526080830135608082015260a0830135828111156112f9575f80fd5b611305898286016111b5565b60a08301525060c083013560c082015280955050602086013591508082111561132c575f80fd5b5061133986828701611225565b9497909650939450505050565b5f60208284031215611356575f80fd5b61135f8261119a565b9392505050565b5f5b83811015611380578181015183820152602001611368565b50505f910152565b5f815180845261139f816020860160208601611366565b601f01601f19169290920160200192915050565b8215158152604060208201525f6113cd6040830184611388565b949350505050565b5f805f805f8060a087890312156113ea575f80fd5b6113f38761119a565b95506114016020880161119a565b945061140f6040880161119a565b935060608701359250608087013567ffffffffffffffff811115611431575f80fd5b61143d89828a01611225565b979a9699509497509295939492505050565b5f805f805f805f80610100898b031215611467575f80fd5b6114708961119a565b975061147e60208a0161119a565b965061148c60408a0161119a565b9550606089013594506080890135935060a089013560ff811681146114af575f80fd5b979a969950949793969295929450505060c08201359160e0013590565b5f60018060a01b03808a16835280891660208401525086604083015285606083015284608083015260e060a083015261150860e0830185611388565b90508260c083015298975050505050505050565b634e487b7160e01b5f52601160045260245ffd5b5f600182016115415761154161151c565b5060010190565b81835281816020850137505f828201602090810191909152601f909101601f19169091010190565b604081525f60018060a01b038086511660408401528060208701511660608401525060408501516080830152606085015160a0830152608085015160c083015260a085015160e0808401526115c9610120840182611388565b905060c08601516101008401528281036020840152610705818587611548565b5f82516115fa818460208701611366565b9190910192915050565b838152606060208201525f61161c6060830185611388565b90508215156040830152949350505050565b80820180821115610eb857610eb861151c565b5f60208284031215611651575f80fd5b5051919050565b5f60033d111561166e5760045f803e505f5160e01c5b90565b5f60443d101561167e5790565b6040516003193d81016004833e81513d67ffffffffffffffff81602484011181841117156116ae57505050505090565b82850191508151818111156116c65750505050505090565b843d87010160208285010111156116e05750505050505090565b6116ef60208286010187611144565b509095945050505050565b6e02832b936b4ba103330b4b632b21d1608d1b81525f825161172381600f850160208701611366565b91909101600f0192915050565b602081525f61135f6020830184611388565b5f60208284031215611752575f80fd5b8151801515811461135f575f80fd5b7402a3930b739b332b9233937b6903330b4b632b21d1605d1b81525f8251611790816015850160208701611366565b9190910160150192915050565b634e487b7160e01b5f52602160045260245ffdfea2646970667358221220629941d18a420b2a14bbcbd55fe8823f97cf7100ae9230174d820bd1d6c6de8b64736f6c63430008150033",
  "immutableReferences": {},
  "source": "// SPDX-License-Identifier: MIT\r\npragma solidity ^0.8.0;\r\n\r\nimport \"@openzeppelin/contracts/access/Ownable.sol\";\r\nimport \"@openzeppelin/contracts/token/ERC20/IERC20.sol\";\r\nimport \"@openzeppelin/contracts/token/ERC721/IERC721.sol\";\r\nimport \"@openzeppelin/contracts/utils/ReentrancyGuard.sol\";\r\nimport \"@openzeppelin/contracts/utils/cryptography/ECDSA.sol\";\r\nimport \"@openzeppelin/contracts/utils/cryptography/MessageHashUtils.sol\";\r\nimport \"@openzeppelin/contracts/token/ERC20/extensions/IERC20Permit.sol\";\r\n\r\ncontract Forwarder is Ownable, ReentrancyGuard {\r\n    using ECDSA for bytes32;\r\n    using MessageHashUtils for bytes32;\r\n\r\n    struct ForwardRequest {\r\n        address from;\r\n        address to;\r\n        uint256 value;\r\n        uint256 gas;\r\n        uint256 nonce;\r\n        bytes data;\r\n        uint256 validUntil;\r\n    }\r\n\r\n    mapping(address => uint256) private _nonces;\r\n    mapping(bytes32 => bool) private _executed;\r\n\r\n    event TransactionForwarded(\r\n        address indexed from,\r\n        address indexed to,\r\n        uint256 value,\r\n        bytes data,\r\n        bool success\r\n    );\r\n\r\n    constructor() Ownable(msg.sender) {}\r\n\r\n    function getNonce(address from) public view returns (uint256) {\r\n        return _nonces[from];\r\n    }\r\n\r\n    function verify(\r\n        ForwardRequest memory req,\r\n        bytes calldata signature\r\n    ) public pure returns (bool) {\r\n        bytes32 digest = keccak256(\r\n            abi.encodePacked(\r\n                \"\\x19Ethereum Signed Message:\\n32\",\r\n                keccak256(\r\n                    abi.encode(\r\n                        req.from,\r\n                        req.to,\r\n                        req.value,\r\n                        req.gas,\r\n                        req.nonce,\r\n                        req.data,\r\n                        req.validUntil\r\n                    )\r\n                )\r\n            )\r\n        );\r\n        address signer = ECDSA.recover(digest, signature);\r\n        return signer == req.from;\r\n    }\r\n\r\n    function execute(\r\n        ForwardRequest memory req,\r\n        bytes calldata signature\r\n    ) public payable nonReentrant returns (bool, bytes memory) {\r\n        require(block.timestamp <= req.validUntil, \"Request expired\");\r\n        require(_nonces[req.from] == req.nonce, \"Invalid nonce\");\r\n        \r\n        // Skip signature check if called internally via permit flow\r\n        if (msg.sender != address(this)) {\r\n            require(verify(req, signature), \"Invalid signature\");\r\n        }\r\n\r\n        _nonces[req.from]++;\r\n        bytes32 hash = keccak256(abi.encode(req, signature));\r\n        require(!_executed[hash], \"Request already executed\");\r\n        _executed[hash] = true;\r\n\r\n        (bool success, bytes memory returndata) = req.to.call{\r\n            gas: req.gas,\r\n            value: req.value\r\n        }(req.data);\r\n\r\n        emit TransactionForwarded(\r\n            req.from,\r\n            req.to,\r\n            req.value,\r\n            req.data,\r\n            success\r\n        );\r\n\r\n        if (!success) {\r\n            // If the call failed, bubble up the revert reason\r\n            if (returndata.length > 0) {\r\n                assembly {\r\n                    let returndata_size := mload(returndata)\r\n                    revert(add(32, returndata), returndata_size)\r\n                }\r\n            } else {\r\n                revert(\"Forward request failed\");\r\n            }\r\n        }\r\n\r\n        return (success, returndata);\r\n    }\r\n\r\n    function forwardERC20Transfer(\r\n        address token,\r\n        address from,\r\n        address to,\r\n        uint256 amount,\r\n        bytes calldata signature\r\n    ) external nonReentrant returns (bool) {\r\n        bytes memory data = abi.encodeWithSelector(\r\n            IERC20.transferFrom.selector,\r\n            from,\r\n            to,\r\n            amount\r\n        );\r\n\r\n        ForwardRequest memory req = ForwardRequest({\r\n            from: from,\r\n            to: token,\r\n            value: 0,\r\n            gas: 100000,\r\n            nonce: _nonces[from],\r\n            data: data,\r\n            validUntil: block.timestamp + 3600\r\n        });\r\n\r\n        (bool success, ) = execute(req, signature);\r\n        require(success, \"ERC20 forward failed\");\r\n        return success;\r\n    }\r\n\r\n    function forwardERC721Transfer(\r\n        address token,\r\n        address from,\r\n        address to,\r\n        uint256 tokenId,\r\n        bytes calldata signature\r\n    ) external nonReentrant returns (bool) {\r\n        bytes memory data = abi.encodeWithSelector(\r\n            IERC721.transferFrom.selector,\r\n            from,\r\n            to,\r\n            tokenId\r\n        );\r\n\r\n        ForwardRequest memory req = ForwardRequest({\r\n            from: from,\r\n            to: token,\r\n            value: 0,\r\n            gas: 100000,\r\n            nonce: _nonces[from],\r\n            data: data,\r\n            validUntil: block.timestamp + 3600\r\n        });\r\n\r\n        (bool success, ) = execute(req, signature);\r\n        require(success, \"ERC721 forward failed\");\r\n        return success;\r\n    }\r\n\r\n    function forwardERC20TransferWithPermit(\r\n        address token,\r\n        address from,\r\n        address to,\r\n        uint256 amount,\r\n        uint256 deadline,\r\n        uint8 v,\r\n        bytes32 r,\r\n        bytes32 s\r\n    ) external nonReentrant returns (bool) {\r\n        require(token != address(0), \"Invalid token address\");\r\n        require(from != address(0), \"Invalid from address\");\r\n        require(to != address(0), \"Invalid to address\");\r\n        require(amount > 0, \"Amount must be greater than 0\");\r\n        require(deadline >= block.timestamp, \"Permit expired\");\r\n\r\n        // Check token balance before permit\r\n        uint256 beforeBalance = IERC20(token).balanceOf(from);\r\n        require(beforeBalance >= amount, \"Insufficient token balance\");\r\n\r\n        // First call permit to approve the forwarder\r\n        try IERC20Permit(token).permit(from, address(this), amount, deadline, v, r, s) {\r\n            // Permit successful\r\n            emit Debug(\"Permit successful\");\r\n        } catch Error(string memory reason) {\r\n            revert(string(abi.encodePacked(\"Permit failed: \", reason)));\r\n        } catch (bytes memory) {\r\n            revert(\"Permit failed with no reason\");\r\n        }\r\n\r\n        // Verify allowance after permit\r\n        uint256 allowance = IERC20(token).allowance(from, address(this));\r\n        require(allowance >= amount, \"Insufficient allowance after permit\");\r\n        \r\n        // Then execute the transfer\r\n        try IERC20(token).transferFrom(from, to, amount) returns (bool success) {\r\n            require(success, \"Transfer failed\");\r\n            return true;\r\n        } catch Error(string memory reason) {\r\n            revert(string(abi.encodePacked(\"TransferFrom failed: \", reason)));\r\n        } catch (bytes memory) {\r\n            revert(\"TransferFrom failed with no reason\");\r\n        }\r\n    }\r\n\r\n    receive() external payable {}\r\n\r\n    // Add an event for debugging\r\n    event Debug(string message);\r\n}\r\n",
  "sourcePath": "C:\\Users\\amane\\Documents\\Dev\\iitkcyberhack\\ps2\\contracts\\Forwarder.sol",
  "compiler": {
    "name": "solc",
    "version": "0.8.21+commit.d9974bed.Emscripten.clang"
  },
  "schemaVersion": "3.4.16",
  "updatedAt": "2025-01-26T19:00:52.843Z",
  "networkType": "ethereum",
  "devdoc": {
    "errors": {
      "ECDSAInvalidSignature()": [
        {
          "details": "The signature derives the `address(0)`."
        }
      ],
      "ECDSAInvalidSignatureLength(uint256)": [
        {
          "details": "The signature has an invalid length."
        }
      ],
      "ECDSAInvalidSignatureS(bytes32)": [
        {
          "details": "The signature has an S value that is in the upper half order."
        }
      ],
      "OwnableInvalidOwner(address)": [
        {
          "details": "The owner is not a valid owner account. (eg. `address(0)`)"
        }
      ],
      "OwnableUnauthorizedAccount(address)": [
        {
          "details": "The caller account is not authorized to perform an operation."
        }
      ],
      "ReentrancyGuardReentrantCall()": [
        {
          "details": "Unauthorized reentrant call."
        }
      ]
    },
    "kind": "dev",
    "methods": {
      "owner()": {
        "details": "Returns the address of the current owner."
      },
      "renounceOwnership()": {
        "details": "Leaves the contract without owner. It will not be possible to call `onlyOwner` functions. Can only be called by the current owner. NOTE: Renouncing ownership will leave the contract without an owner, thereby disabling any functionality that is only available to the owner."
      },
      "transferOwnership(address)": {
        "details": "Transfers ownership of the contract to a new account (`newOwner`). Can only be called by the current owner."
      }
    },
    "version": 1
  },
  "userdoc": {
    "kind": "user",
    "methods": {},
    "version": 1
  }
}