{
  "contractName": "Forwarder",
  "abi": [
    {
      "inputs": [],
      "stateMutability": "nonpayable",
      "type": "constructor"
    },
    {
      "inputs": [],
      "name": "ECDSAInvalidSignature",
      "type": "error"
    },
    {
      "inputs": [
        {
          "internalType": "uint256",
          "name": "length",
          "type": "uint256"
        }
      ],
      "name": "ECDSAInvalidSignatureLength",
      "type": "error"
    },
    {
      "inputs": [
        {
          "internalType": "bytes32",
          "name": "s",
          "type": "bytes32"
        }
      ],
      "name": "ECDSAInvalidSignatureS",
      "type": "error"
    },
    {
      "inputs": [
        {
          "internalType": "address",
          "name": "owner",
          "type": "address"
        }
      ],
      "name": "OwnableInvalidOwner",
      "type": "error"
    },
    {
      "inputs": [
        {
          "internalType": "address",
          "name": "account",
          "type": "address"
        }
      ],
      "name": "OwnableUnauthorizedAccount",
      "type": "error"
    },
    {
      "inputs": [],
      "name": "ReentrancyGuardReentrantCall",
      "type": "error"
    },
    {
      "anonymous": false,
      "inputs": [
        {
          "indexed": false,
          "internalType": "string",
          "name": "message",
          "type": "string"
        }
      ],
      "name": "Debug",
      "type": "event"
    },
    {
      "anonymous": false,
      "inputs": [
        {
          "indexed": true,
          "internalType": "address",
          "name": "previousOwner",
          "type": "address"
        },
        {
          "indexed": true,
          "internalType": "address",
          "name": "newOwner",
          "type": "address"
        }
      ],
      "name": "OwnershipTransferred",
      "type": "event"
    },
    {
      "anonymous": false,
      "inputs": [
        {
          "indexed": true,
          "internalType": "address",
          "name": "from",
          "type": "address"
        },
        {
          "indexed": true,
          "internalType": "address",
          "name": "to",
          "type": "address"
        },
        {
          "indexed": false,
          "internalType": "uint256",
          "name": "value",
          "type": "uint256"
        },
        {
          "indexed": false,
          "internalType": "bytes",
          "name": "data",
          "type": "bytes"
        },
        {
          "indexed": false,
          "internalType": "bool",
          "name": "success",
          "type": "bool"
        }
      ],
      "name": "TransactionForwarded",
      "type": "event"
    },
    {
      "inputs": [],
      "name": "owner",
      "outputs": [
        {
          "internalType": "address",
          "name": "",
          "type": "address"
        }
      ],
      "stateMutability": "view",
      "type": "function",
      "constant": true
    },
    {
      "inputs": [],
      "name": "renounceOwnership",
      "outputs": [],
      "stateMutability": "nonpayable",
      "type": "function"
    },
    {
      "inputs": [
        {
          "internalType": "address",
          "name": "newOwner",
          "type": "address"
        }
      ],
      "name": "transferOwnership",
      "outputs": [],
      "stateMutability": "nonpayable",
      "type": "function"
    },
    {
      "stateMutability": "payable",
      "type": "receive",
      "payable": true
    },
    {
      "inputs": [
        {
          "internalType": "address",
          "name": "from",
          "type": "address"
        }
      ],
      "name": "getNonce",
      "outputs": [
        {
          "internalType": "uint256",
          "name": "",
          "type": "uint256"
        }
      ],
      "stateMutability": "view",
      "type": "function",
      "constant": true
    },
    {
      "inputs": [
        {
          "components": [
            {
              "internalType": "address",
              "name": "from",
              "type": "address"
            },
            {
              "internalType": "address",
              "name": "to",
              "type": "address"
            },
            {
              "internalType": "uint256",
              "name": "value",
              "type": "uint256"
            },
            {
              "internalType": "uint256",
              "name": "gas",
              "type": "uint256"
            },
            {
              "internalType": "uint256",
              "name": "nonce",
              "type": "uint256"
            },
            {
              "internalType": "bytes",
              "name": "data",
              "type": "bytes"
            },
            {
              "internalType": "uint256",
              "name": "validUntil",
              "type": "uint256"
            }
          ],
          "internalType": "struct Forwarder.ForwardRequest",
          "name": "req",
          "type": "tuple"
        },
        {
          "internalType": "bytes",
          "name": "signature",
          "type": "bytes"
        }
      ],
      "name": "verify",
      "outputs": [
        {
          "internalType": "bool",
          "name": "",
          "type": "bool"
        }
      ],
      "stateMutability": "pure",
      "type": "function",
      "constant": true
    },
    {
      "inputs": [
        {
          "components": [
            {
              "internalType": "address",
              "name": "from",
              "type": "address"
            },
            {
              "internalType": "address",
              "name": "to",
              "type": "address"
            },
            {
              "internalType": "uint256",
              "name": "value",
              "type": "uint256"
            },
            {
              "internalType": "uint256",
              "name": "gas",
              "type": "uint256"
            },
            {
              "internalType": "uint256",
              "name": "nonce",
              "type": "uint256"
            },
            {
              "internalType": "bytes",
              "name": "data",
              "type": "bytes"
            },
            {
              "internalType": "uint256",
              "name": "validUntil",
              "type": "uint256"
            }
          ],
          "internalType": "struct Forwarder.ForwardRequest",
          "name": "req",
          "type": "tuple"
        },
        {
          "internalType": "bytes",
          "name": "signature",
          "type": "bytes"
        }
      ],
      "name": "execute",
      "outputs": [
        {
          "internalType": "bool",
          "name": "",
          "type": "bool"
        },
        {
          "internalType": "bytes",
          "name": "",
          "type": "bytes"
        }
      ],
      "stateMutability": "payable",
      "type": "function",
      "payable": true
    },
    {
      "inputs": [
        {
          "internalType": "address",
          "name": "token",
          "type": "address"
        },
        {
          "internalType": "address",
          "name": "from",
          "type": "address"
        },
        {
          "internalType": "address",
          "name": "to",
          "type": "address"
        },
        {
          "internalType": "uint256",
          "name": "amount",
          "type": "uint256"
        },
        {
          "internalType": "bytes",
          "name": "signature",
          "type": "bytes"
        }
      ],
      "name": "forwardERC20Transfer",
      "outputs": [
        {
          "internalType": "bool",
          "name": "",
          "type": "bool"
        }
      ],
      "stateMutability": "nonpayable",
      "type": "function"
    },
    {
      "inputs": [
        {
          "internalType": "address",
          "name": "token",
          "type": "address"
        },
        {
          "internalType": "address",
          "name": "from",
          "type": "address"
        },
        {
          "internalType": "address",
          "name": "to",
          "type": "address"
        },
        {
          "internalType": "uint256",
          "name": "tokenId",
          "type": "uint256"
        },
        {
          "internalType": "bytes",
          "name": "signature",
          "type": "bytes"
        }
      ],
      "name": "forwardERC721Transfer",
      "outputs": [
        {
          "internalType": "bool",
          "name": "",
          "type": "bool"
        }
      ],
      "stateMutability": "nonpayable",
      "type": "function"
    },
    {
      "inputs": [
        {
          "internalType": "address",
          "name": "token",
          "type": "address"
        },
        {
          "internalType": "address",
          "name": "from",
          "type": "address"
        },
        {
          "internalType": "address",
          "name": "to",
          "type": "address"
        },
        {
          "internalType": "uint256",
          "name": "amount",
          "type": "uint256"
        },
        {
          "internalType": "uint256",
          "name": "fee",
          "type": "uint256"
        },
        {
          "internalType": "uint256",
          "name": "deadline",
          "type": "uint256"
        },
        {
          "internalType": "uint8",
          "name": "v",
          "type": "uint8"
        },
        {
          "internalType": "bytes32",
          "name": "r",
          "type": "bytes32"
        },
        {
          "internalType": "bytes32",
          "name": "s",
          "type": "bytes32"
        }
      ],
      "name": "forwardERC20TransferWithPermit",
      "outputs": [
        {
          "internalType": "bool",
          "name": "",
          "type": "bool"
        }
      ],
      "stateMutability": "nonpayable",
      "type": "function"
    }
  ],
  "bytecode": "0x608060405234801561000f575f80fd5b50338061003557604051631e4fbdf760e01b81525f600482015260240160405180910390fd5b61003e81610048565b5060018055610097565b5f80546001600160a01b038381166001600160a01b0319831681178455604051919092169283917f8be0079c531659141344cd1fd0a4f28419497f9722a3daafe3b4186f6b6457e09190a35050565b611482806100a45f395ff3fe608060405260043610610087575f3560e01c8063715018a611610057578063715018a6146101485780637856940b1461015e5780638da5cb5b1461017d57806390c62e05146101a3578063f2fde38b146101c2575f80fd5b8063019fe885146100925780632d0335ab146100c657806344d46c8e146101085780636ea1666914610129575f80fd5b3661008e57005b5f80fd5b34801561009d575f80fd5b506100b16100ac366004611013565b6101e1565b60405190151581526020015b60405180910390f35b3480156100d1575f80fd5b506100fa6100e03660046110ef565b6001600160a01b03165f9081526002602052604090205490565b6040519081526020016100bd565b61011b610116366004611013565b6102d7565b6040516100bd92919061115c565b348015610134575f80fd5b506100b161014336600461117e565b6105e6565b348015610153575f80fd5b5061015c6109d7565b005b348015610169575f80fd5b506100b1610178366004611206565b6109ea565b348015610188575f80fd5b505f546040516001600160a01b0390911681526020016100bd565b3480156101ae575f80fd5b506100b16101bd366004611206565b610b0b565b3480156101cd575f80fd5b5061015c6101dc3660046110ef565b610c14565b5f80845f015185602001518660400151876060015188608001518960a001518a60c0015160405160200161021b9796959493929190611280565b60408051601f198184030181529082905280516020918201207f19457468657265756d205369676e6564204d6573736167653a0a33320000000091830191909152603c820152605c016040516020818303038152906040528051906020012090505f6102bc8286868080601f0160208091040260200160405190810160405280939291908181526020018383808284375f92019190915250610c5192505050565b86516001600160a01b03918216911614925050509392505050565b5f60606102e2610c7b565b8460c0015142111561032d5760405162461bcd60e51b815260206004820152600f60248201526e14995c5d595cdd08195e1c1a5c9959608a1b60448201526064015b60405180910390fd5b608085015185516001600160a01b03165f90815260026020526040902054146103885760405162461bcd60e51b815260206004820152600d60248201526c496e76616c6964206e6f6e636560981b6044820152606401610324565b3330146103da5761039a8585856101e1565b6103da5760405162461bcd60e51b8152602060048201526011602482015270496e76616c6964207369676e617475726560781b6044820152606401610324565b84516001600160a01b03165f9081526002602052604081208054916103fe836112e4565b91905055505f85858560405160200161041993929190611324565b60408051601f1981840301815291815281516020928301205f818152600390935291205490915060ff16156104905760405162461bcd60e51b815260206004820152601860248201527f5265717565737420616c726561647920657865637574656400000000000000006044820152606401610324565b5f818152600360209081526040808320805460ff191660011790559088015160608901518983015160a08b0151935185946001600160a01b03909416936104d69161139d565b5f60405180830381858888f193505050503d805f8114610511576040519150601f19603f3d011682016040523d82523d5f602084013e610516565b606091505b509150915087602001516001600160a01b0316885f01516001600160a01b03167fb1d0cf95fb035eb4bb0e6865967f56691645c2e18b41546195e1b2125266ab0f8a604001518b60a0015186604051610571939291906113b8565b60405180910390a3816105cf5780511561058e5780518082602001fd5b60405162461bcd60e51b8152602060048201526016602482015275119bdc9dd85c99081c995c5d595cdd0819985a5b195960521b6044820152606401610324565b9093509150506105de60018055565b935093915050565b5f6105ef610c7b565b336001600160a01b038916146106475760405162461bcd60e51b815260206004820152601a60248201527f4f6e6c7920726563697069656e742063616e20657865637574650000000000006044820152606401610324565b6001600160a01b038a166106955760405162461bcd60e51b8152602060048201526015602482015274496e76616c696420746f6b656e206164647265737360581b6044820152606401610324565b6001600160a01b0389166106e25760405162461bcd60e51b8152602060048201526014602482015273496e76616c69642066726f6d206164647265737360601b6044820152606401610324565b6001600160a01b03881661072d5760405162461bcd60e51b8152602060048201526012602482015271496e76616c696420746f206164647265737360701b6044820152606401610324565b5f871161077c5760405162461bcd60e51b815260206004820152601d60248201527f416d6f756e74206d7573742062652067726561746572207468616e20300000006044820152606401610324565b428510156107bd5760405162461bcd60e51b815260206004820152600e60248201526d14195c9b5a5d08195e1c1a5c995960921b6044820152606401610324565b6001600160a01b038a1663d505accf8a306107d88a8c6113e2565b6040516001600160e01b031960e086901b1681526001600160a01b03938416600482015292909116602483015260448201526064810188905260ff8716608482015260a4810186905260c4810185905260e4015f604051808303815f87803b158015610842575f80fd5b505af1158015610854573d5f803e3d5ffd5b50506040516323b872dd60e01b81526001600160a01b038d1692506323b872dd9150610888908c908c908c906004016113f5565b6020604051808303815f875af11580156108a4573d5f803e3d5ffd5b505050506040513d601f19601f820116820180604052508101906108c89190611419565b6109065760405162461bcd60e51b815260206004820152600f60248201526e151c985b9cd9995c8819985a5b1959608a1b6044820152606401610324565b85156109be576040516323b872dd60e01b81526001600160a01b038b16906323b872dd9061093c908c9033908b906004016113f5565b6020604051808303815f875af1158015610958573d5f803e3d5ffd5b505050506040513d601f19601f8201168201806040525081019061097c9190611419565b6109be5760405162461bcd60e51b8152602060048201526013602482015272119959481d1c985b9cd9995c8819985a5b1959606a1b6044820152606401610324565b5060016109ca60018055565b9998505050505050505050565b6109df610ca5565b6109e85f610cd1565b565b5f6109f3610c7b565b5f6323b872dd60e01b878787604051602401610a11939291906113f5565b60408051601f19818403018152918152602080830180516001600160e01b03166001600160e01b031990951694909417909352805160e0810182526001600160a01b03808c16808352908d16828601525f828401819052620186a06060840152908152600290945290832054608082015260a0810182905290925060c08101610a9c42610e106113e2565b905290505f610aac8287876102d7565b50905080610af45760405162461bcd60e51b8152602060048201526015602482015274115490cdcc8c48199bdc9dd85c990819985a5b1959605a1b6044820152606401610324565b92505050610b0160018055565b9695505050505050565b5f610b14610c7b565b5f6323b872dd60e01b878787604051602401610b32939291906113f5565b60408051601f19818403018152918152602080830180516001600160e01b03166001600160e01b031990951694909417909352805160e0810182526001600160a01b03808c16808352908d16828601525f828401819052620186a06060840152908152600290945290832054608082015260a0810182905290925060c08101610bbd42610e106113e2565b905290505f610bcd8287876102d7565b50905080610af45760405162461bcd60e51b8152602060048201526014602482015273115490cc8c08199bdc9dd85c990819985a5b195960621b6044820152606401610324565b610c1c610ca5565b6001600160a01b038116610c4557604051631e4fbdf760e01b81525f6004820152602401610324565b610c4e81610cd1565b50565b5f805f80610c5f8686610d20565b925092509250610c6f8282610d69565b50909150505b92915050565b600260015403610c9e57604051633ee5aeb560e01b815260040160405180910390fd5b6002600155565b5f546001600160a01b031633146109e85760405163118cdaa760e01b8152336004820152602401610324565b5f80546001600160a01b038381166001600160a01b0319831681178455604051919092169283917f8be0079c531659141344cd1fd0a4f28419497f9722a3daafe3b4186f6b6457e09190a35050565b5f805f8351604103610d57576020840151604085015160608601515f1a610d4988828585610e25565b955095509550505050610d62565b505081515f91506002905b9250925092565b5f826003811115610d7c57610d7c611438565b03610d85575050565b6001826003811115610d9957610d99611438565b03610db75760405163f645eedf60e01b815260040160405180910390fd5b6002826003811115610dcb57610dcb611438565b03610dec5760405163fce698f760e01b815260048101829052602401610324565b6003826003811115610e0057610e00611438565b03610e21576040516335e2f38360e21b815260048101829052602401610324565b5050565b5f80807f7fffffffffffffffffffffffffffffff5d576e7357a4501ddfe92f46681b20a0841115610e5e57505f91506003905082610ee3565b604080515f808252602082018084528a905260ff891692820192909252606081018790526080810186905260019060a0016020604051602081039080840390855afa158015610eaf573d5f803e3d5ffd5b5050604051601f1901519150506001600160a01b038116610eda57505f925060019150829050610ee3565b92505f91508190505b9450945094915050565b634e487b7160e01b5f52604160045260245ffd5b60405160e0810167ffffffffffffffff81118282101715610f2457610f24610eed565b60405290565b80356001600160a01b0381168114610f40575f80fd5b919050565b5f82601f830112610f54575f80fd5b813567ffffffffffffffff80821115610f6f57610f6f610eed565b604051601f8301601f19908116603f01168101908282118183101715610f9757610f97610eed565b81604052838152866020858801011115610faf575f80fd5b836020870160208301375f602085830101528094505050505092915050565b5f8083601f840112610fde575f80fd5b50813567ffffffffffffffff811115610ff5575f80fd5b60208301915083602082850101111561100c575f80fd5b9250929050565b5f805f60408486031215611025575f80fd5b833567ffffffffffffffff8082111561103c575f80fd5b9085019060e0828803121561104f575f80fd5b611057610f01565b61106083610f2a565b815261106e60208401610f2a565b602082015260408301356040820152606083013560608201526080830135608082015260a0830135828111156110a2575f80fd5b6110ae89828601610f45565b60a08301525060c083013560c08201528095505060208601359150808211156110d5575f80fd5b506110e286828701610fce565b9497909650939450505050565b5f602082840312156110ff575f80fd5b61110882610f2a565b9392505050565b5f5b83811015611129578181015183820152602001611111565b50505f910152565b5f815180845261114881602086016020860161110f565b601f01601f19169290920160200192915050565b8215158152604060208201525f6111766040830184611131565b949350505050565b5f805f805f805f805f6101208a8c031215611197575f80fd5b6111a08a610f2a565b98506111ae60208b01610f2a565b97506111bc60408b01610f2a565b965060608a0135955060808a0135945060a08a0135935060c08a013560ff811681146111e6575f80fd5b8093505060e08a013591506101008a013590509295985092959850929598565b5f805f805f8060a0878903121561121b575f80fd5b61122487610f2a565b955061123260208801610f2a565b945061124060408801610f2a565b935060608701359250608087013567ffffffffffffffff811115611262575f80fd5b61126e89828a01610fce565b979a9699509497509295939492505050565b5f60018060a01b03808a16835280891660208401525086604083015285606083015284608083015260e060a08301526112bc60e0830185611131565b90508260c083015298975050505050505050565b634e487b7160e01b5f52601160045260245ffd5b5f600182016112f5576112f56112d0565b5060010190565b81835281816020850137505f828201602090810191909152601f909101601f19169091010190565b604081525f60018060a01b038086511660408401528060208701511660608401525060408501516080830152606085015160a0830152608085015160c083015260a085015160e08084015261137d610120840182611131565b905060c08601516101008401528281036020840152610b018185876112fc565b5f82516113ae81846020870161110f565b9190910192915050565b838152606060208201525f6113d06060830185611131565b90508215156040830152949350505050565b80820180821115610c7557610c756112d0565b6001600160a01b039384168152919092166020820152604081019190915260600190565b5f60208284031215611429575f80fd5b81518015158114611108575f80fd5b634e487b7160e01b5f52602160045260245ffdfea26469706673582212206d5e36dac9eb6a356610d38e0051acc35e3599b9844a535a941b05888742dc8164736f6c63430008150033",
  "immutableReferences": {},
  "source": "// SPDX-License-Identifier: MIT\r\npragma solidity ^0.8.0;\r\n\r\nimport \"@openzeppelin/contracts/access/Ownable.sol\";\r\nimport \"@openzeppelin/contracts/token/ERC20/IERC20.sol\";\r\nimport \"@openzeppelin/contracts/token/ERC721/IERC721.sol\";\r\nimport \"@openzeppelin/contracts/utils/ReentrancyGuard.sol\";\r\nimport \"@openzeppelin/contracts/utils/cryptography/ECDSA.sol\";\r\nimport \"@openzeppelin/contracts/utils/cryptography/MessageHashUtils.sol\";\r\nimport \"@openzeppelin/contracts/token/ERC20/extensions/IERC20Permit.sol\";\r\n\r\ncontract Forwarder is Ownable, ReentrancyGuard {\r\n    using ECDSA for bytes32;\r\n    using MessageHashUtils for bytes32;\r\n\r\n    struct ForwardRequest {\r\n        address from;\r\n        address to;\r\n        uint256 value;\r\n        uint256 gas;\r\n        uint256 nonce;\r\n        bytes data;\r\n        uint256 validUntil;\r\n    }\r\n\r\n    mapping(address => uint256) private _nonces;\r\n    mapping(bytes32 => bool) private _executed;\r\n\r\n    event TransactionForwarded(\r\n        address indexed from,\r\n        address indexed to,\r\n        uint256 value,\r\n        bytes data,\r\n        bool success\r\n    );\r\n\r\n    constructor() Ownable(msg.sender) {}\r\n\r\n    function getNonce(address from) public view returns (uint256) {\r\n        return _nonces[from];\r\n    }\r\n\r\n    function verify(\r\n        ForwardRequest memory req,\r\n        bytes calldata signature\r\n    ) public pure returns (bool) {\r\n        bytes32 digest = keccak256(\r\n            abi.encodePacked(\r\n                \"\\x19Ethereum Signed Message:\\n32\",\r\n                keccak256(\r\n                    abi.encode(\r\n                        req.from,\r\n                        req.to,\r\n                        req.value,\r\n                        req.gas,\r\n                        req.nonce,\r\n                        req.data,\r\n                        req.validUntil\r\n                    )\r\n                )\r\n            )\r\n        );\r\n        address signer = ECDSA.recover(digest, signature);\r\n        return signer == req.from;\r\n    }\r\n\r\n    function execute(\r\n        ForwardRequest memory req,\r\n        bytes calldata signature\r\n    ) public payable nonReentrant returns (bool, bytes memory) {\r\n        require(block.timestamp <= req.validUntil, \"Request expired\");\r\n        require(_nonces[req.from] == req.nonce, \"Invalid nonce\");\r\n\r\n        // Skip signature check if called internally via permit flow\r\n        if (msg.sender != address(this)) {\r\n            require(verify(req, signature), \"Invalid signature\");\r\n        }\r\n\r\n        _nonces[req.from]++;\r\n        bytes32 hash = keccak256(abi.encode(req, signature));\r\n        require(!_executed[hash], \"Request already executed\");\r\n        _executed[hash] = true;\r\n\r\n        (bool success, bytes memory returndata) = req.to.call{\r\n            gas: req.gas,\r\n            value: req.value\r\n        }(req.data);\r\n\r\n        emit TransactionForwarded(\r\n            req.from,\r\n            req.to,\r\n            req.value,\r\n            req.data,\r\n            success\r\n        );\r\n\r\n        if (!success) {\r\n            // If the call failed, bubble up the revert reason\r\n            if (returndata.length > 0) {\r\n                assembly {\r\n                    let returndata_size := mload(returndata)\r\n                    revert(add(32, returndata), returndata_size)\r\n                }\r\n            } else {\r\n                revert(\"Forward request failed\");\r\n            }\r\n        }\r\n\r\n        return (success, returndata);\r\n    }\r\n\r\n    function forwardERC20Transfer(\r\n        address token,\r\n        address from,\r\n        address to,\r\n        uint256 amount,\r\n        bytes calldata signature\r\n    ) external nonReentrant returns (bool) {\r\n        bytes memory data = abi.encodeWithSelector(\r\n            IERC20.transferFrom.selector,\r\n            from,\r\n            to,\r\n            amount\r\n        );\r\n\r\n        ForwardRequest memory req = ForwardRequest({\r\n            from: from,\r\n            to: token,\r\n            value: 0,\r\n            gas: 100000,\r\n            nonce: _nonces[from],\r\n            data: data,\r\n            validUntil: block.timestamp + 3600\r\n        });\r\n\r\n        (bool success, ) = execute(req, signature);\r\n        require(success, \"ERC20 forward failed\");\r\n        return success;\r\n    }\r\n\r\n    function forwardERC721Transfer(\r\n        address token,\r\n        address from,\r\n        address to,\r\n        uint256 tokenId,\r\n        bytes calldata signature\r\n    ) external nonReentrant returns (bool) {\r\n        bytes memory data = abi.encodeWithSelector(\r\n            IERC721.transferFrom.selector,\r\n            from,\r\n            to,\r\n            tokenId\r\n        );\r\n\r\n        ForwardRequest memory req = ForwardRequest({\r\n            from: from,\r\n            to: token,\r\n            value: 0,\r\n            gas: 100000,\r\n            nonce: _nonces[from],\r\n            data: data,\r\n            validUntil: block.timestamp + 3600\r\n        });\r\n\r\n        (bool success, ) = execute(req, signature);\r\n        require(success, \"ERC721 forward failed\");\r\n        return success;\r\n    }\r\n\r\n    function forwardERC20TransferWithPermit(\r\n        address token,\r\n        address from,\r\n        address to,\r\n        uint256 amount,\r\n        uint256 fee, // Add fee parameter\r\n        uint256 deadline,\r\n        uint8 v,\r\n        bytes32 r,\r\n        bytes32 s\r\n    ) external nonReentrant returns (bool) {\r\n        require(msg.sender == to, \"Only recipient can execute\");\r\n        require(token != address(0), \"Invalid token address\");\r\n        require(from != address(0), \"Invalid from address\");\r\n        require(to != address(0), \"Invalid to address\");\r\n        require(amount > 0, \"Amount must be greater than 0\");\r\n        require(deadline >= block.timestamp, \"Permit expired\");\r\n\r\n        // Permit for amount + fee\r\n        IERC20Permit(token).permit(\r\n            from,\r\n            address(this),\r\n            amount + fee,\r\n            deadline,\r\n            v,\r\n            r,\r\n            s\r\n        );\r\n\r\n        // Transfer main amount to recipient\r\n        require(\r\n            IERC20(token).transferFrom(from, to, amount),\r\n            \"Transfer failed\"\r\n        );\r\n\r\n        // Transfer fee to relayer\r\n        if (fee > 0) {\r\n            require(\r\n                IERC20(token).transferFrom(from, msg.sender, fee),\r\n                \"Fee transfer failed\"\r\n            );\r\n        }\r\n\r\n        return true;\r\n    }\r\n\r\n    receive() external payable {}\r\n\r\n    // Add an event for debugging\r\n    event Debug(string message);\r\n}\r\n",
  "sourcePath": "C:\\Users\\amane\\Documents\\Dev\\iitkcyberhack\\Round_1_Gasless_Forwarder\\contracts\\Forwarder.sol",
  "compiler": {
    "name": "solc",
    "version": "0.8.21+commit.d9974bed.Emscripten.clang"
  },
  "schemaVersion": "3.4.16",
  "updatedAt": "2025-02-08T18:54:24.203Z",
  "networkType": "ethereum",
  "devdoc": {
    "errors": {
      "ECDSAInvalidSignature()": [
        {
          "details": "The signature derives the `address(0)`."
        }
      ],
      "ECDSAInvalidSignatureLength(uint256)": [
        {
          "details": "The signature has an invalid length."
        }
      ],
      "ECDSAInvalidSignatureS(bytes32)": [
        {
          "details": "The signature has an S value that is in the upper half order."
        }
      ],
      "OwnableInvalidOwner(address)": [
        {
          "details": "The owner is not a valid owner account. (eg. `address(0)`)"
        }
      ],
      "OwnableUnauthorizedAccount(address)": [
        {
          "details": "The caller account is not authorized to perform an operation."
        }
      ],
      "ReentrancyGuardReentrantCall()": [
        {
          "details": "Unauthorized reentrant call."
        }
      ]
    },
    "kind": "dev",
    "methods": {
      "owner()": {
        "details": "Returns the address of the current owner."
      },
      "renounceOwnership()": {
        "details": "Leaves the contract without owner. It will not be possible to call `onlyOwner` functions. Can only be called by the current owner. NOTE: Renouncing ownership will leave the contract without an owner, thereby disabling any functionality that is only available to the owner."
      },
      "transferOwnership(address)": {
        "details": "Transfers ownership of the contract to a new account (`newOwner`). Can only be called by the current owner."
      }
    },
    "version": 1
  },
  "userdoc": {
    "kind": "user",
    "methods": {},
    "version": 1
  }
}