{
  "_format": "hh-sol-artifact-1",
  "contractName": "BridgeAmoy",
  "sourceName": "contracts/BridgeAmoy.sol",
  "abi": [
    {
      "inputs": [
        {
          "internalType": "address",
          "name": "_token",
          "type": "address"
        },
        {
          "internalType": "address",
          "name": "owner",
          "type": "address"
        }
      ],
      "stateMutability": "nonpayable",
      "type": "constructor"
    },
    {
      "inputs": [
        {
          "internalType": "address",
          "name": "owner",
          "type": "address"
        }
      ],
      "name": "OwnableInvalidOwner",
      "type": "error"
    },
    {
      "inputs": [
        {
          "internalType": "address",
          "name": "account",
          "type": "address"
        }
      ],
      "name": "OwnableUnauthorizedAccount",
      "type": "error"
    },
    {
      "anonymous": false,
      "inputs": [
        {
          "indexed": true,
          "internalType": "address",
          "name": "user",
          "type": "address"
        },
        {
          "indexed": false,
          "internalType": "uint256",
          "name": "amount",
          "type": "uint256"
        }
      ],
      "name": "Locked",
      "type": "event"
    },
    {
      "anonymous": false,
      "inputs": [
        {
          "indexed": true,
          "internalType": "address",
          "name": "previousOwner",
          "type": "address"
        },
        {
          "indexed": true,
          "internalType": "address",
          "name": "newOwner",
          "type": "address"
        }
      ],
      "name": "OwnershipTransferred",
      "type": "event"
    },
    {
      "anonymous": false,
      "inputs": [
        {
          "indexed": true,
          "internalType": "address",
          "name": "user",
          "type": "address"
        },
        {
          "indexed": false,
          "internalType": "uint256",
          "name": "amount",
          "type": "uint256"
        }
      ],
      "name": "Unlocked",
      "type": "event"
    },
    {
      "inputs": [
        {
          "internalType": "uint256",
          "name": "amount",
          "type": "uint256"
        }
      ],
      "name": "lock",
      "outputs": [],
      "stateMutability": "nonpayable",
      "type": "function"
    },
    {
      "inputs": [],
      "name": "owner",
      "outputs": [
        {
          "internalType": "address",
          "name": "",
          "type": "address"
        }
      ],
      "stateMutability": "view",
      "type": "function"
    },
    {
      "inputs": [],
      "name": "remoteBridge",
      "outputs": [
        {
          "internalType": "address",
          "name": "",
          "type": "address"
        }
      ],
      "stateMutability": "view",
      "type": "function"
    },
    {
      "inputs": [],
      "name": "renounceOwnership",
      "outputs": [],
      "stateMutability": "nonpayable",
      "type": "function"
    },
    {
      "inputs": [
        {
          "internalType": "address",
          "name": "_remoteBridge",
          "type": "address"
        }
      ],
      "name": "setRemoteBridge",
      "outputs": [],
      "stateMutability": "nonpayable",
      "type": "function"
    },
    {
      "inputs": [],
      "name": "token",
      "outputs": [
        {
          "internalType": "contract IERC20Mintable",
          "name": "",
          "type": "address"
        }
      ],
      "stateMutability": "view",
      "type": "function"
    },
    {
      "inputs": [
        {
          "internalType": "address",
          "name": "newOwner",
          "type": "address"
        }
      ],
      "name": "transferOwnership",
      "outputs": [],
      "stateMutability": "nonpayable",
      "type": "function"
    },
    {
      "inputs": [
        {
          "internalType": "address",
          "name": "user",
          "type": "address"
        },
        {
          "internalType": "uint256",
          "name": "amount",
          "type": "uint256"
        }
      ],
      "name": "unlock",
      "outputs": [],
      "stateMutability": "nonpayable",
      "type": "function"
    }
  ],
  "bytecode": "0x60806040523480156200001157600080fd5b5060405162000cae38038062000cae833981810160405281019062000037919062000236565b80600073ffffffffffffffffffffffffffffffffffffffff168173ffffffffffffffffffffffffffffffffffffffff1603620000ad5760006040517f1e4fbdf7000000000000000000000000000000000000000000000000000000008152600401620000a491906200028e565b60405180910390fd5b620000be816200010860201b60201c565b5081600160006101000a81548173ffffffffffffffffffffffffffffffffffffffff021916908373ffffffffffffffffffffffffffffffffffffffff1602179055505050620002ab565b60008060009054906101000a900473ffffffffffffffffffffffffffffffffffffffff169050816000806101000a81548173ffffffffffffffffffffffffffffffffffffffff021916908373ffffffffffffffffffffffffffffffffffffffff1602179055508173ffffffffffffffffffffffffffffffffffffffff168173ffffffffffffffffffffffffffffffffffffffff167f8be0079c531659141344cd1fd0a4f28419497f9722a3daafe3b4186f6b6457e060405160405180910390a35050565b600080fd5b600073ffffffffffffffffffffffffffffffffffffffff82169050919050565b6000620001fe82620001d1565b9050919050565b6200021081620001f1565b81146200021c57600080fd5b50565b600081519050620002308162000205565b92915050565b6000806040838503121562000250576200024f620001cc565b5b600062000260858286016200021f565b925050602062000273858286016200021f565b9150509250929050565b6200028881620001f1565b82525050565b6000602082019050620002a560008301846200027d565b92915050565b6109f380620002bb6000396000f3fe608060405234801561001057600080fd5b50600436106100885760003560e01c8063c97123bb1161005b578063c97123bb146100ed578063dd4670641461010b578063f2fde38b14610127578063fc0c546a1461014357610088565b806316ce81491461008d578063715018a6146100a95780637eee288d146100b35780638da5cb5b146100cf575b600080fd5b6100a760048036038101906100a291906106dd565b610161565b005b6100b16101ad565b005b6100cd60048036038101906100c89190610740565b6101c1565b005b6100d76102fa565b6040516100e4919061078f565b60405180910390f35b6100f5610323565b604051610102919061078f565b60405180910390f35b610125600480360381019061012091906107aa565b610349565b005b610141600480360381019061013c91906106dd565b61047b565b005b61014b610501565b6040516101589190610836565b60405180910390f35b610169610527565b80600260006101000a81548173ffffffffffffffffffffffffffffffffffffffff021916908373ffffffffffffffffffffffffffffffffffffffff16021790555050565b6101b5610527565b6101bf60006105ae565b565b6101c9610527565b600160009054906101000a900473ffffffffffffffffffffffffffffffffffffffff1673ffffffffffffffffffffffffffffffffffffffff1663a9059cbb83836040518363ffffffff1660e01b8152600401610226929190610860565b6020604051808303816000875af1158015610245573d6000803e3d6000fd5b505050506040513d601f19601f8201168201806040525081019061026991906108c1565b6102a8576040517f08c379a000000000000000000000000000000000000000000000000000000000815260040161029f9061094b565b60405180910390fd5b8173ffffffffffffffffffffffffffffffffffffffff167f0f0bc5b519ddefdd8e5f9e6423433aa2b869738de2ae34d58ebc796fc749fa0d826040516102ee919061096b565b60405180910390a25050565b60008060009054906101000a900473ffffffffffffffffffffffffffffffffffffffff16905090565b600260009054906101000a900473ffffffffffffffffffffffffffffffffffffffff1681565b600160009054906101000a900473ffffffffffffffffffffffffffffffffffffffff1673ffffffffffffffffffffffffffffffffffffffff166323b872dd3330846040518463ffffffff1660e01b81526004016103a893929190610986565b6020604051808303816000875af11580156103c7573d6000803e3d6000fd5b505050506040513d601f19601f820116820180604052508101906103eb91906108c1565b61042a576040517f08c379a00000000000000000000000000000000000000000000000000000000081526004016104219061094b565b60405180910390fd5b3373ffffffffffffffffffffffffffffffffffffffff167f9f1ec8c880f76798e7b793325d625e9b60e4082a553c98f42b6cda368dd6000882604051610470919061096b565b60405180910390a250565b610483610527565b600073ffffffffffffffffffffffffffffffffffffffff168173ffffffffffffffffffffffffffffffffffffffff16036104f55760006040517f1e4fbdf70000000000000000000000000000000000000000000000000000000081526004016104ec919061078f565b60405180910390fd5b6104fe816105ae565b50565b600160009054906101000a900473ffffffffffffffffffffffffffffffffffffffff1681565b61052f610672565b73ffffffffffffffffffffffffffffffffffffffff1661054d6102fa565b73ffffffffffffffffffffffffffffffffffffffff16146105ac57610570610672565b6040517f118cdaa70000000000000000000000000000000000000000000000000000000081526004016105a3919061078f565b60405180910390fd5b565b60008060009054906101000a900473ffffffffffffffffffffffffffffffffffffffff169050816000806101000a81548173ffffffffffffffffffffffffffffffffffffffff021916908373ffffffffffffffffffffffffffffffffffffffff1602179055508173ffffffffffffffffffffffffffffffffffffffff168173ffffffffffffffffffffffffffffffffffffffff167f8be0079c531659141344cd1fd0a4f28419497f9722a3daafe3b4186f6b6457e060405160405180910390a35050565b600033905090565b600080fd5b600073ffffffffffffffffffffffffffffffffffffffff82169050919050565b60006106aa8261067f565b9050919050565b6106ba8161069f565b81146106c557600080fd5b50565b6000813590506106d7816106b1565b92915050565b6000602082840312156106f3576106f261067a565b5b6000610701848285016106c8565b91505092915050565b6000819050919050565b61071d8161070a565b811461072857600080fd5b50565b60008135905061073a81610714565b92915050565b600080604083850312156107575761075661067a565b5b6000610765858286016106c8565b92505060206107768582860161072b565b9150509250929050565b6107898161069f565b82525050565b60006020820190506107a46000830184610780565b92915050565b6000602082840312156107c0576107bf61067a565b5b60006107ce8482850161072b565b91505092915050565b6000819050919050565b60006107fc6107f76107f28461067f565b6107d7565b61067f565b9050919050565b600061080e826107e1565b9050919050565b600061082082610803565b9050919050565b61083081610815565b82525050565b600060208201905061084b6000830184610827565b92915050565b61085a8161070a565b82525050565b60006040820190506108756000830185610780565b6108826020830184610851565b9392505050565b60008115159050919050565b61089e81610889565b81146108a957600080fd5b50565b6000815190506108bb81610895565b92915050565b6000602082840312156108d7576108d661067a565b5b60006108e5848285016108ac565b91505092915050565b600082825260208201905092915050565b7f5472616e73666572206661696c65640000000000000000000000000000000000600082015250565b6000610935600f836108ee565b9150610940826108ff565b602082019050919050565b6000602082019050818103600083015261096481610928565b9050919050565b60006020820190506109806000830184610851565b92915050565b600060608201905061099b6000830186610780565b6109a86020830185610780565b6109b56040830184610851565b94935050505056fea2646970667358221220404f0e35d6d01c70e90cd91dd23d8fa4bdba151716b2ce083e8a90e2100419a264736f6c63430008140033",
  "linkReferences": {},
  "deployedLinkReferences": {}
}