{
  "_format": "hh-sol-artifact-1",
  "contractName": "BridgeAmoy",
  "sourceName": "contracts/BridgeAmoy.sol",
  "abi": [
    {
      "inputs": [
        {
          "internalType": "address",
          "name": "_token",
          "type": "address"
        }
      ],
      "stateMutability": "nonpayable",
      "type": "constructor"
    },
    {
      "inputs": [],
      "name": "AccessControlBadConfirmation",
      "type": "error"
    },
    {
      "inputs": [
        {
          "internalType": "address",
          "name": "account",
          "type": "address"
        },
        {
          "internalType": "bytes32",
          "name": "neededRole",
          "type": "bytes32"
        }
      ],
      "name": "AccessControlUnauthorizedAccount",
      "type": "error"
    },
    {
      "inputs": [],
      "name": "ReentrancyGuardReentrantCall",
      "type": "error"
    },
    {
      "anonymous": false,
      "inputs": [
        {
          "indexed": true,
          "internalType": "address",
          "name": "token",
          "type": "address"
        },
        {
          "indexed": true,
          "internalType": "address",
          "name": "from",
          "type": "address"
        },
        {
          "indexed": false,
          "internalType": "uint256",
          "name": "amount",
          "type": "uint256"
        },
        {
          "indexed": false,
          "internalType": "uint256",
          "name": "nonce",
          "type": "uint256"
        },
        {
          "indexed": false,
          "internalType": "bytes32",
          "name": "transferId",
          "type": "bytes32"
        }
      ],
      "name": "Locked",
      "type": "event"
    },
    {
      "anonymous": false,
      "inputs": [
        {
          "indexed": false,
          "internalType": "bytes32",
          "name": "newRoot",
          "type": "bytes32"
        }
      ],
      "name": "MerkleRootUpdated",
      "type": "event"
    },
    {
      "anonymous": false,
      "inputs": [
        {
          "indexed": true,
          "internalType": "bytes32",
          "name": "role",
          "type": "bytes32"
        },
        {
          "indexed": true,
          "internalType": "bytes32",
          "name": "previousAdminRole",
          "type": "bytes32"
        },
        {
          "indexed": true,
          "internalType": "bytes32",
          "name": "newAdminRole",
          "type": "bytes32"
        }
      ],
      "name": "RoleAdminChanged",
      "type": "event"
    },
    {
      "anonymous": false,
      "inputs": [
        {
          "indexed": true,
          "internalType": "bytes32",
          "name": "role",
          "type": "bytes32"
        },
        {
          "indexed": true,
          "internalType": "address",
          "name": "account",
          "type": "address"
        },
        {
          "indexed": true,
          "internalType": "address",
          "name": "sender",
          "type": "address"
        }
      ],
      "name": "RoleGranted",
      "type": "event"
    },
    {
      "anonymous": false,
      "inputs": [
        {
          "indexed": true,
          "internalType": "bytes32",
          "name": "role",
          "type": "bytes32"
        },
        {
          "indexed": true,
          "internalType": "address",
          "name": "account",
          "type": "address"
        },
        {
          "indexed": true,
          "internalType": "address",
          "name": "sender",
          "type": "address"
        }
      ],
      "name": "RoleRevoked",
      "type": "event"
    },
    {
      "anonymous": false,
      "inputs": [
        {
          "indexed": true,
          "internalType": "address",
          "name": "token",
          "type": "address"
        },
        {
          "indexed": true,
          "internalType": "address",
          "name": "to",
          "type": "address"
        },
        {
          "indexed": false,
          "internalType": "uint256",
          "name": "amount",
          "type": "uint256"
        },
        {
          "indexed": false,
          "internalType": "bytes32",
          "name": "transferId",
          "type": "bytes32"
        }
      ],
      "name": "Unlocked",
      "type": "event"
    },
    {
      "inputs": [],
      "name": "DEFAULT_ADMIN_ROLE",
      "outputs": [
        {
          "internalType": "bytes32",
          "name": "",
          "type": "bytes32"
        }
      ],
      "stateMutability": "view",
      "type": "function"
    },
    {
      "inputs": [],
      "name": "RELAYER_ROLE",
      "outputs": [
        {
          "internalType": "bytes32",
          "name": "",
          "type": "bytes32"
        }
      ],
      "stateMutability": "view",
      "type": "function"
    },
    {
      "inputs": [
        {
          "internalType": "address",
          "name": "relayer",
          "type": "address"
        }
      ],
      "name": "addRelayer",
      "outputs": [],
      "stateMutability": "nonpayable",
      "type": "function"
    },
    {
      "inputs": [
        {
          "internalType": "bytes32",
          "name": "role",
          "type": "bytes32"
        }
      ],
      "name": "getRoleAdmin",
      "outputs": [
        {
          "internalType": "bytes32",
          "name": "",
          "type": "bytes32"
        }
      ],
      "stateMutability": "view",
      "type": "function"
    },
    {
      "inputs": [
        {
          "internalType": "bytes32",
          "name": "role",
          "type": "bytes32"
        },
        {
          "internalType": "address",
          "name": "account",
          "type": "address"
        }
      ],
      "name": "grantRole",
      "outputs": [],
      "stateMutability": "nonpayable",
      "type": "function"
    },
    {
      "inputs": [
        {
          "internalType": "bytes32",
          "name": "role",
          "type": "bytes32"
        },
        {
          "internalType": "address",
          "name": "account",
          "type": "address"
        }
      ],
      "name": "hasRole",
      "outputs": [
        {
          "internalType": "bool",
          "name": "",
          "type": "bool"
        }
      ],
      "stateMutability": "view",
      "type": "function"
    },
    {
      "inputs": [
        {
          "internalType": "uint256",
          "name": "amount",
          "type": "uint256"
        }
      ],
      "name": "lock",
      "outputs": [],
      "stateMutability": "nonpayable",
      "type": "function"
    },
    {
      "inputs": [],
      "name": "merkleRoot",
      "outputs": [
        {
          "internalType": "bytes32",
          "name": "",
          "type": "bytes32"
        }
      ],
      "stateMutability": "view",
      "type": "function"
    },
    {
      "inputs": [],
      "name": "nonce",
      "outputs": [
        {
          "internalType": "uint256",
          "name": "",
          "type": "uint256"
        }
      ],
      "stateMutability": "view",
      "type": "function"
    },
    {
      "inputs": [
        {
          "internalType": "bytes32",
          "name": "",
          "type": "bytes32"
        }
      ],
      "name": "processedTransfers",
      "outputs": [
        {
          "internalType": "bool",
          "name": "",
          "type": "bool"
        }
      ],
      "stateMutability": "view",
      "type": "function"
    },
    {
      "inputs": [],
      "name": "remoteBridge",
      "outputs": [
        {
          "internalType": "address",
          "name": "",
          "type": "address"
        }
      ],
      "stateMutability": "view",
      "type": "function"
    },
    {
      "inputs": [
        {
          "internalType": "address",
          "name": "relayer",
          "type": "address"
        }
      ],
      "name": "removeRelayer",
      "outputs": [],
      "stateMutability": "nonpayable",
      "type": "function"
    },
    {
      "inputs": [
        {
          "internalType": "bytes32",
          "name": "role",
          "type": "bytes32"
        },
        {
          "internalType": "address",
          "name": "callerConfirmation",
          "type": "address"
        }
      ],
      "name": "renounceRole",
      "outputs": [],
      "stateMutability": "nonpayable",
      "type": "function"
    },
    {
      "inputs": [
        {
          "internalType": "bytes32",
          "name": "role",
          "type": "bytes32"
        },
        {
          "internalType": "address",
          "name": "account",
          "type": "address"
        }
      ],
      "name": "revokeRole",
      "outputs": [],
      "stateMutability": "nonpayable",
      "type": "function"
    },
    {
      "inputs": [
        {
          "internalType": "address",
          "name": "_remoteBridge",
          "type": "address"
        }
      ],
      "name": "setRemoteBridge",
      "outputs": [],
      "stateMutability": "nonpayable",
      "type": "function"
    },
    {
      "inputs": [
        {
          "internalType": "bytes4",
          "name": "interfaceId",
          "type": "bytes4"
        }
      ],
      "name": "supportsInterface",
      "outputs": [
        {
          "internalType": "bool",
          "name": "",
          "type": "bool"
        }
      ],
      "stateMutability": "view",
      "type": "function"
    },
    {
      "inputs": [],
      "name": "token",
      "outputs": [
        {
          "internalType": "contract IERC20Mintable",
          "name": "",
          "type": "address"
        }
      ],
      "stateMutability": "view",
      "type": "function"
    },
    {
      "inputs": [
        {
          "internalType": "address",
          "name": "user",
          "type": "address"
        },
        {
          "internalType": "uint256",
          "name": "amount",
          "type": "uint256"
        },
        {
          "internalType": "bytes32[]",
          "name": "merkleProof",
          "type": "bytes32[]"
        },
        {
          "internalType": "bytes32",
          "name": "transferId",
          "type": "bytes32"
        }
      ],
      "name": "unlock",
      "outputs": [],
      "stateMutability": "nonpayable",
      "type": "function"
    },
    {
      "inputs": [
        {
          "internalType": "bytes32",
          "name": "newRoot",
          "type": "bytes32"
        }
      ],
      "name": "updateMerkleRoot",
      "outputs": [],
      "stateMutability": "nonpayable",
      "type": "function"
    }
  ],
  "bytecode": "0x60806040523480156200001157600080fd5b5060405162001bf738038062001bf78339818101604052810190620000379190620002ae565b6001808190555080600260006101000a81548173ffffffffffffffffffffffffffffffffffffffff021916908373ffffffffffffffffffffffffffffffffffffffff160217905550620000946000801b33620000cf60201b60201c565b50620000c77fe2b7fb3b832174769106daebcfd6d1970523240dda11281102db9363b83b0dc433620000cf60201b60201c565b5050620002e0565b6000620000e38383620001d260201b60201c565b620001c757600160008085815260200190815260200160002060000160008473ffffffffffffffffffffffffffffffffffffffff1673ffffffffffffffffffffffffffffffffffffffff16815260200190815260200160002060006101000a81548160ff021916908315150217905550620001636200023c60201b60201c565b73ffffffffffffffffffffffffffffffffffffffff168273ffffffffffffffffffffffffffffffffffffffff16847f2f8788117e7eff1d82e926ec794901d17c78024a50270940304540a733656f0d60405160405180910390a460019050620001cc565b600090505b92915050565b600080600084815260200190815260200160002060000160008373ffffffffffffffffffffffffffffffffffffffff1673ffffffffffffffffffffffffffffffffffffffff16815260200190815260200160002060009054906101000a900460ff16905092915050565b600033905090565b600080fd5b600073ffffffffffffffffffffffffffffffffffffffff82169050919050565b6000620002768262000249565b9050919050565b620002888162000269565b81146200029457600080fd5b50565b600081519050620002a8816200027d565b92915050565b600060208284031215620002c757620002c662000244565b5b6000620002d78482850162000297565b91505092915050565b61190780620002f06000396000f3fe608060405234801561001057600080fd5b50600436106101215760003560e01c8063926d7d7f116100ad578063dd39f00d11610071578063dd39f00d146102f4578063dd46706414610310578063dd910d751461032c578063de3c05c91461035c578063fc0c546a1461037857610121565b8063926d7d7f14610260578063a217fddf1461027e578063affed0e01461029c578063c97123bb146102ba578063d547741f146102d857610121565b80632f2ff15d116100f45780632f2ff15d146101c057806336568abe146101dc5780634783f0ef146101f857806360f0a5ac1461021457806391d148541461023057610121565b806301ffc9a71461012657806316ce814914610156578063248a9ca3146101725780632eb4a7ab146101a2575b600080fd5b610140600480360381019061013b919061104b565b610396565b60405161014d9190611093565b60405180910390f35b610170600480360381019061016b919061110c565b610410565b005b61018c6004803603810190610187919061116f565b610462565b60405161019991906111ab565b60405180910390f35b6101aa610481565b6040516101b791906111ab565b60405180910390f35b6101da60048036038101906101d591906111c6565b610487565b005b6101f660048036038101906101f191906111c6565b6104a9565b005b610212600480360381019061020d919061116f565b610524565b005b61022e6004803603810190610229919061110c565b610590565b005b61024a600480360381019061024591906111c6565b6105cb565b6040516102579190611093565b60405180910390f35b610268610635565b60405161027591906111ab565b60405180910390f35b610286610659565b60405161029391906111ab565b60405180910390f35b6102a4610660565b6040516102b1919061121f565b60405180910390f35b6102c2610666565b6040516102cf9190611249565b60405180910390f35b6102f260048036038101906102ed91906111c6565b61068c565b005b61030e6004803603810190610309919061110c565b6106ae565b005b61032a60048036038101906103259190611290565b6106e9565b005b6103466004803603810190610341919061116f565b6108f7565b6040516103539190611093565b60405180910390f35b61037660048036038101906103719190611322565b610917565b005b610380610c0b565b60405161038d9190611409565b60405180910390f35b60007f7965db0b000000000000000000000000000000000000000000000000000000007bffffffffffffffffffffffffffffffffffffffffffffffffffffffff1916827bffffffffffffffffffffffffffffffffffffffffffffffffffffffff19161480610409575061040882610c31565b5b9050919050565b6000801b61041d81610c9b565b81600360006101000a81548173ffffffffffffffffffffffffffffffffffffffff021916908373ffffffffffffffffffffffffffffffffffffffff1602179055505050565b6000806000838152602001908152602001600020600101549050919050565b60045481565b61049082610462565b61049981610c9b565b6104a38383610caf565b50505050565b6104b1610da0565b73ffffffffffffffffffffffffffffffffffffffff168173ffffffffffffffffffffffffffffffffffffffff1614610515576040517f6697b23200000000000000000000000000000000000000000000000000000000815260040160405180910390fd5b61051f8282610da8565b505050565b7fe2b7fb3b832174769106daebcfd6d1970523240dda11281102db9363b83b0dc461054e81610c9b565b816004819055507f90004c04698bc3322499a575ed3752dd4abf33e0a7294c06a787a0fe01bea9418260405161058491906111ab565b60405180910390a15050565b6000801b61059d81610c9b565b6105c77fe2b7fb3b832174769106daebcfd6d1970523240dda11281102db9363b83b0dc48361068c565b5050565b600080600084815260200190815260200160002060000160008373ffffffffffffffffffffffffffffffffffffffff1673ffffffffffffffffffffffffffffffffffffffff16815260200190815260200160002060009054906101000a900460ff16905092915050565b7fe2b7fb3b832174769106daebcfd6d1970523240dda11281102db9363b83b0dc481565b6000801b81565b60065481565b600360009054906101000a900473ffffffffffffffffffffffffffffffffffffffff1681565b61069582610462565b61069e81610c9b565b6106a88383610da8565b50505050565b6000801b6106bb81610c9b565b6106e57fe2b7fb3b832174769106daebcfd6d1970523240dda11281102db9363b83b0dc483610487565b5050565b6106f1610e9a565b60008111610734576040517f08c379a000000000000000000000000000000000000000000000000000000000815260040161072b90611481565b60405180910390fd5b60066000815480929190610747906114d0565b9190505550600260009054906101000a900473ffffffffffffffffffffffffffffffffffffffff1673ffffffffffffffffffffffffffffffffffffffff166323b872dd3330846040518463ffffffff1660e01b81526004016107ab93929190611518565b6020604051808303816000875af11580156107ca573d6000803e3d6000fd5b505050506040513d601f19601f820116820180604052508101906107ee919061157b565b61082d576040517f08c379a0000000000000000000000000000000000000000000000000000000008152600401610824906115f4565b60405180910390fd5b600033826006546040516020016108469392919061167d565b6040516020818303038152906040528051906020012090503373ffffffffffffffffffffffffffffffffffffffff16600260009054906101000a900473ffffffffffffffffffffffffffffffffffffffff1673ffffffffffffffffffffffffffffffffffffffff167f7aa78006cc7a7618c8491857405853f301af6f51619f45603c6bb6cc9688668b84600654856040516108e3939291906116ba565b60405180910390a3506108f4610ee0565b50565b60056020528060005260406000206000915054906101000a900460ff1681565b61091f610e9a565b7fe2b7fb3b832174769106daebcfd6d1970523240dda11281102db9363b83b0dc461094981610c9b565b6005600083815260200190815260200160002060009054906101000a900460ff16156109aa576040517f08c379a00000000000000000000000000000000000000000000000000000000081526004016109a19061173d565b60405180910390fd5b60008686846040516020016109c19392919061177e565b604051602081830303815290604052805190602001209050610a27858580806020026020016040519081016040528093929190818152602001838360200280828437600081840152601f19601f8201169050808301925050505050505060045483610ee9565b610a66576040517f08c379a0000000000000000000000000000000000000000000000000000000008152600401610a5d90611807565b60405180910390fd5b60016005600085815260200190815260200160002060006101000a81548160ff021916908315150217905550600260009054906101000a900473ffffffffffffffffffffffffffffffffffffffff1673ffffffffffffffffffffffffffffffffffffffff1663a9059cbb88886040518363ffffffff1660e01b8152600401610aef929190611827565b6020604051808303816000875af1158015610b0e573d6000803e3d6000fd5b505050506040513d601f19601f82011682018060405250810190610b32919061157b565b610b71576040517f08c379a0000000000000000000000000000000000000000000000000000000008152600401610b68906115f4565b60405180910390fd5b8673ffffffffffffffffffffffffffffffffffffffff16600260009054906101000a900473ffffffffffffffffffffffffffffffffffffffff1673ffffffffffffffffffffffffffffffffffffffff167f8693b829bd514d88ff8c6c3d1fd02defcec4c851ab076e687ea3ddee6bc3f4ea8886604051610bf2929190611850565b60405180910390a35050610c04610ee0565b5050505050565b600260009054906101000a900473ffffffffffffffffffffffffffffffffffffffff1681565b60007f01ffc9a7000000000000000000000000000000000000000000000000000000007bffffffffffffffffffffffffffffffffffffffffffffffffffffffff1916827bffffffffffffffffffffffffffffffffffffffffffffffffffffffff1916149050919050565b610cac81610ca7610da0565b610f00565b50565b6000610cbb83836105cb565b610d9557600160008085815260200190815260200160002060000160008473ffffffffffffffffffffffffffffffffffffffff1673ffffffffffffffffffffffffffffffffffffffff16815260200190815260200160002060006101000a81548160ff021916908315150217905550610d32610da0565b73ffffffffffffffffffffffffffffffffffffffff168273ffffffffffffffffffffffffffffffffffffffff16847f2f8788117e7eff1d82e926ec794901d17c78024a50270940304540a733656f0d60405160405180910390a460019050610d9a565b600090505b92915050565b600033905090565b6000610db483836105cb565b15610e8f57600080600085815260200190815260200160002060000160008473ffffffffffffffffffffffffffffffffffffffff1673ffffffffffffffffffffffffffffffffffffffff16815260200190815260200160002060006101000a81548160ff021916908315150217905550610e2c610da0565b73ffffffffffffffffffffffffffffffffffffffff168273ffffffffffffffffffffffffffffffffffffffff16847ff6391f5c32d9c69d2a47ea670b442974b53935d1edc7fd64eb21e047a839171b60405160405180910390a460019050610e94565b600090505b92915050565b600260015403610ed6576040517f3ee5aeb500000000000000000000000000000000000000000000000000000000815260040160405180910390fd5b6002600181905550565b60018081905550565b600082610ef68584610f51565b1490509392505050565b610f0a82826105cb565b610f4d5780826040517fe2517d3f000000000000000000000000000000000000000000000000000000008152600401610f44929190611879565b60405180910390fd5b5050565b60008082905060005b8451811015610f9c57610f8782868381518110610f7a57610f796118a2565b5b6020026020010151610fa7565b91508080610f94906114d0565b915050610f5a565b508091505092915050565b6000818310610fbf57610fba8284610fd2565b610fca565b610fc98383610fd2565b5b905092915050565b600082600052816020526040600020905092915050565b600080fd5b600080fd5b60007fffffffff0000000000000000000000000000000000000000000000000000000082169050919050565b61102881610ff3565b811461103357600080fd5b50565b6000813590506110458161101f565b92915050565b60006020828403121561106157611060610fe9565b5b600061106f84828501611036565b91505092915050565b60008115159050919050565b61108d81611078565b82525050565b60006020820190506110a86000830184611084565b92915050565b600073ffffffffffffffffffffffffffffffffffffffff82169050919050565b60006110d9826110ae565b9050919050565b6110e9816110ce565b81146110f457600080fd5b50565b600081359050611106816110e0565b92915050565b60006020828403121561112257611121610fe9565b5b6000611130848285016110f7565b91505092915050565b6000819050919050565b61114c81611139565b811461115757600080fd5b50565b60008135905061116981611143565b92915050565b60006020828403121561118557611184610fe9565b5b60006111938482850161115a565b91505092915050565b6111a581611139565b82525050565b60006020820190506111c0600083018461119c565b92915050565b600080604083850312156111dd576111dc610fe9565b5b60006111eb8582860161115a565b92505060206111fc858286016110f7565b9150509250929050565b6000819050919050565b61121981611206565b82525050565b60006020820190506112346000830184611210565b92915050565b611243816110ce565b82525050565b600060208201905061125e600083018461123a565b92915050565b61126d81611206565b811461127857600080fd5b50565b60008135905061128a81611264565b92915050565b6000602082840312156112a6576112a5610fe9565b5b60006112b48482850161127b565b91505092915050565b600080fd5b600080fd5b600080fd5b60008083601f8401126112e2576112e16112bd565b5b8235905067ffffffffffffffff8111156112ff576112fe6112c2565b5b60208301915083602082028301111561131b5761131a6112c7565b5b9250929050565b60008060008060006080868803121561133e5761133d610fe9565b5b600061134c888289016110f7565b955050602061135d8882890161127b565b945050604086013567ffffffffffffffff81111561137e5761137d610fee565b5b61138a888289016112cc565b9350935050606061139d8882890161115a565b9150509295509295909350565b6000819050919050565b60006113cf6113ca6113c5846110ae565b6113aa565b6110ae565b9050919050565b60006113e1826113b4565b9050919050565b60006113f3826113d6565b9050919050565b611403816113e8565b82525050565b600060208201905061141e60008301846113fa565b92915050565b600082825260208201905092915050565b7f416d6f756e74206d7573742062652067726561746572207468616e2030000000600082015250565b600061146b601d83611424565b915061147682611435565b602082019050919050565b6000602082019050818103600083015261149a8161145e565b9050919050565b7f4e487b7100000000000000000000000000000000000000000000000000000000600052601160045260246000fd5b60006114db82611206565b91507fffffffffffffffffffffffffffffffffffffffffffffffffffffffffffffffff820361150d5761150c6114a1565b5b600182019050919050565b600060608201905061152d600083018661123a565b61153a602083018561123a565b6115476040830184611210565b949350505050565b61155881611078565b811461156357600080fd5b50565b6000815190506115758161154f565b92915050565b60006020828403121561159157611590610fe9565b5b600061159f84828501611566565b91505092915050565b7f5472616e73666572206661696c65640000000000000000000000000000000000600082015250565b60006115de600f83611424565b91506115e9826115a8565b602082019050919050565b6000602082019050818103600083015261160d816115d1565b9050919050565b60008160601b9050919050565b600061162c82611614565b9050919050565b600061163e82611621565b9050919050565b611656611651826110ce565b611633565b82525050565b6000819050919050565b61167761167282611206565b61165c565b82525050565b60006116898286611645565b6014820191506116998285611666565b6020820191506116a98284611666565b602082019150819050949350505050565b60006060820190506116cf6000830186611210565b6116dc6020830185611210565b6116e9604083018461119c565b949350505050565b7f5472616e7366657220616c72656164792070726f636573736564000000000000600082015250565b6000611727601a83611424565b9150611732826116f1565b602082019050919050565b600060208201905081810360008301526117568161171a565b9050919050565b6000819050919050565b61177861177382611139565b61175d565b82525050565b600061178a8286611645565b60148201915061179a8285611666565b6020820191506117aa8284611767565b602082019150819050949350505050565b7f496e76616c6964206d65726b6c652070726f6f66000000000000000000000000600082015250565b60006117f1601483611424565b91506117fc826117bb565b602082019050919050565b60006020820190508181036000830152611820816117e4565b9050919050565b600060408201905061183c600083018561123a565b6118496020830184611210565b9392505050565b60006040820190506118656000830185611210565b611872602083018461119c565b9392505050565b600060408201905061188e600083018561123a565b61189b602083018461119c565b9392505050565b7f4e487b7100000000000000000000000000000000000000000000000000000000600052603260045260246000fdfea2646970667358221220a14c3aa52f32daf96aa88e862032ce9d947668da3acd773ec630336b889effd764736f6c63430008140033",
  "linkReferences": {},
  "deployedLinkReferences": {}
}