{
  "_format": "hh-sol-artifact-1",
  "contractName": "Token",
  "sourceName": "contracts/Token.sol",
  "abi": [
    {
      "inputs": [
        {
          "internalType": "string",
          "name": "name",
          "type": "string"
        },
        {
          "internalType": "string",
          "name": "symbol",
          "type": "string"
        },
        {
          "internalType": "uint256",
          "name": "initialSupply",
          "type": "uint256"
        },
        {
          "internalType": "address",
          "name": "admin",
          "type": "address"
        }
      ],
      "stateMutability": "nonpayable",
      "type": "constructor"
    },
    {
      "inputs": [],
      "name": "AccessControlBadConfirmation",
      "type": "error"
    },
    {
      "inputs": [
        {
          "internalType": "address",
          "name": "account",
          "type": "address"
        },
        {
          "internalType": "bytes32",
          "name": "neededRole",
          "type": "bytes32"
        }
      ],
      "name": "AccessControlUnauthorizedAccount",
      "type": "error"
    },
    {
      "inputs": [
        {
          "internalType": "address",
          "name": "spender",
          "type": "address"
        },
        {
          "internalType": "uint256",
          "name": "allowance",
          "type": "uint256"
        },
        {
          "internalType": "uint256",
          "name": "needed",
          "type": "uint256"
        }
      ],
      "name": "ERC20InsufficientAllowance",
      "type": "error"
    },
    {
      "inputs": [
        {
          "internalType": "address",
          "name": "sender",
          "type": "address"
        },
        {
          "internalType": "uint256",
          "name": "balance",
          "type": "uint256"
        },
        {
          "internalType": "uint256",
          "name": "needed",
          "type": "uint256"
        }
      ],
      "name": "ERC20InsufficientBalance",
      "type": "error"
    },
    {
      "inputs": [
        {
          "internalType": "address",
          "name": "approver",
          "type": "address"
        }
      ],
      "name": "ERC20InvalidApprover",
      "type": "error"
    },
    {
      "inputs": [
        {
          "internalType": "address",
          "name": "receiver",
          "type": "address"
        }
      ],
      "name": "ERC20InvalidReceiver",
      "type": "error"
    },
    {
      "inputs": [
        {
          "internalType": "address",
          "name": "sender",
          "type": "address"
        }
      ],
      "name": "ERC20InvalidSender",
      "type": "error"
    },
    {
      "inputs": [
        {
          "internalType": "address",
          "name": "spender",
          "type": "address"
        }
      ],
      "name": "ERC20InvalidSpender",
      "type": "error"
    },
    {
      "inputs": [],
      "name": "EnforcedPause",
      "type": "error"
    },
    {
      "inputs": [],
      "name": "ExpectedPause",
      "type": "error"
    },
    {
      "anonymous": false,
      "inputs": [
        {
          "indexed": true,
          "internalType": "address",
          "name": "owner",
          "type": "address"
        },
        {
          "indexed": true,
          "internalType": "address",
          "name": "spender",
          "type": "address"
        },
        {
          "indexed": false,
          "internalType": "uint256",
          "name": "value",
          "type": "uint256"
        }
      ],
      "name": "Approval",
      "type": "event"
    },
    {
      "anonymous": false,
      "inputs": [
        {
          "indexed": false,
          "internalType": "address",
          "name": "account",
          "type": "address"
        }
      ],
      "name": "Paused",
      "type": "event"
    },
    {
      "anonymous": false,
      "inputs": [
        {
          "indexed": true,
          "internalType": "bytes32",
          "name": "role",
          "type": "bytes32"
        },
        {
          "indexed": true,
          "internalType": "bytes32",
          "name": "previousAdminRole",
          "type": "bytes32"
        },
        {
          "indexed": true,
          "internalType": "bytes32",
          "name": "newAdminRole",
          "type": "bytes32"
        }
      ],
      "name": "RoleAdminChanged",
      "type": "event"
    },
    {
      "anonymous": false,
      "inputs": [
        {
          "indexed": true,
          "internalType": "bytes32",
          "name": "role",
          "type": "bytes32"
        },
        {
          "indexed": true,
          "internalType": "address",
          "name": "account",
          "type": "address"
        },
        {
          "indexed": true,
          "internalType": "address",
          "name": "sender",
          "type": "address"
        }
      ],
      "name": "RoleGranted",
      "type": "event"
    },
    {
      "anonymous": false,
      "inputs": [
        {
          "indexed": true,
          "internalType": "bytes32",
          "name": "role",
          "type": "bytes32"
        },
        {
          "indexed": true,
          "internalType": "address",
          "name": "account",
          "type": "address"
        },
        {
          "indexed": true,
          "internalType": "address",
          "name": "sender",
          "type": "address"
        }
      ],
      "name": "RoleRevoked",
      "type": "event"
    },
    {
      "anonymous": false,
      "inputs": [
        {
          "indexed": true,
          "internalType": "address",
          "name": "from",
          "type": "address"
        },
        {
          "indexed": true,
          "internalType": "address",
          "name": "to",
          "type": "address"
        },
        {
          "indexed": false,
          "internalType": "uint256",
          "name": "value",
          "type": "uint256"
        }
      ],
      "name": "Transfer",
      "type": "event"
    },
    {
      "anonymous": false,
      "inputs": [
        {
          "indexed": false,
          "internalType": "address",
          "name": "account",
          "type": "address"
        }
      ],
      "name": "Unpaused",
      "type": "event"
    },
    {
      "inputs": [],
      "name": "BURNER_ROLE",
      "outputs": [
        {
          "internalType": "bytes32",
          "name": "",
          "type": "bytes32"
        }
      ],
      "stateMutability": "view",
      "type": "function"
    },
    {
      "inputs": [],
      "name": "DEFAULT_ADMIN_ROLE",
      "outputs": [
        {
          "internalType": "bytes32",
          "name": "",
          "type": "bytes32"
        }
      ],
      "stateMutability": "view",
      "type": "function"
    },
    {
      "inputs": [],
      "name": "MINTER_ROLE",
      "outputs": [
        {
          "internalType": "bytes32",
          "name": "",
          "type": "bytes32"
        }
      ],
      "stateMutability": "view",
      "type": "function"
    },
    {
      "inputs": [],
      "name": "PAUSER_ROLE",
      "outputs": [
        {
          "internalType": "bytes32",
          "name": "",
          "type": "bytes32"
        }
      ],
      "stateMutability": "view",
      "type": "function"
    },
    {
      "inputs": [
        {
          "internalType": "address",
          "name": "owner",
          "type": "address"
        },
        {
          "internalType": "address",
          "name": "spender",
          "type": "address"
        }
      ],
      "name": "allowance",
      "outputs": [
        {
          "internalType": "uint256",
          "name": "",
          "type": "uint256"
        }
      ],
      "stateMutability": "view",
      "type": "function"
    },
    {
      "inputs": [
        {
          "internalType": "address",
          "name": "spender",
          "type": "address"
        },
        {
          "internalType": "uint256",
          "name": "value",
          "type": "uint256"
        }
      ],
      "name": "approve",
      "outputs": [
        {
          "internalType": "bool",
          "name": "",
          "type": "bool"
        }
      ],
      "stateMutability": "nonpayable",
      "type": "function"
    },
    {
      "inputs": [
        {
          "internalType": "address",
          "name": "account",
          "type": "address"
        }
      ],
      "name": "balanceOf",
      "outputs": [
        {
          "internalType": "uint256",
          "name": "",
          "type": "uint256"
        }
      ],
      "stateMutability": "view",
      "type": "function"
    },
    {
      "inputs": [
        {
          "internalType": "address",
          "name": "from",
          "type": "address"
        },
        {
          "internalType": "uint256",
          "name": "amount",
          "type": "uint256"
        }
      ],
      "name": "burn",
      "outputs": [],
      "stateMutability": "nonpayable",
      "type": "function"
    },
    {
      "inputs": [],
      "name": "decimals",
      "outputs": [
        {
          "internalType": "uint8",
          "name": "",
          "type": "uint8"
        }
      ],
      "stateMutability": "view",
      "type": "function"
    },
    {
      "inputs": [
        {
          "internalType": "bytes32",
          "name": "role",
          "type": "bytes32"
        }
      ],
      "name": "getRoleAdmin",
      "outputs": [
        {
          "internalType": "bytes32",
          "name": "",
          "type": "bytes32"
        }
      ],
      "stateMutability": "view",
      "type": "function"
    },
    {
      "inputs": [
        {
          "internalType": "bytes32",
          "name": "role",
          "type": "bytes32"
        },
        {
          "internalType": "address",
          "name": "account",
          "type": "address"
        }
      ],
      "name": "grantRole",
      "outputs": [],
      "stateMutability": "nonpayable",
      "type": "function"
    },
    {
      "inputs": [
        {
          "internalType": "bytes32",
          "name": "role",
          "type": "bytes32"
        },
        {
          "internalType": "address",
          "name": "account",
          "type": "address"
        }
      ],
      "name": "hasRole",
      "outputs": [
        {
          "internalType": "bool",
          "name": "",
          "type": "bool"
        }
      ],
      "stateMutability": "view",
      "type": "function"
    },
    {
      "inputs": [
        {
          "internalType": "address",
          "name": "to",
          "type": "address"
        },
        {
          "internalType": "uint256",
          "name": "amount",
          "type": "uint256"
        }
      ],
      "name": "mint",
      "outputs": [],
      "stateMutability": "nonpayable",
      "type": "function"
    },
    {
      "inputs": [],
      "name": "name",
      "outputs": [
        {
          "internalType": "string",
          "name": "",
          "type": "string"
        }
      ],
      "stateMutability": "view",
      "type": "function"
    },
    {
      "inputs": [],
      "name": "pause",
      "outputs": [],
      "stateMutability": "nonpayable",
      "type": "function"
    },
    {
      "inputs": [],
      "name": "paused",
      "outputs": [
        {
          "internalType": "bool",
          "name": "",
          "type": "bool"
        }
      ],
      "stateMutability": "view",
      "type": "function"
    },
    {
      "inputs": [
        {
          "internalType": "bytes32",
          "name": "role",
          "type": "bytes32"
        },
        {
          "internalType": "address",
          "name": "callerConfirmation",
          "type": "address"
        }
      ],
      "name": "renounceRole",
      "outputs": [],
      "stateMutability": "nonpayable",
      "type": "function"
    },
    {
      "inputs": [
        {
          "internalType": "bytes32",
          "name": "role",
          "type": "bytes32"
        },
        {
          "internalType": "address",
          "name": "account",
          "type": "address"
        }
      ],
      "name": "revokeRole",
      "outputs": [],
      "stateMutability": "nonpayable",
      "type": "function"
    },
    {
      "inputs": [
        {
          "internalType": "bytes4",
          "name": "interfaceId",
          "type": "bytes4"
        }
      ],
      "name": "supportsInterface",
      "outputs": [
        {
          "internalType": "bool",
          "name": "",
          "type": "bool"
        }
      ],
      "stateMutability": "view",
      "type": "function"
    },
    {
      "inputs": [],
      "name": "symbol",
      "outputs": [
        {
          "internalType": "string",
          "name": "",
          "type": "string"
        }
      ],
      "stateMutability": "view",
      "type": "function"
    },
    {
      "inputs": [],
      "name": "totalSupply",
      "outputs": [
        {
          "internalType": "uint256",
          "name": "",
          "type": "uint256"
        }
      ],
      "stateMutability": "view",
      "type": "function"
    },
    {
      "inputs": [
        {
          "internalType": "address",
          "name": "to",
          "type": "address"
        },
        {
          "internalType": "uint256",
          "name": "amount",
          "type": "uint256"
        }
      ],
      "name": "transfer",
      "outputs": [
        {
          "internalType": "bool",
          "name": "",
          "type": "bool"
        }
      ],
      "stateMutability": "nonpayable",
      "type": "function"
    },
    {
      "inputs": [
        {
          "internalType": "address",
          "name": "from",
          "type": "address"
        },
        {
          "internalType": "address",
          "name": "to",
          "type": "address"
        },
        {
          "internalType": "uint256",
          "name": "amount",
          "type": "uint256"
        }
      ],
      "name": "transferFrom",
      "outputs": [
        {
          "internalType": "bool",
          "name": "",
          "type": "bool"
        }
      ],
      "stateMutability": "nonpayable",
      "type": "function"
    },
    {
      "inputs": [],
      "name": "unpause",
      "outputs": [],
      "stateMutability": "nonpayable",
      "type": "function"
    }
  ],
  "bytecode": "0x60806040523480156200001157600080fd5b5060405162002996380380620029968339818101604052810190620000379190620007df565b838381600390816200004a919062000ad0565b5080600490816200005c919062000ad0565b5050506000600660006101000a81548160ff0219169083151502179055506200008f6000801b826200016f60201b60201c565b50620000c27f9f2df0fed2c77648de5860a4cc508cd0818c85b8b8a1ab4ceeef8d981c8956a6826200016f60201b60201c565b50620000f57f3c11d16cbaffd01df69ce1c404f6340ee057498f5f00246190ea54220576a848826200016f60201b60201c565b50620001287f65d7a28e3265b37a6474929f336521b332c1681b933f6cb9f3376673440d862a826200016f60201b60201c565b5062000165336200013e6200027360201b60201c565b600a6200014c919062000d47565b8462000159919062000d98565b6200027c60201b60201c565b5050505062000eb7565b60006200018383836200030960201b60201c565b620002685760016005600085815260200190815260200160002060000160008473ffffffffffffffffffffffffffffffffffffffff1673ffffffffffffffffffffffffffffffffffffffff16815260200190815260200160002060006101000a81548160ff021916908315150217905550620002046200037460201b60201c565b73ffffffffffffffffffffffffffffffffffffffff168273ffffffffffffffffffffffffffffffffffffffff16847f2f8788117e7eff1d82e926ec794901d17c78024a50270940304540a733656f0d60405160405180910390a4600190506200026d565b600090505b92915050565b60006012905090565b600073ffffffffffffffffffffffffffffffffffffffff168273ffffffffffffffffffffffffffffffffffffffff1603620002f15760006040517fec442f05000000000000000000000000000000000000000000000000000000008152600401620002e8919062000df4565b60405180910390fd5b62000305600083836200037c60201b60201c565b5050565b60006005600084815260200190815260200160002060000160008373ffffffffffffffffffffffffffffffffffffffff1673ffffffffffffffffffffffffffffffffffffffff16815260200190815260200160002060009054906101000a900460ff16905092915050565b600033905090565b600073ffffffffffffffffffffffffffffffffffffffff168373ffffffffffffffffffffffffffffffffffffffff1603620003d2578060026000828254620003c5919062000e11565b92505081905550620004a8565b60008060008573ffffffffffffffffffffffffffffffffffffffff1673ffffffffffffffffffffffffffffffffffffffff1681526020019081526020016000205490508181101562000461578381836040517fe450d38c000000000000000000000000000000000000000000000000000000008152600401620004589392919062000e5d565b60405180910390fd5b8181036000808673ffffffffffffffffffffffffffffffffffffffff1673ffffffffffffffffffffffffffffffffffffffff16815260200190815260200160002081905550505b600073ffffffffffffffffffffffffffffffffffffffff168273ffffffffffffffffffffffffffffffffffffffff1603620004f3578060026000828254039250508190555062000540565b806000808473ffffffffffffffffffffffffffffffffffffffff1673ffffffffffffffffffffffffffffffffffffffff168152602001908152602001600020600082825401925050819055505b8173ffffffffffffffffffffffffffffffffffffffff168373ffffffffffffffffffffffffffffffffffffffff167fddf252ad1be2c89b69c2b068fc378daa952ba7f163c4a11628f55a4df523b3ef836040516200059f919062000e9a565b60405180910390a3505050565b6000604051905090565b600080fd5b600080fd5b600080fd5b600080fd5b6000601f19601f8301169050919050565b7f4e487b7100000000000000000000000000000000000000000000000000000000600052604160045260246000fd5b6200061582620005ca565b810181811067ffffffffffffffff82111715620006375762000636620005db565b5b80604052505050565b60006200064c620005ac565b90506200065a82826200060a565b919050565b600067ffffffffffffffff8211156200067d576200067c620005db565b5b6200068882620005ca565b9050602081019050919050565b60005b83811015620006b557808201518184015260208101905062000698565b60008484015250505050565b6000620006d8620006d2846200065f565b62000640565b905082815260208101848484011115620006f757620006f6620005c5565b5b6200070484828562000695565b509392505050565b600082601f830112620007245762000723620005c0565b5b815162000736848260208601620006c1565b91505092915050565b6000819050919050565b62000754816200073f565b81146200076057600080fd5b50565b600081519050620007748162000749565b92915050565b600073ffffffffffffffffffffffffffffffffffffffff82169050919050565b6000620007a7826200077a565b9050919050565b620007b9816200079a565b8114620007c557600080fd5b50565b600081519050620007d981620007ae565b92915050565b60008060008060808587031215620007fc57620007fb620005b6565b5b600085015167ffffffffffffffff8111156200081d576200081c620005bb565b5b6200082b878288016200070c565b945050602085015167ffffffffffffffff8111156200084f576200084e620005bb565b5b6200085d878288016200070c565b9350506040620008708782880162000763565b92505060606200088387828801620007c8565b91505092959194509250565b600081519050919050565b7f4e487b7100000000000000000000000000000000000000000000000000000000600052602260045260246000fd5b60006002820490506001821680620008e257607f821691505b602082108103620008f857620008f76200089a565b5b50919050565b60008190508160005260206000209050919050565b60006020601f8301049050919050565b600082821b905092915050565b600060088302620009627fffffffffffffffffffffffffffffffffffffffffffffffffffffffffffffffff8262000923565b6200096e868362000923565b95508019841693508086168417925050509392505050565b6000819050919050565b6000620009b1620009ab620009a5846200073f565b62000986565b6200073f565b9050919050565b6000819050919050565b620009cd8362000990565b620009e5620009dc82620009b8565b84845462000930565b825550505050565b600090565b620009fc620009ed565b62000a09818484620009c2565b505050565b5b8181101562000a315762000a25600082620009f2565b60018101905062000a0f565b5050565b601f82111562000a805762000a4a81620008fe565b62000a558462000913565b8101602085101562000a65578190505b62000a7d62000a748562000913565b83018262000a0e565b50505b505050565b600082821c905092915050565b600062000aa56000198460080262000a85565b1980831691505092915050565b600062000ac0838362000a92565b9150826002028217905092915050565b62000adb826200088f565b67ffffffffffffffff81111562000af75762000af6620005db565b5b62000b038254620008c9565b62000b1082828562000a35565b600060209050601f83116001811462000b48576000841562000b33578287015190505b62000b3f858262000ab2565b86555062000baf565b601f19841662000b5886620008fe565b60005b8281101562000b825784890151825560018201915060208501945060208101905062000b5b565b8683101562000ba2578489015162000b9e601f89168262000a92565b8355505b6001600288020188555050505b505050505050565b7f4e487b7100000000000000000000000000000000000000000000000000000000600052601160045260246000fd5b60008160011c9050919050565b6000808291508390505b600185111562000c455780860481111562000c1d5762000c1c62000bb7565b5b600185161562000c2d5780820291505b808102905062000c3d8562000be6565b945062000bfd565b94509492505050565b60008262000c60576001905062000d33565b8162000c70576000905062000d33565b816001811462000c89576002811462000c945762000cca565b600191505062000d33565b60ff84111562000ca95762000ca862000bb7565b5b8360020a91508482111562000cc35762000cc262000bb7565b5b5062000d33565b5060208310610133831016604e8410600b841016171562000d045782820a90508381111562000cfe5762000cfd62000bb7565b5b62000d33565b62000d13848484600162000bf3565b9250905081840481111562000d2d5762000d2c62000bb7565b5b81810290505b9392505050565b600060ff82169050919050565b600062000d54826200073f565b915062000d618362000d3a565b925062000d907fffffffffffffffffffffffffffffffffffffffffffffffffffffffffffffffff848462000c4e565b905092915050565b600062000da5826200073f565b915062000db2836200073f565b925082820262000dc2816200073f565b9150828204841483151762000ddc5762000ddb62000bb7565b5b5092915050565b62000dee816200079a565b82525050565b600060208201905062000e0b600083018462000de3565b92915050565b600062000e1e826200073f565b915062000e2b836200073f565b925082820190508082111562000e465762000e4562000bb7565b5b92915050565b62000e57816200073f565b82525050565b600060608201905062000e74600083018662000de3565b62000e83602083018562000e4c565b62000e92604083018462000e4c565b949350505050565b600060208201905062000eb1600083018462000e4c565b92915050565b611acf8062000ec76000396000f3fe608060405234801561001057600080fd5b50600436106101585760003560e01c80635c975abb116100c3578063a217fddf1161007c578063a217fddf146103b5578063a9059cbb146103d3578063d539139314610403578063d547741f14610421578063dd62ed3e1461043d578063e63ab1e91461046d57610158565b80635c975abb146102f357806370a08231146103115780638456cb591461034157806391d148541461034b57806395d89b411461037b5780639dc29fac1461039957610158565b8063282c51f311610115578063282c51f3146102595780632f2ff15d14610277578063313ce5671461029357806336568abe146102b15780633f4ba83a146102cd57806340c10f19146102d757610158565b806301ffc9a71461015d57806306fdde031461018d578063095ea7b3146101ab57806318160ddd146101db57806323b872dd146101f9578063248a9ca314610229575b600080fd5b61017760048036038101906101729190611575565b61048b565b60405161018491906115bd565b60405180910390f35b610195610505565b6040516101a29190611668565b60405180910390f35b6101c560048036038101906101c0919061171e565b610597565b6040516101d291906115bd565b60405180910390f35b6101e36105ba565b6040516101f0919061176d565b60405180910390f35b610213600480360381019061020e9190611788565b6105c4565b60405161022091906115bd565b60405180910390f35b610243600480360381019061023e9190611811565b6105e2565b604051610250919061184d565b60405180910390f35b610261610602565b60405161026e919061184d565b60405180910390f35b610291600480360381019061028c9190611868565b610626565b005b61029b610648565b6040516102a891906118c4565b60405180910390f35b6102cb60048036038101906102c69190611868565b610651565b005b6102d56106cc565b005b6102f160048036038101906102ec919061171e565b610701565b005b6102fb610742565b60405161030891906115bd565b60405180910390f35b61032b600480360381019061032691906118df565b610759565b604051610338919061176d565b60405180910390f35b6103496107a1565b005b61036560048036038101906103609190611868565b6107d6565b60405161037291906115bd565b60405180910390f35b610383610841565b6040516103909190611668565b60405180910390f35b6103b360048036038101906103ae919061171e565b6108d3565b005b6103bd610914565b6040516103ca919061184d565b60405180910390f35b6103ed60048036038101906103e8919061171e565b61091b565b6040516103fa91906115bd565b60405180910390f35b61040b610937565b604051610418919061184d565b60405180910390f35b61043b60048036038101906104369190611868565b61095b565b005b6104576004803603810190610452919061190c565b61097d565b604051610464919061176d565b60405180910390f35b610475610a04565b604051610482919061184d565b60405180910390f35b60007f7965db0b000000000000000000000000000000000000000000000000000000007bffffffffffffffffffffffffffffffffffffffffffffffffffffffff1916827bffffffffffffffffffffffffffffffffffffffffffffffffffffffff191614806104fe57506104fd82610a28565b5b9050919050565b6060600380546105149061197b565b80601f01602080910402602001604051908101604052809291908181526020018280546105409061197b565b801561058d5780601f106105625761010080835404028352916020019161058d565b820191906000526020600020905b81548152906001019060200180831161057057829003601f168201915b5050505050905090565b6000806105a2610a92565b90506105af818585610a9a565b600191505092915050565b6000600254905090565b60006105ce610aac565b6105d9848484610aed565b90509392505050565b600060056000838152602001908152602001600020600101549050919050565b7f3c11d16cbaffd01df69ce1c404f6340ee057498f5f00246190ea54220576a84881565b61062f826105e2565b61063881610b1c565b6106428383610b30565b50505050565b60006012905090565b610659610a92565b73ffffffffffffffffffffffffffffffffffffffff168173ffffffffffffffffffffffffffffffffffffffff16146106bd576040517f6697b23200000000000000000000000000000000000000000000000000000000815260040160405180910390fd5b6106c78282610c22565b505050565b7f65d7a28e3265b37a6474929f336521b332c1681b933f6cb9f3376673440d862a6106f681610b1c565b6106fe610d15565b50565b7f9f2df0fed2c77648de5860a4cc508cd0818c85b8b8a1ab4ceeef8d981c8956a661072b81610b1c565b610733610aac565b61073d8383610d78565b505050565b6000600660009054906101000a900460ff16905090565b60008060008373ffffffffffffffffffffffffffffffffffffffff1673ffffffffffffffffffffffffffffffffffffffff168152602001908152602001600020549050919050565b7f65d7a28e3265b37a6474929f336521b332c1681b933f6cb9f3376673440d862a6107cb81610b1c565b6107d3610dfa565b50565b60006005600084815260200190815260200160002060000160008373ffffffffffffffffffffffffffffffffffffffff1673ffffffffffffffffffffffffffffffffffffffff16815260200190815260200160002060009054906101000a900460ff16905092915050565b6060600480546108509061197b565b80601f016020809104026020016040519081016040528092919081815260200182805461087c9061197b565b80156108c95780601f1061089e576101008083540402835291602001916108c9565b820191906000526020600020905b8154815290600101906020018083116108ac57829003601f168201915b5050505050905090565b7f3c11d16cbaffd01df69ce1c404f6340ee057498f5f00246190ea54220576a8486108fd81610b1c565b610905610aac565b61090f8383610e5d565b505050565b6000801b81565b6000610925610aac565b61092f8383610edf565b905092915050565b7f9f2df0fed2c77648de5860a4cc508cd0818c85b8b8a1ab4ceeef8d981c8956a681565b610964826105e2565b61096d81610b1c565b6109778383610c22565b50505050565b6000600160008473ffffffffffffffffffffffffffffffffffffffff1673ffffffffffffffffffffffffffffffffffffffff16815260200190815260200160002060008373ffffffffffffffffffffffffffffffffffffffff1673ffffffffffffffffffffffffffffffffffffffff16815260200190815260200160002054905092915050565b7f65d7a28e3265b37a6474929f336521b332c1681b933f6cb9f3376673440d862a81565b60007f01ffc9a7000000000000000000000000000000000000000000000000000000007bffffffffffffffffffffffffffffffffffffffffffffffffffffffff1916827bffffffffffffffffffffffffffffffffffffffffffffffffffffffff1916149050919050565b600033905090565b610aa78383836001610f02565b505050565b610ab4610742565b15610aeb576040517fd93c066500000000000000000000000000000000000000000000000000000000815260040160405180910390fd5b565b600080610af8610a92565b9050610b058582856110d9565b610b1085858561116e565b60019150509392505050565b610b2d81610b28610a92565b611262565b50565b6000610b3c83836107d6565b610c175760016005600085815260200190815260200160002060000160008473ffffffffffffffffffffffffffffffffffffffff1673ffffffffffffffffffffffffffffffffffffffff16815260200190815260200160002060006101000a81548160ff021916908315150217905550610bb4610a92565b73ffffffffffffffffffffffffffffffffffffffff168273ffffffffffffffffffffffffffffffffffffffff16847f2f8788117e7eff1d82e926ec794901d17c78024a50270940304540a733656f0d60405160405180910390a460019050610c1c565b600090505b92915050565b6000610c2e83836107d6565b15610d0a5760006005600085815260200190815260200160002060000160008473ffffffffffffffffffffffffffffffffffffffff1673ffffffffffffffffffffffffffffffffffffffff16815260200190815260200160002060006101000a81548160ff021916908315150217905550610ca7610a92565b73ffffffffffffffffffffffffffffffffffffffff168273ffffffffffffffffffffffffffffffffffffffff16847ff6391f5c32d9c69d2a47ea670b442974b53935d1edc7fd64eb21e047a839171b60405160405180910390a460019050610d0f565b600090505b92915050565b610d1d6112b3565b6000600660006101000a81548160ff0219169083151502179055507f5db9ee0a495bf2e6ff9c91a7834c1ba4fdd244a5e8aa4e537bd38aeae4b073aa610d61610a92565b604051610d6e91906119bb565b60405180910390a1565b600073ffffffffffffffffffffffffffffffffffffffff168273ffffffffffffffffffffffffffffffffffffffff1603610dea5760006040517fec442f05000000000000000000000000000000000000000000000000000000008152600401610de191906119bb565b60405180910390fd5b610df6600083836112f3565b5050565b610e02610aac565b6001600660006101000a81548160ff0219169083151502179055507f62e78cea01bee320cd4e420270b5ea74000d11b0c9f74754ebdbfc544b05a258610e46610a92565b604051610e5391906119bb565b60405180910390a1565b600073ffffffffffffffffffffffffffffffffffffffff168273ffffffffffffffffffffffffffffffffffffffff1603610ecf5760006040517f96c6fd1e000000000000000000000000000000000000000000000000000000008152600401610ec691906119bb565b60405180910390fd5b610edb826000836112f3565b5050565b600080610eea610a92565b9050610ef781858561116e565b600191505092915050565b600073ffffffffffffffffffffffffffffffffffffffff168473ffffffffffffffffffffffffffffffffffffffff1603610f745760006040517fe602df05000000000000000000000000000000000000000000000000000000008152600401610f6b91906119bb565b60405180910390fd5b600073ffffffffffffffffffffffffffffffffffffffff168373ffffffffffffffffffffffffffffffffffffffff1603610fe65760006040517f94280d62000000000000000000000000000000000000000000000000000000008152600401610fdd91906119bb565b60405180910390fd5b81600160008673ffffffffffffffffffffffffffffffffffffffff1673ffffffffffffffffffffffffffffffffffffffff16815260200190815260200160002060008573ffffffffffffffffffffffffffffffffffffffff1673ffffffffffffffffffffffffffffffffffffffff1681526020019081526020016000208190555080156110d3578273ffffffffffffffffffffffffffffffffffffffff168473ffffffffffffffffffffffffffffffffffffffff167f8c5be1e5ebec7d5bd14f71427d1e84f3dd0314c0f7b2291e5b200ac8c7c3b925846040516110ca919061176d565b60405180910390a35b50505050565b60006110e5848461097d565b90507fffffffffffffffffffffffffffffffffffffffffffffffffffffffffffffffff8110156111685781811015611158578281836040517ffb8f41b200000000000000000000000000000000000000000000000000000000815260040161114f939291906119d6565b60405180910390fd5b61116784848484036000610f02565b5b50505050565b600073ffffffffffffffffffffffffffffffffffffffff168373ffffffffffffffffffffffffffffffffffffffff16036111e05760006040517f96c6fd1e0000000000000000000000000000000000000000000000000000000081526004016111d791906119bb565b60405180910390fd5b600073ffffffffffffffffffffffffffffffffffffffff168273ffffffffffffffffffffffffffffffffffffffff16036112525760006040517fec442f0500000000000000000000000000000000000000000000000000000000815260040161124991906119bb565b60405180910390fd5b61125d8383836112f3565b505050565b61126c82826107d6565b6112af5780826040517fe2517d3f0000000000000000000000000000000000000000000000000000000081526004016112a6929190611a0d565b60405180910390fd5b5050565b6112bb610742565b6112f1576040517f8dfc202b00000000000000000000000000000000000000000000000000000000815260040160405180910390fd5b565b600073ffffffffffffffffffffffffffffffffffffffff168373ffffffffffffffffffffffffffffffffffffffff16036113455780600260008282546113399190611a65565b92505081905550611418565b60008060008573ffffffffffffffffffffffffffffffffffffffff1673ffffffffffffffffffffffffffffffffffffffff168152602001908152602001600020549050818110156113d1578381836040517fe450d38c0000000000000000000000000000000000000000000000000000000081526004016113c8939291906119d6565b60405180910390fd5b8181036000808673ffffffffffffffffffffffffffffffffffffffff1673ffffffffffffffffffffffffffffffffffffffff16815260200190815260200160002081905550505b600073ffffffffffffffffffffffffffffffffffffffff168273ffffffffffffffffffffffffffffffffffffffff160361146157806002600082825403925050819055506114ae565b806000808473ffffffffffffffffffffffffffffffffffffffff1673ffffffffffffffffffffffffffffffffffffffff168152602001908152602001600020600082825401925050819055505b8173ffffffffffffffffffffffffffffffffffffffff168373ffffffffffffffffffffffffffffffffffffffff167fddf252ad1be2c89b69c2b068fc378daa952ba7f163c4a11628f55a4df523b3ef8360405161150b919061176d565b60405180910390a3505050565b600080fd5b60007fffffffff0000000000000000000000000000000000000000000000000000000082169050919050565b6115528161151d565b811461155d57600080fd5b50565b60008135905061156f81611549565b92915050565b60006020828403121561158b5761158a611518565b5b600061159984828501611560565b91505092915050565b60008115159050919050565b6115b7816115a2565b82525050565b60006020820190506115d260008301846115ae565b92915050565b600081519050919050565b600082825260208201905092915050565b60005b838110156116125780820151818401526020810190506115f7565b60008484015250505050565b6000601f19601f8301169050919050565b600061163a826115d8565b61164481856115e3565b93506116548185602086016115f4565b61165d8161161e565b840191505092915050565b60006020820190508181036000830152611682818461162f565b905092915050565b600073ffffffffffffffffffffffffffffffffffffffff82169050919050565b60006116b58261168a565b9050919050565b6116c5816116aa565b81146116d057600080fd5b50565b6000813590506116e2816116bc565b92915050565b6000819050919050565b6116fb816116e8565b811461170657600080fd5b50565b600081359050611718816116f2565b92915050565b6000806040838503121561173557611734611518565b5b6000611743858286016116d3565b925050602061175485828601611709565b9150509250929050565b611767816116e8565b82525050565b6000602082019050611782600083018461175e565b92915050565b6000806000606084860312156117a1576117a0611518565b5b60006117af868287016116d3565b93505060206117c0868287016116d3565b92505060406117d186828701611709565b9150509250925092565b6000819050919050565b6117ee816117db565b81146117f957600080fd5b50565b60008135905061180b816117e5565b92915050565b60006020828403121561182757611826611518565b5b6000611835848285016117fc565b91505092915050565b611847816117db565b82525050565b6000602082019050611862600083018461183e565b92915050565b6000806040838503121561187f5761187e611518565b5b600061188d858286016117fc565b925050602061189e858286016116d3565b9150509250929050565b600060ff82169050919050565b6118be816118a8565b82525050565b60006020820190506118d960008301846118b5565b92915050565b6000602082840312156118f5576118f4611518565b5b6000611903848285016116d3565b91505092915050565b6000806040838503121561192357611922611518565b5b6000611931858286016116d3565b9250506020611942858286016116d3565b9150509250929050565b7f4e487b7100000000000000000000000000000000000000000000000000000000600052602260045260246000fd5b6000600282049050600182168061199357607f821691505b6020821081036119a6576119a561194c565b5b50919050565b6119b5816116aa565b82525050565b60006020820190506119d060008301846119ac565b92915050565b60006060820190506119eb60008301866119ac565b6119f8602083018561175e565b611a05604083018461175e565b949350505050565b6000604082019050611a2260008301856119ac565b611a2f602083018461183e565b9392505050565b7f4e487b7100000000000000000000000000000000000000000000000000000000600052601160045260246000fd5b6000611a70826116e8565b9150611a7b836116e8565b9250828201905080821115611a9357611a92611a36565b5b9291505056fea2646970667358221220838ef1dbba2793066d21cff2686337ed0d8c59cfc003f9eeb8e28709bc60f2fd64736f6c63430008140033",
  "linkReferences": {},
  "deployedLinkReferences": {}
}